{
  "_format": "hh-sol-artifact-1",
  "contractName": "FiveDollarRide",
  "sourceName": "contracts/FiveDollarRide_BNB_Pure.sol",
  "abi": [
    {
      "inputs": [
        {
          "internalType": "address",
          "name": "_feeReceiver",
          "type": "address"
        },
        {
          "internalType": "address",
          "name": "_royalty",
          "type": "address"
        },
        {
          "internalType": "address",
          "name": "_rootUserAddress",
          "type": "address"
        },
        {
          "internalType": "uint256",
          "name": "_rootUserId",
          "type": "uint256"
        },
        {
          "internalType": "address",
          "name": "_priceFeedAddress",
          "type": "address"
        }
      ],
      "stateMutability": "nonpayable",
      "type": "constructor"
    },
    {
      "inputs": [
        {
          "internalType": "address",
          "name": "owner",
          "type": "address"
        }
      ],
      "name": "OwnableInvalidOwner",
      "type": "error"
    },
    {
      "inputs": [
        {
          "internalType": "address",
          "name": "account",
          "type": "address"
        }
      ],
      "name": "OwnableUnauthorizedAccount",
      "type": "error"
    },
    {
      "inputs": [],
      "name": "ReentrancyGuardReentrantCall",
      "type": "error"
    },
    {
      "anonymous": false,
      "inputs": [
        {
          "indexed": false,
          "internalType": "uint256",
          "name": "amount",
          "type": "uint256"
        },
        {
          "indexed": false,
          "internalType": "uint256",
          "name": "level",
          "type": "uint256"
        },
        {
          "indexed": false,
          "internalType": "uint256",
          "name": "timestamp",
          "type": "uint256"
        }
      ],
      "name": "AdminFeePaid",
      "type": "event"
    },
    {
      "anonymous": false,
      "inputs": [
        {
          "indexed": false,
          "internalType": "bool",
          "name": "enabled",
          "type": "bool"
        },
        {
          "indexed": false,
          "internalType": "uint256",
          "name": "timestamp",
          "type": "uint256"
        }
      ],
      "name": "AutoUpdateToggled",
      "type": "event"
    },
    {
      "anonymous": false,
      "inputs": [
        {
          "indexed": false,
          "internalType": "uint256",
          "name": "oldPrice",
          "type": "uint256"
        },
        {
          "indexed": false,
          "internalType": "uint256",
          "name": "newPrice",
          "type": "uint256"
        },
        {
          "indexed": false,
          "internalType": "uint256",
          "name": "timestamp",
          "type": "uint256"
        }
      ],
      "name": "BNBPriceUpdated",
      "type": "event"
    },
    {
      "anonymous": false,
      "inputs": [
        {
          "indexed": true,
          "internalType": "address",
          "name": "by",
          "type": "address"
        },
        {
          "indexed": false,
          "internalType": "uint256",
          "name": "timestamp",
          "type": "uint256"
        }
      ],
      "name": "ContractPaused",
      "type": "event"
    },
    {
      "anonymous": false,
      "inputs": [
        {
          "indexed": true,
          "internalType": "address",
          "name": "by",
          "type": "address"
        },
        {
          "indexed": false,
          "internalType": "uint256",
          "name": "timestamp",
          "type": "uint256"
        }
      ],
      "name": "ContractUnpaused",
      "type": "event"
    },
    {
      "anonymous": false,
      "inputs": [
        {
          "indexed": false,
          "internalType": "uint256",
          "name": "oldReferrer",
          "type": "uint256"
        },
        {
          "indexed": false,
          "internalType": "uint256",
          "name": "newReferrer",
          "type": "uint256"
        },
        {
          "indexed": false,
          "internalType": "uint256",
          "name": "timestamp",
          "type": "uint256"
        }
      ],
      "name": "FallbackReferrerUpdated",
      "type": "event"
    },
    {
      "anonymous": false,
      "inputs": [
        {
          "indexed": true,
          "internalType": "uint256",
          "name": "userId",
          "type": "uint256"
        },
        {
          "indexed": true,
          "internalType": "uint256",
          "name": "fromUser",
          "type": "uint256"
        },
        {
          "indexed": false,
          "internalType": "uint256",
          "name": "amount",
          "type": "uint256"
        },
        {
          "indexed": false,
          "internalType": "string",
          "name": "reason",
          "type": "string"
        },
        {
          "indexed": false,
          "internalType": "uint256",
          "name": "timestamp",
          "type": "uint256"
        }
      ],
      "name": "IncomeLost",
      "type": "event"
    },
    {
      "anonymous": false,
      "inputs": [
        {
          "indexed": true,
          "internalType": "uint8",
          "name": "level",
          "type": "uint8"
        },
        {
          "indexed": false,
          "internalType": "uint256",
          "name": "oldCost",
          "type": "uint256"
        },
        {
          "indexed": false,
          "internalType": "uint256",
          "name": "newCost",
          "type": "uint256"
        },
        {
          "indexed": false,
          "internalType": "uint256",
          "name": "timestamp",
          "type": "uint256"
        }
      ],
      "name": "LevelCostUpdated",
      "type": "event"
    },
    {
      "anonymous": false,
      "inputs": [
        {
          "indexed": false,
          "internalType": "uint256",
          "name": "oldPrice",
          "type": "uint256"
        },
        {
          "indexed": false,
          "internalType": "uint256",
          "name": "newPrice",
          "type": "uint256"
        },
        {
          "indexed": false,
          "internalType": "uint256",
          "name": "timestamp",
          "type": "uint256"
        }
      ],
      "name": "ManualPriceSet",
      "type": "event"
    },
    {
      "anonymous": false,
      "inputs": [
        {
          "indexed": true,
          "internalType": "uint256",
          "name": "fromUserId",
          "type": "uint256"
        },
        {
          "indexed": true,
          "internalType": "uint256",
          "name": "toUserId",
          "type": "uint256"
        },
        {
          "indexed": false,
          "internalType": "uint256",
          "name": "amount",
          "type": "uint256"
        },
        {
          "indexed": false,
          "internalType": "uint256",
          "name": "level",
          "type": "uint256"
        },
        {
          "indexed": false,
          "internalType": "uint256",
          "name": "layer",
          "type": "uint256"
        },
        {
          "indexed": false,
          "internalType": "bool",
          "name": "qualified",
          "type": "bool"
        },
        {
          "indexed": false,
          "internalType": "uint256",
          "name": "timestamp",
          "type": "uint256"
        }
      ],
      "name": "MatrixPayment",
      "type": "event"
    },
    {
      "anonymous": false,
      "inputs": [
        {
          "indexed": false,
          "internalType": "uint8",
          "name": "oldDepth",
          "type": "uint8"
        },
        {
          "indexed": false,
          "internalType": "uint8",
          "name": "newDepth",
          "type": "uint8"
        },
        {
          "indexed": false,
          "internalType": "uint256",
          "name": "timestamp",
          "type": "uint256"
        }
      ],
      "name": "MaxPlacementDepthUpdated",
      "type": "event"
    },
    {
      "anonymous": false,
      "inputs": [
        {
          "indexed": false,
          "internalType": "bool",
          "name": "paused",
          "type": "bool"
        },
        {
          "indexed": false,
          "internalType": "uint256",
          "name": "timestamp",
          "type": "uint256"
        }
      ],
      "name": "OraclePauseToggled",
      "type": "event"
    },
    {
      "anonymous": false,
      "inputs": [
        {
          "indexed": true,
          "internalType": "address",
          "name": "previousOwner",
          "type": "address"
        },
        {
          "indexed": false,
          "internalType": "uint256",
          "name": "timestamp",
          "type": "uint256"
        }
      ],
      "name": "OwnershipRenounced",
      "type": "event"
    },
    {
      "anonymous": false,
      "inputs": [
        {
          "indexed": true,
          "internalType": "address",
          "name": "previousOwner",
          "type": "address"
        },
        {
          "indexed": true,
          "internalType": "address",
          "name": "newOwner",
          "type": "address"
        }
      ],
      "name": "OwnershipTransferred",
      "type": "event"
    },
    {
      "anonymous": false,
      "inputs": [
        {
          "indexed": false,
          "internalType": "uint256",
          "name": "minPrice",
          "type": "uint256"
        },
        {
          "indexed": false,
          "internalType": "uint256",
          "name": "maxPrice",
          "type": "uint256"
        },
        {
          "indexed": false,
          "internalType": "uint256",
          "name": "timestamp",
          "type": "uint256"
        }
      ],
      "name": "PriceBoundsUpdated",
      "type": "event"
    },
    {
      "anonymous": false,
      "inputs": [
        {
          "indexed": true,
          "internalType": "address",
          "name": "newFeed",
          "type": "address"
        },
        {
          "indexed": false,
          "internalType": "uint256",
          "name": "timestamp",
          "type": "uint256"
        }
      ],
      "name": "PriceFeedUpdated",
      "type": "event"
    },
    {
      "anonymous": false,
      "inputs": [
        {
          "indexed": false,
          "internalType": "string",
          "name": "reason",
          "type": "string"
        },
        {
          "indexed": false,
          "internalType": "uint256",
          "name": "currentPrice",
          "type": "uint256"
        },
        {
          "indexed": false,
          "internalType": "uint256",
          "name": "timestamp",
          "type": "uint256"
        }
      ],
      "name": "PriceUpdateFailed",
      "type": "event"
    },
    {
      "anonymous": false,
      "inputs": [
        {
          "indexed": true,
          "internalType": "uint256",
          "name": "referrerId",
          "type": "uint256"
        },
        {
          "indexed": true,
          "internalType": "uint256",
          "name": "userId",
          "type": "uint256"
        },
        {
          "indexed": false,
          "internalType": "uint256",
          "name": "amount",
          "type": "uint256"
        },
        {
          "indexed": false,
          "internalType": "uint256",
          "name": "timestamp",
          "type": "uint256"
        }
      ],
      "name": "ReferralPayment",
      "type": "event"
    },
    {
      "anonymous": false,
      "inputs": [
        {
          "indexed": false,
          "internalType": "uint256",
          "name": "oldCooldown",
          "type": "uint256"
        },
        {
          "indexed": false,
          "internalType": "uint256",
          "name": "newCooldown",
          "type": "uint256"
        },
        {
          "indexed": false,
          "internalType": "uint256",
          "name": "timestamp",
          "type": "uint256"
        }
      ],
      "name": "RegistrationCooldownUpdated",
      "type": "event"
    },
    {
      "anonymous": false,
      "inputs": [
        {
          "indexed": true,
          "internalType": "address",
          "name": "user",
          "type": "address"
        },
        {
          "indexed": false,
          "internalType": "uint256",
          "name": "cooldownRemaining",
          "type": "uint256"
        },
        {
          "indexed": false,
          "internalType": "uint256",
          "name": "timestamp",
          "type": "uint256"
        }
      ],
      "name": "RegistrationRateLimited",
      "type": "event"
    },
    {
      "anonymous": false,
      "inputs": [
        {
          "indexed": false,
          "internalType": "uint256",
          "name": "amount",
          "type": "uint256"
        },
        {
          "indexed": false,
          "internalType": "string",
          "name": "source",
          "type": "string"
        },
        {
          "indexed": false,
          "internalType": "uint256",
          "name": "timestamp",
          "type": "uint256"
        }
      ],
      "name": "RootFallbackIncome",
      "type": "event"
    },
    {
      "anonymous": false,
      "inputs": [
        {
          "indexed": true,
          "internalType": "uint256",
          "name": "rootUserId",
          "type": "uint256"
        },
        {
          "indexed": true,
          "internalType": "address",
          "name": "rootAddress",
          "type": "address"
        },
        {
          "indexed": false,
          "internalType": "uint256",
          "name": "timestamp",
          "type": "uint256"
        }
      ],
      "name": "RootUserCreated",
      "type": "event"
    },
    {
      "anonymous": false,
      "inputs": [
        {
          "indexed": true,
          "internalType": "uint256",
          "name": "userId",
          "type": "uint256"
        },
        {
          "indexed": true,
          "internalType": "uint256",
          "name": "tier",
          "type": "uint256"
        },
        {
          "indexed": false,
          "internalType": "uint256",
          "name": "amount",
          "type": "uint256"
        },
        {
          "indexed": false,
          "internalType": "uint256",
          "name": "timestamp",
          "type": "uint256"
        }
      ],
      "name": "RoyaltyClaimed",
      "type": "event"
    },
    {
      "anonymous": false,
      "inputs": [
        {
          "indexed": true,
          "internalType": "uint256",
          "name": "userId",
          "type": "uint256"
        },
        {
          "indexed": false,
          "internalType": "uint256",
          "name": "amount",
          "type": "uint256"
        },
        {
          "indexed": false,
          "internalType": "uint256",
          "name": "timestamp",
          "type": "uint256"
        }
      ],
      "name": "RoyaltyPoolFunded",
      "type": "event"
    },
    {
      "anonymous": false,
      "inputs": [
        {
          "indexed": true,
          "internalType": "uint256",
          "name": "sponsorId",
          "type": "uint256"
        },
        {
          "indexed": true,
          "internalType": "uint256",
          "name": "fromUserId",
          "type": "uint256"
        },
        {
          "indexed": false,
          "internalType": "uint256",
          "name": "amount",
          "type": "uint256"
        },
        {
          "indexed": false,
          "internalType": "uint256",
          "name": "level",
          "type": "uint256"
        },
        {
          "indexed": false,
          "internalType": "uint256",
          "name": "timestamp",
          "type": "uint256"
        }
      ],
      "name": "SponsorCommissionPaid",
      "type": "event"
    },
    {
      "anonymous": false,
      "inputs": [
        {
          "indexed": false,
          "internalType": "uint256",
          "name": "newIntervalDays",
          "type": "uint256"
        },
        {
          "indexed": false,
          "internalType": "uint256",
          "name": "timestamp",
          "type": "uint256"
        }
      ],
      "name": "UpdateIntervalChanged",
      "type": "event"
    },
    {
      "anonymous": false,
      "inputs": [
        {
          "indexed": true,
          "internalType": "uint256",
          "name": "userId",
          "type": "uint256"
        },
        {
          "indexed": true,
          "internalType": "address",
          "name": "account",
          "type": "address"
        },
        {
          "indexed": true,
          "internalType": "uint256",
          "name": "referrer",
          "type": "uint256"
        },
        {
          "indexed": false,
          "internalType": "uint256",
          "name": "timestamp",
          "type": "uint256"
        }
      ],
      "name": "UserRegistered",
      "type": "event"
    },
    {
      "anonymous": false,
      "inputs": [
        {
          "indexed": true,
          "internalType": "uint256",
          "name": "userId",
          "type": "uint256"
        },
        {
          "indexed": false,
          "internalType": "uint256",
          "name": "newLevel",
          "type": "uint256"
        },
        {
          "indexed": false,
          "internalType": "uint256",
          "name": "amount",
          "type": "uint256"
        },
        {
          "indexed": false,
          "internalType": "uint256",
          "name": "timestamp",
          "type": "uint256"
        }
      ],
      "name": "UserUpgraded",
      "type": "event"
    },
    {
      "inputs": [],
      "name": "ADMIN_FEE_PERCENT",
      "outputs": [
        {
          "internalType": "uint8",
          "name": "",
          "type": "uint8"
        }
      ],
      "stateMutability": "view",
      "type": "function"
    },
    {
      "inputs": [],
      "name": "DIRECT_REQUIRED",
      "outputs": [
        {
          "internalType": "uint256",
          "name": "",
          "type": "uint256"
        }
      ],
      "stateMutability": "view",
      "type": "function"
    },
    {
      "inputs": [],
      "name": "FEE_RECEIVER",
      "outputs": [
        {
          "internalType": "address",
          "name": "",
          "type": "address"
        }
      ],
      "stateMutability": "view",
      "type": "function"
    },
    {
      "inputs": [],
      "name": "MAX_INCOME_LAYER",
      "outputs": [
        {
          "internalType": "uint8",
          "name": "",
          "type": "uint8"
        }
      ],
      "stateMutability": "view",
      "type": "function"
    },
    {
      "inputs": [],
      "name": "MAX_LEVELS",
      "outputs": [
        {
          "internalType": "uint8",
          "name": "",
          "type": "uint8"
        }
      ],
      "stateMutability": "view",
      "type": "function"
    },
    {
      "inputs": [],
      "name": "MAX_REFERRAL_LAYERS",
      "outputs": [
        {
          "internalType": "uint256",
          "name": "",
          "type": "uint256"
        }
      ],
      "stateMutability": "view",
      "type": "function"
    },
    {
      "inputs": [],
      "name": "ROYALTY_ADDR",
      "outputs": [
        {
          "internalType": "contract IRoyalty",
          "name": "",
          "type": "address"
        }
      ],
      "stateMutability": "view",
      "type": "function"
    },
    {
      "inputs": [],
      "name": "ROYALTY_FUND_PERCENT",
      "outputs": [
        {
          "internalType": "uint8",
          "name": "",
          "type": "uint8"
        }
      ],
      "stateMutability": "view",
      "type": "function"
    },
    {
      "inputs": [],
      "name": "START_TIME",
      "outputs": [
        {
          "internalType": "uint256",
          "name": "",
          "type": "uint256"
        }
      ],
      "stateMutability": "view",
      "type": "function"
    },
    {
      "inputs": [],
      "name": "autoUpdateEnabled",
      "outputs": [
        {
          "internalType": "bool",
          "name": "",
          "type": "bool"
        }
      ],
      "stateMutability": "view",
      "type": "function"
    },
    {
      "inputs": [],
      "name": "bnbPrice",
      "outputs": [
        {
          "internalType": "uint256",
          "name": "",
          "type": "uint256"
        }
      ],
      "stateMutability": "view",
      "type": "function"
    },
    {
      "inputs": [
        {
          "internalType": "uint256",
          "name": "_tier",
          "type": "uint256"
        }
      ],
      "name": "claimMyRoyalty",
      "outputs": [],
      "stateMutability": "nonpayable",
      "type": "function"
    },
    {
      "inputs": [
        {
          "internalType": "uint256",
          "name": "_tier",
          "type": "uint256"
        }
      ],
      "name": "claimRoyalty",
      "outputs": [],
      "stateMutability": "nonpayable",
      "type": "function"
    },
    {
      "inputs": [
        {
          "internalType": "uint256",
          "name": "_id",
          "type": "uint256"
        },
        {
          "internalType": "uint256",
          "name": "_royaltyLvl",
          "type": "uint256"
        }
      ],
      "name": "claimRoyalty",
      "outputs": [],
      "stateMutability": "nonpayable",
      "type": "function"
    },
    {
      "inputs": [],
      "name": "fallbackReferrer",
      "outputs": [
        {
          "internalType": "uint256",
          "name": "",
          "type": "uint256"
        }
      ],
      "stateMutability": "view",
      "type": "function"
    },
    {
      "inputs": [],
      "name": "getAllLevelCosts",
      "outputs": [
        {
          "internalType": "uint256[13]",
          "name": "costs",
          "type": "uint256[13]"
        },
        {
          "internalType": "uint256[13]",
          "name": "fees",
          "type": "uint256[13]"
        },
        {
          "internalType": "uint256[13]",
          "name": "totals",
          "type": "uint256[13]"
        }
      ],
      "stateMutability": "view",
      "type": "function"
    },
    {
      "inputs": [],
      "name": "getContractBalance",
      "outputs": [
        {
          "internalType": "uint256",
          "name": "",
          "type": "uint256"
        }
      ],
      "stateMutability": "view",
      "type": "function"
    },
    {
      "inputs": [],
      "name": "getLatestBNBPrice",
      "outputs": [
        {
          "internalType": "uint256",
          "name": "",
          "type": "uint256"
        }
      ],
      "stateMutability": "view",
      "type": "function"
    },
    {
      "inputs": [
        {
          "internalType": "uint256",
          "name": "_level",
          "type": "uint256"
        }
      ],
      "name": "getLevelCost",
      "outputs": [
        {
          "internalType": "uint256",
          "name": "",
          "type": "uint256"
        }
      ],
      "stateMutability": "view",
      "type": "function"
    },
    {
      "inputs": [
        {
          "internalType": "uint256",
          "name": "_level",
          "type": "uint256"
        }
      ],
      "name": "getLevelCostWithFee",
      "outputs": [
        {
          "internalType": "uint256",
          "name": "cost",
          "type": "uint256"
        },
        {
          "internalType": "uint256",
          "name": "adminFee",
          "type": "uint256"
        },
        {
          "internalType": "uint256",
          "name": "total",
          "type": "uint256"
        }
      ],
      "stateMutability": "view",
      "type": "function"
    },
    {
      "inputs": [],
      "name": "getMyIncomeBreakdown",
      "outputs": [
        {
          "internalType": "uint256",
          "name": "totalDeposit",
          "type": "uint256"
        },
        {
          "internalType": "uint256",
          "name": "totalIncome",
          "type": "uint256"
        },
        {
          "internalType": "uint256",
          "name": "referralIncome",
          "type": "uint256"
        },
        {
          "internalType": "uint256",
          "name": "sponsorIncome",
          "type": "uint256"
        },
        {
          "internalType": "uint256",
          "name": "levelIncome",
          "type": "uint256"
        },
        {
          "internalType": "uint256",
          "name": "lostAmount",
          "type": "uint256"
        }
      ],
      "stateMutability": "view",
      "type": "function"
    },
    {
      "inputs": [],
      "name": "getMyInfo",
      "outputs": [
        {
          "internalType": "uint256",
          "name": "userId",
          "type": "uint256"
        },
        {
          "internalType": "uint256",
          "name": "level",
          "type": "uint256"
        },
        {
          "internalType": "uint256",
          "name": "team",
          "type": "uint256"
        },
        {
          "internalType": "uint256",
          "name": "directTeam",
          "type": "uint256"
        },
        {
          "internalType": "uint256",
          "name": "totalIncome",
          "type": "uint256"
        },
        {
          "internalType": "uint256",
          "name": "referrerId",
          "type": "uint256"
        },
        {
          "internalType": "uint256",
          "name": "uplineId",
          "type": "uint256"
        },
        {
          "internalType": "uint256",
          "name": "registrationTime",
          "type": "uint256"
        }
      ],
      "stateMutability": "view",
      "type": "function"
    },
    {
      "inputs": [],
      "name": "getMyRoyaltyStatus",
      "outputs": [
        {
          "internalType": "uint256[4]",
          "name": "claimableAmounts",
          "type": "uint256[4]"
        },
        {
          "internalType": "bool[4]",
          "name": "isEligible",
          "type": "bool[4]"
        },
        {
          "internalType": "bool[4]",
          "name": "hasClaimed",
          "type": "bool[4]"
        }
      ],
      "stateMutability": "view",
      "type": "function"
    },
    {
      "inputs": [],
      "name": "getMyTeam",
      "outputs": [
        {
          "internalType": "uint256",
          "name": "teamSize",
          "type": "uint256"
        },
        {
          "internalType": "uint256",
          "name": "directCount",
          "type": "uint256"
        },
        {
          "internalType": "uint256[]",
          "name": "directReferralIds",
          "type": "uint256[]"
        },
        {
          "internalType": "address[]",
          "name": "directReferralAddresses",
          "type": "address[]"
        }
      ],
      "stateMutability": "view",
      "type": "function"
    },
    {
      "inputs": [],
      "name": "getPriceStatus",
      "outputs": [
        {
          "internalType": "uint256",
          "name": "oraclePrice",
          "type": "uint256"
        },
        {
          "internalType": "uint256",
          "name": "storedPrice",
          "type": "uint256"
        },
        {
          "internalType": "bool",
          "name": "updateDue",
          "type": "bool"
        },
        {
          "internalType": "uint256",
          "name": "timeSinceUpdate",
          "type": "uint256"
        }
      ],
      "stateMutability": "view",
      "type": "function"
    },
    {
      "inputs": [
        {
          "internalType": "uint256",
          "name": "_userId",
          "type": "uint256"
        }
      ],
      "name": "getReferrerAddress",
      "outputs": [
        {
          "internalType": "address",
          "name": "",
          "type": "address"
        }
      ],
      "stateMutability": "view",
      "type": "function"
    },
    {
      "inputs": [],
      "name": "getRegistrationCost",
      "outputs": [
        {
          "internalType": "uint256",
          "name": "cost",
          "type": "uint256"
        },
        {
          "internalType": "uint256",
          "name": "levelCost",
          "type": "uint256"
        },
        {
          "internalType": "uint256",
          "name": "adminFee",
          "type": "uint256"
        }
      ],
      "stateMutability": "view",
      "type": "function"
    },
    {
      "inputs": [
        {
          "internalType": "uint256",
          "name": "_tier",
          "type": "uint256"
        }
      ],
      "name": "getRoyaltyData",
      "outputs": [
        {
          "internalType": "uint256",
          "name": "claimableAmount",
          "type": "uint256"
        },
        {
          "internalType": "bool",
          "name": "isEligible",
          "type": "bool"
        },
        {
          "internalType": "bool",
          "name": "hasClaimed",
          "type": "bool"
        }
      ],
      "stateMutability": "view",
      "type": "function"
    },
    {
      "inputs": [
        {
          "internalType": "address",
          "name": "_user",
          "type": "address"
        },
        {
          "internalType": "uint256",
          "name": "_tier",
          "type": "uint256"
        }
      ],
      "name": "getRoyaltyDataByAddress",
      "outputs": [
        {
          "internalType": "uint256",
          "name": "claimableAmount",
          "type": "uint256"
        },
        {
          "internalType": "bool",
          "name": "isEligible",
          "type": "bool"
        },
        {
          "internalType": "bool",
          "name": "hasClaimed",
          "type": "bool"
        }
      ],
      "stateMutability": "view",
      "type": "function"
    },
    {
      "inputs": [
        {
          "internalType": "uint256",
          "name": "_tier",
          "type": "uint256"
        }
      ],
      "name": "getRoyaltyTierStats",
      "outputs": [
        {
          "internalType": "uint256",
          "name": "userCount",
          "type": "uint256"
        },
        {
          "internalType": "uint256",
          "name": "distributionRound",
          "type": "uint256"
        },
        {
          "internalType": "uint256",
          "name": "pendingUserCount",
          "type": "uint256"
        }
      ],
      "stateMutability": "view",
      "type": "function"
    },
    {
      "inputs": [
        {
          "internalType": "uint256",
          "name": "_levels",
          "type": "uint256"
        }
      ],
      "name": "getUpgradeCost",
      "outputs": [
        {
          "internalType": "uint256",
          "name": "totalCost",
          "type": "uint256"
        },
        {
          "internalType": "uint256[]",
          "name": "breakdown",
          "type": "uint256[]"
        }
      ],
      "stateMutability": "view",
      "type": "function"
    },
    {
      "inputs": [
        {
          "internalType": "address",
          "name": "_userAddress",
          "type": "address"
        },
        {
          "internalType": "uint256",
          "name": "_levels",
          "type": "uint256"
        }
      ],
      "name": "getUpgradeCostFor",
      "outputs": [
        {
          "internalType": "uint256",
          "name": "totalCost",
          "type": "uint256"
        },
        {
          "internalType": "uint256[]",
          "name": "breakdown",
          "type": "uint256[]"
        }
      ],
      "stateMutability": "view",
      "type": "function"
    },
    {
      "inputs": [
        {
          "internalType": "uint256",
          "name": "_userId",
          "type": "uint256"
        }
      ],
      "name": "getUserAccount",
      "outputs": [
        {
          "internalType": "address",
          "name": "",
          "type": "address"
        }
      ],
      "stateMutability": "view",
      "type": "function"
    },
    {
      "inputs": [
        {
          "internalType": "address",
          "name": "",
          "type": "address"
        }
      ],
      "name": "id",
      "outputs": [
        {
          "internalType": "uint256",
          "name": "",
          "type": "uint256"
        }
      ],
      "stateMutability": "view",
      "type": "function"
    },
    {
      "inputs": [],
      "name": "initializeRoyalty",
      "outputs": [],
      "stateMutability": "nonpayable",
      "type": "function"
    },
    {
      "inputs": [],
      "name": "isAutonomous",
      "outputs": [
        {
          "internalType": "bool",
          "name": "",
          "type": "bool"
        }
      ],
      "stateMutability": "view",
      "type": "function"
    },
    {
      "inputs": [],
      "name": "isPriceUpdateDue",
      "outputs": [
        {
          "internalType": "bool",
          "name": "",
          "type": "bool"
        }
      ],
      "stateMutability": "view",
      "type": "function"
    },
    {
      "inputs": [
        {
          "internalType": "address",
          "name": "_address",
          "type": "address"
        }
      ],
      "name": "isRegistered",
      "outputs": [
        {
          "internalType": "bool",
          "name": "",
          "type": "bool"
        }
      ],
      "stateMutability": "view",
      "type": "function"
    },
    {
      "inputs": [],
      "name": "lastPriceUpdate",
      "outputs": [
        {
          "internalType": "uint256",
          "name": "",
          "type": "uint256"
        }
      ],
      "stateMutability": "view",
      "type": "function"
    },
    {
      "inputs": [
        {
          "internalType": "address",
          "name": "",
          "type": "address"
        }
      ],
      "name": "lastRegistrationTime",
      "outputs": [
        {
          "internalType": "uint256",
          "name": "",
          "type": "uint256"
        }
      ],
      "stateMutability": "view",
      "type": "function"
    },
    {
      "inputs": [
        {
          "internalType": "uint256",
          "name": "",
          "type": "uint256"
        }
      ],
      "name": "levelCosts",
      "outputs": [
        {
          "internalType": "uint256",
          "name": "",
          "type": "uint256"
        }
      ],
      "stateMutability": "view",
      "type": "function"
    },
    {
      "inputs": [
        {
          "internalType": "uint256",
          "name": "",
          "type": "uint256"
        }
      ],
      "name": "lostIncome",
      "outputs": [
        {
          "internalType": "uint256",
          "name": "",
          "type": "uint256"
        }
      ],
      "stateMutability": "view",
      "type": "function"
    },
    {
      "inputs": [],
      "name": "manualPriceUpdate",
      "outputs": [],
      "stateMutability": "nonpayable",
      "type": "function"
    },
    {
      "inputs": [
        {
          "internalType": "uint256",
          "name": "",
          "type": "uint256"
        }
      ],
      "name": "matrixDirect",
      "outputs": [
        {
          "internalType": "uint256",
          "name": "",
          "type": "uint256"
        }
      ],
      "stateMutability": "view",
      "type": "function"
    },
    {
      "inputs": [],
      "name": "maxBNBPrice",
      "outputs": [
        {
          "internalType": "uint256",
          "name": "",
          "type": "uint256"
        }
      ],
      "stateMutability": "view",
      "type": "function"
    },
    {
      "inputs": [],
      "name": "maxPlacementDepth",
      "outputs": [
        {
          "internalType": "uint8",
          "name": "",
          "type": "uint8"
        }
      ],
      "stateMutability": "view",
      "type": "function"
    },
    {
      "inputs": [],
      "name": "minBNBPrice",
      "outputs": [
        {
          "internalType": "uint256",
          "name": "",
          "type": "uint256"
        }
      ],
      "stateMutability": "view",
      "type": "function"
    },
    {
      "inputs": [],
      "name": "oraclePaused",
      "outputs": [
        {
          "internalType": "bool",
          "name": "",
          "type": "bool"
        }
      ],
      "stateMutability": "view",
      "type": "function"
    },
    {
      "inputs": [],
      "name": "owner",
      "outputs": [
        {
          "internalType": "address",
          "name": "",
          "type": "address"
        }
      ],
      "stateMutability": "view",
      "type": "function"
    },
    {
      "inputs": [],
      "name": "pauseContract",
      "outputs": [],
      "stateMutability": "nonpayable",
      "type": "function"
    },
    {
      "inputs": [],
      "name": "paused",
      "outputs": [
        {
          "internalType": "bool",
          "name": "",
          "type": "bool"
        }
      ],
      "stateMutability": "view",
      "type": "function"
    },
    {
      "inputs": [],
      "name": "priceFeed",
      "outputs": [
        {
          "internalType": "contract AggregatorV3Interface",
          "name": "",
          "type": "address"
        }
      ],
      "stateMutability": "view",
      "type": "function"
    },
    {
      "inputs": [],
      "name": "priceUpdateInterval",
      "outputs": [
        {
          "internalType": "uint256",
          "name": "",
          "type": "uint256"
        }
      ],
      "stateMutability": "view",
      "type": "function"
    },
    {
      "inputs": [],
      "name": "recoverBNB",
      "outputs": [],
      "stateMutability": "nonpayable",
      "type": "function"
    },
    {
      "inputs": [
        {
          "internalType": "uint256",
          "name": "_ref",
          "type": "uint256"
        },
        {
          "internalType": "address",
          "name": "_newAcc",
          "type": "address"
        }
      ],
      "name": "register",
      "outputs": [],
      "stateMutability": "payable",
      "type": "function"
    },
    {
      "inputs": [
        {
          "internalType": "address",
          "name": "_referrerAddress",
          "type": "address"
        }
      ],
      "name": "registerMe",
      "outputs": [],
      "stateMutability": "payable",
      "type": "function"
    },
    {
      "inputs": [],
      "name": "registrationCooldown",
      "outputs": [
        {
          "internalType": "uint256",
          "name": "",
          "type": "uint256"
        }
      ],
      "stateMutability": "view",
      "type": "function"
    },
    {
      "inputs": [],
      "name": "renounceOwnership",
      "outputs": [],
      "stateMutability": "nonpayable",
      "type": "function"
    },
    {
      "inputs": [
        {
          "internalType": "bool",
          "name": "_enabled",
          "type": "bool"
        }
      ],
      "name": "setAutoUpdateEnabled",
      "outputs": [],
      "stateMutability": "nonpayable",
      "type": "function"
    },
    {
      "inputs": [
        {
          "internalType": "uint256",
          "name": "_newFallback",
          "type": "uint256"
        }
      ],
      "name": "setFallbackReferrer",
      "outputs": [],
      "stateMutability": "nonpayable",
      "type": "function"
    },
    {
      "inputs": [
        {
          "internalType": "uint8",
          "name": "_level",
          "type": "uint8"
        },
        {
          "internalType": "uint256",
          "name": "_newCost",
          "type": "uint256"
        }
      ],
      "name": "setLevelCost",
      "outputs": [],
      "stateMutability": "nonpayable",
      "type": "function"
    },
    {
      "inputs": [
        {
          "internalType": "uint256",
          "name": "_level",
          "type": "uint256"
        },
        {
          "internalType": "uint256",
          "name": "_costUSD",
          "type": "uint256"
        }
      ],
      "name": "setLevelCostUSD",
      "outputs": [],
      "stateMutability": "nonpayable",
      "type": "function"
    },
    {
      "inputs": [
        {
          "internalType": "uint256",
          "name": "_price",
          "type": "uint256"
        }
      ],
      "name": "setManualPrice",
      "outputs": [],
      "stateMutability": "nonpayable",
      "type": "function"
    },
    {
      "inputs": [
        {
          "internalType": "uint8",
          "name": "_newDepth",
          "type": "uint8"
        }
      ],
      "name": "setMaxPlacementDepth",
      "outputs": [],
      "stateMutability": "nonpayable",
      "type": "function"
    },
    {
      "inputs": [
        {
          "internalType": "uint256",
          "name": "_minPrice",
          "type": "uint256"
        },
        {
          "internalType": "uint256",
          "name": "_maxPrice",
          "type": "uint256"
        }
      ],
      "name": "setPriceBounds",
      "outputs": [],
      "stateMutability": "nonpayable",
      "type": "function"
    },
    {
      "inputs": [
        {
          "internalType": "address",
          "name": "_priceFeedAddress",
          "type": "address"
        }
      ],
      "name": "setPriceFeed",
      "outputs": [],
      "stateMutability": "nonpayable",
      "type": "function"
    },
    {
      "inputs": [
        {
          "internalType": "uint256",
          "name": "_cooldownSeconds",
          "type": "uint256"
        }
      ],
      "name": "setRegistrationCooldown",
      "outputs": [],
      "stateMutability": "nonpayable",
      "type": "function"
    },
    {
      "inputs": [
        {
          "internalType": "uint256",
          "name": "_days",
          "type": "uint256"
        }
      ],
      "name": "setUpdateInterval",
      "outputs": [],
      "stateMutability": "nonpayable",
      "type": "function"
    },
    {
      "inputs": [
        {
          "internalType": "uint256",
          "name": "",
          "type": "uint256"
        },
        {
          "internalType": "uint256",
          "name": "",
          "type": "uint256"
        },
        {
          "internalType": "uint256",
          "name": "",
          "type": "uint256"
        }
      ],
      "name": "teams",
      "outputs": [
        {
          "internalType": "uint256",
          "name": "",
          "type": "uint256"
        }
      ],
      "stateMutability": "view",
      "type": "function"
    },
    {
      "inputs": [],
      "name": "toggleOraclePause",
      "outputs": [],
      "stateMutability": "nonpayable",
      "type": "function"
    },
    {
      "inputs": [],
      "name": "totalUsers",
      "outputs": [
        {
          "internalType": "uint256",
          "name": "",
          "type": "uint256"
        }
      ],
      "stateMutability": "view",
      "type": "function"
    },
    {
      "inputs": [
        {
          "internalType": "address",
          "name": "newOwner",
          "type": "address"
        }
      ],
      "name": "transferOwnership",
      "outputs": [],
      "stateMutability": "nonpayable",
      "type": "function"
    },
    {
      "inputs": [],
      "name": "unpauseContract",
      "outputs": [],
      "stateMutability": "nonpayable",
      "type": "function"
    },
    {
      "inputs": [
        {
          "internalType": "uint256",
          "name": "_price",
          "type": "uint256"
        }
      ],
      "name": "updateBNBPrice",
      "outputs": [],
      "stateMutability": "nonpayable",
      "type": "function"
    },
    {
      "inputs": [
        {
          "internalType": "uint256",
          "name": "_id",
          "type": "uint256"
        },
        {
          "internalType": "uint256",
          "name": "_lvls",
          "type": "uint256"
        }
      ],
      "name": "upgrade",
      "outputs": [],
      "stateMutability": "payable",
      "type": "function"
    },
    {
      "inputs": [
        {
          "internalType": "uint256",
          "name": "_levels",
          "type": "uint256"
        }
      ],
      "name": "upgradeMe",
      "outputs": [],
      "stateMutability": "payable",
      "type": "function"
    },
    {
      "inputs": [
        {
          "internalType": "uint256",
          "name": "",
          "type": "uint256"
        }
      ],
      "name": "userIncome",
      "outputs": [
        {
          "internalType": "uint256",
          "name": "totalDeposit",
          "type": "uint256"
        },
        {
          "internalType": "uint256",
          "name": "totalIncome",
          "type": "uint256"
        },
        {
          "internalType": "uint256",
          "name": "referralIncome",
          "type": "uint256"
        },
        {
          "internalType": "uint256",
          "name": "sponsorIncome",
          "type": "uint256"
        },
        {
          "internalType": "uint256",
          "name": "levelIncome",
          "type": "uint256"
        }
      ],
      "stateMutability": "view",
      "type": "function"
    },
    {
      "inputs": [
        {
          "internalType": "uint256",
          "name": "",
          "type": "uint256"
        }
      ],
      "name": "userInfo",
      "outputs": [
        {
          "internalType": "bool",
          "name": "exists",
          "type": "bool"
        },
        {
          "internalType": "address",
          "name": "account",
          "type": "address"
        },
        {
          "internalType": "uint256",
          "name": "referrer",
          "type": "uint256"
        },
        {
          "internalType": "uint256",
          "name": "upline",
          "type": "uint256"
        },
        {
          "internalType": "uint256",
          "name": "level",
          "type": "uint256"
        },
        {
          "internalType": "uint256",
          "name": "directTeam",
          "type": "uint256"
        },
        {
          "internalType": "uint256",
          "name": "team",
          "type": "uint256"
        },
        {
          "internalType": "uint256",
          "name": "registrationTime",
          "type": "uint256"
        }
      ],
      "stateMutability": "view",
      "type": "function"
    },
    {
      "stateMutability": "payable",
      "type": "receive"
    }
  ],
  "bytecode": "0x610100346200069557601f62005ac138819003918201601f19168301916001600160401b03831184841017620005075780849260a09460405283398101031262000695576200004e816200069a565b906200005d602082016200069a565b6200006b604083016200069a565b926200007f6080606085015194016200069a565b93600160005533156200067c57600154336001600160a01b03821660008051602062005aa1833981519152600080a36001600160a81b0319163360ff60a01b191617601960a21b176001908155610e106004556830f3a473b371bc000060065562093a806007556009805460ff19169091179055670de0b6b3a7640000600a5569152d02c7e14af6800000600b55604051926001600160401b036101a085019081119085111762000507576101a08401604052674563918244f400008085526020850152678ac7230489e8000060408501526801158e460913d00000606085015268022b1c8c1227a0000060808501526804563918244f40000060a08501526808ac7230489e80000060c0850152681158e460913d00000060e0850152610100936822b1c8c1227a00000085820152684563918244f4000000610120820152688ac7230489e80000006101408201526901158e460913d000000061016082015269022b1c8c1227a000000061018082015260005b600d81106200065d5750506001600160a01b0383161562000618576001600160a01b0316908115620005e1576001600160a01b03169485156200059c57841562000557576001600160a01b03169182156200051d5760805260a0528260c0524260e05260018060a01b031960055416176005554260085581601b5582600052601c6020528160406000205560405190810181811060018060401b03821117620005075760405260018152600660208201848152604083018481526060840185815260808501600d815260a08601916000835260c08701936000855260e088019542875289600052601d6020526040600020985115159060ff8a5491610100600160a81b03905160081b1692169060018060a81b03191617178855516001880155516002870155516003860155516004850155516005840155519101556040519060a082019082821060018060401b0383111762000507576004916040526000835260208301600081526040840160008152606085019160008352608086019360008552600052601e6020526040600020955186555160018601555160028501555160038401555191015560c0516023546801000000000000000081101562000507576001810180602355811015620004f15781906023600052602060002001556001601a55806002557fccf9e170264f78923037f9d4f09c5eb756fcb20f871f02dcedb45f500d77b9886020604051428152a360405133600060008051602062005aa18339815191528180a36153f19081620006b08239608051818181610b36015281816112c801528181612dab0152614213015260a05181818161077e015281816107e001528181610abf015281816117b70152818161188401528181611b9b015281816123bc01528181612a8701528181612ae901528181612d3a01528181612f7e0152818161417c01528181614f5b015281816150d801526151b4015260c05181818161146b01528181611b430152818161203c0152818161237201528181612f45015281816142c30152614a9a015260e05181610fad0152f35b634e487b7160e01b600052603260045260246000fd5b634e487b7160e01b600052604160045260246000fd5b60405162461bcd60e51b8152602060048201526012602482015271125b9d985b1a59081c1c9a58d9481999595960721b6044820152606490fd5b60405162461bcd60e51b815260206004820152601460248201527f496e76616c696420726f6f7420757365722049440000000000000000000000006044820152606490fd5b60405162461bcd60e51b815260206004820152601460248201527f496e76616c696420726f6f7420616464726573730000000000000000000000006044820152606490fd5b60405162461bcd60e51b815260206004820152600f60248201526e496e76616c696420726f79616c747960881b6044820152606490fd5b60405162461bcd60e51b815260206004820152601460248201527f496e76616c6964206665652072656365697665720000000000000000000000006044820152606490fd5b81516001600160501b0316600c820155602090910190600101620001f3565b604051631e4fbdf760e01b815260006004820152602490fd5b600080fd5b51906001600160a01b0382168203620006955756fe608080604052600436101561001d575b50361561001b57600080fd5b005b600090813560e01c9081630e1bc0ee146137ac5750806317d031a31461373957806317f1a9311461366c57806319b9dfb5146135bb5780631daa8ae21461359d57806321d178fb146132fd5780632233a830146132d35780632b6e4da0146132b45780632d8ae549146132645780633586cd141461324157806339b8616514613129578063437f6e2314612f2a578063439766ce14612e96578063451450ec146127e75780634a429d12146127a75780634bf96a88146121e75780634cd2b1ea146125bf578063504e47301461259c57806351d70bc414612518578063576dde12146124fa5780635aabf7f1146124a65780635c0c900b146122e55780635c975abb146122c25780635d7d6342146122615780635ffde7be146122435780636266a380146121ec5780636702c7bf146121e75780636949faeb146121c9578063697d2428146121ad5780636bfdf8a0146120f65780636c0c0a5c146120d85780636dc76a73146120af5780636f9fb98a146120935780636fa6e58a14611fce5780637124c68314611f01578063715018a614611e72578063724e78da14611df6578063741bef1a14611dcd57806376ed7f0e14611d6d5780637706ba5214611d47578063790bd58414611d295780637daa10ce14611cdb5780637e06a01f14611caa5780637f6e8cbf14611c71578063806d73be14611abe57806382ee173e14611a4257806388afbe3e14611a195780638955defb146119e05780638da5cb5b146119b75780638e69d19d146119385780639c8c3e80146118b35780639d7206521461186e5780639d89968e14611771578063a65ff74c14611732578063a737865014611663578063aafb980014611647578063b33712c5146115ba578063bfca1cd0146112f7578063bff1f9e11461159c578063c3c5a54714611561578063cb56e632146114b5578063d0ac2596146112fc578063d3d50d95146112f7578063d3e78e4d146112b2578063d7a71868146111e7578063dbbdf08314610fd0578063ddaa26ad14610f95578063e649f37814610f70578063e6bb42d814610e84578063ec09306e14610e60578063ecef6cff14610e14578063f12c860a14610d25578063f28d3d5e14610cfb578063f2fde38b14610c63578063f343432c14610c45578063fb2ddd70146104b5578063fdc611811461047f5763ff329e7c0361000f573461047c57602036600319011261047c5760043590338152601c60205260408120546103ad811515613f63565b8152601d60205260036040822001546103d2600d6103cb8584613bef565b1115613e56565b6103db83614aea565b928280925b82841061040957858561040560405192839283526040602084015260408301906138db565b0390f35b909192936104178583613bef565b6000198101908111610468576104609161044861043661045a93613af6565b606461044182613a94565b0490613bef565b9081610454898b614b1c565b52613bef565b94613cbd565b9291906103e0565b634e487b7160e01b84526011600452602484fd5b80fd5b503461047c57602036600319011261047c576020906004358152601d8252604060018060a01b0391205460081c16604051908152f35b50602036600319011261047c576104ca613dba565b6104d960ff6019541615613b32565b338152601c6020526040812054906104f2821515613f63565b818152601d6020526040812054610519903360089190911c6001600160a01b031614613e1b565b818152601d602052610539600d6103cb6004356003604086200154613bef565b8081925b6004358410610bf95782935061055582341015613e96565b82905b6004358210610594575050803411610573575b506001905580f35b8180610580819334613d6d565b335af15061058c613d7a565b50803861056b565b80919352601d6020526105ae836003604087200154613bef565b80600019810111610be5576105c69060001901613af6565b60646105d182613a94565b04828652601d602052600360408720016105eb8154613cbd565b9055828652601e60205260408620610604838254613bef565b905580610b2c575b50606461061882613a94565b049384610ab5575b61062a828461438d565b94838752601d60205260036040882001549586600019810111610aa1579061065191613d6d565b6000848152601d602052604081206002015481905b89600d831080610a98575b15610a8f575080600052601d60205260406000206000198a0160038201541180610a80575b156109a7575080919250600052601d60205260008080808660018060a01b03604083205460081c165af16106c8613d7a565b501561092f5780600052601e60205260046040600020016106ea848254613bef565b905580600052601e6020526001604060002001610708848254613bef565b905560019160018101811161091957604080518581526000199a909a0160208b01526001918201908a015260608901524260808901528897869060008051602061539c8339815191529060a090a35b1580610910575b6108d5575b50828552601d602052604085206003810154600490910154907f00000000000000000000000000000000000000000000000000000000000000006001600160a01b03163b156108d1576040516366f0566160e11b815260048101869052602481019190915260448101919091528581606481836001600160a01b037f0000000000000000000000000000000000000000000000000000000000000000165af180156108c657849187916108ab575b506108a593827f430828e9e608608c6f34402a3bbf7ccff1cd71ac750c401a12c72e4578350f969252601d60205260036040892001549061086a6040519283924291846040919493926060820195825260208201520152565b0390a2828552601d6020526108a060036040872001546040519061088d8261397d565b8582526020820152426040820152613ccc565b613cbd565b90610558565b6108b6919250613953565b6108c257828538610811565b8480fd5b6040513d88823e3d90fd5b8680fd5b60405161090a916108e582613999565b60138252721b585d1c9a5e17db9bd7dc5d585b1a599a5959606a1b60208301526142c1565b38610763565b5080151561075e565b634e487b7160e01b600052601160045260246000fd5b5050945082600052601d60205260008080808860018060a01b03604083205460081c165af161095c613d7a565b501561096b5785946001610757565b60405162461bcd60e51b815260206004820152601460248201527313585d1c9a5e081c99599d5b990819985a5b195960621b6044820152606490fd5b5460ff166109d0575b600052601d6020526109ca60026040600020015491613cbd565b90610666565b60018201821161091957604080518581526000198b0160208201526001840191810191909152600060608201524260808201528190889060008051602061539c8339815191529060a090a386817f587d8f9cc4f7ae2f12f916b8ac03ac5414969dfaf447b84acbb1e2b171cb7eb260a0604051888152601860608060208401528201527709cdee840e2eac2d8d2ccd2cac840ccdee440dac2e8e4d2f60431b6080820152426040820152a36109b0565b50600260048201541015610696565b98505050610757565b50811515610671565b634e487b7160e01b88526011600452602488fd5b610af786808080897f00000000000000000000000000000000000000000000000000000000000000006001600160a01b03165af1610af1613d7a565b50613f17565b827fb74a7140ef81c80d0e213846b7b10b59f9c366b463e36e1f98bf00ef44c670b460408051888152426020820152a2610620565b610b6e86808080857f00000000000000000000000000000000000000000000000000000000000000006001600160a01b03165af1610b68613d7a565b50613ed5565b828652601d60205260036040872001549081600019810111610bd1576040805191825260001992909201602082015242918101919091527fedd09f264659ce99b52fd2a2d4f09e551eb001fe3fc56ffd5704fc1f402bc21190606090a13861060c565b634e487b7160e01b87526011600452602487fd5b634e487b7160e01b85526011600452602485fd5b90818352601d602052610c13846003604086200154613bef565b600019810190811161046857610c3e91610c32610436610c3893613af6565b90613bef565b93613cbd565b929061053d565b503461047c578060031936011261047c576020600454604051908152f35b503461047c57602036600319011261047c57610c7d6138c5565b610c85613a2c565b610c8d613a2c565b6001600160a01b03908116908115610ce257600154826bffffffffffffffffffffffff60a01b821617600155167f8be0079c531659141344cd1fd0a4f28419497f9722a3daafe3b4186f6b6457e0600080a380f35b604051631e4fbdf760e01b815260048101849052602490fd5b503461047c578060031936011261047c576001546040516001600160a01b03909116158152602090f35b503461047c57604036600319011261047c57610d3f6138c5565b6001600160a01b03168152601c6020526040812054602490813590610d65811515613f63565b8352601d602052600360408420015490610d84600d6103cb8385613bef565b610d8d81614aea565b93809381935b838510610db857868661040560405192839283526040602084015260408301906138db565b9091929394610dc78683613bef565b6000198101908111610e0157610df891610de6610436610df293613af6565b90816104548a8c614b1c565b95613cbd565b93929190610d93565b634e487b7160e01b855260116004528385fd5b503461047c578060031936011261047c576080610e2f615217565b600654610e3a615386565b610e4660085442613d6d565b916040519384526020840152151560408301526060820152f35b503461047c578060031936011261047c57602060ff60015460a01c16604051908152f35b503461047c578060031936011261047c57604051610ea1816139b5565b6101a0918236833760405192610eb6846139b5565b8036853760405191610ec7836139b5565b813684375b600d8110610f03575090610ef66104e094610f0193610eee604051809761392b565b85019061392b565b61034083019061392b565bf35b80610f10610f6b92613af6565b610f1a8287614cf3565b526064610f30610f2a8388614cf3565b51613a94565b04610f3b8288614cf3565b52610f5b610f498287614cf3565b51610f548389614cf3565b5190613bef565b610f658286614cf3565b52613cbd565b610ecc565b503461047c578060031936011261047c576020610f8b615386565b6040519015158152f35b503461047c578060031936011261047c5760206040517f00000000000000000000000000000000000000000000000000000000000000008152f35b50604036600319011261047c57602435906001600160a01b0382166004358184036111e257610ffd613dba565b61100c60ff6019541615613b32565b80828452602091601c8352611025604086205415613b70565b611030841515613bb1565b83855260038352604085205480611185575b5083855260038352426040862055801590811561116f575b50611166575b611068613aca565b92606461107485613a94565b0461107f8186613bef565b9461108c86341015613bfc565b601b549760018901809911610aa157926110fd611157969386936110c8858d996001998e9f8f60409082601b558a8152601c8d5220558b61486b565b6110d188613c40565b6110dc601a54613cbd565b601a55878b52601e865260408b206110f5828254613bef565b905587613fee565b61110782866149f9565b61111085614c6f565b847f19871a311455a6a311f1a6dcef0dc6478acccea5a81b0bafe39d188d098efaf384604051428152a4604051926111478461397d565b8352820152426040820152613ccc565b80341161057357506001905580f35b50600254611060565b855250601d8252604084205460ff16153861105a565b60045461119191613bef565b421061119d5738611042565b60405162461bcd60e51b815260048101849052601c60248201527f526567697374726174696f6e20636f6f6c646f776e20616374697665000000006044820152606490fd5b600080fd5b503461047c57602036600319011261047c57600435611204613a2c565b600a54811015806112a6575b1561126b577f31153501178701e5a0635ccbb27182b8b2da7df2576d99d2b5cd7ff4a2fdc564906006549080600655426008556112656040519283924291846040919493926060820195825260208201520152565b0390a180f35b60405162461bcd60e51b81526020600482015260136024820152725072696365206f7574206f6620626f756e647360681b6044820152606490fd5b50600b54811115611210565b503461047c578060031936011261047c576040517f00000000000000000000000000000000000000000000000000000000000000006001600160a01b03168152602090f35b61390f565b506020908160031936011261047c576113136138c5565b61131b613dba565b61132a60ff6019541615613b32565b6001600160a01b0316806114a55750805b80338352601c8452611351604084205415613b70565b61135c331515613bb1565b801590811561148f575b50611468575b611374613aca565b92606461138085613a94565b049161138c8386613bef565b9261139984341015613bfc565b601b5495600187018097116114545792869261140860019361115796899a601b55338a52601c85528660408b20556113d38480338a61486b565b6113dc87613c40565b6113e7601a54613cbd565b601a55868a52601e855260408a20611400828254613bef565b905586613fee565b61141281856149f9565b61141b84614c6f565b604051428152847f19871a311455a6a311f1a6dcef0dc6478acccea5a81b0bafe39d188d098efaf3843393a4604051926111478461397d565b634e487b7160e01b86526011600452602486fd5b507f000000000000000000000000000000000000000000000000000000000000000061136c565b835250601d8352604082205460ff161538611366565b8152601c8252604081205461133b565b503461047c57602036600319011261047c576004356114d2613a2c565b620151808111611528577f15f4327e5ba6f6a8870d2af8e964a8ebb59ccdfbe26c3ad667762e74dfd3a5b49060045490806004556112656040519283924291846040919493926060820195825260208201520152565b60405162461bcd60e51b8152602060048201526011602482015270436f6f6c646f776e20746f6f206c6f6e6760781b6044820152606490fd5b503461047c57602036600319011261047c576020906040906001600160a01b036115896138c5565b168152601c835220541515604051908152f35b503461047c578060031936011261047c576020601a54604051908152f35b503461047c578060031936011261047c576115d3613a2c565b60195460ff8116156116155760ff19166019556040514281527f107553d8191d85b405879cf752997865edd48d94e20bda4dd27223c94b31a7cc60203392a280f35b60405162461bcd60e51b815260206004820152600a602482015269139bdd081c185d5cd95960b21b6044820152606490fd5b503461047c578060031936011261047c57602060405160028152f35b503461047c576116723661383b565b9061167b613a2c565b600d811061168881613a58565b82156116fe57156116ea5760ff816116e47f01160ded273713b62692b83f3f861bfef99579eaf0440d7a22d838a3d163922e93600c01858154915560405193849316954291846040919493926060820195825260208201520152565b0390a280f35b634e487b7160e01b83526032600452602483fd5b60405162461bcd60e51b815260206004820152600c60248201526b125b9d985b1a590818dbdcdd60a21b6044820152606490fd5b503461047c57602036600319011261047c5761040561175260043561508b565b6040805193845291151560208401521515908201529081906060820190565b503461047c57602036600319011261047c57600435600a81101580611863575b61179a90615050565b60405163197ff2e360e31b815260048101919091526060816024817f00000000000000000000000000000000000000000000000000000000000000006001600160a01b03165afa8015611858578291838092611814575b505061040590604051938493846040919493926060820195825260208201520152565b92509250506060823d8211611850575b8161183160609383613a0a565b8101031261047c575080516020820151604090920151610405386117f1565b3d9150611824565b6040513d84823e3d90fd5b50600d811115611791565b503461047c578060031936011261047c576040517f00000000000000000000000000000000000000000000000000000000000000006001600160a01b03168152602090f35b503461047c578060031936011261047c576118cc614dc7565b916118f36040959295519586958652602092838701526080604087015260808601906138db565b9084820360608601528080855193848152019401925b82811061191857505050500390f35b83516001600160a01b031685528695509381019392810192600101611909565b503461047c578060031936011261047c57611951613a2c565b6001805460ff60a81b19811660a891821c60ff90811615831b60ff60a81b169190911792839055604080519390921c16151582524260208301527fd6d5541f24eeda38e8e8c51d930c6d7c5a2fdbc492c923cdb0ad0fb12c7f4649919081908101611265565b503461047c578060031936011261047c576001546040516001600160a01b039091168152602090f35b503461047c57602036600319011261047c576020906040906001600160a01b03611a086138c5565b168152601c83522054604051908152f35b503461047c57602036600319011261047c57604060209160043581528280522054604051908152f35b503461047c57602036600319011261047c57600435801515808203611aba577fff35ad813afce2410ae4c6035f1b3e69c6bb092be9b83fbed11d38074a5623bb9161126591611a8f613a2c565b60ff801960095416911617600955604051918291429083602090939291936040810194151581520152565b8280fd5b503461047c57611acd3661383b565b90611ad6613dba565b80151580611c5b575b611ae890613ddd565b8083526020601d815260018060a01b03611b0c81604087205460081c163314613e1b565b828552601e8252604080862060018101549054601d855282882054925163c7403e1d60e01b815260048101879052602481018890527f000000000000000000000000000000000000000000000000000000000000000060448201526064810192909252608482015260089190911c82166001600160a01b031660a4820152908290829081888160c481015b03927f0000000000000000000000000000000000000000000000000000000000000000165af1908115611c50578591611c03575b506040907fb64f1f8f03ee84ec0cfb24d1299d6ce9ef6d58ea0787053de092ec3f8b14255c9282519182524290820152a36001815580f35b90508181813d8311611c49575b611c1a8183613a0a565b810103126111e257517fb64f1f8f03ee84ec0cfb24d1299d6ce9ef6d58ea0787053de092ec3f8b14255c611bcb565b503d611c10565b6040513d87823e3d90fd5b50808352601d602052604083205460ff16611adf565b503461047c57602036600319011261047c576020906040906001600160a01b03611c996138c5565b168152600383522054604051908152f35b503461047c57602036600319011261047c57600435600d811015611cd757602090600c0154604051908152f35b5080fd5b503461047c578060031936011261047c57610100611cf7614d04565b95604095919594929451978852602088015260408701526060860152608085015260a084015260c083015260e0820152f35b503461047c578060031936011261047c576020600a54604051908152f35b503461047c578060031936011261047c57602060ff60015460a81c166040519015158152f35b503461047c57602036600319011261047c57611d96600435611d91600d8210613a58565b613af6565b6064611da182613a94565b0490610405611db08383613bef565b604051938493846040919493926060820195825260208201520152565b503461047c578060031936011261047c576005546040516001600160a01b039091168152602090f35b503461047c57602036600319011261047c57611e106138c5565b611e18613a2c565b6001600160a01b0316611e2c811515613bb1565b806bffffffffffffffffffffffff60a01b60055416176005557fbb8d41c9907e8134230337c55faebd82117f5d9b99da1ac1667fa3fe7786b4656020604051428152a280f35b503461047c578060031936011261047c57611e8b613a2c565b600060015460018060a01b03811690817f656ba3c6830b11142778bbcfaff90d2ecc89186277667c2ce8700e4697ddccc26020604051428152a2611ecd613a2c565b6001600160a01b0319166001557f8be0079c531659141344cd1fd0a4f28419497f9722a3daafe3b4186f6b6457e08280a380f35b503461047c57602036600319011261047c57600435611f1e613a2c565b8015801580611fc2575b15611f8a57620151809081830291838304141715611f7657600755604080519182524260208301527f906b7c716abe77ce683d8fb36d3428d70d84ae296249efe4691b95ebe3242a8891a180f35b634e487b7160e01b83526011600452602483fd5b60405162461bcd60e51b815260206004820152601060248201526f125b9d985b1a59081a5b9d195c9d985b60821b6044820152606490fd5b5061016d821115611f28565b503461047c57602080600319360112611cd75760043590611fed613dba565b338352601c8152604083205490612005821515613f63565b818452601e8152604080852060018101549054601d845282872054925163c7403e1d60e01b815260048101869052602481018790527f000000000000000000000000000000000000000000000000000000000000000060448201526064810192909252608482015260089190911c6001600160a01b0390811660a48301528290829081888160c48101611b97565b503461047c578060031936011261047c57602047604051908152f35b503461047c57604036600319011261047c576104056117526120cf6138c5565b6024359061515c565b503461047c578060031936011261047c576020600254604051908152f35b503461047c578060031936011261047c5761210f613a2c565b4780156121745760015482918291829182916001600160a01b03165af1612134613d7a565b501561213d5780f35b60405162461bcd60e51b815260206004820152600f60248201526e151c985b9cd9995c8819985a5b1959608a1b6044820152606490fd5b60405162461bcd60e51b8152602060048201526011602482015270273790212721103a37903932b1b7bb32b960791b6044820152606490fd5b503461047c578060031936011261047c57602060405160018152f35b503461047c578060031936011261047c576020600854604051908152f35b613851565b503461047c57602036600319011261047c57604060a0916004358152601e60205220805490600181015490600281015460046003830154920154926040519485526020850152604084015260608301526080820152f35b503461047c578060031936011261047c576020600754604051908152f35b503461047c578060031936011261047c5761227a614f06565b60405190939092835b600483106122ab5761018085610f01886122a0608084018961389b565b61010083019061389b565b600190825181526020809101920192019190612283565b503461047c578060031936011261047c57602060ff601954166040519015158152f35b503461047c57602080600319360112611cd75760043590612304613dba565b61231360ff6019541615613b32565b600a8210158061249b575b61232790615050565b338352601c81526123b7604084205491612342831515613f63565b828552601e815260408086208054600190910154915163c7403e1d60e01b815260048101869052602481018790527f00000000000000000000000000000000000000000000000000000000000000006044820152606481019290925260848201523360a48201529181908390819060c4820190565b0381887f00000000000000000000000000000000000000000000000000000000000000006001600160a01b03165af1918215611c5057859261246c575b508115612432577fb64f1f8f03ee84ec0cfb24d1299d6ce9ef6d58ea0787053de092ec3f8b14255c9160409182519182524290820152a36001815580f35b6064906040519062461bcd60e51b8252600482015260136024820152724e6f20726f79616c747920746f20636c61696d60681b6044820152fd5b9080925081813d8311612494575b6124848183613a0a565b810103126111e2575190386123f4565b503d61247a565b50600d82111561231e565b503461047c57606036600319011261047c57604435906004358152601f6020526040812060243582526020526040812090815483101561047c5760206124ec848461386d565b90546040519160031b1c8152f35b503461047c578060031936011261047c576020600654604051908152f35b503461047c57602036600319011261047c576040610100916004358152601d602052208054906001810154906002810154600382015460048301549160066005850154940154946040519660ff81161515885260018060a01b039060081c16602088015260408701526060860152608085015260a084015260c083015260e0820152f35b503461047c578060031936011261047c5760206125b7615217565b604051908152f35b503461047c578060031936011261047c576125d8613a2c565b600654604051630504e47360e41b8152602091908281600481305afa849181612778575b506126a857506001918360033d11612698575b6308c379a01461262f575b50506126235780f35b604051903d90823e3d90fd5b612637615317565b9081612644575b5061261a565b7ff8917a6ec5e05f17a23c4cc821ca4e4c6d52fab4dcb57f8667d6d078775b836f9293509061268391859460405193849360608552606085019061425f565b918301524260408301520390a138808061263e565b50600484803e835160e01c61260f565b91600a548310158061276c575b156127075750817f2f363fd6fef1150caee78effeb98f6b9e03526dac46804b86a5f5f23909e840d92600655426008556112656040519283924291846040919493926060820195825260208201520152565b6040516060808252601390820152725072696365206f7574206f6620626f756e647360681b60808201527ff8917a6ec5e05f17a23c4cc821ca4e4c6d52fab4dcb57f8667d6d078775b836f93509182919060a08301918301524260408301520390a180f35b50600b548311156126b5565b9091508381813d83116127a0575b6127908183613a0a565b810103126111e2575190386125fc565b503d612786565b503461047c578060031936011261047c5760c06127c2614d6f565b93604093919351958652602086015260408501526060840152608083015260a0820152f35b506127f13661383b565b6127fc929192613dba565b61280b60ff6019541615613b32565b82151580612e80575b61282090939193613ddd565b808252601d6020526040822054612847903360089190911c6001600160a01b031614613e1b565b808252601d602052612865600d6103cb856003604087200154613bef565b819082935b808510612e405783945061288083341015613e96565b83915b81831061289c5750505080341161057357506001905580f35b8091929452601d6020526128b7846003604088200154613bef565b80600019810111611454576128cf9060001901613af6565b60646128da82613a94565b04828752601d602052600360408820016128f48154613cbd565b9055828752601e6020526040872061290d838254613bef565b905580612da1575b50606461292182613a94565b049485612d30575b612933828461438d565b95838852601d60205260036040892001549687600019810111612d1c579061295a91613d6d565b6000848152601d602052604081206002015481905b8a600d831080612d13575b15612d0a575080600052601d60205260406000206000198b0160038201541180612cfb575b15612c22575080919250600052601d60205260008080808660018060a01b03604083205460081c165af16129d1613d7a565b5015612be65780600052601e60205260046040600020016129f3848254613bef565b905580600052601e6020526001604060002001612a11848254613bef565b905560019160018101811161091957604080518581526000199b909b0160208c01526001918201908b015260608a01524260808a01528998869060008051602061539c8339815191529060a090a35b1580612bdd575b612bc7575b50828652601d602052604086206003810154600490910154907f00000000000000000000000000000000000000000000000000000000000000006001600160a01b03163b15612bc3576040516366f0566160e11b815260048101869052602481019190915260448101919091528681606481836001600160a01b037f0000000000000000000000000000000000000000000000000000000000000000165af18015612bb85784918891612b9d575b50612b9693827f430828e9e608608c6f34402a3bbf7ccff1cd71ac750c401a12c72e4578350f969252601d602052600360408a20015490612b736040519283924291846040919493926060820195825260208201520152565b0390a2828652601d6020526108a060036040882001546040519061088d8261397d565b9190612883565b612ba8919250613953565b612bb457828638612b1a565b8580fd5b6040513d89823e3d90fd5b8780fd5b604051612bd7916108e582613999565b38612a6c565b50801515612a67565b5050955082600052601d60205260008080808960018060a01b03604083205460081c165af1612c13613d7a565b501561096b5786956001612a60565b5460ff16612c4b575b600052601d602052612c4560026040600020015491613cbd565b9061296f565b60018201821161091957604080518581526000198c0160208201526001840191810191909152600060608201524260808201528190889060008051602061539c8339815191529060a090a386817f587d8f9cc4f7ae2f12f916b8ac03ac5414969dfaf447b84acbb1e2b171cb7eb260a0604051888152601860608060208401528201527709cdee840e2eac2d8d2ccd2cac840ccdee440dac2e8e4d2f60431b6080820152426040820152a3612c2b565b5060026004820154101561299f565b99505050612a60565b5081151561297a565b634e487b7160e01b89526011600452602489fd5b612d6c878080808a7f00000000000000000000000000000000000000000000000000000000000000006001600160a01b03165af1610af1613d7a565b827fb74a7140ef81c80d0e213846b7b10b59f9c366b463e36e1f98bf00ef44c670b460408051898152426020820152a2612929565b612ddd87808080857f00000000000000000000000000000000000000000000000000000000000000006001600160a01b03165af1610b68613d7a565b828752601d60205260036040882001549081600019810111610aa1576040805191825260001992909201602082015242918101919091527fedd09f264659ce99b52fd2a2d4f09e551eb001fe3fc56ffd5704fc1f402bc21190606090a138612915565b91818452601d602052612e5a856003604087200154613bef565b6000198101908111610be557612e7991610c3261043661045a93613af6565b939161286a565b50828252601d602052604082205460ff16612814565b503461047c578060031936011261047c57612eaf613a2c565b60195460ff8116612ef45760019060ff1916176019556040514281527f80170b5fcdd2bf1e0660ef4b8851f86685f64d41b1a19de1471947ece8725aac60203392a280f35b60405162461bcd60e51b815260206004820152600e60248201526d105b1c9958591e481c185d5cd95960921b6044820152606490fd5b503461047c578060031936011261047c57612f43613a2c565b7f000000000000000000000000000000000000000000000000000000000000000090818152601d602052600d6003604083200154036130ec577f00000000000000000000000000000000000000000000000000000000000000006001600160a01b0316803b15611cd757604051926366f0566160e11b90818552806004860152600a6024860152836044860152838560648183875af180156130e1576130cd575b839450823b156130a057604051828152816004820152600b6024820152846044820152848160648183885af1908115611c505785916130b9575b5050823b156130a057604051828152816004820152600c6024820152846044820152848160648183885af1908115611c505785916130a5575b5050823b156130a0576064849283604051958694859384526004840152600d60248401528160448401525af18015611858576130905750f35b61309990613953565b61047c5780f35b505050fd5b6130ae90613953565b6130a0578338613057565b6130c290613953565b6130a057833861301e565b9290936130d990613953565b918390612fe4565b6040513d86823e3d90fd5b60405162461bcd60e51b8152602060048201526015602482015274149bdbdd081b9bdd08185d081b585e081b195d995b605a1b6044820152606490fd5b503461047c57602036600319011261047c57600435613146613a2c565b80151580613235575b156131fa57808252601d60205260ff604083205416156131b5577ff74e20aae72cc960952a3704606e03e286cb5a183f94a503f0c6195bd3cdc83a9060025490806002556112656040519283924291846040919493926060820195825260208201520152565b60405162461bcd60e51b815260206004820152601760248201527f526566657272657220646f6573206e6f742065786973740000000000000000006044820152606490fd5b60405162461bcd60e51b8152602060048201526013602482015272125b9d985b1a59081c9959995c9c995c881251606a1b6044820152606490fd5b50601b5481111561314f565b503461047c578060031936011261047c57602060ff600954166040519015158152f35b503461047c578060031936011261047c5761327d613aca565b606461328882613a94565b046104056132968284613bef565b91604051938493846040919493926060820195825260208201520152565b503461047c57602036600319011261047c5760206125b7600435613af6565b503461047c57602036600319011261047c5760406020916004358152602183522054604051908152f35b503461047c57604036600319011261047c5761331761382b565b906024918235613325613a2c565b60ff821691613336600d8410613a58565b811561356157670de0b6b3a764000082106135255769152d02c7e14af680000082116134e15782613475575b600c83106133d4575b600d8110156133c057600c0180549082905560408051918252602082019290925242918101919091527f01160ded273713b62692b83f3f861bfef99579eaf0440d7a22d838a3d163922e9080606081016116e4565b5050634e487b7160e01b8252506032600452fd5b6133dd81613fa0565b600d81101561346257600c015482108015613445575b61336b5760405162461bcd60e51b8152602060048201526021818701527f436f7374206d757374206265206c657373207468616e206e657874206c6576656044820152601b60fa1b6064820152608490fd5b5061344f81613fa0565b600d81101561346257600c0154156133f3565b634e487b7160e01b855260326004528585fd5b600019830160ff81116134ce57600d11156133c057600b83015482116133625760405162461bcd60e51b81526020600482015260128187015271436f7374206d75737420696e63726561736560701b6044820152606490fd5b634e487b7160e01b855260116004528585fd5b60405162461bcd60e51b815260206004820152601b818701527f4d6178696d756d20636f7374206973203130302c30303020424e4200000000006044820152606490fd5b60405162461bcd60e51b8152602060048201526015818701527426b4b734b6bab69031b7b9ba1034b990189021272160591b6044820152606490fd5b60405162461bcd60e51b81526020600482015260158187015274436f7374206d75737420626520706f73697469766560581b6044820152606490fd5b503461047c578060031936011261047c576020600b54604051908152f35b503461047c576135ca3661383b565b906135d3613a2c565b80151580613663575b1561362d577f55c3a078a4dd343c06964318bde751610b3227be1c0688d1f85e0f88edd09c4f9181600a5580600b556112656040519283924291846040919493926060820195825260208201520152565b60405162461bcd60e51b815260206004820152600e60248201526d496e76616c696420626f756e647360901b6044820152606490fd5b508082116135dc565b503461047c57602036600319011261047c5761368661382b565b61368e613a2c565b60ff81168015158061372e575b156136f9577e22a9cb4f0e1ed3ec37fc23f34059f1121810bcda271f475abdd6cf2b95d0df916060916001549160ff60a01b9060a01b1660ff60a01b1983161760015560ff6040519260a01c1682526020820152426040820152a180f35b60405162461bcd60e51b815260206004820152600d60248201526c092dcecc2d8d2c840c8cae0e8d609b1b6044820152606490fd5b5060ff81111561369b565b503461047c57602036600319011261047c577f2f363fd6fef1150caee78effeb98f6b9e03526dac46804b86a5f5f23909e840d600435613777613a2c565b613782811515613fb2565b60065490806006556112656040519283924291846040919493926060820195825260208201520152565b823461047c57602036600319011261047c57600435808252601d60205260ff604083205416156137f857602092508152601d8252604060018060a01b0391205460081c16604051908152f35b62461bcd60e51b835260206004840152600e60248401526d155cd95c881b9bdd08199bdd5b9960921b6044840152606483fd5b6004359060ff821682036111e257565b60409060031901126111e2576004359060243590565b346111e25760003660031901126111e2576020604051600d8152f35b80548210156138855760005260206000200190600090565b634e487b7160e01b600052603260045260246000fd5b6000915b600483106138ac57505050565b600190825115158152602080910192019201919061389f565b600435906001600160a01b03821682036111e257565b90815180825260208080930193019160005b8281106138fb575050505090565b8351855293810193928101926001016138ed565b346111e25760003660031901126111e257602060405160058152f35b6000915b600d831061393c57505050565b60019082518152602080910192019201919061392f565b67ffffffffffffffff811161396757604052565b634e487b7160e01b600052604160045260246000fd5b6060810190811067ffffffffffffffff82111761396757604052565b6040810190811067ffffffffffffffff82111761396757604052565b6101a0810190811067ffffffffffffffff82111761396757604052565b6020810190811067ffffffffffffffff82111761396757604052565b6080810190811067ffffffffffffffff82111761396757604052565b90601f8019910116810190811067ffffffffffffffff82111761396757604052565b6001546001600160a01b03163303613a4057565b60405163118cdaa760e01b8152336004820152602490fd5b15613a5f57565b60405162461bcd60e51b815260206004820152600d60248201526c125b9d985b1a59081b195d995b609a1b6044820152606490fd5b9060058202918083046005149015171561091957565b8115613ab4570490565b634e487b7160e01b600052601260045260246000fd5b600c54670de0b6b3a76400009081810291818304149015171561091957600654613af391613aaa565b90565b600d8110613b0381613a58565b1561388557600c0154670de0b6b3a76400009081810291818304149015171561091957600654613af391613aaa565b15613b3957565b60405162461bcd60e51b815260206004820152600f60248201526e10dbdb9d1c9858dd081c185d5cd959608a1b6044820152606490fd5b15613b7757565b60405162461bcd60e51b8152602060048201526012602482015271105b1c9958591e481c9959da5cdd195c995960721b6044820152606490fd5b15613bb857565b60405162461bcd60e51b815260206004820152600f60248201526e496e76616c6964206164647265737360881b6044820152606490fd5b9190820180921161091957565b15613c0357565b60405162461bcd60e51b8152602060048201526015602482015274125b9cdd59999a58da595b9d08109390881cd95b9d605a1b6044820152606490fd5b602354600160401b8110156139675760018101806023558110156138855760236000527fd57b2b5166478fd4318d2acc6cc2c704584312bdd8781b32d5d06abda57f42300155565b8054600160401b81101561396757613ca59160018201815561386d565b819291549060031b91821b91600019901b1916179055565b60001981146109195760010190565b602454600160401b81101561396757600181018060245581101561388557604060037f7cd332d19b93bcabe3cce7ca0c18a052f57e5fd03b4758a09f30f5ddc4b22ec692602460005202928051847f7cd332d19b93bcabe3cce7ca0c18a052f57e5fd03b4758a09f30f5ddc4b22ec4015560208101517f7cd332d19b93bcabe3cce7ca0c18a052f57e5fd03b4758a09f30f5ddc4b22ec58501550151910155565b9190820391821161091957565b3d15613db5573d9067ffffffffffffffff82116139675760405191613da9601f8201601f191660200184613a0a565b82523d6000602084013e565b606090565b600260005414613dcb576002600055565b604051633ee5aeb560e01b8152600490fd5b15613de457565b60405162461bcd60e51b815260206004820152600f60248201526e125b9d985b1a59081d5cd95c881251608a1b6044820152606490fd5b15613e2257565b60405162461bcd60e51b815260206004820152600c60248201526b155b985d5d1a1bdc9a5e995960a21b6044820152606490fd5b15613e5d57565b60405162461bcd60e51b8152602060048201526011602482015270115e18d959591cc81b585e081b195d995b607a1b6044820152606490fd5b15613e9d57565b60405162461bcd60e51b815260206004820152601060248201526f24b739bab33334b1b4b2b73a1021272160811b6044820152606490fd5b15613edc57565b60405162461bcd60e51b8152602060048201526013602482015272119959481d1c985b9cd9995c8819985a5b1959606a1b6044820152606490fd5b15613f1e57565b60405162461bcd60e51b815260206004820152601760248201527f526f79616c7479207472616e73666572206661696c65640000000000000000006044820152606490fd5b15613f6a57565b60405162461bcd60e51b815260206004820152600e60248201526d139bdd081c9959da5cdd195c995960921b6044820152606490fd5b60ff60019116019060ff821161091957565b15613fb957565b60405162461bcd60e51b815260206004820152600d60248201526c496e76616c696420707269636560981b6044820152606490fd5b91806141e3575b50606461400182613a94565b0480614171575b60008381526020601d81526140266040936001858520015495613d6d565b918415158061415d575b1561412757848152601d825260018060a01b038180808087858a83205460081c165af161405b613d7a565b50156140c857509060018483877f7f31b11e95a87830bd41893a2c8bb6991e584f4e5082cedeeffd2b1ca1bb76c597969552601e84526002828220016140a2868254613bef565b9055878152601e845220016140b8838254613bef565b905582519182524290820152a35b565b819495509281938293978352601d88528683205460081c165af16140ea613d7a565b50156140f4575050565b60649250519062461bcd60e51b82526004820152600d60248201526c1499599d5b990819985a5b1959609a1b6044820152fd5b509250906140c69350703737afbb30b634b22fb932b332b93932b960791b90519261415184613999565b601184528301526142c1565b50848152601d825260ff8482205416614030565b6141ae6000808080857f00000000000000000000000000000000000000000000000000000000000000006001600160a01b03165af1610af1613d7a565b827fb74a7140ef81c80d0e213846b7b10b59f9c366b463e36e1f98bf00ef44c670b460408051848152426020820152a2614008565b7fedd09f264659ce99b52fd2a2d4f09e551eb001fe3fc56ffd5704fc1f402bc211906060906142456000808080857f00000000000000000000000000000000000000000000000000000000000000006001600160a01b03165af1610b68613d7a565b60405190815260006020820152426040820152a138613ff5565b919082519283825260005b84811061428b575050826000602080949584010152601f8019910116010190565b60208183018101518483018201520161426a565b9392916142bc90604092865260606020870152606086019061425f565b930152565b7f0000000000000000000000000000000000000000000000000000000000000000916000838152601d602052808080808660018060a01b03604083205460081c165af161430c613d7a565b50614318575b50505050565b604081857fe7392140a76258e2263a339b5bfda7575cf4a9227c701df27629fe8dd52735b19660019452601e602052600283832001614358878254613bef565b90558152601e602052200161436e838254613bef565b905561438160405192839242918461429f565b0390a138808080614312565b9190600090838252601d91602083815260016040928184822001549581966101f4998a88029a881590898d0414811715610be5578492865b614432575b50505050505050612710613af3959604918285106143eb575b505050613d6d565b7273706f6e736f725f6e6f5f656c696769626c6560681b61441184959661442995613d6d565b91519261441d84613999565b601384528301526142c1565b903880806143e3565b60ff808516600d811080614737575b156147305761445086846147ee565b908c61ffff61445e89614740565b168082029182041486171561471c57888c888f938d956127108a92049780614713575b15614561575085525052812054819081908190859060081c6001600160a01b03165af16144ac613d7a565b506144d6575b50505b85528387528588862001549260ff80911690811461145457860192866143c5565b8085929d84928b8e8c8f87825287601e92838352848120600301878154906144fd91613bef565b905552528c20018181549061451191613bef565b905561451c91613bef565b9d61452688613fa0565b8d51928352168b820152428c82015260607f38a882dd38cf7baf663586c9181108323f083cc8ac7cf5287586a0d56a71f91491a338806144b2565b9550959350959150508161457a575b50505050506144b5565b838b52898d528d8b205416614590575b80614570565b7f587d8f9cc4f7ae2f12f916b8ac03ac5414969dfaf447b84acbb1e2b171cb7eb29160218d528d8b206145c4838254613bef565b9055600581101561462357508c6146178d7f4e6f742061637469766520286e656564204c6576656c20312b2900000000000083519161460283613999565b601a8352820152915b5192839242918461429f565b0390a38281388061458a565b600881101561467657508c6146178d7f4e65656420322b2064697265637420726566657272616c7320666f72204c362d83519161465f8361397d565b6022835282015261098760f31b838201529161460b565b600a11156146c8578c6146178d7f4e65656420332b2064697265637420726566657272616c7320666f72204c392d8351916146b08361397d565b602383528201526204c31360ec1b838201529161460b565b8c6146178d7f4e65656420352b2064697265637420726566657272616c7320666f72204c31318351916146fa8361397d565b60248352820152632d4c313360e01b838201529161460b565b50871515614481565b634e487b7160e01b8a52601160045260248afd5b50506143ca565b50821515614441565b60ff1680156147e857600181146147e257600281146147dc57600381146147d657600481146147d657600581146147d057600681146147ca57600781146147c457600881146147be57600981146147b857600a81146147b257600b81146147b257600c146147ad57600090565b600a90565b50600a90565b50600f90565b50601490565b50601990565b50601e90565b50602890565b50603290565b50603c90565b50605090565b50606490565b600052601d60205260406000209060ff82541615801561485d575b6148565760ff166005811015614820575050600190565b6008811015614836575060046002910154101590565b600a111561484a5760046003910154101590565b60046005910154101590565b5050600090565b506001600383015410614809565b919092604091825161010081019067ffffffffffffffff918181108382111761396757601d94600691875260018352876020998a928386019160018060a01b03168252898601908882526060870190815260808701916001835260a088019360009b8c9788875260c08b019789895260e08c0199428b5252528c8c20985115159060ff8a5491610100600160a81b03905160081b169216906affffffffffffffffffffff60a81b16171788555160018801555160028701555160038601555160048501555160058401555191015583519060a0820190828210908211176149e5578452828152600486820184815285830185815260608401908682526080850192878452898852601e8b528888209551865551600186015551600285015551600384015551910155801515806149db575b6149a8575b5050505050565b6149d194816022928452601d82526004858520016149c68154613cbd565b905583525220613c88565b38808080806149a1565b508381141561499c565b634e487b7160e01b84526041600452602484fd5b600090815b600d831080614ac9575b15614ac05750614a1783614b30565b9283614a3e57600052601d602052614a3760016040600020015492613cbd565b91926149fe565b5090505b8115614a98575b81600052601f602052604060002060008052602052614a6c816040600020613c88565b600052601d60205280600260406000200155600052602080526040600020614a948154613cbd565b9055565b7f00000000000000000000000000000000000000000000000000000000000000009150614a49565b92509050614a42565b50831515614a08565b67ffffffffffffffff81116139675760051b60200190565b90614af482614ad2565b614b016040519182613a0a565b8281528092614b12601f1991614ad2565b0190602036910137565b80518210156138855760209160051b010190565b60019060ff825460a01c1690614b4582614aea565b916000908491845115613885578590602094858701526000915b614b70575b50505050505050600090565b83811080614c66575b15614c6157614b9b614b94614b8d83613cbd565b9288614b1c565b5192613cbd565b9180600052601f808752604091826000206000805288526002836000205410614c5457899291906000845b614bd4575b50505050614b5f565b816000959293949552838a5284600020600080528a528460002054811080614c4b575b15614c4357614c399083600052848b5285600020600080528b528b610f65614c22838960002061386d565b9c9054614c2e82613cbd565b9d60031b1c92614b1c565b8194939291614bc6565b819450614bcb565b50878910614bf7565b9850505050505050505090565b614b64565b50828210614b79565b6000908152601d602090808252600192604091848383200154938583905b614c9b575b50505050505050565b85151580614ce3575b15614cde578587968552838352600586862001614cc18154613cbd565b90558452828252614cd786868620015491613cbd565b9095614c8d565b614c92565b5060ff875460a01c168110614ca4565b90600d8110156138855760051b0190565b6000338152601c60205260408120548015614d6057808252601d602052604080832092601e6020522090600383015493600584015493600160048201549401549260018201549260066002840154930154919796959493929190565b50908180918180918180918190565b600090338252601c60205260408220548015614dbc578252601e60205260408220805492600182015493600283015493604060046003860154950154936021602052205491959493929190565b508180918180918190565b6000903382526020601c81526040808420548015614e98578452601d808352818520926004600585015494015493602282528387209084518083858295549384815201908b52858b20928b5b87828210614e8257505050614e2a92500383613a0a565b8195614e368351614aea565b96895b8451811015614e755780614e50614e709287614b1c565b518c52878752888c205460081c6001600160a01b0316610f65828c614b1c565b614e39565b5096955096935096505050565b8554845260019586019588955093019201614e13565b508051929150614ea7836139d2565b8383525190614eb5826139d2565b8382528336813783929190565b519081151582036111e257565b908160609103126111e257805191613af36040614eee60208501614ec2565b9301614ec2565b9060048110156138855760051b0190565b604090815191614f15836139ee565b608036843782815193614f27856139ee565b60803686378492805195614f3a876139ee565b60803688378690600097338952601c602052838920549586156150425750507f00000000000000000000000000000000000000000000000000000000000000006001600160a01b0316969050875b6004808210156150365786855191632075d10760e21b835282015281602482015289818a81604460609586935afa90811561502c57908291614ff695948392614ffb575b5050614fd88488614ef5565b9015159052614fe7838b614ef5565b9015159052610f658288614ef5565b614f88565b9150915061501e9250803d10615025575b6150168183613a0a565b810190614ecf565b3880614fcc565b503d61500c565b87513d84823e3d90fd5b50509350939450509350565b985090969095509350505050565b1561505757565b60405162461bcd60e51b815260206004820152600c60248201526b24b73b30b634b2103a34b2b960a11b6044820152606490fd5b600a81101580615151575b61509f90615050565b600091338352601c602052604083205491821561514957604051632075d10760e21b8152600481019390935260248301526060826044817f00000000000000000000000000000000000000000000000000000000000000006001600160a01b03165afa91821561513e5783908493615118575b50929190565b91935050615134915060603d8111615025576150168183613a0a565b9290929138615112565b6040513d85823e3d90fd5b508291508190565b50600d811115615096565b91600a821015806151f5575b61517190615050565b60018060a01b039182600094168452601c602052604084205480156151eb579060446060926040519586938492632075d10760e21b8452600484015260248301527f0000000000000000000000000000000000000000000000000000000000000000165afa91821561513e57839084936151185750929190565b5083925082919050565b50600d821115615168565b519069ffffffffffffffffffff821682036111e257565b600554604051633fabe5a360e21b81529060a090829060049082906001600160a01b03165afa8060009283926152c1575b5061525557505060065490565b61526e610e109161526860008513613fb2565b42613d6d565b101561528e576402540be400908181029181830414901517156109195790565b60405162461bcd60e51b815260206004820152600b60248201526a5374616c6520707269636560a81b6044820152606490fd5b9290915060a0833d821161530f575b816152dd60a09383613a0a565b8101031261047c57506152ef82615200565b506020820151615306608060608501519401615200565b50919038615248565b3d91506152d0565b600060443d10613af357604051600319913d83016004833e815167ffffffffffffffff918282113d6024840111176153755781840194855193841161537d573d850101602084870101116153755750613af392910160200190613a0a565b949350505050565b50949350505050565b61539560085460075490613bef565b4210159056fefb0ece953ea45e221eab304ac93d016d67c4ff3f6d5ce3d2fb6db7d2043b46fca264697066735822122085c026a0529863bc1cbb4f54255ef0101fc05a601c5d5833dce301207056584064736f6c634300081400338be0079c531659141344cd1fd0a4f28419497f9722a3daafe3b4186f6b6457e0",
  "linkReferences": {},
  "deployedLinkReferences": {}
}