{"contracts/FiveDollarRideRoyalty_BNB.sol":{"FiveDollarRideRoyalty_BNB":{"abi":[{"inputs":[{"internalType":"address","name":"_owner","type":"address"},{"internalType":"address","name":"_defaultRefer","type":"address"},{"internalType":"address","name":"_mainContract","type":"address"}],"stateMutability":"nonpayable","type":"constructor"},{"inputs":[{"internalType":"address","name":"owner","type":"address"}],"name":"OwnableInvalidOwner","type":"error"},{"inputs":[{"internalType":"address","name":"account","type":"address"}],"name":"OwnableUnauthorizedAccount","type":"error"},{"inputs":[],"name":"ReentrancyGuardReentrantCall","type":"error"},{"anonymous":false,"inputs":[{"indexed":true,"internalType":"address","name":"owner","type":"address"},{"indexed":false,"internalType":"uint256","name":"amount","type":"uint256"},{"indexed":false,"internalType":"uint256","name":"timestamp","type":"uint256"}],"name":"EmergencyWithdrawal","type":"event"},{"anonymous":false,"inputs":[{"indexed":true,"internalType":"address","name":"oldContract","type":"address"},{"indexed":true,"internalType":"address","name":"newContract","type":"address"},{"indexed":false,"internalType":"uint256","name":"timestamp","type":"uint256"}],"name":"MainContractUpdated","type":"event"},{"anonymous":false,"inputs":[{"indexed":true,"internalType":"address","name":"previousOwner","type":"address"},{"indexed":true,"internalType":"address","name":"newOwner","type":"address"}],"name":"OwnershipTransferred","type":"event"},{"anonymous":false,"inputs":[{"indexed":true,"internalType":"uint256","name":"tier","type":"uint256"},{"indexed":false,"internalType":"uint256","name":"bnbAmount","type":"uint256"},{"indexed":false,"internalType":"uint256","name":"timestamp","type":"uint256"}],"name":"PoolFunded","type":"event"},{"anonymous":false,"inputs":[{"indexed":true,"internalType":"uint256","name":"tier","type":"uint256"},{"indexed":false,"internalType":"uint256","name":"newRound","type":"uint256"},{"indexed":false,"internalType":"uint256","name":"timestamp","type":"uint256"}],"name":"RoundAdvanced","type":"event"},{"anonymous":false,"inputs":[{"indexed":true,"internalType":"uint256","name":"userId","type":"uint256"},{"indexed":true,"internalType":"uint256","name":"tier","type":"uint256"},{"indexed":false,"internalType":"uint256","name":"bnbAmount","type":"uint256"},{"indexed":false,"internalType":"uint256","name":"round","type":"uint256"},{"indexed":false,"internalType":"uint256","name":"timestamp","type":"uint256"}],"name":"RoyaltyDistributed","type":"event"},{"anonymous":false,"inputs":[{"indexed":true,"internalType":"uint256","name":"userId","type":"uint256"},{"indexed":true,"internalType":"uint256","name":"tier","type":"uint256"},{"indexed":false,"internalType":"uint256","name":"round","type":"uint256"},{"indexed":false,"internalType":"uint256","name":"timestamp","type":"uint256"}],"name":"UserRegistered","type":"event"},{"stateMutability":"payable","type":"fallback"},{"inputs":[],"name":"DEFAULT_REFER_ADDRESS","outputs":[{"internalType":"address","name":"","type":"address"}],"stateMutability":"view","type":"function"},{"inputs":[],"name":"MAIN_CONTRACT","outputs":[{"internalType":"address","name":"","type":"address"}],"stateMutability":"view","type":"function"},{"inputs":[],"name":"MIN_CLAIM","outputs":[{"internalType":"uint256","name":"","type":"uint256"}],"stateMutability":"view","type":"function"},{"inputs":[],"name":"ROUND_DURATION","outputs":[{"internalType":"uint256","name":"","type":"uint256"}],"stateMutability":"view","type":"function"},{"inputs":[{"internalType":"uint256","name":"","type":"uint256"}],"name":"ROYALTY_LEVELS","outputs":[{"internalType":"uint256","name":"","type":"uint256"}],"stateMutability":"view","type":"function"},{"inputs":[{"internalType":"uint256","name":"_tier","type":"uint256"}],"name":"advanceRound","outputs":[],"stateMutability":"nonpayable","type":"function"},{"inputs":[{"internalType":"uint256","name":"_userId","type":"uint256"},{"internalType":"uint256","name":"_tier","type":"uint256"},{"internalType":"uint256","name":"","type":"uint256"},{"internalType":"uint256","name":"","type":"uint256"},{"internalType":"uint256","name":"_userTotalDeposit","type":"uint256"},{"internalType":"address","name":"_userAccount","type":"address"}],"name":"claimRoyalty","outputs":[{"internalType":"uint256","name":"","type":"uint256"}],"stateMutability":"nonpayable","type":"function"},{"inputs":[{"internalType":"uint256","name":"","type":"uint256"},{"internalType":"uint256","name":"","type":"uint256"},{"internalType":"uint256","name":"","type":"uint256"}],"name":"distributionQueue","outputs":[{"internalType":"uint256","name":"","type":"uint256"}],"stateMutability":"view","type":"function"},{"inputs":[],"name":"emergencyWithdraw","outputs":[],"stateMutability":"nonpayable","type":"function"},{"inputs":[{"internalType":"uint256","name":"_tier","type":"uint256"}],"name":"getPoolBalance","outputs":[{"internalType":"uint256","name":"","type":"uint256"}],"stateMutability":"view","type":"function"},{"inputs":[],"name":"getRoyaltyLevels","outputs":[{"internalType":"uint256[4]","name":"","type":"uint256[4]"}],"stateMutability":"view","type":"function"},{"inputs":[{"internalType":"uint256","name":"_tier","type":"uint256"}],"name":"getTierStats","outputs":[{"internalType":"uint256","name":"userCount","type":"uint256"},{"internalType":"uint256","name":"distributionRound","type":"uint256"},{"internalType":"uint256","name":"pendingUserCount","type":"uint256"}],"stateMutability":"view","type":"function"},{"inputs":[],"name":"getTotalPoolBalance","outputs":[{"internalType":"uint256","name":"","type":"uint256"}],"stateMutability":"view","type":"function"},{"inputs":[{"internalType":"uint256","name":"_userId","type":"uint256"},{"internalType":"uint256","name":"_tier","type":"uint256"}],"name":"getUserRoyaltyData","outputs":[{"internalType":"uint256","name":"claimableAmount","type":"uint256"},{"internalType":"bool","name":"isEligible","type":"bool"},{"internalType":"bool","name":"hasClaimed","type":"bool"}],"stateMutability":"view","type":"function"},{"inputs":[],"name":"owner","outputs":[{"internalType":"address","name":"","type":"address"}],"stateMutability":"view","type":"function"},{"inputs":[{"internalType":"uint256","name":"","type":"uint256"}],"name":"poolBalance","outputs":[{"internalType":"uint256","name":"","type":"uint256"}],"stateMutability":"view","type":"function"},{"inputs":[{"internalType":"uint256","name":"_userId","type":"uint256"},{"internalType":"uint256","name":"_level","type":"uint256"},{"internalType":"uint256","name":"_directCount","type":"uint256"}],"name":"registerUser","outputs":[],"stateMutability":"nonpayable","type":"function"},{"inputs":[],"name":"renounceOwnership","outputs":[],"stateMutability":"nonpayable","type":"function"},{"inputs":[{"internalType":"uint256","name":"","type":"uint256"},{"internalType":"uint256","name":"","type":"uint256"}],"name":"roundPoolAmount","outputs":[{"internalType":"uint256","name":"","type":"uint256"}],"stateMutability":"view","type":"function"},{"inputs":[{"internalType":"address","name":"_mainContract","type":"address"}],"name":"setMainContract","outputs":[],"stateMutability":"nonpayable","type":"function"},{"inputs":[{"internalType":"uint256","name":"","type":"uint256"}],"name":"tierStats","outputs":[{"internalType":"uint256","name":"totalUsers","type":"uint256"},{"internalType":"uint256","name":"currentRound","type":"uint256"},{"internalType":"uint256","name":"pendingUsers","type":"uint256"},{"internalType":"uint256","name":"totalDistributed","type":"uint256"},{"internalType":"uint256","name":"lastRoundTime","type":"uint256"}],"stateMutability":"view","type":"function"},{"inputs":[{"internalType":"address","name":"newOwner","type":"address"}],"name":"transferOwnership","outputs":[],"stateMutability":"nonpayable","type":"function"},{"inputs":[{"internalType":"uint256","name":"","type":"uint256"},{"internalType":"uint256","name":"","type":"uint256"}],"name":"userRoyalties","outputs":[{"internalType":"bool","name":"registered","type":"bool"},{"internalType":"uint256","name":"registrationRound","type":"uint256"},{"internalType":"uint256","name":"lastClaimRound","type":"uint256"},{"internalType":"uint256","name":"totalClaimed","type":"uint256"},{"internalType":"uint256","name":"directReferrals","type":"uint256"},{"internalType":"uint256","name":"totalDeposits","type":"uint256"},{"internalType":"bool","name":"active","type":"bool"}],"stateMutability":"view","type":"function"},{"stateMutability":"payable","type":"receive"}],"evm":{"bytecode":{"linkReferences":{},"object":"60a0346200021a57601f6200174738819003918201601f19168301916001600160401b0391828411858510176200021f5781606092869260409687528339810103126200021a57620000518362000235565b9060206200006e846200006683880162000235565b960162000235565b60016000818155909490936001600160a01b0391821692908315620002025786546001600160a01b031980821686178955949084167f8be0079c531659141344cd1fd0a4f28419497f9722a3daafe3b4186f6b6457e08880a38751906080820190811182821017620001ee578852600a8152600b85820152600c88820152600d606082015286865b60048110620001d75750505081881615620001935785976080521690600254161760025581945b6200013b575b83516114fc90816200024b82396080518161088f0152f35b6004808610156200018c5785600301805484526009835284808786200155548352429085842001556000198514620001785793820193826200011d565b634e487b7160e01b82526011600452602482fd5b5062000123565b865162461bcd60e51b815260048101859052601560248201527f496e76616c69642064656661756c7420726566657200000000000000000000006044820152606490fd5b8660ff8451169301928160030155018790620000f6565b634e487b7160e01b87526041600452602487fd5b8751631e4fbdf760e01b815260048101879052602490fd5b600080fd5b634e487b7160e01b600052604160045260246000fd5b51906001600160a01b03821682036200021a5756fe60c080604052600436101561012a575b5036156100545760405162461bcd60e51b81526020600482015260166024820152752ab9b2903932b1b2b4bb32941490333ab731ba34b7b760511b6044820152606490fd5b34156100f7573460021c60005b6004811061006b57005b806100f29160030154806000527fbf59838198f4ea92f663f5c1fc697f151a1b746b7dff86d564f250a55cbb485160406020600a8152816000206100b0888254610f5d565b905583600052600981526001826000200154600b825282600020906000528152816000206100df888254610f5d565b90558151908782524290820152a2610eca565b610061565b60405162461bcd60e51b815260206004820152600b60248201526a139bc8109390881cd95b9d60aa1b6044820152606490fd5b60003560e01c9081631cd2a05d14610dc957508063233fc9a214610dad5780632d41b67714610d2d5780633ded33bc14610c7657806363b2a8ff14610c4d5780636641ea0814610c2f5780636a6d964e14610c03578063715018a614610ba65780637c42e10714610b735780637efefc6414610af557806381d7441c1461095e57806383482d75146109325780638da5cb5b1461090957806395335398146108be578063aec8155314610879578063c7403e1d146107fc578063c781bd7a1461076b578063cbff9718146106fb578063cde0acc214610459578063db2e21bc1461036a578063e9a9454014610312578063ed1375d5146102c75763f2fde38b14610234573861000f565b346102c25760203660031901126102c25761024d610de9565b610255610e5d565b6001600160a01b039081169081156102a957600154826bffffffffffffffffffffffff60a01b821617600155167f8be0079c531659141344cd1fd0a4f28419497f9722a3daafe3b4186f6b6457e0600080a3005b604051631e4fbdf760e01b815260006004820152602490fd5b600080fd5b346102c25760203660031901126102c257600435600a81101580610307575b6102ef90610ef5565b600052600a6020526020604060002054604051908152f35b50600d8111156102e6565b346102c25760203660031901126102c257600435600052600960205260a06040600020805490600181015490600281015460046003830154920154926040519485526020850152604084015260608301526080820152f35b346102c25760003660031901126102c257610383610e5d565b61038b611427565b4780156104275760018060a01b0360008080808585600154165af16103ae610f6a565b50156103f05760407f56da9a5ae0bcf6e7c3fdd78a10550e7d0458de1c39bfb7f6e96a3e92dd344a689160015416928151908152426020820152a26001600055005b60405162461bcd60e51b815260206004820152600f60248201526e15da5d1a191c985dc819985a5b1959608a1b6044820152606490fd5b60405162461bcd60e51b815260206004820152600a6024820152694e6f2062616c616e636560b01b6044820152606490fd5b346102c25761046736610e15565b61047f60018060a09594951b03600254163314610e89565b60005b6004811061068b575060005b6004811061049857005b8060030154908185101580610666575b6104bc575b6104b79150610eca565b61048e565b6104c58261144a565b81600052600960205260406000209160018301546040518060e081011067ffffffffffffffff60e083011117610650576006886105a09360e0840160405260018452602084019081526040840160008152606085016000815260808601918b835260a08701936000855260c08801958a1486528960005260076020528d60406000209060005260205261056c604060002098511515899060ff801983541691151516179055565b51600188015551600287015551600386015551600485015551600584015551151591019060ff801983541691151516179055565b806000526008602052604060002060018401546000526020526040600020928354906801000000000000000082101561065057604060017fe769b7ad5673f85dcebef1cff9b46f6800bfff514ae50c91844633aa2f0dcf639261060c856104b799848d98018155610e2f565b81549060031b9087821b91600019901b191617905561062b8154610eca565b81556002810161063b8154610eca565b905501548151908152426020820152a36104ad565b634e487b7160e01b600052604160045260246000fd5b5081600052602060078152604060002090856000525260ff60406000205416156104a8565b806106a89160030154858110806106d7575b6106ad575b50610eca565b610482565b6000526020600781526040600020908560005252600660406000200160ff198154169055856106a2565b5080600052602060078152604060002090866000525260ff6040600020541661069d565b346102c25760203660031901126102c257600435600a81101580610760575b61072390610ef5565b60005260096020526040600020805461075c60026001840154930154604051938493846040919493926060820195825260208201520152565b0390f35b50600d81111561071a565b346102c25760203660031901126102c257600435610787610e5d565b600a811015806107f1575b61079b90610ef5565b8060005260096020527f238c5eab9873afabc63927a7a91aec132f9f1af26e6805e226922e215ed412b06040806000206000600260018301926107de8454610eca565b80945501558151908152426020820152a2005b50600d811115610792565b346102c25760c03660031901126102c2576024356001600160a01b0360a43581811681036102c25760209261083961086193600254163314610e89565b600a8110158061086e575b61084d90610ef5565b610855611427565b60843590600435610fb5565b6001600055604051908152f35b50600d811115610844565b346102c25760003660031901126102c2576040517f00000000000000000000000000000000000000000000000000000000000000006001600160a01b03168152602090f35b346102c2576108cc36610e15565b916000526008602052604060002090600052602052604060002080548210156102c2576020916108fb91610e2f565b90546040519160031b1c8152f35b346102c25760003660031901126102c2576001546040516001600160a01b039091168152602090f35b346102c25760203660031901126102c25760043560048110156102c25760209060030154604051908152f35b346102c25761096c36610dff565b600a81101580610aea575b61098090610ef5565b6000908060005260209260078452604060002090600052835260406000209260ff845416600285015494836000526009835260019384604060002001546000198101908111610ab5578710948380610ae3575b6109f3575b50505060609450604051938452151590830152156040820152f35b81600052600985528060406000200154610a0d8982610f50565b938915610acb575b505060005b838110610a2757506109d8565b610a31818a610f5d565b828101809111610ab557836000526008875260406000208160005287526040600020549084600052600b8852604060002090600052875260406000205481151580610aac575b610a8c575b5050610a8790610eca565b610a1a565b98610a9e610aa492610a87949b610f30565b90610f5d565b97908a610a7c565b50801515610a77565b634e487b7160e01b600052601160045260246000fd5b82945091610adb92015490610f50565b918880610a15565b50856109d3565b50600d811115610977565b346102c257610b0336610dff565b90600052600760205260406000209060005260205260e0604060002060ff815416906001810154906002810154600382015460048301549160ff6006600586015495015416946040519615158752602087015260408601526060850152608084015260a0830152151560c0820152f35b346102c257610b8136610dff565b90600052600b6020526040600020906000526020526020604060002054604051908152f35b346102c25760003660031901126102c257610bbf610e5d565b600180546001600160a01b031981169091556000906001600160a01b03167f8be0079c531659141344cd1fd0a4f28419497f9722a3daafe3b4186f6b6457e08280a3005b346102c25760203660031901126102c257600435600052600a6020526020604060002054604051908152f35b346102c25760003660031901126102c2576020604051620151808152f35b346102c25760003660031901126102c2576002546040516001600160a01b039091168152602090f35b346102c25760203660031901126102c257610c8f610de9565b610c97610e5d565b6001600160a01b03908116908115610cf657600254908116610cc3576001600160a01b03191617600255005b60405162461bcd60e51b815260206004820152600b60248201526a105b1c9958591e481cd95d60aa1b6044820152606490fd5b60405162461bcd60e51b815260206004820152600f60248201526e496e76616c6964206164647265737360881b6044820152606490fd5b346102c25760003660031901126102c2576080604051610d4c81610ed9565b36903760405160036000825b60048210610d975783610d6a81610ed9565b60405190600090825b60048310610d8057608084f35b600190825181526020809101920192019190610d73565b6001602081928554815201930191019091610d58565b346102c25760003660031901126102c257602047604051908152f35b346102c25760003660031901126102c2578066038d7ea4c6800060209252f35b600435906001600160a01b03821682036102c257565b60409060031901126102c2576004359060243590565b60609060031901126102c257600435906024359060443590565b8054821015610e475760005260206000200190600090565b634e487b7160e01b600052603260045260246000fd5b6001546001600160a01b03163303610e7157565b60405163118cdaa760e01b8152336004820152602490fd5b15610e9057565b60405162461bcd60e51b815260206004820152601260248201527113db9b1e481b585a5b8818dbdb9d1c9858dd60721b6044820152606490fd5b6000198114610ab55760010190565b6080810190811067ffffffffffffffff82111761065057604052565b15610efc57565b60405162461bcd60e51b815260206004820152600c60248201526b24b73b30b634b2103a34b2b960a11b6044820152606490fd5b8115610f3a570490565b634e487b7160e01b600052601260045260246000fd5b91908203918211610ab557565b91908201809211610ab557565b3d15610fb05767ffffffffffffffff903d8281116106505760405192601f8201601f19908116603f01168401908111848210176106505760405282523d6000602084013e565b606090565b929192600094828652608060a052602060a0515260076020526040918287208188526020528287209560ff875416156113f05760ff6006880154161561139857600587019081548111611390575b505460968102908082046096149015171561137c5760649004600387019081548082116000146113735761103691610f50565b955b8615611368576110478661144a565b858952600960a05151526002858a20980197885492600182019384541115611330579060019594939291888c52600760a0515152878c20858d5260a05151526110bc8c8a8a82209152600960a05151528d8a812091600281015491508115600014611327578a915001549889915b0154610f50565b9a8c9a8d5b8d81108061131d575b15611180576110d9818b610f5d565b6001810180911161116b578f808e92838f9352600860a051515282822081835260a051515282822054938252600b60a051515282822090825260a0515152205481151580611162575b611137575b505061113290610eca565b6110c1565b9061114191610f30565b8061114d575b80611127565b61115b90611132929e610f5d565b9c90611147565b50801515611122565b50634e487b7160e01b8f52601160045260248ffd5b50919395999a9b50919396509a949a808b11611315575b5066038d7ea4c680008a1061130857896111b8575b50505050505050505090565b888552600a60a05151528987862054106112cb57888552600a60a05151528685206111e48b8254610f50565b905585546000198101919082116112b7579360038695948695948d9487965561120e858254610f5d565b90550161121c838254610f5d565b90556001600160a01b03165af1611231610f6a565b501561127f5754905184815260208101919091524260408201527f780fbd8ddebb574676643265b4c3bcc06217c87f4191c834587cd54002a4d26890606090a33880808080808080806111ac565b815162461bcd60e51b815260a051516004820152600f60248201526e151c985b9cd9995c8819985a5b1959608a1b6044820152606490fd5b634e487b7160e01b86526011600452602486fd5b865162461bcd60e51b815260a0515160048201526014602482015273496e73756666696369656e742062616c616e636560601b6044820152606490fd5b5050505094505050505090565b995038611197565b50600a81106110ca565b509889916110b5565b865162461bcd60e51b815260a051516004820152600f60248201526e105b1c9958591e4818db185a5b5959608a1b6044820152606490fd5b509195505050505050565b50508795611038565b634e487b7160e01b88526011600452602488fd5b815538611003565b835162461bcd60e51b815260a051516004820152602960248201527f54696572206e6f7420616374697665202d20757067726164656420746f20686960448201526833b432b9103a34b2b960b91b6064820152608490fd5b835162461bcd60e51b815260a051516004820152600e60248201526d139bdd081c9959da5cdd195c995960921b6044820152606490fd5b600260005414611438576002600055565b604051633ee5aeb560e01b8152600490fd5b806000526009602052604060002060048101908154620151808101809111610ab55742101561147857505050565b7f238c5eab9873afabc63927a7a91aec132f9f1af26e6805e226922e215ed412b0916000600283600160409501936114b08554610eca565b80955542905501558151908152426020820152a256fea2646970667358221220a2864712d357e73023abb1e7bbcb614b109a69cbd69a2a86d55ff2fa7168697364736f6c63430008140033","opcodes":"PUSH1 0xA0 CALLVALUE PUSH3 0x21A JUMPI PUSH1 0x1F PUSH3 0x1747 CODESIZE DUP2 SWAP1 SUB SWAP2 DUP3 ADD PUSH1 0x1F NOT AND DUP4 ADD SWAP2 PUSH1 0x1 PUSH1 0x1 PUSH1 0x40 SHL SUB SWAP2 DUP3 DUP5 GT DUP6 DUP6 LT OR PUSH3 0x21F JUMPI DUP2 PUSH1 0x60 SWAP3 DUP7 SWAP3 PUSH1 0x40 SWAP7 DUP8 MSTORE DUP4 CODECOPY DUP2 ADD SUB SLT PUSH3 0x21A JUMPI PUSH3 0x51 DUP4 PUSH3 0x235 JUMP JUMPDEST SWAP1 PUSH1 0x20 PUSH3 0x6E DUP5 PUSH3 0x66 DUP4 DUP9 ADD PUSH3 0x235 JUMP JUMPDEST SWAP7 ADD PUSH3 0x235 JUMP JUMPDEST PUSH1 0x1 PUSH1 0x0 DUP2 DUP2 SSTORE SWAP1 SWAP5 SWAP1 SWAP4 PUSH1 0x1 PUSH1 0x1 PUSH1 0xA0 SHL SUB SWAP2 DUP3 AND SWAP3 SWAP1 DUP4 ISZERO PUSH3 0x202 JUMPI DUP7 SLOAD PUSH1 0x1 PUSH1 0x1 PUSH1 0xA0 SHL SUB NOT DUP1 DUP3 AND DUP7 OR DUP10 SSTORE SWAP5 SWAP1 DUP5 AND PUSH32 0x8BE0079C531659141344CD1FD0A4F28419497F9722A3DAAFE3B4186F6B6457E0 DUP9 DUP1 LOG3 DUP8 MLOAD SWAP1 PUSH1 0x80 DUP3 ADD SWAP1 DUP2 GT DUP3 DUP3 LT OR PUSH3 0x1EE JUMPI DUP9 MSTORE PUSH1 0xA DUP2 MSTORE PUSH1 0xB DUP6 DUP3 ADD MSTORE PUSH1 0xC DUP9 DUP3 ADD MSTORE PUSH1 0xD PUSH1 0x60 DUP3 ADD MSTORE DUP7 DUP7 JUMPDEST PUSH1 0x4 DUP2 LT PUSH3 0x1D7 JUMPI POP POP POP DUP2 DUP9 AND ISZERO PUSH3 0x193 JUMPI DUP6 SWAP8 PUSH1 0x80 MSTORE AND SWAP1 PUSH1 0x2 SLOAD AND OR PUSH1 0x2 SSTORE DUP2 SWAP5 JUMPDEST PUSH3 0x13B JUMPI JUMPDEST DUP4 MLOAD PUSH2 0x14FC SWAP1 DUP2 PUSH3 0x24B DUP3 CODECOPY PUSH1 0x80 MLOAD DUP2 PUSH2 0x88F ADD MSTORE RETURN JUMPDEST PUSH1 0x4 DUP1 DUP7 LT ISZERO PUSH3 0x18C JUMPI DUP6 PUSH1 0x3 ADD DUP1 SLOAD DUP5 MSTORE PUSH1 0x9 DUP4 MSTORE DUP5 DUP1 DUP8 DUP7 KECCAK256 ADD SSTORE SLOAD DUP4 MSTORE TIMESTAMP SWAP1 DUP6 DUP5 KECCAK256 ADD SSTORE PUSH1 0x0 NOT DUP6 EQ PUSH3 0x178 JUMPI SWAP4 DUP3 ADD SWAP4 DUP3 PUSH3 0x11D JUMP JUMPDEST PUSH4 0x4E487B71 PUSH1 0xE0 SHL DUP3 MSTORE PUSH1 0x11 PUSH1 0x4 MSTORE PUSH1 0x24 DUP3 REVERT JUMPDEST POP PUSH3 0x123 JUMP JUMPDEST DUP7 MLOAD PUSH3 0x461BCD PUSH1 0xE5 SHL DUP2 MSTORE PUSH1 0x4 DUP2 ADD DUP6 SWAP1 MSTORE PUSH1 0x15 PUSH1 0x24 DUP3 ADD MSTORE PUSH32 0x496E76616C69642064656661756C742072656665720000000000000000000000 PUSH1 0x44 DUP3 ADD MSTORE PUSH1 0x64 SWAP1 REVERT JUMPDEST DUP7 PUSH1 0xFF DUP5 MLOAD AND SWAP4 ADD SWAP3 DUP2 PUSH1 0x3 ADD SSTORE ADD DUP8 SWAP1 PUSH3 0xF6 JUMP JUMPDEST PUSH4 0x4E487B71 PUSH1 0xE0 SHL DUP8 MSTORE PUSH1 0x41 PUSH1 0x4 MSTORE PUSH1 0x24 DUP8 REVERT JUMPDEST DUP8 MLOAD PUSH4 0x1E4FBDF7 PUSH1 0xE0 SHL DUP2 MSTORE PUSH1 0x4 DUP2 ADD DUP8 SWAP1 MSTORE PUSH1 0x24 SWAP1 REVERT JUMPDEST PUSH1 0x0 DUP1 REVERT JUMPDEST PUSH4 0x4E487B71 PUSH1 0xE0 SHL PUSH1 0x0 MSTORE PUSH1 0x41 PUSH1 0x4 MSTORE PUSH1 0x24 PUSH1 0x0 REVERT JUMPDEST MLOAD SWAP1 PUSH1 0x1 PUSH1 0x1 PUSH1 0xA0 SHL SUB DUP3 AND DUP3 SUB PUSH3 0x21A JUMPI JUMP INVALID PUSH1 0xC0 DUP1 PUSH1 0x40 MSTORE PUSH1 0x4 CALLDATASIZE LT ISZERO PUSH2 0x12A JUMPI JUMPDEST POP CALLDATASIZE ISZERO PUSH2 0x54 JUMPI PUSH1 0x40 MLOAD PUSH3 0x461BCD PUSH1 0xE5 SHL DUP2 MSTORE PUSH1 0x20 PUSH1 0x4 DUP3 ADD MSTORE PUSH1 0x16 PUSH1 0x24 DUP3 ADD MSTORE PUSH22 0x2AB9B2903932B1B2B4BB32941490333AB731BA34B7B7 PUSH1 0x51 SHL PUSH1 0x44 DUP3 ADD MSTORE PUSH1 0x64 SWAP1 REVERT JUMPDEST CALLVALUE ISZERO PUSH2 0xF7 JUMPI CALLVALUE PUSH1 0x2 SHR PUSH1 0x0 JUMPDEST PUSH1 0x4 DUP2 LT PUSH2 0x6B JUMPI STOP JUMPDEST DUP1 PUSH2 0xF2 SWAP2 PUSH1 0x3 ADD SLOAD DUP1 PUSH1 0x0 MSTORE PUSH32 0xBF59838198F4EA92F663F5C1FC697F151A1B746B7DFF86D564F250A55CBB4851 PUSH1 0x40 PUSH1 0x20 PUSH1 0xA DUP2 MSTORE DUP2 PUSH1 0x0 KECCAK256 PUSH2 0xB0 DUP9 DUP3 SLOAD PUSH2 0xF5D JUMP JUMPDEST SWAP1 SSTORE DUP4 PUSH1 0x0 MSTORE PUSH1 0x9 DUP2 MSTORE PUSH1 0x1 DUP3 PUSH1 0x0 KECCAK256 ADD SLOAD PUSH1 0xB DUP3 MSTORE DUP3 PUSH1 0x0 KECCAK256 SWAP1 PUSH1 0x0 MSTORE DUP2 MSTORE DUP2 PUSH1 0x0 KECCAK256 PUSH2 0xDF DUP9 DUP3 SLOAD PUSH2 0xF5D JUMP JUMPDEST SWAP1 SSTORE DUP2 MLOAD SWAP1 DUP8 DUP3 MSTORE TIMESTAMP SWAP1 DUP3 ADD MSTORE LOG2 PUSH2 0xECA JUMP JUMPDEST PUSH2 0x61 JUMP JUMPDEST PUSH1 0x40 MLOAD PUSH3 0x461BCD PUSH1 0xE5 SHL DUP2 MSTORE PUSH1 0x20 PUSH1 0x4 DUP3 ADD MSTORE PUSH1 0xB PUSH1 0x24 DUP3 ADD MSTORE PUSH11 0x139BC8109390881CD95B9D PUSH1 0xAA SHL PUSH1 0x44 DUP3 ADD MSTORE PUSH1 0x64 SWAP1 REVERT JUMPDEST PUSH1 0x0 CALLDATALOAD PUSH1 0xE0 SHR SWAP1 DUP2 PUSH4 0x1CD2A05D EQ PUSH2 0xDC9 JUMPI POP DUP1 PUSH4 0x233FC9A2 EQ PUSH2 0xDAD JUMPI DUP1 PUSH4 0x2D41B677 EQ PUSH2 0xD2D JUMPI DUP1 PUSH4 0x3DED33BC EQ PUSH2 0xC76 JUMPI DUP1 PUSH4 0x63B2A8FF EQ PUSH2 0xC4D JUMPI DUP1 PUSH4 0x6641EA08 EQ PUSH2 0xC2F JUMPI DUP1 PUSH4 0x6A6D964E EQ PUSH2 0xC03 JUMPI DUP1 PUSH4 0x715018A6 EQ PUSH2 0xBA6 JUMPI DUP1 PUSH4 0x7C42E107 EQ PUSH2 0xB73 JUMPI DUP1 PUSH4 0x7EFEFC64 EQ PUSH2 0xAF5 JUMPI DUP1 PUSH4 0x81D7441C EQ PUSH2 0x95E JUMPI DUP1 PUSH4 0x83482D75 EQ PUSH2 0x932 JUMPI DUP1 PUSH4 0x8DA5CB5B EQ PUSH2 0x909 JUMPI DUP1 PUSH4 0x95335398 EQ PUSH2 0x8BE JUMPI DUP1 PUSH4 0xAEC81553 EQ PUSH2 0x879 JUMPI DUP1 PUSH4 0xC7403E1D EQ PUSH2 0x7FC JUMPI DUP1 PUSH4 0xC781BD7A EQ PUSH2 0x76B JUMPI DUP1 PUSH4 0xCBFF9718 EQ PUSH2 0x6FB JUMPI DUP1 PUSH4 0xCDE0ACC2 EQ PUSH2 0x459 JUMPI DUP1 PUSH4 0xDB2E21BC EQ PUSH2 0x36A JUMPI DUP1 PUSH4 0xE9A94540 EQ PUSH2 0x312 JUMPI DUP1 PUSH4 0xED1375D5 EQ PUSH2 0x2C7 JUMPI PUSH4 0xF2FDE38B EQ PUSH2 0x234 JUMPI CODESIZE PUSH2 0xF JUMP JUMPDEST CALLVALUE PUSH2 0x2C2 JUMPI PUSH1 0x20 CALLDATASIZE PUSH1 0x3 NOT ADD SLT PUSH2 0x2C2 JUMPI PUSH2 0x24D PUSH2 0xDE9 JUMP JUMPDEST PUSH2 0x255 PUSH2 0xE5D JUMP JUMPDEST PUSH1 0x1 PUSH1 0x1 PUSH1 0xA0 SHL SUB SWAP1 DUP2 AND SWAP1 DUP2 ISZERO PUSH2 0x2A9 JUMPI PUSH1 0x1 SLOAD DUP3 PUSH12 0xFFFFFFFFFFFFFFFFFFFFFFFF PUSH1 0xA0 SHL DUP3 AND OR PUSH1 0x1 SSTORE AND PUSH32 0x8BE0079C531659141344CD1FD0A4F28419497F9722A3DAAFE3B4186F6B6457E0 PUSH1 0x0 DUP1 LOG3 STOP JUMPDEST PUSH1 0x40 MLOAD PUSH4 0x1E4FBDF7 PUSH1 0xE0 SHL DUP2 MSTORE PUSH1 0x0 PUSH1 0x4 DUP3 ADD MSTORE PUSH1 0x24 SWAP1 REVERT JUMPDEST PUSH1 0x0 DUP1 REVERT JUMPDEST CALLVALUE PUSH2 0x2C2 JUMPI PUSH1 0x20 CALLDATASIZE PUSH1 0x3 NOT ADD SLT PUSH2 0x2C2 JUMPI PUSH1 0x4 CALLDATALOAD PUSH1 0xA DUP2 LT ISZERO DUP1 PUSH2 0x307 JUMPI JUMPDEST PUSH2 0x2EF SWAP1 PUSH2 0xEF5 JUMP JUMPDEST PUSH1 0x0 MSTORE PUSH1 0xA PUSH1 0x20 MSTORE PUSH1 0x20 PUSH1 0x40 PUSH1 0x0 KECCAK256 SLOAD PUSH1 0x40 MLOAD SWAP1 DUP2 MSTORE RETURN JUMPDEST POP PUSH1 0xD DUP2 GT ISZERO PUSH2 0x2E6 JUMP JUMPDEST CALLVALUE PUSH2 0x2C2 JUMPI PUSH1 0x20 CALLDATASIZE PUSH1 0x3 NOT ADD SLT PUSH2 0x2C2 JUMPI PUSH1 0x4 CALLDATALOAD PUSH1 0x0 MSTORE PUSH1 0x9 PUSH1 0x20 MSTORE PUSH1 0xA0 PUSH1 0x40 PUSH1 0x0 KECCAK256 DUP1 SLOAD SWAP1 PUSH1 0x1 DUP2 ADD SLOAD SWAP1 PUSH1 0x2 DUP2 ADD SLOAD PUSH1 0x4 PUSH1 0x3 DUP4 ADD SLOAD SWAP3 ADD SLOAD SWAP3 PUSH1 0x40 MLOAD SWAP5 DUP6 MSTORE PUSH1 0x20 DUP6 ADD MSTORE PUSH1 0x40 DUP5 ADD MSTORE PUSH1 0x60 DUP4 ADD MSTORE PUSH1 0x80 DUP3 ADD MSTORE RETURN JUMPDEST CALLVALUE PUSH2 0x2C2 JUMPI PUSH1 0x0 CALLDATASIZE PUSH1 0x3 NOT ADD SLT PUSH2 0x2C2 JUMPI PUSH2 0x383 PUSH2 0xE5D JUMP JUMPDEST PUSH2 0x38B PUSH2 0x1427 JUMP JUMPDEST SELFBALANCE DUP1 ISZERO PUSH2 0x427 JUMPI PUSH1 0x1 DUP1 PUSH1 0xA0 SHL SUB PUSH1 0x0 DUP1 DUP1 DUP1 DUP6 DUP6 PUSH1 0x1 SLOAD AND GAS CALL PUSH2 0x3AE PUSH2 0xF6A JUMP JUMPDEST POP ISZERO PUSH2 0x3F0 JUMPI PUSH1 0x40 PUSH32 0x56DA9A5AE0BCF6E7C3FDD78A10550E7D0458DE1C39BFB7F6E96A3E92DD344A68 SWAP2 PUSH1 0x1 SLOAD AND SWAP3 DUP2 MLOAD SWAP1 DUP2 MSTORE TIMESTAMP PUSH1 0x20 DUP3 ADD MSTORE LOG2 PUSH1 0x1 PUSH1 0x0 SSTORE STOP JUMPDEST PUSH1 0x40 MLOAD PUSH3 0x461BCD PUSH1 0xE5 SHL DUP2 MSTORE PUSH1 0x20 PUSH1 0x4 DUP3 ADD MSTORE PUSH1 0xF PUSH1 0x24 DUP3 ADD MSTORE PUSH15 0x15DA5D1A191C985DC819985A5B1959 PUSH1 0x8A SHL PUSH1 0x44 DUP3 ADD MSTORE PUSH1 0x64 SWAP1 REVERT JUMPDEST PUSH1 0x40 MLOAD PUSH3 0x461BCD PUSH1 0xE5 SHL DUP2 MSTORE PUSH1 0x20 PUSH1 0x4 DUP3 ADD MSTORE PUSH1 0xA PUSH1 0x24 DUP3 ADD MSTORE PUSH10 0x4E6F2062616C616E6365 PUSH1 0xB0 SHL PUSH1 0x44 DUP3 ADD MSTORE PUSH1 0x64 SWAP1 REVERT JUMPDEST CALLVALUE PUSH2 0x2C2 JUMPI PUSH2 0x467 CALLDATASIZE PUSH2 0xE15 JUMP JUMPDEST PUSH2 0x47F PUSH1 0x1 DUP1 PUSH1 0xA0 SWAP6 SWAP5 SWAP6 SHL SUB PUSH1 0x2 SLOAD AND CALLER EQ PUSH2 0xE89 JUMP JUMPDEST PUSH1 0x0 JUMPDEST PUSH1 0x4 DUP2 LT PUSH2 0x68B JUMPI POP PUSH1 0x0 JUMPDEST PUSH1 0x4 DUP2 LT PUSH2 0x498 JUMPI STOP JUMPDEST DUP1 PUSH1 0x3 ADD SLOAD SWAP1 DUP2 DUP6 LT ISZERO DUP1 PUSH2 0x666 JUMPI JUMPDEST PUSH2 0x4BC JUMPI JUMPDEST PUSH2 0x4B7 SWAP2 POP PUSH2 0xECA JUMP JUMPDEST PUSH2 0x48E JUMP JUMPDEST PUSH2 0x4C5 DUP3 PUSH2 0x144A JUMP JUMPDEST DUP2 PUSH1 0x0 MSTORE PUSH1 0x9 PUSH1 0x20 MSTORE PUSH1 0x40 PUSH1 0x0 KECCAK256 SWAP2 PUSH1 0x1 DUP4 ADD SLOAD PUSH1 0x40 MLOAD DUP1 PUSH1 0xE0 DUP2 ADD LT PUSH8 0xFFFFFFFFFFFFFFFF PUSH1 0xE0 DUP4 ADD GT OR PUSH2 0x650 JUMPI PUSH1 0x6 DUP9 PUSH2 0x5A0 SWAP4 PUSH1 0xE0 DUP5 ADD PUSH1 0x40 MSTORE PUSH1 0x1 DUP5 MSTORE PUSH1 0x20 DUP5 ADD SWAP1 DUP2 MSTORE PUSH1 0x40 DUP5 ADD PUSH1 0x0 DUP2 MSTORE PUSH1 0x60 DUP6 ADD PUSH1 0x0 DUP2 MSTORE PUSH1 0x80 DUP7 ADD SWAP2 DUP12 DUP4 MSTORE PUSH1 0xA0 DUP8 ADD SWAP4 PUSH1 0x0 DUP6 MSTORE PUSH1 0xC0 DUP9 ADD SWAP6 DUP11 EQ DUP7 MSTORE DUP10 PUSH1 0x0 MSTORE PUSH1 0x7 PUSH1 0x20 MSTORE DUP14 PUSH1 0x40 PUSH1 0x0 KECCAK256 SWAP1 PUSH1 0x0 MSTORE PUSH1 0x20 MSTORE PUSH2 0x56C PUSH1 0x40 PUSH1 0x0 KECCAK256 SWAP9 MLOAD ISZERO ISZERO DUP10 SWAP1 PUSH1 0xFF DUP1 NOT DUP4 SLOAD AND SWAP2 ISZERO ISZERO AND OR SWAP1 SSTORE JUMP JUMPDEST MLOAD PUSH1 0x1 DUP9 ADD SSTORE MLOAD PUSH1 0x2 DUP8 ADD SSTORE MLOAD PUSH1 0x3 DUP7 ADD SSTORE MLOAD PUSH1 0x4 DUP6 ADD SSTORE MLOAD PUSH1 0x5 DUP5 ADD SSTORE MLOAD ISZERO ISZERO SWAP2 ADD SWAP1 PUSH1 0xFF DUP1 NOT DUP4 SLOAD AND SWAP2 ISZERO ISZERO AND OR SWAP1 SSTORE JUMP JUMPDEST DUP1 PUSH1 0x0 MSTORE PUSH1 0x8 PUSH1 0x20 MSTORE PUSH1 0x40 PUSH1 0x0 KECCAK256 PUSH1 0x1 DUP5 ADD SLOAD PUSH1 0x0 MSTORE PUSH1 0x20 MSTORE PUSH1 0x40 PUSH1 0x0 KECCAK256 SWAP3 DUP4 SLOAD SWAP1 PUSH9 0x10000000000000000 DUP3 LT ISZERO PUSH2 0x650 JUMPI PUSH1 0x40 PUSH1 0x1 PUSH32 0xE769B7AD5673F85DCEBEF1CFF9B46F6800BFFF514AE50C91844633AA2F0DCF63 SWAP3 PUSH2 0x60C DUP6 PUSH2 0x4B7 SWAP10 DUP5 DUP14 SWAP9 ADD DUP2 SSTORE PUSH2 0xE2F JUMP JUMPDEST DUP2 SLOAD SWAP1 PUSH1 0x3 SHL SWAP1 DUP8 DUP3 SHL SWAP2 PUSH1 0x0 NOT SWAP1 SHL NOT AND OR SWAP1 SSTORE PUSH2 0x62B DUP2 SLOAD PUSH2 0xECA JUMP JUMPDEST DUP2 SSTORE PUSH1 0x2 DUP2 ADD PUSH2 0x63B DUP2 SLOAD PUSH2 0xECA JUMP JUMPDEST SWAP1 SSTORE ADD SLOAD DUP2 MLOAD SWAP1 DUP2 MSTORE TIMESTAMP PUSH1 0x20 DUP3 ADD MSTORE LOG3 PUSH2 0x4AD JUMP JUMPDEST PUSH4 0x4E487B71 PUSH1 0xE0 SHL PUSH1 0x0 MSTORE PUSH1 0x41 PUSH1 0x4 MSTORE PUSH1 0x24 PUSH1 0x0 REVERT JUMPDEST POP DUP2 PUSH1 0x0 MSTORE PUSH1 0x20 PUSH1 0x7 DUP2 MSTORE PUSH1 0x40 PUSH1 0x0 KECCAK256 SWAP1 DUP6 PUSH1 0x0 MSTORE MSTORE PUSH1 0xFF PUSH1 0x40 PUSH1 0x0 KECCAK256 SLOAD AND ISZERO PUSH2 0x4A8 JUMP JUMPDEST DUP1 PUSH2 0x6A8 SWAP2 PUSH1 0x3 ADD SLOAD DUP6 DUP2 LT DUP1 PUSH2 0x6D7 JUMPI JUMPDEST PUSH2 0x6AD JUMPI JUMPDEST POP PUSH2 0xECA JUMP JUMPDEST PUSH2 0x482 JUMP JUMPDEST PUSH1 0x0 MSTORE PUSH1 0x20 PUSH1 0x7 DUP2 MSTORE PUSH1 0x40 PUSH1 0x0 KECCAK256 SWAP1 DUP6 PUSH1 0x0 MSTORE MSTORE PUSH1 0x6 PUSH1 0x40 PUSH1 0x0 KECCAK256 ADD PUSH1 0xFF NOT DUP2 SLOAD AND SWAP1 SSTORE DUP6 PUSH2 0x6A2 JUMP JUMPDEST POP DUP1 PUSH1 0x0 MSTORE PUSH1 0x20 PUSH1 0x7 DUP2 MSTORE PUSH1 0x40 PUSH1 0x0 KECCAK256 SWAP1 DUP7 PUSH1 0x0 MSTORE MSTORE PUSH1 0xFF PUSH1 0x40 PUSH1 0x0 KECCAK256 SLOAD AND PUSH2 0x69D JUMP JUMPDEST CALLVALUE PUSH2 0x2C2 JUMPI PUSH1 0x20 CALLDATASIZE PUSH1 0x3 NOT ADD SLT PUSH2 0x2C2 JUMPI PUSH1 0x4 CALLDATALOAD PUSH1 0xA DUP2 LT ISZERO DUP1 PUSH2 0x760 JUMPI JUMPDEST PUSH2 0x723 SWAP1 PUSH2 0xEF5 JUMP JUMPDEST PUSH1 0x0 MSTORE PUSH1 0x9 PUSH1 0x20 MSTORE PUSH1 0x40 PUSH1 0x0 KECCAK256 DUP1 SLOAD PUSH2 0x75C PUSH1 0x2 PUSH1 0x1 DUP5 ADD SLOAD SWAP4 ADD SLOAD PUSH1 0x40 MLOAD SWAP4 DUP5 SWAP4 DUP5 PUSH1 0x40 SWAP2 SWAP5 SWAP4 SWAP3 PUSH1 0x60 DUP3 ADD SWAP6 DUP3 MSTORE PUSH1 0x20 DUP3 ADD MSTORE ADD MSTORE JUMP JUMPDEST SUB SWAP1 RETURN JUMPDEST POP PUSH1 0xD DUP2 GT ISZERO PUSH2 0x71A JUMP JUMPDEST CALLVALUE PUSH2 0x2C2 JUMPI PUSH1 0x20 CALLDATASIZE PUSH1 0x3 NOT ADD SLT PUSH2 0x2C2 JUMPI PUSH1 0x4 CALLDATALOAD PUSH2 0x787 PUSH2 0xE5D JUMP JUMPDEST PUSH1 0xA DUP2 LT ISZERO DUP1 PUSH2 0x7F1 JUMPI JUMPDEST PUSH2 0x79B SWAP1 PUSH2 0xEF5 JUMP JUMPDEST DUP1 PUSH1 0x0 MSTORE PUSH1 0x9 PUSH1 0x20 MSTORE PUSH32 0x238C5EAB9873AFABC63927A7A91AEC132F9F1AF26E6805E226922E215ED412B0 PUSH1 0x40 DUP1 PUSH1 0x0 KECCAK256 PUSH1 0x0 PUSH1 0x2 PUSH1 0x1 DUP4 ADD SWAP3 PUSH2 0x7DE DUP5 SLOAD PUSH2 0xECA JUMP JUMPDEST DUP1 SWAP5 SSTORE ADD SSTORE DUP2 MLOAD SWAP1 DUP2 MSTORE TIMESTAMP PUSH1 0x20 DUP3 ADD MSTORE LOG2 STOP JUMPDEST POP PUSH1 0xD DUP2 GT ISZERO PUSH2 0x792 JUMP JUMPDEST CALLVALUE PUSH2 0x2C2 JUMPI PUSH1 0xC0 CALLDATASIZE PUSH1 0x3 NOT ADD SLT PUSH2 0x2C2 JUMPI PUSH1 0x24 CALLDATALOAD PUSH1 0x1 PUSH1 0x1 PUSH1 0xA0 SHL SUB PUSH1 0xA4 CALLDATALOAD DUP2 DUP2 AND DUP2 SUB PUSH2 0x2C2 JUMPI PUSH1 0x20 SWAP3 PUSH2 0x839 PUSH2 0x861 SWAP4 PUSH1 0x2 SLOAD AND CALLER EQ PUSH2 0xE89 JUMP JUMPDEST PUSH1 0xA DUP2 LT ISZERO DUP1 PUSH2 0x86E JUMPI JUMPDEST PUSH2 0x84D SWAP1 PUSH2 0xEF5 JUMP JUMPDEST PUSH2 0x855 PUSH2 0x1427 JUMP JUMPDEST PUSH1 0x84 CALLDATALOAD SWAP1 PUSH1 0x4 CALLDATALOAD PUSH2 0xFB5 JUMP JUMPDEST PUSH1 0x1 PUSH1 0x0 SSTORE PUSH1 0x40 MLOAD SWAP1 DUP2 MSTORE RETURN JUMPDEST POP PUSH1 0xD DUP2 GT ISZERO PUSH2 0x844 JUMP JUMPDEST CALLVALUE PUSH2 0x2C2 JUMPI PUSH1 0x0 CALLDATASIZE PUSH1 0x3 NOT ADD SLT PUSH2 0x2C2 JUMPI PUSH1 0x40 MLOAD PUSH32 0x0 PUSH1 0x1 PUSH1 0x1 PUSH1 0xA0 SHL SUB AND DUP2 MSTORE PUSH1 0x20 SWAP1 RETURN JUMPDEST CALLVALUE PUSH2 0x2C2 JUMPI PUSH2 0x8CC CALLDATASIZE PUSH2 0xE15 JUMP JUMPDEST SWAP2 PUSH1 0x0 MSTORE PUSH1 0x8 PUSH1 0x20 MSTORE PUSH1 0x40 PUSH1 0x0 KECCAK256 SWAP1 PUSH1 0x0 MSTORE PUSH1 0x20 MSTORE PUSH1 0x40 PUSH1 0x0 KECCAK256 DUP1 SLOAD DUP3 LT ISZERO PUSH2 0x2C2 JUMPI PUSH1 0x20 SWAP2 PUSH2 0x8FB SWAP2 PUSH2 0xE2F JUMP JUMPDEST SWAP1 SLOAD PUSH1 0x40 MLOAD SWAP2 PUSH1 0x3 SHL SHR DUP2 MSTORE RETURN JUMPDEST CALLVALUE PUSH2 0x2C2 JUMPI PUSH1 0x0 CALLDATASIZE PUSH1 0x3 NOT ADD SLT PUSH2 0x2C2 JUMPI PUSH1 0x1 SLOAD PUSH1 0x40 MLOAD PUSH1 0x1 PUSH1 0x1 PUSH1 0xA0 SHL SUB SWAP1 SWAP2 AND DUP2 MSTORE PUSH1 0x20 SWAP1 RETURN JUMPDEST CALLVALUE PUSH2 0x2C2 JUMPI PUSH1 0x20 CALLDATASIZE PUSH1 0x3 NOT ADD SLT PUSH2 0x2C2 JUMPI PUSH1 0x4 CALLDATALOAD PUSH1 0x4 DUP2 LT ISZERO PUSH2 0x2C2 JUMPI PUSH1 0x20 SWAP1 PUSH1 0x3 ADD SLOAD PUSH1 0x40 MLOAD SWAP1 DUP2 MSTORE RETURN JUMPDEST CALLVALUE PUSH2 0x2C2 JUMPI PUSH2 0x96C CALLDATASIZE PUSH2 0xDFF JUMP JUMPDEST PUSH1 0xA DUP2 LT ISZERO DUP1 PUSH2 0xAEA JUMPI JUMPDEST PUSH2 0x980 SWAP1 PUSH2 0xEF5 JUMP JUMPDEST PUSH1 0x0 SWAP1 DUP1 PUSH1 0x0 MSTORE PUSH1 0x20 SWAP3 PUSH1 0x7 DUP5 MSTORE PUSH1 0x40 PUSH1 0x0 KECCAK256 SWAP1 PUSH1 0x0 MSTORE DUP4 MSTORE PUSH1 0x40 PUSH1 0x0 KECCAK256 SWAP3 PUSH1 0xFF DUP5 SLOAD AND PUSH1 0x2 DUP6 ADD SLOAD SWAP5 DUP4 PUSH1 0x0 MSTORE PUSH1 0x9 DUP4 MSTORE PUSH1 0x1 SWAP4 DUP5 PUSH1 0x40 PUSH1 0x0 KECCAK256 ADD SLOAD PUSH1 0x0 NOT DUP2 ADD SWAP1 DUP2 GT PUSH2 0xAB5 JUMPI DUP8 LT SWAP5 DUP4 DUP1 PUSH2 0xAE3 JUMPI JUMPDEST PUSH2 0x9F3 JUMPI JUMPDEST POP POP POP PUSH1 0x60 SWAP5 POP PUSH1 0x40 MLOAD SWAP4 DUP5 MSTORE ISZERO ISZERO SWAP1 DUP4 ADD MSTORE ISZERO PUSH1 0x40 DUP3 ADD MSTORE RETURN JUMPDEST DUP2 PUSH1 0x0 MSTORE PUSH1 0x9 DUP6 MSTORE DUP1 PUSH1 0x40 PUSH1 0x0 KECCAK256 ADD SLOAD PUSH2 0xA0D DUP10 DUP3 PUSH2 0xF50 JUMP JUMPDEST SWAP4 DUP10 ISZERO PUSH2 0xACB JUMPI JUMPDEST POP POP PUSH1 0x0 JUMPDEST DUP4 DUP2 LT PUSH2 0xA27 JUMPI POP PUSH2 0x9D8 JUMP JUMPDEST PUSH2 0xA31 DUP2 DUP11 PUSH2 0xF5D JUMP JUMPDEST DUP3 DUP2 ADD DUP1 SWAP2 GT PUSH2 0xAB5 JUMPI DUP4 PUSH1 0x0 MSTORE PUSH1 0x8 DUP8 MSTORE PUSH1 0x40 PUSH1 0x0 KECCAK256 DUP2 PUSH1 0x0 MSTORE DUP8 MSTORE PUSH1 0x40 PUSH1 0x0 KECCAK256 SLOAD SWAP1 DUP5 PUSH1 0x0 MSTORE PUSH1 0xB DUP9 MSTORE PUSH1 0x40 PUSH1 0x0 KECCAK256 SWAP1 PUSH1 0x0 MSTORE DUP8 MSTORE PUSH1 0x40 PUSH1 0x0 KECCAK256 SLOAD DUP2 ISZERO ISZERO DUP1 PUSH2 0xAAC JUMPI JUMPDEST PUSH2 0xA8C JUMPI JUMPDEST POP POP PUSH2 0xA87 SWAP1 PUSH2 0xECA JUMP JUMPDEST PUSH2 0xA1A JUMP JUMPDEST SWAP9 PUSH2 0xA9E PUSH2 0xAA4 SWAP3 PUSH2 0xA87 SWAP5 SWAP12 PUSH2 0xF30 JUMP JUMPDEST SWAP1 PUSH2 0xF5D JUMP JUMPDEST SWAP8 SWAP1 DUP11 PUSH2 0xA7C JUMP JUMPDEST POP DUP1 ISZERO ISZERO PUSH2 0xA77 JUMP JUMPDEST PUSH4 0x4E487B71 PUSH1 0xE0 SHL PUSH1 0x0 MSTORE PUSH1 0x11 PUSH1 0x4 MSTORE PUSH1 0x24 PUSH1 0x0 REVERT JUMPDEST DUP3 SWAP5 POP SWAP2 PUSH2 0xADB SWAP3 ADD SLOAD SWAP1 PUSH2 0xF50 JUMP JUMPDEST SWAP2 DUP9 DUP1 PUSH2 0xA15 JUMP JUMPDEST POP DUP6 PUSH2 0x9D3 JUMP JUMPDEST POP PUSH1 0xD DUP2 GT ISZERO PUSH2 0x977 JUMP JUMPDEST CALLVALUE PUSH2 0x2C2 JUMPI PUSH2 0xB03 CALLDATASIZE PUSH2 0xDFF JUMP JUMPDEST SWAP1 PUSH1 0x0 MSTORE PUSH1 0x7 PUSH1 0x20 MSTORE PUSH1 0x40 PUSH1 0x0 KECCAK256 SWAP1 PUSH1 0x0 MSTORE PUSH1 0x20 MSTORE PUSH1 0xE0 PUSH1 0x40 PUSH1 0x0 KECCAK256 PUSH1 0xFF DUP2 SLOAD AND SWAP1 PUSH1 0x1 DUP2 ADD SLOAD SWAP1 PUSH1 0x2 DUP2 ADD SLOAD PUSH1 0x3 DUP3 ADD SLOAD PUSH1 0x4 DUP4 ADD SLOAD SWAP2 PUSH1 0xFF PUSH1 0x6 PUSH1 0x5 DUP7 ADD SLOAD SWAP6 ADD SLOAD AND SWAP5 PUSH1 0x40 MLOAD SWAP7 ISZERO ISZERO DUP8 MSTORE PUSH1 0x20 DUP8 ADD MSTORE PUSH1 0x40 DUP7 ADD MSTORE PUSH1 0x60 DUP6 ADD MSTORE PUSH1 0x80 DUP5 ADD MSTORE PUSH1 0xA0 DUP4 ADD MSTORE ISZERO ISZERO PUSH1 0xC0 DUP3 ADD MSTORE RETURN JUMPDEST CALLVALUE PUSH2 0x2C2 JUMPI PUSH2 0xB81 CALLDATASIZE PUSH2 0xDFF JUMP JUMPDEST SWAP1 PUSH1 0x0 MSTORE PUSH1 0xB PUSH1 0x20 MSTORE PUSH1 0x40 PUSH1 0x0 KECCAK256 SWAP1 PUSH1 0x0 MSTORE PUSH1 0x20 MSTORE PUSH1 0x20 PUSH1 0x40 PUSH1 0x0 KECCAK256 SLOAD PUSH1 0x40 MLOAD SWAP1 DUP2 MSTORE RETURN JUMPDEST CALLVALUE PUSH2 0x2C2 JUMPI PUSH1 0x0 CALLDATASIZE PUSH1 0x3 NOT ADD SLT PUSH2 0x2C2 JUMPI PUSH2 0xBBF PUSH2 0xE5D JUMP JUMPDEST PUSH1 0x1 DUP1 SLOAD PUSH1 0x1 PUSH1 0x1 PUSH1 0xA0 SHL SUB NOT DUP2 AND SWAP1 SWAP2 SSTORE PUSH1 0x0 SWAP1 PUSH1 0x1 PUSH1 0x1 PUSH1 0xA0 SHL SUB AND PUSH32 0x8BE0079C531659141344CD1FD0A4F28419497F9722A3DAAFE3B4186F6B6457E0 DUP3 DUP1 LOG3 STOP JUMPDEST CALLVALUE PUSH2 0x2C2 JUMPI PUSH1 0x20 CALLDATASIZE PUSH1 0x3 NOT ADD SLT PUSH2 0x2C2 JUMPI PUSH1 0x4 CALLDATALOAD PUSH1 0x0 MSTORE PUSH1 0xA PUSH1 0x20 MSTORE PUSH1 0x20 PUSH1 0x40 PUSH1 0x0 KECCAK256 SLOAD PUSH1 0x40 MLOAD SWAP1 DUP2 MSTORE RETURN JUMPDEST CALLVALUE PUSH2 0x2C2 JUMPI PUSH1 0x0 CALLDATASIZE PUSH1 0x3 NOT ADD SLT PUSH2 0x2C2 JUMPI PUSH1 0x20 PUSH1 0x40 MLOAD PUSH3 0x15180 DUP2 MSTORE RETURN JUMPDEST CALLVALUE PUSH2 0x2C2 JUMPI PUSH1 0x0 CALLDATASIZE PUSH1 0x3 NOT ADD SLT PUSH2 0x2C2 JUMPI PUSH1 0x2 SLOAD PUSH1 0x40 MLOAD PUSH1 0x1 PUSH1 0x1 PUSH1 0xA0 SHL SUB SWAP1 SWAP2 AND DUP2 MSTORE PUSH1 0x20 SWAP1 RETURN JUMPDEST CALLVALUE PUSH2 0x2C2 JUMPI PUSH1 0x20 CALLDATASIZE PUSH1 0x3 NOT ADD SLT PUSH2 0x2C2 JUMPI PUSH2 0xC8F PUSH2 0xDE9 JUMP JUMPDEST PUSH2 0xC97 PUSH2 0xE5D JUMP JUMPDEST PUSH1 0x1 PUSH1 0x1 PUSH1 0xA0 SHL SUB SWAP1 DUP2 AND SWAP1 DUP2 ISZERO PUSH2 0xCF6 JUMPI PUSH1 0x2 SLOAD SWAP1 DUP2 AND PUSH2 0xCC3 JUMPI PUSH1 0x1 PUSH1 0x1 PUSH1 0xA0 SHL SUB NOT AND OR PUSH1 0x2 SSTORE STOP JUMPDEST PUSH1 0x40 MLOAD PUSH3 0x461BCD PUSH1 0xE5 SHL DUP2 MSTORE PUSH1 0x20 PUSH1 0x4 DUP3 ADD MSTORE PUSH1 0xB PUSH1 0x24 DUP3 ADD MSTORE PUSH11 0x105B1C9958591E481CD95D PUSH1 0xAA SHL PUSH1 0x44 DUP3 ADD MSTORE PUSH1 0x64 SWAP1 REVERT JUMPDEST PUSH1 0x40 MLOAD PUSH3 0x461BCD PUSH1 0xE5 SHL DUP2 MSTORE PUSH1 0x20 PUSH1 0x4 DUP3 ADD MSTORE PUSH1 0xF PUSH1 0x24 DUP3 ADD MSTORE PUSH15 0x496E76616C69642061646472657373 PUSH1 0x88 SHL PUSH1 0x44 DUP3 ADD MSTORE PUSH1 0x64 SWAP1 REVERT JUMPDEST CALLVALUE PUSH2 0x2C2 JUMPI PUSH1 0x0 CALLDATASIZE PUSH1 0x3 NOT ADD SLT PUSH2 0x2C2 JUMPI PUSH1 0x80 PUSH1 0x40 MLOAD PUSH2 0xD4C DUP2 PUSH2 0xED9 JUMP JUMPDEST CALLDATASIZE SWAP1 CALLDATACOPY PUSH1 0x40 MLOAD PUSH1 0x3 PUSH1 0x0 DUP3 JUMPDEST PUSH1 0x4 DUP3 LT PUSH2 0xD97 JUMPI DUP4 PUSH2 0xD6A DUP2 PUSH2 0xED9 JUMP JUMPDEST PUSH1 0x40 MLOAD SWAP1 PUSH1 0x0 SWAP1 DUP3 JUMPDEST PUSH1 0x4 DUP4 LT PUSH2 0xD80 JUMPI PUSH1 0x80 DUP5 RETURN JUMPDEST PUSH1 0x1 SWAP1 DUP3 MLOAD DUP2 MSTORE PUSH1 0x20 DUP1 SWAP2 ADD SWAP3 ADD SWAP3 ADD SWAP2 SWAP1 PUSH2 0xD73 JUMP JUMPDEST PUSH1 0x1 PUSH1 0x20 DUP2 SWAP3 DUP6 SLOAD DUP2 MSTORE ADD SWAP4 ADD SWAP2 ADD SWAP1 SWAP2 PUSH2 0xD58 JUMP JUMPDEST CALLVALUE PUSH2 0x2C2 JUMPI PUSH1 0x0 CALLDATASIZE PUSH1 0x3 NOT ADD SLT PUSH2 0x2C2 JUMPI PUSH1 0x20 SELFBALANCE PUSH1 0x40 MLOAD SWAP1 DUP2 MSTORE RETURN JUMPDEST CALLVALUE PUSH2 0x2C2 JUMPI PUSH1 0x0 CALLDATASIZE PUSH1 0x3 NOT ADD SLT PUSH2 0x2C2 JUMPI DUP1 PUSH7 0x38D7EA4C68000 PUSH1 0x20 SWAP3 MSTORE RETURN JUMPDEST PUSH1 0x4 CALLDATALOAD SWAP1 PUSH1 0x1 PUSH1 0x1 PUSH1 0xA0 SHL SUB DUP3 AND DUP3 SUB PUSH2 0x2C2 JUMPI JUMP JUMPDEST PUSH1 0x40 SWAP1 PUSH1 0x3 NOT ADD SLT PUSH2 0x2C2 JUMPI PUSH1 0x4 CALLDATALOAD SWAP1 PUSH1 0x24 CALLDATALOAD SWAP1 JUMP JUMPDEST PUSH1 0x60 SWAP1 PUSH1 0x3 NOT ADD SLT PUSH2 0x2C2 JUMPI PUSH1 0x4 CALLDATALOAD SWAP1 PUSH1 0x24 CALLDATALOAD SWAP1 PUSH1 0x44 CALLDATALOAD SWAP1 JUMP JUMPDEST DUP1 SLOAD DUP3 LT ISZERO PUSH2 0xE47 JUMPI PUSH1 0x0 MSTORE PUSH1 0x20 PUSH1 0x0 KECCAK256 ADD SWAP1 PUSH1 0x0 SWAP1 JUMP JUMPDEST PUSH4 0x4E487B71 PUSH1 0xE0 SHL PUSH1 0x0 MSTORE PUSH1 0x32 PUSH1 0x4 MSTORE PUSH1 0x24 PUSH1 0x0 REVERT JUMPDEST PUSH1 0x1 SLOAD PUSH1 0x1 PUSH1 0x1 PUSH1 0xA0 SHL SUB AND CALLER SUB PUSH2 0xE71 JUMPI JUMP JUMPDEST PUSH1 0x40 MLOAD PUSH4 0x118CDAA7 PUSH1 0xE0 SHL DUP2 MSTORE CALLER PUSH1 0x4 DUP3 ADD MSTORE PUSH1 0x24 SWAP1 REVERT JUMPDEST ISZERO PUSH2 0xE90 JUMPI JUMP JUMPDEST PUSH1 0x40 MLOAD PUSH3 0x461BCD PUSH1 0xE5 SHL DUP2 MSTORE PUSH1 0x20 PUSH1 0x4 DUP3 ADD MSTORE PUSH1 0x12 PUSH1 0x24 DUP3 ADD MSTORE PUSH18 0x13DB9B1E481B585A5B8818DBDB9D1C9858DD PUSH1 0x72 SHL PUSH1 0x44 DUP3 ADD MSTORE PUSH1 0x64 SWAP1 REVERT JUMPDEST PUSH1 0x0 NOT DUP2 EQ PUSH2 0xAB5 JUMPI PUSH1 0x1 ADD SWAP1 JUMP JUMPDEST PUSH1 0x80 DUP2 ADD SWAP1 DUP2 LT PUSH8 0xFFFFFFFFFFFFFFFF DUP3 GT OR PUSH2 0x650 JUMPI PUSH1 0x40 MSTORE JUMP JUMPDEST ISZERO PUSH2 0xEFC JUMPI JUMP JUMPDEST PUSH1 0x40 MLOAD PUSH3 0x461BCD PUSH1 0xE5 SHL DUP2 MSTORE PUSH1 0x20 PUSH1 0x4 DUP3 ADD MSTORE PUSH1 0xC PUSH1 0x24 DUP3 ADD MSTORE PUSH12 0x24B73B30B634B2103A34B2B9 PUSH1 0xA1 SHL PUSH1 0x44 DUP3 ADD MSTORE PUSH1 0x64 SWAP1 REVERT JUMPDEST DUP2 ISZERO PUSH2 0xF3A JUMPI DIV SWAP1 JUMP JUMPDEST PUSH4 0x4E487B71 PUSH1 0xE0 SHL PUSH1 0x0 MSTORE PUSH1 0x12 PUSH1 0x4 MSTORE PUSH1 0x24 PUSH1 0x0 REVERT JUMPDEST SWAP2 SWAP1 DUP3 SUB SWAP2 DUP3 GT PUSH2 0xAB5 JUMPI JUMP JUMPDEST SWAP2 SWAP1 DUP3 ADD DUP1 SWAP3 GT PUSH2 0xAB5 JUMPI JUMP JUMPDEST RETURNDATASIZE ISZERO PUSH2 0xFB0 JUMPI PUSH8 0xFFFFFFFFFFFFFFFF SWAP1 RETURNDATASIZE DUP3 DUP2 GT PUSH2 0x650 JUMPI PUSH1 0x40 MLOAD SWAP3 PUSH1 0x1F DUP3 ADD PUSH1 0x1F NOT SWAP1 DUP2 AND PUSH1 0x3F ADD AND DUP5 ADD SWAP1 DUP2 GT DUP5 DUP3 LT OR PUSH2 0x650 JUMPI PUSH1 0x40 MSTORE DUP3 MSTORE RETURNDATASIZE PUSH1 0x0 PUSH1 0x20 DUP5 ADD RETURNDATACOPY JUMP JUMPDEST PUSH1 0x60 SWAP1 JUMP JUMPDEST SWAP3 SWAP2 SWAP3 PUSH1 0x0 SWAP5 DUP3 DUP7 MSTORE PUSH1 0x80 PUSH1 0xA0 MSTORE PUSH1 0x20 PUSH1 0xA0 MLOAD MSTORE PUSH1 0x7 PUSH1 0x20 MSTORE PUSH1 0x40 SWAP2 DUP3 DUP8 KECCAK256 DUP2 DUP9 MSTORE PUSH1 0x20 MSTORE DUP3 DUP8 KECCAK256 SWAP6 PUSH1 0xFF DUP8 SLOAD AND ISZERO PUSH2 0x13F0 JUMPI PUSH1 0xFF PUSH1 0x6 DUP9 ADD SLOAD AND ISZERO PUSH2 0x1398 JUMPI PUSH1 0x5 DUP8 ADD SWAP1 DUP2 SLOAD DUP2 GT PUSH2 0x1390 JUMPI JUMPDEST POP SLOAD PUSH1 0x96 DUP2 MUL SWAP1 DUP1 DUP3 DIV PUSH1 0x96 EQ SWAP1 ISZERO OR ISZERO PUSH2 0x137C JUMPI PUSH1 0x64 SWAP1 DIV PUSH1 0x3 DUP8 ADD SWAP1 DUP2 SLOAD DUP1 DUP3 GT PUSH1 0x0 EQ PUSH2 0x1373 JUMPI PUSH2 0x1036 SWAP2 PUSH2 0xF50 JUMP JUMPDEST SWAP6 JUMPDEST DUP7 ISZERO PUSH2 0x1368 JUMPI PUSH2 0x1047 DUP7 PUSH2 0x144A JUMP JUMPDEST DUP6 DUP10 MSTORE PUSH1 0x9 PUSH1 0xA0 MLOAD MLOAD MSTORE PUSH1 0x2 DUP6 DUP11 KECCAK256 SWAP9 ADD SWAP8 DUP9 SLOAD SWAP3 PUSH1 0x1 DUP3 ADD SWAP4 DUP5 SLOAD GT ISZERO PUSH2 0x1330 JUMPI SWAP1 PUSH1 0x1 SWAP6 SWAP5 SWAP4 SWAP3 SWAP2 DUP9 DUP13 MSTORE PUSH1 0x7 PUSH1 0xA0 MLOAD MLOAD MSTORE DUP8 DUP13 KECCAK256 DUP6 DUP14 MSTORE PUSH1 0xA0 MLOAD MLOAD MSTORE PUSH2 0x10BC DUP13 DUP11 DUP11 DUP3 KECCAK256 SWAP2 MSTORE PUSH1 0x9 PUSH1 0xA0 MLOAD MLOAD MSTORE DUP14 DUP11 DUP2 KECCAK256 SWAP2 PUSH1 0x2 DUP2 ADD SLOAD SWAP2 POP DUP2 ISZERO PUSH1 0x0 EQ PUSH2 0x1327 JUMPI DUP11 SWAP2 POP ADD SLOAD SWAP9 DUP10 SWAP2 JUMPDEST ADD SLOAD PUSH2 0xF50 JUMP JUMPDEST SWAP11 DUP13 SWAP11 DUP14 JUMPDEST DUP14 DUP2 LT DUP1 PUSH2 0x131D JUMPI JUMPDEST ISZERO PUSH2 0x1180 JUMPI PUSH2 0x10D9 DUP2 DUP12 PUSH2 0xF5D JUMP JUMPDEST PUSH1 0x1 DUP2 ADD DUP1 SWAP2 GT PUSH2 0x116B JUMPI DUP16 DUP1 DUP15 SWAP3 DUP4 DUP16 SWAP4 MSTORE PUSH1 0x8 PUSH1 0xA0 MLOAD MLOAD MSTORE DUP3 DUP3 KECCAK256 DUP2 DUP4 MSTORE PUSH1 0xA0 MLOAD MLOAD MSTORE DUP3 DUP3 KECCAK256 SLOAD SWAP4 DUP3 MSTORE PUSH1 0xB PUSH1 0xA0 MLOAD MLOAD MSTORE DUP3 DUP3 KECCAK256 SWAP1 DUP3 MSTORE PUSH1 0xA0 MLOAD MLOAD MSTORE KECCAK256 SLOAD DUP2 ISZERO ISZERO DUP1 PUSH2 0x1162 JUMPI JUMPDEST PUSH2 0x1137 JUMPI JUMPDEST POP POP PUSH2 0x1132 SWAP1 PUSH2 0xECA JUMP JUMPDEST PUSH2 0x10C1 JUMP JUMPDEST SWAP1 PUSH2 0x1141 SWAP2 PUSH2 0xF30 JUMP JUMPDEST DUP1 PUSH2 0x114D JUMPI JUMPDEST DUP1 PUSH2 0x1127 JUMP JUMPDEST PUSH2 0x115B SWAP1 PUSH2 0x1132 SWAP3 SWAP15 PUSH2 0xF5D JUMP JUMPDEST SWAP13 SWAP1 PUSH2 0x1147 JUMP JUMPDEST POP DUP1 ISZERO ISZERO PUSH2 0x1122 JUMP JUMPDEST POP PUSH4 0x4E487B71 PUSH1 0xE0 SHL DUP16 MSTORE PUSH1 0x11 PUSH1 0x4 MSTORE PUSH1 0x24 DUP16 REVERT JUMPDEST POP SWAP2 SWAP4 SWAP6 SWAP10 SWAP11 SWAP12 POP SWAP2 SWAP4 SWAP7 POP SWAP11 SWAP5 SWAP11 DUP1 DUP12 GT PUSH2 0x1315 JUMPI JUMPDEST POP PUSH7 0x38D7EA4C68000 DUP11 LT PUSH2 0x1308 JUMPI DUP10 PUSH2 0x11B8 JUMPI JUMPDEST POP POP POP POP POP POP POP POP POP SWAP1 JUMP JUMPDEST DUP9 DUP6 MSTORE PUSH1 0xA PUSH1 0xA0 MLOAD MLOAD MSTORE DUP10 DUP8 DUP7 KECCAK256 SLOAD LT PUSH2 0x12CB JUMPI DUP9 DUP6 MSTORE PUSH1 0xA PUSH1 0xA0 MLOAD MLOAD MSTORE DUP7 DUP6 KECCAK256 PUSH2 0x11E4 DUP12 DUP3 SLOAD PUSH2 0xF50 JUMP JUMPDEST SWAP1 SSTORE DUP6 SLOAD PUSH1 0x0 NOT DUP2 ADD SWAP2 SWAP1 DUP3 GT PUSH2 0x12B7 JUMPI SWAP4 PUSH1 0x3 DUP7 SWAP6 SWAP5 DUP7 SWAP6 SWAP5 DUP14 SWAP5 DUP8 SWAP7 SSTORE PUSH2 0x120E DUP6 DUP3 SLOAD PUSH2 0xF5D JUMP JUMPDEST SWAP1 SSTORE ADD PUSH2 0x121C DUP4 DUP3 SLOAD PUSH2 0xF5D JUMP JUMPDEST SWAP1 SSTORE PUSH1 0x1 PUSH1 0x1 PUSH1 0xA0 SHL SUB AND GAS CALL PUSH2 0x1231 PUSH2 0xF6A JUMP JUMPDEST POP ISZERO PUSH2 0x127F JUMPI SLOAD SWAP1 MLOAD DUP5 DUP2 MSTORE PUSH1 0x20 DUP2 ADD SWAP2 SWAP1 SWAP2 MSTORE TIMESTAMP PUSH1 0x40 DUP3 ADD MSTORE PUSH32 0x780FBD8DDEBB574676643265B4C3BCC06217C87F4191C834587CD54002A4D268 SWAP1 PUSH1 0x60 SWAP1 LOG3 CODESIZE DUP1 DUP1 DUP1 DUP1 DUP1 DUP1 DUP1 DUP1 PUSH2 0x11AC JUMP JUMPDEST DUP2 MLOAD PUSH3 0x461BCD PUSH1 0xE5 SHL DUP2 MSTORE PUSH1 0xA0 MLOAD MLOAD PUSH1 0x4 DUP3 ADD MSTORE PUSH1 0xF PUSH1 0x24 DUP3 ADD MSTORE PUSH15 0x151C985B9CD9995C8819985A5B1959 PUSH1 0x8A SHL PUSH1 0x44 DUP3 ADD MSTORE PUSH1 0x64 SWAP1 REVERT JUMPDEST PUSH4 0x4E487B71 PUSH1 0xE0 SHL DUP7 MSTORE PUSH1 0x11 PUSH1 0x4 MSTORE PUSH1 0x24 DUP7 REVERT JUMPDEST DUP7 MLOAD PUSH3 0x461BCD PUSH1 0xE5 SHL DUP2 MSTORE PUSH1 0xA0 MLOAD MLOAD PUSH1 0x4 DUP3 ADD MSTORE PUSH1 0x14 PUSH1 0x24 DUP3 ADD MSTORE PUSH20 0x496E73756666696369656E742062616C616E6365 PUSH1 0x60 SHL PUSH1 0x44 DUP3 ADD MSTORE PUSH1 0x64 SWAP1 REVERT JUMPDEST POP POP POP POP SWAP5 POP POP POP POP POP SWAP1 JUMP JUMPDEST SWAP10 POP CODESIZE PUSH2 0x1197 JUMP JUMPDEST POP PUSH1 0xA DUP2 LT PUSH2 0x10CA JUMP JUMPDEST POP SWAP9 DUP10 SWAP2 PUSH2 0x10B5 JUMP JUMPDEST DUP7 MLOAD PUSH3 0x461BCD PUSH1 0xE5 SHL DUP2 MSTORE PUSH1 0xA0 MLOAD MLOAD PUSH1 0x4 DUP3 ADD MSTORE PUSH1 0xF PUSH1 0x24 DUP3 ADD MSTORE PUSH15 0x105B1C9958591E4818DB185A5B5959 PUSH1 0x8A SHL PUSH1 0x44 DUP3 ADD MSTORE PUSH1 0x64 SWAP1 REVERT JUMPDEST POP SWAP2 SWAP6 POP POP POP POP POP POP JUMP JUMPDEST POP POP DUP8 SWAP6 PUSH2 0x1038 JUMP JUMPDEST PUSH4 0x4E487B71 PUSH1 0xE0 SHL DUP9 MSTORE PUSH1 0x11 PUSH1 0x4 MSTORE PUSH1 0x24 DUP9 REVERT JUMPDEST DUP2 SSTORE CODESIZE PUSH2 0x1003 JUMP JUMPDEST DUP4 MLOAD PUSH3 0x461BCD PUSH1 0xE5 SHL DUP2 MSTORE PUSH1 0xA0 MLOAD MLOAD PUSH1 0x4 DUP3 ADD MSTORE PUSH1 0x29 PUSH1 0x24 DUP3 ADD MSTORE PUSH32 0x54696572206E6F7420616374697665202D20757067726164656420746F206869 PUSH1 0x44 DUP3 ADD MSTORE PUSH9 0x33B432B9103A34B2B9 PUSH1 0xB9 SHL PUSH1 0x64 DUP3 ADD MSTORE PUSH1 0x84 SWAP1 REVERT JUMPDEST DUP4 MLOAD PUSH3 0x461BCD PUSH1 0xE5 SHL DUP2 MSTORE PUSH1 0xA0 MLOAD MLOAD PUSH1 0x4 DUP3 ADD MSTORE PUSH1 0xE PUSH1 0x24 DUP3 ADD MSTORE PUSH14 0x139BDD081C9959DA5CDD195C9959 PUSH1 0x92 SHL PUSH1 0x44 DUP3 ADD MSTORE PUSH1 0x64 SWAP1 REVERT JUMPDEST PUSH1 0x2 PUSH1 0x0 SLOAD EQ PUSH2 0x1438 JUMPI PUSH1 0x2 PUSH1 0x0 SSTORE JUMP JUMPDEST PUSH1 0x40 MLOAD PUSH4 0x3EE5AEB5 PUSH1 0xE0 SHL DUP2 MSTORE PUSH1 0x4 SWAP1 REVERT JUMPDEST DUP1 PUSH1 0x0 MSTORE PUSH1 0x9 PUSH1 0x20 MSTORE PUSH1 0x40 PUSH1 0x0 KECCAK256 PUSH1 0x4 DUP2 ADD SWAP1 DUP2 SLOAD PUSH3 0x15180 DUP2 ADD DUP1 SWAP2 GT PUSH2 0xAB5 JUMPI TIMESTAMP LT ISZERO PUSH2 0x1478 JUMPI POP POP POP JUMP JUMPDEST PUSH32 0x238C5EAB9873AFABC63927A7A91AEC132F9F1AF26E6805E226922E215ED412B0 SWAP2 PUSH1 0x0 PUSH1 0x2 DUP4 PUSH1 0x1 PUSH1 0x40 SWAP6 ADD SWAP4 PUSH2 0x14B0 DUP6 SLOAD PUSH2 0xECA JUMP JUMPDEST DUP1 SWAP6 SSTORE TIMESTAMP SWAP1 SSTORE ADD SSTORE DUP2 MLOAD SWAP1 DUP2 MSTORE TIMESTAMP PUSH1 0x20 DUP3 ADD MSTORE LOG2 JUMP INVALID LOG2 PUSH5 0x6970667358 0x22 SLT KECCAK256 LOG2 DUP7 SELFBALANCE SLT 0xD3 JUMPI 0xE7 ADDRESS 0x23 0xAB 0xB1 0xE7 0xBB 0xCB PUSH2 0x4B10 SWAP11 PUSH10 0xCBD69A2A86D55FF2FA71 PUSH9 0x697364736F6C634300 ADDMOD EQ STOP CALLER "},"methodIdentifiers":{"DEFAULT_REFER_ADDRESS()":"aec81553","MAIN_CONTRACT()":"63b2a8ff","MIN_CLAIM()":"1cd2a05d","ROUND_DURATION()":"6641ea08","ROYALTY_LEVELS(uint256)":"83482d75","advanceRound(uint256)":"c781bd7a","claimRoyalty(uint256,uint256,uint256,uint256,uint256,address)":"c7403e1d","distributionQueue(uint256,uint256,uint256)":"95335398","emergencyWithdraw()":"db2e21bc","getPoolBalance(uint256)":"ed1375d5","getRoyaltyLevels()":"2d41b677","getTierStats(uint256)":"cbff9718","getTotalPoolBalance()":"233fc9a2","getUserRoyaltyData(uint256,uint256)":"81d7441c","owner()":"8da5cb5b","poolBalance(uint256)":"6a6d964e","registerUser(uint256,uint256,uint256)":"cde0acc2","renounceOwnership()":"715018a6","roundPoolAmount(uint256,uint256)":"7c42e107","setMainContract(address)":"3ded33bc","tierStats(uint256)":"e9a94540","transferOwnership(address)":"f2fde38b","userRoyalties(uint256,uint256)":"7efefc64"}}}}}