{"contracts/FiveDollarRide_BNB_Pure.sol":{"FiveDollarRide":{"abi":[{"inputs":[{"internalType":"address","name":"_feeReceiver","type":"address"},{"internalType":"address","name":"_royalty","type":"address"},{"internalType":"address","name":"_rootUserAddress","type":"address"},{"internalType":"uint256","name":"_rootUserId","type":"uint256"},{"internalType":"address","name":"_priceFeedAddress","type":"address"}],"stateMutability":"nonpayable","type":"constructor"},{"inputs":[{"internalType":"address","name":"owner","type":"address"}],"name":"OwnableInvalidOwner","type":"error"},{"inputs":[{"internalType":"address","name":"account","type":"address"}],"name":"OwnableUnauthorizedAccount","type":"error"},{"inputs":[],"name":"ReentrancyGuardReentrantCall","type":"error"},{"anonymous":false,"inputs":[{"indexed":false,"internalType":"uint256","name":"amount","type":"uint256"},{"indexed":false,"internalType":"uint256","name":"level","type":"uint256"},{"indexed":false,"internalType":"uint256","name":"timestamp","type":"uint256"}],"name":"AdminFeePaid","type":"event"},{"anonymous":false,"inputs":[{"indexed":false,"internalType":"bool","name":"enabled","type":"bool"},{"indexed":false,"internalType":"uint256","name":"timestamp","type":"uint256"}],"name":"AutoUpdateToggled","type":"event"},{"anonymous":false,"inputs":[{"indexed":false,"internalType":"uint256","name":"oldPrice","type":"uint256"},{"indexed":false,"internalType":"uint256","name":"newPrice","type":"uint256"},{"indexed":false,"internalType":"uint256","name":"timestamp","type":"uint256"}],"name":"BNBPriceUpdated","type":"event"},{"anonymous":false,"inputs":[{"indexed":true,"internalType":"address","name":"by","type":"address"},{"indexed":false,"internalType":"uint256","name":"timestamp","type":"uint256"}],"name":"ContractPaused","type":"event"},{"anonymous":false,"inputs":[{"indexed":true,"internalType":"address","name":"by","type":"address"},{"indexed":false,"internalType":"uint256","name":"timestamp","type":"uint256"}],"name":"ContractUnpaused","type":"event"},{"anonymous":false,"inputs":[{"indexed":false,"internalType":"uint256","name":"oldReferrer","type":"uint256"},{"indexed":false,"internalType":"uint256","name":"newReferrer","type":"uint256"},{"indexed":false,"internalType":"uint256","name":"timestamp","type":"uint256"}],"name":"FallbackReferrerUpdated","type":"event"},{"anonymous":false,"inputs":[{"indexed":true,"internalType":"uint256","name":"userId","type":"uint256"},{"indexed":true,"internalType":"uint256","name":"fromUser","type":"uint256"},{"indexed":false,"internalType":"uint256","name":"amount","type":"uint256"},{"indexed":false,"internalType":"string","name":"reason","type":"string"},{"indexed":false,"internalType":"uint256","name":"timestamp","type":"uint256"}],"name":"IncomeLost","type":"event"},{"anonymous":false,"inputs":[{"indexed":true,"internalType":"uint8","name":"level","type":"uint8"},{"indexed":false,"internalType":"uint256","name":"oldCost","type":"uint256"},{"indexed":false,"internalType":"uint256","name":"newCost","type":"uint256"},{"indexed":false,"internalType":"uint256","name":"timestamp","type":"uint256"}],"name":"LevelCostUpdated","type":"event"},{"anonymous":false,"inputs":[{"indexed":false,"internalType":"uint256","name":"oldPrice","type":"uint256"},{"indexed":false,"internalType":"uint256","name":"newPrice","type":"uint256"},{"indexed":false,"internalType":"uint256","name":"timestamp","type":"uint256"}],"name":"ManualPriceSet","type":"event"},{"anonymous":false,"inputs":[{"indexed":true,"internalType":"uint256","name":"fromUserId","type":"uint256"},{"indexed":true,"internalType":"uint256","name":"toUserId","type":"uint256"},{"indexed":false,"internalType":"uint256","name":"amount","type":"uint256"},{"indexed":false,"internalType":"uint256","name":"level","type":"uint256"},{"indexed":false,"internalType":"uint256","name":"layer","type":"uint256"},{"indexed":false,"internalType":"bool","name":"qualified","type":"bool"},{"indexed":false,"internalType":"uint256","name":"timestamp","type":"uint256"}],"name":"MatrixPayment","type":"event"},{"anonymous":false,"inputs":[{"indexed":false,"internalType":"uint8","name":"oldDepth","type":"uint8"},{"indexed":false,"internalType":"uint8","name":"newDepth","type":"uint8"},{"indexed":false,"internalType":"uint256","name":"timestamp","type":"uint256"}],"name":"MaxPlacementDepthUpdated","type":"event"},{"anonymous":false,"inputs":[{"indexed":false,"internalType":"bool","name":"paused","type":"bool"},{"indexed":false,"internalType":"uint256","name":"timestamp","type":"uint256"}],"name":"OraclePauseToggled","type":"event"},{"anonymous":false,"inputs":[{"indexed":true,"internalType":"address","name":"previousOwner","type":"address"},{"indexed":false,"internalType":"uint256","name":"timestamp","type":"uint256"}],"name":"OwnershipRenounced","type":"event"},{"anonymous":false,"inputs":[{"indexed":true,"internalType":"address","name":"previousOwner","type":"address"},{"indexed":true,"internalType":"address","name":"newOwner","type":"address"}],"name":"OwnershipTransferred","type":"event"},{"anonymous":false,"inputs":[{"indexed":false,"internalType":"uint256","name":"minPrice","type":"uint256"},{"indexed":false,"internalType":"uint256","name":"maxPrice","type":"uint256"},{"indexed":false,"internalType":"uint256","name":"timestamp","type":"uint256"}],"name":"PriceBoundsUpdated","type":"event"},{"anonymous":false,"inputs":[{"indexed":true,"internalType":"address","name":"newFeed","type":"address"},{"indexed":false,"internalType":"uint256","name":"timestamp","type":"uint256"}],"name":"PriceFeedUpdated","type":"event"},{"anonymous":false,"inputs":[{"indexed":false,"internalType":"string","name":"reason","type":"string"},{"indexed":false,"internalType":"uint256","name":"currentPrice","type":"uint256"},{"indexed":false,"internalType":"uint256","name":"timestamp","type":"uint256"}],"name":"PriceUpdateFailed","type":"event"},{"anonymous":false,"inputs":[{"indexed":true,"internalType":"uint256","name":"referrerId","type":"uint256"},{"indexed":true,"internalType":"uint256","name":"userId","type":"uint256"},{"indexed":false,"internalType":"uint256","name":"amount","type":"uint256"},{"indexed":false,"internalType":"uint256","name":"timestamp","type":"uint256"}],"name":"ReferralPayment","type":"event"},{"anonymous":false,"inputs":[{"indexed":false,"internalType":"uint256","name":"oldCooldown","type":"uint256"},{"indexed":false,"internalType":"uint256","name":"newCooldown","type":"uint256"},{"indexed":false,"internalType":"uint256","name":"timestamp","type":"uint256"}],"name":"RegistrationCooldownUpdated","type":"event"},{"anonymous":false,"inputs":[{"indexed":true,"internalType":"address","name":"user","type":"address"},{"indexed":false,"internalType":"uint256","name":"cooldownRemaining","type":"uint256"},{"indexed":false,"internalType":"uint256","name":"timestamp","type":"uint256"}],"name":"RegistrationRateLimited","type":"event"},{"anonymous":false,"inputs":[{"indexed":false,"internalType":"uint256","name":"amount","type":"uint256"},{"indexed":false,"internalType":"string","name":"source","type":"string"},{"indexed":false,"internalType":"uint256","name":"timestamp","type":"uint256"}],"name":"RootFallbackIncome","type":"event"},{"anonymous":false,"inputs":[{"indexed":true,"internalType":"uint256","name":"rootUserId","type":"uint256"},{"indexed":true,"internalType":"address","name":"rootAddress","type":"address"},{"indexed":false,"internalType":"uint256","name":"timestamp","type":"uint256"}],"name":"RootUserCreated","type":"event"},{"anonymous":false,"inputs":[{"indexed":true,"internalType":"uint256","name":"userId","type":"uint256"},{"indexed":true,"internalType":"uint256","name":"tier","type":"uint256"},{"indexed":false,"internalType":"uint256","name":"amount","type":"uint256"},{"indexed":false,"internalType":"uint256","name":"timestamp","type":"uint256"}],"name":"RoyaltyClaimed","type":"event"},{"anonymous":false,"inputs":[{"indexed":true,"internalType":"uint256","name":"userId","type":"uint256"},{"indexed":false,"internalType":"uint256","name":"amount","type":"uint256"},{"indexed":false,"internalType":"uint256","name":"timestamp","type":"uint256"}],"name":"RoyaltyPoolFunded","type":"event"},{"anonymous":false,"inputs":[{"indexed":true,"internalType":"uint256","name":"sponsorId","type":"uint256"},{"indexed":true,"internalType":"uint256","name":"fromUserId","type":"uint256"},{"indexed":false,"internalType":"uint256","name":"amount","type":"uint256"},{"indexed":false,"internalType":"uint256","name":"level","type":"uint256"},{"indexed":false,"internalType":"uint256","name":"timestamp","type":"uint256"}],"name":"SponsorCommissionPaid","type":"event"},{"anonymous":false,"inputs":[{"indexed":false,"internalType":"uint256","name":"newIntervalDays","type":"uint256"},{"indexed":false,"internalType":"uint256","name":"timestamp","type":"uint256"}],"name":"UpdateIntervalChanged","type":"event"},{"anonymous":false,"inputs":[{"indexed":true,"internalType":"uint256","name":"userId","type":"uint256"},{"indexed":true,"internalType":"address","name":"account","type":"address"},{"indexed":true,"internalType":"uint256","name":"referrer","type":"uint256"},{"indexed":false,"internalType":"uint256","name":"timestamp","type":"uint256"}],"name":"UserRegistered","type":"event"},{"anonymous":false,"inputs":[{"indexed":true,"internalType":"uint256","name":"userId","type":"uint256"},{"indexed":false,"internalType":"uint256","name":"newLevel","type":"uint256"},{"indexed":false,"internalType":"uint256","name":"amount","type":"uint256"},{"indexed":false,"internalType":"uint256","name":"timestamp","type":"uint256"}],"name":"UserUpgraded","type":"event"},{"inputs":[],"name":"ADMIN_FEE_PERCENT","outputs":[{"internalType":"uint8","name":"","type":"uint8"}],"stateMutability":"view","type":"function"},{"inputs":[],"name":"DIRECT_REQUIRED","outputs":[{"internalType":"uint256","name":"","type":"uint256"}],"stateMutability":"view","type":"function"},{"inputs":[],"name":"FEE_RECEIVER","outputs":[{"internalType":"address","name":"","type":"address"}],"stateMutability":"view","type":"function"},{"inputs":[],"name":"MAX_INCOME_LAYER","outputs":[{"internalType":"uint8","name":"","type":"uint8"}],"stateMutability":"view","type":"function"},{"inputs":[],"name":"MAX_LEVELS","outputs":[{"internalType":"uint8","name":"","type":"uint8"}],"stateMutability":"view","type":"function"},{"inputs":[],"name":"MAX_REFERRAL_LAYERS","outputs":[{"internalType":"uint256","name":"","type":"uint256"}],"stateMutability":"view","type":"function"},{"inputs":[],"name":"ROYALTY_ADDR","outputs":[{"internalType":"contract IRoyalty","name":"","type":"address"}],"stateMutability":"view","type":"function"},{"inputs":[],"name":"ROYALTY_FUND_PERCENT","outputs":[{"internalType":"uint8","name":"","type":"uint8"}],"stateMutability":"view","type":"function"},{"inputs":[],"name":"START_TIME","outputs":[{"internalType":"uint256","name":"","type":"uint256"}],"stateMutability":"view","type":"function"},{"inputs":[],"name":"autoUpdateEnabled","outputs":[{"internalType":"bool","name":"","type":"bool"}],"stateMutability":"view","type":"function"},{"inputs":[],"name":"bnbPrice","outputs":[{"internalType":"uint256","name":"","type":"uint256"}],"stateMutability":"view","type":"function"},{"inputs":[{"internalType":"uint256","name":"_tier","type":"uint256"}],"name":"claimMyRoyalty","outputs":[],"stateMutability":"nonpayable","type":"function"},{"inputs":[{"internalType":"uint256","name":"_tier","type":"uint256"}],"name":"claimRoyalty","outputs":[],"stateMutability":"nonpayable","type":"function"},{"inputs":[{"internalType":"uint256","name":"_id","type":"uint256"},{"internalType":"uint256","name":"_royaltyLvl","type":"uint256"}],"name":"claimRoyalty","outputs":[],"stateMutability":"nonpayable","type":"function"},{"inputs":[],"name":"fallbackReferrer","outputs":[{"internalType":"uint256","name":"","type":"uint256"}],"stateMutability":"view","type":"function"},{"inputs":[],"name":"getAllLevelCosts","outputs":[{"internalType":"uint256[13]","name":"costs","type":"uint256[13]"},{"internalType":"uint256[13]","name":"fees","type":"uint256[13]"},{"internalType":"uint256[13]","name":"totals","type":"uint256[13]"}],"stateMutability":"view","type":"function"},{"inputs":[],"name":"getContractBalance","outputs":[{"internalType":"uint256","name":"","type":"uint256"}],"stateMutability":"view","type":"function"},{"inputs":[],"name":"getLatestBNBPrice","outputs":[{"internalType":"uint256","name":"","type":"uint256"}],"stateMutability":"view","type":"function"},{"inputs":[{"internalType":"uint256","name":"_level","type":"uint256"}],"name":"getLevelCost","outputs":[{"internalType":"uint256","name":"","type":"uint256"}],"stateMutability":"view","type":"function"},{"inputs":[{"internalType":"uint256","name":"_level","type":"uint256"}],"name":"getLevelCostWithFee","outputs":[{"internalType":"uint256","name":"cost","type":"uint256"},{"internalType":"uint256","name":"adminFee","type":"uint256"},{"internalType":"uint256","name":"total","type":"uint256"}],"stateMutability":"view","type":"function"},{"inputs":[],"name":"getMyIncomeBreakdown","outputs":[{"internalType":"uint256","name":"totalDeposit","type":"uint256"},{"internalType":"uint256","name":"totalIncome","type":"uint256"},{"internalType":"uint256","name":"referralIncome","type":"uint256"},{"internalType":"uint256","name":"sponsorIncome","type":"uint256"},{"internalType":"uint256","name":"levelIncome","type":"uint256"},{"internalType":"uint256","name":"lostAmount","type":"uint256"}],"stateMutability":"view","type":"function"},{"inputs":[],"name":"getMyInfo","outputs":[{"internalType":"uint256","name":"userId","type":"uint256"},{"internalType":"uint256","name":"level","type":"uint256"},{"internalType":"uint256","name":"team","type":"uint256"},{"internalType":"uint256","name":"directTeam","type":"uint256"},{"internalType":"uint256","name":"totalIncome","type":"uint256"},{"internalType":"uint256","name":"referrerId","type":"uint256"},{"internalType":"uint256","name":"uplineId","type":"uint256"},{"internalType":"uint256","name":"registrationTime","type":"uint256"}],"stateMutability":"view","type":"function"},{"inputs":[],"name":"getMyRoyaltyStatus","outputs":[{"internalType":"uint256[4]","name":"claimableAmounts","type":"uint256[4]"},{"internalType":"bool[4]","name":"isEligible","type":"bool[4]"},{"internalType":"bool[4]","name":"hasClaimed","type":"bool[4]"}],"stateMutability":"view","type":"function"},{"inputs":[],"name":"getMyTeam","outputs":[{"internalType":"uint256","name":"teamSize","type":"uint256"},{"internalType":"uint256","name":"directCount","type":"uint256"},{"internalType":"uint256[]","name":"directReferralIds","type":"uint256[]"},{"internalType":"address[]","name":"directReferralAddresses","type":"address[]"}],"stateMutability":"view","type":"function"},{"inputs":[],"name":"getPriceStatus","outputs":[{"internalType":"uint256","name":"oraclePrice","type":"uint256"},{"internalType":"uint256","name":"storedPrice","type":"uint256"},{"internalType":"bool","name":"updateDue","type":"bool"},{"internalType":"uint256","name":"timeSinceUpdate","type":"uint256"}],"stateMutability":"view","type":"function"},{"inputs":[{"internalType":"uint256","name":"_userId","type":"uint256"}],"name":"getReferrerAddress","outputs":[{"internalType":"address","name":"","type":"address"}],"stateMutability":"view","type":"function"},{"inputs":[],"name":"getRegistrationCost","outputs":[{"internalType":"uint256","name":"cost","type":"uint256"},{"internalType":"uint256","name":"levelCost","type":"uint256"},{"internalType":"uint256","name":"adminFee","type":"uint256"}],"stateMutability":"view","type":"function"},{"inputs":[{"internalType":"uint256","name":"_tier","type":"uint256"}],"name":"getRoyaltyData","outputs":[{"internalType":"uint256","name":"claimableAmount","type":"uint256"},{"internalType":"bool","name":"isEligible","type":"bool"},{"internalType":"bool","name":"hasClaimed","type":"bool"}],"stateMutability":"view","type":"function"},{"inputs":[{"internalType":"address","name":"_user","type":"address"},{"internalType":"uint256","name":"_tier","type":"uint256"}],"name":"getRoyaltyDataByAddress","outputs":[{"internalType":"uint256","name":"claimableAmount","type":"uint256"},{"internalType":"bool","name":"isEligible","type":"bool"},{"internalType":"bool","name":"hasClaimed","type":"bool"}],"stateMutability":"view","type":"function"},{"inputs":[{"internalType":"uint256","name":"_tier","type":"uint256"}],"name":"getRoyaltyTierStats","outputs":[{"internalType":"uint256","name":"userCount","type":"uint256"},{"internalType":"uint256","name":"distributionRound","type":"uint256"},{"internalType":"uint256","name":"pendingUserCount","type":"uint256"}],"stateMutability":"view","type":"function"},{"inputs":[{"internalType":"uint256","name":"_levels","type":"uint256"}],"name":"getUpgradeCost","outputs":[{"internalType":"uint256","name":"totalCost","type":"uint256"},{"internalType":"uint256[]","name":"breakdown","type":"uint256[]"}],"stateMutability":"view","type":"function"},{"inputs":[{"internalType":"address","name":"_userAddress","type":"address"},{"internalType":"uint256","name":"_levels","type":"uint256"}],"name":"getUpgradeCostFor","outputs":[{"internalType":"uint256","name":"totalCost","type":"uint256"},{"internalType":"uint256[]","name":"breakdown","type":"uint256[]"}],"stateMutability":"view","type":"function"},{"inputs":[{"internalType":"uint256","name":"_userId","type":"uint256"}],"name":"getUserAccount","outputs":[{"internalType":"address","name":"","type":"address"}],"stateMutability":"view","type":"function"},{"inputs":[{"internalType":"address","name":"","type":"address"}],"name":"id","outputs":[{"internalType":"uint256","name":"","type":"uint256"}],"stateMutability":"view","type":"function"},{"inputs":[],"name":"initializeRoyalty","outputs":[],"stateMutability":"nonpayable","type":"function"},{"inputs":[],"name":"isAutonomous","outputs":[{"internalType":"bool","name":"","type":"bool"}],"stateMutability":"view","type":"function"},{"inputs":[],"name":"isPriceUpdateDue","outputs":[{"internalType":"bool","name":"","type":"bool"}],"stateMutability":"view","type":"function"},{"inputs":[{"internalType":"address","name":"_address","type":"address"}],"name":"isRegistered","outputs":[{"internalType":"bool","name":"","type":"bool"}],"stateMutability":"view","type":"function"},{"inputs":[],"name":"lastPriceUpdate","outputs":[{"internalType":"uint256","name":"","type":"uint256"}],"stateMutability":"view","type":"function"},{"inputs":[{"internalType":"address","name":"","type":"address"}],"name":"lastRegistrationTime","outputs":[{"internalType":"uint256","name":"","type":"uint256"}],"stateMutability":"view","type":"function"},{"inputs":[{"internalType":"uint256","name":"","type":"uint256"}],"name":"levelCosts","outputs":[{"internalType":"uint256","name":"","type":"uint256"}],"stateMutability":"view","type":"function"},{"inputs":[{"internalType":"uint256","name":"","type":"uint256"}],"name":"lostIncome","outputs":[{"internalType":"uint256","name":"","type":"uint256"}],"stateMutability":"view","type":"function"},{"inputs":[],"name":"manualPriceUpdate","outputs":[],"stateMutability":"nonpayable","type":"function"},{"inputs":[{"internalType":"uint256","name":"","type":"uint256"}],"name":"matrixDirect","outputs":[{"internalType":"uint256","name":"","type":"uint256"}],"stateMutability":"view","type":"function"},{"inputs":[],"name":"maxBNBPrice","outputs":[{"internalType":"uint256","name":"","type":"uint256"}],"stateMutability":"view","type":"function"},{"inputs":[],"name":"maxPlacementDepth","outputs":[{"internalType":"uint8","name":"","type":"uint8"}],"stateMutability":"view","type":"function"},{"inputs":[],"name":"minBNBPrice","outputs":[{"internalType":"uint256","name":"","type":"uint256"}],"stateMutability":"view","type":"function"},{"inputs":[],"name":"oraclePaused","outputs":[{"internalType":"bool","name":"","type":"bool"}],"stateMutability":"view","type":"function"},{"inputs":[],"name":"owner","outputs":[{"internalType":"address","name":"","type":"address"}],"stateMutability":"view","type":"function"},{"inputs":[],"name":"pauseContract","outputs":[],"stateMutability":"nonpayable","type":"function"},{"inputs":[],"name":"paused","outputs":[{"internalType":"bool","name":"","type":"bool"}],"stateMutability":"view","type":"function"},{"inputs":[],"name":"priceFeed","outputs":[{"internalType":"contract AggregatorV3Interface","name":"","type":"address"}],"stateMutability":"view","type":"function"},{"inputs":[],"name":"priceUpdateInterval","outputs":[{"internalType":"uint256","name":"","type":"uint256"}],"stateMutability":"view","type":"function"},{"inputs":[],"name":"recoverBNB","outputs":[],"stateMutability":"nonpayable","type":"function"},{"inputs":[{"internalType":"uint256","name":"_ref","type":"uint256"},{"internalType":"address","name":"_newAcc","type":"address"}],"name":"register","outputs":[],"stateMutability":"payable","type":"function"},{"inputs":[{"internalType":"address","name":"_referrerAddress","type":"address"}],"name":"registerMe","outputs":[],"stateMutability":"payable","type":"function"},{"inputs":[],"name":"registrationCooldown","outputs":[{"internalType":"uint256","name":"","type":"uint256"}],"stateMutability":"view","type":"function"},{"inputs":[],"name":"renounceOwnership","outputs":[],"stateMutability":"nonpayable","type":"function"},{"inputs":[{"internalType":"bool","name":"_enabled","type":"bool"}],"name":"setAutoUpdateEnabled","outputs":[],"stateMutability":"nonpayable","type":"function"},{"inputs":[{"internalType":"uint256","name":"_newFallback","type":"uint256"}],"name":"setFallbackReferrer","outputs":[],"stateMutability":"nonpayable","type":"function"},{"inputs":[{"internalType":"uint8","name":"_level","type":"uint8"},{"internalType":"uint256","name":"_newCost","type":"uint256"}],"name":"setLevelCost","outputs":[],"stateMutability":"nonpayable","type":"function"},{"inputs":[{"internalType":"uint256","name":"_level","type":"uint256"},{"internalType":"uint256","name":"_costUSD","type":"uint256"}],"name":"setLevelCostUSD","outputs":[],"stateMutability":"nonpayable","type":"function"},{"inputs":[{"internalType":"uint256","name":"_price","type":"uint256"}],"name":"setManualPrice","outputs":[],"stateMutability":"nonpayable","type":"function"},{"inputs":[{"internalType":"uint8","name":"_newDepth","type":"uint8"}],"name":"setMaxPlacementDepth","outputs":[],"stateMutability":"nonpayable","type":"function"},{"inputs":[{"internalType":"uint256","name":"_minPrice","type":"uint256"},{"internalType":"uint256","name":"_maxPrice","type":"uint256"}],"name":"setPriceBounds","outputs":[],"stateMutability":"nonpayable","type":"function"},{"inputs":[{"internalType":"address","name":"_priceFeedAddress","type":"address"}],"name":"setPriceFeed","outputs":[],"stateMutability":"nonpayable","type":"function"},{"inputs":[{"internalType":"uint256","name":"_cooldownSeconds","type":"uint256"}],"name":"setRegistrationCooldown","outputs":[],"stateMutability":"nonpayable","type":"function"},{"inputs":[{"internalType":"uint256","name":"_days","type":"uint256"}],"name":"setUpdateInterval","outputs":[],"stateMutability":"nonpayable","type":"function"},{"inputs":[{"internalType":"uint256","name":"","type":"uint256"},{"internalType":"uint256","name":"","type":"uint256"},{"internalType":"uint256","name":"","type":"uint256"}],"name":"teams","outputs":[{"internalType":"uint256","name":"","type":"uint256"}],"stateMutability":"view","type":"function"},{"inputs":[],"name":"toggleOraclePause","outputs":[],"stateMutability":"nonpayable","type":"function"},{"inputs":[],"name":"totalUsers","outputs":[{"internalType":"uint256","name":"","type":"uint256"}],"stateMutability":"view","type":"function"},{"inputs":[{"internalType":"address","name":"newOwner","type":"address"}],"name":"transferOwnership","outputs":[],"stateMutability":"nonpayable","type":"function"},{"inputs":[],"name":"unpauseContract","outputs":[],"stateMutability":"nonpayable","type":"function"},{"inputs":[{"internalType":"uint256","name":"_price","type":"uint256"}],"name":"updateBNBPrice","outputs":[],"stateMutability":"nonpayable","type":"function"},{"inputs":[{"internalType":"uint256","name":"_id","type":"uint256"},{"internalType":"uint256","name":"_lvls","type":"uint256"}],"name":"upgrade","outputs":[],"stateMutability":"payable","type":"function"},{"inputs":[{"internalType":"uint256","name":"_levels","type":"uint256"}],"name":"upgradeMe","outputs":[],"stateMutability":"payable","type":"function"},{"inputs":[{"internalType":"uint256","name":"","type":"uint256"}],"name":"userIncome","outputs":[{"internalType":"uint256","name":"totalDeposit","type":"uint256"},{"internalType":"uint256","name":"totalIncome","type":"uint256"},{"internalType":"uint256","name":"referralIncome","type":"uint256"},{"internalType":"uint256","name":"sponsorIncome","type":"uint256"},{"internalType":"uint256","name":"levelIncome","type":"uint256"}],"stateMutability":"view","type":"function"},{"inputs":[{"internalType":"uint256","name":"","type":"uint256"}],"name":"userInfo","outputs":[{"internalType":"bool","name":"exists","type":"bool"},{"internalType":"address","name":"account","type":"address"},{"internalType":"uint256","name":"referrer","type":"uint256"},{"internalType":"uint256","name":"upline","type":"uint256"},{"internalType":"uint256","name":"level","type":"uint256"},{"internalType":"uint256","name":"directTeam","type":"uint256"},{"internalType":"uint256","name":"team","type":"uint256"},{"internalType":"uint256","name":"registrationTime","type":"uint256"}],"stateMutability":"view","type":"function"},{"stateMutability":"payable","type":"receive"}],"evm":{"bytecode":{"linkReferences":{},"object":"610100346200069557601f62005ac138819003918201601f19168301916001600160401b03831184841017620005075780849260a09460405283398101031262000695576200004e816200069a565b906200005d602082016200069a565b6200006b604083016200069a565b926200007f6080606085015194016200069a565b93600160005533156200067c57600154336001600160a01b03821660008051602062005aa1833981519152600080a36001600160a81b0319163360ff60a01b191617601960a21b176001908155610e106004556830f3a473b371bc000060065562093a806007556009805460ff19169091179055670de0b6b3a7640000600a5569152d02c7e14af6800000600b55604051926001600160401b036101a085019081119085111762000507576101a08401604052674563918244f400008085526020850152678ac7230489e8000060408501526801158e460913d00000606085015268022b1c8c1227a0000060808501526804563918244f40000060a08501526808ac7230489e80000060c0850152681158e460913d00000060e0850152610100936822b1c8c1227a00000085820152684563918244f4000000610120820152688ac7230489e80000006101408201526901158e460913d000000061016082015269022b1c8c1227a000000061018082015260005b600d81106200065d5750506001600160a01b0383161562000618576001600160a01b0316908115620005e1576001600160a01b03169485156200059c57841562000557576001600160a01b03169182156200051d5760805260a0528260c0524260e05260018060a01b031960055416176005554260085581601b5582600052601c6020528160406000205560405190810181811060018060401b03821117620005075760405260018152600660208201848152604083018481526060840185815260808501600d815260a08601916000835260c08701936000855260e088019542875289600052601d6020526040600020985115159060ff8a5491610100600160a81b03905160081b1692169060018060a81b03191617178855516001880155516002870155516003860155516004850155516005840155519101556040519060a082019082821060018060401b0383111762000507576004916040526000835260208301600081526040840160008152606085019160008352608086019360008552600052601e6020526040600020955186555160018601555160028501555160038401555191015560c0516023546801000000000000000081101562000507576001810180602355811015620004f15781906023600052602060002001556001601a55806002557fccf9e170264f78923037f9d4f09c5eb756fcb20f871f02dcedb45f500d77b9886020604051428152a360405133600060008051602062005aa18339815191528180a36153f19081620006b08239608051818181610b36015281816112c801528181612dab0152614213015260a05181818161077e015281816107e001528181610abf015281816117b70152818161188401528181611b9b015281816123bc01528181612a8701528181612ae901528181612d3a01528181612f7e0152818161417c01528181614f5b015281816150d801526151b4015260c05181818161146b01528181611b430152818161203c0152818161237201528181612f45015281816142c30152614a9a015260e05181610fad0152f35b634e487b7160e01b600052603260045260246000fd5b634e487b7160e01b600052604160045260246000fd5b60405162461bcd60e51b8152602060048201526012602482015271125b9d985b1a59081c1c9a58d9481999595960721b6044820152606490fd5b60405162461bcd60e51b815260206004820152601460248201527f496e76616c696420726f6f7420757365722049440000000000000000000000006044820152606490fd5b60405162461bcd60e51b815260206004820152601460248201527f496e76616c696420726f6f7420616464726573730000000000000000000000006044820152606490fd5b60405162461bcd60e51b815260206004820152600f60248201526e496e76616c696420726f79616c747960881b6044820152606490fd5b60405162461bcd60e51b815260206004820152601460248201527f496e76616c6964206665652072656365697665720000000000000000000000006044820152606490fd5b81516001600160501b0316600c820155602090910190600101620001f3565b604051631e4fbdf760e01b815260006004820152602490fd5b600080fd5b51906001600160a01b0382168203620006955756fe608080604052600436101561001d575b50361561001b57600080fd5b005b600090813560e01c9081630e1bc0ee146137ac5750806317d031a31461373957806317f1a9311461366c57806319b9dfb5146135bb5780631daa8ae21461359d57806321d178fb146132fd5780632233a830146132d35780632b6e4da0146132b45780632d8ae549146132645780633586cd141461324157806339b8616514613129578063437f6e2314612f2a578063439766ce14612e96578063451450ec146127e75780634a429d12146127a75780634bf96a88146121e75780634cd2b1ea146125bf578063504e47301461259c57806351d70bc414612518578063576dde12146124fa5780635aabf7f1146124a65780635c0c900b146122e55780635c975abb146122c25780635d7d6342146122615780635ffde7be146122435780636266a380146121ec5780636702c7bf146121e75780636949faeb146121c9578063697d2428146121ad5780636bfdf8a0146120f65780636c0c0a5c146120d85780636dc76a73146120af5780636f9fb98a146120935780636fa6e58a14611fce5780637124c68314611f01578063715018a614611e72578063724e78da14611df6578063741bef1a14611dcd57806376ed7f0e14611d6d5780637706ba5214611d47578063790bd58414611d295780637daa10ce14611cdb5780637e06a01f14611caa5780637f6e8cbf14611c71578063806d73be14611abe57806382ee173e14611a4257806388afbe3e14611a195780638955defb146119e05780638da5cb5b146119b75780638e69d19d146119385780639c8c3e80146118b35780639d7206521461186e5780639d89968e14611771578063a65ff74c14611732578063a737865014611663578063aafb980014611647578063b33712c5146115ba578063bfca1cd0146112f7578063bff1f9e11461159c578063c3c5a54714611561578063cb56e632146114b5578063d0ac2596146112fc578063d3d50d95146112f7578063d3e78e4d146112b2578063d7a71868146111e7578063dbbdf08314610fd0578063ddaa26ad14610f95578063e649f37814610f70578063e6bb42d814610e84578063ec09306e14610e60578063ecef6cff14610e14578063f12c860a14610d25578063f28d3d5e14610cfb578063f2fde38b14610c63578063f343432c14610c45578063fb2ddd70146104b5578063fdc611811461047f5763ff329e7c0361000f573461047c57602036600319011261047c5760043590338152601c60205260408120546103ad811515613f63565b8152601d60205260036040822001546103d2600d6103cb8584613bef565b1115613e56565b6103db83614aea565b928280925b82841061040957858561040560405192839283526040602084015260408301906138db565b0390f35b909192936104178583613bef565b6000198101908111610468576104609161044861043661045a93613af6565b606461044182613a94565b0490613bef565b9081610454898b614b1c565b52613bef565b94613cbd565b9291906103e0565b634e487b7160e01b84526011600452602484fd5b80fd5b503461047c57602036600319011261047c576020906004358152601d8252604060018060a01b0391205460081c16604051908152f35b50602036600319011261047c576104ca613dba565b6104d960ff6019541615613b32565b338152601c6020526040812054906104f2821515613f63565b818152601d6020526040812054610519903360089190911c6001600160a01b031614613e1b565b818152601d602052610539600d6103cb6004356003604086200154613bef565b8081925b6004358410610bf95782935061055582341015613e96565b82905b6004358210610594575050803411610573575b506001905580f35b8180610580819334613d6d565b335af15061058c613d7a565b50803861056b565b80919352601d6020526105ae836003604087200154613bef565b80600019810111610be5576105c69060001901613af6565b60646105d182613a94565b04828652601d602052600360408720016105eb8154613cbd565b9055828652601e60205260408620610604838254613bef565b905580610b2c575b50606461061882613a94565b049384610ab5575b61062a828461438d565b94838752601d60205260036040882001549586600019810111610aa1579061065191613d6d565b6000848152601d602052604081206002015481905b89600d831080610a98575b15610a8f575080600052601d60205260406000206000198a0160038201541180610a80575b156109a7575080919250600052601d60205260008080808660018060a01b03604083205460081c165af16106c8613d7a565b501561092f5780600052601e60205260046040600020016106ea848254613bef565b905580600052601e6020526001604060002001610708848254613bef565b905560019160018101811161091957604080518581526000199a909a0160208b01526001918201908a015260608901524260808901528897869060008051602061539c8339815191529060a090a35b1580610910575b6108d5575b50828552601d602052604085206003810154600490910154907f00000000000000000000000000000000000000000000000000000000000000006001600160a01b03163b156108d1576040516366f0566160e11b815260048101869052602481019190915260448101919091528581606481836001600160a01b037f0000000000000000000000000000000000000000000000000000000000000000165af180156108c657849187916108ab575b506108a593827f430828e9e608608c6f34402a3bbf7ccff1cd71ac750c401a12c72e4578350f969252601d60205260036040892001549061086a6040519283924291846040919493926060820195825260208201520152565b0390a2828552601d6020526108a060036040872001546040519061088d8261397d565b8582526020820152426040820152613ccc565b613cbd565b90610558565b6108b6919250613953565b6108c257828538610811565b8480fd5b6040513d88823e3d90fd5b8680fd5b60405161090a916108e582613999565b60138252721b585d1c9a5e17db9bd7dc5d585b1a599a5959606a1b60208301526142c1565b38610763565b5080151561075e565b634e487b7160e01b600052601160045260246000fd5b5050945082600052601d60205260008080808860018060a01b03604083205460081c165af161095c613d7a565b501561096b5785946001610757565b60405162461bcd60e51b815260206004820152601460248201527313585d1c9a5e081c99599d5b990819985a5b195960621b6044820152606490fd5b5460ff166109d0575b600052601d6020526109ca60026040600020015491613cbd565b90610666565b60018201821161091957604080518581526000198b0160208201526001840191810191909152600060608201524260808201528190889060008051602061539c8339815191529060a090a386817f587d8f9cc4f7ae2f12f916b8ac03ac5414969dfaf447b84acbb1e2b171cb7eb260a0604051888152601860608060208401528201527709cdee840e2eac2d8d2ccd2cac840ccdee440dac2e8e4d2f60431b6080820152426040820152a36109b0565b50600260048201541015610696565b98505050610757565b50811515610671565b634e487b7160e01b88526011600452602488fd5b610af786808080897f00000000000000000000000000000000000000000000000000000000000000006001600160a01b03165af1610af1613d7a565b50613f17565b827fb74a7140ef81c80d0e213846b7b10b59f9c366b463e36e1f98bf00ef44c670b460408051888152426020820152a2610620565b610b6e86808080857f00000000000000000000000000000000000000000000000000000000000000006001600160a01b03165af1610b68613d7a565b50613ed5565b828652601d60205260036040872001549081600019810111610bd1576040805191825260001992909201602082015242918101919091527fedd09f264659ce99b52fd2a2d4f09e551eb001fe3fc56ffd5704fc1f402bc21190606090a13861060c565b634e487b7160e01b87526011600452602487fd5b634e487b7160e01b85526011600452602485fd5b90818352601d602052610c13846003604086200154613bef565b600019810190811161046857610c3e91610c32610436610c3893613af6565b90613bef565b93613cbd565b929061053d565b503461047c578060031936011261047c576020600454604051908152f35b503461047c57602036600319011261047c57610c7d6138c5565b610c85613a2c565b610c8d613a2c565b6001600160a01b03908116908115610ce257600154826bffffffffffffffffffffffff60a01b821617600155167f8be0079c531659141344cd1fd0a4f28419497f9722a3daafe3b4186f6b6457e0600080a380f35b604051631e4fbdf760e01b815260048101849052602490fd5b503461047c578060031936011261047c576001546040516001600160a01b03909116158152602090f35b503461047c57604036600319011261047c57610d3f6138c5565b6001600160a01b03168152601c6020526040812054602490813590610d65811515613f63565b8352601d602052600360408420015490610d84600d6103cb8385613bef565b610d8d81614aea565b93809381935b838510610db857868661040560405192839283526040602084015260408301906138db565b9091929394610dc78683613bef565b6000198101908111610e0157610df891610de6610436610df293613af6565b90816104548a8c614b1c565b95613cbd565b93929190610d93565b634e487b7160e01b855260116004528385fd5b503461047c578060031936011261047c576080610e2f615217565b600654610e3a615386565b610e4660085442613d6d565b916040519384526020840152151560408301526060820152f35b503461047c578060031936011261047c57602060ff60015460a01c16604051908152f35b503461047c578060031936011261047c57604051610ea1816139b5565b6101a0918236833760405192610eb6846139b5565b8036853760405191610ec7836139b5565b813684375b600d8110610f03575090610ef66104e094610f0193610eee604051809761392b565b85019061392b565b61034083019061392b565bf35b80610f10610f6b92613af6565b610f1a8287614cf3565b526064610f30610f2a8388614cf3565b51613a94565b04610f3b8288614cf3565b52610f5b610f498287614cf3565b51610f548389614cf3565b5190613bef565b610f658286614cf3565b52613cbd565b610ecc565b503461047c578060031936011261047c576020610f8b615386565b6040519015158152f35b503461047c578060031936011261047c5760206040517f00000000000000000000000000000000000000000000000000000000000000008152f35b50604036600319011261047c57602435906001600160a01b0382166004358184036111e257610ffd613dba565b61100c60ff6019541615613b32565b80828452602091601c8352611025604086205415613b70565b611030841515613bb1565b83855260038352604085205480611185575b5083855260038352426040862055801590811561116f575b50611166575b611068613aca565b92606461107485613a94565b0461107f8186613bef565b9461108c86341015613bfc565b601b549760018901809911610aa157926110fd611157969386936110c8858d996001998e9f8f60409082601b558a8152601c8d5220558b61486b565b6110d188613c40565b6110dc601a54613cbd565b601a55878b52601e865260408b206110f5828254613bef565b905587613fee565b61110782866149f9565b61111085614c6f565b847f19871a311455a6a311f1a6dcef0dc6478acccea5a81b0bafe39d188d098efaf384604051428152a4604051926111478461397d565b8352820152426040820152613ccc565b80341161057357506001905580f35b50600254611060565b855250601d8252604084205460ff16153861105a565b60045461119191613bef565b421061119d5738611042565b60405162461bcd60e51b815260048101849052601c60248201527f526567697374726174696f6e20636f6f6c646f776e20616374697665000000006044820152606490fd5b600080fd5b503461047c57602036600319011261047c57600435611204613a2c565b600a54811015806112a6575b1561126b577f31153501178701e5a0635ccbb27182b8b2da7df2576d99d2b5cd7ff4a2fdc564906006549080600655426008556112656040519283924291846040919493926060820195825260208201520152565b0390a180f35b60405162461bcd60e51b81526020600482015260136024820152725072696365206f7574206f6620626f756e647360681b6044820152606490fd5b50600b54811115611210565b503461047c578060031936011261047c576040517f00000000000000000000000000000000000000000000000000000000000000006001600160a01b03168152602090f35b61390f565b506020908160031936011261047c576113136138c5565b61131b613dba565b61132a60ff6019541615613b32565b6001600160a01b0316806114a55750805b80338352601c8452611351604084205415613b70565b61135c331515613bb1565b801590811561148f575b50611468575b611374613aca565b92606461138085613a94565b049161138c8386613bef565b9261139984341015613bfc565b601b5495600187018097116114545792869261140860019361115796899a601b55338a52601c85528660408b20556113d38480338a61486b565b6113dc87613c40565b6113e7601a54613cbd565b601a55868a52601e855260408a20611400828254613bef565b905586613fee565b61141281856149f9565b61141b84614c6f565b604051428152847f19871a311455a6a311f1a6dcef0dc6478acccea5a81b0bafe39d188d098efaf3843393a4604051926111478461397d565b634e487b7160e01b86526011600452602486fd5b507f000000000000000000000000000000000000000000000000000000000000000061136c565b835250601d8352604082205460ff161538611366565b8152601c8252604081205461133b565b503461047c57602036600319011261047c576004356114d2613a2c565b620151808111611528577f15f4327e5ba6f6a8870d2af8e964a8ebb59ccdfbe26c3ad667762e74dfd3a5b49060045490806004556112656040519283924291846040919493926060820195825260208201520152565b60405162461bcd60e51b8152602060048201526011602482015270436f6f6c646f776e20746f6f206c6f6e6760781b6044820152606490fd5b503461047c57602036600319011261047c576020906040906001600160a01b036115896138c5565b168152601c835220541515604051908152f35b503461047c578060031936011261047c576020601a54604051908152f35b503461047c578060031936011261047c576115d3613a2c565b60195460ff8116156116155760ff19166019556040514281527f107553d8191d85b405879cf752997865edd48d94e20bda4dd27223c94b31a7cc60203392a280f35b60405162461bcd60e51b815260206004820152600a602482015269139bdd081c185d5cd95960b21b6044820152606490fd5b503461047c578060031936011261047c57602060405160028152f35b503461047c576116723661383b565b9061167b613a2c565b600d811061168881613a58565b82156116fe57156116ea5760ff816116e47f01160ded273713b62692b83f3f861bfef99579eaf0440d7a22d838a3d163922e93600c01858154915560405193849316954291846040919493926060820195825260208201520152565b0390a280f35b634e487b7160e01b83526032600452602483fd5b60405162461bcd60e51b815260206004820152600c60248201526b125b9d985b1a590818dbdcdd60a21b6044820152606490fd5b503461047c57602036600319011261047c5761040561175260043561508b565b6040805193845291151560208401521515908201529081906060820190565b503461047c57602036600319011261047c57600435600a81101580611863575b61179a90615050565b60405163197ff2e360e31b815260048101919091526060816024817f00000000000000000000000000000000000000000000000000000000000000006001600160a01b03165afa8015611858578291838092611814575b505061040590604051938493846040919493926060820195825260208201520152565b92509250506060823d8211611850575b8161183160609383613a0a565b8101031261047c575080516020820151604090920151610405386117f1565b3d9150611824565b6040513d84823e3d90fd5b50600d811115611791565b503461047c578060031936011261047c576040517f00000000000000000000000000000000000000000000000000000000000000006001600160a01b03168152602090f35b503461047c578060031936011261047c576118cc614dc7565b916118f36040959295519586958652602092838701526080604087015260808601906138db565b9084820360608601528080855193848152019401925b82811061191857505050500390f35b83516001600160a01b031685528695509381019392810192600101611909565b503461047c578060031936011261047c57611951613a2c565b6001805460ff60a81b19811660a891821c60ff90811615831b60ff60a81b169190911792839055604080519390921c16151582524260208301527fd6d5541f24eeda38e8e8c51d930c6d7c5a2fdbc492c923cdb0ad0fb12c7f4649919081908101611265565b503461047c578060031936011261047c576001546040516001600160a01b039091168152602090f35b503461047c57602036600319011261047c576020906040906001600160a01b03611a086138c5565b168152601c83522054604051908152f35b503461047c57602036600319011261047c57604060209160043581528280522054604051908152f35b503461047c57602036600319011261047c57600435801515808203611aba577fff35ad813afce2410ae4c6035f1b3e69c6bb092be9b83fbed11d38074a5623bb9161126591611a8f613a2c565b60ff801960095416911617600955604051918291429083602090939291936040810194151581520152565b8280fd5b503461047c57611acd3661383b565b90611ad6613dba565b80151580611c5b575b611ae890613ddd565b8083526020601d815260018060a01b03611b0c81604087205460081c163314613e1b565b828552601e8252604080862060018101549054601d855282882054925163c7403e1d60e01b815260048101879052602481018890527f000000000000000000000000000000000000000000000000000000000000000060448201526064810192909252608482015260089190911c82166001600160a01b031660a4820152908290829081888160c481015b03927f0000000000000000000000000000000000000000000000000000000000000000165af1908115611c50578591611c03575b506040907fb64f1f8f03ee84ec0cfb24d1299d6ce9ef6d58ea0787053de092ec3f8b14255c9282519182524290820152a36001815580f35b90508181813d8311611c49575b611c1a8183613a0a565b810103126111e257517fb64f1f8f03ee84ec0cfb24d1299d6ce9ef6d58ea0787053de092ec3f8b14255c611bcb565b503d611c10565b6040513d87823e3d90fd5b50808352601d602052604083205460ff16611adf565b503461047c57602036600319011261047c576020906040906001600160a01b03611c996138c5565b168152600383522054604051908152f35b503461047c57602036600319011261047c57600435600d811015611cd757602090600c0154604051908152f35b5080fd5b503461047c578060031936011261047c57610100611cf7614d04565b95604095919594929451978852602088015260408701526060860152608085015260a084015260c083015260e0820152f35b503461047c578060031936011261047c576020600a54604051908152f35b503461047c578060031936011261047c57602060ff60015460a81c166040519015158152f35b503461047c57602036600319011261047c57611d96600435611d91600d8210613a58565b613af6565b6064611da182613a94565b0490610405611db08383613bef565b604051938493846040919493926060820195825260208201520152565b503461047c578060031936011261047c576005546040516001600160a01b039091168152602090f35b503461047c57602036600319011261047c57611e106138c5565b611e18613a2c565b6001600160a01b0316611e2c811515613bb1565b806bffffffffffffffffffffffff60a01b60055416176005557fbb8d41c9907e8134230337c55faebd82117f5d9b99da1ac1667fa3fe7786b4656020604051428152a280f35b503461047c578060031936011261047c57611e8b613a2c565b600060015460018060a01b03811690817f656ba3c6830b11142778bbcfaff90d2ecc89186277667c2ce8700e4697ddccc26020604051428152a2611ecd613a2c565b6001600160a01b0319166001557f8be0079c531659141344cd1fd0a4f28419497f9722a3daafe3b4186f6b6457e08280a380f35b503461047c57602036600319011261047c57600435611f1e613a2c565b8015801580611fc2575b15611f8a57620151809081830291838304141715611f7657600755604080519182524260208301527f906b7c716abe77ce683d8fb36d3428d70d84ae296249efe4691b95ebe3242a8891a180f35b634e487b7160e01b83526011600452602483fd5b60405162461bcd60e51b815260206004820152601060248201526f125b9d985b1a59081a5b9d195c9d985b60821b6044820152606490fd5b5061016d821115611f28565b503461047c57602080600319360112611cd75760043590611fed613dba565b338352601c8152604083205490612005821515613f63565b818452601e8152604080852060018101549054601d845282872054925163c7403e1d60e01b815260048101869052602481018790527f000000000000000000000000000000000000000000000000000000000000000060448201526064810192909252608482015260089190911c6001600160a01b0390811660a48301528290829081888160c48101611b97565b503461047c578060031936011261047c57602047604051908152f35b503461047c57604036600319011261047c576104056117526120cf6138c5565b6024359061515c565b503461047c578060031936011261047c576020600254604051908152f35b503461047c578060031936011261047c5761210f613a2c565b4780156121745760015482918291829182916001600160a01b03165af1612134613d7a565b501561213d5780f35b60405162461bcd60e51b815260206004820152600f60248201526e151c985b9cd9995c8819985a5b1959608a1b6044820152606490fd5b60405162461bcd60e51b8152602060048201526011602482015270273790212721103a37903932b1b7bb32b960791b6044820152606490fd5b503461047c578060031936011261047c57602060405160018152f35b503461047c578060031936011261047c576020600854604051908152f35b613851565b503461047c57602036600319011261047c57604060a0916004358152601e60205220805490600181015490600281015460046003830154920154926040519485526020850152604084015260608301526080820152f35b503461047c578060031936011261047c576020600754604051908152f35b503461047c578060031936011261047c5761227a614f06565b60405190939092835b600483106122ab5761018085610f01886122a0608084018961389b565b61010083019061389b565b600190825181526020809101920192019190612283565b503461047c578060031936011261047c57602060ff601954166040519015158152f35b503461047c57602080600319360112611cd75760043590612304613dba565b61231360ff6019541615613b32565b600a8210158061249b575b61232790615050565b338352601c81526123b7604084205491612342831515613f63565b828552601e815260408086208054600190910154915163c7403e1d60e01b815260048101869052602481018790527f00000000000000000000000000000000000000000000000000000000000000006044820152606481019290925260848201523360a48201529181908390819060c4820190565b0381887f00000000000000000000000000000000000000000000000000000000000000006001600160a01b03165af1918215611c5057859261246c575b508115612432577fb64f1f8f03ee84ec0cfb24d1299d6ce9ef6d58ea0787053de092ec3f8b14255c9160409182519182524290820152a36001815580f35b6064906040519062461bcd60e51b8252600482015260136024820152724e6f20726f79616c747920746f20636c61696d60681b6044820152fd5b9080925081813d8311612494575b6124848183613a0a565b810103126111e2575190386123f4565b503d61247a565b50600d82111561231e565b503461047c57606036600319011261047c57604435906004358152601f6020526040812060243582526020526040812090815483101561047c5760206124ec848461386d565b90546040519160031b1c8152f35b503461047c578060031936011261047c576020600654604051908152f35b503461047c57602036600319011261047c576040610100916004358152601d602052208054906001810154906002810154600382015460048301549160066005850154940154946040519660ff81161515885260018060a01b039060081c16602088015260408701526060860152608085015260a084015260c083015260e0820152f35b503461047c578060031936011261047c5760206125b7615217565b604051908152f35b503461047c578060031936011261047c576125d8613a2c565b600654604051630504e47360e41b8152602091908281600481305afa849181612778575b506126a857506001918360033d11612698575b6308c379a01461262f575b50506126235780f35b604051903d90823e3d90fd5b612637615317565b9081612644575b5061261a565b7ff8917a6ec5e05f17a23c4cc821ca4e4c6d52fab4dcb57f8667d6d078775b836f9293509061268391859460405193849360608552606085019061425f565b918301524260408301520390a138808061263e565b50600484803e835160e01c61260f565b91600a548310158061276c575b156127075750817f2f363fd6fef1150caee78effeb98f6b9e03526dac46804b86a5f5f23909e840d92600655426008556112656040519283924291846040919493926060820195825260208201520152565b6040516060808252601390820152725072696365206f7574206f6620626f756e647360681b60808201527ff8917a6ec5e05f17a23c4cc821ca4e4c6d52fab4dcb57f8667d6d078775b836f93509182919060a08301918301524260408301520390a180f35b50600b548311156126b5565b9091508381813d83116127a0575b6127908183613a0a565b810103126111e2575190386125fc565b503d612786565b503461047c578060031936011261047c5760c06127c2614d6f565b93604093919351958652602086015260408501526060840152608083015260a0820152f35b506127f13661383b565b6127fc929192613dba565b61280b60ff6019541615613b32565b82151580612e80575b61282090939193613ddd565b808252601d6020526040822054612847903360089190911c6001600160a01b031614613e1b565b808252601d602052612865600d6103cb856003604087200154613bef565b819082935b808510612e405783945061288083341015613e96565b83915b81831061289c5750505080341161057357506001905580f35b8091929452601d6020526128b7846003604088200154613bef565b80600019810111611454576128cf9060001901613af6565b60646128da82613a94565b04828752601d602052600360408820016128f48154613cbd565b9055828752601e6020526040872061290d838254613bef565b905580612da1575b50606461292182613a94565b049485612d30575b612933828461438d565b95838852601d60205260036040892001549687600019810111612d1c579061295a91613d6d565b6000848152601d602052604081206002015481905b8a600d831080612d13575b15612d0a575080600052601d60205260406000206000198b0160038201541180612cfb575b15612c22575080919250600052601d60205260008080808660018060a01b03604083205460081c165af16129d1613d7a565b5015612be65780600052601e60205260046040600020016129f3848254613bef565b905580600052601e6020526001604060002001612a11848254613bef565b905560019160018101811161091957604080518581526000199b909b0160208c01526001918201908b015260608a01524260808a01528998869060008051602061539c8339815191529060a090a35b1580612bdd575b612bc7575b50828652601d602052604086206003810154600490910154907f00000000000000000000000000000000000000000000000000000000000000006001600160a01b03163b15612bc3576040516366f0566160e11b815260048101869052602481019190915260448101919091528681606481836001600160a01b037f0000000000000000000000000000000000000000000000000000000000000000165af18015612bb85784918891612b9d575b50612b9693827f430828e9e608608c6f34402a3bbf7ccff1cd71ac750c401a12c72e4578350f969252601d602052600360408a20015490612b736040519283924291846040919493926060820195825260208201520152565b0390a2828652601d6020526108a060036040882001546040519061088d8261397d565b9190612883565b612ba8919250613953565b612bb457828638612b1a565b8580fd5b6040513d89823e3d90fd5b8780fd5b604051612bd7916108e582613999565b38612a6c565b50801515612a67565b5050955082600052601d60205260008080808960018060a01b03604083205460081c165af1612c13613d7a565b501561096b5786956001612a60565b5460ff16612c4b575b600052601d602052612c4560026040600020015491613cbd565b9061296f565b60018201821161091957604080518581526000198c0160208201526001840191810191909152600060608201524260808201528190889060008051602061539c8339815191529060a090a386817f587d8f9cc4f7ae2f12f916b8ac03ac5414969dfaf447b84acbb1e2b171cb7eb260a0604051888152601860608060208401528201527709cdee840e2eac2d8d2ccd2cac840ccdee440dac2e8e4d2f60431b6080820152426040820152a3612c2b565b5060026004820154101561299f565b99505050612a60565b5081151561297a565b634e487b7160e01b89526011600452602489fd5b612d6c878080808a7f00000000000000000000000000000000000000000000000000000000000000006001600160a01b03165af1610af1613d7a565b827fb74a7140ef81c80d0e213846b7b10b59f9c366b463e36e1f98bf00ef44c670b460408051898152426020820152a2612929565b612ddd87808080857f00000000000000000000000000000000000000000000000000000000000000006001600160a01b03165af1610b68613d7a565b828752601d60205260036040882001549081600019810111610aa1576040805191825260001992909201602082015242918101919091527fedd09f264659ce99b52fd2a2d4f09e551eb001fe3fc56ffd5704fc1f402bc21190606090a138612915565b91818452601d602052612e5a856003604087200154613bef565b6000198101908111610be557612e7991610c3261043661045a93613af6565b939161286a565b50828252601d602052604082205460ff16612814565b503461047c578060031936011261047c57612eaf613a2c565b60195460ff8116612ef45760019060ff1916176019556040514281527f80170b5fcdd2bf1e0660ef4b8851f86685f64d41b1a19de1471947ece8725aac60203392a280f35b60405162461bcd60e51b815260206004820152600e60248201526d105b1c9958591e481c185d5cd95960921b6044820152606490fd5b503461047c578060031936011261047c57612f43613a2c565b7f000000000000000000000000000000000000000000000000000000000000000090818152601d602052600d6003604083200154036130ec577f00000000000000000000000000000000000000000000000000000000000000006001600160a01b0316803b15611cd757604051926366f0566160e11b90818552806004860152600a6024860152836044860152838560648183875af180156130e1576130cd575b839450823b156130a057604051828152816004820152600b6024820152846044820152848160648183885af1908115611c505785916130b9575b5050823b156130a057604051828152816004820152600c6024820152846044820152848160648183885af1908115611c505785916130a5575b5050823b156130a0576064849283604051958694859384526004840152600d60248401528160448401525af18015611858576130905750f35b61309990613953565b61047c5780f35b505050fd5b6130ae90613953565b6130a0578338613057565b6130c290613953565b6130a057833861301e565b9290936130d990613953565b918390612fe4565b6040513d86823e3d90fd5b60405162461bcd60e51b8152602060048201526015602482015274149bdbdd081b9bdd08185d081b585e081b195d995b605a1b6044820152606490fd5b503461047c57602036600319011261047c57600435613146613a2c565b80151580613235575b156131fa57808252601d60205260ff604083205416156131b5577ff74e20aae72cc960952a3704606e03e286cb5a183f94a503f0c6195bd3cdc83a9060025490806002556112656040519283924291846040919493926060820195825260208201520152565b60405162461bcd60e51b815260206004820152601760248201527f526566657272657220646f6573206e6f742065786973740000000000000000006044820152606490fd5b60405162461bcd60e51b8152602060048201526013602482015272125b9d985b1a59081c9959995c9c995c881251606a1b6044820152606490fd5b50601b5481111561314f565b503461047c578060031936011261047c57602060ff600954166040519015158152f35b503461047c578060031936011261047c5761327d613aca565b606461328882613a94565b046104056132968284613bef565b91604051938493846040919493926060820195825260208201520152565b503461047c57602036600319011261047c5760206125b7600435613af6565b503461047c57602036600319011261047c5760406020916004358152602183522054604051908152f35b503461047c57604036600319011261047c5761331761382b565b906024918235613325613a2c565b60ff821691613336600d8410613a58565b811561356157670de0b6b3a764000082106135255769152d02c7e14af680000082116134e15782613475575b600c83106133d4575b600d8110156133c057600c0180549082905560408051918252602082019290925242918101919091527f01160ded273713b62692b83f3f861bfef99579eaf0440d7a22d838a3d163922e9080606081016116e4565b5050634e487b7160e01b8252506032600452fd5b6133dd81613fa0565b600d81101561346257600c015482108015613445575b61336b5760405162461bcd60e51b8152602060048201526021818701527f436f7374206d757374206265206c657373207468616e206e657874206c6576656044820152601b60fa1b6064820152608490fd5b5061344f81613fa0565b600d81101561346257600c0154156133f3565b634e487b7160e01b855260326004528585fd5b600019830160ff81116134ce57600d11156133c057600b83015482116133625760405162461bcd60e51b81526020600482015260128187015271436f7374206d75737420696e63726561736560701b6044820152606490fd5b634e487b7160e01b855260116004528585fd5b60405162461bcd60e51b815260206004820152601b818701527f4d6178696d756d20636f7374206973203130302c30303020424e4200000000006044820152606490fd5b60405162461bcd60e51b8152602060048201526015818701527426b4b734b6bab69031b7b9ba1034b990189021272160591b6044820152606490fd5b60405162461bcd60e51b81526020600482015260158187015274436f7374206d75737420626520706f73697469766560581b6044820152606490fd5b503461047c578060031936011261047c576020600b54604051908152f35b503461047c576135ca3661383b565b906135d3613a2c565b80151580613663575b1561362d577f55c3a078a4dd343c06964318bde751610b3227be1c0688d1f85e0f88edd09c4f9181600a5580600b556112656040519283924291846040919493926060820195825260208201520152565b60405162461bcd60e51b815260206004820152600e60248201526d496e76616c696420626f756e647360901b6044820152606490fd5b508082116135dc565b503461047c57602036600319011261047c5761368661382b565b61368e613a2c565b60ff81168015158061372e575b156136f9577e22a9cb4f0e1ed3ec37fc23f34059f1121810bcda271f475abdd6cf2b95d0df916060916001549160ff60a01b9060a01b1660ff60a01b1983161760015560ff6040519260a01c1682526020820152426040820152a180f35b60405162461bcd60e51b815260206004820152600d60248201526c092dcecc2d8d2c840c8cae0e8d609b1b6044820152606490fd5b5060ff81111561369b565b503461047c57602036600319011261047c577f2f363fd6fef1150caee78effeb98f6b9e03526dac46804b86a5f5f23909e840d600435613777613a2c565b613782811515613fb2565b60065490806006556112656040519283924291846040919493926060820195825260208201520152565b823461047c57602036600319011261047c57600435808252601d60205260ff604083205416156137f857602092508152601d8252604060018060a01b0391205460081c16604051908152f35b62461bcd60e51b835260206004840152600e60248401526d155cd95c881b9bdd08199bdd5b9960921b6044840152606483fd5b6004359060ff821682036111e257565b60409060031901126111e2576004359060243590565b346111e25760003660031901126111e2576020604051600d8152f35b80548210156138855760005260206000200190600090565b634e487b7160e01b600052603260045260246000fd5b6000915b600483106138ac57505050565b600190825115158152602080910192019201919061389f565b600435906001600160a01b03821682036111e257565b90815180825260208080930193019160005b8281106138fb575050505090565b8351855293810193928101926001016138ed565b346111e25760003660031901126111e257602060405160058152f35b6000915b600d831061393c57505050565b60019082518152602080910192019201919061392f565b67ffffffffffffffff811161396757604052565b634e487b7160e01b600052604160045260246000fd5b6060810190811067ffffffffffffffff82111761396757604052565b6040810190811067ffffffffffffffff82111761396757604052565b6101a0810190811067ffffffffffffffff82111761396757604052565b6020810190811067ffffffffffffffff82111761396757604052565b6080810190811067ffffffffffffffff82111761396757604052565b90601f8019910116810190811067ffffffffffffffff82111761396757604052565b6001546001600160a01b03163303613a4057565b60405163118cdaa760e01b8152336004820152602490fd5b15613a5f57565b60405162461bcd60e51b815260206004820152600d60248201526c125b9d985b1a59081b195d995b609a1b6044820152606490fd5b9060058202918083046005149015171561091957565b8115613ab4570490565b634e487b7160e01b600052601260045260246000fd5b600c54670de0b6b3a76400009081810291818304149015171561091957600654613af391613aaa565b90565b600d8110613b0381613a58565b1561388557600c0154670de0b6b3a76400009081810291818304149015171561091957600654613af391613aaa565b15613b3957565b60405162461bcd60e51b815260206004820152600f60248201526e10dbdb9d1c9858dd081c185d5cd959608a1b6044820152606490fd5b15613b7757565b60405162461bcd60e51b8152602060048201526012602482015271105b1c9958591e481c9959da5cdd195c995960721b6044820152606490fd5b15613bb857565b60405162461bcd60e51b815260206004820152600f60248201526e496e76616c6964206164647265737360881b6044820152606490fd5b9190820180921161091957565b15613c0357565b60405162461bcd60e51b8152602060048201526015602482015274125b9cdd59999a58da595b9d08109390881cd95b9d605a1b6044820152606490fd5b602354600160401b8110156139675760018101806023558110156138855760236000527fd57b2b5166478fd4318d2acc6cc2c704584312bdd8781b32d5d06abda57f42300155565b8054600160401b81101561396757613ca59160018201815561386d565b819291549060031b91821b91600019901b1916179055565b60001981146109195760010190565b602454600160401b81101561396757600181018060245581101561388557604060037f7cd332d19b93bcabe3cce7ca0c18a052f57e5fd03b4758a09f30f5ddc4b22ec692602460005202928051847f7cd332d19b93bcabe3cce7ca0c18a052f57e5fd03b4758a09f30f5ddc4b22ec4015560208101517f7cd332d19b93bcabe3cce7ca0c18a052f57e5fd03b4758a09f30f5ddc4b22ec58501550151910155565b9190820391821161091957565b3d15613db5573d9067ffffffffffffffff82116139675760405191613da9601f8201601f191660200184613a0a565b82523d6000602084013e565b606090565b600260005414613dcb576002600055565b604051633ee5aeb560e01b8152600490fd5b15613de457565b60405162461bcd60e51b815260206004820152600f60248201526e125b9d985b1a59081d5cd95c881251608a1b6044820152606490fd5b15613e2257565b60405162461bcd60e51b815260206004820152600c60248201526b155b985d5d1a1bdc9a5e995960a21b6044820152606490fd5b15613e5d57565b60405162461bcd60e51b8152602060048201526011602482015270115e18d959591cc81b585e081b195d995b607a1b6044820152606490fd5b15613e9d57565b60405162461bcd60e51b815260206004820152601060248201526f24b739bab33334b1b4b2b73a1021272160811b6044820152606490fd5b15613edc57565b60405162461bcd60e51b8152602060048201526013602482015272119959481d1c985b9cd9995c8819985a5b1959606a1b6044820152606490fd5b15613f1e57565b60405162461bcd60e51b815260206004820152601760248201527f526f79616c7479207472616e73666572206661696c65640000000000000000006044820152606490fd5b15613f6a57565b60405162461bcd60e51b815260206004820152600e60248201526d139bdd081c9959da5cdd195c995960921b6044820152606490fd5b60ff60019116019060ff821161091957565b15613fb957565b60405162461bcd60e51b815260206004820152600d60248201526c496e76616c696420707269636560981b6044820152606490fd5b91806141e3575b50606461400182613a94565b0480614171575b60008381526020601d81526140266040936001858520015495613d6d565b918415158061415d575b1561412757848152601d825260018060a01b038180808087858a83205460081c165af161405b613d7a565b50156140c857509060018483877f7f31b11e95a87830bd41893a2c8bb6991e584f4e5082cedeeffd2b1ca1bb76c597969552601e84526002828220016140a2868254613bef565b9055878152601e845220016140b8838254613bef565b905582519182524290820152a35b565b819495509281938293978352601d88528683205460081c165af16140ea613d7a565b50156140f4575050565b60649250519062461bcd60e51b82526004820152600d60248201526c1499599d5b990819985a5b1959609a1b6044820152fd5b509250906140c69350703737afbb30b634b22fb932b332b93932b960791b90519261415184613999565b601184528301526142c1565b50848152601d825260ff8482205416614030565b6141ae6000808080857f00000000000000000000000000000000000000000000000000000000000000006001600160a01b03165af1610af1613d7a565b827fb74a7140ef81c80d0e213846b7b10b59f9c366b463e36e1f98bf00ef44c670b460408051848152426020820152a2614008565b7fedd09f264659ce99b52fd2a2d4f09e551eb001fe3fc56ffd5704fc1f402bc211906060906142456000808080857f00000000000000000000000000000000000000000000000000000000000000006001600160a01b03165af1610b68613d7a565b60405190815260006020820152426040820152a138613ff5565b919082519283825260005b84811061428b575050826000602080949584010152601f8019910116010190565b60208183018101518483018201520161426a565b9392916142bc90604092865260606020870152606086019061425f565b930152565b7f0000000000000000000000000000000000000000000000000000000000000000916000838152601d602052808080808660018060a01b03604083205460081c165af161430c613d7a565b50614318575b50505050565b604081857fe7392140a76258e2263a339b5bfda7575cf4a9227c701df27629fe8dd52735b19660019452601e602052600283832001614358878254613bef565b90558152601e602052200161436e838254613bef565b905561438160405192839242918461429f565b0390a138808080614312565b9190600090838252601d91602083815260016040928184822001549581966101f4998a88029a881590898d0414811715610be5578492865b614432575b50505050505050612710613af3959604918285106143eb575b505050613d6d565b7273706f6e736f725f6e6f5f656c696769626c6560681b61441184959661442995613d6d565b91519261441d84613999565b601384528301526142c1565b903880806143e3565b60ff808516600d811080614737575b156147305761445086846147ee565b908c61ffff61445e89614740565b168082029182041486171561471c57888c888f938d956127108a92049780614713575b15614561575085525052812054819081908190859060081c6001600160a01b03165af16144ac613d7a565b506144d6575b50505b85528387528588862001549260ff80911690811461145457860192866143c5565b8085929d84928b8e8c8f87825287601e92838352848120600301878154906144fd91613bef565b905552528c20018181549061451191613bef565b905561451c91613bef565b9d61452688613fa0565b8d51928352168b820152428c82015260607f38a882dd38cf7baf663586c9181108323f083cc8ac7cf5287586a0d56a71f91491a338806144b2565b9550959350959150508161457a575b50505050506144b5565b838b52898d528d8b205416614590575b80614570565b7f587d8f9cc4f7ae2f12f916b8ac03ac5414969dfaf447b84acbb1e2b171cb7eb29160218d528d8b206145c4838254613bef565b9055600581101561462357508c6146178d7f4e6f742061637469766520286e656564204c6576656c20312b2900000000000083519161460283613999565b601a8352820152915b5192839242918461429f565b0390a38281388061458a565b600881101561467657508c6146178d7f4e65656420322b2064697265637420726566657272616c7320666f72204c362d83519161465f8361397d565b6022835282015261098760f31b838201529161460b565b600a11156146c8578c6146178d7f4e65656420332b2064697265637420726566657272616c7320666f72204c392d8351916146b08361397d565b602383528201526204c31360ec1b838201529161460b565b8c6146178d7f4e65656420352b2064697265637420726566657272616c7320666f72204c31318351916146fa8361397d565b60248352820152632d4c313360e01b838201529161460b565b50871515614481565b634e487b7160e01b8a52601160045260248afd5b50506143ca565b50821515614441565b60ff1680156147e857600181146147e257600281146147dc57600381146147d657600481146147d657600581146147d057600681146147ca57600781146147c457600881146147be57600981146147b857600a81146147b257600b81146147b257600c146147ad57600090565b600a90565b50600a90565b50600f90565b50601490565b50601990565b50601e90565b50602890565b50603290565b50603c90565b50605090565b50606490565b600052601d60205260406000209060ff82541615801561485d575b6148565760ff166005811015614820575050600190565b6008811015614836575060046002910154101590565b600a111561484a5760046003910154101590565b60046005910154101590565b5050600090565b506001600383015410614809565b919092604091825161010081019067ffffffffffffffff918181108382111761396757601d94600691875260018352876020998a928386019160018060a01b03168252898601908882526060870190815260808701916001835260a088019360009b8c9788875260c08b019789895260e08c0199428b5252528c8c20985115159060ff8a5491610100600160a81b03905160081b169216906affffffffffffffffffffff60a81b16171788555160018801555160028701555160038601555160048501555160058401555191015583519060a0820190828210908211176149e5578452828152600486820184815285830185815260608401908682526080850192878452898852601e8b528888209551865551600186015551600285015551600384015551910155801515806149db575b6149a8575b5050505050565b6149d194816022928452601d82526004858520016149c68154613cbd565b905583525220613c88565b38808080806149a1565b508381141561499c565b634e487b7160e01b84526041600452602484fd5b600090815b600d831080614ac9575b15614ac05750614a1783614b30565b9283614a3e57600052601d602052614a3760016040600020015492613cbd565b91926149fe565b5090505b8115614a98575b81600052601f602052604060002060008052602052614a6c816040600020613c88565b600052601d60205280600260406000200155600052602080526040600020614a948154613cbd565b9055565b7f00000000000000000000000000000000000000000000000000000000000000009150614a49565b92509050614a42565b50831515614a08565b67ffffffffffffffff81116139675760051b60200190565b90614af482614ad2565b614b016040519182613a0a565b8281528092614b12601f1991614ad2565b0190602036910137565b80518210156138855760209160051b010190565b60019060ff825460a01c1690614b4582614aea565b916000908491845115613885578590602094858701526000915b614b70575b50505050505050600090565b83811080614c66575b15614c6157614b9b614b94614b8d83613cbd565b9288614b1c565b5192613cbd565b9180600052601f808752604091826000206000805288526002836000205410614c5457899291906000845b614bd4575b50505050614b5f565b816000959293949552838a5284600020600080528a528460002054811080614c4b575b15614c4357614c399083600052848b5285600020600080528b528b610f65614c22838960002061386d565b9c9054614c2e82613cbd565b9d60031b1c92614b1c565b8194939291614bc6565b819450614bcb565b50878910614bf7565b9850505050505050505090565b614b64565b50828210614b79565b6000908152601d602090808252600192604091848383200154938583905b614c9b575b50505050505050565b85151580614ce3575b15614cde578587968552838352600586862001614cc18154613cbd565b90558452828252614cd786868620015491613cbd565b9095614c8d565b614c92565b5060ff875460a01c168110614ca4565b90600d8110156138855760051b0190565b6000338152601c60205260408120548015614d6057808252601d602052604080832092601e6020522090600383015493600584015493600160048201549401549260018201549260066002840154930154919796959493929190565b50908180918180918180918190565b600090338252601c60205260408220548015614dbc578252601e60205260408220805492600182015493600283015493604060046003860154950154936021602052205491959493929190565b508180918180918190565b6000903382526020601c81526040808420548015614e98578452601d808352818520926004600585015494015493602282528387209084518083858295549384815201908b52858b20928b5b87828210614e8257505050614e2a92500383613a0a565b8195614e368351614aea565b96895b8451811015614e755780614e50614e709287614b1c565b518c52878752888c205460081c6001600160a01b0316610f65828c614b1c565b614e39565b5096955096935096505050565b8554845260019586019588955093019201614e13565b508051929150614ea7836139d2565b8383525190614eb5826139d2565b8382528336813783929190565b519081151582036111e257565b908160609103126111e257805191613af36040614eee60208501614ec2565b9301614ec2565b9060048110156138855760051b0190565b604090815191614f15836139ee565b608036843782815193614f27856139ee565b60803686378492805195614f3a876139ee565b60803688378690600097338952601c602052838920549586156150425750507f00000000000000000000000000000000000000000000000000000000000000006001600160a01b0316969050875b6004808210156150365786855191632075d10760e21b835282015281602482015289818a81604460609586935afa90811561502c57908291614ff695948392614ffb575b5050614fd88488614ef5565b9015159052614fe7838b614ef5565b9015159052610f658288614ef5565b614f88565b9150915061501e9250803d10615025575b6150168183613a0a565b810190614ecf565b3880614fcc565b503d61500c565b87513d84823e3d90fd5b50509350939450509350565b985090969095509350505050565b1561505757565b60405162461bcd60e51b815260206004820152600c60248201526b24b73b30b634b2103a34b2b960a11b6044820152606490fd5b600a81101580615151575b61509f90615050565b600091338352601c602052604083205491821561514957604051632075d10760e21b8152600481019390935260248301526060826044817f00000000000000000000000000000000000000000000000000000000000000006001600160a01b03165afa91821561513e5783908493615118575b50929190565b91935050615134915060603d8111615025576150168183613a0a565b9290929138615112565b6040513d85823e3d90fd5b508291508190565b50600d811115615096565b91600a821015806151f5575b61517190615050565b60018060a01b039182600094168452601c602052604084205480156151eb579060446060926040519586938492632075d10760e21b8452600484015260248301527f0000000000000000000000000000000000000000000000000000000000000000165afa91821561513e57839084936151185750929190565b5083925082919050565b50600d821115615168565b519069ffffffffffffffffffff821682036111e257565b600554604051633fabe5a360e21b81529060a090829060049082906001600160a01b03165afa8060009283926152c1575b5061525557505060065490565b61526e610e109161526860008513613fb2565b42613d6d565b101561528e576402540be400908181029181830414901517156109195790565b60405162461bcd60e51b815260206004820152600b60248201526a5374616c6520707269636560a81b6044820152606490fd5b9290915060a0833d821161530f575b816152dd60a09383613a0a565b8101031261047c57506152ef82615200565b506020820151615306608060608501519401615200565b50919038615248565b3d91506152d0565b600060443d10613af357604051600319913d83016004833e815167ffffffffffffffff918282113d6024840111176153755781840194855193841161537d573d850101602084870101116153755750613af392910160200190613a0a565b949350505050565b50949350505050565b61539560085460075490613bef565b4210159056fefb0ece953ea45e221eab304ac93d016d67c4ff3f6d5ce3d2fb6db7d2043b46fca264697066735822122085c026a0529863bc1cbb4f54255ef0101fc05a601c5d5833dce301207056584064736f6c634300081400338be0079c531659141344cd1fd0a4f28419497f9722a3daafe3b4186f6b6457e0","opcodes":"PUSH2 0x100 CALLVALUE PUSH3 0x695 JUMPI PUSH1 0x1F PUSH3 0x5AC1 CODESIZE DUP2 SWAP1 SUB SWAP2 DUP3 ADD PUSH1 0x1F NOT AND DUP4 ADD SWAP2 PUSH1 0x1 PUSH1 0x1 PUSH1 0x40 SHL SUB DUP4 GT DUP5 DUP5 LT OR PUSH3 0x507 JUMPI DUP1 DUP5 SWAP3 PUSH1 0xA0 SWAP5 PUSH1 0x40 MSTORE DUP4 CODECOPY DUP2 ADD SUB SLT PUSH3 0x695 JUMPI PUSH3 0x4E DUP2 PUSH3 0x69A JUMP JUMPDEST SWAP1 PUSH3 0x5D PUSH1 0x20 DUP3 ADD PUSH3 0x69A JUMP JUMPDEST PUSH3 0x6B PUSH1 0x40 DUP4 ADD PUSH3 0x69A JUMP JUMPDEST SWAP3 PUSH3 0x7F PUSH1 0x80 PUSH1 0x60 DUP6 ADD MLOAD SWAP5 ADD PUSH3 0x69A JUMP JUMPDEST SWAP4 PUSH1 0x1 PUSH1 0x0 SSTORE CALLER ISZERO PUSH3 0x67C JUMPI PUSH1 0x1 SLOAD CALLER PUSH1 0x1 PUSH1 0x1 PUSH1 0xA0 SHL SUB DUP3 AND PUSH1 0x0 DUP1 MLOAD PUSH1 0x20 PUSH3 0x5AA1 DUP4 CODECOPY DUP2 MLOAD SWAP2 MSTORE PUSH1 0x0 DUP1 LOG3 PUSH1 0x1 PUSH1 0x1 PUSH1 0xA8 SHL SUB NOT AND CALLER PUSH1 0xFF PUSH1 0xA0 SHL NOT AND OR PUSH1 0x19 PUSH1 0xA2 SHL OR PUSH1 0x1 SWAP1 DUP2 SSTORE PUSH2 0xE10 PUSH1 0x4 SSTORE PUSH9 0x30F3A473B371BC0000 PUSH1 0x6 SSTORE PUSH3 0x93A80 PUSH1 0x7 SSTORE PUSH1 0x9 DUP1 SLOAD PUSH1 0xFF NOT AND SWAP1 SWAP2 OR SWAP1 SSTORE PUSH8 0xDE0B6B3A7640000 PUSH1 0xA SSTORE PUSH10 0x152D02C7E14AF6800000 PUSH1 0xB SSTORE PUSH1 0x40 MLOAD SWAP3 PUSH1 0x1 PUSH1 0x1 PUSH1 0x40 SHL SUB PUSH2 0x1A0 DUP6 ADD SWAP1 DUP2 GT SWAP1 DUP6 GT OR PUSH3 0x507 JUMPI PUSH2 0x1A0 DUP5 ADD PUSH1 0x40 MSTORE PUSH8 0x4563918244F40000 DUP1 DUP6 MSTORE PUSH1 0x20 DUP6 ADD MSTORE PUSH8 0x8AC7230489E80000 PUSH1 0x40 DUP6 ADD MSTORE PUSH9 0x1158E460913D00000 PUSH1 0x60 DUP6 ADD MSTORE PUSH9 0x22B1C8C1227A00000 PUSH1 0x80 DUP6 ADD MSTORE PUSH9 0x4563918244F400000 PUSH1 0xA0 DUP6 ADD MSTORE PUSH9 0x8AC7230489E800000 PUSH1 0xC0 DUP6 ADD MSTORE PUSH9 0x1158E460913D000000 PUSH1 0xE0 DUP6 ADD MSTORE PUSH2 0x100 SWAP4 PUSH9 0x22B1C8C1227A000000 DUP6 DUP3 ADD MSTORE PUSH9 0x4563918244F4000000 PUSH2 0x120 DUP3 ADD MSTORE PUSH9 0x8AC7230489E8000000 PUSH2 0x140 DUP3 ADD MSTORE PUSH10 0x1158E460913D0000000 PUSH2 0x160 DUP3 ADD MSTORE PUSH10 0x22B1C8C1227A0000000 PUSH2 0x180 DUP3 ADD MSTORE PUSH1 0x0 JUMPDEST PUSH1 0xD DUP2 LT PUSH3 0x65D JUMPI POP POP PUSH1 0x1 PUSH1 0x1 PUSH1 0xA0 SHL SUB DUP4 AND ISZERO PUSH3 0x618 JUMPI PUSH1 0x1 PUSH1 0x1 PUSH1 0xA0 SHL SUB AND SWAP1 DUP2 ISZERO PUSH3 0x5E1 JUMPI PUSH1 0x1 PUSH1 0x1 PUSH1 0xA0 SHL SUB AND SWAP5 DUP6 ISZERO PUSH3 0x59C JUMPI DUP5 ISZERO PUSH3 0x557 JUMPI PUSH1 0x1 PUSH1 0x1 PUSH1 0xA0 SHL SUB AND SWAP2 DUP3 ISZERO PUSH3 0x51D JUMPI PUSH1 0x80 MSTORE PUSH1 0xA0 MSTORE DUP3 PUSH1 0xC0 MSTORE TIMESTAMP PUSH1 0xE0 MSTORE PUSH1 0x1 DUP1 PUSH1 0xA0 SHL SUB NOT PUSH1 0x5 SLOAD AND OR PUSH1 0x5 SSTORE TIMESTAMP PUSH1 0x8 SSTORE DUP2 PUSH1 0x1B SSTORE DUP3 PUSH1 0x0 MSTORE PUSH1 0x1C PUSH1 0x20 MSTORE DUP2 PUSH1 0x40 PUSH1 0x0 KECCAK256 SSTORE PUSH1 0x40 MLOAD SWAP1 DUP2 ADD DUP2 DUP2 LT PUSH1 0x1 DUP1 PUSH1 0x40 SHL SUB DUP3 GT OR PUSH3 0x507 JUMPI PUSH1 0x40 MSTORE PUSH1 0x1 DUP2 MSTORE PUSH1 0x6 PUSH1 0x20 DUP3 ADD DUP5 DUP2 MSTORE PUSH1 0x40 DUP4 ADD DUP5 DUP2 MSTORE PUSH1 0x60 DUP5 ADD DUP6 DUP2 MSTORE PUSH1 0x80 DUP6 ADD PUSH1 0xD DUP2 MSTORE PUSH1 0xA0 DUP7 ADD SWAP2 PUSH1 0x0 DUP4 MSTORE PUSH1 0xC0 DUP8 ADD SWAP4 PUSH1 0x0 DUP6 MSTORE PUSH1 0xE0 DUP9 ADD SWAP6 TIMESTAMP DUP8 MSTORE DUP10 PUSH1 0x0 MSTORE PUSH1 0x1D PUSH1 0x20 MSTORE PUSH1 0x40 PUSH1 0x0 KECCAK256 SWAP9 MLOAD ISZERO ISZERO SWAP1 PUSH1 0xFF DUP11 SLOAD SWAP2 PUSH2 0x100 PUSH1 0x1 PUSH1 0xA8 SHL SUB SWAP1 MLOAD PUSH1 0x8 SHL AND SWAP3 AND SWAP1 PUSH1 0x1 DUP1 PUSH1 0xA8 SHL SUB NOT AND OR OR DUP9 SSTORE MLOAD PUSH1 0x1 DUP9 ADD SSTORE MLOAD PUSH1 0x2 DUP8 ADD SSTORE MLOAD PUSH1 0x3 DUP7 ADD SSTORE MLOAD PUSH1 0x4 DUP6 ADD SSTORE MLOAD PUSH1 0x5 DUP5 ADD SSTORE MLOAD SWAP2 ADD SSTORE PUSH1 0x40 MLOAD SWAP1 PUSH1 0xA0 DUP3 ADD SWAP1 DUP3 DUP3 LT PUSH1 0x1 DUP1 PUSH1 0x40 SHL SUB DUP4 GT OR PUSH3 0x507 JUMPI PUSH1 0x4 SWAP2 PUSH1 0x40 MSTORE PUSH1 0x0 DUP4 MSTORE PUSH1 0x20 DUP4 ADD PUSH1 0x0 DUP2 MSTORE PUSH1 0x40 DUP5 ADD PUSH1 0x0 DUP2 MSTORE PUSH1 0x60 DUP6 ADD SWAP2 PUSH1 0x0 DUP4 MSTORE PUSH1 0x80 DUP7 ADD SWAP4 PUSH1 0x0 DUP6 MSTORE PUSH1 0x0 MSTORE PUSH1 0x1E PUSH1 0x20 MSTORE PUSH1 0x40 PUSH1 0x0 KECCAK256 SWAP6 MLOAD DUP7 SSTORE MLOAD PUSH1 0x1 DUP7 ADD SSTORE MLOAD PUSH1 0x2 DUP6 ADD SSTORE MLOAD PUSH1 0x3 DUP5 ADD SSTORE MLOAD SWAP2 ADD SSTORE PUSH1 0xC0 MLOAD PUSH1 0x23 SLOAD PUSH9 0x10000000000000000 DUP2 LT ISZERO PUSH3 0x507 JUMPI PUSH1 0x1 DUP2 ADD DUP1 PUSH1 0x23 SSTORE DUP2 LT ISZERO PUSH3 0x4F1 JUMPI DUP2 SWAP1 PUSH1 0x23 PUSH1 0x0 MSTORE PUSH1 0x20 PUSH1 0x0 KECCAK256 ADD SSTORE PUSH1 0x1 PUSH1 0x1A SSTORE DUP1 PUSH1 0x2 SSTORE PUSH32 0xCCF9E170264F78923037F9D4F09C5EB756FCB20F871F02DCEDB45F500D77B988 PUSH1 0x20 PUSH1 0x40 MLOAD TIMESTAMP DUP2 MSTORE LOG3 PUSH1 0x40 MLOAD CALLER PUSH1 0x0 PUSH1 0x0 DUP1 MLOAD PUSH1 0x20 PUSH3 0x5AA1 DUP4 CODECOPY DUP2 MLOAD SWAP2 MSTORE DUP2 DUP1 LOG3 PUSH2 0x53F1 SWAP1 DUP2 PUSH3 0x6B0 DUP3 CODECOPY PUSH1 0x80 MLOAD DUP2 DUP2 DUP2 PUSH2 0xB36 ADD MSTORE DUP2 DUP2 PUSH2 0x12C8 ADD MSTORE DUP2 DUP2 PUSH2 0x2DAB ADD MSTORE PUSH2 0x4213 ADD MSTORE PUSH1 0xA0 MLOAD DUP2 DUP2 DUP2 PUSH2 0x77E ADD MSTORE DUP2 DUP2 PUSH2 0x7E0 ADD MSTORE DUP2 DUP2 PUSH2 0xABF ADD MSTORE DUP2 DUP2 PUSH2 0x17B7 ADD MSTORE DUP2 DUP2 PUSH2 0x1884 ADD MSTORE DUP2 DUP2 PUSH2 0x1B9B ADD MSTORE DUP2 DUP2 PUSH2 0x23BC ADD MSTORE DUP2 DUP2 PUSH2 0x2A87 ADD MSTORE DUP2 DUP2 PUSH2 0x2AE9 ADD MSTORE DUP2 DUP2 PUSH2 0x2D3A ADD MSTORE DUP2 DUP2 PUSH2 0x2F7E ADD MSTORE DUP2 DUP2 PUSH2 0x417C ADD MSTORE DUP2 DUP2 PUSH2 0x4F5B ADD MSTORE DUP2 DUP2 PUSH2 0x50D8 ADD MSTORE PUSH2 0x51B4 ADD MSTORE PUSH1 0xC0 MLOAD DUP2 DUP2 DUP2 PUSH2 0x146B ADD MSTORE DUP2 DUP2 PUSH2 0x1B43 ADD MSTORE DUP2 DUP2 PUSH2 0x203C ADD MSTORE DUP2 DUP2 PUSH2 0x2372 ADD MSTORE DUP2 DUP2 PUSH2 0x2F45 ADD MSTORE DUP2 DUP2 PUSH2 0x42C3 ADD MSTORE PUSH2 0x4A9A ADD MSTORE PUSH1 0xE0 MLOAD DUP2 PUSH2 0xFAD ADD MSTORE RETURN JUMPDEST PUSH4 0x4E487B71 PUSH1 0xE0 SHL PUSH1 0x0 MSTORE PUSH1 0x32 PUSH1 0x4 MSTORE PUSH1 0x24 PUSH1 0x0 REVERT JUMPDEST PUSH4 0x4E487B71 PUSH1 0xE0 SHL PUSH1 0x0 MSTORE PUSH1 0x41 PUSH1 0x4 MSTORE PUSH1 0x24 PUSH1 0x0 REVERT JUMPDEST PUSH1 0x40 MLOAD PUSH3 0x461BCD PUSH1 0xE5 SHL DUP2 MSTORE PUSH1 0x20 PUSH1 0x4 DUP3 ADD MSTORE PUSH1 0x12 PUSH1 0x24 DUP3 ADD MSTORE PUSH18 0x125B9D985B1A59081C1C9A58D94819995959 PUSH1 0x72 SHL PUSH1 0x44 DUP3 ADD MSTORE PUSH1 0x64 SWAP1 REVERT JUMPDEST PUSH1 0x40 MLOAD PUSH3 0x461BCD PUSH1 0xE5 SHL DUP2 MSTORE PUSH1 0x20 PUSH1 0x4 DUP3 ADD MSTORE PUSH1 0x14 PUSH1 0x24 DUP3 ADD MSTORE PUSH32 0x496E76616C696420726F6F742075736572204944000000000000000000000000 PUSH1 0x44 DUP3 ADD MSTORE PUSH1 0x64 SWAP1 REVERT JUMPDEST PUSH1 0x40 MLOAD PUSH3 0x461BCD PUSH1 0xE5 SHL DUP2 MSTORE PUSH1 0x20 PUSH1 0x4 DUP3 ADD MSTORE PUSH1 0x14 PUSH1 0x24 DUP3 ADD MSTORE PUSH32 0x496E76616C696420726F6F742061646472657373000000000000000000000000 PUSH1 0x44 DUP3 ADD MSTORE PUSH1 0x64 SWAP1 REVERT JUMPDEST PUSH1 0x40 MLOAD PUSH3 0x461BCD PUSH1 0xE5 SHL DUP2 MSTORE PUSH1 0x20 PUSH1 0x4 DUP3 ADD MSTORE PUSH1 0xF PUSH1 0x24 DUP3 ADD MSTORE PUSH15 0x496E76616C696420726F79616C7479 PUSH1 0x88 SHL PUSH1 0x44 DUP3 ADD MSTORE PUSH1 0x64 SWAP1 REVERT JUMPDEST PUSH1 0x40 MLOAD PUSH3 0x461BCD PUSH1 0xE5 SHL DUP2 MSTORE PUSH1 0x20 PUSH1 0x4 DUP3 ADD MSTORE PUSH1 0x14 PUSH1 0x24 DUP3 ADD MSTORE PUSH32 0x496E76616C696420666565207265636569766572000000000000000000000000 PUSH1 0x44 DUP3 ADD MSTORE PUSH1 0x64 SWAP1 REVERT JUMPDEST DUP2 MLOAD PUSH1 0x1 PUSH1 0x1 PUSH1 0x50 SHL SUB AND PUSH1 0xC DUP3 ADD SSTORE PUSH1 0x20 SWAP1 SWAP2 ADD SWAP1 PUSH1 0x1 ADD PUSH3 0x1F3 JUMP JUMPDEST PUSH1 0x40 MLOAD PUSH4 0x1E4FBDF7 PUSH1 0xE0 SHL DUP2 MSTORE PUSH1 0x0 PUSH1 0x4 DUP3 ADD MSTORE PUSH1 0x24 SWAP1 REVERT JUMPDEST PUSH1 0x0 DUP1 REVERT JUMPDEST MLOAD SWAP1 PUSH1 0x1 PUSH1 0x1 PUSH1 0xA0 SHL SUB DUP3 AND DUP3 SUB PUSH3 0x695 JUMPI JUMP INVALID PUSH1 0x80 DUP1 PUSH1 0x40 MSTORE PUSH1 0x4 CALLDATASIZE LT ISZERO PUSH2 0x1D JUMPI JUMPDEST POP CALLDATASIZE ISZERO PUSH2 0x1B JUMPI PUSH1 0x0 DUP1 REVERT JUMPDEST STOP JUMPDEST PUSH1 0x0 SWAP1 DUP2 CALLDATALOAD PUSH1 0xE0 SHR SWAP1 DUP2 PUSH4 0xE1BC0EE EQ PUSH2 0x37AC JUMPI POP DUP1 PUSH4 0x17D031A3 EQ PUSH2 0x3739 JUMPI DUP1 PUSH4 0x17F1A931 EQ PUSH2 0x366C JUMPI DUP1 PUSH4 0x19B9DFB5 EQ PUSH2 0x35BB JUMPI DUP1 PUSH4 0x1DAA8AE2 EQ PUSH2 0x359D JUMPI DUP1 PUSH4 0x21D178FB EQ PUSH2 0x32FD JUMPI DUP1 PUSH4 0x2233A830 EQ PUSH2 0x32D3 JUMPI DUP1 PUSH4 0x2B6E4DA0 EQ PUSH2 0x32B4 JUMPI DUP1 PUSH4 0x2D8AE549 EQ PUSH2 0x3264 JUMPI DUP1 PUSH4 0x3586CD14 EQ PUSH2 0x3241 JUMPI DUP1 PUSH4 0x39B86165 EQ PUSH2 0x3129 JUMPI DUP1 PUSH4 0x437F6E23 EQ PUSH2 0x2F2A JUMPI DUP1 PUSH4 0x439766CE EQ PUSH2 0x2E96 JUMPI DUP1 PUSH4 0x451450EC EQ PUSH2 0x27E7 JUMPI DUP1 PUSH4 0x4A429D12 EQ PUSH2 0x27A7 JUMPI DUP1 PUSH4 0x4BF96A88 EQ PUSH2 0x21E7 JUMPI DUP1 PUSH4 0x4CD2B1EA EQ PUSH2 0x25BF JUMPI DUP1 PUSH4 0x504E4730 EQ PUSH2 0x259C JUMPI DUP1 PUSH4 0x51D70BC4 EQ PUSH2 0x2518 JUMPI DUP1 PUSH4 0x576DDE12 EQ PUSH2 0x24FA JUMPI DUP1 PUSH4 0x5AABF7F1 EQ PUSH2 0x24A6 JUMPI DUP1 PUSH4 0x5C0C900B EQ PUSH2 0x22E5 JUMPI DUP1 PUSH4 0x5C975ABB EQ PUSH2 0x22C2 JUMPI DUP1 PUSH4 0x5D7D6342 EQ PUSH2 0x2261 JUMPI DUP1 PUSH4 0x5FFDE7BE EQ PUSH2 0x2243 JUMPI DUP1 PUSH4 0x6266A380 EQ PUSH2 0x21EC JUMPI DUP1 PUSH4 0x6702C7BF EQ PUSH2 0x21E7 JUMPI DUP1 PUSH4 0x6949FAEB EQ PUSH2 0x21C9 JUMPI DUP1 PUSH4 0x697D2428 EQ PUSH2 0x21AD JUMPI DUP1 PUSH4 0x6BFDF8A0 EQ PUSH2 0x20F6 JUMPI DUP1 PUSH4 0x6C0C0A5C EQ PUSH2 0x20D8 JUMPI DUP1 PUSH4 0x6DC76A73 EQ PUSH2 0x20AF JUMPI DUP1 PUSH4 0x6F9FB98A EQ PUSH2 0x2093 JUMPI DUP1 PUSH4 0x6FA6E58A EQ PUSH2 0x1FCE JUMPI DUP1 PUSH4 0x7124C683 EQ PUSH2 0x1F01 JUMPI DUP1 PUSH4 0x715018A6 EQ PUSH2 0x1E72 JUMPI DUP1 PUSH4 0x724E78DA EQ PUSH2 0x1DF6 JUMPI DUP1 PUSH4 0x741BEF1A EQ PUSH2 0x1DCD JUMPI DUP1 PUSH4 0x76ED7F0E EQ PUSH2 0x1D6D JUMPI DUP1 PUSH4 0x7706BA52 EQ PUSH2 0x1D47 JUMPI DUP1 PUSH4 0x790BD584 EQ PUSH2 0x1D29 JUMPI DUP1 PUSH4 0x7DAA10CE EQ PUSH2 0x1CDB JUMPI DUP1 PUSH4 0x7E06A01F EQ PUSH2 0x1CAA JUMPI DUP1 PUSH4 0x7F6E8CBF EQ PUSH2 0x1C71 JUMPI DUP1 PUSH4 0x806D73BE EQ PUSH2 0x1ABE JUMPI DUP1 PUSH4 0x82EE173E EQ PUSH2 0x1A42 JUMPI DUP1 PUSH4 0x88AFBE3E EQ PUSH2 0x1A19 JUMPI DUP1 PUSH4 0x8955DEFB EQ PUSH2 0x19E0 JUMPI DUP1 PUSH4 0x8DA5CB5B EQ PUSH2 0x19B7 JUMPI DUP1 PUSH4 0x8E69D19D EQ PUSH2 0x1938 JUMPI DUP1 PUSH4 0x9C8C3E80 EQ PUSH2 0x18B3 JUMPI DUP1 PUSH4 0x9D720652 EQ PUSH2 0x186E JUMPI DUP1 PUSH4 0x9D89968E EQ PUSH2 0x1771 JUMPI DUP1 PUSH4 0xA65FF74C EQ PUSH2 0x1732 JUMPI DUP1 PUSH4 0xA7378650 EQ PUSH2 0x1663 JUMPI DUP1 PUSH4 0xAAFB9800 EQ PUSH2 0x1647 JUMPI DUP1 PUSH4 0xB33712C5 EQ PUSH2 0x15BA JUMPI DUP1 PUSH4 0xBFCA1CD0 EQ PUSH2 0x12F7 JUMPI DUP1 PUSH4 0xBFF1F9E1 EQ PUSH2 0x159C JUMPI DUP1 PUSH4 0xC3C5A547 EQ PUSH2 0x1561 JUMPI DUP1 PUSH4 0xCB56E632 EQ PUSH2 0x14B5 JUMPI DUP1 PUSH4 0xD0AC2596 EQ PUSH2 0x12FC JUMPI DUP1 PUSH4 0xD3D50D95 EQ PUSH2 0x12F7 JUMPI DUP1 PUSH4 0xD3E78E4D EQ PUSH2 0x12B2 JUMPI DUP1 PUSH4 0xD7A71868 EQ PUSH2 0x11E7 JUMPI DUP1 PUSH4 0xDBBDF083 EQ PUSH2 0xFD0 JUMPI DUP1 PUSH4 0xDDAA26AD EQ PUSH2 0xF95 JUMPI DUP1 PUSH4 0xE649F378 EQ PUSH2 0xF70 JUMPI DUP1 PUSH4 0xE6BB42D8 EQ PUSH2 0xE84 JUMPI DUP1 PUSH4 0xEC09306E EQ PUSH2 0xE60 JUMPI DUP1 PUSH4 0xECEF6CFF EQ PUSH2 0xE14 JUMPI DUP1 PUSH4 0xF12C860A EQ PUSH2 0xD25 JUMPI DUP1 PUSH4 0xF28D3D5E EQ PUSH2 0xCFB JUMPI DUP1 PUSH4 0xF2FDE38B EQ PUSH2 0xC63 JUMPI DUP1 PUSH4 0xF343432C EQ PUSH2 0xC45 JUMPI DUP1 PUSH4 0xFB2DDD70 EQ PUSH2 0x4B5 JUMPI DUP1 PUSH4 0xFDC61181 EQ PUSH2 0x47F JUMPI PUSH4 0xFF329E7C SUB PUSH2 0xF JUMPI CALLVALUE PUSH2 0x47C JUMPI PUSH1 0x20 CALLDATASIZE PUSH1 0x3 NOT ADD SLT PUSH2 0x47C JUMPI PUSH1 0x4 CALLDATALOAD SWAP1 CALLER DUP2 MSTORE PUSH1 0x1C PUSH1 0x20 MSTORE PUSH1 0x40 DUP2 KECCAK256 SLOAD PUSH2 0x3AD DUP2 ISZERO ISZERO PUSH2 0x3F63 JUMP JUMPDEST DUP2 MSTORE PUSH1 0x1D PUSH1 0x20 MSTORE PUSH1 0x3 PUSH1 0x40 DUP3 KECCAK256 ADD SLOAD PUSH2 0x3D2 PUSH1 0xD PUSH2 0x3CB DUP6 DUP5 PUSH2 0x3BEF JUMP JUMPDEST GT ISZERO PUSH2 0x3E56 JUMP JUMPDEST PUSH2 0x3DB DUP4 PUSH2 0x4AEA JUMP JUMPDEST SWAP3 DUP3 DUP1 SWAP3 JUMPDEST DUP3 DUP5 LT PUSH2 0x409 JUMPI DUP6 DUP6 PUSH2 0x405 PUSH1 0x40 MLOAD SWAP3 DUP4 SWAP3 DUP4 MSTORE PUSH1 0x40 PUSH1 0x20 DUP5 ADD MSTORE PUSH1 0x40 DUP4 ADD SWAP1 PUSH2 0x38DB JUMP JUMPDEST SUB SWAP1 RETURN JUMPDEST SWAP1 SWAP2 SWAP3 SWAP4 PUSH2 0x417 DUP6 DUP4 PUSH2 0x3BEF JUMP JUMPDEST PUSH1 0x0 NOT DUP2 ADD SWAP1 DUP2 GT PUSH2 0x468 JUMPI PUSH2 0x460 SWAP2 PUSH2 0x448 PUSH2 0x436 PUSH2 0x45A SWAP4 PUSH2 0x3AF6 JUMP JUMPDEST PUSH1 0x64 PUSH2 0x441 DUP3 PUSH2 0x3A94 JUMP JUMPDEST DIV SWAP1 PUSH2 0x3BEF JUMP JUMPDEST SWAP1 DUP2 PUSH2 0x454 DUP10 DUP12 PUSH2 0x4B1C JUMP JUMPDEST MSTORE PUSH2 0x3BEF JUMP JUMPDEST SWAP5 PUSH2 0x3CBD JUMP JUMPDEST SWAP3 SWAP2 SWAP1 PUSH2 0x3E0 JUMP JUMPDEST PUSH4 0x4E487B71 PUSH1 0xE0 SHL DUP5 MSTORE PUSH1 0x11 PUSH1 0x4 MSTORE PUSH1 0x24 DUP5 REVERT JUMPDEST DUP1 REVERT JUMPDEST POP CALLVALUE PUSH2 0x47C JUMPI PUSH1 0x20 CALLDATASIZE PUSH1 0x3 NOT ADD SLT PUSH2 0x47C JUMPI PUSH1 0x20 SWAP1 PUSH1 0x4 CALLDATALOAD DUP2 MSTORE PUSH1 0x1D DUP3 MSTORE PUSH1 0x40 PUSH1 0x1 DUP1 PUSH1 0xA0 SHL SUB SWAP2 KECCAK256 SLOAD PUSH1 0x8 SHR AND PUSH1 0x40 MLOAD SWAP1 DUP2 MSTORE RETURN JUMPDEST POP PUSH1 0x20 CALLDATASIZE PUSH1 0x3 NOT ADD SLT PUSH2 0x47C JUMPI PUSH2 0x4CA PUSH2 0x3DBA JUMP JUMPDEST PUSH2 0x4D9 PUSH1 0xFF PUSH1 0x19 SLOAD AND ISZERO PUSH2 0x3B32 JUMP JUMPDEST CALLER DUP2 MSTORE PUSH1 0x1C PUSH1 0x20 MSTORE PUSH1 0x40 DUP2 KECCAK256 SLOAD SWAP1 PUSH2 0x4F2 DUP3 ISZERO ISZERO PUSH2 0x3F63 JUMP JUMPDEST DUP2 DUP2 MSTORE PUSH1 0x1D PUSH1 0x20 MSTORE PUSH1 0x40 DUP2 KECCAK256 SLOAD PUSH2 0x519 SWAP1 CALLER PUSH1 0x8 SWAP2 SWAP1 SWAP2 SHR PUSH1 0x1 PUSH1 0x1 PUSH1 0xA0 SHL SUB AND EQ PUSH2 0x3E1B JUMP JUMPDEST DUP2 DUP2 MSTORE PUSH1 0x1D PUSH1 0x20 MSTORE PUSH2 0x539 PUSH1 0xD PUSH2 0x3CB PUSH1 0x4 CALLDATALOAD PUSH1 0x3 PUSH1 0x40 DUP7 KECCAK256 ADD SLOAD PUSH2 0x3BEF JUMP JUMPDEST DUP1 DUP2 SWAP3 JUMPDEST PUSH1 0x4 CALLDATALOAD DUP5 LT PUSH2 0xBF9 JUMPI DUP3 SWAP4 POP PUSH2 0x555 DUP3 CALLVALUE LT ISZERO PUSH2 0x3E96 JUMP JUMPDEST DUP3 SWAP1 JUMPDEST PUSH1 0x4 CALLDATALOAD DUP3 LT PUSH2 0x594 JUMPI POP POP DUP1 CALLVALUE GT PUSH2 0x573 JUMPI JUMPDEST POP PUSH1 0x1 SWAP1 SSTORE DUP1 RETURN JUMPDEST DUP2 DUP1 PUSH2 0x580 DUP2 SWAP4 CALLVALUE PUSH2 0x3D6D JUMP JUMPDEST CALLER GAS CALL POP PUSH2 0x58C PUSH2 0x3D7A JUMP JUMPDEST POP DUP1 CODESIZE PUSH2 0x56B JUMP JUMPDEST DUP1 SWAP2 SWAP4 MSTORE PUSH1 0x1D PUSH1 0x20 MSTORE PUSH2 0x5AE DUP4 PUSH1 0x3 PUSH1 0x40 DUP8 KECCAK256 ADD SLOAD PUSH2 0x3BEF JUMP JUMPDEST DUP1 PUSH1 0x0 NOT DUP2 ADD GT PUSH2 0xBE5 JUMPI PUSH2 0x5C6 SWAP1 PUSH1 0x0 NOT ADD PUSH2 0x3AF6 JUMP JUMPDEST PUSH1 0x64 PUSH2 0x5D1 DUP3 PUSH2 0x3A94 JUMP JUMPDEST DIV DUP3 DUP7 MSTORE PUSH1 0x1D PUSH1 0x20 MSTORE PUSH1 0x3 PUSH1 0x40 DUP8 KECCAK256 ADD PUSH2 0x5EB DUP2 SLOAD PUSH2 0x3CBD JUMP JUMPDEST SWAP1 SSTORE DUP3 DUP7 MSTORE PUSH1 0x1E PUSH1 0x20 MSTORE PUSH1 0x40 DUP7 KECCAK256 PUSH2 0x604 DUP4 DUP3 SLOAD PUSH2 0x3BEF JUMP JUMPDEST SWAP1 SSTORE DUP1 PUSH2 0xB2C JUMPI JUMPDEST POP PUSH1 0x64 PUSH2 0x618 DUP3 PUSH2 0x3A94 JUMP JUMPDEST DIV SWAP4 DUP5 PUSH2 0xAB5 JUMPI JUMPDEST PUSH2 0x62A DUP3 DUP5 PUSH2 0x438D JUMP JUMPDEST SWAP5 DUP4 DUP8 MSTORE PUSH1 0x1D PUSH1 0x20 MSTORE PUSH1 0x3 PUSH1 0x40 DUP9 KECCAK256 ADD SLOAD SWAP6 DUP7 PUSH1 0x0 NOT DUP2 ADD GT PUSH2 0xAA1 JUMPI SWAP1 PUSH2 0x651 SWAP2 PUSH2 0x3D6D JUMP JUMPDEST PUSH1 0x0 DUP5 DUP2 MSTORE PUSH1 0x1D PUSH1 0x20 MSTORE PUSH1 0x40 DUP2 KECCAK256 PUSH1 0x2 ADD SLOAD DUP2 SWAP1 JUMPDEST DUP10 PUSH1 0xD DUP4 LT DUP1 PUSH2 0xA98 JUMPI JUMPDEST ISZERO PUSH2 0xA8F JUMPI POP DUP1 PUSH1 0x0 MSTORE PUSH1 0x1D PUSH1 0x20 MSTORE PUSH1 0x40 PUSH1 0x0 KECCAK256 PUSH1 0x0 NOT DUP11 ADD PUSH1 0x3 DUP3 ADD SLOAD GT DUP1 PUSH2 0xA80 JUMPI JUMPDEST ISZERO PUSH2 0x9A7 JUMPI POP DUP1 SWAP2 SWAP3 POP PUSH1 0x0 MSTORE PUSH1 0x1D PUSH1 0x20 MSTORE PUSH1 0x0 DUP1 DUP1 DUP1 DUP7 PUSH1 0x1 DUP1 PUSH1 0xA0 SHL SUB PUSH1 0x40 DUP4 KECCAK256 SLOAD PUSH1 0x8 SHR AND GAS CALL PUSH2 0x6C8 PUSH2 0x3D7A JUMP JUMPDEST POP ISZERO PUSH2 0x92F JUMPI DUP1 PUSH1 0x0 MSTORE PUSH1 0x1E PUSH1 0x20 MSTORE PUSH1 0x4 PUSH1 0x40 PUSH1 0x0 KECCAK256 ADD PUSH2 0x6EA DUP5 DUP3 SLOAD PUSH2 0x3BEF JUMP JUMPDEST SWAP1 SSTORE DUP1 PUSH1 0x0 MSTORE PUSH1 0x1E PUSH1 0x20 MSTORE PUSH1 0x1 PUSH1 0x40 PUSH1 0x0 KECCAK256 ADD PUSH2 0x708 DUP5 DUP3 SLOAD PUSH2 0x3BEF JUMP JUMPDEST SWAP1 SSTORE PUSH1 0x1 SWAP2 PUSH1 0x1 DUP2 ADD DUP2 GT PUSH2 0x919 JUMPI PUSH1 0x40 DUP1 MLOAD DUP6 DUP2 MSTORE PUSH1 0x0 NOT SWAP11 SWAP1 SWAP11 ADD PUSH1 0x20 DUP12 ADD MSTORE PUSH1 0x1 SWAP2 DUP3 ADD SWAP1 DUP11 ADD MSTORE PUSH1 0x60 DUP10 ADD MSTORE TIMESTAMP PUSH1 0x80 DUP10 ADD MSTORE DUP9 SWAP8 DUP7 SWAP1 PUSH1 0x0 DUP1 MLOAD PUSH1 0x20 PUSH2 0x539C DUP4 CODECOPY DUP2 MLOAD SWAP2 MSTORE SWAP1 PUSH1 0xA0 SWAP1 LOG3 JUMPDEST ISZERO DUP1 PUSH2 0x910 JUMPI JUMPDEST PUSH2 0x8D5 JUMPI JUMPDEST POP DUP3 DUP6 MSTORE PUSH1 0x1D PUSH1 0x20 MSTORE PUSH1 0x40 DUP6 KECCAK256 PUSH1 0x3 DUP2 ADD SLOAD PUSH1 0x4 SWAP1 SWAP2 ADD SLOAD SWAP1 PUSH32 0x0 PUSH1 0x1 PUSH1 0x1 PUSH1 0xA0 SHL SUB AND EXTCODESIZE ISZERO PUSH2 0x8D1 JUMPI PUSH1 0x40 MLOAD PUSH4 0x66F05661 PUSH1 0xE1 SHL DUP2 MSTORE PUSH1 0x4 DUP2 ADD DUP7 SWAP1 MSTORE PUSH1 0x24 DUP2 ADD SWAP2 SWAP1 SWAP2 MSTORE PUSH1 0x44 DUP2 ADD SWAP2 SWAP1 SWAP2 MSTORE DUP6 DUP2 PUSH1 0x64 DUP2 DUP4 PUSH1 0x1 PUSH1 0x1 PUSH1 0xA0 SHL SUB PUSH32 0x0 AND GAS CALL DUP1 ISZERO PUSH2 0x8C6 JUMPI DUP5 SWAP2 DUP8 SWAP2 PUSH2 0x8AB JUMPI JUMPDEST POP PUSH2 0x8A5 SWAP4 DUP3 PUSH32 0x430828E9E608608C6F34402A3BBF7CCFF1CD71AC750C401A12C72E4578350F96 SWAP3 MSTORE PUSH1 0x1D PUSH1 0x20 MSTORE PUSH1 0x3 PUSH1 0x40 DUP10 KECCAK256 ADD SLOAD SWAP1 PUSH2 0x86A PUSH1 0x40 MLOAD SWAP3 DUP4 SWAP3 TIMESTAMP SWAP2 DUP5 PUSH1 0x40 SWAP2 SWAP5 SWAP4 SWAP3 PUSH1 0x60 DUP3 ADD SWAP6 DUP3 MSTORE PUSH1 0x20 DUP3 ADD MSTORE ADD MSTORE JUMP JUMPDEST SUB SWAP1 LOG2 DUP3 DUP6 MSTORE PUSH1 0x1D PUSH1 0x20 MSTORE PUSH2 0x8A0 PUSH1 0x3 PUSH1 0x40 DUP8 KECCAK256 ADD SLOAD PUSH1 0x40 MLOAD SWAP1 PUSH2 0x88D DUP3 PUSH2 0x397D JUMP JUMPDEST DUP6 DUP3 MSTORE PUSH1 0x20 DUP3 ADD MSTORE TIMESTAMP PUSH1 0x40 DUP3 ADD MSTORE PUSH2 0x3CCC JUMP JUMPDEST PUSH2 0x3CBD JUMP JUMPDEST SWAP1 PUSH2 0x558 JUMP JUMPDEST PUSH2 0x8B6 SWAP2 SWAP3 POP PUSH2 0x3953 JUMP JUMPDEST PUSH2 0x8C2 JUMPI DUP3 DUP6 CODESIZE PUSH2 0x811 JUMP JUMPDEST DUP5 DUP1 REVERT JUMPDEST PUSH1 0x40 MLOAD RETURNDATASIZE DUP9 DUP3 RETURNDATACOPY RETURNDATASIZE SWAP1 REVERT JUMPDEST DUP7 DUP1 REVERT JUMPDEST PUSH1 0x40 MLOAD PUSH2 0x90A SWAP2 PUSH2 0x8E5 DUP3 PUSH2 0x3999 JUMP JUMPDEST PUSH1 0x13 DUP3 MSTORE PUSH19 0x1B585D1C9A5E17DB9BD7DC5D585B1A599A5959 PUSH1 0x6A SHL PUSH1 0x20 DUP4 ADD MSTORE PUSH2 0x42C1 JUMP JUMPDEST CODESIZE PUSH2 0x763 JUMP JUMPDEST POP DUP1 ISZERO ISZERO PUSH2 0x75E JUMP JUMPDEST PUSH4 0x4E487B71 PUSH1 0xE0 SHL PUSH1 0x0 MSTORE PUSH1 0x11 PUSH1 0x4 MSTORE PUSH1 0x24 PUSH1 0x0 REVERT JUMPDEST POP POP SWAP5 POP DUP3 PUSH1 0x0 MSTORE PUSH1 0x1D PUSH1 0x20 MSTORE PUSH1 0x0 DUP1 DUP1 DUP1 DUP9 PUSH1 0x1 DUP1 PUSH1 0xA0 SHL SUB PUSH1 0x40 DUP4 KECCAK256 SLOAD PUSH1 0x8 SHR AND GAS CALL PUSH2 0x95C PUSH2 0x3D7A JUMP JUMPDEST POP ISZERO PUSH2 0x96B JUMPI DUP6 SWAP5 PUSH1 0x1 PUSH2 0x757 JUMP JUMPDEST PUSH1 0x40 MLOAD PUSH3 0x461BCD PUSH1 0xE5 SHL DUP2 MSTORE PUSH1 0x20 PUSH1 0x4 DUP3 ADD MSTORE PUSH1 0x14 PUSH1 0x24 DUP3 ADD MSTORE PUSH20 0x13585D1C9A5E081C99599D5B990819985A5B1959 PUSH1 0x62 SHL PUSH1 0x44 DUP3 ADD MSTORE PUSH1 0x64 SWAP1 REVERT JUMPDEST SLOAD PUSH1 0xFF AND PUSH2 0x9D0 JUMPI JUMPDEST PUSH1 0x0 MSTORE PUSH1 0x1D PUSH1 0x20 MSTORE PUSH2 0x9CA PUSH1 0x2 PUSH1 0x40 PUSH1 0x0 KECCAK256 ADD SLOAD SWAP2 PUSH2 0x3CBD JUMP JUMPDEST SWAP1 PUSH2 0x666 JUMP JUMPDEST PUSH1 0x1 DUP3 ADD DUP3 GT PUSH2 0x919 JUMPI PUSH1 0x40 DUP1 MLOAD DUP6 DUP2 MSTORE PUSH1 0x0 NOT DUP12 ADD PUSH1 0x20 DUP3 ADD MSTORE PUSH1 0x1 DUP5 ADD SWAP2 DUP2 ADD SWAP2 SWAP1 SWAP2 MSTORE PUSH1 0x0 PUSH1 0x60 DUP3 ADD MSTORE TIMESTAMP PUSH1 0x80 DUP3 ADD MSTORE DUP2 SWAP1 DUP9 SWAP1 PUSH1 0x0 DUP1 MLOAD PUSH1 0x20 PUSH2 0x539C DUP4 CODECOPY DUP2 MLOAD SWAP2 MSTORE SWAP1 PUSH1 0xA0 SWAP1 LOG3 DUP7 DUP2 PUSH32 0x587D8F9CC4F7AE2F12F916B8AC03AC5414969DFAF447B84ACBB1E2B171CB7EB2 PUSH1 0xA0 PUSH1 0x40 MLOAD DUP9 DUP2 MSTORE PUSH1 0x18 PUSH1 0x60 DUP1 PUSH1 0x20 DUP5 ADD MSTORE DUP3 ADD MSTORE PUSH24 0x9CDEE840E2EAC2D8D2CCD2CAC840CCDEE440DAC2E8E4D2F PUSH1 0x43 SHL PUSH1 0x80 DUP3 ADD MSTORE TIMESTAMP PUSH1 0x40 DUP3 ADD MSTORE LOG3 PUSH2 0x9B0 JUMP JUMPDEST POP PUSH1 0x2 PUSH1 0x4 DUP3 ADD SLOAD LT ISZERO PUSH2 0x696 JUMP JUMPDEST SWAP9 POP POP POP PUSH2 0x757 JUMP JUMPDEST POP DUP2 ISZERO ISZERO PUSH2 0x671 JUMP JUMPDEST PUSH4 0x4E487B71 PUSH1 0xE0 SHL DUP9 MSTORE PUSH1 0x11 PUSH1 0x4 MSTORE PUSH1 0x24 DUP9 REVERT JUMPDEST PUSH2 0xAF7 DUP7 DUP1 DUP1 DUP1 DUP10 PUSH32 0x0 PUSH1 0x1 PUSH1 0x1 PUSH1 0xA0 SHL SUB AND GAS CALL PUSH2 0xAF1 PUSH2 0x3D7A JUMP JUMPDEST POP PUSH2 0x3F17 JUMP JUMPDEST DUP3 PUSH32 0xB74A7140EF81C80D0E213846B7B10B59F9C366B463E36E1F98BF00EF44C670B4 PUSH1 0x40 DUP1 MLOAD DUP9 DUP2 MSTORE TIMESTAMP PUSH1 0x20 DUP3 ADD MSTORE LOG2 PUSH2 0x620 JUMP JUMPDEST PUSH2 0xB6E DUP7 DUP1 DUP1 DUP1 DUP6 PUSH32 0x0 PUSH1 0x1 PUSH1 0x1 PUSH1 0xA0 SHL SUB AND GAS CALL PUSH2 0xB68 PUSH2 0x3D7A JUMP JUMPDEST POP PUSH2 0x3ED5 JUMP JUMPDEST DUP3 DUP7 MSTORE PUSH1 0x1D PUSH1 0x20 MSTORE PUSH1 0x3 PUSH1 0x40 DUP8 KECCAK256 ADD SLOAD SWAP1 DUP2 PUSH1 0x0 NOT DUP2 ADD GT PUSH2 0xBD1 JUMPI PUSH1 0x40 DUP1 MLOAD SWAP2 DUP3 MSTORE PUSH1 0x0 NOT SWAP3 SWAP1 SWAP3 ADD PUSH1 0x20 DUP3 ADD MSTORE TIMESTAMP SWAP2 DUP2 ADD SWAP2 SWAP1 SWAP2 MSTORE PUSH32 0xEDD09F264659CE99B52FD2A2D4F09E551EB001FE3FC56FFD5704FC1F402BC211 SWAP1 PUSH1 0x60 SWAP1 LOG1 CODESIZE PUSH2 0x60C JUMP JUMPDEST PUSH4 0x4E487B71 PUSH1 0xE0 SHL DUP8 MSTORE PUSH1 0x11 PUSH1 0x4 MSTORE PUSH1 0x24 DUP8 REVERT JUMPDEST PUSH4 0x4E487B71 PUSH1 0xE0 SHL DUP6 MSTORE PUSH1 0x11 PUSH1 0x4 MSTORE PUSH1 0x24 DUP6 REVERT JUMPDEST SWAP1 DUP2 DUP4 MSTORE PUSH1 0x1D PUSH1 0x20 MSTORE PUSH2 0xC13 DUP5 PUSH1 0x3 PUSH1 0x40 DUP7 KECCAK256 ADD SLOAD PUSH2 0x3BEF JUMP JUMPDEST PUSH1 0x0 NOT DUP2 ADD SWAP1 DUP2 GT PUSH2 0x468 JUMPI PUSH2 0xC3E SWAP2 PUSH2 0xC32 PUSH2 0x436 PUSH2 0xC38 SWAP4 PUSH2 0x3AF6 JUMP JUMPDEST SWAP1 PUSH2 0x3BEF JUMP JUMPDEST SWAP4 PUSH2 0x3CBD JUMP JUMPDEST SWAP3 SWAP1 PUSH2 0x53D JUMP JUMPDEST POP CALLVALUE PUSH2 0x47C JUMPI DUP1 PUSH1 0x3 NOT CALLDATASIZE ADD SLT PUSH2 0x47C JUMPI PUSH1 0x20 PUSH1 0x4 SLOAD PUSH1 0x40 MLOAD SWAP1 DUP2 MSTORE RETURN JUMPDEST POP CALLVALUE PUSH2 0x47C JUMPI PUSH1 0x20 CALLDATASIZE PUSH1 0x3 NOT ADD SLT PUSH2 0x47C JUMPI PUSH2 0xC7D PUSH2 0x38C5 JUMP JUMPDEST PUSH2 0xC85 PUSH2 0x3A2C JUMP JUMPDEST PUSH2 0xC8D PUSH2 0x3A2C JUMP JUMPDEST PUSH1 0x1 PUSH1 0x1 PUSH1 0xA0 SHL SUB SWAP1 DUP2 AND SWAP1 DUP2 ISZERO PUSH2 0xCE2 JUMPI PUSH1 0x1 SLOAD DUP3 PUSH12 0xFFFFFFFFFFFFFFFFFFFFFFFF PUSH1 0xA0 SHL DUP3 AND OR PUSH1 0x1 SSTORE AND PUSH32 0x8BE0079C531659141344CD1FD0A4F28419497F9722A3DAAFE3B4186F6B6457E0 PUSH1 0x0 DUP1 LOG3 DUP1 RETURN JUMPDEST PUSH1 0x40 MLOAD PUSH4 0x1E4FBDF7 PUSH1 0xE0 SHL DUP2 MSTORE PUSH1 0x4 DUP2 ADD DUP5 SWAP1 MSTORE PUSH1 0x24 SWAP1 REVERT JUMPDEST POP CALLVALUE PUSH2 0x47C JUMPI DUP1 PUSH1 0x3 NOT CALLDATASIZE ADD SLT PUSH2 0x47C JUMPI PUSH1 0x1 SLOAD PUSH1 0x40 MLOAD PUSH1 0x1 PUSH1 0x1 PUSH1 0xA0 SHL SUB SWAP1 SWAP2 AND ISZERO DUP2 MSTORE PUSH1 0x20 SWAP1 RETURN JUMPDEST POP CALLVALUE PUSH2 0x47C JUMPI PUSH1 0x40 CALLDATASIZE PUSH1 0x3 NOT ADD SLT PUSH2 0x47C JUMPI PUSH2 0xD3F PUSH2 0x38C5 JUMP JUMPDEST PUSH1 0x1 PUSH1 0x1 PUSH1 0xA0 SHL SUB AND DUP2 MSTORE PUSH1 0x1C PUSH1 0x20 MSTORE PUSH1 0x40 DUP2 KECCAK256 SLOAD PUSH1 0x24 SWAP1 DUP2 CALLDATALOAD SWAP1 PUSH2 0xD65 DUP2 ISZERO ISZERO PUSH2 0x3F63 JUMP JUMPDEST DUP4 MSTORE PUSH1 0x1D PUSH1 0x20 MSTORE PUSH1 0x3 PUSH1 0x40 DUP5 KECCAK256 ADD SLOAD SWAP1 PUSH2 0xD84 PUSH1 0xD PUSH2 0x3CB DUP4 DUP6 PUSH2 0x3BEF JUMP JUMPDEST PUSH2 0xD8D DUP2 PUSH2 0x4AEA JUMP JUMPDEST SWAP4 DUP1 SWAP4 DUP2 SWAP4 JUMPDEST DUP4 DUP6 LT PUSH2 0xDB8 JUMPI DUP7 DUP7 PUSH2 0x405 PUSH1 0x40 MLOAD SWAP3 DUP4 SWAP3 DUP4 MSTORE PUSH1 0x40 PUSH1 0x20 DUP5 ADD MSTORE PUSH1 0x40 DUP4 ADD SWAP1 PUSH2 0x38DB JUMP JUMPDEST SWAP1 SWAP2 SWAP3 SWAP4 SWAP5 PUSH2 0xDC7 DUP7 DUP4 PUSH2 0x3BEF JUMP JUMPDEST PUSH1 0x0 NOT DUP2 ADD SWAP1 DUP2 GT PUSH2 0xE01 JUMPI PUSH2 0xDF8 SWAP2 PUSH2 0xDE6 PUSH2 0x436 PUSH2 0xDF2 SWAP4 PUSH2 0x3AF6 JUMP JUMPDEST SWAP1 DUP2 PUSH2 0x454 DUP11 DUP13 PUSH2 0x4B1C JUMP JUMPDEST SWAP6 PUSH2 0x3CBD JUMP JUMPDEST SWAP4 SWAP3 SWAP2 SWAP1 PUSH2 0xD93 JUMP JUMPDEST PUSH4 0x4E487B71 PUSH1 0xE0 SHL DUP6 MSTORE PUSH1 0x11 PUSH1 0x4 MSTORE DUP4 DUP6 REVERT JUMPDEST POP CALLVALUE PUSH2 0x47C JUMPI DUP1 PUSH1 0x3 NOT CALLDATASIZE ADD SLT PUSH2 0x47C JUMPI PUSH1 0x80 PUSH2 0xE2F PUSH2 0x5217 JUMP JUMPDEST PUSH1 0x6 SLOAD PUSH2 0xE3A PUSH2 0x5386 JUMP JUMPDEST PUSH2 0xE46 PUSH1 0x8 SLOAD TIMESTAMP PUSH2 0x3D6D JUMP JUMPDEST SWAP2 PUSH1 0x40 MLOAD SWAP4 DUP5 MSTORE PUSH1 0x20 DUP5 ADD MSTORE ISZERO ISZERO PUSH1 0x40 DUP4 ADD MSTORE PUSH1 0x60 DUP3 ADD MSTORE RETURN JUMPDEST POP CALLVALUE PUSH2 0x47C JUMPI DUP1 PUSH1 0x3 NOT CALLDATASIZE ADD SLT PUSH2 0x47C JUMPI PUSH1 0x20 PUSH1 0xFF PUSH1 0x1 SLOAD PUSH1 0xA0 SHR AND PUSH1 0x40 MLOAD SWAP1 DUP2 MSTORE RETURN JUMPDEST POP CALLVALUE PUSH2 0x47C JUMPI DUP1 PUSH1 0x3 NOT CALLDATASIZE ADD SLT PUSH2 0x47C JUMPI PUSH1 0x40 MLOAD PUSH2 0xEA1 DUP2 PUSH2 0x39B5 JUMP JUMPDEST PUSH2 0x1A0 SWAP2 DUP3 CALLDATASIZE DUP4 CALLDATACOPY PUSH1 0x40 MLOAD SWAP3 PUSH2 0xEB6 DUP5 PUSH2 0x39B5 JUMP JUMPDEST DUP1 CALLDATASIZE DUP6 CALLDATACOPY PUSH1 0x40 MLOAD SWAP2 PUSH2 0xEC7 DUP4 PUSH2 0x39B5 JUMP JUMPDEST DUP2 CALLDATASIZE DUP5 CALLDATACOPY JUMPDEST PUSH1 0xD DUP2 LT PUSH2 0xF03 JUMPI POP SWAP1 PUSH2 0xEF6 PUSH2 0x4E0 SWAP5 PUSH2 0xF01 SWAP4 PUSH2 0xEEE PUSH1 0x40 MLOAD DUP1 SWAP8 PUSH2 0x392B JUMP JUMPDEST DUP6 ADD SWAP1 PUSH2 0x392B JUMP JUMPDEST PUSH2 0x340 DUP4 ADD SWAP1 PUSH2 0x392B JUMP JUMPDEST RETURN JUMPDEST DUP1 PUSH2 0xF10 PUSH2 0xF6B SWAP3 PUSH2 0x3AF6 JUMP JUMPDEST PUSH2 0xF1A DUP3 DUP8 PUSH2 0x4CF3 JUMP JUMPDEST MSTORE PUSH1 0x64 PUSH2 0xF30 PUSH2 0xF2A DUP4 DUP9 PUSH2 0x4CF3 JUMP JUMPDEST MLOAD PUSH2 0x3A94 JUMP JUMPDEST DIV PUSH2 0xF3B DUP3 DUP9 PUSH2 0x4CF3 JUMP JUMPDEST MSTORE PUSH2 0xF5B PUSH2 0xF49 DUP3 DUP8 PUSH2 0x4CF3 JUMP JUMPDEST MLOAD PUSH2 0xF54 DUP4 DUP10 PUSH2 0x4CF3 JUMP JUMPDEST MLOAD SWAP1 PUSH2 0x3BEF JUMP JUMPDEST PUSH2 0xF65 DUP3 DUP7 PUSH2 0x4CF3 JUMP JUMPDEST MSTORE PUSH2 0x3CBD JUMP JUMPDEST PUSH2 0xECC JUMP JUMPDEST POP CALLVALUE PUSH2 0x47C JUMPI DUP1 PUSH1 0x3 NOT CALLDATASIZE ADD SLT PUSH2 0x47C JUMPI PUSH1 0x20 PUSH2 0xF8B PUSH2 0x5386 JUMP JUMPDEST PUSH1 0x40 MLOAD SWAP1 ISZERO ISZERO DUP2 MSTORE RETURN JUMPDEST POP CALLVALUE PUSH2 0x47C JUMPI DUP1 PUSH1 0x3 NOT CALLDATASIZE ADD SLT PUSH2 0x47C JUMPI PUSH1 0x20 PUSH1 0x40 MLOAD PUSH32 0x0 DUP2 MSTORE RETURN JUMPDEST POP PUSH1 0x40 CALLDATASIZE PUSH1 0x3 NOT ADD SLT PUSH2 0x47C JUMPI PUSH1 0x24 CALLDATALOAD SWAP1 PUSH1 0x1 PUSH1 0x1 PUSH1 0xA0 SHL SUB DUP3 AND PUSH1 0x4 CALLDATALOAD DUP2 DUP5 SUB PUSH2 0x11E2 JUMPI PUSH2 0xFFD PUSH2 0x3DBA JUMP JUMPDEST PUSH2 0x100C PUSH1 0xFF PUSH1 0x19 SLOAD AND ISZERO PUSH2 0x3B32 JUMP JUMPDEST DUP1 DUP3 DUP5 MSTORE PUSH1 0x20 SWAP2 PUSH1 0x1C DUP4 MSTORE PUSH2 0x1025 PUSH1 0x40 DUP7 KECCAK256 SLOAD ISZERO PUSH2 0x3B70 JUMP JUMPDEST PUSH2 0x1030 DUP5 ISZERO ISZERO PUSH2 0x3BB1 JUMP JUMPDEST DUP4 DUP6 MSTORE PUSH1 0x3 DUP4 MSTORE PUSH1 0x40 DUP6 KECCAK256 SLOAD DUP1 PUSH2 0x1185 JUMPI JUMPDEST POP DUP4 DUP6 MSTORE PUSH1 0x3 DUP4 MSTORE TIMESTAMP PUSH1 0x40 DUP7 KECCAK256 SSTORE DUP1 ISZERO SWAP1 DUP2 ISZERO PUSH2 0x116F JUMPI JUMPDEST POP PUSH2 0x1166 JUMPI JUMPDEST PUSH2 0x1068 PUSH2 0x3ACA JUMP JUMPDEST SWAP3 PUSH1 0x64 PUSH2 0x1074 DUP6 PUSH2 0x3A94 JUMP JUMPDEST DIV PUSH2 0x107F DUP2 DUP7 PUSH2 0x3BEF JUMP JUMPDEST SWAP5 PUSH2 0x108C DUP7 CALLVALUE LT ISZERO PUSH2 0x3BFC JUMP JUMPDEST PUSH1 0x1B SLOAD SWAP8 PUSH1 0x1 DUP10 ADD DUP1 SWAP10 GT PUSH2 0xAA1 JUMPI SWAP3 PUSH2 0x10FD PUSH2 0x1157 SWAP7 SWAP4 DUP7 SWAP4 PUSH2 0x10C8 DUP6 DUP14 SWAP10 PUSH1 0x1 SWAP10 DUP15 SWAP16 DUP16 PUSH1 0x40 SWAP1 DUP3 PUSH1 0x1B SSTORE DUP11 DUP2 MSTORE PUSH1 0x1C DUP14 MSTORE KECCAK256 SSTORE DUP12 PUSH2 0x486B JUMP JUMPDEST PUSH2 0x10D1 DUP9 PUSH2 0x3C40 JUMP JUMPDEST PUSH2 0x10DC PUSH1 0x1A SLOAD PUSH2 0x3CBD JUMP JUMPDEST PUSH1 0x1A SSTORE DUP8 DUP12 MSTORE PUSH1 0x1E DUP7 MSTORE PUSH1 0x40 DUP12 KECCAK256 PUSH2 0x10F5 DUP3 DUP3 SLOAD PUSH2 0x3BEF JUMP JUMPDEST SWAP1 SSTORE DUP8 PUSH2 0x3FEE JUMP JUMPDEST PUSH2 0x1107 DUP3 DUP7 PUSH2 0x49F9 JUMP JUMPDEST PUSH2 0x1110 DUP6 PUSH2 0x4C6F JUMP JUMPDEST DUP5 PUSH32 0x19871A311455A6A311F1A6DCEF0DC6478ACCCEA5A81B0BAFE39D188D098EFAF3 DUP5 PUSH1 0x40 MLOAD TIMESTAMP DUP2 MSTORE LOG4 PUSH1 0x40 MLOAD SWAP3 PUSH2 0x1147 DUP5 PUSH2 0x397D JUMP JUMPDEST DUP4 MSTORE DUP3 ADD MSTORE TIMESTAMP PUSH1 0x40 DUP3 ADD MSTORE PUSH2 0x3CCC JUMP JUMPDEST DUP1 CALLVALUE GT PUSH2 0x573 JUMPI POP PUSH1 0x1 SWAP1 SSTORE DUP1 RETURN JUMPDEST POP PUSH1 0x2 SLOAD PUSH2 0x1060 JUMP JUMPDEST DUP6 MSTORE POP PUSH1 0x1D DUP3 MSTORE PUSH1 0x40 DUP5 KECCAK256 SLOAD PUSH1 0xFF AND ISZERO CODESIZE PUSH2 0x105A JUMP JUMPDEST PUSH1 0x4 SLOAD PUSH2 0x1191 SWAP2 PUSH2 0x3BEF JUMP JUMPDEST TIMESTAMP LT PUSH2 0x119D JUMPI CODESIZE PUSH2 0x1042 JUMP JUMPDEST PUSH1 0x40 MLOAD PUSH3 0x461BCD PUSH1 0xE5 SHL DUP2 MSTORE PUSH1 0x4 DUP2 ADD DUP5 SWAP1 MSTORE PUSH1 0x1C PUSH1 0x24 DUP3 ADD MSTORE PUSH32 0x526567697374726174696F6E20636F6F6C646F776E2061637469766500000000 PUSH1 0x44 DUP3 ADD MSTORE PUSH1 0x64 SWAP1 REVERT JUMPDEST PUSH1 0x0 DUP1 REVERT JUMPDEST POP CALLVALUE PUSH2 0x47C JUMPI PUSH1 0x20 CALLDATASIZE PUSH1 0x3 NOT ADD SLT PUSH2 0x47C JUMPI PUSH1 0x4 CALLDATALOAD PUSH2 0x1204 PUSH2 0x3A2C JUMP JUMPDEST PUSH1 0xA SLOAD DUP2 LT ISZERO DUP1 PUSH2 0x12A6 JUMPI JUMPDEST ISZERO PUSH2 0x126B JUMPI PUSH32 0x31153501178701E5A0635CCBB27182B8B2DA7DF2576D99D2B5CD7FF4A2FDC564 SWAP1 PUSH1 0x6 SLOAD SWAP1 DUP1 PUSH1 0x6 SSTORE TIMESTAMP PUSH1 0x8 SSTORE PUSH2 0x1265 PUSH1 0x40 MLOAD SWAP3 DUP4 SWAP3 TIMESTAMP SWAP2 DUP5 PUSH1 0x40 SWAP2 SWAP5 SWAP4 SWAP3 PUSH1 0x60 DUP3 ADD SWAP6 DUP3 MSTORE PUSH1 0x20 DUP3 ADD MSTORE ADD MSTORE JUMP JUMPDEST SUB SWAP1 LOG1 DUP1 RETURN JUMPDEST PUSH1 0x40 MLOAD PUSH3 0x461BCD PUSH1 0xE5 SHL DUP2 MSTORE PUSH1 0x20 PUSH1 0x4 DUP3 ADD MSTORE PUSH1 0x13 PUSH1 0x24 DUP3 ADD MSTORE PUSH19 0x5072696365206F7574206F6620626F756E6473 PUSH1 0x68 SHL PUSH1 0x44 DUP3 ADD MSTORE PUSH1 0x64 SWAP1 REVERT JUMPDEST POP PUSH1 0xB SLOAD DUP2 GT ISZERO PUSH2 0x1210 JUMP JUMPDEST POP CALLVALUE PUSH2 0x47C JUMPI DUP1 PUSH1 0x3 NOT CALLDATASIZE ADD SLT PUSH2 0x47C JUMPI PUSH1 0x40 MLOAD PUSH32 0x0 PUSH1 0x1 PUSH1 0x1 PUSH1 0xA0 SHL SUB AND DUP2 MSTORE PUSH1 0x20 SWAP1 RETURN JUMPDEST PUSH2 0x390F JUMP JUMPDEST POP PUSH1 0x20 SWAP1 DUP2 PUSH1 0x3 NOT CALLDATASIZE ADD SLT PUSH2 0x47C JUMPI PUSH2 0x1313 PUSH2 0x38C5 JUMP JUMPDEST PUSH2 0x131B PUSH2 0x3DBA JUMP JUMPDEST PUSH2 0x132A PUSH1 0xFF PUSH1 0x19 SLOAD AND ISZERO PUSH2 0x3B32 JUMP JUMPDEST PUSH1 0x1 PUSH1 0x1 PUSH1 0xA0 SHL SUB AND DUP1 PUSH2 0x14A5 JUMPI POP DUP1 JUMPDEST DUP1 CALLER DUP4 MSTORE PUSH1 0x1C DUP5 MSTORE PUSH2 0x1351 PUSH1 0x40 DUP5 KECCAK256 SLOAD ISZERO PUSH2 0x3B70 JUMP JUMPDEST PUSH2 0x135C CALLER ISZERO ISZERO PUSH2 0x3BB1 JUMP JUMPDEST DUP1 ISZERO SWAP1 DUP2 ISZERO PUSH2 0x148F JUMPI JUMPDEST POP PUSH2 0x1468 JUMPI JUMPDEST PUSH2 0x1374 PUSH2 0x3ACA JUMP JUMPDEST SWAP3 PUSH1 0x64 PUSH2 0x1380 DUP6 PUSH2 0x3A94 JUMP JUMPDEST DIV SWAP2 PUSH2 0x138C DUP4 DUP7 PUSH2 0x3BEF JUMP JUMPDEST SWAP3 PUSH2 0x1399 DUP5 CALLVALUE LT ISZERO PUSH2 0x3BFC JUMP JUMPDEST PUSH1 0x1B SLOAD SWAP6 PUSH1 0x1 DUP8 ADD DUP1 SWAP8 GT PUSH2 0x1454 JUMPI SWAP3 DUP7 SWAP3 PUSH2 0x1408 PUSH1 0x1 SWAP4 PUSH2 0x1157 SWAP7 DUP10 SWAP11 PUSH1 0x1B SSTORE CALLER DUP11 MSTORE PUSH1 0x1C DUP6 MSTORE DUP7 PUSH1 0x40 DUP12 KECCAK256 SSTORE PUSH2 0x13D3 DUP5 DUP1 CALLER DUP11 PUSH2 0x486B JUMP JUMPDEST PUSH2 0x13DC DUP8 PUSH2 0x3C40 JUMP JUMPDEST PUSH2 0x13E7 PUSH1 0x1A SLOAD PUSH2 0x3CBD JUMP JUMPDEST PUSH1 0x1A SSTORE DUP7 DUP11 MSTORE PUSH1 0x1E DUP6 MSTORE PUSH1 0x40 DUP11 KECCAK256 PUSH2 0x1400 DUP3 DUP3 SLOAD PUSH2 0x3BEF JUMP JUMPDEST SWAP1 SSTORE DUP7 PUSH2 0x3FEE JUMP JUMPDEST PUSH2 0x1412 DUP2 DUP6 PUSH2 0x49F9 JUMP JUMPDEST PUSH2 0x141B DUP5 PUSH2 0x4C6F JUMP JUMPDEST PUSH1 0x40 MLOAD TIMESTAMP DUP2 MSTORE DUP5 PUSH32 0x19871A311455A6A311F1A6DCEF0DC6478ACCCEA5A81B0BAFE39D188D098EFAF3 DUP5 CALLER SWAP4 LOG4 PUSH1 0x40 MLOAD SWAP3 PUSH2 0x1147 DUP5 PUSH2 0x397D JUMP JUMPDEST PUSH4 0x4E487B71 PUSH1 0xE0 SHL DUP7 MSTORE PUSH1 0x11 PUSH1 0x4 MSTORE PUSH1 0x24 DUP7 REVERT JUMPDEST POP PUSH32 0x0 PUSH2 0x136C JUMP JUMPDEST DUP4 MSTORE POP PUSH1 0x1D DUP4 MSTORE PUSH1 0x40 DUP3 KECCAK256 SLOAD PUSH1 0xFF AND ISZERO CODESIZE PUSH2 0x1366 JUMP JUMPDEST DUP2 MSTORE PUSH1 0x1C DUP3 MSTORE PUSH1 0x40 DUP2 KECCAK256 SLOAD PUSH2 0x133B JUMP JUMPDEST POP CALLVALUE PUSH2 0x47C JUMPI PUSH1 0x20 CALLDATASIZE PUSH1 0x3 NOT ADD SLT PUSH2 0x47C JUMPI PUSH1 0x4 CALLDATALOAD PUSH2 0x14D2 PUSH2 0x3A2C JUMP JUMPDEST PUSH3 0x15180 DUP2 GT PUSH2 0x1528 JUMPI PUSH32 0x15F4327E5BA6F6A8870D2AF8E964A8EBB59CCDFBE26C3AD667762E74DFD3A5B4 SWAP1 PUSH1 0x4 SLOAD SWAP1 DUP1 PUSH1 0x4 SSTORE PUSH2 0x1265 PUSH1 0x40 MLOAD SWAP3 DUP4 SWAP3 TIMESTAMP SWAP2 DUP5 PUSH1 0x40 SWAP2 SWAP5 SWAP4 SWAP3 PUSH1 0x60 DUP3 ADD SWAP6 DUP3 MSTORE PUSH1 0x20 DUP3 ADD MSTORE ADD MSTORE JUMP JUMPDEST PUSH1 0x40 MLOAD PUSH3 0x461BCD PUSH1 0xE5 SHL DUP2 MSTORE PUSH1 0x20 PUSH1 0x4 DUP3 ADD MSTORE PUSH1 0x11 PUSH1 0x24 DUP3 ADD MSTORE PUSH17 0x436F6F6C646F776E20746F6F206C6F6E67 PUSH1 0x78 SHL PUSH1 0x44 DUP3 ADD MSTORE PUSH1 0x64 SWAP1 REVERT JUMPDEST POP CALLVALUE PUSH2 0x47C JUMPI PUSH1 0x20 CALLDATASIZE PUSH1 0x3 NOT ADD SLT PUSH2 0x47C JUMPI PUSH1 0x20 SWAP1 PUSH1 0x40 SWAP1 PUSH1 0x1 PUSH1 0x1 PUSH1 0xA0 SHL SUB PUSH2 0x1589 PUSH2 0x38C5 JUMP JUMPDEST AND DUP2 MSTORE PUSH1 0x1C DUP4 MSTORE KECCAK256 SLOAD ISZERO ISZERO PUSH1 0x40 MLOAD SWAP1 DUP2 MSTORE RETURN JUMPDEST POP CALLVALUE PUSH2 0x47C JUMPI DUP1 PUSH1 0x3 NOT CALLDATASIZE ADD SLT PUSH2 0x47C JUMPI PUSH1 0x20 PUSH1 0x1A SLOAD PUSH1 0x40 MLOAD SWAP1 DUP2 MSTORE RETURN JUMPDEST POP CALLVALUE PUSH2 0x47C JUMPI DUP1 PUSH1 0x3 NOT CALLDATASIZE ADD SLT PUSH2 0x47C JUMPI PUSH2 0x15D3 PUSH2 0x3A2C JUMP JUMPDEST PUSH1 0x19 SLOAD PUSH1 0xFF DUP2 AND ISZERO PUSH2 0x1615 JUMPI PUSH1 0xFF NOT AND PUSH1 0x19 SSTORE PUSH1 0x40 MLOAD TIMESTAMP DUP2 MSTORE PUSH32 0x107553D8191D85B405879CF752997865EDD48D94E20BDA4DD27223C94B31A7CC PUSH1 0x20 CALLER SWAP3 LOG2 DUP1 RETURN JUMPDEST PUSH1 0x40 MLOAD PUSH3 0x461BCD PUSH1 0xE5 SHL DUP2 MSTORE PUSH1 0x20 PUSH1 0x4 DUP3 ADD MSTORE PUSH1 0xA PUSH1 0x24 DUP3 ADD MSTORE PUSH10 0x139BDD081C185D5CD959 PUSH1 0xB2 SHL PUSH1 0x44 DUP3 ADD MSTORE PUSH1 0x64 SWAP1 REVERT JUMPDEST POP CALLVALUE PUSH2 0x47C JUMPI DUP1 PUSH1 0x3 NOT CALLDATASIZE ADD SLT PUSH2 0x47C JUMPI PUSH1 0x20 PUSH1 0x40 MLOAD PUSH1 0x2 DUP2 MSTORE RETURN JUMPDEST POP CALLVALUE PUSH2 0x47C JUMPI PUSH2 0x1672 CALLDATASIZE PUSH2 0x383B JUMP JUMPDEST SWAP1 PUSH2 0x167B PUSH2 0x3A2C JUMP JUMPDEST PUSH1 0xD DUP2 LT PUSH2 0x1688 DUP2 PUSH2 0x3A58 JUMP JUMPDEST DUP3 ISZERO PUSH2 0x16FE JUMPI ISZERO PUSH2 0x16EA JUMPI PUSH1 0xFF DUP2 PUSH2 0x16E4 PUSH32 0x1160DED273713B62692B83F3F861BFEF99579EAF0440D7A22D838A3D163922E SWAP4 PUSH1 0xC ADD DUP6 DUP2 SLOAD SWAP2 SSTORE PUSH1 0x40 MLOAD SWAP4 DUP5 SWAP4 AND SWAP6 TIMESTAMP SWAP2 DUP5 PUSH1 0x40 SWAP2 SWAP5 SWAP4 SWAP3 PUSH1 0x60 DUP3 ADD SWAP6 DUP3 MSTORE PUSH1 0x20 DUP3 ADD MSTORE ADD MSTORE JUMP JUMPDEST SUB SWAP1 LOG2 DUP1 RETURN JUMPDEST PUSH4 0x4E487B71 PUSH1 0xE0 SHL DUP4 MSTORE PUSH1 0x32 PUSH1 0x4 MSTORE PUSH1 0x24 DUP4 REVERT JUMPDEST PUSH1 0x40 MLOAD PUSH3 0x461BCD PUSH1 0xE5 SHL DUP2 MSTORE PUSH1 0x20 PUSH1 0x4 DUP3 ADD MSTORE PUSH1 0xC PUSH1 0x24 DUP3 ADD MSTORE PUSH12 0x125B9D985B1A590818DBDCDD PUSH1 0xA2 SHL PUSH1 0x44 DUP3 ADD MSTORE PUSH1 0x64 SWAP1 REVERT JUMPDEST POP CALLVALUE PUSH2 0x47C JUMPI PUSH1 0x20 CALLDATASIZE PUSH1 0x3 NOT ADD SLT PUSH2 0x47C JUMPI PUSH2 0x405 PUSH2 0x1752 PUSH1 0x4 CALLDATALOAD PUSH2 0x508B JUMP JUMPDEST PUSH1 0x40 DUP1 MLOAD SWAP4 DUP5 MSTORE SWAP2 ISZERO ISZERO PUSH1 0x20 DUP5 ADD MSTORE ISZERO ISZERO SWAP1 DUP3 ADD MSTORE SWAP1 DUP2 SWAP1 PUSH1 0x60 DUP3 ADD SWAP1 JUMP JUMPDEST POP CALLVALUE PUSH2 0x47C JUMPI PUSH1 0x20 CALLDATASIZE PUSH1 0x3 NOT ADD SLT PUSH2 0x47C JUMPI PUSH1 0x4 CALLDATALOAD PUSH1 0xA DUP2 LT ISZERO DUP1 PUSH2 0x1863 JUMPI JUMPDEST PUSH2 0x179A SWAP1 PUSH2 0x5050 JUMP JUMPDEST PUSH1 0x40 MLOAD PUSH4 0x197FF2E3 PUSH1 0xE3 SHL DUP2 MSTORE PUSH1 0x4 DUP2 ADD SWAP2 SWAP1 SWAP2 MSTORE PUSH1 0x60 DUP2 PUSH1 0x24 DUP2 PUSH32 0x0 PUSH1 0x1 PUSH1 0x1 PUSH1 0xA0 SHL SUB AND GAS STATICCALL DUP1 ISZERO PUSH2 0x1858 JUMPI DUP3 SWAP2 DUP4 DUP1 SWAP3 PUSH2 0x1814 JUMPI JUMPDEST POP POP PUSH2 0x405 SWAP1 PUSH1 0x40 MLOAD SWAP4 DUP5 SWAP4 DUP5 PUSH1 0x40 SWAP2 SWAP5 SWAP4 SWAP3 PUSH1 0x60 DUP3 ADD SWAP6 DUP3 MSTORE PUSH1 0x20 DUP3 ADD MSTORE ADD MSTORE JUMP JUMPDEST SWAP3 POP SWAP3 POP POP PUSH1 0x60 DUP3 RETURNDATASIZE DUP3 GT PUSH2 0x1850 JUMPI JUMPDEST DUP2 PUSH2 0x1831 PUSH1 0x60 SWAP4 DUP4 PUSH2 0x3A0A JUMP JUMPDEST DUP2 ADD SUB SLT PUSH2 0x47C JUMPI POP DUP1 MLOAD PUSH1 0x20 DUP3 ADD MLOAD PUSH1 0x40 SWAP1 SWAP3 ADD MLOAD PUSH2 0x405 CODESIZE PUSH2 0x17F1 JUMP JUMPDEST RETURNDATASIZE SWAP2 POP PUSH2 0x1824 JUMP JUMPDEST PUSH1 0x40 MLOAD RETURNDATASIZE DUP5 DUP3 RETURNDATACOPY RETURNDATASIZE SWAP1 REVERT JUMPDEST POP PUSH1 0xD DUP2 GT ISZERO PUSH2 0x1791 JUMP JUMPDEST POP CALLVALUE PUSH2 0x47C JUMPI DUP1 PUSH1 0x3 NOT CALLDATASIZE ADD SLT PUSH2 0x47C JUMPI PUSH1 0x40 MLOAD PUSH32 0x0 PUSH1 0x1 PUSH1 0x1 PUSH1 0xA0 SHL SUB AND DUP2 MSTORE PUSH1 0x20 SWAP1 RETURN JUMPDEST POP CALLVALUE PUSH2 0x47C JUMPI DUP1 PUSH1 0x3 NOT CALLDATASIZE ADD SLT PUSH2 0x47C JUMPI PUSH2 0x18CC PUSH2 0x4DC7 JUMP JUMPDEST SWAP2 PUSH2 0x18F3 PUSH1 0x40 SWAP6 SWAP3 SWAP6 MLOAD SWAP6 DUP7 SWAP6 DUP7 MSTORE PUSH1 0x20 SWAP3 DUP4 DUP8 ADD MSTORE PUSH1 0x80 PUSH1 0x40 DUP8 ADD MSTORE PUSH1 0x80 DUP7 ADD SWAP1 PUSH2 0x38DB JUMP JUMPDEST SWAP1 DUP5 DUP3 SUB PUSH1 0x60 DUP7 ADD MSTORE DUP1 DUP1 DUP6 MLOAD SWAP4 DUP5 DUP2 MSTORE ADD SWAP5 ADD SWAP3 JUMPDEST DUP3 DUP2 LT PUSH2 0x1918 JUMPI POP POP POP POP SUB SWAP1 RETURN JUMPDEST DUP4 MLOAD PUSH1 0x1 PUSH1 0x1 PUSH1 0xA0 SHL SUB AND DUP6 MSTORE DUP7 SWAP6 POP SWAP4 DUP2 ADD SWAP4 SWAP3 DUP2 ADD SWAP3 PUSH1 0x1 ADD PUSH2 0x1909 JUMP JUMPDEST POP CALLVALUE PUSH2 0x47C JUMPI DUP1 PUSH1 0x3 NOT CALLDATASIZE ADD SLT PUSH2 0x47C JUMPI PUSH2 0x1951 PUSH2 0x3A2C JUMP JUMPDEST PUSH1 0x1 DUP1 SLOAD PUSH1 0xFF PUSH1 0xA8 SHL NOT DUP2 AND PUSH1 0xA8 SWAP2 DUP3 SHR PUSH1 0xFF SWAP1 DUP2 AND ISZERO DUP4 SHL PUSH1 0xFF PUSH1 0xA8 SHL AND SWAP2 SWAP1 SWAP2 OR SWAP3 DUP4 SWAP1 SSTORE PUSH1 0x40 DUP1 MLOAD SWAP4 SWAP1 SWAP3 SHR AND ISZERO ISZERO DUP3 MSTORE TIMESTAMP PUSH1 0x20 DUP4 ADD MSTORE PUSH32 0xD6D5541F24EEDA38E8E8C51D930C6D7C5A2FDBC492C923CDB0AD0FB12C7F4649 SWAP2 SWAP1 DUP2 SWAP1 DUP2 ADD PUSH2 0x1265 JUMP JUMPDEST POP CALLVALUE PUSH2 0x47C JUMPI DUP1 PUSH1 0x3 NOT CALLDATASIZE ADD SLT PUSH2 0x47C JUMPI PUSH1 0x1 SLOAD PUSH1 0x40 MLOAD PUSH1 0x1 PUSH1 0x1 PUSH1 0xA0 SHL SUB SWAP1 SWAP2 AND DUP2 MSTORE PUSH1 0x20 SWAP1 RETURN JUMPDEST POP CALLVALUE PUSH2 0x47C JUMPI PUSH1 0x20 CALLDATASIZE PUSH1 0x3 NOT ADD SLT PUSH2 0x47C JUMPI PUSH1 0x20 SWAP1 PUSH1 0x40 SWAP1 PUSH1 0x1 PUSH1 0x1 PUSH1 0xA0 SHL SUB PUSH2 0x1A08 PUSH2 0x38C5 JUMP JUMPDEST AND DUP2 MSTORE PUSH1 0x1C DUP4 MSTORE KECCAK256 SLOAD PUSH1 0x40 MLOAD SWAP1 DUP2 MSTORE RETURN JUMPDEST POP CALLVALUE PUSH2 0x47C JUMPI PUSH1 0x20 CALLDATASIZE PUSH1 0x3 NOT ADD SLT PUSH2 0x47C JUMPI PUSH1 0x40 PUSH1 0x20 SWAP2 PUSH1 0x4 CALLDATALOAD DUP2 MSTORE DUP3 DUP1 MSTORE KECCAK256 SLOAD PUSH1 0x40 MLOAD SWAP1 DUP2 MSTORE RETURN JUMPDEST POP CALLVALUE PUSH2 0x47C JUMPI PUSH1 0x20 CALLDATASIZE PUSH1 0x3 NOT ADD SLT PUSH2 0x47C JUMPI PUSH1 0x4 CALLDATALOAD DUP1 ISZERO ISZERO DUP1 DUP3 SUB PUSH2 0x1ABA JUMPI PUSH32 0xFF35AD813AFCE2410AE4C6035F1B3E69C6BB092BE9B83FBED11D38074A5623BB SWAP2 PUSH2 0x1265 SWAP2 PUSH2 0x1A8F PUSH2 0x3A2C JUMP JUMPDEST PUSH1 0xFF DUP1 NOT PUSH1 0x9 SLOAD AND SWAP2 AND OR PUSH1 0x9 SSTORE PUSH1 0x40 MLOAD SWAP2 DUP3 SWAP2 TIMESTAMP SWAP1 DUP4 PUSH1 0x20 SWAP1 SWAP4 SWAP3 SWAP2 SWAP4 PUSH1 0x40 DUP2 ADD SWAP5 ISZERO ISZERO DUP2 MSTORE ADD MSTORE JUMP JUMPDEST DUP3 DUP1 REVERT JUMPDEST POP CALLVALUE PUSH2 0x47C JUMPI PUSH2 0x1ACD CALLDATASIZE PUSH2 0x383B JUMP JUMPDEST SWAP1 PUSH2 0x1AD6 PUSH2 0x3DBA JUMP JUMPDEST DUP1 ISZERO ISZERO DUP1 PUSH2 0x1C5B JUMPI JUMPDEST PUSH2 0x1AE8 SWAP1 PUSH2 0x3DDD JUMP JUMPDEST DUP1 DUP4 MSTORE PUSH1 0x20 PUSH1 0x1D DUP2 MSTORE PUSH1 0x1 DUP1 PUSH1 0xA0 SHL SUB PUSH2 0x1B0C DUP2 PUSH1 0x40 DUP8 KECCAK256 SLOAD PUSH1 0x8 SHR AND CALLER EQ PUSH2 0x3E1B JUMP JUMPDEST DUP3 DUP6 MSTORE PUSH1 0x1E DUP3 MSTORE PUSH1 0x40 DUP1 DUP7 KECCAK256 PUSH1 0x1 DUP2 ADD SLOAD SWAP1 SLOAD PUSH1 0x1D DUP6 MSTORE DUP3 DUP9 KECCAK256 SLOAD SWAP3 MLOAD PUSH4 0xC7403E1D PUSH1 0xE0 SHL DUP2 MSTORE PUSH1 0x4 DUP2 ADD DUP8 SWAP1 MSTORE PUSH1 0x24 DUP2 ADD DUP9 SWAP1 MSTORE PUSH32 0x0 PUSH1 0x44 DUP3 ADD MSTORE PUSH1 0x64 DUP2 ADD SWAP3 SWAP1 SWAP3 MSTORE PUSH1 0x84 DUP3 ADD MSTORE PUSH1 0x8 SWAP2 SWAP1 SWAP2 SHR DUP3 AND PUSH1 0x1 PUSH1 0x1 PUSH1 0xA0 SHL SUB AND PUSH1 0xA4 DUP3 ADD MSTORE SWAP1 DUP3 SWAP1 DUP3 SWAP1 DUP2 DUP9 DUP2 PUSH1 0xC4 DUP2 ADD JUMPDEST SUB SWAP3 PUSH32 0x0 AND GAS CALL SWAP1 DUP2 ISZERO PUSH2 0x1C50 JUMPI DUP6 SWAP2 PUSH2 0x1C03 JUMPI JUMPDEST POP PUSH1 0x40 SWAP1 PUSH32 0xB64F1F8F03EE84EC0CFB24D1299D6CE9EF6D58EA0787053DE092EC3F8B14255C SWAP3 DUP3 MLOAD SWAP2 DUP3 MSTORE TIMESTAMP SWAP1 DUP3 ADD MSTORE LOG3 PUSH1 0x1 DUP2 SSTORE DUP1 RETURN JUMPDEST SWAP1 POP DUP2 DUP2 DUP2 RETURNDATASIZE DUP4 GT PUSH2 0x1C49 JUMPI JUMPDEST PUSH2 0x1C1A DUP2 DUP4 PUSH2 0x3A0A JUMP JUMPDEST DUP2 ADD SUB SLT PUSH2 0x11E2 JUMPI MLOAD PUSH32 0xB64F1F8F03EE84EC0CFB24D1299D6CE9EF6D58EA0787053DE092EC3F8B14255C PUSH2 0x1BCB JUMP JUMPDEST POP RETURNDATASIZE PUSH2 0x1C10 JUMP JUMPDEST PUSH1 0x40 MLOAD RETURNDATASIZE DUP8 DUP3 RETURNDATACOPY RETURNDATASIZE SWAP1 REVERT JUMPDEST POP DUP1 DUP4 MSTORE PUSH1 0x1D PUSH1 0x20 MSTORE PUSH1 0x40 DUP4 KECCAK256 SLOAD PUSH1 0xFF AND PUSH2 0x1ADF JUMP JUMPDEST POP CALLVALUE PUSH2 0x47C JUMPI PUSH1 0x20 CALLDATASIZE PUSH1 0x3 NOT ADD SLT PUSH2 0x47C JUMPI PUSH1 0x20 SWAP1 PUSH1 0x40 SWAP1 PUSH1 0x1 PUSH1 0x1 PUSH1 0xA0 SHL SUB PUSH2 0x1C99 PUSH2 0x38C5 JUMP JUMPDEST AND DUP2 MSTORE PUSH1 0x3 DUP4 MSTORE KECCAK256 SLOAD PUSH1 0x40 MLOAD SWAP1 DUP2 MSTORE RETURN JUMPDEST POP CALLVALUE PUSH2 0x47C JUMPI PUSH1 0x20 CALLDATASIZE PUSH1 0x3 NOT ADD SLT PUSH2 0x47C JUMPI PUSH1 0x4 CALLDATALOAD PUSH1 0xD DUP2 LT ISZERO PUSH2 0x1CD7 JUMPI PUSH1 0x20 SWAP1 PUSH1 0xC ADD SLOAD PUSH1 0x40 MLOAD SWAP1 DUP2 MSTORE RETURN JUMPDEST POP DUP1 REVERT JUMPDEST POP CALLVALUE PUSH2 0x47C JUMPI DUP1 PUSH1 0x3 NOT CALLDATASIZE ADD SLT PUSH2 0x47C JUMPI PUSH2 0x100 PUSH2 0x1CF7 PUSH2 0x4D04 JUMP JUMPDEST SWAP6 PUSH1 0x40 SWAP6 SWAP2 SWAP6 SWAP5 SWAP3 SWAP5 MLOAD SWAP8 DUP9 MSTORE PUSH1 0x20 DUP9 ADD MSTORE PUSH1 0x40 DUP8 ADD MSTORE PUSH1 0x60 DUP7 ADD MSTORE PUSH1 0x80 DUP6 ADD MSTORE PUSH1 0xA0 DUP5 ADD MSTORE PUSH1 0xC0 DUP4 ADD MSTORE PUSH1 0xE0 DUP3 ADD MSTORE RETURN JUMPDEST POP CALLVALUE PUSH2 0x47C JUMPI DUP1 PUSH1 0x3 NOT CALLDATASIZE ADD SLT PUSH2 0x47C JUMPI PUSH1 0x20 PUSH1 0xA SLOAD PUSH1 0x40 MLOAD SWAP1 DUP2 MSTORE RETURN JUMPDEST POP CALLVALUE PUSH2 0x47C JUMPI DUP1 PUSH1 0x3 NOT CALLDATASIZE ADD SLT PUSH2 0x47C JUMPI PUSH1 0x20 PUSH1 0xFF PUSH1 0x1 SLOAD PUSH1 0xA8 SHR AND PUSH1 0x40 MLOAD SWAP1 ISZERO ISZERO DUP2 MSTORE RETURN JUMPDEST POP CALLVALUE PUSH2 0x47C JUMPI PUSH1 0x20 CALLDATASIZE PUSH1 0x3 NOT ADD SLT PUSH2 0x47C JUMPI PUSH2 0x1D96 PUSH1 0x4 CALLDATALOAD PUSH2 0x1D91 PUSH1 0xD DUP3 LT PUSH2 0x3A58 JUMP JUMPDEST PUSH2 0x3AF6 JUMP JUMPDEST PUSH1 0x64 PUSH2 0x1DA1 DUP3 PUSH2 0x3A94 JUMP JUMPDEST DIV SWAP1 PUSH2 0x405 PUSH2 0x1DB0 DUP4 DUP4 PUSH2 0x3BEF JUMP JUMPDEST PUSH1 0x40 MLOAD SWAP4 DUP5 SWAP4 DUP5 PUSH1 0x40 SWAP2 SWAP5 SWAP4 SWAP3 PUSH1 0x60 DUP3 ADD SWAP6 DUP3 MSTORE PUSH1 0x20 DUP3 ADD MSTORE ADD MSTORE JUMP JUMPDEST POP CALLVALUE PUSH2 0x47C JUMPI DUP1 PUSH1 0x3 NOT CALLDATASIZE ADD SLT PUSH2 0x47C JUMPI PUSH1 0x5 SLOAD PUSH1 0x40 MLOAD PUSH1 0x1 PUSH1 0x1 PUSH1 0xA0 SHL SUB SWAP1 SWAP2 AND DUP2 MSTORE PUSH1 0x20 SWAP1 RETURN JUMPDEST POP CALLVALUE PUSH2 0x47C JUMPI PUSH1 0x20 CALLDATASIZE PUSH1 0x3 NOT ADD SLT PUSH2 0x47C JUMPI PUSH2 0x1E10 PUSH2 0x38C5 JUMP JUMPDEST PUSH2 0x1E18 PUSH2 0x3A2C JUMP JUMPDEST PUSH1 0x1 PUSH1 0x1 PUSH1 0xA0 SHL SUB AND PUSH2 0x1E2C DUP2 ISZERO ISZERO PUSH2 0x3BB1 JUMP JUMPDEST DUP1 PUSH12 0xFFFFFFFFFFFFFFFFFFFFFFFF PUSH1 0xA0 SHL PUSH1 0x5 SLOAD AND OR PUSH1 0x5 SSTORE PUSH32 0xBB8D41C9907E8134230337C55FAEBD82117F5D9B99DA1AC1667FA3FE7786B465 PUSH1 0x20 PUSH1 0x40 MLOAD TIMESTAMP DUP2 MSTORE LOG2 DUP1 RETURN JUMPDEST POP CALLVALUE PUSH2 0x47C JUMPI DUP1 PUSH1 0x3 NOT CALLDATASIZE ADD SLT PUSH2 0x47C JUMPI PUSH2 0x1E8B PUSH2 0x3A2C JUMP JUMPDEST PUSH1 0x0 PUSH1 0x1 SLOAD PUSH1 0x1 DUP1 PUSH1 0xA0 SHL SUB DUP2 AND SWAP1 DUP2 PUSH32 0x656BA3C6830B11142778BBCFAFF90D2ECC89186277667C2CE8700E4697DDCCC2 PUSH1 0x20 PUSH1 0x40 MLOAD TIMESTAMP DUP2 MSTORE LOG2 PUSH2 0x1ECD PUSH2 0x3A2C JUMP JUMPDEST PUSH1 0x1 PUSH1 0x1 PUSH1 0xA0 SHL SUB NOT AND PUSH1 0x1 SSTORE PUSH32 0x8BE0079C531659141344CD1FD0A4F28419497F9722A3DAAFE3B4186F6B6457E0 DUP3 DUP1 LOG3 DUP1 RETURN JUMPDEST POP CALLVALUE PUSH2 0x47C JUMPI PUSH1 0x20 CALLDATASIZE PUSH1 0x3 NOT ADD SLT PUSH2 0x47C JUMPI PUSH1 0x4 CALLDATALOAD PUSH2 0x1F1E PUSH2 0x3A2C JUMP JUMPDEST DUP1 ISZERO DUP1 ISZERO DUP1 PUSH2 0x1FC2 JUMPI JUMPDEST ISZERO PUSH2 0x1F8A JUMPI PUSH3 0x15180 SWAP1 DUP2 DUP4 MUL SWAP2 DUP4 DUP4 DIV EQ OR ISZERO PUSH2 0x1F76 JUMPI PUSH1 0x7 SSTORE PUSH1 0x40 DUP1 MLOAD SWAP2 DUP3 MSTORE TIMESTAMP PUSH1 0x20 DUP4 ADD MSTORE PUSH32 0x906B7C716ABE77CE683D8FB36D3428D70D84AE296249EFE4691B95EBE3242A88 SWAP2 LOG1 DUP1 RETURN JUMPDEST PUSH4 0x4E487B71 PUSH1 0xE0 SHL DUP4 MSTORE PUSH1 0x11 PUSH1 0x4 MSTORE PUSH1 0x24 DUP4 REVERT JUMPDEST PUSH1 0x40 MLOAD PUSH3 0x461BCD PUSH1 0xE5 SHL DUP2 MSTORE PUSH1 0x20 PUSH1 0x4 DUP3 ADD MSTORE PUSH1 0x10 PUSH1 0x24 DUP3 ADD MSTORE PUSH16 0x125B9D985B1A59081A5B9D195C9D985B PUSH1 0x82 SHL PUSH1 0x44 DUP3 ADD MSTORE PUSH1 0x64 SWAP1 REVERT JUMPDEST POP PUSH2 0x16D DUP3 GT ISZERO PUSH2 0x1F28 JUMP JUMPDEST POP CALLVALUE PUSH2 0x47C JUMPI PUSH1 0x20 DUP1 PUSH1 0x3 NOT CALLDATASIZE ADD SLT PUSH2 0x1CD7 JUMPI PUSH1 0x4 CALLDATALOAD SWAP1 PUSH2 0x1FED PUSH2 0x3DBA JUMP JUMPDEST CALLER DUP4 MSTORE PUSH1 0x1C DUP2 MSTORE PUSH1 0x40 DUP4 KECCAK256 SLOAD SWAP1 PUSH2 0x2005 DUP3 ISZERO ISZERO PUSH2 0x3F63 JUMP JUMPDEST DUP2 DUP5 MSTORE PUSH1 0x1E DUP2 MSTORE PUSH1 0x40 DUP1 DUP6 KECCAK256 PUSH1 0x1 DUP2 ADD SLOAD SWAP1 SLOAD PUSH1 0x1D DUP5 MSTORE DUP3 DUP8 KECCAK256 SLOAD SWAP3 MLOAD PUSH4 0xC7403E1D PUSH1 0xE0 SHL DUP2 MSTORE PUSH1 0x4 DUP2 ADD DUP7 SWAP1 MSTORE PUSH1 0x24 DUP2 ADD DUP8 SWAP1 MSTORE PUSH32 0x0 PUSH1 0x44 DUP3 ADD MSTORE PUSH1 0x64 DUP2 ADD SWAP3 SWAP1 SWAP3 MSTORE PUSH1 0x84 DUP3 ADD MSTORE PUSH1 0x8 SWAP2 SWAP1 SWAP2 SHR PUSH1 0x1 PUSH1 0x1 PUSH1 0xA0 SHL SUB SWAP1 DUP2 AND PUSH1 0xA4 DUP4 ADD MSTORE DUP3 SWAP1 DUP3 SWAP1 DUP2 DUP9 DUP2 PUSH1 0xC4 DUP2 ADD PUSH2 0x1B97 JUMP JUMPDEST POP CALLVALUE PUSH2 0x47C JUMPI DUP1 PUSH1 0x3 NOT CALLDATASIZE ADD SLT PUSH2 0x47C JUMPI PUSH1 0x20 SELFBALANCE PUSH1 0x40 MLOAD SWAP1 DUP2 MSTORE RETURN JUMPDEST POP CALLVALUE PUSH2 0x47C JUMPI PUSH1 0x40 CALLDATASIZE PUSH1 0x3 NOT ADD SLT PUSH2 0x47C JUMPI PUSH2 0x405 PUSH2 0x1752 PUSH2 0x20CF PUSH2 0x38C5 JUMP JUMPDEST PUSH1 0x24 CALLDATALOAD SWAP1 PUSH2 0x515C JUMP JUMPDEST POP CALLVALUE PUSH2 0x47C JUMPI DUP1 PUSH1 0x3 NOT CALLDATASIZE ADD SLT PUSH2 0x47C JUMPI PUSH1 0x20 PUSH1 0x2 SLOAD PUSH1 0x40 MLOAD SWAP1 DUP2 MSTORE RETURN JUMPDEST POP CALLVALUE PUSH2 0x47C JUMPI DUP1 PUSH1 0x3 NOT CALLDATASIZE ADD SLT PUSH2 0x47C JUMPI PUSH2 0x210F PUSH2 0x3A2C JUMP JUMPDEST SELFBALANCE DUP1 ISZERO PUSH2 0x2174 JUMPI PUSH1 0x1 SLOAD DUP3 SWAP2 DUP3 SWAP2 DUP3 SWAP2 DUP3 SWAP2 PUSH1 0x1 PUSH1 0x1 PUSH1 0xA0 SHL SUB AND GAS CALL PUSH2 0x2134 PUSH2 0x3D7A JUMP JUMPDEST POP ISZERO PUSH2 0x213D JUMPI DUP1 RETURN JUMPDEST PUSH1 0x40 MLOAD PUSH3 0x461BCD PUSH1 0xE5 SHL DUP2 MSTORE PUSH1 0x20 PUSH1 0x4 DUP3 ADD MSTORE PUSH1 0xF PUSH1 0x24 DUP3 ADD MSTORE PUSH15 0x151C985B9CD9995C8819985A5B1959 PUSH1 0x8A SHL PUSH1 0x44 DUP3 ADD MSTORE PUSH1 0x64 SWAP1 REVERT JUMPDEST PUSH1 0x40 MLOAD PUSH3 0x461BCD PUSH1 0xE5 SHL DUP2 MSTORE PUSH1 0x20 PUSH1 0x4 DUP3 ADD MSTORE PUSH1 0x11 PUSH1 0x24 DUP3 ADD MSTORE PUSH17 0x273790212721103A37903932B1B7BB32B9 PUSH1 0x79 SHL PUSH1 0x44 DUP3 ADD MSTORE PUSH1 0x64 SWAP1 REVERT JUMPDEST POP CALLVALUE PUSH2 0x47C JUMPI DUP1 PUSH1 0x3 NOT CALLDATASIZE ADD SLT PUSH2 0x47C JUMPI PUSH1 0x20 PUSH1 0x40 MLOAD PUSH1 0x1 DUP2 MSTORE RETURN JUMPDEST POP CALLVALUE PUSH2 0x47C JUMPI DUP1 PUSH1 0x3 NOT CALLDATASIZE ADD SLT PUSH2 0x47C JUMPI PUSH1 0x20 PUSH1 0x8 SLOAD PUSH1 0x40 MLOAD SWAP1 DUP2 MSTORE RETURN JUMPDEST PUSH2 0x3851 JUMP JUMPDEST POP CALLVALUE PUSH2 0x47C JUMPI PUSH1 0x20 CALLDATASIZE PUSH1 0x3 NOT ADD SLT PUSH2 0x47C JUMPI PUSH1 0x40 PUSH1 0xA0 SWAP2 PUSH1 0x4 CALLDATALOAD DUP2 MSTORE PUSH1 0x1E PUSH1 0x20 MSTORE KECCAK256 DUP1 SLOAD SWAP1 PUSH1 0x1 DUP2 ADD SLOAD SWAP1 PUSH1 0x2 DUP2 ADD SLOAD PUSH1 0x4 PUSH1 0x3 DUP4 ADD SLOAD SWAP3 ADD SLOAD SWAP3 PUSH1 0x40 MLOAD SWAP5 DUP6 MSTORE PUSH1 0x20 DUP6 ADD MSTORE PUSH1 0x40 DUP5 ADD MSTORE PUSH1 0x60 DUP4 ADD MSTORE PUSH1 0x80 DUP3 ADD MSTORE RETURN JUMPDEST POP CALLVALUE PUSH2 0x47C JUMPI DUP1 PUSH1 0x3 NOT CALLDATASIZE ADD SLT PUSH2 0x47C JUMPI PUSH1 0x20 PUSH1 0x7 SLOAD PUSH1 0x40 MLOAD SWAP1 DUP2 MSTORE RETURN JUMPDEST POP CALLVALUE PUSH2 0x47C JUMPI DUP1 PUSH1 0x3 NOT CALLDATASIZE ADD SLT PUSH2 0x47C JUMPI PUSH2 0x227A PUSH2 0x4F06 JUMP JUMPDEST PUSH1 0x40 MLOAD SWAP1 SWAP4 SWAP1 SWAP3 DUP4 JUMPDEST PUSH1 0x4 DUP4 LT PUSH2 0x22AB JUMPI PUSH2 0x180 DUP6 PUSH2 0xF01 DUP9 PUSH2 0x22A0 PUSH1 0x80 DUP5 ADD DUP10 PUSH2 0x389B JUMP JUMPDEST PUSH2 0x100 DUP4 ADD SWAP1 PUSH2 0x389B JUMP JUMPDEST PUSH1 0x1 SWAP1 DUP3 MLOAD DUP2 MSTORE PUSH1 0x20 DUP1 SWAP2 ADD SWAP3 ADD SWAP3 ADD SWAP2 SWAP1 PUSH2 0x2283 JUMP JUMPDEST POP CALLVALUE PUSH2 0x47C JUMPI DUP1 PUSH1 0x3 NOT CALLDATASIZE ADD SLT PUSH2 0x47C JUMPI PUSH1 0x20 PUSH1 0xFF PUSH1 0x19 SLOAD AND PUSH1 0x40 MLOAD SWAP1 ISZERO ISZERO DUP2 MSTORE RETURN JUMPDEST POP CALLVALUE PUSH2 0x47C JUMPI PUSH1 0x20 DUP1 PUSH1 0x3 NOT CALLDATASIZE ADD SLT PUSH2 0x1CD7 JUMPI PUSH1 0x4 CALLDATALOAD SWAP1 PUSH2 0x2304 PUSH2 0x3DBA JUMP JUMPDEST PUSH2 0x2313 PUSH1 0xFF PUSH1 0x19 SLOAD AND ISZERO PUSH2 0x3B32 JUMP JUMPDEST PUSH1 0xA DUP3 LT ISZERO DUP1 PUSH2 0x249B JUMPI JUMPDEST PUSH2 0x2327 SWAP1 PUSH2 0x5050 JUMP JUMPDEST CALLER DUP4 MSTORE PUSH1 0x1C DUP2 MSTORE PUSH2 0x23B7 PUSH1 0x40 DUP5 KECCAK256 SLOAD SWAP2 PUSH2 0x2342 DUP4 ISZERO ISZERO PUSH2 0x3F63 JUMP JUMPDEST DUP3 DUP6 MSTORE PUSH1 0x1E DUP2 MSTORE PUSH1 0x40 DUP1 DUP7 KECCAK256 DUP1 SLOAD PUSH1 0x1 SWAP1 SWAP2 ADD SLOAD SWAP2 MLOAD PUSH4 0xC7403E1D PUSH1 0xE0 SHL DUP2 MSTORE PUSH1 0x4 DUP2 ADD DUP7 SWAP1 MSTORE PUSH1 0x24 DUP2 ADD DUP8 SWAP1 MSTORE PUSH32 0x0 PUSH1 0x44 DUP3 ADD MSTORE PUSH1 0x64 DUP2 ADD SWAP3 SWAP1 SWAP3 MSTORE PUSH1 0x84 DUP3 ADD MSTORE CALLER PUSH1 0xA4 DUP3 ADD MSTORE SWAP2 DUP2 SWAP1 DUP4 SWAP1 DUP2 SWAP1 PUSH1 0xC4 DUP3 ADD SWAP1 JUMP JUMPDEST SUB DUP2 DUP9 PUSH32 0x0 PUSH1 0x1 PUSH1 0x1 PUSH1 0xA0 SHL SUB AND GAS CALL SWAP2 DUP3 ISZERO PUSH2 0x1C50 JUMPI DUP6 SWAP3 PUSH2 0x246C JUMPI JUMPDEST POP DUP2 ISZERO PUSH2 0x2432 JUMPI PUSH32 0xB64F1F8F03EE84EC0CFB24D1299D6CE9EF6D58EA0787053DE092EC3F8B14255C SWAP2 PUSH1 0x40 SWAP2 DUP3 MLOAD SWAP2 DUP3 MSTORE TIMESTAMP SWAP1 DUP3 ADD MSTORE LOG3 PUSH1 0x1 DUP2 SSTORE DUP1 RETURN JUMPDEST PUSH1 0x64 SWAP1 PUSH1 0x40 MLOAD SWAP1 PUSH3 0x461BCD PUSH1 0xE5 SHL DUP3 MSTORE PUSH1 0x4 DUP3 ADD MSTORE PUSH1 0x13 PUSH1 0x24 DUP3 ADD MSTORE PUSH19 0x4E6F20726F79616C747920746F20636C61696D PUSH1 0x68 SHL PUSH1 0x44 DUP3 ADD MSTORE REVERT JUMPDEST SWAP1 DUP1 SWAP3 POP DUP2 DUP2 RETURNDATASIZE DUP4 GT PUSH2 0x2494 JUMPI JUMPDEST PUSH2 0x2484 DUP2 DUP4 PUSH2 0x3A0A JUMP JUMPDEST DUP2 ADD SUB SLT PUSH2 0x11E2 JUMPI MLOAD SWAP1 CODESIZE PUSH2 0x23F4 JUMP JUMPDEST POP RETURNDATASIZE PUSH2 0x247A JUMP JUMPDEST POP PUSH1 0xD DUP3 GT ISZERO PUSH2 0x231E JUMP JUMPDEST POP CALLVALUE PUSH2 0x47C JUMPI PUSH1 0x60 CALLDATASIZE PUSH1 0x3 NOT ADD SLT PUSH2 0x47C JUMPI PUSH1 0x44 CALLDATALOAD SWAP1 PUSH1 0x4 CALLDATALOAD DUP2 MSTORE PUSH1 0x1F PUSH1 0x20 MSTORE PUSH1 0x40 DUP2 KECCAK256 PUSH1 0x24 CALLDATALOAD DUP3 MSTORE PUSH1 0x20 MSTORE PUSH1 0x40 DUP2 KECCAK256 SWAP1 DUP2 SLOAD DUP4 LT ISZERO PUSH2 0x47C JUMPI PUSH1 0x20 PUSH2 0x24EC DUP5 DUP5 PUSH2 0x386D JUMP JUMPDEST SWAP1 SLOAD PUSH1 0x40 MLOAD SWAP2 PUSH1 0x3 SHL SHR DUP2 MSTORE RETURN JUMPDEST POP CALLVALUE PUSH2 0x47C JUMPI DUP1 PUSH1 0x3 NOT CALLDATASIZE ADD SLT PUSH2 0x47C JUMPI PUSH1 0x20 PUSH1 0x6 SLOAD PUSH1 0x40 MLOAD SWAP1 DUP2 MSTORE RETURN JUMPDEST POP CALLVALUE PUSH2 0x47C JUMPI PUSH1 0x20 CALLDATASIZE PUSH1 0x3 NOT ADD SLT PUSH2 0x47C JUMPI PUSH1 0x40 PUSH2 0x100 SWAP2 PUSH1 0x4 CALLDATALOAD DUP2 MSTORE PUSH1 0x1D PUSH1 0x20 MSTORE KECCAK256 DUP1 SLOAD SWAP1 PUSH1 0x1 DUP2 ADD SLOAD SWAP1 PUSH1 0x2 DUP2 ADD SLOAD PUSH1 0x3 DUP3 ADD SLOAD PUSH1 0x4 DUP4 ADD SLOAD SWAP2 PUSH1 0x6 PUSH1 0x5 DUP6 ADD SLOAD SWAP5 ADD SLOAD SWAP5 PUSH1 0x40 MLOAD SWAP7 PUSH1 0xFF DUP2 AND ISZERO ISZERO DUP9 MSTORE PUSH1 0x1 DUP1 PUSH1 0xA0 SHL SUB SWAP1 PUSH1 0x8 SHR AND PUSH1 0x20 DUP9 ADD MSTORE PUSH1 0x40 DUP8 ADD MSTORE PUSH1 0x60 DUP7 ADD MSTORE PUSH1 0x80 DUP6 ADD MSTORE PUSH1 0xA0 DUP5 ADD MSTORE PUSH1 0xC0 DUP4 ADD MSTORE PUSH1 0xE0 DUP3 ADD MSTORE RETURN JUMPDEST POP CALLVALUE PUSH2 0x47C JUMPI DUP1 PUSH1 0x3 NOT CALLDATASIZE ADD SLT PUSH2 0x47C JUMPI PUSH1 0x20 PUSH2 0x25B7 PUSH2 0x5217 JUMP JUMPDEST PUSH1 0x40 MLOAD SWAP1 DUP2 MSTORE RETURN JUMPDEST POP CALLVALUE PUSH2 0x47C JUMPI DUP1 PUSH1 0x3 NOT CALLDATASIZE ADD SLT PUSH2 0x47C JUMPI PUSH2 0x25D8 PUSH2 0x3A2C JUMP JUMPDEST PUSH1 0x6 SLOAD PUSH1 0x40 MLOAD PUSH4 0x504E473 PUSH1 0xE4 SHL DUP2 MSTORE PUSH1 0x20 SWAP2 SWAP1 DUP3 DUP2 PUSH1 0x4 DUP2 ADDRESS GAS STATICCALL DUP5 SWAP2 DUP2 PUSH2 0x2778 JUMPI JUMPDEST POP PUSH2 0x26A8 JUMPI POP PUSH1 0x1 SWAP2 DUP4 PUSH1 0x3 RETURNDATASIZE GT PUSH2 0x2698 JUMPI JUMPDEST PUSH4 0x8C379A0 EQ PUSH2 0x262F JUMPI JUMPDEST POP POP PUSH2 0x2623 JUMPI DUP1 RETURN JUMPDEST PUSH1 0x40 MLOAD SWAP1 RETURNDATASIZE SWAP1 DUP3 RETURNDATACOPY RETURNDATASIZE SWAP1 REVERT JUMPDEST PUSH2 0x2637 PUSH2 0x5317 JUMP JUMPDEST SWAP1 DUP2 PUSH2 0x2644 JUMPI JUMPDEST POP PUSH2 0x261A JUMP JUMPDEST PUSH32 0xF8917A6EC5E05F17A23C4CC821CA4E4C6D52FAB4DCB57F8667D6D078775B836F SWAP3 SWAP4 POP SWAP1 PUSH2 0x2683 SWAP2 DUP6 SWAP5 PUSH1 0x40 MLOAD SWAP4 DUP5 SWAP4 PUSH1 0x60 DUP6 MSTORE PUSH1 0x60 DUP6 ADD SWAP1 PUSH2 0x425F JUMP JUMPDEST SWAP2 DUP4 ADD MSTORE TIMESTAMP PUSH1 0x40 DUP4 ADD MSTORE SUB SWAP1 LOG1 CODESIZE DUP1 DUP1 PUSH2 0x263E JUMP JUMPDEST POP PUSH1 0x4 DUP5 DUP1 RETURNDATACOPY DUP4 MLOAD PUSH1 0xE0 SHR PUSH2 0x260F JUMP JUMPDEST SWAP2 PUSH1 0xA SLOAD DUP4 LT ISZERO DUP1 PUSH2 0x276C JUMPI JUMPDEST ISZERO PUSH2 0x2707 JUMPI POP DUP2 PUSH32 0x2F363FD6FEF1150CAEE78EFFEB98F6B9E03526DAC46804B86A5F5F23909E840D SWAP3 PUSH1 0x6 SSTORE TIMESTAMP PUSH1 0x8 SSTORE PUSH2 0x1265 PUSH1 0x40 MLOAD SWAP3 DUP4 SWAP3 TIMESTAMP SWAP2 DUP5 PUSH1 0x40 SWAP2 SWAP5 SWAP4 SWAP3 PUSH1 0x60 DUP3 ADD SWAP6 DUP3 MSTORE PUSH1 0x20 DUP3 ADD MSTORE ADD MSTORE JUMP JUMPDEST PUSH1 0x40 MLOAD PUSH1 0x60 DUP1 DUP3 MSTORE PUSH1 0x13 SWAP1 DUP3 ADD MSTORE PUSH19 0x5072696365206F7574206F6620626F756E6473 PUSH1 0x68 SHL PUSH1 0x80 DUP3 ADD MSTORE PUSH32 0xF8917A6EC5E05F17A23C4CC821CA4E4C6D52FAB4DCB57F8667D6D078775B836F SWAP4 POP SWAP2 DUP3 SWAP2 SWAP1 PUSH1 0xA0 DUP4 ADD SWAP2 DUP4 ADD MSTORE TIMESTAMP PUSH1 0x40 DUP4 ADD MSTORE SUB SWAP1 LOG1 DUP1 RETURN JUMPDEST POP PUSH1 0xB SLOAD DUP4 GT ISZERO PUSH2 0x26B5 JUMP JUMPDEST SWAP1 SWAP2 POP DUP4 DUP2 DUP2 RETURNDATASIZE DUP4 GT PUSH2 0x27A0 JUMPI JUMPDEST PUSH2 0x2790 DUP2 DUP4 PUSH2 0x3A0A JUMP JUMPDEST DUP2 ADD SUB SLT PUSH2 0x11E2 JUMPI MLOAD SWAP1 CODESIZE PUSH2 0x25FC JUMP JUMPDEST POP RETURNDATASIZE PUSH2 0x2786 JUMP JUMPDEST POP CALLVALUE PUSH2 0x47C JUMPI DUP1 PUSH1 0x3 NOT CALLDATASIZE ADD SLT PUSH2 0x47C JUMPI PUSH1 0xC0 PUSH2 0x27C2 PUSH2 0x4D6F JUMP JUMPDEST SWAP4 PUSH1 0x40 SWAP4 SWAP2 SWAP4 MLOAD SWAP6 DUP7 MSTORE PUSH1 0x20 DUP7 ADD MSTORE PUSH1 0x40 DUP6 ADD MSTORE PUSH1 0x60 DUP5 ADD MSTORE PUSH1 0x80 DUP4 ADD MSTORE PUSH1 0xA0 DUP3 ADD MSTORE RETURN JUMPDEST POP PUSH2 0x27F1 CALLDATASIZE PUSH2 0x383B JUMP JUMPDEST PUSH2 0x27FC SWAP3 SWAP2 SWAP3 PUSH2 0x3DBA JUMP JUMPDEST PUSH2 0x280B PUSH1 0xFF PUSH1 0x19 SLOAD AND ISZERO PUSH2 0x3B32 JUMP JUMPDEST DUP3 ISZERO ISZERO DUP1 PUSH2 0x2E80 JUMPI JUMPDEST PUSH2 0x2820 SWAP1 SWAP4 SWAP2 SWAP4 PUSH2 0x3DDD JUMP JUMPDEST DUP1 DUP3 MSTORE PUSH1 0x1D PUSH1 0x20 MSTORE PUSH1 0x40 DUP3 KECCAK256 SLOAD PUSH2 0x2847 SWAP1 CALLER PUSH1 0x8 SWAP2 SWAP1 SWAP2 SHR PUSH1 0x1 PUSH1 0x1 PUSH1 0xA0 SHL SUB AND EQ PUSH2 0x3E1B JUMP JUMPDEST DUP1 DUP3 MSTORE PUSH1 0x1D PUSH1 0x20 MSTORE PUSH2 0x2865 PUSH1 0xD PUSH2 0x3CB DUP6 PUSH1 0x3 PUSH1 0x40 DUP8 KECCAK256 ADD SLOAD PUSH2 0x3BEF JUMP JUMPDEST DUP2 SWAP1 DUP3 SWAP4 JUMPDEST DUP1 DUP6 LT PUSH2 0x2E40 JUMPI DUP4 SWAP5 POP PUSH2 0x2880 DUP4 CALLVALUE LT ISZERO PUSH2 0x3E96 JUMP JUMPDEST DUP4 SWAP2 JUMPDEST DUP2 DUP4 LT PUSH2 0x289C JUMPI POP POP POP DUP1 CALLVALUE GT PUSH2 0x573 JUMPI POP PUSH1 0x1 SWAP1 SSTORE DUP1 RETURN JUMPDEST DUP1 SWAP2 SWAP3 SWAP5 MSTORE PUSH1 0x1D PUSH1 0x20 MSTORE PUSH2 0x28B7 DUP5 PUSH1 0x3 PUSH1 0x40 DUP9 KECCAK256 ADD SLOAD PUSH2 0x3BEF JUMP JUMPDEST DUP1 PUSH1 0x0 NOT DUP2 ADD GT PUSH2 0x1454 JUMPI PUSH2 0x28CF SWAP1 PUSH1 0x0 NOT ADD PUSH2 0x3AF6 JUMP JUMPDEST PUSH1 0x64 PUSH2 0x28DA DUP3 PUSH2 0x3A94 JUMP JUMPDEST DIV DUP3 DUP8 MSTORE PUSH1 0x1D PUSH1 0x20 MSTORE PUSH1 0x3 PUSH1 0x40 DUP9 KECCAK256 ADD PUSH2 0x28F4 DUP2 SLOAD PUSH2 0x3CBD JUMP JUMPDEST SWAP1 SSTORE DUP3 DUP8 MSTORE PUSH1 0x1E PUSH1 0x20 MSTORE PUSH1 0x40 DUP8 KECCAK256 PUSH2 0x290D DUP4 DUP3 SLOAD PUSH2 0x3BEF JUMP JUMPDEST SWAP1 SSTORE DUP1 PUSH2 0x2DA1 JUMPI JUMPDEST POP PUSH1 0x64 PUSH2 0x2921 DUP3 PUSH2 0x3A94 JUMP JUMPDEST DIV SWAP5 DUP6 PUSH2 0x2D30 JUMPI JUMPDEST PUSH2 0x2933 DUP3 DUP5 PUSH2 0x438D JUMP JUMPDEST SWAP6 DUP4 DUP9 MSTORE PUSH1 0x1D PUSH1 0x20 MSTORE PUSH1 0x3 PUSH1 0x40 DUP10 KECCAK256 ADD SLOAD SWAP7 DUP8 PUSH1 0x0 NOT DUP2 ADD GT PUSH2 0x2D1C JUMPI SWAP1 PUSH2 0x295A SWAP2 PUSH2 0x3D6D JUMP JUMPDEST PUSH1 0x0 DUP5 DUP2 MSTORE PUSH1 0x1D PUSH1 0x20 MSTORE PUSH1 0x40 DUP2 KECCAK256 PUSH1 0x2 ADD SLOAD DUP2 SWAP1 JUMPDEST DUP11 PUSH1 0xD DUP4 LT DUP1 PUSH2 0x2D13 JUMPI JUMPDEST ISZERO PUSH2 0x2D0A JUMPI POP DUP1 PUSH1 0x0 MSTORE PUSH1 0x1D PUSH1 0x20 MSTORE PUSH1 0x40 PUSH1 0x0 KECCAK256 PUSH1 0x0 NOT DUP12 ADD PUSH1 0x3 DUP3 ADD SLOAD GT DUP1 PUSH2 0x2CFB JUMPI JUMPDEST ISZERO PUSH2 0x2C22 JUMPI POP DUP1 SWAP2 SWAP3 POP PUSH1 0x0 MSTORE PUSH1 0x1D PUSH1 0x20 MSTORE PUSH1 0x0 DUP1 DUP1 DUP1 DUP7 PUSH1 0x1 DUP1 PUSH1 0xA0 SHL SUB PUSH1 0x40 DUP4 KECCAK256 SLOAD PUSH1 0x8 SHR AND GAS CALL PUSH2 0x29D1 PUSH2 0x3D7A JUMP JUMPDEST POP ISZERO PUSH2 0x2BE6 JUMPI DUP1 PUSH1 0x0 MSTORE PUSH1 0x1E PUSH1 0x20 MSTORE PUSH1 0x4 PUSH1 0x40 PUSH1 0x0 KECCAK256 ADD PUSH2 0x29F3 DUP5 DUP3 SLOAD PUSH2 0x3BEF JUMP JUMPDEST SWAP1 SSTORE DUP1 PUSH1 0x0 MSTORE PUSH1 0x1E PUSH1 0x20 MSTORE PUSH1 0x1 PUSH1 0x40 PUSH1 0x0 KECCAK256 ADD PUSH2 0x2A11 DUP5 DUP3 SLOAD PUSH2 0x3BEF JUMP JUMPDEST SWAP1 SSTORE PUSH1 0x1 SWAP2 PUSH1 0x1 DUP2 ADD DUP2 GT PUSH2 0x919 JUMPI PUSH1 0x40 DUP1 MLOAD DUP6 DUP2 MSTORE PUSH1 0x0 NOT SWAP12 SWAP1 SWAP12 ADD PUSH1 0x20 DUP13 ADD MSTORE PUSH1 0x1 SWAP2 DUP3 ADD SWAP1 DUP12 ADD MSTORE PUSH1 0x60 DUP11 ADD MSTORE TIMESTAMP PUSH1 0x80 DUP11 ADD MSTORE DUP10 SWAP9 DUP7 SWAP1 PUSH1 0x0 DUP1 MLOAD PUSH1 0x20 PUSH2 0x539C DUP4 CODECOPY DUP2 MLOAD SWAP2 MSTORE SWAP1 PUSH1 0xA0 SWAP1 LOG3 JUMPDEST ISZERO DUP1 PUSH2 0x2BDD JUMPI JUMPDEST PUSH2 0x2BC7 JUMPI JUMPDEST POP DUP3 DUP7 MSTORE PUSH1 0x1D PUSH1 0x20 MSTORE PUSH1 0x40 DUP7 KECCAK256 PUSH1 0x3 DUP2 ADD SLOAD PUSH1 0x4 SWAP1 SWAP2 ADD SLOAD SWAP1 PUSH32 0x0 PUSH1 0x1 PUSH1 0x1 PUSH1 0xA0 SHL SUB AND EXTCODESIZE ISZERO PUSH2 0x2BC3 JUMPI PUSH1 0x40 MLOAD PUSH4 0x66F05661 PUSH1 0xE1 SHL DUP2 MSTORE PUSH1 0x4 DUP2 ADD DUP7 SWAP1 MSTORE PUSH1 0x24 DUP2 ADD SWAP2 SWAP1 SWAP2 MSTORE PUSH1 0x44 DUP2 ADD SWAP2 SWAP1 SWAP2 MSTORE DUP7 DUP2 PUSH1 0x64 DUP2 DUP4 PUSH1 0x1 PUSH1 0x1 PUSH1 0xA0 SHL SUB PUSH32 0x0 AND GAS CALL DUP1 ISZERO PUSH2 0x2BB8 JUMPI DUP5 SWAP2 DUP9 SWAP2 PUSH2 0x2B9D JUMPI JUMPDEST POP PUSH2 0x2B96 SWAP4 DUP3 PUSH32 0x430828E9E608608C6F34402A3BBF7CCFF1CD71AC750C401A12C72E4578350F96 SWAP3 MSTORE PUSH1 0x1D PUSH1 0x20 MSTORE PUSH1 0x3 PUSH1 0x40 DUP11 KECCAK256 ADD SLOAD SWAP1 PUSH2 0x2B73 PUSH1 0x40 MLOAD SWAP3 DUP4 SWAP3 TIMESTAMP SWAP2 DUP5 PUSH1 0x40 SWAP2 SWAP5 SWAP4 SWAP3 PUSH1 0x60 DUP3 ADD SWAP6 DUP3 MSTORE PUSH1 0x20 DUP3 ADD MSTORE ADD MSTORE JUMP JUMPDEST SUB SWAP1 LOG2 DUP3 DUP7 MSTORE PUSH1 0x1D PUSH1 0x20 MSTORE PUSH2 0x8A0 PUSH1 0x3 PUSH1 0x40 DUP9 KECCAK256 ADD SLOAD PUSH1 0x40 MLOAD SWAP1 PUSH2 0x88D DUP3 PUSH2 0x397D JUMP JUMPDEST SWAP2 SWAP1 PUSH2 0x2883 JUMP JUMPDEST PUSH2 0x2BA8 SWAP2 SWAP3 POP PUSH2 0x3953 JUMP JUMPDEST PUSH2 0x2BB4 JUMPI DUP3 DUP7 CODESIZE PUSH2 0x2B1A JUMP JUMPDEST DUP6 DUP1 REVERT JUMPDEST PUSH1 0x40 MLOAD RETURNDATASIZE DUP10 DUP3 RETURNDATACOPY RETURNDATASIZE SWAP1 REVERT JUMPDEST DUP8 DUP1 REVERT JUMPDEST PUSH1 0x40 MLOAD PUSH2 0x2BD7 SWAP2 PUSH2 0x8E5 DUP3 PUSH2 0x3999 JUMP JUMPDEST CODESIZE PUSH2 0x2A6C JUMP JUMPDEST POP DUP1 ISZERO ISZERO PUSH2 0x2A67 JUMP JUMPDEST POP POP SWAP6 POP DUP3 PUSH1 0x0 MSTORE PUSH1 0x1D PUSH1 0x20 MSTORE PUSH1 0x0 DUP1 DUP1 DUP1 DUP10 PUSH1 0x1 DUP1 PUSH1 0xA0 SHL SUB PUSH1 0x40 DUP4 KECCAK256 SLOAD PUSH1 0x8 SHR AND GAS CALL PUSH2 0x2C13 PUSH2 0x3D7A JUMP JUMPDEST POP ISZERO PUSH2 0x96B JUMPI DUP7 SWAP6 PUSH1 0x1 PUSH2 0x2A60 JUMP JUMPDEST SLOAD PUSH1 0xFF AND PUSH2 0x2C4B JUMPI JUMPDEST PUSH1 0x0 MSTORE PUSH1 0x1D PUSH1 0x20 MSTORE PUSH2 0x2C45 PUSH1 0x2 PUSH1 0x40 PUSH1 0x0 KECCAK256 ADD SLOAD SWAP2 PUSH2 0x3CBD JUMP JUMPDEST SWAP1 PUSH2 0x296F JUMP JUMPDEST PUSH1 0x1 DUP3 ADD DUP3 GT PUSH2 0x919 JUMPI PUSH1 0x40 DUP1 MLOAD DUP6 DUP2 MSTORE PUSH1 0x0 NOT DUP13 ADD PUSH1 0x20 DUP3 ADD MSTORE PUSH1 0x1 DUP5 ADD SWAP2 DUP2 ADD SWAP2 SWAP1 SWAP2 MSTORE PUSH1 0x0 PUSH1 0x60 DUP3 ADD MSTORE TIMESTAMP PUSH1 0x80 DUP3 ADD MSTORE DUP2 SWAP1 DUP9 SWAP1 PUSH1 0x0 DUP1 MLOAD PUSH1 0x20 PUSH2 0x539C DUP4 CODECOPY DUP2 MLOAD SWAP2 MSTORE SWAP1 PUSH1 0xA0 SWAP1 LOG3 DUP7 DUP2 PUSH32 0x587D8F9CC4F7AE2F12F916B8AC03AC5414969DFAF447B84ACBB1E2B171CB7EB2 PUSH1 0xA0 PUSH1 0x40 MLOAD DUP9 DUP2 MSTORE PUSH1 0x18 PUSH1 0x60 DUP1 PUSH1 0x20 DUP5 ADD MSTORE DUP3 ADD MSTORE PUSH24 0x9CDEE840E2EAC2D8D2CCD2CAC840CCDEE440DAC2E8E4D2F PUSH1 0x43 SHL PUSH1 0x80 DUP3 ADD MSTORE TIMESTAMP PUSH1 0x40 DUP3 ADD MSTORE LOG3 PUSH2 0x2C2B JUMP JUMPDEST POP PUSH1 0x2 PUSH1 0x4 DUP3 ADD SLOAD LT ISZERO PUSH2 0x299F JUMP JUMPDEST SWAP10 POP POP POP PUSH2 0x2A60 JUMP JUMPDEST POP DUP2 ISZERO ISZERO PUSH2 0x297A JUMP JUMPDEST PUSH4 0x4E487B71 PUSH1 0xE0 SHL DUP10 MSTORE PUSH1 0x11 PUSH1 0x4 MSTORE PUSH1 0x24 DUP10 REVERT JUMPDEST PUSH2 0x2D6C DUP8 DUP1 DUP1 DUP1 DUP11 PUSH32 0x0 PUSH1 0x1 PUSH1 0x1 PUSH1 0xA0 SHL SUB AND GAS CALL PUSH2 0xAF1 PUSH2 0x3D7A JUMP JUMPDEST DUP3 PUSH32 0xB74A7140EF81C80D0E213846B7B10B59F9C366B463E36E1F98BF00EF44C670B4 PUSH1 0x40 DUP1 MLOAD DUP10 DUP2 MSTORE TIMESTAMP PUSH1 0x20 DUP3 ADD MSTORE LOG2 PUSH2 0x2929 JUMP JUMPDEST PUSH2 0x2DDD DUP8 DUP1 DUP1 DUP1 DUP6 PUSH32 0x0 PUSH1 0x1 PUSH1 0x1 PUSH1 0xA0 SHL SUB AND GAS CALL PUSH2 0xB68 PUSH2 0x3D7A JUMP JUMPDEST DUP3 DUP8 MSTORE PUSH1 0x1D PUSH1 0x20 MSTORE PUSH1 0x3 PUSH1 0x40 DUP9 KECCAK256 ADD SLOAD SWAP1 DUP2 PUSH1 0x0 NOT DUP2 ADD GT PUSH2 0xAA1 JUMPI PUSH1 0x40 DUP1 MLOAD SWAP2 DUP3 MSTORE PUSH1 0x0 NOT SWAP3 SWAP1 SWAP3 ADD PUSH1 0x20 DUP3 ADD MSTORE TIMESTAMP SWAP2 DUP2 ADD SWAP2 SWAP1 SWAP2 MSTORE PUSH32 0xEDD09F264659CE99B52FD2A2D4F09E551EB001FE3FC56FFD5704FC1F402BC211 SWAP1 PUSH1 0x60 SWAP1 LOG1 CODESIZE PUSH2 0x2915 JUMP JUMPDEST SWAP2 DUP2 DUP5 MSTORE PUSH1 0x1D PUSH1 0x20 MSTORE PUSH2 0x2E5A DUP6 PUSH1 0x3 PUSH1 0x40 DUP8 KECCAK256 ADD SLOAD PUSH2 0x3BEF JUMP JUMPDEST PUSH1 0x0 NOT DUP2 ADD SWAP1 DUP2 GT PUSH2 0xBE5 JUMPI PUSH2 0x2E79 SWAP2 PUSH2 0xC32 PUSH2 0x436 PUSH2 0x45A SWAP4 PUSH2 0x3AF6 JUMP JUMPDEST SWAP4 SWAP2 PUSH2 0x286A JUMP JUMPDEST POP DUP3 DUP3 MSTORE PUSH1 0x1D PUSH1 0x20 MSTORE PUSH1 0x40 DUP3 KECCAK256 SLOAD PUSH1 0xFF AND PUSH2 0x2814 JUMP JUMPDEST POP CALLVALUE PUSH2 0x47C JUMPI DUP1 PUSH1 0x3 NOT CALLDATASIZE ADD SLT PUSH2 0x47C JUMPI PUSH2 0x2EAF PUSH2 0x3A2C JUMP JUMPDEST PUSH1 0x19 SLOAD PUSH1 0xFF DUP2 AND PUSH2 0x2EF4 JUMPI PUSH1 0x1 SWAP1 PUSH1 0xFF NOT AND OR PUSH1 0x19 SSTORE PUSH1 0x40 MLOAD TIMESTAMP DUP2 MSTORE PUSH32 0x80170B5FCDD2BF1E0660EF4B8851F86685F64D41B1A19DE1471947ECE8725AAC PUSH1 0x20 CALLER SWAP3 LOG2 DUP1 RETURN JUMPDEST PUSH1 0x40 MLOAD PUSH3 0x461BCD PUSH1 0xE5 SHL DUP2 MSTORE PUSH1 0x20 PUSH1 0x4 DUP3 ADD MSTORE PUSH1 0xE PUSH1 0x24 DUP3 ADD MSTORE PUSH14 0x105B1C9958591E481C185D5CD959 PUSH1 0x92 SHL PUSH1 0x44 DUP3 ADD MSTORE PUSH1 0x64 SWAP1 REVERT JUMPDEST POP CALLVALUE PUSH2 0x47C JUMPI DUP1 PUSH1 0x3 NOT CALLDATASIZE ADD SLT PUSH2 0x47C JUMPI PUSH2 0x2F43 PUSH2 0x3A2C JUMP JUMPDEST PUSH32 0x0 SWAP1 DUP2 DUP2 MSTORE PUSH1 0x1D PUSH1 0x20 MSTORE PUSH1 0xD PUSH1 0x3 PUSH1 0x40 DUP4 KECCAK256 ADD SLOAD SUB PUSH2 0x30EC JUMPI PUSH32 0x0 PUSH1 0x1 PUSH1 0x1 PUSH1 0xA0 SHL SUB AND DUP1 EXTCODESIZE ISZERO PUSH2 0x1CD7 JUMPI PUSH1 0x40 MLOAD SWAP3 PUSH4 0x66F05661 PUSH1 0xE1 SHL SWAP1 DUP2 DUP6 MSTORE DUP1 PUSH1 0x4 DUP7 ADD MSTORE PUSH1 0xA PUSH1 0x24 DUP7 ADD MSTORE DUP4 PUSH1 0x44 DUP7 ADD MSTORE DUP4 DUP6 PUSH1 0x64 DUP2 DUP4 DUP8 GAS CALL DUP1 ISZERO PUSH2 0x30E1 JUMPI PUSH2 0x30CD JUMPI JUMPDEST DUP4 SWAP5 POP DUP3 EXTCODESIZE ISZERO PUSH2 0x30A0 JUMPI PUSH1 0x40 MLOAD DUP3 DUP2 MSTORE DUP2 PUSH1 0x4 DUP3 ADD MSTORE PUSH1 0xB PUSH1 0x24 DUP3 ADD MSTORE DUP5 PUSH1 0x44 DUP3 ADD MSTORE DUP5 DUP2 PUSH1 0x64 DUP2 DUP4 DUP9 GAS CALL SWAP1 DUP2 ISZERO PUSH2 0x1C50 JUMPI DUP6 SWAP2 PUSH2 0x30B9 JUMPI JUMPDEST POP POP DUP3 EXTCODESIZE ISZERO PUSH2 0x30A0 JUMPI PUSH1 0x40 MLOAD DUP3 DUP2 MSTORE DUP2 PUSH1 0x4 DUP3 ADD MSTORE PUSH1 0xC PUSH1 0x24 DUP3 ADD MSTORE DUP5 PUSH1 0x44 DUP3 ADD MSTORE DUP5 DUP2 PUSH1 0x64 DUP2 DUP4 DUP9 GAS CALL SWAP1 DUP2 ISZERO PUSH2 0x1C50 JUMPI DUP6 SWAP2 PUSH2 0x30A5 JUMPI JUMPDEST POP POP DUP3 EXTCODESIZE ISZERO PUSH2 0x30A0 JUMPI PUSH1 0x64 DUP5 SWAP3 DUP4 PUSH1 0x40 MLOAD SWAP6 DUP7 SWAP5 DUP6 SWAP4 DUP5 MSTORE PUSH1 0x4 DUP5 ADD MSTORE PUSH1 0xD PUSH1 0x24 DUP5 ADD MSTORE DUP2 PUSH1 0x44 DUP5 ADD MSTORE GAS CALL DUP1 ISZERO PUSH2 0x1858 JUMPI PUSH2 0x3090 JUMPI POP RETURN JUMPDEST PUSH2 0x3099 SWAP1 PUSH2 0x3953 JUMP JUMPDEST PUSH2 0x47C JUMPI DUP1 RETURN JUMPDEST POP POP POP REVERT JUMPDEST PUSH2 0x30AE SWAP1 PUSH2 0x3953 JUMP JUMPDEST PUSH2 0x30A0 JUMPI DUP4 CODESIZE PUSH2 0x3057 JUMP JUMPDEST PUSH2 0x30C2 SWAP1 PUSH2 0x3953 JUMP JUMPDEST PUSH2 0x30A0 JUMPI DUP4 CODESIZE PUSH2 0x301E JUMP JUMPDEST SWAP3 SWAP1 SWAP4 PUSH2 0x30D9 SWAP1 PUSH2 0x3953 JUMP JUMPDEST SWAP2 DUP4 SWAP1 PUSH2 0x2FE4 JUMP JUMPDEST PUSH1 0x40 MLOAD RETURNDATASIZE DUP7 DUP3 RETURNDATACOPY RETURNDATASIZE SWAP1 REVERT JUMPDEST PUSH1 0x40 MLOAD PUSH3 0x461BCD PUSH1 0xE5 SHL DUP2 MSTORE PUSH1 0x20 PUSH1 0x4 DUP3 ADD MSTORE PUSH1 0x15 PUSH1 0x24 DUP3 ADD MSTORE PUSH21 0x149BDBDD081B9BDD08185D081B585E081B195D995B PUSH1 0x5A SHL PUSH1 0x44 DUP3 ADD MSTORE PUSH1 0x64 SWAP1 REVERT JUMPDEST POP CALLVALUE PUSH2 0x47C JUMPI PUSH1 0x20 CALLDATASIZE PUSH1 0x3 NOT ADD SLT PUSH2 0x47C JUMPI PUSH1 0x4 CALLDATALOAD PUSH2 0x3146 PUSH2 0x3A2C JUMP JUMPDEST DUP1 ISZERO ISZERO DUP1 PUSH2 0x3235 JUMPI JUMPDEST ISZERO PUSH2 0x31FA JUMPI DUP1 DUP3 MSTORE PUSH1 0x1D PUSH1 0x20 MSTORE PUSH1 0xFF PUSH1 0x40 DUP4 KECCAK256 SLOAD AND ISZERO PUSH2 0x31B5 JUMPI PUSH32 0xF74E20AAE72CC960952A3704606E03E286CB5A183F94A503F0C6195BD3CDC83A SWAP1 PUSH1 0x2 SLOAD SWAP1 DUP1 PUSH1 0x2 SSTORE PUSH2 0x1265 PUSH1 0x40 MLOAD SWAP3 DUP4 SWAP3 TIMESTAMP SWAP2 DUP5 PUSH1 0x40 SWAP2 SWAP5 SWAP4 SWAP3 PUSH1 0x60 DUP3 ADD SWAP6 DUP3 MSTORE PUSH1 0x20 DUP3 ADD MSTORE ADD MSTORE JUMP JUMPDEST PUSH1 0x40 MLOAD PUSH3 0x461BCD PUSH1 0xE5 SHL DUP2 MSTORE PUSH1 0x20 PUSH1 0x4 DUP3 ADD MSTORE PUSH1 0x17 PUSH1 0x24 DUP3 ADD MSTORE PUSH32 0x526566657272657220646F6573206E6F74206578697374000000000000000000 PUSH1 0x44 DUP3 ADD MSTORE PUSH1 0x64 SWAP1 REVERT JUMPDEST PUSH1 0x40 MLOAD PUSH3 0x461BCD PUSH1 0xE5 SHL DUP2 MSTORE PUSH1 0x20 PUSH1 0x4 DUP3 ADD MSTORE PUSH1 0x13 PUSH1 0x24 DUP3 ADD MSTORE PUSH19 0x125B9D985B1A59081C9959995C9C995C881251 PUSH1 0x6A SHL PUSH1 0x44 DUP3 ADD MSTORE PUSH1 0x64 SWAP1 REVERT JUMPDEST POP PUSH1 0x1B SLOAD DUP2 GT ISZERO PUSH2 0x314F JUMP JUMPDEST POP CALLVALUE PUSH2 0x47C JUMPI DUP1 PUSH1 0x3 NOT CALLDATASIZE ADD SLT PUSH2 0x47C JUMPI PUSH1 0x20 PUSH1 0xFF PUSH1 0x9 SLOAD AND PUSH1 0x40 MLOAD SWAP1 ISZERO ISZERO DUP2 MSTORE RETURN JUMPDEST POP CALLVALUE PUSH2 0x47C JUMPI DUP1 PUSH1 0x3 NOT CALLDATASIZE ADD SLT PUSH2 0x47C JUMPI PUSH2 0x327D PUSH2 0x3ACA JUMP JUMPDEST PUSH1 0x64 PUSH2 0x3288 DUP3 PUSH2 0x3A94 JUMP JUMPDEST DIV PUSH2 0x405 PUSH2 0x3296 DUP3 DUP5 PUSH2 0x3BEF JUMP JUMPDEST SWAP2 PUSH1 0x40 MLOAD SWAP4 DUP5 SWAP4 DUP5 PUSH1 0x40 SWAP2 SWAP5 SWAP4 SWAP3 PUSH1 0x60 DUP3 ADD SWAP6 DUP3 MSTORE PUSH1 0x20 DUP3 ADD MSTORE ADD MSTORE JUMP JUMPDEST POP CALLVALUE PUSH2 0x47C JUMPI PUSH1 0x20 CALLDATASIZE PUSH1 0x3 NOT ADD SLT PUSH2 0x47C JUMPI PUSH1 0x20 PUSH2 0x25B7 PUSH1 0x4 CALLDATALOAD PUSH2 0x3AF6 JUMP JUMPDEST POP CALLVALUE PUSH2 0x47C JUMPI PUSH1 0x20 CALLDATASIZE PUSH1 0x3 NOT ADD SLT PUSH2 0x47C JUMPI PUSH1 0x40 PUSH1 0x20 SWAP2 PUSH1 0x4 CALLDATALOAD DUP2 MSTORE PUSH1 0x21 DUP4 MSTORE KECCAK256 SLOAD PUSH1 0x40 MLOAD SWAP1 DUP2 MSTORE RETURN JUMPDEST POP CALLVALUE PUSH2 0x47C JUMPI PUSH1 0x40 CALLDATASIZE PUSH1 0x3 NOT ADD SLT PUSH2 0x47C JUMPI PUSH2 0x3317 PUSH2 0x382B JUMP JUMPDEST SWAP1 PUSH1 0x24 SWAP2 DUP3 CALLDATALOAD PUSH2 0x3325 PUSH2 0x3A2C JUMP JUMPDEST PUSH1 0xFF DUP3 AND SWAP2 PUSH2 0x3336 PUSH1 0xD DUP5 LT PUSH2 0x3A58 JUMP JUMPDEST DUP2 ISZERO PUSH2 0x3561 JUMPI PUSH8 0xDE0B6B3A7640000 DUP3 LT PUSH2 0x3525 JUMPI PUSH10 0x152D02C7E14AF6800000 DUP3 GT PUSH2 0x34E1 JUMPI DUP3 PUSH2 0x3475 JUMPI JUMPDEST PUSH1 0xC DUP4 LT PUSH2 0x33D4 JUMPI JUMPDEST PUSH1 0xD DUP2 LT ISZERO PUSH2 0x33C0 JUMPI PUSH1 0xC ADD DUP1 SLOAD SWAP1 DUP3 SWAP1 SSTORE PUSH1 0x40 DUP1 MLOAD SWAP2 DUP3 MSTORE PUSH1 0x20 DUP3 ADD SWAP3 SWAP1 SWAP3 MSTORE TIMESTAMP SWAP2 DUP2 ADD SWAP2 SWAP1 SWAP2 MSTORE PUSH32 0x1160DED273713B62692B83F3F861BFEF99579EAF0440D7A22D838A3D163922E SWAP1 DUP1 PUSH1 0x60 DUP2 ADD PUSH2 0x16E4 JUMP JUMPDEST POP POP PUSH4 0x4E487B71 PUSH1 0xE0 SHL DUP3 MSTORE POP PUSH1 0x32 PUSH1 0x4 MSTORE REVERT JUMPDEST PUSH2 0x33DD DUP2 PUSH2 0x3FA0 JUMP JUMPDEST PUSH1 0xD DUP2 LT ISZERO PUSH2 0x3462 JUMPI PUSH1 0xC ADD SLOAD DUP3 LT DUP1 ISZERO PUSH2 0x3445 JUMPI JUMPDEST PUSH2 0x336B JUMPI PUSH1 0x40 MLOAD PUSH3 0x461BCD PUSH1 0xE5 SHL DUP2 MSTORE PUSH1 0x20 PUSH1 0x4 DUP3 ADD MSTORE PUSH1 0x21 DUP2 DUP8 ADD MSTORE PUSH32 0x436F7374206D757374206265206C657373207468616E206E657874206C657665 PUSH1 0x44 DUP3 ADD MSTORE PUSH1 0x1B PUSH1 0xFA SHL PUSH1 0x64 DUP3 ADD MSTORE PUSH1 0x84 SWAP1 REVERT JUMPDEST POP PUSH2 0x344F DUP2 PUSH2 0x3FA0 JUMP JUMPDEST PUSH1 0xD DUP2 LT ISZERO PUSH2 0x3462 JUMPI PUSH1 0xC ADD SLOAD ISZERO PUSH2 0x33F3 JUMP JUMPDEST PUSH4 0x4E487B71 PUSH1 0xE0 SHL DUP6 MSTORE PUSH1 0x32 PUSH1 0x4 MSTORE DUP6 DUP6 REVERT JUMPDEST PUSH1 0x0 NOT DUP4 ADD PUSH1 0xFF DUP2 GT PUSH2 0x34CE JUMPI PUSH1 0xD GT ISZERO PUSH2 0x33C0 JUMPI PUSH1 0xB DUP4 ADD SLOAD DUP3 GT PUSH2 0x3362 JUMPI PUSH1 0x40 MLOAD PUSH3 0x461BCD PUSH1 0xE5 SHL DUP2 MSTORE PUSH1 0x20 PUSH1 0x4 DUP3 ADD MSTORE PUSH1 0x12 DUP2 DUP8 ADD MSTORE PUSH18 0x436F7374206D75737420696E637265617365 PUSH1 0x70 SHL PUSH1 0x44 DUP3 ADD MSTORE PUSH1 0x64 SWAP1 REVERT JUMPDEST PUSH4 0x4E487B71 PUSH1 0xE0 SHL DUP6 MSTORE PUSH1 0x11 PUSH1 0x4 MSTORE DUP6 DUP6 REVERT JUMPDEST PUSH1 0x40 MLOAD PUSH3 0x461BCD PUSH1 0xE5 SHL DUP2 MSTORE PUSH1 0x20 PUSH1 0x4 DUP3 ADD MSTORE PUSH1 0x1B DUP2 DUP8 ADD MSTORE PUSH32 0x4D6178696D756D20636F7374206973203130302C30303020424E420000000000 PUSH1 0x44 DUP3 ADD MSTORE PUSH1 0x64 SWAP1 REVERT JUMPDEST PUSH1 0x40 MLOAD PUSH3 0x461BCD PUSH1 0xE5 SHL DUP2 MSTORE PUSH1 0x20 PUSH1 0x4 DUP3 ADD MSTORE PUSH1 0x15 DUP2 DUP8 ADD MSTORE PUSH21 0x26B4B734B6BAB69031B7B9BA1034B9901890212721 PUSH1 0x59 SHL PUSH1 0x44 DUP3 ADD MSTORE PUSH1 0x64 SWAP1 REVERT JUMPDEST PUSH1 0x40 MLOAD PUSH3 0x461BCD PUSH1 0xE5 SHL DUP2 MSTORE PUSH1 0x20 PUSH1 0x4 DUP3 ADD MSTORE PUSH1 0x15 DUP2 DUP8 ADD MSTORE PUSH21 0x436F7374206D75737420626520706F736974697665 PUSH1 0x58 SHL PUSH1 0x44 DUP3 ADD MSTORE PUSH1 0x64 SWAP1 REVERT JUMPDEST POP CALLVALUE PUSH2 0x47C JUMPI DUP1 PUSH1 0x3 NOT CALLDATASIZE ADD SLT PUSH2 0x47C JUMPI PUSH1 0x20 PUSH1 0xB SLOAD PUSH1 0x40 MLOAD SWAP1 DUP2 MSTORE RETURN JUMPDEST POP CALLVALUE PUSH2 0x47C JUMPI PUSH2 0x35CA CALLDATASIZE PUSH2 0x383B JUMP JUMPDEST SWAP1 PUSH2 0x35D3 PUSH2 0x3A2C JUMP JUMPDEST DUP1 ISZERO ISZERO DUP1 PUSH2 0x3663 JUMPI JUMPDEST ISZERO PUSH2 0x362D JUMPI PUSH32 0x55C3A078A4DD343C06964318BDE751610B3227BE1C0688D1F85E0F88EDD09C4F SWAP2 DUP2 PUSH1 0xA SSTORE DUP1 PUSH1 0xB SSTORE PUSH2 0x1265 PUSH1 0x40 MLOAD SWAP3 DUP4 SWAP3 TIMESTAMP SWAP2 DUP5 PUSH1 0x40 SWAP2 SWAP5 SWAP4 SWAP3 PUSH1 0x60 DUP3 ADD SWAP6 DUP3 MSTORE PUSH1 0x20 DUP3 ADD MSTORE ADD MSTORE JUMP JUMPDEST PUSH1 0x40 MLOAD PUSH3 0x461BCD PUSH1 0xE5 SHL DUP2 MSTORE PUSH1 0x20 PUSH1 0x4 DUP3 ADD MSTORE PUSH1 0xE PUSH1 0x24 DUP3 ADD MSTORE PUSH14 0x496E76616C696420626F756E6473 PUSH1 0x90 SHL PUSH1 0x44 DUP3 ADD MSTORE PUSH1 0x64 SWAP1 REVERT JUMPDEST POP DUP1 DUP3 GT PUSH2 0x35DC JUMP JUMPDEST POP CALLVALUE PUSH2 0x47C JUMPI PUSH1 0x20 CALLDATASIZE PUSH1 0x3 NOT ADD SLT PUSH2 0x47C JUMPI PUSH2 0x3686 PUSH2 0x382B JUMP JUMPDEST PUSH2 0x368E PUSH2 0x3A2C JUMP JUMPDEST PUSH1 0xFF DUP2 AND DUP1 ISZERO ISZERO DUP1 PUSH2 0x372E JUMPI JUMPDEST ISZERO PUSH2 0x36F9 JUMPI PUSH31 0x22A9CB4F0E1ED3EC37FC23F34059F1121810BCDA271F475ABDD6CF2B95D0DF SWAP2 PUSH1 0x60 SWAP2 PUSH1 0x1 SLOAD SWAP2 PUSH1 0xFF PUSH1 0xA0 SHL SWAP1 PUSH1 0xA0 SHL AND PUSH1 0xFF PUSH1 0xA0 SHL NOT DUP4 AND OR PUSH1 0x1 SSTORE PUSH1 0xFF PUSH1 0x40 MLOAD SWAP3 PUSH1 0xA0 SHR AND DUP3 MSTORE PUSH1 0x20 DUP3 ADD MSTORE TIMESTAMP PUSH1 0x40 DUP3 ADD MSTORE LOG1 DUP1 RETURN JUMPDEST PUSH1 0x40 MLOAD PUSH3 0x461BCD PUSH1 0xE5 SHL DUP2 MSTORE PUSH1 0x20 PUSH1 0x4 DUP3 ADD MSTORE PUSH1 0xD PUSH1 0x24 DUP3 ADD MSTORE PUSH13 0x92DCECC2D8D2C840C8CAE0E8D PUSH1 0x9B SHL PUSH1 0x44 DUP3 ADD MSTORE PUSH1 0x64 SWAP1 REVERT JUMPDEST POP PUSH1 0xFF DUP2 GT ISZERO PUSH2 0x369B JUMP JUMPDEST POP CALLVALUE PUSH2 0x47C JUMPI PUSH1 0x20 CALLDATASIZE PUSH1 0x3 NOT ADD SLT PUSH2 0x47C JUMPI PUSH32 0x2F363FD6FEF1150CAEE78EFFEB98F6B9E03526DAC46804B86A5F5F23909E840D PUSH1 0x4 CALLDATALOAD PUSH2 0x3777 PUSH2 0x3A2C JUMP JUMPDEST PUSH2 0x3782 DUP2 ISZERO ISZERO PUSH2 0x3FB2 JUMP JUMPDEST PUSH1 0x6 SLOAD SWAP1 DUP1 PUSH1 0x6 SSTORE PUSH2 0x1265 PUSH1 0x40 MLOAD SWAP3 DUP4 SWAP3 TIMESTAMP SWAP2 DUP5 PUSH1 0x40 SWAP2 SWAP5 SWAP4 SWAP3 PUSH1 0x60 DUP3 ADD SWAP6 DUP3 MSTORE PUSH1 0x20 DUP3 ADD MSTORE ADD MSTORE JUMP JUMPDEST DUP3 CALLVALUE PUSH2 0x47C JUMPI PUSH1 0x20 CALLDATASIZE PUSH1 0x3 NOT ADD SLT PUSH2 0x47C JUMPI PUSH1 0x4 CALLDATALOAD DUP1 DUP3 MSTORE PUSH1 0x1D PUSH1 0x20 MSTORE PUSH1 0xFF PUSH1 0x40 DUP4 KECCAK256 SLOAD AND ISZERO PUSH2 0x37F8 JUMPI PUSH1 0x20 SWAP3 POP DUP2 MSTORE PUSH1 0x1D DUP3 MSTORE PUSH1 0x40 PUSH1 0x1 DUP1 PUSH1 0xA0 SHL SUB SWAP2 KECCAK256 SLOAD PUSH1 0x8 SHR AND PUSH1 0x40 MLOAD SWAP1 DUP2 MSTORE RETURN JUMPDEST PUSH3 0x461BCD PUSH1 0xE5 SHL DUP4 MSTORE PUSH1 0x20 PUSH1 0x4 DUP5 ADD MSTORE PUSH1 0xE PUSH1 0x24 DUP5 ADD MSTORE PUSH14 0x155CD95C881B9BDD08199BDD5B99 PUSH1 0x92 SHL PUSH1 0x44 DUP5 ADD MSTORE PUSH1 0x64 DUP4 REVERT JUMPDEST PUSH1 0x4 CALLDATALOAD SWAP1 PUSH1 0xFF DUP3 AND DUP3 SUB PUSH2 0x11E2 JUMPI JUMP JUMPDEST PUSH1 0x40 SWAP1 PUSH1 0x3 NOT ADD SLT PUSH2 0x11E2 JUMPI PUSH1 0x4 CALLDATALOAD SWAP1 PUSH1 0x24 CALLDATALOAD SWAP1 JUMP JUMPDEST CALLVALUE PUSH2 0x11E2 JUMPI PUSH1 0x0 CALLDATASIZE PUSH1 0x3 NOT ADD SLT PUSH2 0x11E2 JUMPI PUSH1 0x20 PUSH1 0x40 MLOAD PUSH1 0xD DUP2 MSTORE RETURN JUMPDEST DUP1 SLOAD DUP3 LT ISZERO PUSH2 0x3885 JUMPI PUSH1 0x0 MSTORE PUSH1 0x20 PUSH1 0x0 KECCAK256 ADD SWAP1 PUSH1 0x0 SWAP1 JUMP JUMPDEST PUSH4 0x4E487B71 PUSH1 0xE0 SHL PUSH1 0x0 MSTORE PUSH1 0x32 PUSH1 0x4 MSTORE PUSH1 0x24 PUSH1 0x0 REVERT JUMPDEST PUSH1 0x0 SWAP2 JUMPDEST PUSH1 0x4 DUP4 LT PUSH2 0x38AC JUMPI POP POP POP JUMP JUMPDEST PUSH1 0x1 SWAP1 DUP3 MLOAD ISZERO ISZERO DUP2 MSTORE PUSH1 0x20 DUP1 SWAP2 ADD SWAP3 ADD SWAP3 ADD SWAP2 SWAP1 PUSH2 0x389F JUMP JUMPDEST PUSH1 0x4 CALLDATALOAD SWAP1 PUSH1 0x1 PUSH1 0x1 PUSH1 0xA0 SHL SUB DUP3 AND DUP3 SUB PUSH2 0x11E2 JUMPI JUMP JUMPDEST SWAP1 DUP2 MLOAD DUP1 DUP3 MSTORE PUSH1 0x20 DUP1 DUP1 SWAP4 ADD SWAP4 ADD SWAP2 PUSH1 0x0 JUMPDEST DUP3 DUP2 LT PUSH2 0x38FB JUMPI POP POP POP POP SWAP1 JUMP JUMPDEST DUP4 MLOAD DUP6 MSTORE SWAP4 DUP2 ADD SWAP4 SWAP3 DUP2 ADD SWAP3 PUSH1 0x1 ADD PUSH2 0x38ED JUMP JUMPDEST CALLVALUE PUSH2 0x11E2 JUMPI PUSH1 0x0 CALLDATASIZE PUSH1 0x3 NOT ADD SLT PUSH2 0x11E2 JUMPI PUSH1 0x20 PUSH1 0x40 MLOAD PUSH1 0x5 DUP2 MSTORE RETURN JUMPDEST PUSH1 0x0 SWAP2 JUMPDEST PUSH1 0xD DUP4 LT PUSH2 0x393C JUMPI POP POP POP JUMP JUMPDEST PUSH1 0x1 SWAP1 DUP3 MLOAD DUP2 MSTORE PUSH1 0x20 DUP1 SWAP2 ADD SWAP3 ADD SWAP3 ADD SWAP2 SWAP1 PUSH2 0x392F JUMP JUMPDEST PUSH8 0xFFFFFFFFFFFFFFFF DUP2 GT PUSH2 0x3967 JUMPI PUSH1 0x40 MSTORE JUMP JUMPDEST PUSH4 0x4E487B71 PUSH1 0xE0 SHL PUSH1 0x0 MSTORE PUSH1 0x41 PUSH1 0x4 MSTORE PUSH1 0x24 PUSH1 0x0 REVERT JUMPDEST PUSH1 0x60 DUP2 ADD SWAP1 DUP2 LT PUSH8 0xFFFFFFFFFFFFFFFF DUP3 GT OR PUSH2 0x3967 JUMPI PUSH1 0x40 MSTORE JUMP JUMPDEST PUSH1 0x40 DUP2 ADD SWAP1 DUP2 LT PUSH8 0xFFFFFFFFFFFFFFFF DUP3 GT OR PUSH2 0x3967 JUMPI PUSH1 0x40 MSTORE JUMP JUMPDEST PUSH2 0x1A0 DUP2 ADD SWAP1 DUP2 LT PUSH8 0xFFFFFFFFFFFFFFFF DUP3 GT OR PUSH2 0x3967 JUMPI PUSH1 0x40 MSTORE JUMP JUMPDEST PUSH1 0x20 DUP2 ADD SWAP1 DUP2 LT PUSH8 0xFFFFFFFFFFFFFFFF DUP3 GT OR PUSH2 0x3967 JUMPI PUSH1 0x40 MSTORE JUMP JUMPDEST PUSH1 0x80 DUP2 ADD SWAP1 DUP2 LT PUSH8 0xFFFFFFFFFFFFFFFF DUP3 GT OR PUSH2 0x3967 JUMPI PUSH1 0x40 MSTORE JUMP JUMPDEST SWAP1 PUSH1 0x1F DUP1 NOT SWAP2 ADD AND DUP2 ADD SWAP1 DUP2 LT PUSH8 0xFFFFFFFFFFFFFFFF DUP3 GT OR PUSH2 0x3967 JUMPI PUSH1 0x40 MSTORE JUMP JUMPDEST PUSH1 0x1 SLOAD PUSH1 0x1 PUSH1 0x1 PUSH1 0xA0 SHL SUB AND CALLER SUB PUSH2 0x3A40 JUMPI JUMP JUMPDEST PUSH1 0x40 MLOAD PUSH4 0x118CDAA7 PUSH1 0xE0 SHL DUP2 MSTORE CALLER PUSH1 0x4 DUP3 ADD MSTORE PUSH1 0x24 SWAP1 REVERT JUMPDEST ISZERO PUSH2 0x3A5F JUMPI JUMP JUMPDEST PUSH1 0x40 MLOAD PUSH3 0x461BCD PUSH1 0xE5 SHL DUP2 MSTORE PUSH1 0x20 PUSH1 0x4 DUP3 ADD MSTORE PUSH1 0xD PUSH1 0x24 DUP3 ADD MSTORE PUSH13 0x125B9D985B1A59081B195D995B PUSH1 0x9A SHL PUSH1 0x44 DUP3 ADD MSTORE PUSH1 0x64 SWAP1 REVERT JUMPDEST SWAP1 PUSH1 0x5 DUP3 MUL SWAP2 DUP1 DUP4 DIV PUSH1 0x5 EQ SWAP1 ISZERO OR ISZERO PUSH2 0x919 JUMPI JUMP JUMPDEST DUP2 ISZERO PUSH2 0x3AB4 JUMPI DIV SWAP1 JUMP JUMPDEST PUSH4 0x4E487B71 PUSH1 0xE0 SHL PUSH1 0x0 MSTORE PUSH1 0x12 PUSH1 0x4 MSTORE PUSH1 0x24 PUSH1 0x0 REVERT JUMPDEST PUSH1 0xC SLOAD PUSH8 0xDE0B6B3A7640000 SWAP1 DUP2 DUP2 MUL SWAP2 DUP2 DUP4 DIV EQ SWAP1 ISZERO OR ISZERO PUSH2 0x919 JUMPI PUSH1 0x6 SLOAD PUSH2 0x3AF3 SWAP2 PUSH2 0x3AAA JUMP JUMPDEST SWAP1 JUMP JUMPDEST PUSH1 0xD DUP2 LT PUSH2 0x3B03 DUP2 PUSH2 0x3A58 JUMP JUMPDEST ISZERO PUSH2 0x3885 JUMPI PUSH1 0xC ADD SLOAD PUSH8 0xDE0B6B3A7640000 SWAP1 DUP2 DUP2 MUL SWAP2 DUP2 DUP4 DIV EQ SWAP1 ISZERO OR ISZERO PUSH2 0x919 JUMPI PUSH1 0x6 SLOAD PUSH2 0x3AF3 SWAP2 PUSH2 0x3AAA JUMP JUMPDEST ISZERO PUSH2 0x3B39 JUMPI JUMP JUMPDEST PUSH1 0x40 MLOAD PUSH3 0x461BCD PUSH1 0xE5 SHL DUP2 MSTORE PUSH1 0x20 PUSH1 0x4 DUP3 ADD MSTORE PUSH1 0xF PUSH1 0x24 DUP3 ADD MSTORE PUSH15 0x10DBDB9D1C9858DD081C185D5CD959 PUSH1 0x8A SHL PUSH1 0x44 DUP3 ADD MSTORE PUSH1 0x64 SWAP1 REVERT JUMPDEST ISZERO PUSH2 0x3B77 JUMPI JUMP JUMPDEST PUSH1 0x40 MLOAD PUSH3 0x461BCD PUSH1 0xE5 SHL DUP2 MSTORE PUSH1 0x20 PUSH1 0x4 DUP3 ADD MSTORE PUSH1 0x12 PUSH1 0x24 DUP3 ADD MSTORE PUSH18 0x105B1C9958591E481C9959DA5CDD195C9959 PUSH1 0x72 SHL PUSH1 0x44 DUP3 ADD MSTORE PUSH1 0x64 SWAP1 REVERT JUMPDEST ISZERO PUSH2 0x3BB8 JUMPI JUMP JUMPDEST PUSH1 0x40 MLOAD PUSH3 0x461BCD PUSH1 0xE5 SHL DUP2 MSTORE PUSH1 0x20 PUSH1 0x4 DUP3 ADD MSTORE PUSH1 0xF PUSH1 0x24 DUP3 ADD MSTORE PUSH15 0x496E76616C69642061646472657373 PUSH1 0x88 SHL PUSH1 0x44 DUP3 ADD MSTORE PUSH1 0x64 SWAP1 REVERT JUMPDEST SWAP2 SWAP1 DUP3 ADD DUP1 SWAP3 GT PUSH2 0x919 JUMPI JUMP JUMPDEST ISZERO PUSH2 0x3C03 JUMPI JUMP JUMPDEST PUSH1 0x40 MLOAD PUSH3 0x461BCD PUSH1 0xE5 SHL DUP2 MSTORE PUSH1 0x20 PUSH1 0x4 DUP3 ADD MSTORE PUSH1 0x15 PUSH1 0x24 DUP3 ADD MSTORE PUSH21 0x125B9CDD59999A58DA595B9D08109390881CD95B9D PUSH1 0x5A SHL PUSH1 0x44 DUP3 ADD MSTORE PUSH1 0x64 SWAP1 REVERT JUMPDEST PUSH1 0x23 SLOAD PUSH1 0x1 PUSH1 0x40 SHL DUP2 LT ISZERO PUSH2 0x3967 JUMPI PUSH1 0x1 DUP2 ADD DUP1 PUSH1 0x23 SSTORE DUP2 LT ISZERO PUSH2 0x3885 JUMPI PUSH1 0x23 PUSH1 0x0 MSTORE PUSH32 0xD57B2B5166478FD4318D2ACC6CC2C704584312BDD8781B32D5D06ABDA57F4230 ADD SSTORE JUMP JUMPDEST DUP1 SLOAD PUSH1 0x1 PUSH1 0x40 SHL DUP2 LT ISZERO PUSH2 0x3967 JUMPI PUSH2 0x3CA5 SWAP2 PUSH1 0x1 DUP3 ADD DUP2 SSTORE PUSH2 0x386D JUMP JUMPDEST DUP2 SWAP3 SWAP2 SLOAD SWAP1 PUSH1 0x3 SHL SWAP2 DUP3 SHL SWAP2 PUSH1 0x0 NOT SWAP1 SHL NOT AND OR SWAP1 SSTORE JUMP JUMPDEST PUSH1 0x0 NOT DUP2 EQ PUSH2 0x919 JUMPI PUSH1 0x1 ADD SWAP1 JUMP JUMPDEST PUSH1 0x24 SLOAD PUSH1 0x1 PUSH1 0x40 SHL DUP2 LT ISZERO PUSH2 0x3967 JUMPI PUSH1 0x1 DUP2 ADD DUP1 PUSH1 0x24 SSTORE DUP2 LT ISZERO PUSH2 0x3885 JUMPI PUSH1 0x40 PUSH1 0x3 PUSH32 0x7CD332D19B93BCABE3CCE7CA0C18A052F57E5FD03B4758A09F30F5DDC4B22EC6 SWAP3 PUSH1 0x24 PUSH1 0x0 MSTORE MUL SWAP3 DUP1 MLOAD DUP5 PUSH32 0x7CD332D19B93BCABE3CCE7CA0C18A052F57E5FD03B4758A09F30F5DDC4B22EC4 ADD SSTORE PUSH1 0x20 DUP2 ADD MLOAD PUSH32 0x7CD332D19B93BCABE3CCE7CA0C18A052F57E5FD03B4758A09F30F5DDC4B22EC5 DUP6 ADD SSTORE ADD MLOAD SWAP2 ADD SSTORE JUMP JUMPDEST SWAP2 SWAP1 DUP3 SUB SWAP2 DUP3 GT PUSH2 0x919 JUMPI JUMP JUMPDEST RETURNDATASIZE ISZERO PUSH2 0x3DB5 JUMPI RETURNDATASIZE SWAP1 PUSH8 0xFFFFFFFFFFFFFFFF DUP3 GT PUSH2 0x3967 JUMPI PUSH1 0x40 MLOAD SWAP2 PUSH2 0x3DA9 PUSH1 0x1F DUP3 ADD PUSH1 0x1F NOT AND PUSH1 0x20 ADD DUP5 PUSH2 0x3A0A JUMP JUMPDEST DUP3 MSTORE RETURNDATASIZE PUSH1 0x0 PUSH1 0x20 DUP5 ADD RETURNDATACOPY JUMP JUMPDEST PUSH1 0x60 SWAP1 JUMP JUMPDEST PUSH1 0x2 PUSH1 0x0 SLOAD EQ PUSH2 0x3DCB JUMPI PUSH1 0x2 PUSH1 0x0 SSTORE JUMP JUMPDEST PUSH1 0x40 MLOAD PUSH4 0x3EE5AEB5 PUSH1 0xE0 SHL DUP2 MSTORE PUSH1 0x4 SWAP1 REVERT JUMPDEST ISZERO PUSH2 0x3DE4 JUMPI JUMP JUMPDEST PUSH1 0x40 MLOAD PUSH3 0x461BCD PUSH1 0xE5 SHL DUP2 MSTORE PUSH1 0x20 PUSH1 0x4 DUP3 ADD MSTORE PUSH1 0xF PUSH1 0x24 DUP3 ADD MSTORE PUSH15 0x125B9D985B1A59081D5CD95C881251 PUSH1 0x8A SHL PUSH1 0x44 DUP3 ADD MSTORE PUSH1 0x64 SWAP1 REVERT JUMPDEST ISZERO PUSH2 0x3E22 JUMPI JUMP JUMPDEST PUSH1 0x40 MLOAD PUSH3 0x461BCD PUSH1 0xE5 SHL DUP2 MSTORE PUSH1 0x20 PUSH1 0x4 DUP3 ADD MSTORE PUSH1 0xC PUSH1 0x24 DUP3 ADD MSTORE PUSH12 0x155B985D5D1A1BDC9A5E9959 PUSH1 0xA2 SHL PUSH1 0x44 DUP3 ADD MSTORE PUSH1 0x64 SWAP1 REVERT JUMPDEST ISZERO PUSH2 0x3E5D JUMPI JUMP JUMPDEST PUSH1 0x40 MLOAD PUSH3 0x461BCD PUSH1 0xE5 SHL DUP2 MSTORE PUSH1 0x20 PUSH1 0x4 DUP3 ADD MSTORE PUSH1 0x11 PUSH1 0x24 DUP3 ADD MSTORE PUSH17 0x115E18D959591CC81B585E081B195D995B PUSH1 0x7A SHL PUSH1 0x44 DUP3 ADD MSTORE PUSH1 0x64 SWAP1 REVERT JUMPDEST ISZERO PUSH2 0x3E9D JUMPI JUMP JUMPDEST PUSH1 0x40 MLOAD PUSH3 0x461BCD PUSH1 0xE5 SHL DUP2 MSTORE PUSH1 0x20 PUSH1 0x4 DUP3 ADD MSTORE PUSH1 0x10 PUSH1 0x24 DUP3 ADD MSTORE PUSH16 0x24B739BAB33334B1B4B2B73A10212721 PUSH1 0x81 SHL PUSH1 0x44 DUP3 ADD MSTORE PUSH1 0x64 SWAP1 REVERT JUMPDEST ISZERO PUSH2 0x3EDC JUMPI JUMP JUMPDEST PUSH1 0x40 MLOAD PUSH3 0x461BCD PUSH1 0xE5 SHL DUP2 MSTORE PUSH1 0x20 PUSH1 0x4 DUP3 ADD MSTORE PUSH1 0x13 PUSH1 0x24 DUP3 ADD MSTORE PUSH19 0x119959481D1C985B9CD9995C8819985A5B1959 PUSH1 0x6A SHL PUSH1 0x44 DUP3 ADD MSTORE PUSH1 0x64 SWAP1 REVERT JUMPDEST ISZERO PUSH2 0x3F1E JUMPI JUMP JUMPDEST PUSH1 0x40 MLOAD PUSH3 0x461BCD PUSH1 0xE5 SHL DUP2 MSTORE PUSH1 0x20 PUSH1 0x4 DUP3 ADD MSTORE PUSH1 0x17 PUSH1 0x24 DUP3 ADD MSTORE PUSH32 0x526F79616C7479207472616E73666572206661696C6564000000000000000000 PUSH1 0x44 DUP3 ADD MSTORE PUSH1 0x64 SWAP1 REVERT JUMPDEST ISZERO PUSH2 0x3F6A JUMPI JUMP JUMPDEST PUSH1 0x40 MLOAD PUSH3 0x461BCD PUSH1 0xE5 SHL DUP2 MSTORE PUSH1 0x20 PUSH1 0x4 DUP3 ADD MSTORE PUSH1 0xE PUSH1 0x24 DUP3 ADD MSTORE PUSH14 0x139BDD081C9959DA5CDD195C9959 PUSH1 0x92 SHL PUSH1 0x44 DUP3 ADD MSTORE PUSH1 0x64 SWAP1 REVERT JUMPDEST PUSH1 0xFF PUSH1 0x1 SWAP2 AND ADD SWAP1 PUSH1 0xFF DUP3 GT PUSH2 0x919 JUMPI JUMP JUMPDEST ISZERO PUSH2 0x3FB9 JUMPI JUMP JUMPDEST PUSH1 0x40 MLOAD PUSH3 0x461BCD PUSH1 0xE5 SHL DUP2 MSTORE PUSH1 0x20 PUSH1 0x4 DUP3 ADD MSTORE PUSH1 0xD PUSH1 0x24 DUP3 ADD MSTORE PUSH13 0x496E76616C6964207072696365 PUSH1 0x98 SHL PUSH1 0x44 DUP3 ADD MSTORE PUSH1 0x64 SWAP1 REVERT JUMPDEST SWAP2 DUP1 PUSH2 0x41E3 JUMPI JUMPDEST POP PUSH1 0x64 PUSH2 0x4001 DUP3 PUSH2 0x3A94 JUMP JUMPDEST DIV DUP1 PUSH2 0x4171 JUMPI JUMPDEST PUSH1 0x0 DUP4 DUP2 MSTORE PUSH1 0x20 PUSH1 0x1D DUP2 MSTORE PUSH2 0x4026 PUSH1 0x40 SWAP4 PUSH1 0x1 DUP6 DUP6 KECCAK256 ADD SLOAD SWAP6 PUSH2 0x3D6D JUMP JUMPDEST SWAP2 DUP5 ISZERO ISZERO DUP1 PUSH2 0x415D JUMPI JUMPDEST ISZERO PUSH2 0x4127 JUMPI DUP5 DUP2 MSTORE PUSH1 0x1D DUP3 MSTORE PUSH1 0x1 DUP1 PUSH1 0xA0 SHL SUB DUP2 DUP1 DUP1 DUP1 DUP8 DUP6 DUP11 DUP4 KECCAK256 SLOAD PUSH1 0x8 SHR AND GAS CALL PUSH2 0x405B PUSH2 0x3D7A JUMP JUMPDEST POP ISZERO PUSH2 0x40C8 JUMPI POP SWAP1 PUSH1 0x1 DUP5 DUP4 DUP8 PUSH32 0x7F31B11E95A87830BD41893A2C8BB6991E584F4E5082CEDEEFFD2B1CA1BB76C5 SWAP8 SWAP7 SWAP6 MSTORE PUSH1 0x1E DUP5 MSTORE PUSH1 0x2 DUP3 DUP3 KECCAK256 ADD PUSH2 0x40A2 DUP7 DUP3 SLOAD PUSH2 0x3BEF JUMP JUMPDEST SWAP1 SSTORE DUP8 DUP2 MSTORE PUSH1 0x1E DUP5 MSTORE KECCAK256 ADD PUSH2 0x40B8 DUP4 DUP3 SLOAD PUSH2 0x3BEF JUMP JUMPDEST SWAP1 SSTORE DUP3 MLOAD SWAP2 DUP3 MSTORE TIMESTAMP SWAP1 DUP3 ADD MSTORE LOG3 JUMPDEST JUMP JUMPDEST DUP2 SWAP5 SWAP6 POP SWAP3 DUP2 SWAP4 DUP3 SWAP4 SWAP8 DUP4 MSTORE PUSH1 0x1D DUP9 MSTORE DUP7 DUP4 KECCAK256 SLOAD PUSH1 0x8 SHR AND GAS CALL PUSH2 0x40EA PUSH2 0x3D7A JUMP JUMPDEST POP ISZERO PUSH2 0x40F4 JUMPI POP POP JUMP JUMPDEST PUSH1 0x64 SWAP3 POP MLOAD SWAP1 PUSH3 0x461BCD PUSH1 0xE5 SHL DUP3 MSTORE PUSH1 0x4 DUP3 ADD MSTORE PUSH1 0xD PUSH1 0x24 DUP3 ADD MSTORE PUSH13 0x1499599D5B990819985A5B1959 PUSH1 0x9A SHL PUSH1 0x44 DUP3 ADD MSTORE REVERT JUMPDEST POP SWAP3 POP SWAP1 PUSH2 0x40C6 SWAP4 POP PUSH17 0x3737AFBB30B634B22FB932B332B93932B9 PUSH1 0x79 SHL SWAP1 MLOAD SWAP3 PUSH2 0x4151 DUP5 PUSH2 0x3999 JUMP JUMPDEST PUSH1 0x11 DUP5 MSTORE DUP4 ADD MSTORE PUSH2 0x42C1 JUMP JUMPDEST POP DUP5 DUP2 MSTORE PUSH1 0x1D DUP3 MSTORE PUSH1 0xFF DUP5 DUP3 KECCAK256 SLOAD AND PUSH2 0x4030 JUMP JUMPDEST PUSH2 0x41AE PUSH1 0x0 DUP1 DUP1 DUP1 DUP6 PUSH32 0x0 PUSH1 0x1 PUSH1 0x1 PUSH1 0xA0 SHL SUB AND GAS CALL PUSH2 0xAF1 PUSH2 0x3D7A JUMP JUMPDEST DUP3 PUSH32 0xB74A7140EF81C80D0E213846B7B10B59F9C366B463E36E1F98BF00EF44C670B4 PUSH1 0x40 DUP1 MLOAD DUP5 DUP2 MSTORE TIMESTAMP PUSH1 0x20 DUP3 ADD MSTORE LOG2 PUSH2 0x4008 JUMP JUMPDEST PUSH32 0xEDD09F264659CE99B52FD2A2D4F09E551EB001FE3FC56FFD5704FC1F402BC211 SWAP1 PUSH1 0x60 SWAP1 PUSH2 0x4245 PUSH1 0x0 DUP1 DUP1 DUP1 DUP6 PUSH32 0x0 PUSH1 0x1 PUSH1 0x1 PUSH1 0xA0 SHL SUB AND GAS CALL PUSH2 0xB68 PUSH2 0x3D7A JUMP JUMPDEST PUSH1 0x40 MLOAD SWAP1 DUP2 MSTORE PUSH1 0x0 PUSH1 0x20 DUP3 ADD MSTORE TIMESTAMP PUSH1 0x40 DUP3 ADD MSTORE LOG1 CODESIZE PUSH2 0x3FF5 JUMP JUMPDEST SWAP2 SWAP1 DUP3 MLOAD SWAP3 DUP4 DUP3 MSTORE PUSH1 0x0 JUMPDEST DUP5 DUP2 LT PUSH2 0x428B JUMPI POP POP DUP3 PUSH1 0x0 PUSH1 0x20 DUP1 SWAP5 SWAP6 DUP5 ADD ADD MSTORE PUSH1 0x1F DUP1 NOT SWAP2 ADD AND ADD ADD SWAP1 JUMP JUMPDEST PUSH1 0x20 DUP2 DUP4 ADD DUP2 ADD MLOAD DUP5 DUP4 ADD DUP3 ADD MSTORE ADD PUSH2 0x426A JUMP JUMPDEST SWAP4 SWAP3 SWAP2 PUSH2 0x42BC SWAP1 PUSH1 0x40 SWAP3 DUP7 MSTORE PUSH1 0x60 PUSH1 0x20 DUP8 ADD MSTORE PUSH1 0x60 DUP7 ADD SWAP1 PUSH2 0x425F JUMP JUMPDEST SWAP4 ADD MSTORE JUMP JUMPDEST PUSH32 0x0 SWAP2 PUSH1 0x0 DUP4 DUP2 MSTORE PUSH1 0x1D PUSH1 0x20 MSTORE DUP1 DUP1 DUP1 DUP1 DUP7 PUSH1 0x1 DUP1 PUSH1 0xA0 SHL SUB PUSH1 0x40 DUP4 KECCAK256 SLOAD PUSH1 0x8 SHR AND GAS CALL PUSH2 0x430C PUSH2 0x3D7A JUMP JUMPDEST POP PUSH2 0x4318 JUMPI JUMPDEST POP POP POP POP JUMP JUMPDEST PUSH1 0x40 DUP2 DUP6 PUSH32 0xE7392140A76258E2263A339B5BFDA7575CF4A9227C701DF27629FE8DD52735B1 SWAP7 PUSH1 0x1 SWAP5 MSTORE PUSH1 0x1E PUSH1 0x20 MSTORE PUSH1 0x2 DUP4 DUP4 KECCAK256 ADD PUSH2 0x4358 DUP8 DUP3 SLOAD PUSH2 0x3BEF JUMP JUMPDEST SWAP1 SSTORE DUP2 MSTORE PUSH1 0x1E PUSH1 0x20 MSTORE KECCAK256 ADD PUSH2 0x436E DUP4 DUP3 SLOAD PUSH2 0x3BEF JUMP JUMPDEST SWAP1 SSTORE PUSH2 0x4381 PUSH1 0x40 MLOAD SWAP3 DUP4 SWAP3 TIMESTAMP SWAP2 DUP5 PUSH2 0x429F JUMP JUMPDEST SUB SWAP1 LOG1 CODESIZE DUP1 DUP1 DUP1 PUSH2 0x4312 JUMP JUMPDEST SWAP2 SWAP1 PUSH1 0x0 SWAP1 DUP4 DUP3 MSTORE PUSH1 0x1D SWAP2 PUSH1 0x20 DUP4 DUP2 MSTORE PUSH1 0x1 PUSH1 0x40 SWAP3 DUP2 DUP5 DUP3 KECCAK256 ADD SLOAD SWAP6 DUP2 SWAP7 PUSH2 0x1F4 SWAP10 DUP11 DUP9 MUL SWAP11 DUP9 ISZERO SWAP1 DUP10 DUP14 DIV EQ DUP2 OR ISZERO PUSH2 0xBE5 JUMPI DUP5 SWAP3 DUP7 JUMPDEST PUSH2 0x4432 JUMPI JUMPDEST POP POP POP POP POP POP POP PUSH2 0x2710 PUSH2 0x3AF3 SWAP6 SWAP7 DIV SWAP2 DUP3 DUP6 LT PUSH2 0x43EB JUMPI JUMPDEST POP POP POP PUSH2 0x3D6D JUMP JUMPDEST PUSH19 0x73706F6E736F725F6E6F5F656C696769626C65 PUSH1 0x68 SHL PUSH2 0x4411 DUP5 SWAP6 SWAP7 PUSH2 0x4429 SWAP6 PUSH2 0x3D6D JUMP JUMPDEST SWAP2 MLOAD SWAP3 PUSH2 0x441D DUP5 PUSH2 0x3999 JUMP JUMPDEST PUSH1 0x13 DUP5 MSTORE DUP4 ADD MSTORE PUSH2 0x42C1 JUMP JUMPDEST SWAP1 CODESIZE DUP1 DUP1 PUSH2 0x43E3 JUMP JUMPDEST PUSH1 0xFF DUP1 DUP6 AND PUSH1 0xD DUP2 LT DUP1 PUSH2 0x4737 JUMPI JUMPDEST ISZERO PUSH2 0x4730 JUMPI PUSH2 0x4450 DUP7 DUP5 PUSH2 0x47EE JUMP JUMPDEST SWAP1 DUP13 PUSH2 0xFFFF PUSH2 0x445E DUP10 PUSH2 0x4740 JUMP JUMPDEST AND DUP1 DUP3 MUL SWAP2 DUP3 DIV EQ DUP7 OR ISZERO PUSH2 0x471C JUMPI DUP9 DUP13 DUP9 DUP16 SWAP4 DUP14 SWAP6 PUSH2 0x2710 DUP11 SWAP3 DIV SWAP8 DUP1 PUSH2 0x4713 JUMPI JUMPDEST ISZERO PUSH2 0x4561 JUMPI POP DUP6 MSTORE POP MSTORE DUP2 KECCAK256 SLOAD DUP2 SWAP1 DUP2 SWAP1 DUP2 SWAP1 DUP6 SWAP1 PUSH1 0x8 SHR PUSH1 0x1 PUSH1 0x1 PUSH1 0xA0 SHL SUB AND GAS CALL PUSH2 0x44AC PUSH2 0x3D7A JUMP JUMPDEST POP PUSH2 0x44D6 JUMPI JUMPDEST POP POP JUMPDEST DUP6 MSTORE DUP4 DUP8 MSTORE DUP6 DUP9 DUP7 KECCAK256 ADD SLOAD SWAP3 PUSH1 0xFF DUP1 SWAP2 AND SWAP1 DUP2 EQ PUSH2 0x1454 JUMPI DUP7 ADD SWAP3 DUP7 PUSH2 0x43C5 JUMP JUMPDEST DUP1 DUP6 SWAP3 SWAP14 DUP5 SWAP3 DUP12 DUP15 DUP13 DUP16 DUP8 DUP3 MSTORE DUP8 PUSH1 0x1E SWAP3 DUP4 DUP4 MSTORE DUP5 DUP2 KECCAK256 PUSH1 0x3 ADD DUP8 DUP2 SLOAD SWAP1 PUSH2 0x44FD SWAP2 PUSH2 0x3BEF JUMP JUMPDEST SWAP1 SSTORE MSTORE MSTORE DUP13 KECCAK256 ADD DUP2 DUP2 SLOAD SWAP1 PUSH2 0x4511 SWAP2 PUSH2 0x3BEF JUMP JUMPDEST SWAP1 SSTORE PUSH2 0x451C SWAP2 PUSH2 0x3BEF JUMP JUMPDEST SWAP14 PUSH2 0x4526 DUP9 PUSH2 0x3FA0 JUMP JUMPDEST DUP14 MLOAD SWAP3 DUP4 MSTORE AND DUP12 DUP3 ADD MSTORE TIMESTAMP DUP13 DUP3 ADD MSTORE PUSH1 0x60 PUSH32 0x38A882DD38CF7BAF663586C9181108323F083CC8AC7CF5287586A0D56A71F914 SWAP2 LOG3 CODESIZE DUP1 PUSH2 0x44B2 JUMP JUMPDEST SWAP6 POP SWAP6 SWAP4 POP SWAP6 SWAP2 POP POP DUP2 PUSH2 0x457A JUMPI JUMPDEST POP POP POP POP POP PUSH2 0x44B5 JUMP JUMPDEST DUP4 DUP12 MSTORE DUP10 DUP14 MSTORE DUP14 DUP12 KECCAK256 SLOAD AND PUSH2 0x4590 JUMPI JUMPDEST DUP1 PUSH2 0x4570 JUMP JUMPDEST PUSH32 0x587D8F9CC4F7AE2F12F916B8AC03AC5414969DFAF447B84ACBB1E2B171CB7EB2 SWAP2 PUSH1 0x21 DUP14 MSTORE DUP14 DUP12 KECCAK256 PUSH2 0x45C4 DUP4 DUP3 SLOAD PUSH2 0x3BEF JUMP JUMPDEST SWAP1 SSTORE PUSH1 0x5 DUP2 LT ISZERO PUSH2 0x4623 JUMPI POP DUP13 PUSH2 0x4617 DUP14 PUSH32 0x4E6F742061637469766520286E656564204C6576656C20312B29000000000000 DUP4 MLOAD SWAP2 PUSH2 0x4602 DUP4 PUSH2 0x3999 JUMP JUMPDEST PUSH1 0x1A DUP4 MSTORE DUP3 ADD MSTORE SWAP2 JUMPDEST MLOAD SWAP3 DUP4 SWAP3 TIMESTAMP SWAP2 DUP5 PUSH2 0x429F JUMP JUMPDEST SUB SWAP1 LOG3 DUP3 DUP2 CODESIZE DUP1 PUSH2 0x458A JUMP JUMPDEST PUSH1 0x8 DUP2 LT ISZERO PUSH2 0x4676 JUMPI POP DUP13 PUSH2 0x4617 DUP14 PUSH32 0x4E65656420322B2064697265637420726566657272616C7320666F72204C362D DUP4 MLOAD SWAP2 PUSH2 0x465F DUP4 PUSH2 0x397D JUMP JUMPDEST PUSH1 0x22 DUP4 MSTORE DUP3 ADD MSTORE PUSH2 0x987 PUSH1 0xF3 SHL DUP4 DUP3 ADD MSTORE SWAP2 PUSH2 0x460B JUMP JUMPDEST PUSH1 0xA GT ISZERO PUSH2 0x46C8 JUMPI DUP13 PUSH2 0x4617 DUP14 PUSH32 0x4E65656420332B2064697265637420726566657272616C7320666F72204C392D DUP4 MLOAD SWAP2 PUSH2 0x46B0 DUP4 PUSH2 0x397D JUMP JUMPDEST PUSH1 0x23 DUP4 MSTORE DUP3 ADD MSTORE PUSH3 0x4C313 PUSH1 0xEC SHL DUP4 DUP3 ADD MSTORE SWAP2 PUSH2 0x460B JUMP JUMPDEST DUP13 PUSH2 0x4617 DUP14 PUSH32 0x4E65656420352B2064697265637420726566657272616C7320666F72204C3131 DUP4 MLOAD SWAP2 PUSH2 0x46FA DUP4 PUSH2 0x397D JUMP JUMPDEST PUSH1 0x24 DUP4 MSTORE DUP3 ADD MSTORE PUSH4 0x2D4C3133 PUSH1 0xE0 SHL DUP4 DUP3 ADD MSTORE SWAP2 PUSH2 0x460B JUMP JUMPDEST POP DUP8 ISZERO ISZERO PUSH2 0x4481 JUMP JUMPDEST PUSH4 0x4E487B71 PUSH1 0xE0 SHL DUP11 MSTORE PUSH1 0x11 PUSH1 0x4 MSTORE PUSH1 0x24 DUP11 REVERT JUMPDEST POP POP PUSH2 0x43CA JUMP JUMPDEST POP DUP3 ISZERO ISZERO PUSH2 0x4441 JUMP JUMPDEST PUSH1 0xFF AND DUP1 ISZERO PUSH2 0x47E8 JUMPI PUSH1 0x1 DUP2 EQ PUSH2 0x47E2 JUMPI PUSH1 0x2 DUP2 EQ PUSH2 0x47DC JUMPI PUSH1 0x3 DUP2 EQ PUSH2 0x47D6 JUMPI PUSH1 0x4 DUP2 EQ PUSH2 0x47D6 JUMPI PUSH1 0x5 DUP2 EQ PUSH2 0x47D0 JUMPI PUSH1 0x6 DUP2 EQ PUSH2 0x47CA JUMPI PUSH1 0x7 DUP2 EQ PUSH2 0x47C4 JUMPI PUSH1 0x8 DUP2 EQ PUSH2 0x47BE JUMPI PUSH1 0x9 DUP2 EQ PUSH2 0x47B8 JUMPI PUSH1 0xA DUP2 EQ PUSH2 0x47B2 JUMPI PUSH1 0xB DUP2 EQ PUSH2 0x47B2 JUMPI PUSH1 0xC EQ PUSH2 0x47AD JUMPI PUSH1 0x0 SWAP1 JUMP JUMPDEST PUSH1 0xA SWAP1 JUMP JUMPDEST POP PUSH1 0xA SWAP1 JUMP JUMPDEST POP PUSH1 0xF SWAP1 JUMP JUMPDEST POP PUSH1 0x14 SWAP1 JUMP JUMPDEST POP PUSH1 0x19 SWAP1 JUMP JUMPDEST POP PUSH1 0x1E SWAP1 JUMP JUMPDEST POP PUSH1 0x28 SWAP1 JUMP JUMPDEST POP PUSH1 0x32 SWAP1 JUMP JUMPDEST POP PUSH1 0x3C SWAP1 JUMP JUMPDEST POP PUSH1 0x50 SWAP1 JUMP JUMPDEST POP PUSH1 0x64 SWAP1 JUMP JUMPDEST PUSH1 0x0 MSTORE PUSH1 0x1D PUSH1 0x20 MSTORE PUSH1 0x40 PUSH1 0x0 KECCAK256 SWAP1 PUSH1 0xFF DUP3 SLOAD AND ISZERO DUP1 ISZERO PUSH2 0x485D JUMPI JUMPDEST PUSH2 0x4856 JUMPI PUSH1 0xFF AND PUSH1 0x5 DUP2 LT ISZERO PUSH2 0x4820 JUMPI POP POP PUSH1 0x1 SWAP1 JUMP JUMPDEST PUSH1 0x8 DUP2 LT ISZERO PUSH2 0x4836 JUMPI POP PUSH1 0x4 PUSH1 0x2 SWAP2 ADD SLOAD LT ISZERO SWAP1 JUMP JUMPDEST PUSH1 0xA GT ISZERO PUSH2 0x484A JUMPI PUSH1 0x4 PUSH1 0x3 SWAP2 ADD SLOAD LT ISZERO SWAP1 JUMP JUMPDEST PUSH1 0x4 PUSH1 0x5 SWAP2 ADD SLOAD LT ISZERO SWAP1 JUMP JUMPDEST POP POP PUSH1 0x0 SWAP1 JUMP JUMPDEST POP PUSH1 0x1 PUSH1 0x3 DUP4 ADD SLOAD LT PUSH2 0x4809 JUMP JUMPDEST SWAP2 SWAP1 SWAP3 PUSH1 0x40 SWAP2 DUP3 MLOAD PUSH2 0x100 DUP2 ADD SWAP1 PUSH8 0xFFFFFFFFFFFFFFFF SWAP2 DUP2 DUP2 LT DUP4 DUP3 GT OR PUSH2 0x3967 JUMPI PUSH1 0x1D SWAP5 PUSH1 0x6 SWAP2 DUP8 MSTORE PUSH1 0x1 DUP4 MSTORE DUP8 PUSH1 0x20 SWAP10 DUP11 SWAP3 DUP4 DUP7 ADD SWAP2 PUSH1 0x1 DUP1 PUSH1 0xA0 SHL SUB AND DUP3 MSTORE DUP10 DUP7 ADD SWAP1 DUP9 DUP3 MSTORE PUSH1 0x60 DUP8 ADD SWAP1 DUP2 MSTORE PUSH1 0x80 DUP8 ADD SWAP2 PUSH1 0x1 DUP4 MSTORE PUSH1 0xA0 DUP9 ADD SWAP4 PUSH1 0x0 SWAP12 DUP13 SWAP8 DUP9 DUP8 MSTORE PUSH1 0xC0 DUP12 ADD SWAP8 DUP10 DUP10 MSTORE PUSH1 0xE0 DUP13 ADD SWAP10 TIMESTAMP DUP12 MSTORE MSTORE MSTORE DUP13 DUP13 KECCAK256 SWAP9 MLOAD ISZERO ISZERO SWAP1 PUSH1 0xFF DUP11 SLOAD SWAP2 PUSH2 0x100 PUSH1 0x1 PUSH1 0xA8 SHL SUB SWAP1 MLOAD PUSH1 0x8 SHL AND SWAP3 AND SWAP1 PUSH11 0xFFFFFFFFFFFFFFFFFFFFFF PUSH1 0xA8 SHL AND OR OR DUP9 SSTORE MLOAD PUSH1 0x1 DUP9 ADD SSTORE MLOAD PUSH1 0x2 DUP8 ADD SSTORE MLOAD PUSH1 0x3 DUP7 ADD SSTORE MLOAD PUSH1 0x4 DUP6 ADD SSTORE MLOAD PUSH1 0x5 DUP5 ADD SSTORE MLOAD SWAP2 ADD SSTORE DUP4 MLOAD SWAP1 PUSH1 0xA0 DUP3 ADD SWAP1 DUP3 DUP3 LT SWAP1 DUP3 GT OR PUSH2 0x49E5 JUMPI DUP5 MSTORE DUP3 DUP2 MSTORE PUSH1 0x4 DUP7 DUP3 ADD DUP5 DUP2 MSTORE DUP6 DUP4 ADD DUP6 DUP2 MSTORE PUSH1 0x60 DUP5 ADD SWAP1 DUP7 DUP3 MSTORE PUSH1 0x80 DUP6 ADD SWAP3 DUP8 DUP5 MSTORE DUP10 DUP9 MSTORE PUSH1 0x1E DUP12 MSTORE DUP9 DUP9 KECCAK256 SWAP6 MLOAD DUP7 SSTORE MLOAD PUSH1 0x1 DUP7 ADD SSTORE MLOAD PUSH1 0x2 DUP6 ADD SSTORE MLOAD PUSH1 0x3 DUP5 ADD SSTORE MLOAD SWAP2 ADD SSTORE DUP1 ISZERO ISZERO DUP1 PUSH2 0x49DB JUMPI JUMPDEST PUSH2 0x49A8 JUMPI JUMPDEST POP POP POP POP POP JUMP JUMPDEST PUSH2 0x49D1 SWAP5 DUP2 PUSH1 0x22 SWAP3 DUP5 MSTORE PUSH1 0x1D DUP3 MSTORE PUSH1 0x4 DUP6 DUP6 KECCAK256 ADD PUSH2 0x49C6 DUP2 SLOAD PUSH2 0x3CBD JUMP JUMPDEST SWAP1 SSTORE DUP4 MSTORE MSTORE KECCAK256 PUSH2 0x3C88 JUMP JUMPDEST CODESIZE DUP1 DUP1 DUP1 DUP1 PUSH2 0x49A1 JUMP JUMPDEST POP DUP4 DUP2 EQ ISZERO PUSH2 0x499C JUMP JUMPDEST PUSH4 0x4E487B71 PUSH1 0xE0 SHL DUP5 MSTORE PUSH1 0x41 PUSH1 0x4 MSTORE PUSH1 0x24 DUP5 REVERT JUMPDEST PUSH1 0x0 SWAP1 DUP2 JUMPDEST PUSH1 0xD DUP4 LT DUP1 PUSH2 0x4AC9 JUMPI JUMPDEST ISZERO PUSH2 0x4AC0 JUMPI POP PUSH2 0x4A17 DUP4 PUSH2 0x4B30 JUMP JUMPDEST SWAP3 DUP4 PUSH2 0x4A3E JUMPI PUSH1 0x0 MSTORE PUSH1 0x1D PUSH1 0x20 MSTORE PUSH2 0x4A37 PUSH1 0x1 PUSH1 0x40 PUSH1 0x0 KECCAK256 ADD SLOAD SWAP3 PUSH2 0x3CBD JUMP JUMPDEST SWAP2 SWAP3 PUSH2 0x49FE JUMP JUMPDEST POP SWAP1 POP JUMPDEST DUP2 ISZERO PUSH2 0x4A98 JUMPI JUMPDEST DUP2 PUSH1 0x0 MSTORE PUSH1 0x1F PUSH1 0x20 MSTORE PUSH1 0x40 PUSH1 0x0 KECCAK256 PUSH1 0x0 DUP1 MSTORE PUSH1 0x20 MSTORE PUSH2 0x4A6C DUP2 PUSH1 0x40 PUSH1 0x0 KECCAK256 PUSH2 0x3C88 JUMP JUMPDEST PUSH1 0x0 MSTORE PUSH1 0x1D PUSH1 0x20 MSTORE DUP1 PUSH1 0x2 PUSH1 0x40 PUSH1 0x0 KECCAK256 ADD SSTORE PUSH1 0x0 MSTORE PUSH1 0x20 DUP1 MSTORE PUSH1 0x40 PUSH1 0x0 KECCAK256 PUSH2 0x4A94 DUP2 SLOAD PUSH2 0x3CBD JUMP JUMPDEST SWAP1 SSTORE JUMP JUMPDEST PUSH32 0x0 SWAP2 POP PUSH2 0x4A49 JUMP JUMPDEST SWAP3 POP SWAP1 POP PUSH2 0x4A42 JUMP JUMPDEST POP DUP4 ISZERO ISZERO PUSH2 0x4A08 JUMP JUMPDEST PUSH8 0xFFFFFFFFFFFFFFFF DUP2 GT PUSH2 0x3967 JUMPI PUSH1 0x5 SHL PUSH1 0x20 ADD SWAP1 JUMP JUMPDEST SWAP1 PUSH2 0x4AF4 DUP3 PUSH2 0x4AD2 JUMP JUMPDEST PUSH2 0x4B01 PUSH1 0x40 MLOAD SWAP2 DUP3 PUSH2 0x3A0A JUMP JUMPDEST DUP3 DUP2 MSTORE DUP1 SWAP3 PUSH2 0x4B12 PUSH1 0x1F NOT SWAP2 PUSH2 0x4AD2 JUMP JUMPDEST ADD SWAP1 PUSH1 0x20 CALLDATASIZE SWAP2 ADD CALLDATACOPY JUMP JUMPDEST DUP1 MLOAD DUP3 LT ISZERO PUSH2 0x3885 JUMPI PUSH1 0x20 SWAP2 PUSH1 0x5 SHL ADD ADD SWAP1 JUMP JUMPDEST PUSH1 0x1 SWAP1 PUSH1 0xFF DUP3 SLOAD PUSH1 0xA0 SHR AND SWAP1 PUSH2 0x4B45 DUP3 PUSH2 0x4AEA JUMP JUMPDEST SWAP2 PUSH1 0x0 SWAP1 DUP5 SWAP2 DUP5 MLOAD ISZERO PUSH2 0x3885 JUMPI DUP6 SWAP1 PUSH1 0x20 SWAP5 DUP6 DUP8 ADD MSTORE PUSH1 0x0 SWAP2 JUMPDEST PUSH2 0x4B70 JUMPI JUMPDEST POP POP POP POP POP POP POP PUSH1 0x0 SWAP1 JUMP JUMPDEST DUP4 DUP2 LT DUP1 PUSH2 0x4C66 JUMPI JUMPDEST ISZERO PUSH2 0x4C61 JUMPI PUSH2 0x4B9B PUSH2 0x4B94 PUSH2 0x4B8D DUP4 PUSH2 0x3CBD JUMP JUMPDEST SWAP3 DUP9 PUSH2 0x4B1C JUMP JUMPDEST MLOAD SWAP3 PUSH2 0x3CBD JUMP JUMPDEST SWAP2 DUP1 PUSH1 0x0 MSTORE PUSH1 0x1F DUP1 DUP8 MSTORE PUSH1 0x40 SWAP2 DUP3 PUSH1 0x0 KECCAK256 PUSH1 0x0 DUP1 MSTORE DUP9 MSTORE PUSH1 0x2 DUP4 PUSH1 0x0 KECCAK256 SLOAD LT PUSH2 0x4C54 JUMPI DUP10 SWAP3 SWAP2 SWAP1 PUSH1 0x0 DUP5 JUMPDEST PUSH2 0x4BD4 JUMPI JUMPDEST POP POP POP POP PUSH2 0x4B5F JUMP JUMPDEST DUP2 PUSH1 0x0 SWAP6 SWAP3 SWAP4 SWAP5 SWAP6 MSTORE DUP4 DUP11 MSTORE DUP5 PUSH1 0x0 KECCAK256 PUSH1 0x0 DUP1 MSTORE DUP11 MSTORE DUP5 PUSH1 0x0 KECCAK256 SLOAD DUP2 LT DUP1 PUSH2 0x4C4B JUMPI JUMPDEST ISZERO PUSH2 0x4C43 JUMPI PUSH2 0x4C39 SWAP1 DUP4 PUSH1 0x0 MSTORE DUP5 DUP12 MSTORE DUP6 PUSH1 0x0 KECCAK256 PUSH1 0x0 DUP1 MSTORE DUP12 MSTORE DUP12 PUSH2 0xF65 PUSH2 0x4C22 DUP4 DUP10 PUSH1 0x0 KECCAK256 PUSH2 0x386D JUMP JUMPDEST SWAP13 SWAP1 SLOAD PUSH2 0x4C2E DUP3 PUSH2 0x3CBD JUMP JUMPDEST SWAP14 PUSH1 0x3 SHL SHR SWAP3 PUSH2 0x4B1C JUMP JUMPDEST DUP2 SWAP5 SWAP4 SWAP3 SWAP2 PUSH2 0x4BC6 JUMP JUMPDEST DUP2 SWAP5 POP PUSH2 0x4BCB JUMP JUMPDEST POP DUP8 DUP10 LT PUSH2 0x4BF7 JUMP JUMPDEST SWAP9 POP POP POP POP POP POP POP POP POP SWAP1 JUMP JUMPDEST PUSH2 0x4B64 JUMP JUMPDEST POP DUP3 DUP3 LT PUSH2 0x4B79 JUMP JUMPDEST PUSH1 0x0 SWAP1 DUP2 MSTORE PUSH1 0x1D PUSH1 0x20 SWAP1 DUP1 DUP3 MSTORE PUSH1 0x1 SWAP3 PUSH1 0x40 SWAP2 DUP5 DUP4 DUP4 KECCAK256 ADD SLOAD SWAP4 DUP6 DUP4 SWAP1 JUMPDEST PUSH2 0x4C9B JUMPI JUMPDEST POP POP POP POP POP POP POP JUMP JUMPDEST DUP6 ISZERO ISZERO DUP1 PUSH2 0x4CE3 JUMPI JUMPDEST ISZERO PUSH2 0x4CDE JUMPI DUP6 DUP8 SWAP7 DUP6 MSTORE DUP4 DUP4 MSTORE PUSH1 0x5 DUP7 DUP7 KECCAK256 ADD PUSH2 0x4CC1 DUP2 SLOAD PUSH2 0x3CBD JUMP JUMPDEST SWAP1 SSTORE DUP5 MSTORE DUP3 DUP3 MSTORE PUSH2 0x4CD7 DUP7 DUP7 DUP7 KECCAK256 ADD SLOAD SWAP2 PUSH2 0x3CBD JUMP JUMPDEST SWAP1 SWAP6 PUSH2 0x4C8D JUMP JUMPDEST PUSH2 0x4C92 JUMP JUMPDEST POP PUSH1 0xFF DUP8 SLOAD PUSH1 0xA0 SHR AND DUP2 LT PUSH2 0x4CA4 JUMP JUMPDEST SWAP1 PUSH1 0xD DUP2 LT ISZERO PUSH2 0x3885 JUMPI PUSH1 0x5 SHL ADD SWAP1 JUMP JUMPDEST PUSH1 0x0 CALLER DUP2 MSTORE PUSH1 0x1C PUSH1 0x20 MSTORE PUSH1 0x40 DUP2 KECCAK256 SLOAD DUP1 ISZERO PUSH2 0x4D60 JUMPI DUP1 DUP3 MSTORE PUSH1 0x1D PUSH1 0x20 MSTORE PUSH1 0x40 DUP1 DUP4 KECCAK256 SWAP3 PUSH1 0x1E PUSH1 0x20 MSTORE KECCAK256 SWAP1 PUSH1 0x3 DUP4 ADD SLOAD SWAP4 PUSH1 0x5 DUP5 ADD SLOAD SWAP4 PUSH1 0x1 PUSH1 0x4 DUP3 ADD SLOAD SWAP5 ADD SLOAD SWAP3 PUSH1 0x1 DUP3 ADD SLOAD SWAP3 PUSH1 0x6 PUSH1 0x2 DUP5 ADD SLOAD SWAP4 ADD SLOAD SWAP2 SWAP8 SWAP7 SWAP6 SWAP5 SWAP4 SWAP3 SWAP2 SWAP1 JUMP JUMPDEST POP SWAP1 DUP2 DUP1 SWAP2 DUP2 DUP1 SWAP2 DUP2 DUP1 SWAP2 DUP2 SWAP1 JUMP JUMPDEST PUSH1 0x0 SWAP1 CALLER DUP3 MSTORE PUSH1 0x1C PUSH1 0x20 MSTORE PUSH1 0x40 DUP3 KECCAK256 SLOAD DUP1 ISZERO PUSH2 0x4DBC JUMPI DUP3 MSTORE PUSH1 0x1E PUSH1 0x20 MSTORE PUSH1 0x40 DUP3 KECCAK256 DUP1 SLOAD SWAP3 PUSH1 0x1 DUP3 ADD SLOAD SWAP4 PUSH1 0x2 DUP4 ADD SLOAD SWAP4 PUSH1 0x40 PUSH1 0x4 PUSH1 0x3 DUP7 ADD SLOAD SWAP6 ADD SLOAD SWAP4 PUSH1 0x21 PUSH1 0x20 MSTORE KECCAK256 SLOAD SWAP2 SWAP6 SWAP5 SWAP4 SWAP3 SWAP2 SWAP1 JUMP JUMPDEST POP DUP2 DUP1 SWAP2 DUP2 DUP1 SWAP2 DUP2 SWAP1 JUMP JUMPDEST PUSH1 0x0 SWAP1 CALLER DUP3 MSTORE PUSH1 0x20 PUSH1 0x1C DUP2 MSTORE PUSH1 0x40 DUP1 DUP5 KECCAK256 SLOAD DUP1 ISZERO PUSH2 0x4E98 JUMPI DUP5 MSTORE PUSH1 0x1D DUP1 DUP4 MSTORE DUP2 DUP6 KECCAK256 SWAP3 PUSH1 0x4 PUSH1 0x5 DUP6 ADD SLOAD SWAP5 ADD SLOAD SWAP4 PUSH1 0x22 DUP3 MSTORE DUP4 DUP8 KECCAK256 SWAP1 DUP5 MLOAD DUP1 DUP4 DUP6 DUP3 SWAP6 SLOAD SWAP4 DUP5 DUP2 MSTORE ADD SWAP1 DUP12 MSTORE DUP6 DUP12 KECCAK256 SWAP3 DUP12 JUMPDEST DUP8 DUP3 DUP3 LT PUSH2 0x4E82 JUMPI POP POP POP PUSH2 0x4E2A SWAP3 POP SUB DUP4 PUSH2 0x3A0A JUMP JUMPDEST DUP2 SWAP6 PUSH2 0x4E36 DUP4 MLOAD PUSH2 0x4AEA JUMP JUMPDEST SWAP7 DUP10 JUMPDEST DUP5 MLOAD DUP2 LT ISZERO PUSH2 0x4E75 JUMPI DUP1 PUSH2 0x4E50 PUSH2 0x4E70 SWAP3 DUP8 PUSH2 0x4B1C JUMP JUMPDEST MLOAD DUP13 MSTORE DUP8 DUP8 MSTORE DUP9 DUP13 KECCAK256 SLOAD PUSH1 0x8 SHR PUSH1 0x1 PUSH1 0x1 PUSH1 0xA0 SHL SUB AND PUSH2 0xF65 DUP3 DUP13 PUSH2 0x4B1C JUMP JUMPDEST PUSH2 0x4E39 JUMP JUMPDEST POP SWAP7 SWAP6 POP SWAP7 SWAP4 POP SWAP7 POP POP POP JUMP JUMPDEST DUP6 SLOAD DUP5 MSTORE PUSH1 0x1 SWAP6 DUP7 ADD SWAP6 DUP9 SWAP6 POP SWAP4 ADD SWAP3 ADD PUSH2 0x4E13 JUMP JUMPDEST POP DUP1 MLOAD SWAP3 SWAP2 POP PUSH2 0x4EA7 DUP4 PUSH2 0x39D2 JUMP JUMPDEST DUP4 DUP4 MSTORE MLOAD SWAP1 PUSH2 0x4EB5 DUP3 PUSH2 0x39D2 JUMP JUMPDEST DUP4 DUP3 MSTORE DUP4 CALLDATASIZE DUP2 CALLDATACOPY DUP4 SWAP3 SWAP2 SWAP1 JUMP JUMPDEST MLOAD SWAP1 DUP2 ISZERO ISZERO DUP3 SUB PUSH2 0x11E2 JUMPI JUMP JUMPDEST SWAP1 DUP2 PUSH1 0x60 SWAP2 SUB SLT PUSH2 0x11E2 JUMPI DUP1 MLOAD SWAP2 PUSH2 0x3AF3 PUSH1 0x40 PUSH2 0x4EEE PUSH1 0x20 DUP6 ADD PUSH2 0x4EC2 JUMP JUMPDEST SWAP4 ADD PUSH2 0x4EC2 JUMP JUMPDEST SWAP1 PUSH1 0x4 DUP2 LT ISZERO PUSH2 0x3885 JUMPI PUSH1 0x5 SHL ADD SWAP1 JUMP JUMPDEST PUSH1 0x40 SWAP1 DUP2 MLOAD SWAP2 PUSH2 0x4F15 DUP4 PUSH2 0x39EE JUMP JUMPDEST PUSH1 0x80 CALLDATASIZE DUP5 CALLDATACOPY DUP3 DUP2 MLOAD SWAP4 PUSH2 0x4F27 DUP6 PUSH2 0x39EE JUMP JUMPDEST PUSH1 0x80 CALLDATASIZE DUP7 CALLDATACOPY DUP5 SWAP3 DUP1 MLOAD SWAP6 PUSH2 0x4F3A DUP8 PUSH2 0x39EE JUMP JUMPDEST PUSH1 0x80 CALLDATASIZE DUP9 CALLDATACOPY DUP7 SWAP1 PUSH1 0x0 SWAP8 CALLER DUP10 MSTORE PUSH1 0x1C PUSH1 0x20 MSTORE DUP4 DUP10 KECCAK256 SLOAD SWAP6 DUP7 ISZERO PUSH2 0x5042 JUMPI POP POP PUSH32 0x0 PUSH1 0x1 PUSH1 0x1 PUSH1 0xA0 SHL SUB AND SWAP7 SWAP1 POP DUP8 JUMPDEST PUSH1 0x4 DUP1 DUP3 LT ISZERO PUSH2 0x5036 JUMPI DUP7 DUP6 MLOAD SWAP2 PUSH4 0x2075D107 PUSH1 0xE2 SHL DUP4 MSTORE DUP3 ADD MSTORE DUP2 PUSH1 0x24 DUP3 ADD MSTORE DUP10 DUP2 DUP11 DUP2 PUSH1 0x44 PUSH1 0x60 SWAP6 DUP7 SWAP4 GAS STATICCALL SWAP1 DUP2 ISZERO PUSH2 0x502C JUMPI SWAP1 DUP3 SWAP2 PUSH2 0x4FF6 SWAP6 SWAP5 DUP4 SWAP3 PUSH2 0x4FFB JUMPI JUMPDEST POP POP PUSH2 0x4FD8 DUP5 DUP9 PUSH2 0x4EF5 JUMP JUMPDEST SWAP1 ISZERO ISZERO SWAP1 MSTORE PUSH2 0x4FE7 DUP4 DUP12 PUSH2 0x4EF5 JUMP JUMPDEST SWAP1 ISZERO ISZERO SWAP1 MSTORE PUSH2 0xF65 DUP3 DUP9 PUSH2 0x4EF5 JUMP JUMPDEST PUSH2 0x4F88 JUMP JUMPDEST SWAP2 POP SWAP2 POP PUSH2 0x501E SWAP3 POP DUP1 RETURNDATASIZE LT PUSH2 0x5025 JUMPI JUMPDEST PUSH2 0x5016 DUP2 DUP4 PUSH2 0x3A0A JUMP JUMPDEST DUP2 ADD SWAP1 PUSH2 0x4ECF JUMP JUMPDEST CODESIZE DUP1 PUSH2 0x4FCC JUMP JUMPDEST POP RETURNDATASIZE PUSH2 0x500C JUMP JUMPDEST DUP8 MLOAD RETURNDATASIZE DUP5 DUP3 RETURNDATACOPY RETURNDATASIZE SWAP1 REVERT JUMPDEST POP POP SWAP4 POP SWAP4 SWAP5 POP POP SWAP4 POP JUMP JUMPDEST SWAP9 POP SWAP1 SWAP7 SWAP1 SWAP6 POP SWAP4 POP POP POP POP JUMP JUMPDEST ISZERO PUSH2 0x5057 JUMPI JUMP JUMPDEST PUSH1 0x40 MLOAD PUSH3 0x461BCD PUSH1 0xE5 SHL DUP2 MSTORE PUSH1 0x20 PUSH1 0x4 DUP3 ADD MSTORE PUSH1 0xC PUSH1 0x24 DUP3 ADD MSTORE PUSH12 0x24B73B30B634B2103A34B2B9 PUSH1 0xA1 SHL PUSH1 0x44 DUP3 ADD MSTORE PUSH1 0x64 SWAP1 REVERT JUMPDEST PUSH1 0xA DUP2 LT ISZERO DUP1 PUSH2 0x5151 JUMPI JUMPDEST PUSH2 0x509F SWAP1 PUSH2 0x5050 JUMP JUMPDEST PUSH1 0x0 SWAP2 CALLER DUP4 MSTORE PUSH1 0x1C PUSH1 0x20 MSTORE PUSH1 0x40 DUP4 KECCAK256 SLOAD SWAP2 DUP3 ISZERO PUSH2 0x5149 JUMPI PUSH1 0x40 MLOAD PUSH4 0x2075D107 PUSH1 0xE2 SHL DUP2 MSTORE PUSH1 0x4 DUP2 ADD SWAP4 SWAP1 SWAP4 MSTORE PUSH1 0x24 DUP4 ADD MSTORE PUSH1 0x60 DUP3 PUSH1 0x44 DUP2 PUSH32 0x0 PUSH1 0x1 PUSH1 0x1 PUSH1 0xA0 SHL SUB AND GAS STATICCALL SWAP2 DUP3 ISZERO PUSH2 0x513E JUMPI DUP4 SWAP1 DUP5 SWAP4 PUSH2 0x5118 JUMPI JUMPDEST POP SWAP3 SWAP2 SWAP1 JUMP JUMPDEST SWAP2 SWAP4 POP POP PUSH2 0x5134 SWAP2 POP PUSH1 0x60 RETURNDATASIZE DUP2 GT PUSH2 0x5025 JUMPI PUSH2 0x5016 DUP2 DUP4 PUSH2 0x3A0A JUMP JUMPDEST SWAP3 SWAP1 SWAP3 SWAP2 CODESIZE PUSH2 0x5112 JUMP JUMPDEST PUSH1 0x40 MLOAD RETURNDATASIZE DUP6 DUP3 RETURNDATACOPY RETURNDATASIZE SWAP1 REVERT JUMPDEST POP DUP3 SWAP2 POP DUP2 SWAP1 JUMP JUMPDEST POP PUSH1 0xD DUP2 GT ISZERO PUSH2 0x5096 JUMP JUMPDEST SWAP2 PUSH1 0xA DUP3 LT ISZERO DUP1 PUSH2 0x51F5 JUMPI JUMPDEST PUSH2 0x5171 SWAP1 PUSH2 0x5050 JUMP JUMPDEST PUSH1 0x1 DUP1 PUSH1 0xA0 SHL SUB SWAP2 DUP3 PUSH1 0x0 SWAP5 AND DUP5 MSTORE PUSH1 0x1C PUSH1 0x20 MSTORE PUSH1 0x40 DUP5 KECCAK256 SLOAD DUP1 ISZERO PUSH2 0x51EB JUMPI SWAP1 PUSH1 0x44 PUSH1 0x60 SWAP3 PUSH1 0x40 MLOAD SWAP6 DUP7 SWAP4 DUP5 SWAP3 PUSH4 0x2075D107 PUSH1 0xE2 SHL DUP5 MSTORE PUSH1 0x4 DUP5 ADD MSTORE PUSH1 0x24 DUP4 ADD MSTORE PUSH32 0x0 AND GAS STATICCALL SWAP2 DUP3 ISZERO PUSH2 0x513E JUMPI DUP4 SWAP1 DUP5 SWAP4 PUSH2 0x5118 JUMPI POP SWAP3 SWAP2 SWAP1 JUMP JUMPDEST POP DUP4 SWAP3 POP DUP3 SWAP2 SWAP1 POP JUMP JUMPDEST POP PUSH1 0xD DUP3 GT ISZERO PUSH2 0x5168 JUMP JUMPDEST MLOAD SWAP1 PUSH10 0xFFFFFFFFFFFFFFFFFFFF DUP3 AND DUP3 SUB PUSH2 0x11E2 JUMPI JUMP JUMPDEST PUSH1 0x5 SLOAD PUSH1 0x40 MLOAD PUSH4 0x3FABE5A3 PUSH1 0xE2 SHL DUP2 MSTORE SWAP1 PUSH1 0xA0 SWAP1 DUP3 SWAP1 PUSH1 0x4 SWAP1 DUP3 SWAP1 PUSH1 0x1 PUSH1 0x1 PUSH1 0xA0 SHL SUB AND GAS STATICCALL DUP1 PUSH1 0x0 SWAP3 DUP4 SWAP3 PUSH2 0x52C1 JUMPI JUMPDEST POP PUSH2 0x5255 JUMPI POP POP PUSH1 0x6 SLOAD SWAP1 JUMP JUMPDEST PUSH2 0x526E PUSH2 0xE10 SWAP2 PUSH2 0x5268 PUSH1 0x0 DUP6 SGT PUSH2 0x3FB2 JUMP JUMPDEST TIMESTAMP PUSH2 0x3D6D JUMP JUMPDEST LT ISZERO PUSH2 0x528E JUMPI PUSH5 0x2540BE400 SWAP1 DUP2 DUP2 MUL SWAP2 DUP2 DUP4 DIV EQ SWAP1 ISZERO OR ISZERO PUSH2 0x919 JUMPI SWAP1 JUMP JUMPDEST PUSH1 0x40 MLOAD PUSH3 0x461BCD PUSH1 0xE5 SHL DUP2 MSTORE PUSH1 0x20 PUSH1 0x4 DUP3 ADD MSTORE PUSH1 0xB PUSH1 0x24 DUP3 ADD MSTORE PUSH11 0x5374616C65207072696365 PUSH1 0xA8 SHL PUSH1 0x44 DUP3 ADD MSTORE PUSH1 0x64 SWAP1 REVERT JUMPDEST SWAP3 SWAP1 SWAP2 POP PUSH1 0xA0 DUP4 RETURNDATASIZE DUP3 GT PUSH2 0x530F JUMPI JUMPDEST DUP2 PUSH2 0x52DD PUSH1 0xA0 SWAP4 DUP4 PUSH2 0x3A0A JUMP JUMPDEST DUP2 ADD SUB SLT PUSH2 0x47C JUMPI POP PUSH2 0x52EF DUP3 PUSH2 0x5200 JUMP JUMPDEST POP PUSH1 0x20 DUP3 ADD MLOAD PUSH2 0x5306 PUSH1 0x80 PUSH1 0x60 DUP6 ADD MLOAD SWAP5 ADD PUSH2 0x5200 JUMP JUMPDEST POP SWAP2 SWAP1 CODESIZE PUSH2 0x5248 JUMP JUMPDEST RETURNDATASIZE SWAP2 POP PUSH2 0x52D0 JUMP JUMPDEST PUSH1 0x0 PUSH1 0x44 RETURNDATASIZE LT PUSH2 0x3AF3 JUMPI PUSH1 0x40 MLOAD PUSH1 0x3 NOT SWAP2 RETURNDATASIZE DUP4 ADD PUSH1 0x4 DUP4 RETURNDATACOPY DUP2 MLOAD PUSH8 0xFFFFFFFFFFFFFFFF SWAP2 DUP3 DUP3 GT RETURNDATASIZE PUSH1 0x24 DUP5 ADD GT OR PUSH2 0x5375 JUMPI DUP2 DUP5 ADD SWAP5 DUP6 MLOAD SWAP4 DUP5 GT PUSH2 0x537D JUMPI RETURNDATASIZE DUP6 ADD ADD PUSH1 0x20 DUP5 DUP8 ADD ADD GT PUSH2 0x5375 JUMPI POP PUSH2 0x3AF3 SWAP3 SWAP2 ADD PUSH1 0x20 ADD SWAP1 PUSH2 0x3A0A JUMP JUMPDEST SWAP5 SWAP4 POP POP POP POP JUMP JUMPDEST POP SWAP5 SWAP4 POP POP POP POP JUMP JUMPDEST PUSH2 0x5395 PUSH1 0x8 SLOAD PUSH1 0x7 SLOAD SWAP1 PUSH2 0x3BEF JUMP JUMPDEST TIMESTAMP LT ISZERO SWAP1 JUMP INVALID 0xFB 0xE 0xCE SWAP6 RETURNDATACOPY LOG4 0x5E 0x22 0x1E 0xAB ADDRESS 0x4A 0xC9 RETURNDATASIZE ADD PUSH14 0x67C4FF3F6D5CE3D2FB6DB7D2043B CHAINID 0xFC LOG2 PUSH5 0x6970667358 0x22 SLT KECCAK256 DUP6 0xC0 0x26 LOG0 MSTORE SWAP9 PUSH4 0xBC1CBB4F SLOAD 0x25 0x5E CREATE LT 0x1F 0xC0 GAS PUSH1 0x1C 0x5D PC CALLER 0xDC 0xE3 ADD KECCAK256 PUSH17 0x56584064736F6C634300081400338BE007 SWAP13 MSTORE8 AND MSIZE EQ SGT PREVRANDAO 0xCD 0x1F 0xD0 LOG4 CALLCODE DUP5 NOT 0x49 PUSH32 0x9722A3DAAFE3B4186F6B6457E000000000000000000000000000000000000000 "},"methodIdentifiers":{"ADMIN_FEE_PERCENT()":"d3d50d95","DIRECT_REQUIRED()":"aafb9800","FEE_RECEIVER()":"d3e78e4d","MAX_INCOME_LAYER()":"4bf96a88","MAX_LEVELS()":"6702c7bf","MAX_REFERRAL_LAYERS()":"697d2428","ROYALTY_ADDR()":"9d720652","ROYALTY_FUND_PERCENT()":"bfca1cd0","START_TIME()":"ddaa26ad","autoUpdateEnabled()":"3586cd14","bnbPrice()":"576dde12","claimMyRoyalty(uint256)":"6fa6e58a","claimRoyalty(uint256)":"5c0c900b","claimRoyalty(uint256,uint256)":"806d73be","fallbackReferrer()":"6c0c0a5c","getAllLevelCosts()":"e6bb42d8","getContractBalance()":"6f9fb98a","getLatestBNBPrice()":"504e4730","getLevelCost(uint256)":"2b6e4da0","getLevelCostWithFee(uint256)":"76ed7f0e","getMyIncomeBreakdown()":"4a429d12","getMyInfo()":"7daa10ce","getMyRoyaltyStatus()":"5d7d6342","getMyTeam()":"9c8c3e80","getPriceStatus()":"ecef6cff","getReferrerAddress(uint256)":"0e1bc0ee","getRegistrationCost()":"2d8ae549","getRoyaltyData(uint256)":"a65ff74c","getRoyaltyDataByAddress(address,uint256)":"6dc76a73","getRoyaltyTierStats(uint256)":"9d89968e","getUpgradeCost(uint256)":"ff329e7c","getUpgradeCostFor(address,uint256)":"f12c860a","getUserAccount(uint256)":"fdc61181","id(address)":"8955defb","initializeRoyalty()":"437f6e23","isAutonomous()":"f28d3d5e","isPriceUpdateDue()":"e649f378","isRegistered(address)":"c3c5a547","lastPriceUpdate()":"6949faeb","lastRegistrationTime(address)":"7f6e8cbf","levelCosts(uint256)":"7e06a01f","lostIncome(uint256)":"2233a830","manualPriceUpdate()":"4cd2b1ea","matrixDirect(uint256)":"88afbe3e","maxBNBPrice()":"1daa8ae2","maxPlacementDepth()":"ec09306e","minBNBPrice()":"790bd584","oraclePaused()":"7706ba52","owner()":"8da5cb5b","pauseContract()":"439766ce","paused()":"5c975abb","priceFeed()":"741bef1a","priceUpdateInterval()":"5ffde7be","recoverBNB()":"6bfdf8a0","register(uint256,address)":"dbbdf083","registerMe(address)":"d0ac2596","registrationCooldown()":"f343432c","renounceOwnership()":"715018a6","setAutoUpdateEnabled(bool)":"82ee173e","setFallbackReferrer(uint256)":"39b86165","setLevelCost(uint8,uint256)":"21d178fb","setLevelCostUSD(uint256,uint256)":"a7378650","setManualPrice(uint256)":"d7a71868","setMaxPlacementDepth(uint8)":"17f1a931","setPriceBounds(uint256,uint256)":"19b9dfb5","setPriceFeed(address)":"724e78da","setRegistrationCooldown(uint256)":"cb56e632","setUpdateInterval(uint256)":"7124c683","teams(uint256,uint256,uint256)":"5aabf7f1","toggleOraclePause()":"8e69d19d","totalUsers()":"bff1f9e1","transferOwnership(address)":"f2fde38b","unpauseContract()":"b33712c5","updateBNBPrice(uint256)":"17d031a3","upgrade(uint256,uint256)":"451450ec","upgradeMe(uint256)":"fb2ddd70","userIncome(uint256)":"6266a380","userInfo(uint256)":"51d70bc4"}}}}}