{"contracts/ChainlinkPriceUpdater.sol":{"ChainlinkPriceUpdater":{"abi":[{"inputs":[{"internalType":"address","name":"_priceFeed","type":"address"},{"internalType":"address","name":"_mainContract","type":"address"}],"stateMutability":"nonpayable","type":"constructor"},{"anonymous":false,"inputs":[{"indexed":false,"internalType":"uint256","name":"oldThreshold","type":"uint256"},{"indexed":false,"internalType":"uint256","name":"newThreshold","type":"uint256"}],"name":"DeviationThresholdChanged","type":"event"},{"anonymous":false,"inputs":[{"indexed":false,"internalType":"uint256","name":"oldInterval","type":"uint256"},{"indexed":false,"internalType":"uint256","name":"newInterval","type":"uint256"}],"name":"MinIntervalChanged","type":"event"},{"anonymous":false,"inputs":[{"indexed":true,"internalType":"address","name":"oldOwner","type":"address"},{"indexed":true,"internalType":"address","name":"newOwner","type":"address"}],"name":"OwnerChanged","type":"event"},{"anonymous":false,"inputs":[{"indexed":false,"internalType":"uint256","name":"oldPrice","type":"uint256"},{"indexed":false,"internalType":"uint256","name":"newPrice","type":"uint256"},{"indexed":false,"internalType":"uint256","name":"timestamp","type":"uint256"}],"name":"PriceUpdated","type":"event"},{"inputs":[],"name":"forceUpdate","outputs":[],"stateMutability":"nonpayable","type":"function"},{"inputs":[],"name":"getLatestPrice","outputs":[{"internalType":"uint256","name":"","type":"uint256"}],"stateMutability":"view","type":"function"},{"inputs":[],"name":"getPriceInfo","outputs":[{"internalType":"uint256","name":"chainlinkPrice","type":"uint256"},{"internalType":"uint256","name":"storedPrice","type":"uint256"},{"internalType":"uint256","name":"deviation","type":"uint256"},{"internalType":"bool","name":"canUpdate","type":"bool"}],"stateMutability":"view","type":"function"},{"inputs":[],"name":"lastStoredPrice","outputs":[{"internalType":"uint256","name":"","type":"uint256"}],"stateMutability":"view","type":"function"},{"inputs":[],"name":"lastUpdateTime","outputs":[{"internalType":"uint256","name":"","type":"uint256"}],"stateMutability":"view","type":"function"},{"inputs":[],"name":"mainContract","outputs":[{"internalType":"contract IFiveDollarRide","name":"","type":"address"}],"stateMutability":"view","type":"function"},{"inputs":[],"name":"minUpdateInterval","outputs":[{"internalType":"uint256","name":"","type":"uint256"}],"stateMutability":"view","type":"function"},{"inputs":[],"name":"owner","outputs":[{"internalType":"address","name":"","type":"address"}],"stateMutability":"view","type":"function"},{"inputs":[],"name":"priceDeviationPercent","outputs":[{"internalType":"uint256","name":"","type":"uint256"}],"stateMutability":"view","type":"function"},{"inputs":[],"name":"priceFeed","outputs":[{"internalType":"contract AggregatorV3Interface","name":"","type":"address"}],"stateMutability":"view","type":"function"},{"inputs":[{"internalType":"uint256","name":"_interval","type":"uint256"}],"name":"setMinUpdateInterval","outputs":[],"stateMutability":"nonpayable","type":"function"},{"inputs":[{"internalType":"uint256","name":"_percent","type":"uint256"}],"name":"setPriceDeviationPercent","outputs":[],"stateMutability":"nonpayable","type":"function"},{"inputs":[],"name":"shouldUpdate","outputs":[{"internalType":"bool","name":"needed","type":"bool"},{"internalType":"uint256","name":"currentPrice","type":"uint256"}],"stateMutability":"view","type":"function"},{"inputs":[{"internalType":"address","name":"newOwner","type":"address"}],"name":"transferOwnership","outputs":[],"stateMutability":"nonpayable","type":"function"},{"inputs":[],"name":"updatePrice","outputs":[],"stateMutability":"nonpayable","type":"function"}],"evm":{"bytecode":{"linkReferences":{},"object":"608060409080825234620002b557818162000d298038038091620000248285620002ba565b833981010312620002b5576200003a81620002f4565b906200004a6020809201620002f4565b610e106004908155600580556001600160a01b0393841693909184156200027d57169182156200023b5760018060a01b0319600093858286541617855581600154161760015533906002541617600255845193633fabe5a360e21b855260a0858481845afa948515620001a3578495620001e0575b5083851315620001ad579080839287519384809263313ce56760e01b82525afa908115620001a35784916200015f575b5060ff91501660120360ff81116200014c5760ff16604d81116200014c57600a0a92838102938185041490151715620001395750506006554260035551610a0a90816200031f8239f35b634e487b7160e01b825260119052602490fd5b634e487b7160e01b835260118252602483fd5b905081813d83116200019b575b620001788183620002ba565b8101031262000197575160ff81168103620001975760ff9038620000ef565b8280fd5b503d6200016c565b86513d86823e3d90fd5b855162461bcd60e51b8152808401839052600d60248201526c496e76616c696420707269636560981b6044820152606490fd5b90945060a0813d821162000232575b81620001fe60a09383620002ba565b810103126200022e57620002128162000309565b5062000225608083830151920162000309565b509338620000bf565b8380fd5b3d9150620001ef565b845162461bcd60e51b815291820152601560248201527f496e76616c6964206d61696e20636f6e74726163740000000000000000000000604482015260649150fd5b855162461bcd60e51b81528084018590526012602482015271125b9d985b1a59081c1c9a58d9481999595960721b6044820152606490fd5b600080fd5b601f909101601f19168101906001600160401b03821190821017620002de57604052565b634e487b7160e01b600052604160045260246000fd5b51906001600160a01b0382168203620002b557565b51906001600160501b0382168203620002b55756fe608060408181526004918236101561001657600080fd5b600092833560e01c9182630964ff26146106e157508163307e3db1146106c2578163330227bf146106275781633acaa0d7146105305781634e14a5831461044f57816355f9308414610397578163673a7e281461028b578163741bef1a146102635781638da5cb5b1461023a5781638e15f47314610216578163a8c954d8146101ea578163c8f33c91146101cb578163d270e7ab146101a2578163f2fde38b146100eb575063fb4c7e0b146100ca57600080fd5b346100e757816003193601126100e7576020906005549051908152f35b5080fd5b9190503461019e57602036600319011261019e576001600160a01b038235818116939084900361019a576002549182169261012784331461099c565b84156101655750506001600160a01b03191682176002557fb532073b38c83145e3e5135377a08bf9aab55bc0fd7c1179cd4fb995d2a5159c8380a380f35b906020606492519162461bcd60e51b8352820152600f60248201526e496e76616c6964206164647265737360881b6044820152fd5b8480fd5b8280fd5b5050346100e757816003193601126100e75760015490516001600160a01b039091168152602090f35b5050346100e757816003193601126100e7576020906003549051908152f35b8284346102135780600319360112610213575061020561092c565b825191151582526020820152f35b80fd5b5050346100e757816003193601126100e757602090610233610764565b9051908152f35b5050346100e757816003193601126100e75760025490516001600160a01b039091168152602090f35b5050346100e757816003193601126100e757905490516001600160a01b039091168152602090f35b90503461019e578260031936011261019e576102a561092c565b901561035c57600654600154909285916001600160a01b031690813b1561019e57836024849283895195869485936317d031a360e01b85528401525af180156103525761033a575b505060068190554260038190559251918252602082015260408101919091527f15819dd2fd9f6418b142e798d08a18d0bf06ea368f4480b7b0d3f75bd966bc489080606081015b0390a180f35b610343906106fc565b61034e5783386102ed565b8380fd5b85513d84823e3d90fd5b506020606492519162461bcd60e51b83528201526015602482015274155c19185d19481b9bdd081b9959591959081e595d605a1b6044820152fd5b90503461019e57602036600319011261019e578035906103c260018060a01b0360025416331461099c565b600182101580610444575b1561040c5750907f988395a292065bed3ac432a1c362f44bc7cf1d88bf5cc5c1bfba0e2ca627b12491600554908060055582519182526020820152a180f35b606490602084519162461bcd60e51b83528201526012602482015271496e76616c69642070657263656e7461676560701b6044820152fd5b5060328211156103cd565b8383346100e75760203660031901126100e75782359261047a60018060a01b0360025416331461099c565b61012c84106104f95762093a8084116104c357837f8aa7fbbc28f7fc5a70329710351253983cf8ff5dafe3127047ab479bb988aee593948254925582519182526020820152a180f35b6020606492519162461bcd60e51b83528201526011602482015270496e74657276616c20746f6f206c6f6e6760781b6044820152fd5b6020606492519162461bcd60e51b83528201526012602482015271125b9d195c9d985b081d1bdbc81cda1bdc9d60721b6044820152fd5b839150346100e757816003193601126100e7576002546001600160a01b03919061055d908316331461099c565b610565610764565b90600654926001541690813b1561019a57826024869283895195869485936317d031a360e01b85528401525af1801561061d576105e8575b506006819055426003819055935191825260208201526040810192909252907f15819dd2fd9f6418b142e798d08a18d0bf06ea368f4480b7b0d3f75bd966bc48908060608101610334565b7f15819dd2fd9f6418b142e798d08a18d0bf06ea368f4480b7b0d3f75bd966bc4893610616610334926106fc565b935061059d565b85513d86823e3d90fd5b828434610213578060031936011261021357610641610764565b91600654918284116000146106b25761065a83856108e9565b905b60648202918083046064149015171561069f5750608094508261067e9161090c565b9061068761092c565b50928151948552602085015283015215156060820152f35b634e487b7160e01b815260118652602490fd5b6106bc84846108e9565b9061065c565b5050346100e757816003193601126100e7576020906006549051908152f35b84913461019e578260031936011261019e5760209250548152f35b67ffffffffffffffff811161071057604052565b634e487b7160e01b600052604160045260246000fd5b90601f8019910116810190811067ffffffffffffffff82111761071057604052565b519069ffffffffffffffffffff8216820361075f57565b600080fd5b60008054604051633fabe5a360e21b815291906004906001600160a01b031660a0848381845afa93841561085c57839461089b575b508284131561086757602082916040519283809263313ce56760e01b82525afa801561085c578390610820575b60ff91501660120360ff811161080d5760ff16604d811161080d57600a0a928381029381850414901517156107fa57505090565b634e487b7160e01b825260119052602490fd5b634e487b7160e01b835260118252602483fd5b506020813d8211610854575b8161083960209383610726565b8101031261019e575160ff8116810361019e5760ff906107c6565b3d915061082c565b6040513d85823e3d90fd5b60405162461bcd60e51b8152602081840152600d60248201526c496e76616c696420707269636560981b6044820152606490fd5b90935060a0813d82116108e1575b816108b660a09383610726565b8101031261019e576108c781610748565b506108d9608060208301519201610748565b509238610799565b3d91506108a9565b919082039182116108f657565b634e487b7160e01b600052601160045260246000fd5b8115610916570490565b634e487b7160e01b600052601260045260246000fd5b610934610764565b9060035460045481018091116108f657421061099657600654808311156109865761095f81846108e9565b905b6064820291808304606414901517156108f65761097d9161090c565b60055411159190565b61099083826108e9565b90610961565b60009190565b156109a357565b60405162461bcd60e51b81526020600482015260096024820152682737ba1037bbb732b960b91b6044820152606490fdfea26469706673582212203094da7e1b658099f577a6fa717dbd3e42aae66979602cc37ef57df03b8ac61e64736f6c63430008140033","opcodes":"PUSH1 0x80 PUSH1 0x40 SWAP1 DUP1 DUP3 MSTORE CALLVALUE PUSH3 0x2B5 JUMPI DUP2 DUP2 PUSH3 0xD29 DUP1 CODESIZE SUB DUP1 SWAP2 PUSH3 0x24 DUP3 DUP6 PUSH3 0x2BA JUMP JUMPDEST DUP4 CODECOPY DUP2 ADD SUB SLT PUSH3 0x2B5 JUMPI PUSH3 0x3A DUP2 PUSH3 0x2F4 JUMP JUMPDEST SWAP1 PUSH3 0x4A PUSH1 0x20 DUP1 SWAP3 ADD PUSH3 0x2F4 JUMP JUMPDEST PUSH2 0xE10 PUSH1 0x4 SWAP1 DUP2 SSTORE PUSH1 0x5 DUP1 SSTORE PUSH1 0x1 PUSH1 0x1 PUSH1 0xA0 SHL SUB SWAP4 DUP5 AND SWAP4 SWAP1 SWAP2 DUP5 ISZERO PUSH3 0x27D JUMPI AND SWAP2 DUP3 ISZERO PUSH3 0x23B JUMPI PUSH1 0x1 DUP1 PUSH1 0xA0 SHL SUB NOT PUSH1 0x0 SWAP4 DUP6 DUP3 DUP7 SLOAD AND OR DUP6 SSTORE DUP2 PUSH1 0x1 SLOAD AND OR PUSH1 0x1 SSTORE CALLER SWAP1 PUSH1 0x2 SLOAD AND OR PUSH1 0x2 SSTORE DUP5 MLOAD SWAP4 PUSH4 0x3FABE5A3 PUSH1 0xE2 SHL DUP6 MSTORE PUSH1 0xA0 DUP6 DUP5 DUP2 DUP5 GAS STATICCALL SWAP5 DUP6 ISZERO PUSH3 0x1A3 JUMPI DUP5 SWAP6 PUSH3 0x1E0 JUMPI JUMPDEST POP DUP4 DUP6 SGT ISZERO PUSH3 0x1AD JUMPI SWAP1 DUP1 DUP4 SWAP3 DUP8 MLOAD SWAP4 DUP5 DUP1 SWAP3 PUSH4 0x313CE567 PUSH1 0xE0 SHL DUP3 MSTORE GAS STATICCALL SWAP1 DUP2 ISZERO PUSH3 0x1A3 JUMPI DUP5 SWAP2 PUSH3 0x15F JUMPI JUMPDEST POP PUSH1 0xFF SWAP2 POP AND PUSH1 0x12 SUB PUSH1 0xFF DUP2 GT PUSH3 0x14C JUMPI PUSH1 0xFF AND PUSH1 0x4D DUP2 GT PUSH3 0x14C JUMPI PUSH1 0xA EXP SWAP3 DUP4 DUP2 MUL SWAP4 DUP2 DUP6 DIV EQ SWAP1 ISZERO OR ISZERO PUSH3 0x139 JUMPI POP POP PUSH1 0x6 SSTORE TIMESTAMP PUSH1 0x3 SSTORE MLOAD PUSH2 0xA0A SWAP1 DUP2 PUSH3 0x31F DUP3 CODECOPY RETURN JUMPDEST PUSH4 0x4E487B71 PUSH1 0xE0 SHL DUP3 MSTORE PUSH1 0x11 SWAP1 MSTORE PUSH1 0x24 SWAP1 REVERT JUMPDEST PUSH4 0x4E487B71 PUSH1 0xE0 SHL DUP4 MSTORE PUSH1 0x11 DUP3 MSTORE PUSH1 0x24 DUP4 REVERT JUMPDEST SWAP1 POP DUP2 DUP2 RETURNDATASIZE DUP4 GT PUSH3 0x19B JUMPI JUMPDEST PUSH3 0x178 DUP2 DUP4 PUSH3 0x2BA JUMP JUMPDEST DUP2 ADD SUB SLT PUSH3 0x197 JUMPI MLOAD PUSH1 0xFF DUP2 AND DUP2 SUB PUSH3 0x197 JUMPI PUSH1 0xFF SWAP1 CODESIZE PUSH3 0xEF JUMP JUMPDEST DUP3 DUP1 REVERT JUMPDEST POP RETURNDATASIZE PUSH3 0x16C JUMP JUMPDEST DUP7 MLOAD RETURNDATASIZE DUP7 DUP3 RETURNDATACOPY RETURNDATASIZE SWAP1 REVERT JUMPDEST DUP6 MLOAD PUSH3 0x461BCD PUSH1 0xE5 SHL DUP2 MSTORE DUP1 DUP5 ADD DUP4 SWAP1 MSTORE PUSH1 0xD PUSH1 0x24 DUP3 ADD MSTORE PUSH13 0x496E76616C6964207072696365 PUSH1 0x98 SHL PUSH1 0x44 DUP3 ADD MSTORE PUSH1 0x64 SWAP1 REVERT JUMPDEST SWAP1 SWAP5 POP PUSH1 0xA0 DUP2 RETURNDATASIZE DUP3 GT PUSH3 0x232 JUMPI JUMPDEST DUP2 PUSH3 0x1FE PUSH1 0xA0 SWAP4 DUP4 PUSH3 0x2BA JUMP JUMPDEST DUP2 ADD SUB SLT PUSH3 0x22E JUMPI PUSH3 0x212 DUP2 PUSH3 0x309 JUMP JUMPDEST POP PUSH3 0x225 PUSH1 0x80 DUP4 DUP4 ADD MLOAD SWAP3 ADD PUSH3 0x309 JUMP JUMPDEST POP SWAP4 CODESIZE PUSH3 0xBF JUMP JUMPDEST DUP4 DUP1 REVERT JUMPDEST RETURNDATASIZE SWAP2 POP PUSH3 0x1EF JUMP JUMPDEST DUP5 MLOAD PUSH3 0x461BCD PUSH1 0xE5 SHL DUP2 MSTORE SWAP2 DUP3 ADD MSTORE PUSH1 0x15 PUSH1 0x24 DUP3 ADD MSTORE PUSH32 0x496E76616C6964206D61696E20636F6E74726163740000000000000000000000 PUSH1 0x44 DUP3 ADD MSTORE PUSH1 0x64 SWAP2 POP REVERT JUMPDEST DUP6 MLOAD PUSH3 0x461BCD PUSH1 0xE5 SHL DUP2 MSTORE DUP1 DUP5 ADD DUP6 SWAP1 MSTORE PUSH1 0x12 PUSH1 0x24 DUP3 ADD MSTORE PUSH18 0x125B9D985B1A59081C1C9A58D94819995959 PUSH1 0x72 SHL PUSH1 0x44 DUP3 ADD MSTORE PUSH1 0x64 SWAP1 REVERT JUMPDEST PUSH1 0x0 DUP1 REVERT JUMPDEST PUSH1 0x1F SWAP1 SWAP2 ADD PUSH1 0x1F NOT AND DUP2 ADD SWAP1 PUSH1 0x1 PUSH1 0x1 PUSH1 0x40 SHL SUB DUP3 GT SWAP1 DUP3 LT OR PUSH3 0x2DE JUMPI PUSH1 0x40 MSTORE JUMP JUMPDEST PUSH4 0x4E487B71 PUSH1 0xE0 SHL PUSH1 0x0 MSTORE PUSH1 0x41 PUSH1 0x4 MSTORE PUSH1 0x24 PUSH1 0x0 REVERT JUMPDEST MLOAD SWAP1 PUSH1 0x1 PUSH1 0x1 PUSH1 0xA0 SHL SUB DUP3 AND DUP3 SUB PUSH3 0x2B5 JUMPI JUMP JUMPDEST MLOAD SWAP1 PUSH1 0x1 PUSH1 0x1 PUSH1 0x50 SHL SUB DUP3 AND DUP3 SUB PUSH3 0x2B5 JUMPI JUMP INVALID PUSH1 0x80 PUSH1 0x40 DUP2 DUP2 MSTORE PUSH1 0x4 SWAP2 DUP3 CALLDATASIZE LT ISZERO PUSH2 0x16 JUMPI PUSH1 0x0 DUP1 REVERT JUMPDEST PUSH1 0x0 SWAP3 DUP4 CALLDATALOAD PUSH1 0xE0 SHR SWAP2 DUP3 PUSH4 0x964FF26 EQ PUSH2 0x6E1 JUMPI POP DUP2 PUSH4 0x307E3DB1 EQ PUSH2 0x6C2 JUMPI DUP2 PUSH4 0x330227BF EQ PUSH2 0x627 JUMPI DUP2 PUSH4 0x3ACAA0D7 EQ PUSH2 0x530 JUMPI DUP2 PUSH4 0x4E14A583 EQ PUSH2 0x44F JUMPI DUP2 PUSH4 0x55F93084 EQ PUSH2 0x397 JUMPI DUP2 PUSH4 0x673A7E28 EQ PUSH2 0x28B JUMPI DUP2 PUSH4 0x741BEF1A EQ PUSH2 0x263 JUMPI DUP2 PUSH4 0x8DA5CB5B EQ PUSH2 0x23A JUMPI DUP2 PUSH4 0x8E15F473 EQ PUSH2 0x216 JUMPI DUP2 PUSH4 0xA8C954D8 EQ PUSH2 0x1EA JUMPI DUP2 PUSH4 0xC8F33C91 EQ PUSH2 0x1CB JUMPI DUP2 PUSH4 0xD270E7AB EQ PUSH2 0x1A2 JUMPI DUP2 PUSH4 0xF2FDE38B EQ PUSH2 0xEB JUMPI POP PUSH4 0xFB4C7E0B EQ PUSH2 0xCA JUMPI PUSH1 0x0 DUP1 REVERT JUMPDEST CALLVALUE PUSH2 0xE7 JUMPI DUP2 PUSH1 0x3 NOT CALLDATASIZE ADD SLT PUSH2 0xE7 JUMPI PUSH1 0x20 SWAP1 PUSH1 0x5 SLOAD SWAP1 MLOAD SWAP1 DUP2 MSTORE RETURN JUMPDEST POP DUP1 REVERT JUMPDEST SWAP2 SWAP1 POP CALLVALUE PUSH2 0x19E JUMPI PUSH1 0x20 CALLDATASIZE PUSH1 0x3 NOT ADD SLT PUSH2 0x19E JUMPI PUSH1 0x1 PUSH1 0x1 PUSH1 0xA0 SHL SUB DUP3 CALLDATALOAD DUP2 DUP2 AND SWAP4 SWAP1 DUP5 SWAP1 SUB PUSH2 0x19A JUMPI PUSH1 0x2 SLOAD SWAP2 DUP3 AND SWAP3 PUSH2 0x127 DUP5 CALLER EQ PUSH2 0x99C JUMP JUMPDEST DUP5 ISZERO PUSH2 0x165 JUMPI POP POP PUSH1 0x1 PUSH1 0x1 PUSH1 0xA0 SHL SUB NOT AND DUP3 OR PUSH1 0x2 SSTORE PUSH32 0xB532073B38C83145E3E5135377A08BF9AAB55BC0FD7C1179CD4FB995D2A5159C DUP4 DUP1 LOG3 DUP1 RETURN JUMPDEST SWAP1 PUSH1 0x20 PUSH1 0x64 SWAP3 MLOAD SWAP2 PUSH3 0x461BCD PUSH1 0xE5 SHL DUP4 MSTORE DUP3 ADD MSTORE PUSH1 0xF PUSH1 0x24 DUP3 ADD MSTORE PUSH15 0x496E76616C69642061646472657373 PUSH1 0x88 SHL PUSH1 0x44 DUP3 ADD MSTORE REVERT JUMPDEST DUP5 DUP1 REVERT JUMPDEST DUP3 DUP1 REVERT JUMPDEST POP POP CALLVALUE PUSH2 0xE7 JUMPI DUP2 PUSH1 0x3 NOT CALLDATASIZE ADD SLT PUSH2 0xE7 JUMPI PUSH1 0x1 SLOAD SWAP1 MLOAD PUSH1 0x1 PUSH1 0x1 PUSH1 0xA0 SHL SUB SWAP1 SWAP2 AND DUP2 MSTORE PUSH1 0x20 SWAP1 RETURN JUMPDEST POP POP CALLVALUE PUSH2 0xE7 JUMPI DUP2 PUSH1 0x3 NOT CALLDATASIZE ADD SLT PUSH2 0xE7 JUMPI PUSH1 0x20 SWAP1 PUSH1 0x3 SLOAD SWAP1 MLOAD SWAP1 DUP2 MSTORE RETURN JUMPDEST DUP3 DUP5 CALLVALUE PUSH2 0x213 JUMPI DUP1 PUSH1 0x3 NOT CALLDATASIZE ADD SLT PUSH2 0x213 JUMPI POP PUSH2 0x205 PUSH2 0x92C JUMP JUMPDEST DUP3 MLOAD SWAP2 ISZERO ISZERO DUP3 MSTORE PUSH1 0x20 DUP3 ADD MSTORE RETURN JUMPDEST DUP1 REVERT JUMPDEST POP POP CALLVALUE PUSH2 0xE7 JUMPI DUP2 PUSH1 0x3 NOT CALLDATASIZE ADD SLT PUSH2 0xE7 JUMPI PUSH1 0x20 SWAP1 PUSH2 0x233 PUSH2 0x764 JUMP JUMPDEST SWAP1 MLOAD SWAP1 DUP2 MSTORE RETURN JUMPDEST POP POP CALLVALUE PUSH2 0xE7 JUMPI DUP2 PUSH1 0x3 NOT CALLDATASIZE ADD SLT PUSH2 0xE7 JUMPI PUSH1 0x2 SLOAD SWAP1 MLOAD PUSH1 0x1 PUSH1 0x1 PUSH1 0xA0 SHL SUB SWAP1 SWAP2 AND DUP2 MSTORE PUSH1 0x20 SWAP1 RETURN JUMPDEST POP POP CALLVALUE PUSH2 0xE7 JUMPI DUP2 PUSH1 0x3 NOT CALLDATASIZE ADD SLT PUSH2 0xE7 JUMPI SWAP1 SLOAD SWAP1 MLOAD PUSH1 0x1 PUSH1 0x1 PUSH1 0xA0 SHL SUB SWAP1 SWAP2 AND DUP2 MSTORE PUSH1 0x20 SWAP1 RETURN JUMPDEST SWAP1 POP CALLVALUE PUSH2 0x19E JUMPI DUP3 PUSH1 0x3 NOT CALLDATASIZE ADD SLT PUSH2 0x19E JUMPI PUSH2 0x2A5 PUSH2 0x92C JUMP JUMPDEST SWAP1 ISZERO PUSH2 0x35C JUMPI PUSH1 0x6 SLOAD PUSH1 0x1 SLOAD SWAP1 SWAP3 DUP6 SWAP2 PUSH1 0x1 PUSH1 0x1 PUSH1 0xA0 SHL SUB AND SWAP1 DUP2 EXTCODESIZE ISZERO PUSH2 0x19E JUMPI DUP4 PUSH1 0x24 DUP5 SWAP3 DUP4 DUP10 MLOAD SWAP6 DUP7 SWAP5 DUP6 SWAP4 PUSH4 0x17D031A3 PUSH1 0xE0 SHL DUP6 MSTORE DUP5 ADD MSTORE GAS CALL DUP1 ISZERO PUSH2 0x352 JUMPI PUSH2 0x33A JUMPI JUMPDEST POP POP PUSH1 0x6 DUP2 SWAP1 SSTORE TIMESTAMP PUSH1 0x3 DUP2 SWAP1 SSTORE SWAP3 MLOAD SWAP2 DUP3 MSTORE PUSH1 0x20 DUP3 ADD MSTORE PUSH1 0x40 DUP2 ADD SWAP2 SWAP1 SWAP2 MSTORE PUSH32 0x15819DD2FD9F6418B142E798D08A18D0BF06EA368F4480B7B0D3F75BD966BC48 SWAP1 DUP1 PUSH1 0x60 DUP2 ADD JUMPDEST SUB SWAP1 LOG1 DUP1 RETURN JUMPDEST PUSH2 0x343 SWAP1 PUSH2 0x6FC JUMP JUMPDEST PUSH2 0x34E JUMPI DUP4 CODESIZE PUSH2 0x2ED JUMP JUMPDEST DUP4 DUP1 REVERT JUMPDEST DUP6 MLOAD RETURNDATASIZE DUP5 DUP3 RETURNDATACOPY RETURNDATASIZE SWAP1 REVERT JUMPDEST POP PUSH1 0x20 PUSH1 0x64 SWAP3 MLOAD SWAP2 PUSH3 0x461BCD PUSH1 0xE5 SHL DUP4 MSTORE DUP3 ADD MSTORE PUSH1 0x15 PUSH1 0x24 DUP3 ADD MSTORE PUSH21 0x155C19185D19481B9BDD081B9959591959081E595D PUSH1 0x5A SHL PUSH1 0x44 DUP3 ADD MSTORE REVERT JUMPDEST SWAP1 POP CALLVALUE PUSH2 0x19E JUMPI PUSH1 0x20 CALLDATASIZE PUSH1 0x3 NOT ADD SLT PUSH2 0x19E JUMPI DUP1 CALLDATALOAD SWAP1 PUSH2 0x3C2 PUSH1 0x1 DUP1 PUSH1 0xA0 SHL SUB PUSH1 0x2 SLOAD AND CALLER EQ PUSH2 0x99C JUMP JUMPDEST PUSH1 0x1 DUP3 LT ISZERO DUP1 PUSH2 0x444 JUMPI JUMPDEST ISZERO PUSH2 0x40C JUMPI POP SWAP1 PUSH32 0x988395A292065BED3AC432A1C362F44BC7CF1D88BF5CC5C1BFBA0E2CA627B124 SWAP2 PUSH1 0x5 SLOAD SWAP1 DUP1 PUSH1 0x5 SSTORE DUP3 MLOAD SWAP2 DUP3 MSTORE PUSH1 0x20 DUP3 ADD MSTORE LOG1 DUP1 RETURN JUMPDEST PUSH1 0x64 SWAP1 PUSH1 0x20 DUP5 MLOAD SWAP2 PUSH3 0x461BCD PUSH1 0xE5 SHL DUP4 MSTORE DUP3 ADD MSTORE PUSH1 0x12 PUSH1 0x24 DUP3 ADD MSTORE PUSH18 0x496E76616C69642070657263656E74616765 PUSH1 0x70 SHL PUSH1 0x44 DUP3 ADD MSTORE REVERT JUMPDEST POP PUSH1 0x32 DUP3 GT ISZERO PUSH2 0x3CD JUMP JUMPDEST DUP4 DUP4 CALLVALUE PUSH2 0xE7 JUMPI PUSH1 0x20 CALLDATASIZE PUSH1 0x3 NOT ADD SLT PUSH2 0xE7 JUMPI DUP3 CALLDATALOAD SWAP3 PUSH2 0x47A PUSH1 0x1 DUP1 PUSH1 0xA0 SHL SUB PUSH1 0x2 SLOAD AND CALLER EQ PUSH2 0x99C JUMP JUMPDEST PUSH2 0x12C DUP5 LT PUSH2 0x4F9 JUMPI PUSH3 0x93A80 DUP5 GT PUSH2 0x4C3 JUMPI DUP4 PUSH32 0x8AA7FBBC28F7FC5A70329710351253983CF8FF5DAFE3127047AB479BB988AEE5 SWAP4 SWAP5 DUP3 SLOAD SWAP3 SSTORE DUP3 MLOAD SWAP2 DUP3 MSTORE PUSH1 0x20 DUP3 ADD MSTORE LOG1 DUP1 RETURN JUMPDEST PUSH1 0x20 PUSH1 0x64 SWAP3 MLOAD SWAP2 PUSH3 0x461BCD PUSH1 0xE5 SHL DUP4 MSTORE DUP3 ADD MSTORE PUSH1 0x11 PUSH1 0x24 DUP3 ADD MSTORE PUSH17 0x496E74657276616C20746F6F206C6F6E67 PUSH1 0x78 SHL PUSH1 0x44 DUP3 ADD MSTORE REVERT JUMPDEST PUSH1 0x20 PUSH1 0x64 SWAP3 MLOAD SWAP2 PUSH3 0x461BCD PUSH1 0xE5 SHL DUP4 MSTORE DUP3 ADD MSTORE PUSH1 0x12 PUSH1 0x24 DUP3 ADD MSTORE PUSH18 0x125B9D195C9D985B081D1BDBC81CDA1BDC9D PUSH1 0x72 SHL PUSH1 0x44 DUP3 ADD MSTORE REVERT JUMPDEST DUP4 SWAP2 POP CALLVALUE PUSH2 0xE7 JUMPI DUP2 PUSH1 0x3 NOT CALLDATASIZE ADD SLT PUSH2 0xE7 JUMPI PUSH1 0x2 SLOAD PUSH1 0x1 PUSH1 0x1 PUSH1 0xA0 SHL SUB SWAP2 SWAP1 PUSH2 0x55D SWAP1 DUP4 AND CALLER EQ PUSH2 0x99C JUMP JUMPDEST PUSH2 0x565 PUSH2 0x764 JUMP JUMPDEST SWAP1 PUSH1 0x6 SLOAD SWAP3 PUSH1 0x1 SLOAD AND SWAP1 DUP2 EXTCODESIZE ISZERO PUSH2 0x19A JUMPI DUP3 PUSH1 0x24 DUP7 SWAP3 DUP4 DUP10 MLOAD SWAP6 DUP7 SWAP5 DUP6 SWAP4 PUSH4 0x17D031A3 PUSH1 0xE0 SHL DUP6 MSTORE DUP5 ADD MSTORE GAS CALL DUP1 ISZERO PUSH2 0x61D JUMPI PUSH2 0x5E8 JUMPI JUMPDEST POP PUSH1 0x6 DUP2 SWAP1 SSTORE TIMESTAMP PUSH1 0x3 DUP2 SWAP1 SSTORE SWAP4 MLOAD SWAP2 DUP3 MSTORE PUSH1 0x20 DUP3 ADD MSTORE PUSH1 0x40 DUP2 ADD SWAP3 SWAP1 SWAP3 MSTORE SWAP1 PUSH32 0x15819DD2FD9F6418B142E798D08A18D0BF06EA368F4480B7B0D3F75BD966BC48 SWAP1 DUP1 PUSH1 0x60 DUP2 ADD PUSH2 0x334 JUMP JUMPDEST PUSH32 0x15819DD2FD9F6418B142E798D08A18D0BF06EA368F4480B7B0D3F75BD966BC48 SWAP4 PUSH2 0x616 PUSH2 0x334 SWAP3 PUSH2 0x6FC JUMP JUMPDEST SWAP4 POP PUSH2 0x59D JUMP JUMPDEST DUP6 MLOAD RETURNDATASIZE DUP7 DUP3 RETURNDATACOPY RETURNDATASIZE SWAP1 REVERT JUMPDEST DUP3 DUP5 CALLVALUE PUSH2 0x213 JUMPI DUP1 PUSH1 0x3 NOT CALLDATASIZE ADD SLT PUSH2 0x213 JUMPI PUSH2 0x641 PUSH2 0x764 JUMP JUMPDEST SWAP2 PUSH1 0x6 SLOAD SWAP2 DUP3 DUP5 GT PUSH1 0x0 EQ PUSH2 0x6B2 JUMPI PUSH2 0x65A DUP4 DUP6 PUSH2 0x8E9 JUMP JUMPDEST SWAP1 JUMPDEST PUSH1 0x64 DUP3 MUL SWAP2 DUP1 DUP4 DIV PUSH1 0x64 EQ SWAP1 ISZERO OR ISZERO PUSH2 0x69F JUMPI POP PUSH1 0x80 SWAP5 POP DUP3 PUSH2 0x67E SWAP2 PUSH2 0x90C JUMP JUMPDEST SWAP1 PUSH2 0x687 PUSH2 0x92C JUMP JUMPDEST POP SWAP3 DUP2 MLOAD SWAP5 DUP6 MSTORE PUSH1 0x20 DUP6 ADD MSTORE DUP4 ADD MSTORE ISZERO ISZERO PUSH1 0x60 DUP3 ADD MSTORE RETURN JUMPDEST PUSH4 0x4E487B71 PUSH1 0xE0 SHL DUP2 MSTORE PUSH1 0x11 DUP7 MSTORE PUSH1 0x24 SWAP1 REVERT JUMPDEST PUSH2 0x6BC DUP5 DUP5 PUSH2 0x8E9 JUMP JUMPDEST SWAP1 PUSH2 0x65C JUMP JUMPDEST POP POP CALLVALUE PUSH2 0xE7 JUMPI DUP2 PUSH1 0x3 NOT CALLDATASIZE ADD SLT PUSH2 0xE7 JUMPI PUSH1 0x20 SWAP1 PUSH1 0x6 SLOAD SWAP1 MLOAD SWAP1 DUP2 MSTORE RETURN JUMPDEST DUP5 SWAP2 CALLVALUE PUSH2 0x19E JUMPI DUP3 PUSH1 0x3 NOT CALLDATASIZE ADD SLT PUSH2 0x19E JUMPI PUSH1 0x20 SWAP3 POP SLOAD DUP2 MSTORE RETURN JUMPDEST PUSH8 0xFFFFFFFFFFFFFFFF DUP2 GT PUSH2 0x710 JUMPI PUSH1 0x40 MSTORE JUMP JUMPDEST PUSH4 0x4E487B71 PUSH1 0xE0 SHL PUSH1 0x0 MSTORE PUSH1 0x41 PUSH1 0x4 MSTORE PUSH1 0x24 PUSH1 0x0 REVERT JUMPDEST SWAP1 PUSH1 0x1F DUP1 NOT SWAP2 ADD AND DUP2 ADD SWAP1 DUP2 LT PUSH8 0xFFFFFFFFFFFFFFFF DUP3 GT OR PUSH2 0x710 JUMPI PUSH1 0x40 MSTORE JUMP JUMPDEST MLOAD SWAP1 PUSH10 0xFFFFFFFFFFFFFFFFFFFF DUP3 AND DUP3 SUB PUSH2 0x75F JUMPI JUMP JUMPDEST PUSH1 0x0 DUP1 REVERT JUMPDEST PUSH1 0x0 DUP1 SLOAD PUSH1 0x40 MLOAD PUSH4 0x3FABE5A3 PUSH1 0xE2 SHL DUP2 MSTORE SWAP2 SWAP1 PUSH1 0x4 SWAP1 PUSH1 0x1 PUSH1 0x1 PUSH1 0xA0 SHL SUB AND PUSH1 0xA0 DUP5 DUP4 DUP2 DUP5 GAS STATICCALL SWAP4 DUP5 ISZERO PUSH2 0x85C JUMPI DUP4 SWAP5 PUSH2 0x89B JUMPI JUMPDEST POP DUP3 DUP5 SGT ISZERO PUSH2 0x867 JUMPI PUSH1 0x20 DUP3 SWAP2 PUSH1 0x40 MLOAD SWAP3 DUP4 DUP1 SWAP3 PUSH4 0x313CE567 PUSH1 0xE0 SHL DUP3 MSTORE GAS STATICCALL DUP1 ISZERO PUSH2 0x85C JUMPI DUP4 SWAP1 PUSH2 0x820 JUMPI JUMPDEST PUSH1 0xFF SWAP2 POP AND PUSH1 0x12 SUB PUSH1 0xFF DUP2 GT PUSH2 0x80D JUMPI PUSH1 0xFF AND PUSH1 0x4D DUP2 GT PUSH2 0x80D JUMPI PUSH1 0xA EXP SWAP3 DUP4 DUP2 MUL SWAP4 DUP2 DUP6 DIV EQ SWAP1 ISZERO OR ISZERO PUSH2 0x7FA JUMPI POP POP SWAP1 JUMP JUMPDEST PUSH4 0x4E487B71 PUSH1 0xE0 SHL DUP3 MSTORE PUSH1 0x11 SWAP1 MSTORE PUSH1 0x24 SWAP1 REVERT JUMPDEST PUSH4 0x4E487B71 PUSH1 0xE0 SHL DUP4 MSTORE PUSH1 0x11 DUP3 MSTORE PUSH1 0x24 DUP4 REVERT JUMPDEST POP PUSH1 0x20 DUP2 RETURNDATASIZE DUP3 GT PUSH2 0x854 JUMPI JUMPDEST DUP2 PUSH2 0x839 PUSH1 0x20 SWAP4 DUP4 PUSH2 0x726 JUMP JUMPDEST DUP2 ADD SUB SLT PUSH2 0x19E JUMPI MLOAD PUSH1 0xFF DUP2 AND DUP2 SUB PUSH2 0x19E JUMPI PUSH1 0xFF SWAP1 PUSH2 0x7C6 JUMP JUMPDEST RETURNDATASIZE SWAP2 POP PUSH2 0x82C JUMP JUMPDEST PUSH1 0x40 MLOAD RETURNDATASIZE DUP6 DUP3 RETURNDATACOPY RETURNDATASIZE SWAP1 REVERT JUMPDEST PUSH1 0x40 MLOAD PUSH3 0x461BCD PUSH1 0xE5 SHL DUP2 MSTORE PUSH1 0x20 DUP2 DUP5 ADD MSTORE PUSH1 0xD PUSH1 0x24 DUP3 ADD MSTORE PUSH13 0x496E76616C6964207072696365 PUSH1 0x98 SHL PUSH1 0x44 DUP3 ADD MSTORE PUSH1 0x64 SWAP1 REVERT JUMPDEST SWAP1 SWAP4 POP PUSH1 0xA0 DUP2 RETURNDATASIZE DUP3 GT PUSH2 0x8E1 JUMPI JUMPDEST DUP2 PUSH2 0x8B6 PUSH1 0xA0 SWAP4 DUP4 PUSH2 0x726 JUMP JUMPDEST DUP2 ADD SUB SLT PUSH2 0x19E JUMPI PUSH2 0x8C7 DUP2 PUSH2 0x748 JUMP JUMPDEST POP PUSH2 0x8D9 PUSH1 0x80 PUSH1 0x20 DUP4 ADD MLOAD SWAP3 ADD PUSH2 0x748 JUMP JUMPDEST POP SWAP3 CODESIZE PUSH2 0x799 JUMP JUMPDEST RETURNDATASIZE SWAP2 POP PUSH2 0x8A9 JUMP JUMPDEST SWAP2 SWAP1 DUP3 SUB SWAP2 DUP3 GT PUSH2 0x8F6 JUMPI JUMP JUMPDEST PUSH4 0x4E487B71 PUSH1 0xE0 SHL PUSH1 0x0 MSTORE PUSH1 0x11 PUSH1 0x4 MSTORE PUSH1 0x24 PUSH1 0x0 REVERT JUMPDEST DUP2 ISZERO PUSH2 0x916 JUMPI DIV SWAP1 JUMP JUMPDEST PUSH4 0x4E487B71 PUSH1 0xE0 SHL PUSH1 0x0 MSTORE PUSH1 0x12 PUSH1 0x4 MSTORE PUSH1 0x24 PUSH1 0x0 REVERT JUMPDEST PUSH2 0x934 PUSH2 0x764 JUMP JUMPDEST SWAP1 PUSH1 0x3 SLOAD PUSH1 0x4 SLOAD DUP2 ADD DUP1 SWAP2 GT PUSH2 0x8F6 JUMPI TIMESTAMP LT PUSH2 0x996 JUMPI PUSH1 0x6 SLOAD DUP1 DUP4 GT ISZERO PUSH2 0x986 JUMPI PUSH2 0x95F DUP2 DUP5 PUSH2 0x8E9 JUMP JUMPDEST SWAP1 JUMPDEST PUSH1 0x64 DUP3 MUL SWAP2 DUP1 DUP4 DIV PUSH1 0x64 EQ SWAP1 ISZERO OR ISZERO PUSH2 0x8F6 JUMPI PUSH2 0x97D SWAP2 PUSH2 0x90C JUMP JUMPDEST PUSH1 0x5 SLOAD GT ISZERO SWAP2 SWAP1 JUMP JUMPDEST PUSH2 0x990 DUP4 DUP3 PUSH2 0x8E9 JUMP JUMPDEST SWAP1 PUSH2 0x961 JUMP JUMPDEST PUSH1 0x0 SWAP2 SWAP1 JUMP JUMPDEST ISZERO PUSH2 0x9A3 JUMPI JUMP JUMPDEST PUSH1 0x40 MLOAD PUSH3 0x461BCD PUSH1 0xE5 SHL DUP2 MSTORE PUSH1 0x20 PUSH1 0x4 DUP3 ADD MSTORE PUSH1 0x9 PUSH1 0x24 DUP3 ADD MSTORE PUSH9 0x2737BA1037BBB732B9 PUSH1 0xB9 SHL PUSH1 0x44 DUP3 ADD MSTORE PUSH1 0x64 SWAP1 REVERT INVALID LOG2 PUSH5 0x6970667358 0x22 SLT KECCAK256 ADDRESS SWAP5 0xDA PUSH31 0x1B658099F577A6FA717DBD3E42AAE66979602CC37EF57DF03B8AC61E64736F PUSH13 0x63430008140033000000000000 "},"methodIdentifiers":{"forceUpdate()":"3acaa0d7","getLatestPrice()":"8e15f473","getPriceInfo()":"330227bf","lastStoredPrice()":"307e3db1","lastUpdateTime()":"c8f33c91","mainContract()":"d270e7ab","minUpdateInterval()":"0964ff26","owner()":"8da5cb5b","priceDeviationPercent()":"fb4c7e0b","priceFeed()":"741bef1a","setMinUpdateInterval(uint256)":"4e14a583","setPriceDeviationPercent(uint256)":"55f93084","shouldUpdate()":"a8c954d8","transferOwnership(address)":"f2fde38b","updatePrice()":"673a7e28"}}}}}