{"contracts/FiveDollarRide_BNB_Pure.sol":{"FiveDollarRide":{"abi":[{"inputs":[{"internalType":"address","name":"_feeReceiver","type":"address"},{"internalType":"address","name":"_royalty","type":"address"},{"internalType":"address","name":"_rootUserAddress","type":"address"},{"internalType":"uint256","name":"_rootUserId","type":"uint256"},{"internalType":"address","name":"_priceFeedAddress","type":"address"}],"stateMutability":"nonpayable","type":"constructor"},{"inputs":[{"internalType":"address","name":"owner","type":"address"}],"name":"OwnableInvalidOwner","type":"error"},{"inputs":[{"internalType":"address","name":"account","type":"address"}],"name":"OwnableUnauthorizedAccount","type":"error"},{"inputs":[],"name":"ReentrancyGuardReentrantCall","type":"error"},{"anonymous":false,"inputs":[{"indexed":false,"internalType":"uint256","name":"amount","type":"uint256"},{"indexed":false,"internalType":"uint256","name":"level","type":"uint256"},{"indexed":false,"internalType":"uint256","name":"timestamp","type":"uint256"}],"name":"AdminFeePaid","type":"event"},{"anonymous":false,"inputs":[{"indexed":false,"internalType":"bool","name":"enabled","type":"bool"},{"indexed":false,"internalType":"uint256","name":"timestamp","type":"uint256"}],"name":"AutoUpdateToggled","type":"event"},{"anonymous":false,"inputs":[{"indexed":false,"internalType":"uint256","name":"oldPrice","type":"uint256"},{"indexed":false,"internalType":"uint256","name":"newPrice","type":"uint256"},{"indexed":false,"internalType":"uint256","name":"timestamp","type":"uint256"}],"name":"BNBPriceUpdated","type":"event"},{"anonymous":false,"inputs":[{"indexed":true,"internalType":"address","name":"by","type":"address"},{"indexed":false,"internalType":"uint256","name":"timestamp","type":"uint256"}],"name":"ContractPaused","type":"event"},{"anonymous":false,"inputs":[{"indexed":true,"internalType":"address","name":"by","type":"address"},{"indexed":false,"internalType":"uint256","name":"timestamp","type":"uint256"}],"name":"ContractUnpaused","type":"event"},{"anonymous":false,"inputs":[{"indexed":true,"internalType":"uint256","name":"userId","type":"uint256"},{"indexed":true,"internalType":"uint256","name":"fromUser","type":"uint256"},{"indexed":false,"internalType":"uint256","name":"amount","type":"uint256"},{"indexed":false,"internalType":"string","name":"reason","type":"string"},{"indexed":false,"internalType":"uint256","name":"timestamp","type":"uint256"}],"name":"IncomeLost","type":"event"},{"anonymous":false,"inputs":[{"indexed":true,"internalType":"uint8","name":"level","type":"uint8"},{"indexed":false,"internalType":"uint256","name":"oldCost","type":"uint256"},{"indexed":false,"internalType":"uint256","name":"newCost","type":"uint256"},{"indexed":false,"internalType":"uint256","name":"timestamp","type":"uint256"}],"name":"LevelCostUpdated","type":"event"},{"anonymous":false,"inputs":[{"indexed":false,"internalType":"uint256","name":"oldPrice","type":"uint256"},{"indexed":false,"internalType":"uint256","name":"newPrice","type":"uint256"},{"indexed":false,"internalType":"uint256","name":"timestamp","type":"uint256"}],"name":"ManualPriceSet","type":"event"},{"anonymous":false,"inputs":[{"indexed":true,"internalType":"uint256","name":"fromUserId","type":"uint256"},{"indexed":true,"internalType":"uint256","name":"toUserId","type":"uint256"},{"indexed":false,"internalType":"uint256","name":"amount","type":"uint256"},{"indexed":false,"internalType":"uint256","name":"level","type":"uint256"},{"indexed":false,"internalType":"uint256","name":"layer","type":"uint256"},{"indexed":false,"internalType":"bool","name":"qualified","type":"bool"},{"indexed":false,"internalType":"uint256","name":"timestamp","type":"uint256"}],"name":"MatrixPayment","type":"event"},{"anonymous":false,"inputs":[{"indexed":true,"internalType":"address","name":"previousOwner","type":"address"},{"indexed":false,"internalType":"uint256","name":"timestamp","type":"uint256"}],"name":"OwnershipRenounced","type":"event"},{"anonymous":false,"inputs":[{"indexed":true,"internalType":"address","name":"previousOwner","type":"address"},{"indexed":true,"internalType":"address","name":"newOwner","type":"address"}],"name":"OwnershipTransferred","type":"event"},{"anonymous":false,"inputs":[{"indexed":false,"internalType":"uint256","name":"minPrice","type":"uint256"},{"indexed":false,"internalType":"uint256","name":"maxPrice","type":"uint256"},{"indexed":false,"internalType":"uint256","name":"timestamp","type":"uint256"}],"name":"PriceBoundsUpdated","type":"event"},{"anonymous":false,"inputs":[{"indexed":true,"internalType":"address","name":"newFeed","type":"address"},{"indexed":false,"internalType":"uint256","name":"timestamp","type":"uint256"}],"name":"PriceFeedUpdated","type":"event"},{"anonymous":false,"inputs":[{"indexed":false,"internalType":"string","name":"reason","type":"string"},{"indexed":false,"internalType":"uint256","name":"currentPrice","type":"uint256"},{"indexed":false,"internalType":"uint256","name":"timestamp","type":"uint256"}],"name":"PriceUpdateFailed","type":"event"},{"anonymous":false,"inputs":[{"indexed":true,"internalType":"uint256","name":"referrerId","type":"uint256"},{"indexed":true,"internalType":"uint256","name":"userId","type":"uint256"},{"indexed":false,"internalType":"uint256","name":"amount","type":"uint256"},{"indexed":false,"internalType":"uint256","name":"timestamp","type":"uint256"}],"name":"ReferralPayment","type":"event"},{"anonymous":false,"inputs":[{"indexed":false,"internalType":"uint256","name":"amount","type":"uint256"},{"indexed":false,"internalType":"string","name":"source","type":"string"},{"indexed":false,"internalType":"uint256","name":"timestamp","type":"uint256"}],"name":"RootFallbackIncome","type":"event"},{"anonymous":false,"inputs":[{"indexed":true,"internalType":"uint256","name":"rootUserId","type":"uint256"},{"indexed":true,"internalType":"address","name":"rootAddress","type":"address"},{"indexed":false,"internalType":"uint256","name":"timestamp","type":"uint256"}],"name":"RootUserCreated","type":"event"},{"anonymous":false,"inputs":[{"indexed":true,"internalType":"uint256","name":"userId","type":"uint256"},{"indexed":true,"internalType":"uint256","name":"royaltyLevel","type":"uint256"},{"indexed":false,"internalType":"uint256","name":"amount","type":"uint256"},{"indexed":false,"internalType":"uint256","name":"timestamp","type":"uint256"}],"name":"RoyaltyClaimed","type":"event"},{"anonymous":false,"inputs":[{"indexed":true,"internalType":"uint256","name":"userId","type":"uint256"},{"indexed":false,"internalType":"uint256","name":"amount","type":"uint256"},{"indexed":false,"internalType":"uint256","name":"timestamp","type":"uint256"}],"name":"RoyaltyPoolFunded","type":"event"},{"anonymous":false,"inputs":[{"indexed":true,"internalType":"uint256","name":"sponsorId","type":"uint256"},{"indexed":true,"internalType":"uint256","name":"fromUserId","type":"uint256"},{"indexed":false,"internalType":"uint256","name":"amount","type":"uint256"},{"indexed":false,"internalType":"uint256","name":"level","type":"uint256"},{"indexed":false,"internalType":"uint256","name":"timestamp","type":"uint256"}],"name":"SponsorCommissionPaid","type":"event"},{"anonymous":false,"inputs":[{"indexed":false,"internalType":"uint256","name":"newIntervalDays","type":"uint256"},{"indexed":false,"internalType":"uint256","name":"timestamp","type":"uint256"}],"name":"UpdateIntervalChanged","type":"event"},{"anonymous":false,"inputs":[{"indexed":true,"internalType":"uint256","name":"userId","type":"uint256"},{"indexed":true,"internalType":"address","name":"account","type":"address"},{"indexed":true,"internalType":"uint256","name":"referrer","type":"uint256"},{"indexed":false,"internalType":"uint256","name":"timestamp","type":"uint256"}],"name":"UserRegistered","type":"event"},{"anonymous":false,"inputs":[{"indexed":true,"internalType":"uint256","name":"userId","type":"uint256"},{"indexed":false,"internalType":"uint256","name":"newLevel","type":"uint256"},{"indexed":false,"internalType":"uint256","name":"amount","type":"uint256"},{"indexed":false,"internalType":"uint256","name":"timestamp","type":"uint256"}],"name":"UserUpgraded","type":"event"},{"inputs":[],"name":"ADMIN_FEE_PERCENT","outputs":[{"internalType":"uint8","name":"","type":"uint8"}],"stateMutability":"view","type":"function"},{"inputs":[],"name":"DIRECT_REQUIRED","outputs":[{"internalType":"uint256","name":"","type":"uint256"}],"stateMutability":"view","type":"function"},{"inputs":[],"name":"FEE_RECEIVER","outputs":[{"internalType":"address","name":"","type":"address"}],"stateMutability":"view","type":"function"},{"inputs":[],"name":"MAX_INCOME_LAYER","outputs":[{"internalType":"uint8","name":"","type":"uint8"}],"stateMutability":"view","type":"function"},{"inputs":[],"name":"MAX_LEVELS","outputs":[{"internalType":"uint8","name":"","type":"uint8"}],"stateMutability":"view","type":"function"},{"inputs":[],"name":"MAX_PLACEMENT_DEPTH","outputs":[{"internalType":"uint8","name":"","type":"uint8"}],"stateMutability":"view","type":"function"},{"inputs":[],"name":"MAX_REFERRAL_LAYERS","outputs":[{"internalType":"uint256","name":"","type":"uint256"}],"stateMutability":"view","type":"function"},{"inputs":[],"name":"ROYALTY_ADDR","outputs":[{"internalType":"contract IRoyalty","name":"","type":"address"}],"stateMutability":"view","type":"function"},{"inputs":[],"name":"ROYALTY_FUND_PERCENT","outputs":[{"internalType":"uint8","name":"","type":"uint8"}],"stateMutability":"view","type":"function"},{"inputs":[],"name":"START_TIME","outputs":[{"internalType":"uint256","name":"","type":"uint256"}],"stateMutability":"view","type":"function"},{"inputs":[],"name":"autoUpdateEnabled","outputs":[{"internalType":"bool","name":"","type":"bool"}],"stateMutability":"view","type":"function"},{"inputs":[],"name":"bnbPrice","outputs":[{"internalType":"uint256","name":"","type":"uint256"}],"stateMutability":"view","type":"function"},{"inputs":[{"internalType":"uint256","name":"_tier","type":"uint256"}],"name":"claimMyRoyalty","outputs":[],"stateMutability":"nonpayable","type":"function"},{"inputs":[{"internalType":"uint256","name":"_id","type":"uint256"},{"internalType":"uint256","name":"_royaltyLvl","type":"uint256"}],"name":"claimRoyalty","outputs":[],"stateMutability":"nonpayable","type":"function"},{"inputs":[],"name":"getAllLevelCosts","outputs":[{"internalType":"uint256[13]","name":"costs","type":"uint256[13]"},{"internalType":"uint256[13]","name":"fees","type":"uint256[13]"},{"internalType":"uint256[13]","name":"totals","type":"uint256[13]"}],"stateMutability":"view","type":"function"},{"inputs":[],"name":"getContractBalance","outputs":[{"internalType":"uint256","name":"","type":"uint256"}],"stateMutability":"view","type":"function"},{"inputs":[],"name":"getLatestBNBPrice","outputs":[{"internalType":"uint256","name":"","type":"uint256"}],"stateMutability":"view","type":"function"},{"inputs":[{"internalType":"uint256","name":"_level","type":"uint256"}],"name":"getLevelCost","outputs":[{"internalType":"uint256","name":"","type":"uint256"}],"stateMutability":"view","type":"function"},{"inputs":[{"internalType":"uint256","name":"_level","type":"uint256"}],"name":"getLevelCostWithFee","outputs":[{"internalType":"uint256","name":"cost","type":"uint256"},{"internalType":"uint256","name":"adminFee","type":"uint256"},{"internalType":"uint256","name":"total","type":"uint256"}],"stateMutability":"view","type":"function"},{"inputs":[],"name":"getMyIncomeBreakdown","outputs":[{"internalType":"uint256","name":"totalDeposit","type":"uint256"},{"internalType":"uint256","name":"totalIncome","type":"uint256"},{"internalType":"uint256","name":"referralIncome","type":"uint256"},{"internalType":"uint256","name":"sponsorIncome","type":"uint256"},{"internalType":"uint256","name":"levelIncome","type":"uint256"},{"internalType":"uint256","name":"lostAmount","type":"uint256"}],"stateMutability":"view","type":"function"},{"inputs":[],"name":"getMyInfo","outputs":[{"internalType":"uint256","name":"userId","type":"uint256"},{"internalType":"uint256","name":"level","type":"uint256"},{"internalType":"uint256","name":"team","type":"uint256"},{"internalType":"uint256","name":"directTeam","type":"uint256"},{"internalType":"uint256","name":"totalIncome","type":"uint256"},{"internalType":"uint256","name":"referrerId","type":"uint256"},{"internalType":"uint256","name":"uplineId","type":"uint256"},{"internalType":"uint256","name":"registrationTime","type":"uint256"}],"stateMutability":"view","type":"function"},{"inputs":[],"name":"getMyRoyaltyStatus","outputs":[{"internalType":"uint256[4]","name":"claimableAmounts","type":"uint256[4]"},{"internalType":"bool[4]","name":"isEligible","type":"bool[4]"},{"internalType":"bool[4]","name":"hasClaimed","type":"bool[4]"}],"stateMutability":"view","type":"function"},{"inputs":[],"name":"getMyTeam","outputs":[{"internalType":"uint256","name":"teamSize","type":"uint256"},{"internalType":"uint256","name":"directCount","type":"uint256"},{"internalType":"uint256[]","name":"directReferralIds","type":"uint256[]"},{"internalType":"address[]","name":"directReferralAddresses","type":"address[]"}],"stateMutability":"view","type":"function"},{"inputs":[],"name":"getPriceStatus","outputs":[{"internalType":"uint256","name":"oraclePrice","type":"uint256"},{"internalType":"uint256","name":"storedPrice","type":"uint256"},{"internalType":"bool","name":"updateDue","type":"bool"},{"internalType":"uint256","name":"timeSinceUpdate","type":"uint256"}],"stateMutability":"view","type":"function"},{"inputs":[{"internalType":"uint256","name":"_userId","type":"uint256"}],"name":"getReferrerAddress","outputs":[{"internalType":"address","name":"","type":"address"}],"stateMutability":"view","type":"function"},{"inputs":[],"name":"getRegistrationCost","outputs":[{"internalType":"uint256","name":"cost","type":"uint256"},{"internalType":"uint256","name":"levelCost","type":"uint256"},{"internalType":"uint256","name":"adminFee","type":"uint256"}],"stateMutability":"view","type":"function"},{"inputs":[{"internalType":"uint256","name":"_levels","type":"uint256"}],"name":"getUpgradeCost","outputs":[{"internalType":"uint256","name":"totalCost","type":"uint256"},{"internalType":"uint256[]","name":"breakdown","type":"uint256[]"}],"stateMutability":"view","type":"function"},{"inputs":[{"internalType":"address","name":"_userAddress","type":"address"},{"internalType":"uint256","name":"_levels","type":"uint256"}],"name":"getUpgradeCostFor","outputs":[{"internalType":"uint256","name":"totalCost","type":"uint256"},{"internalType":"uint256[]","name":"breakdown","type":"uint256[]"}],"stateMutability":"view","type":"function"},{"inputs":[{"internalType":"uint256","name":"_userId","type":"uint256"}],"name":"getUserAccount","outputs":[{"internalType":"address","name":"","type":"address"}],"stateMutability":"view","type":"function"},{"inputs":[{"internalType":"address","name":"","type":"address"}],"name":"id","outputs":[{"internalType":"uint256","name":"","type":"uint256"}],"stateMutability":"view","type":"function"},{"inputs":[],"name":"initializeRoyalty","outputs":[],"stateMutability":"nonpayable","type":"function"},{"inputs":[],"name":"isAutonomous","outputs":[{"internalType":"bool","name":"","type":"bool"}],"stateMutability":"view","type":"function"},{"inputs":[],"name":"isPriceUpdateDue","outputs":[{"internalType":"bool","name":"","type":"bool"}],"stateMutability":"view","type":"function"},{"inputs":[{"internalType":"address","name":"_address","type":"address"}],"name":"isRegistered","outputs":[{"internalType":"bool","name":"","type":"bool"}],"stateMutability":"view","type":"function"},{"inputs":[],"name":"lastPriceUpdate","outputs":[{"internalType":"uint256","name":"","type":"uint256"}],"stateMutability":"view","type":"function"},{"inputs":[{"internalType":"uint256","name":"","type":"uint256"}],"name":"levelCosts","outputs":[{"internalType":"uint256","name":"","type":"uint256"}],"stateMutability":"view","type":"function"},{"inputs":[{"internalType":"uint256","name":"","type":"uint256"}],"name":"lostIncome","outputs":[{"internalType":"uint256","name":"","type":"uint256"}],"stateMutability":"view","type":"function"},{"inputs":[],"name":"manualPriceUpdate","outputs":[],"stateMutability":"nonpayable","type":"function"},{"inputs":[{"internalType":"uint256","name":"","type":"uint256"}],"name":"matrixDirect","outputs":[{"internalType":"uint256","name":"","type":"uint256"}],"stateMutability":"view","type":"function"},{"inputs":[],"name":"maxBNBPrice","outputs":[{"internalType":"uint256","name":"","type":"uint256"}],"stateMutability":"view","type":"function"},{"inputs":[],"name":"minBNBPrice","outputs":[{"internalType":"uint256","name":"","type":"uint256"}],"stateMutability":"view","type":"function"},{"inputs":[],"name":"owner","outputs":[{"internalType":"address","name":"","type":"address"}],"stateMutability":"view","type":"function"},{"inputs":[],"name":"pauseContract","outputs":[],"stateMutability":"nonpayable","type":"function"},{"inputs":[],"name":"paused","outputs":[{"internalType":"bool","name":"","type":"bool"}],"stateMutability":"view","type":"function"},{"inputs":[],"name":"priceFeed","outputs":[{"internalType":"contract AggregatorV3Interface","name":"","type":"address"}],"stateMutability":"view","type":"function"},{"inputs":[],"name":"priceUpdateInterval","outputs":[{"internalType":"uint256","name":"","type":"uint256"}],"stateMutability":"view","type":"function"},{"inputs":[],"name":"recoverBNB","outputs":[],"stateMutability":"nonpayable","type":"function"},{"inputs":[{"internalType":"uint256","name":"_ref","type":"uint256"},{"internalType":"address","name":"_newAcc","type":"address"}],"name":"register","outputs":[],"stateMutability":"payable","type":"function"},{"inputs":[{"internalType":"address","name":"_referrerAddress","type":"address"}],"name":"registerMe","outputs":[],"stateMutability":"payable","type":"function"},{"inputs":[],"name":"renounceOwnership","outputs":[],"stateMutability":"nonpayable","type":"function"},{"inputs":[{"internalType":"bool","name":"_enabled","type":"bool"}],"name":"setAutoUpdateEnabled","outputs":[],"stateMutability":"nonpayable","type":"function"},{"inputs":[{"internalType":"uint8","name":"_level","type":"uint8"},{"internalType":"uint256","name":"_newCost","type":"uint256"}],"name":"setLevelCost","outputs":[],"stateMutability":"nonpayable","type":"function"},{"inputs":[{"internalType":"uint256","name":"_level","type":"uint256"},{"internalType":"uint256","name":"_costUSD","type":"uint256"}],"name":"setLevelCost","outputs":[],"stateMutability":"nonpayable","type":"function"},{"inputs":[{"internalType":"uint256","name":"_price","type":"uint256"}],"name":"setManualPrice","outputs":[],"stateMutability":"nonpayable","type":"function"},{"inputs":[{"internalType":"uint256","name":"_minPrice","type":"uint256"},{"internalType":"uint256","name":"_maxPrice","type":"uint256"}],"name":"setPriceBounds","outputs":[],"stateMutability":"nonpayable","type":"function"},{"inputs":[{"internalType":"address","name":"_priceFeedAddress","type":"address"}],"name":"setPriceFeed","outputs":[],"stateMutability":"nonpayable","type":"function"},{"inputs":[{"internalType":"uint256","name":"_days","type":"uint256"}],"name":"setUpdateInterval","outputs":[],"stateMutability":"nonpayable","type":"function"},{"inputs":[{"internalType":"uint256","name":"","type":"uint256"},{"internalType":"uint256","name":"","type":"uint256"},{"internalType":"uint256","name":"","type":"uint256"}],"name":"teams","outputs":[{"internalType":"uint256","name":"","type":"uint256"}],"stateMutability":"view","type":"function"},{"inputs":[],"name":"totalUsers","outputs":[{"internalType":"uint256","name":"","type":"uint256"}],"stateMutability":"view","type":"function"},{"inputs":[{"internalType":"address","name":"newOwner","type":"address"}],"name":"transferOwnership","outputs":[],"stateMutability":"nonpayable","type":"function"},{"inputs":[],"name":"unpauseContract","outputs":[],"stateMutability":"nonpayable","type":"function"},{"inputs":[{"internalType":"uint256","name":"_price","type":"uint256"}],"name":"updateBNBPrice","outputs":[],"stateMutability":"nonpayable","type":"function"},{"inputs":[{"internalType":"uint256","name":"_id","type":"uint256"},{"internalType":"uint256","name":"_lvls","type":"uint256"}],"name":"upgrade","outputs":[],"stateMutability":"payable","type":"function"},{"inputs":[{"internalType":"uint256","name":"_levels","type":"uint256"}],"name":"upgradeMe","outputs":[],"stateMutability":"payable","type":"function"},{"inputs":[{"internalType":"uint256","name":"","type":"uint256"}],"name":"userIncome","outputs":[{"internalType":"uint256","name":"totalDeposit","type":"uint256"},{"internalType":"uint256","name":"totalIncome","type":"uint256"},{"internalType":"uint256","name":"referralIncome","type":"uint256"},{"internalType":"uint256","name":"sponsorIncome","type":"uint256"},{"internalType":"uint256","name":"levelIncome","type":"uint256"}],"stateMutability":"view","type":"function"},{"inputs":[{"internalType":"uint256","name":"","type":"uint256"}],"name":"userInfo","outputs":[{"internalType":"bool","name":"exists","type":"bool"},{"internalType":"address","name":"account","type":"address"},{"internalType":"uint256","name":"referrer","type":"uint256"},{"internalType":"uint256","name":"upline","type":"uint256"},{"internalType":"uint256","name":"level","type":"uint256"},{"internalType":"uint256","name":"directTeam","type":"uint256"},{"internalType":"uint256","name":"team","type":"uint256"},{"internalType":"uint256","name":"registrationTime","type":"uint256"}],"stateMutability":"view","type":"function"},{"stateMutability":"payable","type":"receive"}],"evm":{"bytecode":{"linkReferences":{},"object":"610100346200066157601f620050c938819003918201601f19168301916001600160401b03831184841017620004d35780849260a09460405283398101031262000661576200004e8162000666565b906200005d6020820162000666565b6200006b6040830162000666565b926200007f60806060850151940162000666565b9360016000553315620006485760018054336001600160a01b0319821681179092556001600160a01b0316600080516020620050a9833981519152600080a36830f3a473b371bc000060035562093a806004556006805460ff19166001179055670de0b6b3a764000060075569152d02c7e14af6800000600855604051926001600160401b036101a0850190811190851117620004d3576101a08401604052674563918244f400008085526020850152678ac7230489e8000060408501526801158e460913d00000606085015268022b1c8c1227a0000060808501526804563918244f40000060a08501526808ac7230489e80000060c0850152681158e460913d00000060e0850152610100936822b1c8c1227a00000085820152684563918244f4000000610120820152688ac7230489e80000006101408201526901158e460913d000000061016082015269022b1c8c1227a000000061018082015260005b600d8110620006295750506001600160a01b03831615620005e4576001600160a01b0316908115620005ad576001600160a01b03169485156200056857841562000523576001600160a01b0316918215620004e95760805260a0528260c0524260e05260018060a01b0319600254161760025542600555816018558260005260196020528160406000205560405190810181811060018060401b03821117620004d35760405260018152600660208201848152604083018481526060840185815260808501600d815260a08601916000835260c08701936000855260e088019542875289600052601a6020526040600020985115159060ff8a5491610100600160a81b03905160081b1692169060018060a81b03191617178855516001880155516002870155516003860155516004850155516005840155519101556040519060a082019082821060018060401b03831117620004d3576004916040526000835260208301600081526040840160008152606085019160008352608086019360008552600052601b6020526040600020955186555160018601555160028501555160038401555191015560c05160205468010000000000000000811015620004d3576001810180602055811015620004bd57819060206000526020600020015560016017557fccf9e170264f78923037f9d4f09c5eb756fcb20f871f02dcedb45f500d77b9886020604051428152a3604051336000600080516020620050a98339815191528180a3614a2d90816200067c8239608051818181610ab20152818161125f015281816127af0152613a2c015260a0518181816106fa0152818161075c01528181610a3b015281816115800152818161180a0152818161248b015281816124ed0152818161273e01528181612982015281816139950152614723015260c05181818161113f01528181611402015281816117b201528181611c480152818161294901528181613adc015261427f015260e05181610fa30152f35b634e487b7160e01b600052603260045260246000fd5b634e487b7160e01b600052604160045260246000fd5b60405162461bcd60e51b8152602060048201526012602482015271125b9d985b1a59081c1c9a58d9481999595960721b6044820152606490fd5b60405162461bcd60e51b815260206004820152601460248201527f496e76616c696420726f6f7420757365722049440000000000000000000000006044820152606490fd5b60405162461bcd60e51b815260206004820152601460248201527f496e76616c696420726f6f7420616464726573730000000000000000000000006044820152606490fd5b60405162461bcd60e51b815260206004820152600f60248201526e496e76616c696420726f79616c747960881b6044820152606490fd5b60405162461bcd60e51b815260206004820152601460248201527f496e76616c6964206665652072656365697665720000000000000000000000006044820152606490fd5b81516001600160501b03166009820155602090910190600101620001df565b604051631e4fbdf760e01b815260006004820152602490fd5b600080fd5b51906001600160a01b0382168203620006615756fe608080604052600436101561001d575b50361561001b57600080fd5b005b600090813560e01c9081630e1bc0ee14612fd55750806317d031a314612f6257806319b9dfb514612eb15780631daa8ae214612e9357806321d178fb14612bf45780632233a83014612bca5780632b6e4da014612bab5780632d8ae54914612b5b5780633586cd1414612b38578063437f6e231461292e578063439766ce1461289a578063451450ec146121eb5780634a429d12146121ab5780634bf96a8814611dac5780634cd2b1ea14611fc3578063504e473014611fa057806351d70bc414611f1c578063576dde1214611efe5780635aabf7f114611eaa5780635c975abb14611e875780635d7d634214611e265780635ffde7be14611e085780636266a38014611db15780636702c7bf14611dac5780636949faeb14611d8e578063697d242814611d725780636bfdf8a014611cbb5780636f9fb98a14611c9f5780636fa6e58a14611bda5780637124c68314611b0d578063715018a614611a7e578063724e78da14611a02578063741bef1a146119d957806376ed7f0e14611979578063790bd5841461195b5780637daa10ce1461190d5780637e06a01f146118e0578063806d73be1461172d57806382ee173e146116c057806388afbe3e146116965780638955defb1461165d5780638da5cb5b146116345780639c8c3e80146115af5780639d7206521461156a578063a7476dcf1461154e578063aafb980014611532578063b33712c5146114a5578063bfca1cd01461128e578063bff1f9e114611487578063c3c5a5471461144c578063d0ac259614611293578063d3d50d951461128e578063d3e78e4d14611249578063d7a718681461117e578063dbbdf08314610fc6578063ddaa26ad14610f8b578063dfe10d4414610ecf578063e649f37814610eaa578063e6bb42d814610dbe578063ecef6cff14610d72578063f12c860a14610c83578063f28d3d5e14610c59578063f2fde38b14610bc1578063fb2ddd7014610431578063fdc61181146103fb5763ff329e7c0361000f57346103f85760203660031901126103f857600435903381526019602052604081205461032981151561377c565b8152601a602052600360408220015461034e600d6103478584613408565b111561366f565b610357836142cf565b928280925b82841061038557858561038160405192839283526040602084015260408301906130f4565b0390f35b909192936103938583613408565b60001981019081116103e4576103dc916103c46103b26103d69361330f565b60646103bd826132ad565b0490613408565b90816103d0898b614301565b52613408565b946134d6565b92919061035c565b634e487b7160e01b84526011600452602484fd5b80fd5b50346103f85760203660031901126103f8576020906004358152601a8252604060018060a01b0391205460081c16604051908152f35b5060203660031901126103f8576104466135d3565b61045560ff601654161561334b565b338152601960205260408120549061046e82151561377c565b818152601a6020526040812054610495903360089190911c6001600160a01b031614613634565b818152601a6020526104b5600d6103476004356003604086200154613408565b8081925b6004358410610b75578293506104d1823410156136af565b82905b60043582106105105750508034116104ef575b506001905580f35b81806104fc819334613586565b335af150610508613593565b5080386104e7565b80919352601a60205261052a836003604087200154613408565b80600019810111610b6157610542906000190161330f565b606461054d826132ad565b04828652601a6020526003604087200161056781546134d6565b9055828652601b60205260408620610580838254613408565b905580610aa8575b506064610594826132ad565b049384610a31575b6105a68284613ba6565b94838752601a60205260036040882001549586600019810111610a1d57906105cd91613586565b6000848152601a602052604081206002015481905b89600d831080610a14575b15610a0b575080600052601a60205260406000206000198a01600382015411806109fc575b15610923575080919250600052601a60205260008080808660018060a01b03604083205460081c165af1610644613593565b50156108ab5780600052601b6020526004604060002001610666848254613408565b905580600052601b6020526001604060002001610684848254613408565b905560019160018101811161089557604080518581526000199a909a0160208b01526001918201908a01526060890152426080890152889786906000805160206149d88339815191529060a090a35b158061088c575b610851575b50828552601a602052604085206003810154600490910154907f00000000000000000000000000000000000000000000000000000000000000006001600160a01b03163b1561084d576040516366f0566160e11b815260048101869052602481019190915260448101919091528581606481836001600160a01b037f0000000000000000000000000000000000000000000000000000000000000000165af180156108425784918791610827575b5061082193827f430828e9e608608c6f34402a3bbf7ccff1cd71ac750c401a12c72e4578350f969252601a6020526003604089200154906107e66040519283924291846040919493926060820195825260208201520152565b0390a2828552601a60205261081c60036040872001546040519061080982613196565b85825260208201524260408201526134e5565b6134d6565b906104d4565b61083291925061316c565b61083e5782853861078d565b8480fd5b6040513d88823e3d90fd5b8680fd5b60405161088691610861826131b2565b60138252721b585d1c9a5e17db9bd7dc5d585b1a599a5959606a1b6020830152613ada565b386106df565b508015156106da565b634e487b7160e01b600052601160045260246000fd5b5050945082600052601a60205260008080808860018060a01b03604083205460081c165af16108d8613593565b50156108e757859460016106d3565b60405162461bcd60e51b815260206004820152601460248201527313585d1c9a5e081c99599d5b990819985a5b195960621b6044820152606490fd5b5460ff1661094c575b600052601a602052610946600260406000200154916134d6565b906105e2565b60018201821161089557604080518581526000198b016020820152600184019181019190915260006060820152426080820152819088906000805160206149d88339815191529060a090a386817f587d8f9cc4f7ae2f12f916b8ac03ac5414969dfaf447b84acbb1e2b171cb7eb260a0604051888152601860608060208401528201527709cdee840e2eac2d8d2ccd2cac840ccdee440dac2e8e4d2f60431b6080820152426040820152a361092c565b50600260048201541015610612565b985050506106d3565b508115156105ed565b634e487b7160e01b88526011600452602488fd5b610a7386808080897f00000000000000000000000000000000000000000000000000000000000000006001600160a01b03165af1610a6d613593565b50613730565b827fb74a7140ef81c80d0e213846b7b10b59f9c366b463e36e1f98bf00ef44c670b460408051888152426020820152a261059c565b610aea86808080857f00000000000000000000000000000000000000000000000000000000000000006001600160a01b03165af1610ae4613593565b506136ee565b828652601a60205260036040872001549081600019810111610b4d576040805191825260001992909201602082015242918101919091527fedd09f264659ce99b52fd2a2d4f09e551eb001fe3fc56ffd5704fc1f402bc21190606090a138610588565b634e487b7160e01b87526011600452602487fd5b634e487b7160e01b85526011600452602485fd5b90818352601a602052610b8f846003604086200154613408565b60001981019081116103e457610bba91610bae6103b2610bb49361330f565b90613408565b936134d6565b92906104b9565b50346103f85760203660031901126103f857610bdb6130de565b610be3613245565b610beb613245565b6001600160a01b03908116908115610c4057600154826bffffffffffffffffffffffff60a01b821617600155167f8be0079c531659141344cd1fd0a4f28419497f9722a3daafe3b4186f6b6457e0600080a380f35b604051631e4fbdf760e01b815260048101849052602490fd5b50346103f857806003193601126103f8576001546040516001600160a01b03909116158152602090f35b50346103f85760403660031901126103f857610c9d6130de565b6001600160a01b0316815260196020526040812054602490813590610cc381151561377c565b8352601a602052600360408420015490610ce2600d6103478385613408565b610ceb816142cf565b93809381935b838510610d1657868661038160405192839283526040602084015260408301906130f4565b9091929394610d258683613408565b6000198101908111610d5f57610d5691610d446103b2610d509361330f565b90816103d08a8c614301565b956134d6565b93929190610cf1565b634e487b7160e01b855260116004528385fd5b50346103f857806003193601126103f8576080610d8d614853565b600354610d986149c2565b610da460055442613586565b916040519384526020840152151560408301526060820152f35b50346103f857806003193601126103f857604051610ddb816131ce565b6101a0918236833760405192610df0846131ce565b8036853760405191610e01836131ce565b813684375b600d8110610e3d575090610e306104e094610e3b93610e286040518097613144565b850190613144565b610340830190613144565bf35b80610e4a610ea59261330f565b610e5482876144e1565b526064610e6a610e6483886144e1565b516132ad565b04610e7582886144e1565b52610e95610e8382876144e1565b51610e8e83896144e1565b5190613408565b610e9f82866144e1565b526134d6565b610e06565b50346103f857806003193601126103f8576020610ec56149c2565b6040519015158152f35b50346103f857610ede36613054565b90610ee7613245565b600d8110610ef481613271565b8215610f575715610f4357606060ff82847f01160ded273713b62692b83f3f861bfef99579eaf0440d7a22d838a3d163922e94600901556040519486865260208601524260408601521692a280f35b634e487b7160e01b83526032600452602483fd5b60405162461bcd60e51b815260206004820152600c60248201526b125b9d985b1a590818dbdcdd60a21b6044820152606490fd5b50346103f857806003193601126103f85760206040517f00000000000000000000000000000000000000000000000000000000000000008152f35b5060403660031901126103f857602435906001600160a01b03821660043581840361117957610ff36135d3565b61100260ff601654161561334b565b808284526020916019835261101b604086205415613389565b6110268415156133ca565b8015908115611163575b5061113c575b61103e6132e3565b92606461104a856132ad565b046110558186613408565b9461106286341015613415565b6018549760018901809911610a1d57926110d361112d9693869361109e858d996001998e9f8f604090826018558a815260198d5220558b61404f565b6110a788613459565b6110b26017546134d6565b601755878b52601b865260408b206110cb828254613408565b905587613807565b6110dd82866141dd565b6110e685614463565b847f19871a311455a6a311f1a6dcef0dc6478acccea5a81b0bafe39d188d098efaf384604051428152a46040519261111d84613196565b83528201524260408201526134e5565b8034116104ef57506001905580f35b507f0000000000000000000000000000000000000000000000000000000000000000611036565b855250601a8252604084205460ff161538611030565b600080fd5b50346103f85760203660031901126103f85760043561119b613245565b6007548110158061123d575b15611202577f31153501178701e5a0635ccbb27182b8b2da7df2576d99d2b5cd7ff4a2fdc564906003549080600355426005556111fc6040519283924291846040919493926060820195825260208201520152565b0390a180f35b60405162461bcd60e51b81526020600482015260136024820152725072696365206f7574206f6620626f756e647360681b6044820152606490fd5b506008548111156111a7565b50346103f857806003193601126103f8576040517f00000000000000000000000000000000000000000000000000000000000000006001600160a01b03168152602090f35b613128565b50602090816003193601126103f8576112aa6130de565b6112b26135d3565b6112c160ff601654161561334b565b6001600160a01b03168061143c5750805b80338352601984526112e8604084205415613389565b6112f33315156133ca565b8015908115611426575b506113ff575b61130b6132e3565b926064611317856132ad565b04916113238386613408565b9261133084341015613415565b60185495600187018097116113eb5792869261139f60019361112d96899a601855338a52601985528660408b205561136a8480338a61404f565b61137387613459565b61137e6017546134d6565b601755868a52601b855260408a20611397828254613408565b905586613807565b6113a981856141dd565b6113b284614463565b604051428152847f19871a311455a6a311f1a6dcef0dc6478acccea5a81b0bafe39d188d098efaf3843393a46040519261111d84613196565b634e487b7160e01b86526011600452602486fd5b507f0000000000000000000000000000000000000000000000000000000000000000611303565b835250601a8352604082205460ff1615386112fd565b81526019825260408120546112d2565b50346103f85760203660031901126103f8576020906040906001600160a01b036114746130de565b1681526019835220541515604051908152f35b50346103f857806003193601126103f8576020601754604051908152f35b50346103f857806003193601126103f8576114be613245565b60165460ff8116156115005760ff19166016556040514281527f107553d8191d85b405879cf752997865edd48d94e20bda4dd27223c94b31a7cc60203392a280f35b60405162461bcd60e51b815260206004820152600a602482015269139bdd081c185d5cd95960b21b6044820152606490fd5b50346103f857806003193601126103f857602060405160028152f35b50346103f857806003193601126103f857602060405160648152f35b50346103f857806003193601126103f8576040517f00000000000000000000000000000000000000000000000000000000000000006001600160a01b03168152602090f35b50346103f857806003193601126103f8576115c86145b5565b916115ef6040959295519586958652602092838701526080604087015260808601906130f4565b9084820360608601528080855193848152019401925b82811061161457505050500390f35b83516001600160a01b031685528695509381019392810192600101611605565b50346103f857806003193601126103f8576001546040516001600160a01b039091168152602090f35b50346103f85760203660031901126103f8576020906040906001600160a01b036116856130de565b168152601983522054604051908152f35b50346103f85760203660031901126103f85760406020916004358152601d83522054604051908152f35b50346103f85760203660031901126103f8576004358015158091036117295760407fff35ad813afce2410ae4c6035f1b3e69c6bb092be9b83fbed11d38074a5623bb9161170b613245565b60ff196006541660ff8216176006558151908152426020820152a180f35b5080fd5b50346103f85761173c36613054565b906117456135d3565b801515806118ca575b611757906135f6565b8083526020601a815260018060a01b0361177b81604087205460081c163314613634565b828552601b8252604080862060018101549054601a855282882054925163c7403e1d60e01b815260048101879052602481018890527f000000000000000000000000000000000000000000000000000000000000000060448201526064810192909252608482015260089190911c82166001600160a01b031660a4820152908290829081888160c481015b03927f0000000000000000000000000000000000000000000000000000000000000000165af19081156118bf578591611872575b506040907fb64f1f8f03ee84ec0cfb24d1299d6ce9ef6d58ea0787053de092ec3f8b14255c9282519182524290820152a36001815580f35b90508181813d83116118b8575b6118898183613223565b8101031261117957517fb64f1f8f03ee84ec0cfb24d1299d6ce9ef6d58ea0787053de092ec3f8b14255c61183a565b503d61187f565b6040513d87823e3d90fd5b50808352601a602052604083205460ff1661174e565b50346103f85760203660031901126103f857600435600d8110156117295760209060090154604051908152f35b50346103f857806003193601126103f8576101006119296144f2565b95604095919594929451978852602088015260408701526060860152608085015260a084015260c083015260e0820152f35b50346103f857806003193601126103f8576020600754604051908152f35b50346103f85760203660031901126103f8576119a260043561199d600d8210613271565b61330f565b60646119ad826132ad565b04906103816119bc8383613408565b604051938493846040919493926060820195825260208201520152565b50346103f857806003193601126103f8576002546040516001600160a01b039091168152602090f35b50346103f85760203660031901126103f857611a1c6130de565b611a24613245565b6001600160a01b0316611a388115156133ca565b806bffffffffffffffffffffffff60a01b60025416176002557fbb8d41c9907e8134230337c55faebd82117f5d9b99da1ac1667fa3fe7786b4656020604051428152a280f35b50346103f857806003193601126103f857611a97613245565b600060015460018060a01b03811690817f656ba3c6830b11142778bbcfaff90d2ecc89186277667c2ce8700e4697ddccc26020604051428152a2611ad9613245565b6001600160a01b0319166001557f8be0079c531659141344cd1fd0a4f28419497f9722a3daafe3b4186f6b6457e08280a380f35b50346103f85760203660031901126103f857600435611b2a613245565b8015801580611bce575b15611b9657620151809081830291838304141715611b8257600455604080519182524260208301527f906b7c716abe77ce683d8fb36d3428d70d84ae296249efe4691b95ebe3242a8891a180f35b634e487b7160e01b83526011600452602483fd5b60405162461bcd60e51b815260206004820152601060248201526f125b9d985b1a59081a5b9d195c9d985b60821b6044820152606490fd5b5061016d821115611b34565b50346103f8576020806003193601126117295760043590611bf96135d3565b33835260198152604083205490611c1182151561377c565b818452601b8152604080852060018101549054601a845282872054925163c7403e1d60e01b815260048101869052602481018790527f000000000000000000000000000000000000000000000000000000000000000060448201526064810192909252608482015260089190911c6001600160a01b0390811660a48301528290829081888160c48101611806565b50346103f857806003193601126103f857602047604051908152f35b50346103f857806003193601126103f857611cd4613245565b478015611d395760015482918291829182916001600160a01b03165af1611cf9613593565b5015611d025780f35b60405162461bcd60e51b815260206004820152600f60248201526e151c985b9cd9995c8819985a5b1959608a1b6044820152606490fd5b60405162461bcd60e51b8152602060048201526011602482015270273790212721103a37903932b1b7bb32b960791b6044820152606490fd5b50346103f857806003193601126103f857602060405160018152f35b50346103f857806003193601126103f8576020600554604051908152f35b61306a565b50346103f85760203660031901126103f857604060a0916004358152601b60205220805490600181015490600281015460046003830154920154926040519485526020850152604084015260608301526080820152f35b50346103f857806003193601126103f8576020600454604051908152f35b50346103f857806003193601126103f857611e3f6146ce565b60405190939092835b60048310611e705761018085610e3b88611e6560808401896130b4565b6101008301906130b4565b600190825181526020809101920192019190611e48565b50346103f857806003193601126103f857602060ff601654166040519015158152f35b50346103f85760603660031901126103f857604435906004358152601c602052604081206024358252602052604081209081548310156103f8576020611ef08484613086565b90546040519160031b1c8152f35b50346103f857806003193601126103f8576020600354604051908152f35b50346103f85760203660031901126103f8576040610100916004358152601a602052208054906001810154906002810154600382015460048301549160066005850154940154946040519660ff81161515885260018060a01b039060081c16602088015260408701526060860152608085015260a084015260c083015260e0820152f35b50346103f857806003193601126103f8576020611fbb614853565b604051908152f35b50346103f857806003193601126103f857611fdc613245565b600354604051630504e47360e41b8152602091908281600481305afa84918161217c575b506120ac57506001918360033d1161209c575b6308c379a014612033575b50506120275780f35b604051903d90823e3d90fd5b61203b614953565b9081612048575b5061201e565b7ff8917a6ec5e05f17a23c4cc821ca4e4c6d52fab4dcb57f8667d6d078775b836f92935090612087918594604051938493606085526060850190613a78565b918301524260408301520390a1388080612042565b50600484803e835160e01c612013565b9160075483101580612170575b1561210b5750817f2f363fd6fef1150caee78effeb98f6b9e03526dac46804b86a5f5f23909e840d92600355426005556111fc6040519283924291846040919493926060820195825260208201520152565b6040516060808252601390820152725072696365206f7574206f6620626f756e647360681b60808201527ff8917a6ec5e05f17a23c4cc821ca4e4c6d52fab4dcb57f8667d6d078775b836f93509182919060a08301918301524260408301520390a180f35b506008548311156120b9565b9091508381813d83116121a4575b6121948183613223565b8101031261117957519038612000565b503d61218a565b50346103f857806003193601126103f85760c06121c661455d565b93604093919351958652602086015260408501526060840152608083015260a0820152f35b506121f536613054565b6122009291926135d3565b61220f60ff601654161561334b565b82151580612884575b612224909391936135f6565b808252601a602052604082205461224b903360089190911c6001600160a01b031614613634565b808252601a602052612269600d610347856003604087200154613408565b819082935b80851061284457839450612284833410156136af565b83915b8183106122a0575050508034116104ef57506001905580f35b8091929452601a6020526122bb846003604088200154613408565b806000198101116113eb576122d3906000190161330f565b60646122de826132ad565b04828752601a602052600360408820016122f881546134d6565b9055828752601b60205260408720612311838254613408565b9055806127a5575b506064612325826132ad565b049485612734575b6123378284613ba6565b95838852601a60205260036040892001549687600019810111612720579061235e91613586565b6000848152601a602052604081206002015481905b8a600d831080612717575b1561270e575080600052601a60205260406000206000198b01600382015411806126ff575b15612626575080919250600052601a60205260008080808660018060a01b03604083205460081c165af16123d5613593565b50156125ea5780600052601b60205260046040600020016123f7848254613408565b905580600052601b6020526001604060002001612415848254613408565b905560019160018101811161089557604080518581526000199b909b0160208c01526001918201908b015260608a01524260808a0152899886906000805160206149d88339815191529060a090a35b15806125e1575b6125cb575b50828652601a602052604086206003810154600490910154907f00000000000000000000000000000000000000000000000000000000000000006001600160a01b03163b156125c7576040516366f0566160e11b815260048101869052602481019190915260448101919091528681606481836001600160a01b037f0000000000000000000000000000000000000000000000000000000000000000165af180156125bc57849188916125a1575b5061259a93827f430828e9e608608c6f34402a3bbf7ccff1cd71ac750c401a12c72e4578350f969252601a602052600360408a200154906125776040519283924291846040919493926060820195825260208201520152565b0390a2828652601a60205261081c60036040882001546040519061080982613196565b9190612287565b6125ac91925061316c565b6125b85782863861251e565b8580fd5b6040513d89823e3d90fd5b8780fd5b6040516125db91610861826131b2565b38612470565b5080151561246b565b5050955082600052601a60205260008080808960018060a01b03604083205460081c165af1612617613593565b50156108e75786956001612464565b5460ff1661264f575b600052601a602052612649600260406000200154916134d6565b90612373565b60018201821161089557604080518581526000198c016020820152600184019181019190915260006060820152426080820152819088906000805160206149d88339815191529060a090a386817f587d8f9cc4f7ae2f12f916b8ac03ac5414969dfaf447b84acbb1e2b171cb7eb260a0604051888152601860608060208401528201527709cdee840e2eac2d8d2ccd2cac840ccdee440dac2e8e4d2f60431b6080820152426040820152a361262f565b506002600482015410156123a3565b99505050612464565b5081151561237e565b634e487b7160e01b89526011600452602489fd5b612770878080808a7f00000000000000000000000000000000000000000000000000000000000000006001600160a01b03165af1610a6d613593565b827fb74a7140ef81c80d0e213846b7b10b59f9c366b463e36e1f98bf00ef44c670b460408051898152426020820152a261232d565b6127e187808080857f00000000000000000000000000000000000000000000000000000000000000006001600160a01b03165af1610ae4613593565b828752601a60205260036040882001549081600019810111610a1d576040805191825260001992909201602082015242918101919091527fedd09f264659ce99b52fd2a2d4f09e551eb001fe3fc56ffd5704fc1f402bc21190606090a138612319565b91818452601a60205261285e856003604087200154613408565b6000198101908111610b615761287d91610bae6103b26103d69361330f565b939161226e565b50828252601a602052604082205460ff16612218565b50346103f857806003193601126103f8576128b3613245565b60165460ff81166128f85760019060ff1916176016556040514281527f80170b5fcdd2bf1e0660ef4b8851f86685f64d41b1a19de1471947ece8725aac60203392a280f35b60405162461bcd60e51b815260206004820152600e60248201526d105b1c9958591e481c185d5cd95960921b6044820152606490fd5b50346103f857806003193601126103f857612947613245565b7f000000000000000000000000000000000000000000000000000000000000000090818152601a602052600d600360408320015403612afb577f00000000000000000000000000000000000000000000000000000000000000006001600160a01b0316803b1561172957604051926366f0566160e11b90818552806004860152600a6024860152836044860152838560648183875af18015612af057612adc575b839450823b15612aaf57604051828152816004820152600b6024820152846044820152848160648183885af19081156118bf578591612ac8575b5050823b15612aaf57604051828152816004820152600c6024820152846044820152848160648183885af19081156118bf578591612ab4575b5050823b15612aaf576064849283604051958694859384526004840152600d60248401528160448401525af18015612aa457612a945750f35b612a9d9061316c565b6103f85780f35b6040513d84823e3d90fd5b505050fd5b612abd9061316c565b612aaf578338612a5b565b612ad19061316c565b612aaf578338612a22565b929093612ae89061316c565b9183906129e8565b6040513d86823e3d90fd5b60405162461bcd60e51b8152602060048201526015602482015274149bdbdd081b9bdd08185d081b585e081b195d995b605a1b6044820152606490fd5b50346103f857806003193601126103f857602060ff600654166040519015158152f35b50346103f857806003193601126103f857612b746132e3565b6064612b7f826132ad565b04610381612b8d8284613408565b91604051938493846040919493926060820195825260208201520152565b50346103f85760203660031901126103f8576020611fbb60043561330f565b50346103f85760203660031901126103f85760406020916004358152601e83522054604051908152f35b50346103f85760403660031901126103f8576004359060ff821680830361172957602492833590612c23613245565b612c2f600d8410613271565b8115612e5757670de0b6b3a76400008210612e1b5769152d02c7e14af68000008211612dd75782612d6b575b600c8310612cca575b600d811015612cb65760090180549082905560408051918252602082019290925242918101919091527f01160ded273713b62692b83f3f861bfef99579eaf0440d7a22d838a3d163922e90606090a280f35b5050634e487b7160e01b8252506032600452fd5b612cd3816137b9565b600d811015612d58576009015482108015612d3b575b612c645760405162461bcd60e51b8152602060048201526021818701527f436f7374206d757374206265206c657373207468616e206e657874206c6576656044820152601b60fa1b6064820152608490fd5b50612d45816137b9565b600d811015612d58576009015415612ce9565b634e487b7160e01b855260326004528585fd5b600019830160ff8111612dc457600d1115612cb65760088301548211612c5b5760405162461bcd60e51b81526020600482015260128187015271436f7374206d75737420696e63726561736560701b6044820152606490fd5b634e487b7160e01b855260116004528585fd5b60405162461bcd60e51b815260206004820152601b818701527f4d6178696d756d20636f7374206973203130302c30303020424e4200000000006044820152606490fd5b60405162461bcd60e51b8152602060048201526015818701527426b4b734b6bab69031b7b9ba1034b990189021272160591b6044820152606490fd5b60405162461bcd60e51b81526020600482015260158187015274436f7374206d75737420626520706f73697469766560581b6044820152606490fd5b50346103f857806003193601126103f8576020600854604051908152f35b50346103f857612ec036613054565b90612ec9613245565b80151580612f59575b15612f23577f55c3a078a4dd343c06964318bde751610b3227be1c0688d1f85e0f88edd09c4f9181600755806008556111fc6040519283924291846040919493926060820195825260208201520152565b60405162461bcd60e51b815260206004820152600e60248201526d496e76616c696420626f756e647360901b6044820152606490fd5b50808211612ed2565b50346103f85760203660031901126103f8577f2f363fd6fef1150caee78effeb98f6b9e03526dac46804b86a5f5f23909e840d600435612fa0613245565b612fab8115156137cb565b60035490806003556111fc6040519283924291846040919493926060820195825260208201520152565b82346103f85760203660031901126103f857600435808252601a60205260ff6040832054161561302157602092508152601a8252604060018060a01b0391205460081c16604051908152f35b62461bcd60e51b835260206004840152600e60248401526d155cd95c881b9bdd08199bdd5b9960921b6044840152606483fd5b6040906003190112611179576004359060243590565b34611179576000366003190112611179576020604051600d8152f35b805482101561309e5760005260206000200190600090565b634e487b7160e01b600052603260045260246000fd5b6000915b600483106130c557505050565b60019082511515815260208091019201920191906130b8565b600435906001600160a01b038216820361117957565b90815180825260208080930193019160005b828110613114575050505090565b835185529381019392810192600101613106565b3461117957600036600319011261117957602060405160058152f35b6000915b600d831061315557505050565b600190825181526020809101920192019190613148565b67ffffffffffffffff811161318057604052565b634e487b7160e01b600052604160045260246000fd5b6060810190811067ffffffffffffffff82111761318057604052565b6040810190811067ffffffffffffffff82111761318057604052565b6101a0810190811067ffffffffffffffff82111761318057604052565b6020810190811067ffffffffffffffff82111761318057604052565b6080810190811067ffffffffffffffff82111761318057604052565b90601f8019910116810190811067ffffffffffffffff82111761318057604052565b6001546001600160a01b0316330361325957565b60405163118cdaa760e01b8152336004820152602490fd5b1561327857565b60405162461bcd60e51b815260206004820152600d60248201526c125b9d985b1a59081b195d995b609a1b6044820152606490fd5b9060058202918083046005149015171561089557565b81156132cd570490565b634e487b7160e01b600052601260045260246000fd5b600954670de0b6b3a7640000908181029181830414901517156108955760035461330c916132c3565b90565b600d811061331c81613271565b1561309e5760090154670de0b6b3a7640000908181029181830414901517156108955760035461330c916132c3565b1561335257565b60405162461bcd60e51b815260206004820152600f60248201526e10dbdb9d1c9858dd081c185d5cd959608a1b6044820152606490fd5b1561339057565b60405162461bcd60e51b8152602060048201526012602482015271105b1c9958591e481c9959da5cdd195c995960721b6044820152606490fd5b156133d157565b60405162461bcd60e51b815260206004820152600f60248201526e496e76616c6964206164647265737360881b6044820152606490fd5b9190820180921161089557565b1561341c57565b60405162461bcd60e51b8152602060048201526015602482015274125b9cdd59999a58da595b9d08109390881cd95b9d605a1b6044820152606490fd5b602054600160401b81101561318057600181018060205581101561309e5760206000527fc97bfaf2f8ee708c303a06d134f5ecd8389ae0432af62dc132a24118292866bb0155565b8054600160401b811015613180576134be91600182018155613086565b819291549060031b91821b91600019901b1916179055565b60001981146108955760010190565b602154600160401b81101561318057600181018060215581101561309e57604060037f3a6357012c1a3ae0a17d304c9920310382d968ebcc4b1771f41c6b304205b57292602160005202928051847f3a6357012c1a3ae0a17d304c9920310382d968ebcc4b1771f41c6b304205b570015560208101517f3a6357012c1a3ae0a17d304c9920310382d968ebcc4b1771f41c6b304205b5718501550151910155565b9190820391821161089557565b3d156135ce573d9067ffffffffffffffff821161318057604051916135c2601f8201601f191660200184613223565b82523d6000602084013e565b606090565b6002600054146135e4576002600055565b604051633ee5aeb560e01b8152600490fd5b156135fd57565b60405162461bcd60e51b815260206004820152600f60248201526e125b9d985b1a59081d5cd95c881251608a1b6044820152606490fd5b1561363b57565b60405162461bcd60e51b815260206004820152600c60248201526b155b985d5d1a1bdc9a5e995960a21b6044820152606490fd5b1561367657565b60405162461bcd60e51b8152602060048201526011602482015270115e18d959591cc81b585e081b195d995b607a1b6044820152606490fd5b156136b657565b60405162461bcd60e51b815260206004820152601060248201526f24b739bab33334b1b4b2b73a1021272160811b6044820152606490fd5b156136f557565b60405162461bcd60e51b8152602060048201526013602482015272119959481d1c985b9cd9995c8819985a5b1959606a1b6044820152606490fd5b1561373757565b60405162461bcd60e51b815260206004820152601760248201527f526f79616c7479207472616e73666572206661696c65640000000000000000006044820152606490fd5b1561378357565b60405162461bcd60e51b815260206004820152600e60248201526d139bdd081c9959da5cdd195c995960921b6044820152606490fd5b60ff60019116019060ff821161089557565b156137d257565b60405162461bcd60e51b815260206004820152600d60248201526c496e76616c696420707269636560981b6044820152606490fd5b91806139fc575b50606461381a826132ad565b048061398a575b60008381526020601a815261383f6040936001858520015495613586565b9184151580613976575b1561394057848152601a825260018060a01b038180808087858a83205460081c165af1613874613593565b50156138e157509060018483877f7f31b11e95a87830bd41893a2c8bb6991e584f4e5082cedeeffd2b1ca1bb76c597969552601b84526002828220016138bb868254613408565b9055878152601b845220016138d1838254613408565b905582519182524290820152a35b565b819495509281938293978352601a88528683205460081c165af1613903613593565b501561390d575050565b60649250519062461bcd60e51b82526004820152600d60248201526c1499599d5b990819985a5b1959609a1b6044820152fd5b509250906138df9350703737afbb30b634b22fb932b332b93932b960791b90519261396a846131b2565b60118452830152613ada565b50848152601a825260ff8482205416613849565b6139c76000808080857f00000000000000000000000000000000000000000000000000000000000000006001600160a01b03165af1610a6d613593565b827fb74a7140ef81c80d0e213846b7b10b59f9c366b463e36e1f98bf00ef44c670b460408051848152426020820152a2613821565b7fedd09f264659ce99b52fd2a2d4f09e551eb001fe3fc56ffd5704fc1f402bc21190606090613a5e6000808080857f00000000000000000000000000000000000000000000000000000000000000006001600160a01b03165af1610ae4613593565b60405190815260006020820152426040820152a13861380e565b919082519283825260005b848110613aa4575050826000602080949584010152601f8019910116010190565b602081830181015184830182015201613a83565b939291613ad5906040928652606060208701526060860190613a78565b930152565b7f0000000000000000000000000000000000000000000000000000000000000000916000838152601a602052808080808660018060a01b03604083205460081c165af1613b25613593565b50613b31575b50505050565b604081857fe7392140a76258e2263a339b5bfda7575cf4a9227c701df27629fe8dd52735b19660019452601b602052600283832001613b71878254613408565b90558152601b6020522001613b87838254613408565b9055613b9a604051928392429184613ab8565b0390a138808080613b2b565b9190600090838252601a93602085815260016040908082872001549580966101f495868802881597898204148817156103e4576127109004968392855b613c4b575b50505050505061330c959650828510613c04575b505050613586565b7273706f6e736f725f6e6f5f656c696769626c6560681b613c2a849596613c4295613586565b915192613c36846131b2565b60138452830152613ada565b90388080613bfc565b60ff8416600d811080613f1b575b15613f1557613c688583613fd2565b9061ffff613c7587613f24565b16808d02908d820414851715610a1d578f8b9087936127108794049580613f0c575b15613d7457505050905086528d8952858080808460018060a01b038d83205460081c165af1613cc4613593565b50613ced575b505b84528b87528486852001549260ff809116908114610b615785019285613be3565b9a817f38a882dd38cf7baf663586c9181108323f083cc8ac7cf5287586a0d56a71f9146060613d528f88958c8f8f908e9089825289601b92838352600385822001613d39898254613408565b905552528d2001613d4b838254613408565b9055613408565b9e60ff613d5e8a6137b9565b8d51928352168d820152428c820152a338613cca565b8592939495613d89575b505050505050613ccc565b848b5281845260ff8d8c20541615613d7e57601e7f587d8f9cc4f7ae2f12f916b8ac03ac5414969dfaf447b84acbb1e2b171cb7eb294528c8b20613dce848254613408565b90556005811015613e2c57508b5190613de6826131b2565b81527f4e6f742061637469766520286e656564204c6576656c20312b290000000000008d8201525b613e1e8c51928392429184613ab8565b0390a38281898f8038613d7e565b90506008811015613e7b57508a51613e4381613196565b602281527f4e65656420322b2064697265637420726566657272616c7320666f72204c362d8d82015261098760f31b8c820152613e0e565b600a1115613ec7578a51613e8e81613196565b602381527f4e65656420332b2064697265637420726566657272616c7320666f72204c392d8d8201526204c31360ec1b8c820152613e0e565b8a51613ed281613196565b602481527f4e65656420352b2064697265637420726566657272616c7320666f72204c31318d820152632d4c313360e01b8c820152613e0e565b50851515613c97565b50613be8565b50811515613c59565b60ff168015613fcc5760018114613fc65760028114613fc05760038114613fba5760048114613fba5760058114613fb45760068114613fae5760078114613fa85760088114613fa25760098114613f9c57600a8114613f9657600b8114613f9657600c14613f9157600090565b600a90565b50600a90565b50600f90565b50601490565b50601990565b50601e90565b50602890565b50603290565b50603c90565b50605090565b50606490565b600052601a60205260406000209060ff825416158015614041575b61403a5760ff166005811015614004575050600190565b600881101561401a575060046002910154101590565b600a111561402e5760046003910154101590565b60046005910154101590565b5050600090565b506001600383015410613fed565b919092604091825161010081019067ffffffffffffffff918181108382111761318057601a94600691875260018352876020998a928386019160018060a01b03168252898601908882526060870190815260808701916001835260a088019360009b8c9788875260c08b019789895260e08c0199428b5252528c8c20985115159060ff8a5491610100600160a81b03905160081b169216906affffffffffffffffffffff60a81b16171788555160018801555160028701555160038601555160048501555160058401555191015583519060a0820190828210908211176141c9578452828152600486820184815285830185815260608401908682526080850192878452898852601b8b528888209551865551600186015551600285015551600384015551910155801515806141bf575b61418c575b5050505050565b6141b59481601f928452601a82526004858520016141aa81546134d6565b9055835252206134a1565b3880808080614185565b5083811415614180565b634e487b7160e01b84526041600452602484fd5b600090815b600d8310806142ae575b156142a557506141fb83614315565b928361422257600052601a60205261421b600160406000200154926134d6565b91926141e2565b5090505b811561427d575b81600052601c6020526040600020600080526020526142508160406000206134a1565b600052601a60205280600260406000200155600052601d602052604060002061427981546134d6565b9055565b7f0000000000000000000000000000000000000000000000000000000000000000915061422d565b92509050614226565b508315156141ec565b67ffffffffffffffff81116131805760051b60200190565b906142d9826142b7565b6142e66040519182613223565b82815280926142f7601f19916142b7565b0190602036910137565b805182101561309e5760209160051b010190565b6040908151610ca0810181811067ffffffffffffffff821117613180578352606491828252602090818301610c80368237600094600195869386511561309e578793526000925b61436e575b5050505050505050600090565b8381108061445a575b156144555761439961439261438b836134d6565b9288614301565b51936134d6565b9280600052601c908187528960002060008052875260028a6000205410614448578891906000835b6143ce575b50505061435c565b816000528289528b6000206000805289528b89816000205483108061443f575b15614438579861441a83614432949387610e9f9d88600052528d81600020906000805252600020613086565b9a9054614426836134d6565b9b60031b1c918d614301565b836143c1565b50506143c6565b50878a106143ee565b9850505050505050505090565b614361565b50818310614377565b6000908152601a602090808252600192604091848383200154938583905b61448f575b50505050505050565b851515806144d7575b156144d25785879685528383526005868620016144b581546134d6565b905584528282526144cb868686200154916134d6565b9095614481565b614486565b5060648110614498565b90600d81101561309e5760051b0190565b600033815260196020526040812054801561454e57808252601a602052604080832092601b6020522090600383015493600584015493600160048201549401549260018201549260066002840154930154919796959493929190565b50908180918180918180918190565b6000903382526019602052604082205480156145aa578252601b6020526040822080549260018201549360028301549360406004600386015495015493601e602052205491959493929190565b508180918180918190565b6000903382526020601981526040808420548015614686578452601a808352818520926004600585015494015493601f82528387209084518083858295549384815201908b52858b20928b5b878282106146705750505061461892500383613223565b819561462483516142cf565b96895b8451811015614663578061463e61465e9287614301565b518c52878752888c205460081c6001600160a01b0316610e9f828c614301565b614627565b5096955096935096505050565b8554845260019586019588955093019201614601565b508051929150614695836131eb565b83835251906146a3826131eb565b8382528336813783929190565b5190811515820361117957565b90600481101561309e5760051b0190565b60408051916146dc83613207565b6080368437828251916146ee83613207565b60803684378351839161470082613207565b60803683378190600095338752602093601985528888205496871561482e5750507f00000000000000000000000000000000000000000000000000000000000000006001600160a01b0316979050865b60049081811015614822578251632075d10760e21b81529182018890526024820181905260609182816044818e5afa928315614818578a918b918c956147c4575b50506147bf936147a184896146bd565b90151590526147b0838a6146bd565b9015159052610e9f828d6146bd565b614750565b92509293505081813d8311614811575b6147de8183613223565b8101031261480d5790816147bf9251614803856147fc8a85016146b0565b93016146b0565b9091909338614791565b8880fd5b503d6147d4565b84513d8c823e3d90fd5b50505093509350509250565b995090975095509350505050565b519069ffffffffffffffffffff8216820361117957565b600254604051633fabe5a360e21b81529060a090829060049082906001600160a01b03165afa8060009283926148fd575b5061489157505060035490565b6148aa610e10916148a4600085136137cb565b42613586565b10156148ca576402540be400908181029181830414901517156108955790565b60405162461bcd60e51b815260206004820152600b60248201526a5374616c6520707269636560a81b6044820152606490fd5b9290915060a0833d821161494b575b8161491960a09383613223565b810103126103f8575061492b8261483c565b50602082015161494260806060850151940161483c565b50919038614884565b3d915061490c565b600060443d1061330c57604051600319913d83016004833e815167ffffffffffffffff918282113d6024840111176149b1578184019485519384116149b9573d850101602084870101116149b1575061330c92910160200190613223565b949350505050565b50949350505050565b6149d160055460045490613408565b4210159056fefb0ece953ea45e221eab304ac93d016d67c4ff3f6d5ce3d2fb6db7d2043b46fca2646970667358221220928b78360e9f4be34c7758fdd9d7a93e7379f12f8d259956945fd5d821e247ab64736f6c634300081400338be0079c531659141344cd1fd0a4f28419497f9722a3daafe3b4186f6b6457e0","opcodes":"PUSH2 0x100 CALLVALUE PUSH3 0x661 JUMPI PUSH1 0x1F PUSH3 0x50C9 CODESIZE DUP2 SWAP1 SUB SWAP2 DUP3 ADD PUSH1 0x1F NOT AND DUP4 ADD SWAP2 PUSH1 0x1 PUSH1 0x1 PUSH1 0x40 SHL SUB DUP4 GT DUP5 DUP5 LT OR PUSH3 0x4D3 JUMPI DUP1 DUP5 SWAP3 PUSH1 0xA0 SWAP5 PUSH1 0x40 MSTORE DUP4 CODECOPY DUP2 ADD SUB SLT PUSH3 0x661 JUMPI PUSH3 0x4E DUP2 PUSH3 0x666 JUMP JUMPDEST SWAP1 PUSH3 0x5D PUSH1 0x20 DUP3 ADD PUSH3 0x666 JUMP JUMPDEST PUSH3 0x6B PUSH1 0x40 DUP4 ADD PUSH3 0x666 JUMP JUMPDEST SWAP3 PUSH3 0x7F PUSH1 0x80 PUSH1 0x60 DUP6 ADD MLOAD SWAP5 ADD PUSH3 0x666 JUMP JUMPDEST SWAP4 PUSH1 0x1 PUSH1 0x0 SSTORE CALLER ISZERO PUSH3 0x648 JUMPI PUSH1 0x1 DUP1 SLOAD CALLER PUSH1 0x1 PUSH1 0x1 PUSH1 0xA0 SHL SUB NOT DUP3 AND DUP2 OR SWAP1 SWAP3 SSTORE PUSH1 0x1 PUSH1 0x1 PUSH1 0xA0 SHL SUB AND PUSH1 0x0 DUP1 MLOAD PUSH1 0x20 PUSH3 0x50A9 DUP4 CODECOPY DUP2 MLOAD SWAP2 MSTORE PUSH1 0x0 DUP1 LOG3 PUSH9 0x30F3A473B371BC0000 PUSH1 0x3 SSTORE PUSH3 0x93A80 PUSH1 0x4 SSTORE PUSH1 0x6 DUP1 SLOAD PUSH1 0xFF NOT AND PUSH1 0x1 OR SWAP1 SSTORE PUSH8 0xDE0B6B3A7640000 PUSH1 0x7 SSTORE PUSH10 0x152D02C7E14AF6800000 PUSH1 0x8 SSTORE PUSH1 0x40 MLOAD SWAP3 PUSH1 0x1 PUSH1 0x1 PUSH1 0x40 SHL SUB PUSH2 0x1A0 DUP6 ADD SWAP1 DUP2 GT SWAP1 DUP6 GT OR PUSH3 0x4D3 JUMPI PUSH2 0x1A0 DUP5 ADD PUSH1 0x40 MSTORE PUSH8 0x4563918244F40000 DUP1 DUP6 MSTORE PUSH1 0x20 DUP6 ADD MSTORE PUSH8 0x8AC7230489E80000 PUSH1 0x40 DUP6 ADD MSTORE PUSH9 0x1158E460913D00000 PUSH1 0x60 DUP6 ADD MSTORE PUSH9 0x22B1C8C1227A00000 PUSH1 0x80 DUP6 ADD MSTORE PUSH9 0x4563918244F400000 PUSH1 0xA0 DUP6 ADD MSTORE PUSH9 0x8AC7230489E800000 PUSH1 0xC0 DUP6 ADD MSTORE PUSH9 0x1158E460913D000000 PUSH1 0xE0 DUP6 ADD MSTORE PUSH2 0x100 SWAP4 PUSH9 0x22B1C8C1227A000000 DUP6 DUP3 ADD MSTORE PUSH9 0x4563918244F4000000 PUSH2 0x120 DUP3 ADD MSTORE PUSH9 0x8AC7230489E8000000 PUSH2 0x140 DUP3 ADD MSTORE PUSH10 0x1158E460913D0000000 PUSH2 0x160 DUP3 ADD MSTORE PUSH10 0x22B1C8C1227A0000000 PUSH2 0x180 DUP3 ADD MSTORE PUSH1 0x0 JUMPDEST PUSH1 0xD DUP2 LT PUSH3 0x629 JUMPI POP POP PUSH1 0x1 PUSH1 0x1 PUSH1 0xA0 SHL SUB DUP4 AND ISZERO PUSH3 0x5E4 JUMPI PUSH1 0x1 PUSH1 0x1 PUSH1 0xA0 SHL SUB AND SWAP1 DUP2 ISZERO PUSH3 0x5AD JUMPI PUSH1 0x1 PUSH1 0x1 PUSH1 0xA0 SHL SUB AND SWAP5 DUP6 ISZERO PUSH3 0x568 JUMPI DUP5 ISZERO PUSH3 0x523 JUMPI PUSH1 0x1 PUSH1 0x1 PUSH1 0xA0 SHL SUB AND SWAP2 DUP3 ISZERO PUSH3 0x4E9 JUMPI PUSH1 0x80 MSTORE PUSH1 0xA0 MSTORE DUP3 PUSH1 0xC0 MSTORE TIMESTAMP PUSH1 0xE0 MSTORE PUSH1 0x1 DUP1 PUSH1 0xA0 SHL SUB NOT PUSH1 0x2 SLOAD AND OR PUSH1 0x2 SSTORE TIMESTAMP PUSH1 0x5 SSTORE DUP2 PUSH1 0x18 SSTORE DUP3 PUSH1 0x0 MSTORE PUSH1 0x19 PUSH1 0x20 MSTORE DUP2 PUSH1 0x40 PUSH1 0x0 KECCAK256 SSTORE PUSH1 0x40 MLOAD SWAP1 DUP2 ADD DUP2 DUP2 LT PUSH1 0x1 DUP1 PUSH1 0x40 SHL SUB DUP3 GT OR PUSH3 0x4D3 JUMPI PUSH1 0x40 MSTORE PUSH1 0x1 DUP2 MSTORE PUSH1 0x6 PUSH1 0x20 DUP3 ADD DUP5 DUP2 MSTORE PUSH1 0x40 DUP4 ADD DUP5 DUP2 MSTORE PUSH1 0x60 DUP5 ADD DUP6 DUP2 MSTORE PUSH1 0x80 DUP6 ADD PUSH1 0xD DUP2 MSTORE PUSH1 0xA0 DUP7 ADD SWAP2 PUSH1 0x0 DUP4 MSTORE PUSH1 0xC0 DUP8 ADD SWAP4 PUSH1 0x0 DUP6 MSTORE PUSH1 0xE0 DUP9 ADD SWAP6 TIMESTAMP DUP8 MSTORE DUP10 PUSH1 0x0 MSTORE PUSH1 0x1A PUSH1 0x20 MSTORE PUSH1 0x40 PUSH1 0x0 KECCAK256 SWAP9 MLOAD ISZERO ISZERO SWAP1 PUSH1 0xFF DUP11 SLOAD SWAP2 PUSH2 0x100 PUSH1 0x1 PUSH1 0xA8 SHL SUB SWAP1 MLOAD PUSH1 0x8 SHL AND SWAP3 AND SWAP1 PUSH1 0x1 DUP1 PUSH1 0xA8 SHL SUB NOT AND OR OR DUP9 SSTORE MLOAD PUSH1 0x1 DUP9 ADD SSTORE MLOAD PUSH1 0x2 DUP8 ADD SSTORE MLOAD PUSH1 0x3 DUP7 ADD SSTORE MLOAD PUSH1 0x4 DUP6 ADD SSTORE MLOAD PUSH1 0x5 DUP5 ADD SSTORE MLOAD SWAP2 ADD SSTORE PUSH1 0x40 MLOAD SWAP1 PUSH1 0xA0 DUP3 ADD SWAP1 DUP3 DUP3 LT PUSH1 0x1 DUP1 PUSH1 0x40 SHL SUB DUP4 GT OR PUSH3 0x4D3 JUMPI PUSH1 0x4 SWAP2 PUSH1 0x40 MSTORE PUSH1 0x0 DUP4 MSTORE PUSH1 0x20 DUP4 ADD PUSH1 0x0 DUP2 MSTORE PUSH1 0x40 DUP5 ADD PUSH1 0x0 DUP2 MSTORE PUSH1 0x60 DUP6 ADD SWAP2 PUSH1 0x0 DUP4 MSTORE PUSH1 0x80 DUP7 ADD SWAP4 PUSH1 0x0 DUP6 MSTORE PUSH1 0x0 MSTORE PUSH1 0x1B PUSH1 0x20 MSTORE PUSH1 0x40 PUSH1 0x0 KECCAK256 SWAP6 MLOAD DUP7 SSTORE MLOAD PUSH1 0x1 DUP7 ADD SSTORE MLOAD PUSH1 0x2 DUP6 ADD SSTORE MLOAD PUSH1 0x3 DUP5 ADD SSTORE MLOAD SWAP2 ADD SSTORE PUSH1 0xC0 MLOAD PUSH1 0x20 SLOAD PUSH9 0x10000000000000000 DUP2 LT ISZERO PUSH3 0x4D3 JUMPI PUSH1 0x1 DUP2 ADD DUP1 PUSH1 0x20 SSTORE DUP2 LT ISZERO PUSH3 0x4BD JUMPI DUP2 SWAP1 PUSH1 0x20 PUSH1 0x0 MSTORE PUSH1 0x20 PUSH1 0x0 KECCAK256 ADD SSTORE PUSH1 0x1 PUSH1 0x17 SSTORE PUSH32 0xCCF9E170264F78923037F9D4F09C5EB756FCB20F871F02DCEDB45F500D77B988 PUSH1 0x20 PUSH1 0x40 MLOAD TIMESTAMP DUP2 MSTORE LOG3 PUSH1 0x40 MLOAD CALLER PUSH1 0x0 PUSH1 0x0 DUP1 MLOAD PUSH1 0x20 PUSH3 0x50A9 DUP4 CODECOPY DUP2 MLOAD SWAP2 MSTORE DUP2 DUP1 LOG3 PUSH2 0x4A2D SWAP1 DUP2 PUSH3 0x67C DUP3 CODECOPY PUSH1 0x80 MLOAD DUP2 DUP2 DUP2 PUSH2 0xAB2 ADD MSTORE DUP2 DUP2 PUSH2 0x125F ADD MSTORE DUP2 DUP2 PUSH2 0x27AF ADD MSTORE PUSH2 0x3A2C ADD MSTORE PUSH1 0xA0 MLOAD DUP2 DUP2 DUP2 PUSH2 0x6FA ADD MSTORE DUP2 DUP2 PUSH2 0x75C ADD MSTORE DUP2 DUP2 PUSH2 0xA3B ADD MSTORE DUP2 DUP2 PUSH2 0x1580 ADD MSTORE DUP2 DUP2 PUSH2 0x180A ADD MSTORE DUP2 DUP2 PUSH2 0x248B ADD MSTORE DUP2 DUP2 PUSH2 0x24ED ADD MSTORE DUP2 DUP2 PUSH2 0x273E ADD MSTORE DUP2 DUP2 PUSH2 0x2982 ADD MSTORE DUP2 DUP2 PUSH2 0x3995 ADD MSTORE PUSH2 0x4723 ADD MSTORE PUSH1 0xC0 MLOAD DUP2 DUP2 DUP2 PUSH2 0x113F ADD MSTORE DUP2 DUP2 PUSH2 0x1402 ADD MSTORE DUP2 DUP2 PUSH2 0x17B2 ADD MSTORE DUP2 DUP2 PUSH2 0x1C48 ADD MSTORE DUP2 DUP2 PUSH2 0x2949 ADD MSTORE DUP2 DUP2 PUSH2 0x3ADC ADD MSTORE PUSH2 0x427F ADD MSTORE PUSH1 0xE0 MLOAD DUP2 PUSH2 0xFA3 ADD MSTORE RETURN JUMPDEST PUSH4 0x4E487B71 PUSH1 0xE0 SHL PUSH1 0x0 MSTORE PUSH1 0x32 PUSH1 0x4 MSTORE PUSH1 0x24 PUSH1 0x0 REVERT JUMPDEST PUSH4 0x4E487B71 PUSH1 0xE0 SHL PUSH1 0x0 MSTORE PUSH1 0x41 PUSH1 0x4 MSTORE PUSH1 0x24 PUSH1 0x0 REVERT JUMPDEST PUSH1 0x40 MLOAD PUSH3 0x461BCD PUSH1 0xE5 SHL DUP2 MSTORE PUSH1 0x20 PUSH1 0x4 DUP3 ADD MSTORE PUSH1 0x12 PUSH1 0x24 DUP3 ADD MSTORE PUSH18 0x125B9D985B1A59081C1C9A58D94819995959 PUSH1 0x72 SHL PUSH1 0x44 DUP3 ADD MSTORE PUSH1 0x64 SWAP1 REVERT JUMPDEST PUSH1 0x40 MLOAD PUSH3 0x461BCD PUSH1 0xE5 SHL DUP2 MSTORE PUSH1 0x20 PUSH1 0x4 DUP3 ADD MSTORE PUSH1 0x14 PUSH1 0x24 DUP3 ADD MSTORE PUSH32 0x496E76616C696420726F6F742075736572204944000000000000000000000000 PUSH1 0x44 DUP3 ADD MSTORE PUSH1 0x64 SWAP1 REVERT JUMPDEST PUSH1 0x40 MLOAD PUSH3 0x461BCD PUSH1 0xE5 SHL DUP2 MSTORE PUSH1 0x20 PUSH1 0x4 DUP3 ADD MSTORE PUSH1 0x14 PUSH1 0x24 DUP3 ADD MSTORE PUSH32 0x496E76616C696420726F6F742061646472657373000000000000000000000000 PUSH1 0x44 DUP3 ADD MSTORE PUSH1 0x64 SWAP1 REVERT JUMPDEST PUSH1 0x40 MLOAD PUSH3 0x461BCD PUSH1 0xE5 SHL DUP2 MSTORE PUSH1 0x20 PUSH1 0x4 DUP3 ADD MSTORE PUSH1 0xF PUSH1 0x24 DUP3 ADD MSTORE PUSH15 0x496E76616C696420726F79616C7479 PUSH1 0x88 SHL PUSH1 0x44 DUP3 ADD MSTORE PUSH1 0x64 SWAP1 REVERT JUMPDEST PUSH1 0x40 MLOAD PUSH3 0x461BCD PUSH1 0xE5 SHL DUP2 MSTORE PUSH1 0x20 PUSH1 0x4 DUP3 ADD MSTORE PUSH1 0x14 PUSH1 0x24 DUP3 ADD MSTORE PUSH32 0x496E76616C696420666565207265636569766572000000000000000000000000 PUSH1 0x44 DUP3 ADD MSTORE PUSH1 0x64 SWAP1 REVERT JUMPDEST DUP2 MLOAD PUSH1 0x1 PUSH1 0x1 PUSH1 0x50 SHL SUB AND PUSH1 0x9 DUP3 ADD SSTORE PUSH1 0x20 SWAP1 SWAP2 ADD SWAP1 PUSH1 0x1 ADD PUSH3 0x1DF JUMP JUMPDEST PUSH1 0x40 MLOAD PUSH4 0x1E4FBDF7 PUSH1 0xE0 SHL DUP2 MSTORE PUSH1 0x0 PUSH1 0x4 DUP3 ADD MSTORE PUSH1 0x24 SWAP1 REVERT JUMPDEST PUSH1 0x0 DUP1 REVERT JUMPDEST MLOAD SWAP1 PUSH1 0x1 PUSH1 0x1 PUSH1 0xA0 SHL SUB DUP3 AND DUP3 SUB PUSH3 0x661 JUMPI JUMP INVALID PUSH1 0x80 DUP1 PUSH1 0x40 MSTORE PUSH1 0x4 CALLDATASIZE LT ISZERO PUSH2 0x1D JUMPI JUMPDEST POP CALLDATASIZE ISZERO PUSH2 0x1B JUMPI PUSH1 0x0 DUP1 REVERT JUMPDEST STOP JUMPDEST PUSH1 0x0 SWAP1 DUP2 CALLDATALOAD PUSH1 0xE0 SHR SWAP1 DUP2 PUSH4 0xE1BC0EE EQ PUSH2 0x2FD5 JUMPI POP DUP1 PUSH4 0x17D031A3 EQ PUSH2 0x2F62 JUMPI DUP1 PUSH4 0x19B9DFB5 EQ PUSH2 0x2EB1 JUMPI DUP1 PUSH4 0x1DAA8AE2 EQ PUSH2 0x2E93 JUMPI DUP1 PUSH4 0x21D178FB EQ PUSH2 0x2BF4 JUMPI DUP1 PUSH4 0x2233A830 EQ PUSH2 0x2BCA JUMPI DUP1 PUSH4 0x2B6E4DA0 EQ PUSH2 0x2BAB JUMPI DUP1 PUSH4 0x2D8AE549 EQ PUSH2 0x2B5B JUMPI DUP1 PUSH4 0x3586CD14 EQ PUSH2 0x2B38 JUMPI DUP1 PUSH4 0x437F6E23 EQ PUSH2 0x292E JUMPI DUP1 PUSH4 0x439766CE EQ PUSH2 0x289A JUMPI DUP1 PUSH4 0x451450EC EQ PUSH2 0x21EB JUMPI DUP1 PUSH4 0x4A429D12 EQ PUSH2 0x21AB JUMPI DUP1 PUSH4 0x4BF96A88 EQ PUSH2 0x1DAC JUMPI DUP1 PUSH4 0x4CD2B1EA EQ PUSH2 0x1FC3 JUMPI DUP1 PUSH4 0x504E4730 EQ PUSH2 0x1FA0 JUMPI DUP1 PUSH4 0x51D70BC4 EQ PUSH2 0x1F1C JUMPI DUP1 PUSH4 0x576DDE12 EQ PUSH2 0x1EFE JUMPI DUP1 PUSH4 0x5AABF7F1 EQ PUSH2 0x1EAA JUMPI DUP1 PUSH4 0x5C975ABB EQ PUSH2 0x1E87 JUMPI DUP1 PUSH4 0x5D7D6342 EQ PUSH2 0x1E26 JUMPI DUP1 PUSH4 0x5FFDE7BE EQ PUSH2 0x1E08 JUMPI DUP1 PUSH4 0x6266A380 EQ PUSH2 0x1DB1 JUMPI DUP1 PUSH4 0x6702C7BF EQ PUSH2 0x1DAC JUMPI DUP1 PUSH4 0x6949FAEB EQ PUSH2 0x1D8E JUMPI DUP1 PUSH4 0x697D2428 EQ PUSH2 0x1D72 JUMPI DUP1 PUSH4 0x6BFDF8A0 EQ PUSH2 0x1CBB JUMPI DUP1 PUSH4 0x6F9FB98A EQ PUSH2 0x1C9F JUMPI DUP1 PUSH4 0x6FA6E58A EQ PUSH2 0x1BDA JUMPI DUP1 PUSH4 0x7124C683 EQ PUSH2 0x1B0D JUMPI DUP1 PUSH4 0x715018A6 EQ PUSH2 0x1A7E JUMPI DUP1 PUSH4 0x724E78DA EQ PUSH2 0x1A02 JUMPI DUP1 PUSH4 0x741BEF1A EQ PUSH2 0x19D9 JUMPI DUP1 PUSH4 0x76ED7F0E EQ PUSH2 0x1979 JUMPI DUP1 PUSH4 0x790BD584 EQ PUSH2 0x195B JUMPI DUP1 PUSH4 0x7DAA10CE EQ PUSH2 0x190D JUMPI DUP1 PUSH4 0x7E06A01F EQ PUSH2 0x18E0 JUMPI DUP1 PUSH4 0x806D73BE EQ PUSH2 0x172D JUMPI DUP1 PUSH4 0x82EE173E EQ PUSH2 0x16C0 JUMPI DUP1 PUSH4 0x88AFBE3E EQ PUSH2 0x1696 JUMPI DUP1 PUSH4 0x8955DEFB EQ PUSH2 0x165D JUMPI DUP1 PUSH4 0x8DA5CB5B EQ PUSH2 0x1634 JUMPI DUP1 PUSH4 0x9C8C3E80 EQ PUSH2 0x15AF JUMPI DUP1 PUSH4 0x9D720652 EQ PUSH2 0x156A JUMPI DUP1 PUSH4 0xA7476DCF EQ PUSH2 0x154E JUMPI DUP1 PUSH4 0xAAFB9800 EQ PUSH2 0x1532 JUMPI DUP1 PUSH4 0xB33712C5 EQ PUSH2 0x14A5 JUMPI DUP1 PUSH4 0xBFCA1CD0 EQ PUSH2 0x128E JUMPI DUP1 PUSH4 0xBFF1F9E1 EQ PUSH2 0x1487 JUMPI DUP1 PUSH4 0xC3C5A547 EQ PUSH2 0x144C JUMPI DUP1 PUSH4 0xD0AC2596 EQ PUSH2 0x1293 JUMPI DUP1 PUSH4 0xD3D50D95 EQ PUSH2 0x128E JUMPI DUP1 PUSH4 0xD3E78E4D EQ PUSH2 0x1249 JUMPI DUP1 PUSH4 0xD7A71868 EQ PUSH2 0x117E JUMPI DUP1 PUSH4 0xDBBDF083 EQ PUSH2 0xFC6 JUMPI DUP1 PUSH4 0xDDAA26AD EQ PUSH2 0xF8B JUMPI DUP1 PUSH4 0xDFE10D44 EQ PUSH2 0xECF JUMPI DUP1 PUSH4 0xE649F378 EQ PUSH2 0xEAA JUMPI DUP1 PUSH4 0xE6BB42D8 EQ PUSH2 0xDBE JUMPI DUP1 PUSH4 0xECEF6CFF EQ PUSH2 0xD72 JUMPI DUP1 PUSH4 0xF12C860A EQ PUSH2 0xC83 JUMPI DUP1 PUSH4 0xF28D3D5E EQ PUSH2 0xC59 JUMPI DUP1 PUSH4 0xF2FDE38B EQ PUSH2 0xBC1 JUMPI DUP1 PUSH4 0xFB2DDD70 EQ PUSH2 0x431 JUMPI DUP1 PUSH4 0xFDC61181 EQ PUSH2 0x3FB JUMPI PUSH4 0xFF329E7C SUB PUSH2 0xF JUMPI CALLVALUE PUSH2 0x3F8 JUMPI PUSH1 0x20 CALLDATASIZE PUSH1 0x3 NOT ADD SLT PUSH2 0x3F8 JUMPI PUSH1 0x4 CALLDATALOAD SWAP1 CALLER DUP2 MSTORE PUSH1 0x19 PUSH1 0x20 MSTORE PUSH1 0x40 DUP2 KECCAK256 SLOAD PUSH2 0x329 DUP2 ISZERO ISZERO PUSH2 0x377C JUMP JUMPDEST DUP2 MSTORE PUSH1 0x1A PUSH1 0x20 MSTORE PUSH1 0x3 PUSH1 0x40 DUP3 KECCAK256 ADD SLOAD PUSH2 0x34E PUSH1 0xD PUSH2 0x347 DUP6 DUP5 PUSH2 0x3408 JUMP JUMPDEST GT ISZERO PUSH2 0x366F JUMP JUMPDEST PUSH2 0x357 DUP4 PUSH2 0x42CF JUMP JUMPDEST SWAP3 DUP3 DUP1 SWAP3 JUMPDEST DUP3 DUP5 LT PUSH2 0x385 JUMPI DUP6 DUP6 PUSH2 0x381 PUSH1 0x40 MLOAD SWAP3 DUP4 SWAP3 DUP4 MSTORE PUSH1 0x40 PUSH1 0x20 DUP5 ADD MSTORE PUSH1 0x40 DUP4 ADD SWAP1 PUSH2 0x30F4 JUMP JUMPDEST SUB SWAP1 RETURN JUMPDEST SWAP1 SWAP2 SWAP3 SWAP4 PUSH2 0x393 DUP6 DUP4 PUSH2 0x3408 JUMP JUMPDEST PUSH1 0x0 NOT DUP2 ADD SWAP1 DUP2 GT PUSH2 0x3E4 JUMPI PUSH2 0x3DC SWAP2 PUSH2 0x3C4 PUSH2 0x3B2 PUSH2 0x3D6 SWAP4 PUSH2 0x330F JUMP JUMPDEST PUSH1 0x64 PUSH2 0x3BD DUP3 PUSH2 0x32AD JUMP JUMPDEST DIV SWAP1 PUSH2 0x3408 JUMP JUMPDEST SWAP1 DUP2 PUSH2 0x3D0 DUP10 DUP12 PUSH2 0x4301 JUMP JUMPDEST MSTORE PUSH2 0x3408 JUMP JUMPDEST SWAP5 PUSH2 0x34D6 JUMP JUMPDEST SWAP3 SWAP2 SWAP1 PUSH2 0x35C JUMP JUMPDEST PUSH4 0x4E487B71 PUSH1 0xE0 SHL DUP5 MSTORE PUSH1 0x11 PUSH1 0x4 MSTORE PUSH1 0x24 DUP5 REVERT JUMPDEST DUP1 REVERT JUMPDEST POP CALLVALUE PUSH2 0x3F8 JUMPI PUSH1 0x20 CALLDATASIZE PUSH1 0x3 NOT ADD SLT PUSH2 0x3F8 JUMPI PUSH1 0x20 SWAP1 PUSH1 0x4 CALLDATALOAD DUP2 MSTORE PUSH1 0x1A DUP3 MSTORE PUSH1 0x40 PUSH1 0x1 DUP1 PUSH1 0xA0 SHL SUB SWAP2 KECCAK256 SLOAD PUSH1 0x8 SHR AND PUSH1 0x40 MLOAD SWAP1 DUP2 MSTORE RETURN JUMPDEST POP PUSH1 0x20 CALLDATASIZE PUSH1 0x3 NOT ADD SLT PUSH2 0x3F8 JUMPI PUSH2 0x446 PUSH2 0x35D3 JUMP JUMPDEST PUSH2 0x455 PUSH1 0xFF PUSH1 0x16 SLOAD AND ISZERO PUSH2 0x334B JUMP JUMPDEST CALLER DUP2 MSTORE PUSH1 0x19 PUSH1 0x20 MSTORE PUSH1 0x40 DUP2 KECCAK256 SLOAD SWAP1 PUSH2 0x46E DUP3 ISZERO ISZERO PUSH2 0x377C JUMP JUMPDEST DUP2 DUP2 MSTORE PUSH1 0x1A PUSH1 0x20 MSTORE PUSH1 0x40 DUP2 KECCAK256 SLOAD PUSH2 0x495 SWAP1 CALLER PUSH1 0x8 SWAP2 SWAP1 SWAP2 SHR PUSH1 0x1 PUSH1 0x1 PUSH1 0xA0 SHL SUB AND EQ PUSH2 0x3634 JUMP JUMPDEST DUP2 DUP2 MSTORE PUSH1 0x1A PUSH1 0x20 MSTORE PUSH2 0x4B5 PUSH1 0xD PUSH2 0x347 PUSH1 0x4 CALLDATALOAD PUSH1 0x3 PUSH1 0x40 DUP7 KECCAK256 ADD SLOAD PUSH2 0x3408 JUMP JUMPDEST DUP1 DUP2 SWAP3 JUMPDEST PUSH1 0x4 CALLDATALOAD DUP5 LT PUSH2 0xB75 JUMPI DUP3 SWAP4 POP PUSH2 0x4D1 DUP3 CALLVALUE LT ISZERO PUSH2 0x36AF JUMP JUMPDEST DUP3 SWAP1 JUMPDEST PUSH1 0x4 CALLDATALOAD DUP3 LT PUSH2 0x510 JUMPI POP POP DUP1 CALLVALUE GT PUSH2 0x4EF JUMPI JUMPDEST POP PUSH1 0x1 SWAP1 SSTORE DUP1 RETURN JUMPDEST DUP2 DUP1 PUSH2 0x4FC DUP2 SWAP4 CALLVALUE PUSH2 0x3586 JUMP JUMPDEST CALLER GAS CALL POP PUSH2 0x508 PUSH2 0x3593 JUMP JUMPDEST POP DUP1 CODESIZE PUSH2 0x4E7 JUMP JUMPDEST DUP1 SWAP2 SWAP4 MSTORE PUSH1 0x1A PUSH1 0x20 MSTORE PUSH2 0x52A DUP4 PUSH1 0x3 PUSH1 0x40 DUP8 KECCAK256 ADD SLOAD PUSH2 0x3408 JUMP JUMPDEST DUP1 PUSH1 0x0 NOT DUP2 ADD GT PUSH2 0xB61 JUMPI PUSH2 0x542 SWAP1 PUSH1 0x0 NOT ADD PUSH2 0x330F JUMP JUMPDEST PUSH1 0x64 PUSH2 0x54D DUP3 PUSH2 0x32AD JUMP JUMPDEST DIV DUP3 DUP7 MSTORE PUSH1 0x1A PUSH1 0x20 MSTORE PUSH1 0x3 PUSH1 0x40 DUP8 KECCAK256 ADD PUSH2 0x567 DUP2 SLOAD PUSH2 0x34D6 JUMP JUMPDEST SWAP1 SSTORE DUP3 DUP7 MSTORE PUSH1 0x1B PUSH1 0x20 MSTORE PUSH1 0x40 DUP7 KECCAK256 PUSH2 0x580 DUP4 DUP3 SLOAD PUSH2 0x3408 JUMP JUMPDEST SWAP1 SSTORE DUP1 PUSH2 0xAA8 JUMPI JUMPDEST POP PUSH1 0x64 PUSH2 0x594 DUP3 PUSH2 0x32AD JUMP JUMPDEST DIV SWAP4 DUP5 PUSH2 0xA31 JUMPI JUMPDEST PUSH2 0x5A6 DUP3 DUP5 PUSH2 0x3BA6 JUMP JUMPDEST SWAP5 DUP4 DUP8 MSTORE PUSH1 0x1A PUSH1 0x20 MSTORE PUSH1 0x3 PUSH1 0x40 DUP9 KECCAK256 ADD SLOAD SWAP6 DUP7 PUSH1 0x0 NOT DUP2 ADD GT PUSH2 0xA1D JUMPI SWAP1 PUSH2 0x5CD SWAP2 PUSH2 0x3586 JUMP JUMPDEST PUSH1 0x0 DUP5 DUP2 MSTORE PUSH1 0x1A PUSH1 0x20 MSTORE PUSH1 0x40 DUP2 KECCAK256 PUSH1 0x2 ADD SLOAD DUP2 SWAP1 JUMPDEST DUP10 PUSH1 0xD DUP4 LT DUP1 PUSH2 0xA14 JUMPI JUMPDEST ISZERO PUSH2 0xA0B JUMPI POP DUP1 PUSH1 0x0 MSTORE PUSH1 0x1A PUSH1 0x20 MSTORE PUSH1 0x40 PUSH1 0x0 KECCAK256 PUSH1 0x0 NOT DUP11 ADD PUSH1 0x3 DUP3 ADD SLOAD GT DUP1 PUSH2 0x9FC JUMPI JUMPDEST ISZERO PUSH2 0x923 JUMPI POP DUP1 SWAP2 SWAP3 POP PUSH1 0x0 MSTORE PUSH1 0x1A PUSH1 0x20 MSTORE PUSH1 0x0 DUP1 DUP1 DUP1 DUP7 PUSH1 0x1 DUP1 PUSH1 0xA0 SHL SUB PUSH1 0x40 DUP4 KECCAK256 SLOAD PUSH1 0x8 SHR AND GAS CALL PUSH2 0x644 PUSH2 0x3593 JUMP JUMPDEST POP ISZERO PUSH2 0x8AB JUMPI DUP1 PUSH1 0x0 MSTORE PUSH1 0x1B PUSH1 0x20 MSTORE PUSH1 0x4 PUSH1 0x40 PUSH1 0x0 KECCAK256 ADD PUSH2 0x666 DUP5 DUP3 SLOAD PUSH2 0x3408 JUMP JUMPDEST SWAP1 SSTORE DUP1 PUSH1 0x0 MSTORE PUSH1 0x1B PUSH1 0x20 MSTORE PUSH1 0x1 PUSH1 0x40 PUSH1 0x0 KECCAK256 ADD PUSH2 0x684 DUP5 DUP3 SLOAD PUSH2 0x3408 JUMP JUMPDEST SWAP1 SSTORE PUSH1 0x1 SWAP2 PUSH1 0x1 DUP2 ADD DUP2 GT PUSH2 0x895 JUMPI PUSH1 0x40 DUP1 MLOAD DUP6 DUP2 MSTORE PUSH1 0x0 NOT SWAP11 SWAP1 SWAP11 ADD PUSH1 0x20 DUP12 ADD MSTORE PUSH1 0x1 SWAP2 DUP3 ADD SWAP1 DUP11 ADD MSTORE PUSH1 0x60 DUP10 ADD MSTORE TIMESTAMP PUSH1 0x80 DUP10 ADD MSTORE DUP9 SWAP8 DUP7 SWAP1 PUSH1 0x0 DUP1 MLOAD PUSH1 0x20 PUSH2 0x49D8 DUP4 CODECOPY DUP2 MLOAD SWAP2 MSTORE SWAP1 PUSH1 0xA0 SWAP1 LOG3 JUMPDEST ISZERO DUP1 PUSH2 0x88C JUMPI JUMPDEST PUSH2 0x851 JUMPI JUMPDEST POP DUP3 DUP6 MSTORE PUSH1 0x1A PUSH1 0x20 MSTORE PUSH1 0x40 DUP6 KECCAK256 PUSH1 0x3 DUP2 ADD SLOAD PUSH1 0x4 SWAP1 SWAP2 ADD SLOAD SWAP1 PUSH32 0x0 PUSH1 0x1 PUSH1 0x1 PUSH1 0xA0 SHL SUB AND EXTCODESIZE ISZERO PUSH2 0x84D JUMPI PUSH1 0x40 MLOAD PUSH4 0x66F05661 PUSH1 0xE1 SHL DUP2 MSTORE PUSH1 0x4 DUP2 ADD DUP7 SWAP1 MSTORE PUSH1 0x24 DUP2 ADD SWAP2 SWAP1 SWAP2 MSTORE PUSH1 0x44 DUP2 ADD SWAP2 SWAP1 SWAP2 MSTORE DUP6 DUP2 PUSH1 0x64 DUP2 DUP4 PUSH1 0x1 PUSH1 0x1 PUSH1 0xA0 SHL SUB PUSH32 0x0 AND GAS CALL DUP1 ISZERO PUSH2 0x842 JUMPI DUP5 SWAP2 DUP8 SWAP2 PUSH2 0x827 JUMPI JUMPDEST POP PUSH2 0x821 SWAP4 DUP3 PUSH32 0x430828E9E608608C6F34402A3BBF7CCFF1CD71AC750C401A12C72E4578350F96 SWAP3 MSTORE PUSH1 0x1A PUSH1 0x20 MSTORE PUSH1 0x3 PUSH1 0x40 DUP10 KECCAK256 ADD SLOAD SWAP1 PUSH2 0x7E6 PUSH1 0x40 MLOAD SWAP3 DUP4 SWAP3 TIMESTAMP SWAP2 DUP5 PUSH1 0x40 SWAP2 SWAP5 SWAP4 SWAP3 PUSH1 0x60 DUP3 ADD SWAP6 DUP3 MSTORE PUSH1 0x20 DUP3 ADD MSTORE ADD MSTORE JUMP JUMPDEST SUB SWAP1 LOG2 DUP3 DUP6 MSTORE PUSH1 0x1A PUSH1 0x20 MSTORE PUSH2 0x81C PUSH1 0x3 PUSH1 0x40 DUP8 KECCAK256 ADD SLOAD PUSH1 0x40 MLOAD SWAP1 PUSH2 0x809 DUP3 PUSH2 0x3196 JUMP JUMPDEST DUP6 DUP3 MSTORE PUSH1 0x20 DUP3 ADD MSTORE TIMESTAMP PUSH1 0x40 DUP3 ADD MSTORE PUSH2 0x34E5 JUMP JUMPDEST PUSH2 0x34D6 JUMP JUMPDEST SWAP1 PUSH2 0x4D4 JUMP JUMPDEST PUSH2 0x832 SWAP2 SWAP3 POP PUSH2 0x316C JUMP JUMPDEST PUSH2 0x83E JUMPI DUP3 DUP6 CODESIZE PUSH2 0x78D JUMP JUMPDEST DUP5 DUP1 REVERT JUMPDEST PUSH1 0x40 MLOAD RETURNDATASIZE DUP9 DUP3 RETURNDATACOPY RETURNDATASIZE SWAP1 REVERT JUMPDEST DUP7 DUP1 REVERT JUMPDEST PUSH1 0x40 MLOAD PUSH2 0x886 SWAP2 PUSH2 0x861 DUP3 PUSH2 0x31B2 JUMP JUMPDEST PUSH1 0x13 DUP3 MSTORE PUSH19 0x1B585D1C9A5E17DB9BD7DC5D585B1A599A5959 PUSH1 0x6A SHL PUSH1 0x20 DUP4 ADD MSTORE PUSH2 0x3ADA JUMP JUMPDEST CODESIZE PUSH2 0x6DF JUMP JUMPDEST POP DUP1 ISZERO ISZERO PUSH2 0x6DA JUMP JUMPDEST PUSH4 0x4E487B71 PUSH1 0xE0 SHL PUSH1 0x0 MSTORE PUSH1 0x11 PUSH1 0x4 MSTORE PUSH1 0x24 PUSH1 0x0 REVERT JUMPDEST POP POP SWAP5 POP DUP3 PUSH1 0x0 MSTORE PUSH1 0x1A PUSH1 0x20 MSTORE PUSH1 0x0 DUP1 DUP1 DUP1 DUP9 PUSH1 0x1 DUP1 PUSH1 0xA0 SHL SUB PUSH1 0x40 DUP4 KECCAK256 SLOAD PUSH1 0x8 SHR AND GAS CALL PUSH2 0x8D8 PUSH2 0x3593 JUMP JUMPDEST POP ISZERO PUSH2 0x8E7 JUMPI DUP6 SWAP5 PUSH1 0x1 PUSH2 0x6D3 JUMP JUMPDEST PUSH1 0x40 MLOAD PUSH3 0x461BCD PUSH1 0xE5 SHL DUP2 MSTORE PUSH1 0x20 PUSH1 0x4 DUP3 ADD MSTORE PUSH1 0x14 PUSH1 0x24 DUP3 ADD MSTORE PUSH20 0x13585D1C9A5E081C99599D5B990819985A5B1959 PUSH1 0x62 SHL PUSH1 0x44 DUP3 ADD MSTORE PUSH1 0x64 SWAP1 REVERT JUMPDEST SLOAD PUSH1 0xFF AND PUSH2 0x94C JUMPI JUMPDEST PUSH1 0x0 MSTORE PUSH1 0x1A PUSH1 0x20 MSTORE PUSH2 0x946 PUSH1 0x2 PUSH1 0x40 PUSH1 0x0 KECCAK256 ADD SLOAD SWAP2 PUSH2 0x34D6 JUMP JUMPDEST SWAP1 PUSH2 0x5E2 JUMP JUMPDEST PUSH1 0x1 DUP3 ADD DUP3 GT PUSH2 0x895 JUMPI PUSH1 0x40 DUP1 MLOAD DUP6 DUP2 MSTORE PUSH1 0x0 NOT DUP12 ADD PUSH1 0x20 DUP3 ADD MSTORE PUSH1 0x1 DUP5 ADD SWAP2 DUP2 ADD SWAP2 SWAP1 SWAP2 MSTORE PUSH1 0x0 PUSH1 0x60 DUP3 ADD MSTORE TIMESTAMP PUSH1 0x80 DUP3 ADD MSTORE DUP2 SWAP1 DUP9 SWAP1 PUSH1 0x0 DUP1 MLOAD PUSH1 0x20 PUSH2 0x49D8 DUP4 CODECOPY DUP2 MLOAD SWAP2 MSTORE SWAP1 PUSH1 0xA0 SWAP1 LOG3 DUP7 DUP2 PUSH32 0x587D8F9CC4F7AE2F12F916B8AC03AC5414969DFAF447B84ACBB1E2B171CB7EB2 PUSH1 0xA0 PUSH1 0x40 MLOAD DUP9 DUP2 MSTORE PUSH1 0x18 PUSH1 0x60 DUP1 PUSH1 0x20 DUP5 ADD MSTORE DUP3 ADD MSTORE PUSH24 0x9CDEE840E2EAC2D8D2CCD2CAC840CCDEE440DAC2E8E4D2F PUSH1 0x43 SHL PUSH1 0x80 DUP3 ADD MSTORE TIMESTAMP PUSH1 0x40 DUP3 ADD MSTORE LOG3 PUSH2 0x92C JUMP JUMPDEST POP PUSH1 0x2 PUSH1 0x4 DUP3 ADD SLOAD LT ISZERO PUSH2 0x612 JUMP JUMPDEST SWAP9 POP POP POP PUSH2 0x6D3 JUMP JUMPDEST POP DUP2 ISZERO ISZERO PUSH2 0x5ED JUMP JUMPDEST PUSH4 0x4E487B71 PUSH1 0xE0 SHL DUP9 MSTORE PUSH1 0x11 PUSH1 0x4 MSTORE PUSH1 0x24 DUP9 REVERT JUMPDEST PUSH2 0xA73 DUP7 DUP1 DUP1 DUP1 DUP10 PUSH32 0x0 PUSH1 0x1 PUSH1 0x1 PUSH1 0xA0 SHL SUB AND GAS CALL PUSH2 0xA6D PUSH2 0x3593 JUMP JUMPDEST POP PUSH2 0x3730 JUMP JUMPDEST DUP3 PUSH32 0xB74A7140EF81C80D0E213846B7B10B59F9C366B463E36E1F98BF00EF44C670B4 PUSH1 0x40 DUP1 MLOAD DUP9 DUP2 MSTORE TIMESTAMP PUSH1 0x20 DUP3 ADD MSTORE LOG2 PUSH2 0x59C JUMP JUMPDEST PUSH2 0xAEA DUP7 DUP1 DUP1 DUP1 DUP6 PUSH32 0x0 PUSH1 0x1 PUSH1 0x1 PUSH1 0xA0 SHL SUB AND GAS CALL PUSH2 0xAE4 PUSH2 0x3593 JUMP JUMPDEST POP PUSH2 0x36EE JUMP JUMPDEST DUP3 DUP7 MSTORE PUSH1 0x1A PUSH1 0x20 MSTORE PUSH1 0x3 PUSH1 0x40 DUP8 KECCAK256 ADD SLOAD SWAP1 DUP2 PUSH1 0x0 NOT DUP2 ADD GT PUSH2 0xB4D JUMPI PUSH1 0x40 DUP1 MLOAD SWAP2 DUP3 MSTORE PUSH1 0x0 NOT SWAP3 SWAP1 SWAP3 ADD PUSH1 0x20 DUP3 ADD MSTORE TIMESTAMP SWAP2 DUP2 ADD SWAP2 SWAP1 SWAP2 MSTORE PUSH32 0xEDD09F264659CE99B52FD2A2D4F09E551EB001FE3FC56FFD5704FC1F402BC211 SWAP1 PUSH1 0x60 SWAP1 LOG1 CODESIZE PUSH2 0x588 JUMP JUMPDEST PUSH4 0x4E487B71 PUSH1 0xE0 SHL DUP8 MSTORE PUSH1 0x11 PUSH1 0x4 MSTORE PUSH1 0x24 DUP8 REVERT JUMPDEST PUSH4 0x4E487B71 PUSH1 0xE0 SHL DUP6 MSTORE PUSH1 0x11 PUSH1 0x4 MSTORE PUSH1 0x24 DUP6 REVERT JUMPDEST SWAP1 DUP2 DUP4 MSTORE PUSH1 0x1A PUSH1 0x20 MSTORE PUSH2 0xB8F DUP5 PUSH1 0x3 PUSH1 0x40 DUP7 KECCAK256 ADD SLOAD PUSH2 0x3408 JUMP JUMPDEST PUSH1 0x0 NOT DUP2 ADD SWAP1 DUP2 GT PUSH2 0x3E4 JUMPI PUSH2 0xBBA SWAP2 PUSH2 0xBAE PUSH2 0x3B2 PUSH2 0xBB4 SWAP4 PUSH2 0x330F JUMP JUMPDEST SWAP1 PUSH2 0x3408 JUMP JUMPDEST SWAP4 PUSH2 0x34D6 JUMP JUMPDEST SWAP3 SWAP1 PUSH2 0x4B9 JUMP JUMPDEST POP CALLVALUE PUSH2 0x3F8 JUMPI PUSH1 0x20 CALLDATASIZE PUSH1 0x3 NOT ADD SLT PUSH2 0x3F8 JUMPI PUSH2 0xBDB PUSH2 0x30DE JUMP JUMPDEST PUSH2 0xBE3 PUSH2 0x3245 JUMP JUMPDEST PUSH2 0xBEB PUSH2 0x3245 JUMP JUMPDEST PUSH1 0x1 PUSH1 0x1 PUSH1 0xA0 SHL SUB SWAP1 DUP2 AND SWAP1 DUP2 ISZERO PUSH2 0xC40 JUMPI PUSH1 0x1 SLOAD DUP3 PUSH12 0xFFFFFFFFFFFFFFFFFFFFFFFF PUSH1 0xA0 SHL DUP3 AND OR PUSH1 0x1 SSTORE AND PUSH32 0x8BE0079C531659141344CD1FD0A4F28419497F9722A3DAAFE3B4186F6B6457E0 PUSH1 0x0 DUP1 LOG3 DUP1 RETURN JUMPDEST PUSH1 0x40 MLOAD PUSH4 0x1E4FBDF7 PUSH1 0xE0 SHL DUP2 MSTORE PUSH1 0x4 DUP2 ADD DUP5 SWAP1 MSTORE PUSH1 0x24 SWAP1 REVERT JUMPDEST POP CALLVALUE PUSH2 0x3F8 JUMPI DUP1 PUSH1 0x3 NOT CALLDATASIZE ADD SLT PUSH2 0x3F8 JUMPI PUSH1 0x1 SLOAD PUSH1 0x40 MLOAD PUSH1 0x1 PUSH1 0x1 PUSH1 0xA0 SHL SUB SWAP1 SWAP2 AND ISZERO DUP2 MSTORE PUSH1 0x20 SWAP1 RETURN JUMPDEST POP CALLVALUE PUSH2 0x3F8 JUMPI PUSH1 0x40 CALLDATASIZE PUSH1 0x3 NOT ADD SLT PUSH2 0x3F8 JUMPI PUSH2 0xC9D PUSH2 0x30DE JUMP JUMPDEST PUSH1 0x1 PUSH1 0x1 PUSH1 0xA0 SHL SUB AND DUP2 MSTORE PUSH1 0x19 PUSH1 0x20 MSTORE PUSH1 0x40 DUP2 KECCAK256 SLOAD PUSH1 0x24 SWAP1 DUP2 CALLDATALOAD SWAP1 PUSH2 0xCC3 DUP2 ISZERO ISZERO PUSH2 0x377C JUMP JUMPDEST DUP4 MSTORE PUSH1 0x1A PUSH1 0x20 MSTORE PUSH1 0x3 PUSH1 0x40 DUP5 KECCAK256 ADD SLOAD SWAP1 PUSH2 0xCE2 PUSH1 0xD PUSH2 0x347 DUP4 DUP6 PUSH2 0x3408 JUMP JUMPDEST PUSH2 0xCEB DUP2 PUSH2 0x42CF JUMP JUMPDEST SWAP4 DUP1 SWAP4 DUP2 SWAP4 JUMPDEST DUP4 DUP6 LT PUSH2 0xD16 JUMPI DUP7 DUP7 PUSH2 0x381 PUSH1 0x40 MLOAD SWAP3 DUP4 SWAP3 DUP4 MSTORE PUSH1 0x40 PUSH1 0x20 DUP5 ADD MSTORE PUSH1 0x40 DUP4 ADD SWAP1 PUSH2 0x30F4 JUMP JUMPDEST SWAP1 SWAP2 SWAP3 SWAP4 SWAP5 PUSH2 0xD25 DUP7 DUP4 PUSH2 0x3408 JUMP JUMPDEST PUSH1 0x0 NOT DUP2 ADD SWAP1 DUP2 GT PUSH2 0xD5F JUMPI PUSH2 0xD56 SWAP2 PUSH2 0xD44 PUSH2 0x3B2 PUSH2 0xD50 SWAP4 PUSH2 0x330F JUMP JUMPDEST SWAP1 DUP2 PUSH2 0x3D0 DUP11 DUP13 PUSH2 0x4301 JUMP JUMPDEST SWAP6 PUSH2 0x34D6 JUMP JUMPDEST SWAP4 SWAP3 SWAP2 SWAP1 PUSH2 0xCF1 JUMP JUMPDEST PUSH4 0x4E487B71 PUSH1 0xE0 SHL DUP6 MSTORE PUSH1 0x11 PUSH1 0x4 MSTORE DUP4 DUP6 REVERT JUMPDEST POP CALLVALUE PUSH2 0x3F8 JUMPI DUP1 PUSH1 0x3 NOT CALLDATASIZE ADD SLT PUSH2 0x3F8 JUMPI PUSH1 0x80 PUSH2 0xD8D PUSH2 0x4853 JUMP JUMPDEST PUSH1 0x3 SLOAD PUSH2 0xD98 PUSH2 0x49C2 JUMP JUMPDEST PUSH2 0xDA4 PUSH1 0x5 SLOAD TIMESTAMP PUSH2 0x3586 JUMP JUMPDEST SWAP2 PUSH1 0x40 MLOAD SWAP4 DUP5 MSTORE PUSH1 0x20 DUP5 ADD MSTORE ISZERO ISZERO PUSH1 0x40 DUP4 ADD MSTORE PUSH1 0x60 DUP3 ADD MSTORE RETURN JUMPDEST POP CALLVALUE PUSH2 0x3F8 JUMPI DUP1 PUSH1 0x3 NOT CALLDATASIZE ADD SLT PUSH2 0x3F8 JUMPI PUSH1 0x40 MLOAD PUSH2 0xDDB DUP2 PUSH2 0x31CE JUMP JUMPDEST PUSH2 0x1A0 SWAP2 DUP3 CALLDATASIZE DUP4 CALLDATACOPY PUSH1 0x40 MLOAD SWAP3 PUSH2 0xDF0 DUP5 PUSH2 0x31CE JUMP JUMPDEST DUP1 CALLDATASIZE DUP6 CALLDATACOPY PUSH1 0x40 MLOAD SWAP2 PUSH2 0xE01 DUP4 PUSH2 0x31CE JUMP JUMPDEST DUP2 CALLDATASIZE DUP5 CALLDATACOPY JUMPDEST PUSH1 0xD DUP2 LT PUSH2 0xE3D JUMPI POP SWAP1 PUSH2 0xE30 PUSH2 0x4E0 SWAP5 PUSH2 0xE3B SWAP4 PUSH2 0xE28 PUSH1 0x40 MLOAD DUP1 SWAP8 PUSH2 0x3144 JUMP JUMPDEST DUP6 ADD SWAP1 PUSH2 0x3144 JUMP JUMPDEST PUSH2 0x340 DUP4 ADD SWAP1 PUSH2 0x3144 JUMP JUMPDEST RETURN JUMPDEST DUP1 PUSH2 0xE4A PUSH2 0xEA5 SWAP3 PUSH2 0x330F JUMP JUMPDEST PUSH2 0xE54 DUP3 DUP8 PUSH2 0x44E1 JUMP JUMPDEST MSTORE PUSH1 0x64 PUSH2 0xE6A PUSH2 0xE64 DUP4 DUP9 PUSH2 0x44E1 JUMP JUMPDEST MLOAD PUSH2 0x32AD JUMP JUMPDEST DIV PUSH2 0xE75 DUP3 DUP9 PUSH2 0x44E1 JUMP JUMPDEST MSTORE PUSH2 0xE95 PUSH2 0xE83 DUP3 DUP8 PUSH2 0x44E1 JUMP JUMPDEST MLOAD PUSH2 0xE8E DUP4 DUP10 PUSH2 0x44E1 JUMP JUMPDEST MLOAD SWAP1 PUSH2 0x3408 JUMP JUMPDEST PUSH2 0xE9F DUP3 DUP7 PUSH2 0x44E1 JUMP JUMPDEST MSTORE PUSH2 0x34D6 JUMP JUMPDEST PUSH2 0xE06 JUMP JUMPDEST POP CALLVALUE PUSH2 0x3F8 JUMPI DUP1 PUSH1 0x3 NOT CALLDATASIZE ADD SLT PUSH2 0x3F8 JUMPI PUSH1 0x20 PUSH2 0xEC5 PUSH2 0x49C2 JUMP JUMPDEST PUSH1 0x40 MLOAD SWAP1 ISZERO ISZERO DUP2 MSTORE RETURN JUMPDEST POP CALLVALUE PUSH2 0x3F8 JUMPI PUSH2 0xEDE CALLDATASIZE PUSH2 0x3054 JUMP JUMPDEST SWAP1 PUSH2 0xEE7 PUSH2 0x3245 JUMP JUMPDEST PUSH1 0xD DUP2 LT PUSH2 0xEF4 DUP2 PUSH2 0x3271 JUMP JUMPDEST DUP3 ISZERO PUSH2 0xF57 JUMPI ISZERO PUSH2 0xF43 JUMPI PUSH1 0x60 PUSH1 0xFF DUP3 DUP5 PUSH32 0x1160DED273713B62692B83F3F861BFEF99579EAF0440D7A22D838A3D163922E SWAP5 PUSH1 0x9 ADD SSTORE PUSH1 0x40 MLOAD SWAP5 DUP7 DUP7 MSTORE PUSH1 0x20 DUP7 ADD MSTORE TIMESTAMP PUSH1 0x40 DUP7 ADD MSTORE AND SWAP3 LOG2 DUP1 RETURN JUMPDEST PUSH4 0x4E487B71 PUSH1 0xE0 SHL DUP4 MSTORE PUSH1 0x32 PUSH1 0x4 MSTORE PUSH1 0x24 DUP4 REVERT JUMPDEST PUSH1 0x40 MLOAD PUSH3 0x461BCD PUSH1 0xE5 SHL DUP2 MSTORE PUSH1 0x20 PUSH1 0x4 DUP3 ADD MSTORE PUSH1 0xC PUSH1 0x24 DUP3 ADD MSTORE PUSH12 0x125B9D985B1A590818DBDCDD PUSH1 0xA2 SHL PUSH1 0x44 DUP3 ADD MSTORE PUSH1 0x64 SWAP1 REVERT JUMPDEST POP CALLVALUE PUSH2 0x3F8 JUMPI DUP1 PUSH1 0x3 NOT CALLDATASIZE ADD SLT PUSH2 0x3F8 JUMPI PUSH1 0x20 PUSH1 0x40 MLOAD PUSH32 0x0 DUP2 MSTORE RETURN JUMPDEST POP PUSH1 0x40 CALLDATASIZE PUSH1 0x3 NOT ADD SLT PUSH2 0x3F8 JUMPI PUSH1 0x24 CALLDATALOAD SWAP1 PUSH1 0x1 PUSH1 0x1 PUSH1 0xA0 SHL SUB DUP3 AND PUSH1 0x4 CALLDATALOAD DUP2 DUP5 SUB PUSH2 0x1179 JUMPI PUSH2 0xFF3 PUSH2 0x35D3 JUMP JUMPDEST PUSH2 0x1002 PUSH1 0xFF PUSH1 0x16 SLOAD AND ISZERO PUSH2 0x334B JUMP JUMPDEST DUP1 DUP3 DUP5 MSTORE PUSH1 0x20 SWAP2 PUSH1 0x19 DUP4 MSTORE PUSH2 0x101B PUSH1 0x40 DUP7 KECCAK256 SLOAD ISZERO PUSH2 0x3389 JUMP JUMPDEST PUSH2 0x1026 DUP5 ISZERO ISZERO PUSH2 0x33CA JUMP JUMPDEST DUP1 ISZERO SWAP1 DUP2 ISZERO PUSH2 0x1163 JUMPI JUMPDEST POP PUSH2 0x113C JUMPI JUMPDEST PUSH2 0x103E PUSH2 0x32E3 JUMP JUMPDEST SWAP3 PUSH1 0x64 PUSH2 0x104A DUP6 PUSH2 0x32AD JUMP JUMPDEST DIV PUSH2 0x1055 DUP2 DUP7 PUSH2 0x3408 JUMP JUMPDEST SWAP5 PUSH2 0x1062 DUP7 CALLVALUE LT ISZERO PUSH2 0x3415 JUMP JUMPDEST PUSH1 0x18 SLOAD SWAP8 PUSH1 0x1 DUP10 ADD DUP1 SWAP10 GT PUSH2 0xA1D JUMPI SWAP3 PUSH2 0x10D3 PUSH2 0x112D SWAP7 SWAP4 DUP7 SWAP4 PUSH2 0x109E DUP6 DUP14 SWAP10 PUSH1 0x1 SWAP10 DUP15 SWAP16 DUP16 PUSH1 0x40 SWAP1 DUP3 PUSH1 0x18 SSTORE DUP11 DUP2 MSTORE PUSH1 0x19 DUP14 MSTORE KECCAK256 SSTORE DUP12 PUSH2 0x404F JUMP JUMPDEST PUSH2 0x10A7 DUP9 PUSH2 0x3459 JUMP JUMPDEST PUSH2 0x10B2 PUSH1 0x17 SLOAD PUSH2 0x34D6 JUMP JUMPDEST PUSH1 0x17 SSTORE DUP8 DUP12 MSTORE PUSH1 0x1B DUP7 MSTORE PUSH1 0x40 DUP12 KECCAK256 PUSH2 0x10CB DUP3 DUP3 SLOAD PUSH2 0x3408 JUMP JUMPDEST SWAP1 SSTORE DUP8 PUSH2 0x3807 JUMP JUMPDEST PUSH2 0x10DD DUP3 DUP7 PUSH2 0x41DD JUMP JUMPDEST PUSH2 0x10E6 DUP6 PUSH2 0x4463 JUMP JUMPDEST DUP5 PUSH32 0x19871A311455A6A311F1A6DCEF0DC6478ACCCEA5A81B0BAFE39D188D098EFAF3 DUP5 PUSH1 0x40 MLOAD TIMESTAMP DUP2 MSTORE LOG4 PUSH1 0x40 MLOAD SWAP3 PUSH2 0x111D DUP5 PUSH2 0x3196 JUMP JUMPDEST DUP4 MSTORE DUP3 ADD MSTORE TIMESTAMP PUSH1 0x40 DUP3 ADD MSTORE PUSH2 0x34E5 JUMP JUMPDEST DUP1 CALLVALUE GT PUSH2 0x4EF JUMPI POP PUSH1 0x1 SWAP1 SSTORE DUP1 RETURN JUMPDEST POP PUSH32 0x0 PUSH2 0x1036 JUMP JUMPDEST DUP6 MSTORE POP PUSH1 0x1A DUP3 MSTORE PUSH1 0x40 DUP5 KECCAK256 SLOAD PUSH1 0xFF AND ISZERO CODESIZE PUSH2 0x1030 JUMP JUMPDEST PUSH1 0x0 DUP1 REVERT JUMPDEST POP CALLVALUE PUSH2 0x3F8 JUMPI PUSH1 0x20 CALLDATASIZE PUSH1 0x3 NOT ADD SLT PUSH2 0x3F8 JUMPI PUSH1 0x4 CALLDATALOAD PUSH2 0x119B PUSH2 0x3245 JUMP JUMPDEST PUSH1 0x7 SLOAD DUP2 LT ISZERO DUP1 PUSH2 0x123D JUMPI JUMPDEST ISZERO PUSH2 0x1202 JUMPI PUSH32 0x31153501178701E5A0635CCBB27182B8B2DA7DF2576D99D2B5CD7FF4A2FDC564 SWAP1 PUSH1 0x3 SLOAD SWAP1 DUP1 PUSH1 0x3 SSTORE TIMESTAMP PUSH1 0x5 SSTORE PUSH2 0x11FC PUSH1 0x40 MLOAD SWAP3 DUP4 SWAP3 TIMESTAMP SWAP2 DUP5 PUSH1 0x40 SWAP2 SWAP5 SWAP4 SWAP3 PUSH1 0x60 DUP3 ADD SWAP6 DUP3 MSTORE PUSH1 0x20 DUP3 ADD MSTORE ADD MSTORE JUMP JUMPDEST SUB SWAP1 LOG1 DUP1 RETURN JUMPDEST PUSH1 0x40 MLOAD PUSH3 0x461BCD PUSH1 0xE5 SHL DUP2 MSTORE PUSH1 0x20 PUSH1 0x4 DUP3 ADD MSTORE PUSH1 0x13 PUSH1 0x24 DUP3 ADD MSTORE PUSH19 0x5072696365206F7574206F6620626F756E6473 PUSH1 0x68 SHL PUSH1 0x44 DUP3 ADD MSTORE PUSH1 0x64 SWAP1 REVERT JUMPDEST POP PUSH1 0x8 SLOAD DUP2 GT ISZERO PUSH2 0x11A7 JUMP JUMPDEST POP CALLVALUE PUSH2 0x3F8 JUMPI DUP1 PUSH1 0x3 NOT CALLDATASIZE ADD SLT PUSH2 0x3F8 JUMPI PUSH1 0x40 MLOAD PUSH32 0x0 PUSH1 0x1 PUSH1 0x1 PUSH1 0xA0 SHL SUB AND DUP2 MSTORE PUSH1 0x20 SWAP1 RETURN JUMPDEST PUSH2 0x3128 JUMP JUMPDEST POP PUSH1 0x20 SWAP1 DUP2 PUSH1 0x3 NOT CALLDATASIZE ADD SLT PUSH2 0x3F8 JUMPI PUSH2 0x12AA PUSH2 0x30DE JUMP JUMPDEST PUSH2 0x12B2 PUSH2 0x35D3 JUMP JUMPDEST PUSH2 0x12C1 PUSH1 0xFF PUSH1 0x16 SLOAD AND ISZERO PUSH2 0x334B JUMP JUMPDEST PUSH1 0x1 PUSH1 0x1 PUSH1 0xA0 SHL SUB AND DUP1 PUSH2 0x143C JUMPI POP DUP1 JUMPDEST DUP1 CALLER DUP4 MSTORE PUSH1 0x19 DUP5 MSTORE PUSH2 0x12E8 PUSH1 0x40 DUP5 KECCAK256 SLOAD ISZERO PUSH2 0x3389 JUMP JUMPDEST PUSH2 0x12F3 CALLER ISZERO ISZERO PUSH2 0x33CA JUMP JUMPDEST DUP1 ISZERO SWAP1 DUP2 ISZERO PUSH2 0x1426 JUMPI JUMPDEST POP PUSH2 0x13FF JUMPI JUMPDEST PUSH2 0x130B PUSH2 0x32E3 JUMP JUMPDEST SWAP3 PUSH1 0x64 PUSH2 0x1317 DUP6 PUSH2 0x32AD JUMP JUMPDEST DIV SWAP2 PUSH2 0x1323 DUP4 DUP7 PUSH2 0x3408 JUMP JUMPDEST SWAP3 PUSH2 0x1330 DUP5 CALLVALUE LT ISZERO PUSH2 0x3415 JUMP JUMPDEST PUSH1 0x18 SLOAD SWAP6 PUSH1 0x1 DUP8 ADD DUP1 SWAP8 GT PUSH2 0x13EB JUMPI SWAP3 DUP7 SWAP3 PUSH2 0x139F PUSH1 0x1 SWAP4 PUSH2 0x112D SWAP7 DUP10 SWAP11 PUSH1 0x18 SSTORE CALLER DUP11 MSTORE PUSH1 0x19 DUP6 MSTORE DUP7 PUSH1 0x40 DUP12 KECCAK256 SSTORE PUSH2 0x136A DUP5 DUP1 CALLER DUP11 PUSH2 0x404F JUMP JUMPDEST PUSH2 0x1373 DUP8 PUSH2 0x3459 JUMP JUMPDEST PUSH2 0x137E PUSH1 0x17 SLOAD PUSH2 0x34D6 JUMP JUMPDEST PUSH1 0x17 SSTORE DUP7 DUP11 MSTORE PUSH1 0x1B DUP6 MSTORE PUSH1 0x40 DUP11 KECCAK256 PUSH2 0x1397 DUP3 DUP3 SLOAD PUSH2 0x3408 JUMP JUMPDEST SWAP1 SSTORE DUP7 PUSH2 0x3807 JUMP JUMPDEST PUSH2 0x13A9 DUP2 DUP6 PUSH2 0x41DD JUMP JUMPDEST PUSH2 0x13B2 DUP5 PUSH2 0x4463 JUMP JUMPDEST PUSH1 0x40 MLOAD TIMESTAMP DUP2 MSTORE DUP5 PUSH32 0x19871A311455A6A311F1A6DCEF0DC6478ACCCEA5A81B0BAFE39D188D098EFAF3 DUP5 CALLER SWAP4 LOG4 PUSH1 0x40 MLOAD SWAP3 PUSH2 0x111D DUP5 PUSH2 0x3196 JUMP JUMPDEST PUSH4 0x4E487B71 PUSH1 0xE0 SHL DUP7 MSTORE PUSH1 0x11 PUSH1 0x4 MSTORE PUSH1 0x24 DUP7 REVERT JUMPDEST POP PUSH32 0x0 PUSH2 0x1303 JUMP JUMPDEST DUP4 MSTORE POP PUSH1 0x1A DUP4 MSTORE PUSH1 0x40 DUP3 KECCAK256 SLOAD PUSH1 0xFF AND ISZERO CODESIZE PUSH2 0x12FD JUMP JUMPDEST DUP2 MSTORE PUSH1 0x19 DUP3 MSTORE PUSH1 0x40 DUP2 KECCAK256 SLOAD PUSH2 0x12D2 JUMP JUMPDEST POP CALLVALUE PUSH2 0x3F8 JUMPI PUSH1 0x20 CALLDATASIZE PUSH1 0x3 NOT ADD SLT PUSH2 0x3F8 JUMPI PUSH1 0x20 SWAP1 PUSH1 0x40 SWAP1 PUSH1 0x1 PUSH1 0x1 PUSH1 0xA0 SHL SUB PUSH2 0x1474 PUSH2 0x30DE JUMP JUMPDEST AND DUP2 MSTORE PUSH1 0x19 DUP4 MSTORE KECCAK256 SLOAD ISZERO ISZERO PUSH1 0x40 MLOAD SWAP1 DUP2 MSTORE RETURN JUMPDEST POP CALLVALUE PUSH2 0x3F8 JUMPI DUP1 PUSH1 0x3 NOT CALLDATASIZE ADD SLT PUSH2 0x3F8 JUMPI PUSH1 0x20 PUSH1 0x17 SLOAD PUSH1 0x40 MLOAD SWAP1 DUP2 MSTORE RETURN JUMPDEST POP CALLVALUE PUSH2 0x3F8 JUMPI DUP1 PUSH1 0x3 NOT CALLDATASIZE ADD SLT PUSH2 0x3F8 JUMPI PUSH2 0x14BE PUSH2 0x3245 JUMP JUMPDEST PUSH1 0x16 SLOAD PUSH1 0xFF DUP2 AND ISZERO PUSH2 0x1500 JUMPI PUSH1 0xFF NOT AND PUSH1 0x16 SSTORE PUSH1 0x40 MLOAD TIMESTAMP DUP2 MSTORE PUSH32 0x107553D8191D85B405879CF752997865EDD48D94E20BDA4DD27223C94B31A7CC PUSH1 0x20 CALLER SWAP3 LOG2 DUP1 RETURN JUMPDEST PUSH1 0x40 MLOAD PUSH3 0x461BCD PUSH1 0xE5 SHL DUP2 MSTORE PUSH1 0x20 PUSH1 0x4 DUP3 ADD MSTORE PUSH1 0xA PUSH1 0x24 DUP3 ADD MSTORE PUSH10 0x139BDD081C185D5CD959 PUSH1 0xB2 SHL PUSH1 0x44 DUP3 ADD MSTORE PUSH1 0x64 SWAP1 REVERT JUMPDEST POP CALLVALUE PUSH2 0x3F8 JUMPI DUP1 PUSH1 0x3 NOT CALLDATASIZE ADD SLT PUSH2 0x3F8 JUMPI PUSH1 0x20 PUSH1 0x40 MLOAD PUSH1 0x2 DUP2 MSTORE RETURN JUMPDEST POP CALLVALUE PUSH2 0x3F8 JUMPI DUP1 PUSH1 0x3 NOT CALLDATASIZE ADD SLT PUSH2 0x3F8 JUMPI PUSH1 0x20 PUSH1 0x40 MLOAD PUSH1 0x64 DUP2 MSTORE RETURN JUMPDEST POP CALLVALUE PUSH2 0x3F8 JUMPI DUP1 PUSH1 0x3 NOT CALLDATASIZE ADD SLT PUSH2 0x3F8 JUMPI PUSH1 0x40 MLOAD PUSH32 0x0 PUSH1 0x1 PUSH1 0x1 PUSH1 0xA0 SHL SUB AND DUP2 MSTORE PUSH1 0x20 SWAP1 RETURN JUMPDEST POP CALLVALUE PUSH2 0x3F8 JUMPI DUP1 PUSH1 0x3 NOT CALLDATASIZE ADD SLT PUSH2 0x3F8 JUMPI PUSH2 0x15C8 PUSH2 0x45B5 JUMP JUMPDEST SWAP2 PUSH2 0x15EF PUSH1 0x40 SWAP6 SWAP3 SWAP6 MLOAD SWAP6 DUP7 SWAP6 DUP7 MSTORE PUSH1 0x20 SWAP3 DUP4 DUP8 ADD MSTORE PUSH1 0x80 PUSH1 0x40 DUP8 ADD MSTORE PUSH1 0x80 DUP7 ADD SWAP1 PUSH2 0x30F4 JUMP JUMPDEST SWAP1 DUP5 DUP3 SUB PUSH1 0x60 DUP7 ADD MSTORE DUP1 DUP1 DUP6 MLOAD SWAP4 DUP5 DUP2 MSTORE ADD SWAP5 ADD SWAP3 JUMPDEST DUP3 DUP2 LT PUSH2 0x1614 JUMPI POP POP POP POP SUB SWAP1 RETURN JUMPDEST DUP4 MLOAD PUSH1 0x1 PUSH1 0x1 PUSH1 0xA0 SHL SUB AND DUP6 MSTORE DUP7 SWAP6 POP SWAP4 DUP2 ADD SWAP4 SWAP3 DUP2 ADD SWAP3 PUSH1 0x1 ADD PUSH2 0x1605 JUMP JUMPDEST POP CALLVALUE PUSH2 0x3F8 JUMPI DUP1 PUSH1 0x3 NOT CALLDATASIZE ADD SLT PUSH2 0x3F8 JUMPI PUSH1 0x1 SLOAD PUSH1 0x40 MLOAD PUSH1 0x1 PUSH1 0x1 PUSH1 0xA0 SHL SUB SWAP1 SWAP2 AND DUP2 MSTORE PUSH1 0x20 SWAP1 RETURN JUMPDEST POP CALLVALUE PUSH2 0x3F8 JUMPI PUSH1 0x20 CALLDATASIZE PUSH1 0x3 NOT ADD SLT PUSH2 0x3F8 JUMPI PUSH1 0x20 SWAP1 PUSH1 0x40 SWAP1 PUSH1 0x1 PUSH1 0x1 PUSH1 0xA0 SHL SUB PUSH2 0x1685 PUSH2 0x30DE JUMP JUMPDEST AND DUP2 MSTORE PUSH1 0x19 DUP4 MSTORE KECCAK256 SLOAD PUSH1 0x40 MLOAD SWAP1 DUP2 MSTORE RETURN JUMPDEST POP CALLVALUE PUSH2 0x3F8 JUMPI PUSH1 0x20 CALLDATASIZE PUSH1 0x3 NOT ADD SLT PUSH2 0x3F8 JUMPI PUSH1 0x40 PUSH1 0x20 SWAP2 PUSH1 0x4 CALLDATALOAD DUP2 MSTORE PUSH1 0x1D DUP4 MSTORE KECCAK256 SLOAD PUSH1 0x40 MLOAD SWAP1 DUP2 MSTORE RETURN JUMPDEST POP CALLVALUE PUSH2 0x3F8 JUMPI PUSH1 0x20 CALLDATASIZE PUSH1 0x3 NOT ADD SLT PUSH2 0x3F8 JUMPI PUSH1 0x4 CALLDATALOAD DUP1 ISZERO ISZERO DUP1 SWAP2 SUB PUSH2 0x1729 JUMPI PUSH1 0x40 PUSH32 0xFF35AD813AFCE2410AE4C6035F1B3E69C6BB092BE9B83FBED11D38074A5623BB SWAP2 PUSH2 0x170B PUSH2 0x3245 JUMP JUMPDEST PUSH1 0xFF NOT PUSH1 0x6 SLOAD AND PUSH1 0xFF DUP3 AND OR PUSH1 0x6 SSTORE DUP2 MLOAD SWAP1 DUP2 MSTORE TIMESTAMP PUSH1 0x20 DUP3 ADD MSTORE LOG1 DUP1 RETURN JUMPDEST POP DUP1 REVERT JUMPDEST POP CALLVALUE PUSH2 0x3F8 JUMPI PUSH2 0x173C CALLDATASIZE PUSH2 0x3054 JUMP JUMPDEST SWAP1 PUSH2 0x1745 PUSH2 0x35D3 JUMP JUMPDEST DUP1 ISZERO ISZERO DUP1 PUSH2 0x18CA JUMPI JUMPDEST PUSH2 0x1757 SWAP1 PUSH2 0x35F6 JUMP JUMPDEST DUP1 DUP4 MSTORE PUSH1 0x20 PUSH1 0x1A DUP2 MSTORE PUSH1 0x1 DUP1 PUSH1 0xA0 SHL SUB PUSH2 0x177B DUP2 PUSH1 0x40 DUP8 KECCAK256 SLOAD PUSH1 0x8 SHR AND CALLER EQ PUSH2 0x3634 JUMP JUMPDEST DUP3 DUP6 MSTORE PUSH1 0x1B DUP3 MSTORE PUSH1 0x40 DUP1 DUP7 KECCAK256 PUSH1 0x1 DUP2 ADD SLOAD SWAP1 SLOAD PUSH1 0x1A DUP6 MSTORE DUP3 DUP9 KECCAK256 SLOAD SWAP3 MLOAD PUSH4 0xC7403E1D PUSH1 0xE0 SHL DUP2 MSTORE PUSH1 0x4 DUP2 ADD DUP8 SWAP1 MSTORE PUSH1 0x24 DUP2 ADD DUP9 SWAP1 MSTORE PUSH32 0x0 PUSH1 0x44 DUP3 ADD MSTORE PUSH1 0x64 DUP2 ADD SWAP3 SWAP1 SWAP3 MSTORE PUSH1 0x84 DUP3 ADD MSTORE PUSH1 0x8 SWAP2 SWAP1 SWAP2 SHR DUP3 AND PUSH1 0x1 PUSH1 0x1 PUSH1 0xA0 SHL SUB AND PUSH1 0xA4 DUP3 ADD MSTORE SWAP1 DUP3 SWAP1 DUP3 SWAP1 DUP2 DUP9 DUP2 PUSH1 0xC4 DUP2 ADD JUMPDEST SUB SWAP3 PUSH32 0x0 AND GAS CALL SWAP1 DUP2 ISZERO PUSH2 0x18BF JUMPI DUP6 SWAP2 PUSH2 0x1872 JUMPI JUMPDEST POP PUSH1 0x40 SWAP1 PUSH32 0xB64F1F8F03EE84EC0CFB24D1299D6CE9EF6D58EA0787053DE092EC3F8B14255C SWAP3 DUP3 MLOAD SWAP2 DUP3 MSTORE TIMESTAMP SWAP1 DUP3 ADD MSTORE LOG3 PUSH1 0x1 DUP2 SSTORE DUP1 RETURN JUMPDEST SWAP1 POP DUP2 DUP2 DUP2 RETURNDATASIZE DUP4 GT PUSH2 0x18B8 JUMPI JUMPDEST PUSH2 0x1889 DUP2 DUP4 PUSH2 0x3223 JUMP JUMPDEST DUP2 ADD SUB SLT PUSH2 0x1179 JUMPI MLOAD PUSH32 0xB64F1F8F03EE84EC0CFB24D1299D6CE9EF6D58EA0787053DE092EC3F8B14255C PUSH2 0x183A JUMP JUMPDEST POP RETURNDATASIZE PUSH2 0x187F JUMP JUMPDEST PUSH1 0x40 MLOAD RETURNDATASIZE DUP8 DUP3 RETURNDATACOPY RETURNDATASIZE SWAP1 REVERT JUMPDEST POP DUP1 DUP4 MSTORE PUSH1 0x1A PUSH1 0x20 MSTORE PUSH1 0x40 DUP4 KECCAK256 SLOAD PUSH1 0xFF AND PUSH2 0x174E JUMP JUMPDEST POP CALLVALUE PUSH2 0x3F8 JUMPI PUSH1 0x20 CALLDATASIZE PUSH1 0x3 NOT ADD SLT PUSH2 0x3F8 JUMPI PUSH1 0x4 CALLDATALOAD PUSH1 0xD DUP2 LT ISZERO PUSH2 0x1729 JUMPI PUSH1 0x20 SWAP1 PUSH1 0x9 ADD SLOAD PUSH1 0x40 MLOAD SWAP1 DUP2 MSTORE RETURN JUMPDEST POP CALLVALUE PUSH2 0x3F8 JUMPI DUP1 PUSH1 0x3 NOT CALLDATASIZE ADD SLT PUSH2 0x3F8 JUMPI PUSH2 0x100 PUSH2 0x1929 PUSH2 0x44F2 JUMP JUMPDEST SWAP6 PUSH1 0x40 SWAP6 SWAP2 SWAP6 SWAP5 SWAP3 SWAP5 MLOAD SWAP8 DUP9 MSTORE PUSH1 0x20 DUP9 ADD MSTORE PUSH1 0x40 DUP8 ADD MSTORE PUSH1 0x60 DUP7 ADD MSTORE PUSH1 0x80 DUP6 ADD MSTORE PUSH1 0xA0 DUP5 ADD MSTORE PUSH1 0xC0 DUP4 ADD MSTORE PUSH1 0xE0 DUP3 ADD MSTORE RETURN JUMPDEST POP CALLVALUE PUSH2 0x3F8 JUMPI DUP1 PUSH1 0x3 NOT CALLDATASIZE ADD SLT PUSH2 0x3F8 JUMPI PUSH1 0x20 PUSH1 0x7 SLOAD PUSH1 0x40 MLOAD SWAP1 DUP2 MSTORE RETURN JUMPDEST POP CALLVALUE PUSH2 0x3F8 JUMPI PUSH1 0x20 CALLDATASIZE PUSH1 0x3 NOT ADD SLT PUSH2 0x3F8 JUMPI PUSH2 0x19A2 PUSH1 0x4 CALLDATALOAD PUSH2 0x199D PUSH1 0xD DUP3 LT PUSH2 0x3271 JUMP JUMPDEST PUSH2 0x330F JUMP JUMPDEST PUSH1 0x64 PUSH2 0x19AD DUP3 PUSH2 0x32AD JUMP JUMPDEST DIV SWAP1 PUSH2 0x381 PUSH2 0x19BC DUP4 DUP4 PUSH2 0x3408 JUMP JUMPDEST PUSH1 0x40 MLOAD SWAP4 DUP5 SWAP4 DUP5 PUSH1 0x40 SWAP2 SWAP5 SWAP4 SWAP3 PUSH1 0x60 DUP3 ADD SWAP6 DUP3 MSTORE PUSH1 0x20 DUP3 ADD MSTORE ADD MSTORE JUMP JUMPDEST POP CALLVALUE PUSH2 0x3F8 JUMPI DUP1 PUSH1 0x3 NOT CALLDATASIZE ADD SLT PUSH2 0x3F8 JUMPI PUSH1 0x2 SLOAD PUSH1 0x40 MLOAD PUSH1 0x1 PUSH1 0x1 PUSH1 0xA0 SHL SUB SWAP1 SWAP2 AND DUP2 MSTORE PUSH1 0x20 SWAP1 RETURN JUMPDEST POP CALLVALUE PUSH2 0x3F8 JUMPI PUSH1 0x20 CALLDATASIZE PUSH1 0x3 NOT ADD SLT PUSH2 0x3F8 JUMPI PUSH2 0x1A1C PUSH2 0x30DE JUMP JUMPDEST PUSH2 0x1A24 PUSH2 0x3245 JUMP JUMPDEST PUSH1 0x1 PUSH1 0x1 PUSH1 0xA0 SHL SUB AND PUSH2 0x1A38 DUP2 ISZERO ISZERO PUSH2 0x33CA JUMP JUMPDEST DUP1 PUSH12 0xFFFFFFFFFFFFFFFFFFFFFFFF PUSH1 0xA0 SHL PUSH1 0x2 SLOAD AND OR PUSH1 0x2 SSTORE PUSH32 0xBB8D41C9907E8134230337C55FAEBD82117F5D9B99DA1AC1667FA3FE7786B465 PUSH1 0x20 PUSH1 0x40 MLOAD TIMESTAMP DUP2 MSTORE LOG2 DUP1 RETURN JUMPDEST POP CALLVALUE PUSH2 0x3F8 JUMPI DUP1 PUSH1 0x3 NOT CALLDATASIZE ADD SLT PUSH2 0x3F8 JUMPI PUSH2 0x1A97 PUSH2 0x3245 JUMP JUMPDEST PUSH1 0x0 PUSH1 0x1 SLOAD PUSH1 0x1 DUP1 PUSH1 0xA0 SHL SUB DUP2 AND SWAP1 DUP2 PUSH32 0x656BA3C6830B11142778BBCFAFF90D2ECC89186277667C2CE8700E4697DDCCC2 PUSH1 0x20 PUSH1 0x40 MLOAD TIMESTAMP DUP2 MSTORE LOG2 PUSH2 0x1AD9 PUSH2 0x3245 JUMP JUMPDEST PUSH1 0x1 PUSH1 0x1 PUSH1 0xA0 SHL SUB NOT AND PUSH1 0x1 SSTORE PUSH32 0x8BE0079C531659141344CD1FD0A4F28419497F9722A3DAAFE3B4186F6B6457E0 DUP3 DUP1 LOG3 DUP1 RETURN JUMPDEST POP CALLVALUE PUSH2 0x3F8 JUMPI PUSH1 0x20 CALLDATASIZE PUSH1 0x3 NOT ADD SLT PUSH2 0x3F8 JUMPI PUSH1 0x4 CALLDATALOAD PUSH2 0x1B2A PUSH2 0x3245 JUMP JUMPDEST DUP1 ISZERO DUP1 ISZERO DUP1 PUSH2 0x1BCE JUMPI JUMPDEST ISZERO PUSH2 0x1B96 JUMPI PUSH3 0x15180 SWAP1 DUP2 DUP4 MUL SWAP2 DUP4 DUP4 DIV EQ OR ISZERO PUSH2 0x1B82 JUMPI PUSH1 0x4 SSTORE PUSH1 0x40 DUP1 MLOAD SWAP2 DUP3 MSTORE TIMESTAMP PUSH1 0x20 DUP4 ADD MSTORE PUSH32 0x906B7C716ABE77CE683D8FB36D3428D70D84AE296249EFE4691B95EBE3242A88 SWAP2 LOG1 DUP1 RETURN JUMPDEST PUSH4 0x4E487B71 PUSH1 0xE0 SHL DUP4 MSTORE PUSH1 0x11 PUSH1 0x4 MSTORE PUSH1 0x24 DUP4 REVERT JUMPDEST PUSH1 0x40 MLOAD PUSH3 0x461BCD PUSH1 0xE5 SHL DUP2 MSTORE PUSH1 0x20 PUSH1 0x4 DUP3 ADD MSTORE PUSH1 0x10 PUSH1 0x24 DUP3 ADD MSTORE PUSH16 0x125B9D985B1A59081A5B9D195C9D985B PUSH1 0x82 SHL PUSH1 0x44 DUP3 ADD MSTORE PUSH1 0x64 SWAP1 REVERT JUMPDEST POP PUSH2 0x16D DUP3 GT ISZERO PUSH2 0x1B34 JUMP JUMPDEST POP CALLVALUE PUSH2 0x3F8 JUMPI PUSH1 0x20 DUP1 PUSH1 0x3 NOT CALLDATASIZE ADD SLT PUSH2 0x1729 JUMPI PUSH1 0x4 CALLDATALOAD SWAP1 PUSH2 0x1BF9 PUSH2 0x35D3 JUMP JUMPDEST CALLER DUP4 MSTORE PUSH1 0x19 DUP2 MSTORE PUSH1 0x40 DUP4 KECCAK256 SLOAD SWAP1 PUSH2 0x1C11 DUP3 ISZERO ISZERO PUSH2 0x377C JUMP JUMPDEST DUP2 DUP5 MSTORE PUSH1 0x1B DUP2 MSTORE PUSH1 0x40 DUP1 DUP6 KECCAK256 PUSH1 0x1 DUP2 ADD SLOAD SWAP1 SLOAD PUSH1 0x1A DUP5 MSTORE DUP3 DUP8 KECCAK256 SLOAD SWAP3 MLOAD PUSH4 0xC7403E1D PUSH1 0xE0 SHL DUP2 MSTORE PUSH1 0x4 DUP2 ADD DUP7 SWAP1 MSTORE PUSH1 0x24 DUP2 ADD DUP8 SWAP1 MSTORE PUSH32 0x0 PUSH1 0x44 DUP3 ADD MSTORE PUSH1 0x64 DUP2 ADD SWAP3 SWAP1 SWAP3 MSTORE PUSH1 0x84 DUP3 ADD MSTORE PUSH1 0x8 SWAP2 SWAP1 SWAP2 SHR PUSH1 0x1 PUSH1 0x1 PUSH1 0xA0 SHL SUB SWAP1 DUP2 AND PUSH1 0xA4 DUP4 ADD MSTORE DUP3 SWAP1 DUP3 SWAP1 DUP2 DUP9 DUP2 PUSH1 0xC4 DUP2 ADD PUSH2 0x1806 JUMP JUMPDEST POP CALLVALUE PUSH2 0x3F8 JUMPI DUP1 PUSH1 0x3 NOT CALLDATASIZE ADD SLT PUSH2 0x3F8 JUMPI PUSH1 0x20 SELFBALANCE PUSH1 0x40 MLOAD SWAP1 DUP2 MSTORE RETURN JUMPDEST POP CALLVALUE PUSH2 0x3F8 JUMPI DUP1 PUSH1 0x3 NOT CALLDATASIZE ADD SLT PUSH2 0x3F8 JUMPI PUSH2 0x1CD4 PUSH2 0x3245 JUMP JUMPDEST SELFBALANCE DUP1 ISZERO PUSH2 0x1D39 JUMPI PUSH1 0x1 SLOAD DUP3 SWAP2 DUP3 SWAP2 DUP3 SWAP2 DUP3 SWAP2 PUSH1 0x1 PUSH1 0x1 PUSH1 0xA0 SHL SUB AND GAS CALL PUSH2 0x1CF9 PUSH2 0x3593 JUMP JUMPDEST POP ISZERO PUSH2 0x1D02 JUMPI DUP1 RETURN JUMPDEST PUSH1 0x40 MLOAD PUSH3 0x461BCD PUSH1 0xE5 SHL DUP2 MSTORE PUSH1 0x20 PUSH1 0x4 DUP3 ADD MSTORE PUSH1 0xF PUSH1 0x24 DUP3 ADD MSTORE PUSH15 0x151C985B9CD9995C8819985A5B1959 PUSH1 0x8A SHL PUSH1 0x44 DUP3 ADD MSTORE PUSH1 0x64 SWAP1 REVERT JUMPDEST PUSH1 0x40 MLOAD PUSH3 0x461BCD PUSH1 0xE5 SHL DUP2 MSTORE PUSH1 0x20 PUSH1 0x4 DUP3 ADD MSTORE PUSH1 0x11 PUSH1 0x24 DUP3 ADD MSTORE PUSH17 0x273790212721103A37903932B1B7BB32B9 PUSH1 0x79 SHL PUSH1 0x44 DUP3 ADD MSTORE PUSH1 0x64 SWAP1 REVERT JUMPDEST POP CALLVALUE PUSH2 0x3F8 JUMPI DUP1 PUSH1 0x3 NOT CALLDATASIZE ADD SLT PUSH2 0x3F8 JUMPI PUSH1 0x20 PUSH1 0x40 MLOAD PUSH1 0x1 DUP2 MSTORE RETURN JUMPDEST POP CALLVALUE PUSH2 0x3F8 JUMPI DUP1 PUSH1 0x3 NOT CALLDATASIZE ADD SLT PUSH2 0x3F8 JUMPI PUSH1 0x20 PUSH1 0x5 SLOAD PUSH1 0x40 MLOAD SWAP1 DUP2 MSTORE RETURN JUMPDEST PUSH2 0x306A JUMP JUMPDEST POP CALLVALUE PUSH2 0x3F8 JUMPI PUSH1 0x20 CALLDATASIZE PUSH1 0x3 NOT ADD SLT PUSH2 0x3F8 JUMPI PUSH1 0x40 PUSH1 0xA0 SWAP2 PUSH1 0x4 CALLDATALOAD DUP2 MSTORE PUSH1 0x1B PUSH1 0x20 MSTORE KECCAK256 DUP1 SLOAD SWAP1 PUSH1 0x1 DUP2 ADD SLOAD SWAP1 PUSH1 0x2 DUP2 ADD SLOAD PUSH1 0x4 PUSH1 0x3 DUP4 ADD SLOAD SWAP3 ADD SLOAD SWAP3 PUSH1 0x40 MLOAD SWAP5 DUP6 MSTORE PUSH1 0x20 DUP6 ADD MSTORE PUSH1 0x40 DUP5 ADD MSTORE PUSH1 0x60 DUP4 ADD MSTORE PUSH1 0x80 DUP3 ADD MSTORE RETURN JUMPDEST POP CALLVALUE PUSH2 0x3F8 JUMPI DUP1 PUSH1 0x3 NOT CALLDATASIZE ADD SLT PUSH2 0x3F8 JUMPI PUSH1 0x20 PUSH1 0x4 SLOAD PUSH1 0x40 MLOAD SWAP1 DUP2 MSTORE RETURN JUMPDEST POP CALLVALUE PUSH2 0x3F8 JUMPI DUP1 PUSH1 0x3 NOT CALLDATASIZE ADD SLT PUSH2 0x3F8 JUMPI PUSH2 0x1E3F PUSH2 0x46CE JUMP JUMPDEST PUSH1 0x40 MLOAD SWAP1 SWAP4 SWAP1 SWAP3 DUP4 JUMPDEST PUSH1 0x4 DUP4 LT PUSH2 0x1E70 JUMPI PUSH2 0x180 DUP6 PUSH2 0xE3B DUP9 PUSH2 0x1E65 PUSH1 0x80 DUP5 ADD DUP10 PUSH2 0x30B4 JUMP JUMPDEST PUSH2 0x100 DUP4 ADD SWAP1 PUSH2 0x30B4 JUMP JUMPDEST PUSH1 0x1 SWAP1 DUP3 MLOAD DUP2 MSTORE PUSH1 0x20 DUP1 SWAP2 ADD SWAP3 ADD SWAP3 ADD SWAP2 SWAP1 PUSH2 0x1E48 JUMP JUMPDEST POP CALLVALUE PUSH2 0x3F8 JUMPI DUP1 PUSH1 0x3 NOT CALLDATASIZE ADD SLT PUSH2 0x3F8 JUMPI PUSH1 0x20 PUSH1 0xFF PUSH1 0x16 SLOAD AND PUSH1 0x40 MLOAD SWAP1 ISZERO ISZERO DUP2 MSTORE RETURN JUMPDEST POP CALLVALUE PUSH2 0x3F8 JUMPI PUSH1 0x60 CALLDATASIZE PUSH1 0x3 NOT ADD SLT PUSH2 0x3F8 JUMPI PUSH1 0x44 CALLDATALOAD SWAP1 PUSH1 0x4 CALLDATALOAD DUP2 MSTORE PUSH1 0x1C PUSH1 0x20 MSTORE PUSH1 0x40 DUP2 KECCAK256 PUSH1 0x24 CALLDATALOAD DUP3 MSTORE PUSH1 0x20 MSTORE PUSH1 0x40 DUP2 KECCAK256 SWAP1 DUP2 SLOAD DUP4 LT ISZERO PUSH2 0x3F8 JUMPI PUSH1 0x20 PUSH2 0x1EF0 DUP5 DUP5 PUSH2 0x3086 JUMP JUMPDEST SWAP1 SLOAD PUSH1 0x40 MLOAD SWAP2 PUSH1 0x3 SHL SHR DUP2 MSTORE RETURN JUMPDEST POP CALLVALUE PUSH2 0x3F8 JUMPI DUP1 PUSH1 0x3 NOT CALLDATASIZE ADD SLT PUSH2 0x3F8 JUMPI PUSH1 0x20 PUSH1 0x3 SLOAD PUSH1 0x40 MLOAD SWAP1 DUP2 MSTORE RETURN JUMPDEST POP CALLVALUE PUSH2 0x3F8 JUMPI PUSH1 0x20 CALLDATASIZE PUSH1 0x3 NOT ADD SLT PUSH2 0x3F8 JUMPI PUSH1 0x40 PUSH2 0x100 SWAP2 PUSH1 0x4 CALLDATALOAD DUP2 MSTORE PUSH1 0x1A PUSH1 0x20 MSTORE KECCAK256 DUP1 SLOAD SWAP1 PUSH1 0x1 DUP2 ADD SLOAD SWAP1 PUSH1 0x2 DUP2 ADD SLOAD PUSH1 0x3 DUP3 ADD SLOAD PUSH1 0x4 DUP4 ADD SLOAD SWAP2 PUSH1 0x6 PUSH1 0x5 DUP6 ADD SLOAD SWAP5 ADD SLOAD SWAP5 PUSH1 0x40 MLOAD SWAP7 PUSH1 0xFF DUP2 AND ISZERO ISZERO DUP9 MSTORE PUSH1 0x1 DUP1 PUSH1 0xA0 SHL SUB SWAP1 PUSH1 0x8 SHR AND PUSH1 0x20 DUP9 ADD MSTORE PUSH1 0x40 DUP8 ADD MSTORE PUSH1 0x60 DUP7 ADD MSTORE PUSH1 0x80 DUP6 ADD MSTORE PUSH1 0xA0 DUP5 ADD MSTORE PUSH1 0xC0 DUP4 ADD MSTORE PUSH1 0xE0 DUP3 ADD MSTORE RETURN JUMPDEST POP CALLVALUE PUSH2 0x3F8 JUMPI DUP1 PUSH1 0x3 NOT CALLDATASIZE ADD SLT PUSH2 0x3F8 JUMPI PUSH1 0x20 PUSH2 0x1FBB PUSH2 0x4853 JUMP JUMPDEST PUSH1 0x40 MLOAD SWAP1 DUP2 MSTORE RETURN JUMPDEST POP CALLVALUE PUSH2 0x3F8 JUMPI DUP1 PUSH1 0x3 NOT CALLDATASIZE ADD SLT PUSH2 0x3F8 JUMPI PUSH2 0x1FDC PUSH2 0x3245 JUMP JUMPDEST PUSH1 0x3 SLOAD PUSH1 0x40 MLOAD PUSH4 0x504E473 PUSH1 0xE4 SHL DUP2 MSTORE PUSH1 0x20 SWAP2 SWAP1 DUP3 DUP2 PUSH1 0x4 DUP2 ADDRESS GAS STATICCALL DUP5 SWAP2 DUP2 PUSH2 0x217C JUMPI JUMPDEST POP PUSH2 0x20AC JUMPI POP PUSH1 0x1 SWAP2 DUP4 PUSH1 0x3 RETURNDATASIZE GT PUSH2 0x209C JUMPI JUMPDEST PUSH4 0x8C379A0 EQ PUSH2 0x2033 JUMPI JUMPDEST POP POP PUSH2 0x2027 JUMPI DUP1 RETURN JUMPDEST PUSH1 0x40 MLOAD SWAP1 RETURNDATASIZE SWAP1 DUP3 RETURNDATACOPY RETURNDATASIZE SWAP1 REVERT JUMPDEST PUSH2 0x203B PUSH2 0x4953 JUMP JUMPDEST SWAP1 DUP2 PUSH2 0x2048 JUMPI JUMPDEST POP PUSH2 0x201E JUMP JUMPDEST PUSH32 0xF8917A6EC5E05F17A23C4CC821CA4E4C6D52FAB4DCB57F8667D6D078775B836F SWAP3 SWAP4 POP SWAP1 PUSH2 0x2087 SWAP2 DUP6 SWAP5 PUSH1 0x40 MLOAD SWAP4 DUP5 SWAP4 PUSH1 0x60 DUP6 MSTORE PUSH1 0x60 DUP6 ADD SWAP1 PUSH2 0x3A78 JUMP JUMPDEST SWAP2 DUP4 ADD MSTORE TIMESTAMP PUSH1 0x40 DUP4 ADD MSTORE SUB SWAP1 LOG1 CODESIZE DUP1 DUP1 PUSH2 0x2042 JUMP JUMPDEST POP PUSH1 0x4 DUP5 DUP1 RETURNDATACOPY DUP4 MLOAD PUSH1 0xE0 SHR PUSH2 0x2013 JUMP JUMPDEST SWAP2 PUSH1 0x7 SLOAD DUP4 LT ISZERO DUP1 PUSH2 0x2170 JUMPI JUMPDEST ISZERO PUSH2 0x210B JUMPI POP DUP2 PUSH32 0x2F363FD6FEF1150CAEE78EFFEB98F6B9E03526DAC46804B86A5F5F23909E840D SWAP3 PUSH1 0x3 SSTORE TIMESTAMP PUSH1 0x5 SSTORE PUSH2 0x11FC PUSH1 0x40 MLOAD SWAP3 DUP4 SWAP3 TIMESTAMP SWAP2 DUP5 PUSH1 0x40 SWAP2 SWAP5 SWAP4 SWAP3 PUSH1 0x60 DUP3 ADD SWAP6 DUP3 MSTORE PUSH1 0x20 DUP3 ADD MSTORE ADD MSTORE JUMP JUMPDEST PUSH1 0x40 MLOAD PUSH1 0x60 DUP1 DUP3 MSTORE PUSH1 0x13 SWAP1 DUP3 ADD MSTORE PUSH19 0x5072696365206F7574206F6620626F756E6473 PUSH1 0x68 SHL PUSH1 0x80 DUP3 ADD MSTORE PUSH32 0xF8917A6EC5E05F17A23C4CC821CA4E4C6D52FAB4DCB57F8667D6D078775B836F SWAP4 POP SWAP2 DUP3 SWAP2 SWAP1 PUSH1 0xA0 DUP4 ADD SWAP2 DUP4 ADD MSTORE TIMESTAMP PUSH1 0x40 DUP4 ADD MSTORE SUB SWAP1 LOG1 DUP1 RETURN JUMPDEST POP PUSH1 0x8 SLOAD DUP4 GT ISZERO PUSH2 0x20B9 JUMP JUMPDEST SWAP1 SWAP2 POP DUP4 DUP2 DUP2 RETURNDATASIZE DUP4 GT PUSH2 0x21A4 JUMPI JUMPDEST PUSH2 0x2194 DUP2 DUP4 PUSH2 0x3223 JUMP JUMPDEST DUP2 ADD SUB SLT PUSH2 0x1179 JUMPI MLOAD SWAP1 CODESIZE PUSH2 0x2000 JUMP JUMPDEST POP RETURNDATASIZE PUSH2 0x218A JUMP JUMPDEST POP CALLVALUE PUSH2 0x3F8 JUMPI DUP1 PUSH1 0x3 NOT CALLDATASIZE ADD SLT PUSH2 0x3F8 JUMPI PUSH1 0xC0 PUSH2 0x21C6 PUSH2 0x455D JUMP JUMPDEST SWAP4 PUSH1 0x40 SWAP4 SWAP2 SWAP4 MLOAD SWAP6 DUP7 MSTORE PUSH1 0x20 DUP7 ADD MSTORE PUSH1 0x40 DUP6 ADD MSTORE PUSH1 0x60 DUP5 ADD MSTORE PUSH1 0x80 DUP4 ADD MSTORE PUSH1 0xA0 DUP3 ADD MSTORE RETURN JUMPDEST POP PUSH2 0x21F5 CALLDATASIZE PUSH2 0x3054 JUMP JUMPDEST PUSH2 0x2200 SWAP3 SWAP2 SWAP3 PUSH2 0x35D3 JUMP JUMPDEST PUSH2 0x220F PUSH1 0xFF PUSH1 0x16 SLOAD AND ISZERO PUSH2 0x334B JUMP JUMPDEST DUP3 ISZERO ISZERO DUP1 PUSH2 0x2884 JUMPI JUMPDEST PUSH2 0x2224 SWAP1 SWAP4 SWAP2 SWAP4 PUSH2 0x35F6 JUMP JUMPDEST DUP1 DUP3 MSTORE PUSH1 0x1A PUSH1 0x20 MSTORE PUSH1 0x40 DUP3 KECCAK256 SLOAD PUSH2 0x224B SWAP1 CALLER PUSH1 0x8 SWAP2 SWAP1 SWAP2 SHR PUSH1 0x1 PUSH1 0x1 PUSH1 0xA0 SHL SUB AND EQ PUSH2 0x3634 JUMP JUMPDEST DUP1 DUP3 MSTORE PUSH1 0x1A PUSH1 0x20 MSTORE PUSH2 0x2269 PUSH1 0xD PUSH2 0x347 DUP6 PUSH1 0x3 PUSH1 0x40 DUP8 KECCAK256 ADD SLOAD PUSH2 0x3408 JUMP JUMPDEST DUP2 SWAP1 DUP3 SWAP4 JUMPDEST DUP1 DUP6 LT PUSH2 0x2844 JUMPI DUP4 SWAP5 POP PUSH2 0x2284 DUP4 CALLVALUE LT ISZERO PUSH2 0x36AF JUMP JUMPDEST DUP4 SWAP2 JUMPDEST DUP2 DUP4 LT PUSH2 0x22A0 JUMPI POP POP POP DUP1 CALLVALUE GT PUSH2 0x4EF JUMPI POP PUSH1 0x1 SWAP1 SSTORE DUP1 RETURN JUMPDEST DUP1 SWAP2 SWAP3 SWAP5 MSTORE PUSH1 0x1A PUSH1 0x20 MSTORE PUSH2 0x22BB DUP5 PUSH1 0x3 PUSH1 0x40 DUP9 KECCAK256 ADD SLOAD PUSH2 0x3408 JUMP JUMPDEST DUP1 PUSH1 0x0 NOT DUP2 ADD GT PUSH2 0x13EB JUMPI PUSH2 0x22D3 SWAP1 PUSH1 0x0 NOT ADD PUSH2 0x330F JUMP JUMPDEST PUSH1 0x64 PUSH2 0x22DE DUP3 PUSH2 0x32AD JUMP JUMPDEST DIV DUP3 DUP8 MSTORE PUSH1 0x1A PUSH1 0x20 MSTORE PUSH1 0x3 PUSH1 0x40 DUP9 KECCAK256 ADD PUSH2 0x22F8 DUP2 SLOAD PUSH2 0x34D6 JUMP JUMPDEST SWAP1 SSTORE DUP3 DUP8 MSTORE PUSH1 0x1B PUSH1 0x20 MSTORE PUSH1 0x40 DUP8 KECCAK256 PUSH2 0x2311 DUP4 DUP3 SLOAD PUSH2 0x3408 JUMP JUMPDEST SWAP1 SSTORE DUP1 PUSH2 0x27A5 JUMPI JUMPDEST POP PUSH1 0x64 PUSH2 0x2325 DUP3 PUSH2 0x32AD JUMP JUMPDEST DIV SWAP5 DUP6 PUSH2 0x2734 JUMPI JUMPDEST PUSH2 0x2337 DUP3 DUP5 PUSH2 0x3BA6 JUMP JUMPDEST SWAP6 DUP4 DUP9 MSTORE PUSH1 0x1A PUSH1 0x20 MSTORE PUSH1 0x3 PUSH1 0x40 DUP10 KECCAK256 ADD SLOAD SWAP7 DUP8 PUSH1 0x0 NOT DUP2 ADD GT PUSH2 0x2720 JUMPI SWAP1 PUSH2 0x235E SWAP2 PUSH2 0x3586 JUMP JUMPDEST PUSH1 0x0 DUP5 DUP2 MSTORE PUSH1 0x1A PUSH1 0x20 MSTORE PUSH1 0x40 DUP2 KECCAK256 PUSH1 0x2 ADD SLOAD DUP2 SWAP1 JUMPDEST DUP11 PUSH1 0xD DUP4 LT DUP1 PUSH2 0x2717 JUMPI JUMPDEST ISZERO PUSH2 0x270E JUMPI POP DUP1 PUSH1 0x0 MSTORE PUSH1 0x1A PUSH1 0x20 MSTORE PUSH1 0x40 PUSH1 0x0 KECCAK256 PUSH1 0x0 NOT DUP12 ADD PUSH1 0x3 DUP3 ADD SLOAD GT DUP1 PUSH2 0x26FF JUMPI JUMPDEST ISZERO PUSH2 0x2626 JUMPI POP DUP1 SWAP2 SWAP3 POP PUSH1 0x0 MSTORE PUSH1 0x1A PUSH1 0x20 MSTORE PUSH1 0x0 DUP1 DUP1 DUP1 DUP7 PUSH1 0x1 DUP1 PUSH1 0xA0 SHL SUB PUSH1 0x40 DUP4 KECCAK256 SLOAD PUSH1 0x8 SHR AND GAS CALL PUSH2 0x23D5 PUSH2 0x3593 JUMP JUMPDEST POP ISZERO PUSH2 0x25EA JUMPI DUP1 PUSH1 0x0 MSTORE PUSH1 0x1B PUSH1 0x20 MSTORE PUSH1 0x4 PUSH1 0x40 PUSH1 0x0 KECCAK256 ADD PUSH2 0x23F7 DUP5 DUP3 SLOAD PUSH2 0x3408 JUMP JUMPDEST SWAP1 SSTORE DUP1 PUSH1 0x0 MSTORE PUSH1 0x1B PUSH1 0x20 MSTORE PUSH1 0x1 PUSH1 0x40 PUSH1 0x0 KECCAK256 ADD PUSH2 0x2415 DUP5 DUP3 SLOAD PUSH2 0x3408 JUMP JUMPDEST SWAP1 SSTORE PUSH1 0x1 SWAP2 PUSH1 0x1 DUP2 ADD DUP2 GT PUSH2 0x895 JUMPI PUSH1 0x40 DUP1 MLOAD DUP6 DUP2 MSTORE PUSH1 0x0 NOT SWAP12 SWAP1 SWAP12 ADD PUSH1 0x20 DUP13 ADD MSTORE PUSH1 0x1 SWAP2 DUP3 ADD SWAP1 DUP12 ADD MSTORE PUSH1 0x60 DUP11 ADD MSTORE TIMESTAMP PUSH1 0x80 DUP11 ADD MSTORE DUP10 SWAP9 DUP7 SWAP1 PUSH1 0x0 DUP1 MLOAD PUSH1 0x20 PUSH2 0x49D8 DUP4 CODECOPY DUP2 MLOAD SWAP2 MSTORE SWAP1 PUSH1 0xA0 SWAP1 LOG3 JUMPDEST ISZERO DUP1 PUSH2 0x25E1 JUMPI JUMPDEST PUSH2 0x25CB JUMPI JUMPDEST POP DUP3 DUP7 MSTORE PUSH1 0x1A PUSH1 0x20 MSTORE PUSH1 0x40 DUP7 KECCAK256 PUSH1 0x3 DUP2 ADD SLOAD PUSH1 0x4 SWAP1 SWAP2 ADD SLOAD SWAP1 PUSH32 0x0 PUSH1 0x1 PUSH1 0x1 PUSH1 0xA0 SHL SUB AND EXTCODESIZE ISZERO PUSH2 0x25C7 JUMPI PUSH1 0x40 MLOAD PUSH4 0x66F05661 PUSH1 0xE1 SHL DUP2 MSTORE PUSH1 0x4 DUP2 ADD DUP7 SWAP1 MSTORE PUSH1 0x24 DUP2 ADD SWAP2 SWAP1 SWAP2 MSTORE PUSH1 0x44 DUP2 ADD SWAP2 SWAP1 SWAP2 MSTORE DUP7 DUP2 PUSH1 0x64 DUP2 DUP4 PUSH1 0x1 PUSH1 0x1 PUSH1 0xA0 SHL SUB PUSH32 0x0 AND GAS CALL DUP1 ISZERO PUSH2 0x25BC JUMPI DUP5 SWAP2 DUP9 SWAP2 PUSH2 0x25A1 JUMPI JUMPDEST POP PUSH2 0x259A SWAP4 DUP3 PUSH32 0x430828E9E608608C6F34402A3BBF7CCFF1CD71AC750C401A12C72E4578350F96 SWAP3 MSTORE PUSH1 0x1A PUSH1 0x20 MSTORE PUSH1 0x3 PUSH1 0x40 DUP11 KECCAK256 ADD SLOAD SWAP1 PUSH2 0x2577 PUSH1 0x40 MLOAD SWAP3 DUP4 SWAP3 TIMESTAMP SWAP2 DUP5 PUSH1 0x40 SWAP2 SWAP5 SWAP4 SWAP3 PUSH1 0x60 DUP3 ADD SWAP6 DUP3 MSTORE PUSH1 0x20 DUP3 ADD MSTORE ADD MSTORE JUMP JUMPDEST SUB SWAP1 LOG2 DUP3 DUP7 MSTORE PUSH1 0x1A PUSH1 0x20 MSTORE PUSH2 0x81C PUSH1 0x3 PUSH1 0x40 DUP9 KECCAK256 ADD SLOAD PUSH1 0x40 MLOAD SWAP1 PUSH2 0x809 DUP3 PUSH2 0x3196 JUMP JUMPDEST SWAP2 SWAP1 PUSH2 0x2287 JUMP JUMPDEST PUSH2 0x25AC SWAP2 SWAP3 POP PUSH2 0x316C JUMP JUMPDEST PUSH2 0x25B8 JUMPI DUP3 DUP7 CODESIZE PUSH2 0x251E JUMP JUMPDEST DUP6 DUP1 REVERT JUMPDEST PUSH1 0x40 MLOAD RETURNDATASIZE DUP10 DUP3 RETURNDATACOPY RETURNDATASIZE SWAP1 REVERT JUMPDEST DUP8 DUP1 REVERT JUMPDEST PUSH1 0x40 MLOAD PUSH2 0x25DB SWAP2 PUSH2 0x861 DUP3 PUSH2 0x31B2 JUMP JUMPDEST CODESIZE PUSH2 0x2470 JUMP JUMPDEST POP DUP1 ISZERO ISZERO PUSH2 0x246B JUMP JUMPDEST POP POP SWAP6 POP DUP3 PUSH1 0x0 MSTORE PUSH1 0x1A PUSH1 0x20 MSTORE PUSH1 0x0 DUP1 DUP1 DUP1 DUP10 PUSH1 0x1 DUP1 PUSH1 0xA0 SHL SUB PUSH1 0x40 DUP4 KECCAK256 SLOAD PUSH1 0x8 SHR AND GAS CALL PUSH2 0x2617 PUSH2 0x3593 JUMP JUMPDEST POP ISZERO PUSH2 0x8E7 JUMPI DUP7 SWAP6 PUSH1 0x1 PUSH2 0x2464 JUMP JUMPDEST SLOAD PUSH1 0xFF AND PUSH2 0x264F JUMPI JUMPDEST PUSH1 0x0 MSTORE PUSH1 0x1A PUSH1 0x20 MSTORE PUSH2 0x2649 PUSH1 0x2 PUSH1 0x40 PUSH1 0x0 KECCAK256 ADD SLOAD SWAP2 PUSH2 0x34D6 JUMP JUMPDEST SWAP1 PUSH2 0x2373 JUMP JUMPDEST PUSH1 0x1 DUP3 ADD DUP3 GT PUSH2 0x895 JUMPI PUSH1 0x40 DUP1 MLOAD DUP6 DUP2 MSTORE PUSH1 0x0 NOT DUP13 ADD PUSH1 0x20 DUP3 ADD MSTORE PUSH1 0x1 DUP5 ADD SWAP2 DUP2 ADD SWAP2 SWAP1 SWAP2 MSTORE PUSH1 0x0 PUSH1 0x60 DUP3 ADD MSTORE TIMESTAMP PUSH1 0x80 DUP3 ADD MSTORE DUP2 SWAP1 DUP9 SWAP1 PUSH1 0x0 DUP1 MLOAD PUSH1 0x20 PUSH2 0x49D8 DUP4 CODECOPY DUP2 MLOAD SWAP2 MSTORE SWAP1 PUSH1 0xA0 SWAP1 LOG3 DUP7 DUP2 PUSH32 0x587D8F9CC4F7AE2F12F916B8AC03AC5414969DFAF447B84ACBB1E2B171CB7EB2 PUSH1 0xA0 PUSH1 0x40 MLOAD DUP9 DUP2 MSTORE PUSH1 0x18 PUSH1 0x60 DUP1 PUSH1 0x20 DUP5 ADD MSTORE DUP3 ADD MSTORE PUSH24 0x9CDEE840E2EAC2D8D2CCD2CAC840CCDEE440DAC2E8E4D2F PUSH1 0x43 SHL PUSH1 0x80 DUP3 ADD MSTORE TIMESTAMP PUSH1 0x40 DUP3 ADD MSTORE LOG3 PUSH2 0x262F JUMP JUMPDEST POP PUSH1 0x2 PUSH1 0x4 DUP3 ADD SLOAD LT ISZERO PUSH2 0x23A3 JUMP JUMPDEST SWAP10 POP POP POP PUSH2 0x2464 JUMP JUMPDEST POP DUP2 ISZERO ISZERO PUSH2 0x237E JUMP JUMPDEST PUSH4 0x4E487B71 PUSH1 0xE0 SHL DUP10 MSTORE PUSH1 0x11 PUSH1 0x4 MSTORE PUSH1 0x24 DUP10 REVERT JUMPDEST PUSH2 0x2770 DUP8 DUP1 DUP1 DUP1 DUP11 PUSH32 0x0 PUSH1 0x1 PUSH1 0x1 PUSH1 0xA0 SHL SUB AND GAS CALL PUSH2 0xA6D PUSH2 0x3593 JUMP JUMPDEST DUP3 PUSH32 0xB74A7140EF81C80D0E213846B7B10B59F9C366B463E36E1F98BF00EF44C670B4 PUSH1 0x40 DUP1 MLOAD DUP10 DUP2 MSTORE TIMESTAMP PUSH1 0x20 DUP3 ADD MSTORE LOG2 PUSH2 0x232D JUMP JUMPDEST PUSH2 0x27E1 DUP8 DUP1 DUP1 DUP1 DUP6 PUSH32 0x0 PUSH1 0x1 PUSH1 0x1 PUSH1 0xA0 SHL SUB AND GAS CALL PUSH2 0xAE4 PUSH2 0x3593 JUMP JUMPDEST DUP3 DUP8 MSTORE PUSH1 0x1A PUSH1 0x20 MSTORE PUSH1 0x3 PUSH1 0x40 DUP9 KECCAK256 ADD SLOAD SWAP1 DUP2 PUSH1 0x0 NOT DUP2 ADD GT PUSH2 0xA1D JUMPI PUSH1 0x40 DUP1 MLOAD SWAP2 DUP3 MSTORE PUSH1 0x0 NOT SWAP3 SWAP1 SWAP3 ADD PUSH1 0x20 DUP3 ADD MSTORE TIMESTAMP SWAP2 DUP2 ADD SWAP2 SWAP1 SWAP2 MSTORE PUSH32 0xEDD09F264659CE99B52FD2A2D4F09E551EB001FE3FC56FFD5704FC1F402BC211 SWAP1 PUSH1 0x60 SWAP1 LOG1 CODESIZE PUSH2 0x2319 JUMP JUMPDEST SWAP2 DUP2 DUP5 MSTORE PUSH1 0x1A PUSH1 0x20 MSTORE PUSH2 0x285E DUP6 PUSH1 0x3 PUSH1 0x40 DUP8 KECCAK256 ADD SLOAD PUSH2 0x3408 JUMP JUMPDEST PUSH1 0x0 NOT DUP2 ADD SWAP1 DUP2 GT PUSH2 0xB61 JUMPI PUSH2 0x287D SWAP2 PUSH2 0xBAE PUSH2 0x3B2 PUSH2 0x3D6 SWAP4 PUSH2 0x330F JUMP JUMPDEST SWAP4 SWAP2 PUSH2 0x226E JUMP JUMPDEST POP DUP3 DUP3 MSTORE PUSH1 0x1A PUSH1 0x20 MSTORE PUSH1 0x40 DUP3 KECCAK256 SLOAD PUSH1 0xFF AND PUSH2 0x2218 JUMP JUMPDEST POP CALLVALUE PUSH2 0x3F8 JUMPI DUP1 PUSH1 0x3 NOT CALLDATASIZE ADD SLT PUSH2 0x3F8 JUMPI PUSH2 0x28B3 PUSH2 0x3245 JUMP JUMPDEST PUSH1 0x16 SLOAD PUSH1 0xFF DUP2 AND PUSH2 0x28F8 JUMPI PUSH1 0x1 SWAP1 PUSH1 0xFF NOT AND OR PUSH1 0x16 SSTORE PUSH1 0x40 MLOAD TIMESTAMP DUP2 MSTORE PUSH32 0x80170B5FCDD2BF1E0660EF4B8851F86685F64D41B1A19DE1471947ECE8725AAC PUSH1 0x20 CALLER SWAP3 LOG2 DUP1 RETURN JUMPDEST PUSH1 0x40 MLOAD PUSH3 0x461BCD PUSH1 0xE5 SHL DUP2 MSTORE PUSH1 0x20 PUSH1 0x4 DUP3 ADD MSTORE PUSH1 0xE PUSH1 0x24 DUP3 ADD MSTORE PUSH14 0x105B1C9958591E481C185D5CD959 PUSH1 0x92 SHL PUSH1 0x44 DUP3 ADD MSTORE PUSH1 0x64 SWAP1 REVERT JUMPDEST POP CALLVALUE PUSH2 0x3F8 JUMPI DUP1 PUSH1 0x3 NOT CALLDATASIZE ADD SLT PUSH2 0x3F8 JUMPI PUSH2 0x2947 PUSH2 0x3245 JUMP JUMPDEST PUSH32 0x0 SWAP1 DUP2 DUP2 MSTORE PUSH1 0x1A PUSH1 0x20 MSTORE PUSH1 0xD PUSH1 0x3 PUSH1 0x40 DUP4 KECCAK256 ADD SLOAD SUB PUSH2 0x2AFB JUMPI PUSH32 0x0 PUSH1 0x1 PUSH1 0x1 PUSH1 0xA0 SHL SUB AND DUP1 EXTCODESIZE ISZERO PUSH2 0x1729 JUMPI PUSH1 0x40 MLOAD SWAP3 PUSH4 0x66F05661 PUSH1 0xE1 SHL SWAP1 DUP2 DUP6 MSTORE DUP1 PUSH1 0x4 DUP7 ADD MSTORE PUSH1 0xA PUSH1 0x24 DUP7 ADD MSTORE DUP4 PUSH1 0x44 DUP7 ADD MSTORE DUP4 DUP6 PUSH1 0x64 DUP2 DUP4 DUP8 GAS CALL DUP1 ISZERO PUSH2 0x2AF0 JUMPI PUSH2 0x2ADC JUMPI JUMPDEST DUP4 SWAP5 POP DUP3 EXTCODESIZE ISZERO PUSH2 0x2AAF JUMPI PUSH1 0x40 MLOAD DUP3 DUP2 MSTORE DUP2 PUSH1 0x4 DUP3 ADD MSTORE PUSH1 0xB PUSH1 0x24 DUP3 ADD MSTORE DUP5 PUSH1 0x44 DUP3 ADD MSTORE DUP5 DUP2 PUSH1 0x64 DUP2 DUP4 DUP9 GAS CALL SWAP1 DUP2 ISZERO PUSH2 0x18BF JUMPI DUP6 SWAP2 PUSH2 0x2AC8 JUMPI JUMPDEST POP POP DUP3 EXTCODESIZE ISZERO PUSH2 0x2AAF JUMPI PUSH1 0x40 MLOAD DUP3 DUP2 MSTORE DUP2 PUSH1 0x4 DUP3 ADD MSTORE PUSH1 0xC PUSH1 0x24 DUP3 ADD MSTORE DUP5 PUSH1 0x44 DUP3 ADD MSTORE DUP5 DUP2 PUSH1 0x64 DUP2 DUP4 DUP9 GAS CALL SWAP1 DUP2 ISZERO PUSH2 0x18BF JUMPI DUP6 SWAP2 PUSH2 0x2AB4 JUMPI JUMPDEST POP POP DUP3 EXTCODESIZE ISZERO PUSH2 0x2AAF JUMPI PUSH1 0x64 DUP5 SWAP3 DUP4 PUSH1 0x40 MLOAD SWAP6 DUP7 SWAP5 DUP6 SWAP4 DUP5 MSTORE PUSH1 0x4 DUP5 ADD MSTORE PUSH1 0xD PUSH1 0x24 DUP5 ADD MSTORE DUP2 PUSH1 0x44 DUP5 ADD MSTORE GAS CALL DUP1 ISZERO PUSH2 0x2AA4 JUMPI PUSH2 0x2A94 JUMPI POP RETURN JUMPDEST PUSH2 0x2A9D SWAP1 PUSH2 0x316C JUMP JUMPDEST PUSH2 0x3F8 JUMPI DUP1 RETURN JUMPDEST PUSH1 0x40 MLOAD RETURNDATASIZE DUP5 DUP3 RETURNDATACOPY RETURNDATASIZE SWAP1 REVERT JUMPDEST POP POP POP REVERT JUMPDEST PUSH2 0x2ABD SWAP1 PUSH2 0x316C JUMP JUMPDEST PUSH2 0x2AAF JUMPI DUP4 CODESIZE PUSH2 0x2A5B JUMP JUMPDEST PUSH2 0x2AD1 SWAP1 PUSH2 0x316C JUMP JUMPDEST PUSH2 0x2AAF JUMPI DUP4 CODESIZE PUSH2 0x2A22 JUMP JUMPDEST SWAP3 SWAP1 SWAP4 PUSH2 0x2AE8 SWAP1 PUSH2 0x316C JUMP JUMPDEST SWAP2 DUP4 SWAP1 PUSH2 0x29E8 JUMP JUMPDEST PUSH1 0x40 MLOAD RETURNDATASIZE DUP7 DUP3 RETURNDATACOPY RETURNDATASIZE SWAP1 REVERT JUMPDEST PUSH1 0x40 MLOAD PUSH3 0x461BCD PUSH1 0xE5 SHL DUP2 MSTORE PUSH1 0x20 PUSH1 0x4 DUP3 ADD MSTORE PUSH1 0x15 PUSH1 0x24 DUP3 ADD MSTORE PUSH21 0x149BDBDD081B9BDD08185D081B585E081B195D995B PUSH1 0x5A SHL PUSH1 0x44 DUP3 ADD MSTORE PUSH1 0x64 SWAP1 REVERT JUMPDEST POP CALLVALUE PUSH2 0x3F8 JUMPI DUP1 PUSH1 0x3 NOT CALLDATASIZE ADD SLT PUSH2 0x3F8 JUMPI PUSH1 0x20 PUSH1 0xFF PUSH1 0x6 SLOAD AND PUSH1 0x40 MLOAD SWAP1 ISZERO ISZERO DUP2 MSTORE RETURN JUMPDEST POP CALLVALUE PUSH2 0x3F8 JUMPI DUP1 PUSH1 0x3 NOT CALLDATASIZE ADD SLT PUSH2 0x3F8 JUMPI PUSH2 0x2B74 PUSH2 0x32E3 JUMP JUMPDEST PUSH1 0x64 PUSH2 0x2B7F DUP3 PUSH2 0x32AD JUMP JUMPDEST DIV PUSH2 0x381 PUSH2 0x2B8D DUP3 DUP5 PUSH2 0x3408 JUMP JUMPDEST SWAP2 PUSH1 0x40 MLOAD SWAP4 DUP5 SWAP4 DUP5 PUSH1 0x40 SWAP2 SWAP5 SWAP4 SWAP3 PUSH1 0x60 DUP3 ADD SWAP6 DUP3 MSTORE PUSH1 0x20 DUP3 ADD MSTORE ADD MSTORE JUMP JUMPDEST POP CALLVALUE PUSH2 0x3F8 JUMPI PUSH1 0x20 CALLDATASIZE PUSH1 0x3 NOT ADD SLT PUSH2 0x3F8 JUMPI PUSH1 0x20 PUSH2 0x1FBB PUSH1 0x4 CALLDATALOAD PUSH2 0x330F JUMP JUMPDEST POP CALLVALUE PUSH2 0x3F8 JUMPI PUSH1 0x20 CALLDATASIZE PUSH1 0x3 NOT ADD SLT PUSH2 0x3F8 JUMPI PUSH1 0x40 PUSH1 0x20 SWAP2 PUSH1 0x4 CALLDATALOAD DUP2 MSTORE PUSH1 0x1E DUP4 MSTORE KECCAK256 SLOAD PUSH1 0x40 MLOAD SWAP1 DUP2 MSTORE RETURN JUMPDEST POP CALLVALUE PUSH2 0x3F8 JUMPI PUSH1 0x40 CALLDATASIZE PUSH1 0x3 NOT ADD SLT PUSH2 0x3F8 JUMPI PUSH1 0x4 CALLDATALOAD SWAP1 PUSH1 0xFF DUP3 AND DUP1 DUP4 SUB PUSH2 0x1729 JUMPI PUSH1 0x24 SWAP3 DUP4 CALLDATALOAD SWAP1 PUSH2 0x2C23 PUSH2 0x3245 JUMP JUMPDEST PUSH2 0x2C2F PUSH1 0xD DUP5 LT PUSH2 0x3271 JUMP JUMPDEST DUP2 ISZERO PUSH2 0x2E57 JUMPI PUSH8 0xDE0B6B3A7640000 DUP3 LT PUSH2 0x2E1B JUMPI PUSH10 0x152D02C7E14AF6800000 DUP3 GT PUSH2 0x2DD7 JUMPI DUP3 PUSH2 0x2D6B JUMPI JUMPDEST PUSH1 0xC DUP4 LT PUSH2 0x2CCA JUMPI JUMPDEST PUSH1 0xD DUP2 LT ISZERO PUSH2 0x2CB6 JUMPI PUSH1 0x9 ADD DUP1 SLOAD SWAP1 DUP3 SWAP1 SSTORE PUSH1 0x40 DUP1 MLOAD SWAP2 DUP3 MSTORE PUSH1 0x20 DUP3 ADD SWAP3 SWAP1 SWAP3 MSTORE TIMESTAMP SWAP2 DUP2 ADD SWAP2 SWAP1 SWAP2 MSTORE PUSH32 0x1160DED273713B62692B83F3F861BFEF99579EAF0440D7A22D838A3D163922E SWAP1 PUSH1 0x60 SWAP1 LOG2 DUP1 RETURN JUMPDEST POP POP PUSH4 0x4E487B71 PUSH1 0xE0 SHL DUP3 MSTORE POP PUSH1 0x32 PUSH1 0x4 MSTORE REVERT JUMPDEST PUSH2 0x2CD3 DUP2 PUSH2 0x37B9 JUMP JUMPDEST PUSH1 0xD DUP2 LT ISZERO PUSH2 0x2D58 JUMPI PUSH1 0x9 ADD SLOAD DUP3 LT DUP1 ISZERO PUSH2 0x2D3B JUMPI JUMPDEST PUSH2 0x2C64 JUMPI PUSH1 0x40 MLOAD PUSH3 0x461BCD PUSH1 0xE5 SHL DUP2 MSTORE PUSH1 0x20 PUSH1 0x4 DUP3 ADD MSTORE PUSH1 0x21 DUP2 DUP8 ADD MSTORE PUSH32 0x436F7374206D757374206265206C657373207468616E206E657874206C657665 PUSH1 0x44 DUP3 ADD MSTORE PUSH1 0x1B PUSH1 0xFA SHL PUSH1 0x64 DUP3 ADD MSTORE PUSH1 0x84 SWAP1 REVERT JUMPDEST POP PUSH2 0x2D45 DUP2 PUSH2 0x37B9 JUMP JUMPDEST PUSH1 0xD DUP2 LT ISZERO PUSH2 0x2D58 JUMPI PUSH1 0x9 ADD SLOAD ISZERO PUSH2 0x2CE9 JUMP JUMPDEST PUSH4 0x4E487B71 PUSH1 0xE0 SHL DUP6 MSTORE PUSH1 0x32 PUSH1 0x4 MSTORE DUP6 DUP6 REVERT JUMPDEST PUSH1 0x0 NOT DUP4 ADD PUSH1 0xFF DUP2 GT PUSH2 0x2DC4 JUMPI PUSH1 0xD GT ISZERO PUSH2 0x2CB6 JUMPI PUSH1 0x8 DUP4 ADD SLOAD DUP3 GT PUSH2 0x2C5B JUMPI PUSH1 0x40 MLOAD PUSH3 0x461BCD PUSH1 0xE5 SHL DUP2 MSTORE PUSH1 0x20 PUSH1 0x4 DUP3 ADD MSTORE PUSH1 0x12 DUP2 DUP8 ADD MSTORE PUSH18 0x436F7374206D75737420696E637265617365 PUSH1 0x70 SHL PUSH1 0x44 DUP3 ADD MSTORE PUSH1 0x64 SWAP1 REVERT JUMPDEST PUSH4 0x4E487B71 PUSH1 0xE0 SHL DUP6 MSTORE PUSH1 0x11 PUSH1 0x4 MSTORE DUP6 DUP6 REVERT JUMPDEST PUSH1 0x40 MLOAD PUSH3 0x461BCD PUSH1 0xE5 SHL DUP2 MSTORE PUSH1 0x20 PUSH1 0x4 DUP3 ADD MSTORE PUSH1 0x1B DUP2 DUP8 ADD MSTORE PUSH32 0x4D6178696D756D20636F7374206973203130302C30303020424E420000000000 PUSH1 0x44 DUP3 ADD MSTORE PUSH1 0x64 SWAP1 REVERT JUMPDEST PUSH1 0x40 MLOAD PUSH3 0x461BCD PUSH1 0xE5 SHL DUP2 MSTORE PUSH1 0x20 PUSH1 0x4 DUP3 ADD MSTORE PUSH1 0x15 DUP2 DUP8 ADD MSTORE PUSH21 0x26B4B734B6BAB69031B7B9BA1034B9901890212721 PUSH1 0x59 SHL PUSH1 0x44 DUP3 ADD MSTORE PUSH1 0x64 SWAP1 REVERT JUMPDEST PUSH1 0x40 MLOAD PUSH3 0x461BCD PUSH1 0xE5 SHL DUP2 MSTORE PUSH1 0x20 PUSH1 0x4 DUP3 ADD MSTORE PUSH1 0x15 DUP2 DUP8 ADD MSTORE PUSH21 0x436F7374206D75737420626520706F736974697665 PUSH1 0x58 SHL PUSH1 0x44 DUP3 ADD MSTORE PUSH1 0x64 SWAP1 REVERT JUMPDEST POP CALLVALUE PUSH2 0x3F8 JUMPI DUP1 PUSH1 0x3 NOT CALLDATASIZE ADD SLT PUSH2 0x3F8 JUMPI PUSH1 0x20 PUSH1 0x8 SLOAD PUSH1 0x40 MLOAD SWAP1 DUP2 MSTORE RETURN JUMPDEST POP CALLVALUE PUSH2 0x3F8 JUMPI PUSH2 0x2EC0 CALLDATASIZE PUSH2 0x3054 JUMP JUMPDEST SWAP1 PUSH2 0x2EC9 PUSH2 0x3245 JUMP JUMPDEST DUP1 ISZERO ISZERO DUP1 PUSH2 0x2F59 JUMPI JUMPDEST ISZERO PUSH2 0x2F23 JUMPI PUSH32 0x55C3A078A4DD343C06964318BDE751610B3227BE1C0688D1F85E0F88EDD09C4F SWAP2 DUP2 PUSH1 0x7 SSTORE DUP1 PUSH1 0x8 SSTORE PUSH2 0x11FC PUSH1 0x40 MLOAD SWAP3 DUP4 SWAP3 TIMESTAMP SWAP2 DUP5 PUSH1 0x40 SWAP2 SWAP5 SWAP4 SWAP3 PUSH1 0x60 DUP3 ADD SWAP6 DUP3 MSTORE PUSH1 0x20 DUP3 ADD MSTORE ADD MSTORE JUMP JUMPDEST PUSH1 0x40 MLOAD PUSH3 0x461BCD PUSH1 0xE5 SHL DUP2 MSTORE PUSH1 0x20 PUSH1 0x4 DUP3 ADD MSTORE PUSH1 0xE PUSH1 0x24 DUP3 ADD MSTORE PUSH14 0x496E76616C696420626F756E6473 PUSH1 0x90 SHL PUSH1 0x44 DUP3 ADD MSTORE PUSH1 0x64 SWAP1 REVERT JUMPDEST POP DUP1 DUP3 GT PUSH2 0x2ED2 JUMP JUMPDEST POP CALLVALUE PUSH2 0x3F8 JUMPI PUSH1 0x20 CALLDATASIZE PUSH1 0x3 NOT ADD SLT PUSH2 0x3F8 JUMPI PUSH32 0x2F363FD6FEF1150CAEE78EFFEB98F6B9E03526DAC46804B86A5F5F23909E840D PUSH1 0x4 CALLDATALOAD PUSH2 0x2FA0 PUSH2 0x3245 JUMP JUMPDEST PUSH2 0x2FAB DUP2 ISZERO ISZERO PUSH2 0x37CB JUMP JUMPDEST PUSH1 0x3 SLOAD SWAP1 DUP1 PUSH1 0x3 SSTORE PUSH2 0x11FC PUSH1 0x40 MLOAD SWAP3 DUP4 SWAP3 TIMESTAMP SWAP2 DUP5 PUSH1 0x40 SWAP2 SWAP5 SWAP4 SWAP3 PUSH1 0x60 DUP3 ADD SWAP6 DUP3 MSTORE PUSH1 0x20 DUP3 ADD MSTORE ADD MSTORE JUMP JUMPDEST DUP3 CALLVALUE PUSH2 0x3F8 JUMPI PUSH1 0x20 CALLDATASIZE PUSH1 0x3 NOT ADD SLT PUSH2 0x3F8 JUMPI PUSH1 0x4 CALLDATALOAD DUP1 DUP3 MSTORE PUSH1 0x1A PUSH1 0x20 MSTORE PUSH1 0xFF PUSH1 0x40 DUP4 KECCAK256 SLOAD AND ISZERO PUSH2 0x3021 JUMPI PUSH1 0x20 SWAP3 POP DUP2 MSTORE PUSH1 0x1A DUP3 MSTORE PUSH1 0x40 PUSH1 0x1 DUP1 PUSH1 0xA0 SHL SUB SWAP2 KECCAK256 SLOAD PUSH1 0x8 SHR AND PUSH1 0x40 MLOAD SWAP1 DUP2 MSTORE RETURN JUMPDEST PUSH3 0x461BCD PUSH1 0xE5 SHL DUP4 MSTORE PUSH1 0x20 PUSH1 0x4 DUP5 ADD MSTORE PUSH1 0xE PUSH1 0x24 DUP5 ADD MSTORE PUSH14 0x155CD95C881B9BDD08199BDD5B99 PUSH1 0x92 SHL PUSH1 0x44 DUP5 ADD MSTORE PUSH1 0x64 DUP4 REVERT JUMPDEST PUSH1 0x40 SWAP1 PUSH1 0x3 NOT ADD SLT PUSH2 0x1179 JUMPI PUSH1 0x4 CALLDATALOAD SWAP1 PUSH1 0x24 CALLDATALOAD SWAP1 JUMP JUMPDEST CALLVALUE PUSH2 0x1179 JUMPI PUSH1 0x0 CALLDATASIZE PUSH1 0x3 NOT ADD SLT PUSH2 0x1179 JUMPI PUSH1 0x20 PUSH1 0x40 MLOAD PUSH1 0xD DUP2 MSTORE RETURN JUMPDEST DUP1 SLOAD DUP3 LT ISZERO PUSH2 0x309E JUMPI PUSH1 0x0 MSTORE PUSH1 0x20 PUSH1 0x0 KECCAK256 ADD SWAP1 PUSH1 0x0 SWAP1 JUMP JUMPDEST PUSH4 0x4E487B71 PUSH1 0xE0 SHL PUSH1 0x0 MSTORE PUSH1 0x32 PUSH1 0x4 MSTORE PUSH1 0x24 PUSH1 0x0 REVERT JUMPDEST PUSH1 0x0 SWAP2 JUMPDEST PUSH1 0x4 DUP4 LT PUSH2 0x30C5 JUMPI POP POP POP JUMP JUMPDEST PUSH1 0x1 SWAP1 DUP3 MLOAD ISZERO ISZERO DUP2 MSTORE PUSH1 0x20 DUP1 SWAP2 ADD SWAP3 ADD SWAP3 ADD SWAP2 SWAP1 PUSH2 0x30B8 JUMP JUMPDEST PUSH1 0x4 CALLDATALOAD SWAP1 PUSH1 0x1 PUSH1 0x1 PUSH1 0xA0 SHL SUB DUP3 AND DUP3 SUB PUSH2 0x1179 JUMPI JUMP JUMPDEST SWAP1 DUP2 MLOAD DUP1 DUP3 MSTORE PUSH1 0x20 DUP1 DUP1 SWAP4 ADD SWAP4 ADD SWAP2 PUSH1 0x0 JUMPDEST DUP3 DUP2 LT PUSH2 0x3114 JUMPI POP POP POP POP SWAP1 JUMP JUMPDEST DUP4 MLOAD DUP6 MSTORE SWAP4 DUP2 ADD SWAP4 SWAP3 DUP2 ADD SWAP3 PUSH1 0x1 ADD PUSH2 0x3106 JUMP JUMPDEST CALLVALUE PUSH2 0x1179 JUMPI PUSH1 0x0 CALLDATASIZE PUSH1 0x3 NOT ADD SLT PUSH2 0x1179 JUMPI PUSH1 0x20 PUSH1 0x40 MLOAD PUSH1 0x5 DUP2 MSTORE RETURN JUMPDEST PUSH1 0x0 SWAP2 JUMPDEST PUSH1 0xD DUP4 LT PUSH2 0x3155 JUMPI POP POP POP JUMP JUMPDEST PUSH1 0x1 SWAP1 DUP3 MLOAD DUP2 MSTORE PUSH1 0x20 DUP1 SWAP2 ADD SWAP3 ADD SWAP3 ADD SWAP2 SWAP1 PUSH2 0x3148 JUMP JUMPDEST PUSH8 0xFFFFFFFFFFFFFFFF DUP2 GT PUSH2 0x3180 JUMPI PUSH1 0x40 MSTORE JUMP JUMPDEST PUSH4 0x4E487B71 PUSH1 0xE0 SHL PUSH1 0x0 MSTORE PUSH1 0x41 PUSH1 0x4 MSTORE PUSH1 0x24 PUSH1 0x0 REVERT JUMPDEST PUSH1 0x60 DUP2 ADD SWAP1 DUP2 LT PUSH8 0xFFFFFFFFFFFFFFFF DUP3 GT OR PUSH2 0x3180 JUMPI PUSH1 0x40 MSTORE JUMP JUMPDEST PUSH1 0x40 DUP2 ADD SWAP1 DUP2 LT PUSH8 0xFFFFFFFFFFFFFFFF DUP3 GT OR PUSH2 0x3180 JUMPI PUSH1 0x40 MSTORE JUMP JUMPDEST PUSH2 0x1A0 DUP2 ADD SWAP1 DUP2 LT PUSH8 0xFFFFFFFFFFFFFFFF DUP3 GT OR PUSH2 0x3180 JUMPI PUSH1 0x40 MSTORE JUMP JUMPDEST PUSH1 0x20 DUP2 ADD SWAP1 DUP2 LT PUSH8 0xFFFFFFFFFFFFFFFF DUP3 GT OR PUSH2 0x3180 JUMPI PUSH1 0x40 MSTORE JUMP JUMPDEST PUSH1 0x80 DUP2 ADD SWAP1 DUP2 LT PUSH8 0xFFFFFFFFFFFFFFFF DUP3 GT OR PUSH2 0x3180 JUMPI PUSH1 0x40 MSTORE JUMP JUMPDEST SWAP1 PUSH1 0x1F DUP1 NOT SWAP2 ADD AND DUP2 ADD SWAP1 DUP2 LT PUSH8 0xFFFFFFFFFFFFFFFF DUP3 GT OR PUSH2 0x3180 JUMPI PUSH1 0x40 MSTORE JUMP JUMPDEST PUSH1 0x1 SLOAD PUSH1 0x1 PUSH1 0x1 PUSH1 0xA0 SHL SUB AND CALLER SUB PUSH2 0x3259 JUMPI JUMP JUMPDEST PUSH1 0x40 MLOAD PUSH4 0x118CDAA7 PUSH1 0xE0 SHL DUP2 MSTORE CALLER PUSH1 0x4 DUP3 ADD MSTORE PUSH1 0x24 SWAP1 REVERT JUMPDEST ISZERO PUSH2 0x3278 JUMPI JUMP JUMPDEST PUSH1 0x40 MLOAD PUSH3 0x461BCD PUSH1 0xE5 SHL DUP2 MSTORE PUSH1 0x20 PUSH1 0x4 DUP3 ADD MSTORE PUSH1 0xD PUSH1 0x24 DUP3 ADD MSTORE PUSH13 0x125B9D985B1A59081B195D995B PUSH1 0x9A SHL PUSH1 0x44 DUP3 ADD MSTORE PUSH1 0x64 SWAP1 REVERT JUMPDEST SWAP1 PUSH1 0x5 DUP3 MUL SWAP2 DUP1 DUP4 DIV PUSH1 0x5 EQ SWAP1 ISZERO OR ISZERO PUSH2 0x895 JUMPI JUMP JUMPDEST DUP2 ISZERO PUSH2 0x32CD JUMPI DIV SWAP1 JUMP JUMPDEST PUSH4 0x4E487B71 PUSH1 0xE0 SHL PUSH1 0x0 MSTORE PUSH1 0x12 PUSH1 0x4 MSTORE PUSH1 0x24 PUSH1 0x0 REVERT JUMPDEST PUSH1 0x9 SLOAD PUSH8 0xDE0B6B3A7640000 SWAP1 DUP2 DUP2 MUL SWAP2 DUP2 DUP4 DIV EQ SWAP1 ISZERO OR ISZERO PUSH2 0x895 JUMPI PUSH1 0x3 SLOAD PUSH2 0x330C SWAP2 PUSH2 0x32C3 JUMP JUMPDEST SWAP1 JUMP JUMPDEST PUSH1 0xD DUP2 LT PUSH2 0x331C DUP2 PUSH2 0x3271 JUMP JUMPDEST ISZERO PUSH2 0x309E JUMPI PUSH1 0x9 ADD SLOAD PUSH8 0xDE0B6B3A7640000 SWAP1 DUP2 DUP2 MUL SWAP2 DUP2 DUP4 DIV EQ SWAP1 ISZERO OR ISZERO PUSH2 0x895 JUMPI PUSH1 0x3 SLOAD PUSH2 0x330C SWAP2 PUSH2 0x32C3 JUMP JUMPDEST ISZERO PUSH2 0x3352 JUMPI JUMP JUMPDEST PUSH1 0x40 MLOAD PUSH3 0x461BCD PUSH1 0xE5 SHL DUP2 MSTORE PUSH1 0x20 PUSH1 0x4 DUP3 ADD MSTORE PUSH1 0xF PUSH1 0x24 DUP3 ADD MSTORE PUSH15 0x10DBDB9D1C9858DD081C185D5CD959 PUSH1 0x8A SHL PUSH1 0x44 DUP3 ADD MSTORE PUSH1 0x64 SWAP1 REVERT JUMPDEST ISZERO PUSH2 0x3390 JUMPI JUMP JUMPDEST PUSH1 0x40 MLOAD PUSH3 0x461BCD PUSH1 0xE5 SHL DUP2 MSTORE PUSH1 0x20 PUSH1 0x4 DUP3 ADD MSTORE PUSH1 0x12 PUSH1 0x24 DUP3 ADD MSTORE PUSH18 0x105B1C9958591E481C9959DA5CDD195C9959 PUSH1 0x72 SHL PUSH1 0x44 DUP3 ADD MSTORE PUSH1 0x64 SWAP1 REVERT JUMPDEST ISZERO PUSH2 0x33D1 JUMPI JUMP JUMPDEST PUSH1 0x40 MLOAD PUSH3 0x461BCD PUSH1 0xE5 SHL DUP2 MSTORE PUSH1 0x20 PUSH1 0x4 DUP3 ADD MSTORE PUSH1 0xF PUSH1 0x24 DUP3 ADD MSTORE PUSH15 0x496E76616C69642061646472657373 PUSH1 0x88 SHL PUSH1 0x44 DUP3 ADD MSTORE PUSH1 0x64 SWAP1 REVERT JUMPDEST SWAP2 SWAP1 DUP3 ADD DUP1 SWAP3 GT PUSH2 0x895 JUMPI JUMP JUMPDEST ISZERO PUSH2 0x341C JUMPI JUMP JUMPDEST PUSH1 0x40 MLOAD PUSH3 0x461BCD PUSH1 0xE5 SHL DUP2 MSTORE PUSH1 0x20 PUSH1 0x4 DUP3 ADD MSTORE PUSH1 0x15 PUSH1 0x24 DUP3 ADD MSTORE PUSH21 0x125B9CDD59999A58DA595B9D08109390881CD95B9D PUSH1 0x5A SHL PUSH1 0x44 DUP3 ADD MSTORE PUSH1 0x64 SWAP1 REVERT JUMPDEST PUSH1 0x20 SLOAD PUSH1 0x1 PUSH1 0x40 SHL DUP2 LT ISZERO PUSH2 0x3180 JUMPI PUSH1 0x1 DUP2 ADD DUP1 PUSH1 0x20 SSTORE DUP2 LT ISZERO PUSH2 0x309E JUMPI PUSH1 0x20 PUSH1 0x0 MSTORE PUSH32 0xC97BFAF2F8EE708C303A06D134F5ECD8389AE0432AF62DC132A24118292866BB ADD SSTORE JUMP JUMPDEST DUP1 SLOAD PUSH1 0x1 PUSH1 0x40 SHL DUP2 LT ISZERO PUSH2 0x3180 JUMPI PUSH2 0x34BE SWAP2 PUSH1 0x1 DUP3 ADD DUP2 SSTORE PUSH2 0x3086 JUMP JUMPDEST DUP2 SWAP3 SWAP2 SLOAD SWAP1 PUSH1 0x3 SHL SWAP2 DUP3 SHL SWAP2 PUSH1 0x0 NOT SWAP1 SHL NOT AND OR SWAP1 SSTORE JUMP JUMPDEST PUSH1 0x0 NOT DUP2 EQ PUSH2 0x895 JUMPI PUSH1 0x1 ADD SWAP1 JUMP JUMPDEST PUSH1 0x21 SLOAD PUSH1 0x1 PUSH1 0x40 SHL DUP2 LT ISZERO PUSH2 0x3180 JUMPI PUSH1 0x1 DUP2 ADD DUP1 PUSH1 0x21 SSTORE DUP2 LT ISZERO PUSH2 0x309E JUMPI PUSH1 0x40 PUSH1 0x3 PUSH32 0x3A6357012C1A3AE0A17D304C9920310382D968EBCC4B1771F41C6B304205B572 SWAP3 PUSH1 0x21 PUSH1 0x0 MSTORE MUL SWAP3 DUP1 MLOAD DUP5 PUSH32 0x3A6357012C1A3AE0A17D304C9920310382D968EBCC4B1771F41C6B304205B570 ADD SSTORE PUSH1 0x20 DUP2 ADD MLOAD PUSH32 0x3A6357012C1A3AE0A17D304C9920310382D968EBCC4B1771F41C6B304205B571 DUP6 ADD SSTORE ADD MLOAD SWAP2 ADD SSTORE JUMP JUMPDEST SWAP2 SWAP1 DUP3 SUB SWAP2 DUP3 GT PUSH2 0x895 JUMPI JUMP JUMPDEST RETURNDATASIZE ISZERO PUSH2 0x35CE JUMPI RETURNDATASIZE SWAP1 PUSH8 0xFFFFFFFFFFFFFFFF DUP3 GT PUSH2 0x3180 JUMPI PUSH1 0x40 MLOAD SWAP2 PUSH2 0x35C2 PUSH1 0x1F DUP3 ADD PUSH1 0x1F NOT AND PUSH1 0x20 ADD DUP5 PUSH2 0x3223 JUMP JUMPDEST DUP3 MSTORE RETURNDATASIZE PUSH1 0x0 PUSH1 0x20 DUP5 ADD RETURNDATACOPY JUMP JUMPDEST PUSH1 0x60 SWAP1 JUMP JUMPDEST PUSH1 0x2 PUSH1 0x0 SLOAD EQ PUSH2 0x35E4 JUMPI PUSH1 0x2 PUSH1 0x0 SSTORE JUMP JUMPDEST PUSH1 0x40 MLOAD PUSH4 0x3EE5AEB5 PUSH1 0xE0 SHL DUP2 MSTORE PUSH1 0x4 SWAP1 REVERT JUMPDEST ISZERO PUSH2 0x35FD JUMPI JUMP JUMPDEST PUSH1 0x40 MLOAD PUSH3 0x461BCD PUSH1 0xE5 SHL DUP2 MSTORE PUSH1 0x20 PUSH1 0x4 DUP3 ADD MSTORE PUSH1 0xF PUSH1 0x24 DUP3 ADD MSTORE PUSH15 0x125B9D985B1A59081D5CD95C881251 PUSH1 0x8A SHL PUSH1 0x44 DUP3 ADD MSTORE PUSH1 0x64 SWAP1 REVERT JUMPDEST ISZERO PUSH2 0x363B JUMPI JUMP JUMPDEST PUSH1 0x40 MLOAD PUSH3 0x461BCD PUSH1 0xE5 SHL DUP2 MSTORE PUSH1 0x20 PUSH1 0x4 DUP3 ADD MSTORE PUSH1 0xC PUSH1 0x24 DUP3 ADD MSTORE PUSH12 0x155B985D5D1A1BDC9A5E9959 PUSH1 0xA2 SHL PUSH1 0x44 DUP3 ADD MSTORE PUSH1 0x64 SWAP1 REVERT JUMPDEST ISZERO PUSH2 0x3676 JUMPI JUMP JUMPDEST PUSH1 0x40 MLOAD PUSH3 0x461BCD PUSH1 0xE5 SHL DUP2 MSTORE PUSH1 0x20 PUSH1 0x4 DUP3 ADD MSTORE PUSH1 0x11 PUSH1 0x24 DUP3 ADD MSTORE PUSH17 0x115E18D959591CC81B585E081B195D995B PUSH1 0x7A SHL PUSH1 0x44 DUP3 ADD MSTORE PUSH1 0x64 SWAP1 REVERT JUMPDEST ISZERO PUSH2 0x36B6 JUMPI JUMP JUMPDEST PUSH1 0x40 MLOAD PUSH3 0x461BCD PUSH1 0xE5 SHL DUP2 MSTORE PUSH1 0x20 PUSH1 0x4 DUP3 ADD MSTORE PUSH1 0x10 PUSH1 0x24 DUP3 ADD MSTORE PUSH16 0x24B739BAB33334B1B4B2B73A10212721 PUSH1 0x81 SHL PUSH1 0x44 DUP3 ADD MSTORE PUSH1 0x64 SWAP1 REVERT JUMPDEST ISZERO PUSH2 0x36F5 JUMPI JUMP JUMPDEST PUSH1 0x40 MLOAD PUSH3 0x461BCD PUSH1 0xE5 SHL DUP2 MSTORE PUSH1 0x20 PUSH1 0x4 DUP3 ADD MSTORE PUSH1 0x13 PUSH1 0x24 DUP3 ADD MSTORE PUSH19 0x119959481D1C985B9CD9995C8819985A5B1959 PUSH1 0x6A SHL PUSH1 0x44 DUP3 ADD MSTORE PUSH1 0x64 SWAP1 REVERT JUMPDEST ISZERO PUSH2 0x3737 JUMPI JUMP JUMPDEST PUSH1 0x40 MLOAD PUSH3 0x461BCD PUSH1 0xE5 SHL DUP2 MSTORE PUSH1 0x20 PUSH1 0x4 DUP3 ADD MSTORE PUSH1 0x17 PUSH1 0x24 DUP3 ADD MSTORE PUSH32 0x526F79616C7479207472616E73666572206661696C6564000000000000000000 PUSH1 0x44 DUP3 ADD MSTORE PUSH1 0x64 SWAP1 REVERT JUMPDEST ISZERO PUSH2 0x3783 JUMPI JUMP JUMPDEST PUSH1 0x40 MLOAD PUSH3 0x461BCD PUSH1 0xE5 SHL DUP2 MSTORE PUSH1 0x20 PUSH1 0x4 DUP3 ADD MSTORE PUSH1 0xE PUSH1 0x24 DUP3 ADD MSTORE PUSH14 0x139BDD081C9959DA5CDD195C9959 PUSH1 0x92 SHL PUSH1 0x44 DUP3 ADD MSTORE PUSH1 0x64 SWAP1 REVERT JUMPDEST PUSH1 0xFF PUSH1 0x1 SWAP2 AND ADD SWAP1 PUSH1 0xFF DUP3 GT PUSH2 0x895 JUMPI JUMP JUMPDEST ISZERO PUSH2 0x37D2 JUMPI JUMP JUMPDEST PUSH1 0x40 MLOAD PUSH3 0x461BCD PUSH1 0xE5 SHL DUP2 MSTORE PUSH1 0x20 PUSH1 0x4 DUP3 ADD MSTORE PUSH1 0xD PUSH1 0x24 DUP3 ADD MSTORE PUSH13 0x496E76616C6964207072696365 PUSH1 0x98 SHL PUSH1 0x44 DUP3 ADD MSTORE PUSH1 0x64 SWAP1 REVERT JUMPDEST SWAP2 DUP1 PUSH2 0x39FC JUMPI JUMPDEST POP PUSH1 0x64 PUSH2 0x381A DUP3 PUSH2 0x32AD JUMP JUMPDEST DIV DUP1 PUSH2 0x398A JUMPI JUMPDEST PUSH1 0x0 DUP4 DUP2 MSTORE PUSH1 0x20 PUSH1 0x1A DUP2 MSTORE PUSH2 0x383F PUSH1 0x40 SWAP4 PUSH1 0x1 DUP6 DUP6 KECCAK256 ADD SLOAD SWAP6 PUSH2 0x3586 JUMP JUMPDEST SWAP2 DUP5 ISZERO ISZERO DUP1 PUSH2 0x3976 JUMPI JUMPDEST ISZERO PUSH2 0x3940 JUMPI DUP5 DUP2 MSTORE PUSH1 0x1A DUP3 MSTORE PUSH1 0x1 DUP1 PUSH1 0xA0 SHL SUB DUP2 DUP1 DUP1 DUP1 DUP8 DUP6 DUP11 DUP4 KECCAK256 SLOAD PUSH1 0x8 SHR AND GAS CALL PUSH2 0x3874 PUSH2 0x3593 JUMP JUMPDEST POP ISZERO PUSH2 0x38E1 JUMPI POP SWAP1 PUSH1 0x1 DUP5 DUP4 DUP8 PUSH32 0x7F31B11E95A87830BD41893A2C8BB6991E584F4E5082CEDEEFFD2B1CA1BB76C5 SWAP8 SWAP7 SWAP6 MSTORE PUSH1 0x1B DUP5 MSTORE PUSH1 0x2 DUP3 DUP3 KECCAK256 ADD PUSH2 0x38BB DUP7 DUP3 SLOAD PUSH2 0x3408 JUMP JUMPDEST SWAP1 SSTORE DUP8 DUP2 MSTORE PUSH1 0x1B DUP5 MSTORE KECCAK256 ADD PUSH2 0x38D1 DUP4 DUP3 SLOAD PUSH2 0x3408 JUMP JUMPDEST SWAP1 SSTORE DUP3 MLOAD SWAP2 DUP3 MSTORE TIMESTAMP SWAP1 DUP3 ADD MSTORE LOG3 JUMPDEST JUMP JUMPDEST DUP2 SWAP5 SWAP6 POP SWAP3 DUP2 SWAP4 DUP3 SWAP4 SWAP8 DUP4 MSTORE PUSH1 0x1A DUP9 MSTORE DUP7 DUP4 KECCAK256 SLOAD PUSH1 0x8 SHR AND GAS CALL PUSH2 0x3903 PUSH2 0x3593 JUMP JUMPDEST POP ISZERO PUSH2 0x390D JUMPI POP POP JUMP JUMPDEST PUSH1 0x64 SWAP3 POP MLOAD SWAP1 PUSH3 0x461BCD PUSH1 0xE5 SHL DUP3 MSTORE PUSH1 0x4 DUP3 ADD MSTORE PUSH1 0xD PUSH1 0x24 DUP3 ADD MSTORE PUSH13 0x1499599D5B990819985A5B1959 PUSH1 0x9A SHL PUSH1 0x44 DUP3 ADD MSTORE REVERT JUMPDEST POP SWAP3 POP SWAP1 PUSH2 0x38DF SWAP4 POP PUSH17 0x3737AFBB30B634B22FB932B332B93932B9 PUSH1 0x79 SHL SWAP1 MLOAD SWAP3 PUSH2 0x396A DUP5 PUSH2 0x31B2 JUMP JUMPDEST PUSH1 0x11 DUP5 MSTORE DUP4 ADD MSTORE PUSH2 0x3ADA JUMP JUMPDEST POP DUP5 DUP2 MSTORE PUSH1 0x1A DUP3 MSTORE PUSH1 0xFF DUP5 DUP3 KECCAK256 SLOAD AND PUSH2 0x3849 JUMP JUMPDEST PUSH2 0x39C7 PUSH1 0x0 DUP1 DUP1 DUP1 DUP6 PUSH32 0x0 PUSH1 0x1 PUSH1 0x1 PUSH1 0xA0 SHL SUB AND GAS CALL PUSH2 0xA6D PUSH2 0x3593 JUMP JUMPDEST DUP3 PUSH32 0xB74A7140EF81C80D0E213846B7B10B59F9C366B463E36E1F98BF00EF44C670B4 PUSH1 0x40 DUP1 MLOAD DUP5 DUP2 MSTORE TIMESTAMP PUSH1 0x20 DUP3 ADD MSTORE LOG2 PUSH2 0x3821 JUMP JUMPDEST PUSH32 0xEDD09F264659CE99B52FD2A2D4F09E551EB001FE3FC56FFD5704FC1F402BC211 SWAP1 PUSH1 0x60 SWAP1 PUSH2 0x3A5E PUSH1 0x0 DUP1 DUP1 DUP1 DUP6 PUSH32 0x0 PUSH1 0x1 PUSH1 0x1 PUSH1 0xA0 SHL SUB AND GAS CALL PUSH2 0xAE4 PUSH2 0x3593 JUMP JUMPDEST PUSH1 0x40 MLOAD SWAP1 DUP2 MSTORE PUSH1 0x0 PUSH1 0x20 DUP3 ADD MSTORE TIMESTAMP PUSH1 0x40 DUP3 ADD MSTORE LOG1 CODESIZE PUSH2 0x380E JUMP JUMPDEST SWAP2 SWAP1 DUP3 MLOAD SWAP3 DUP4 DUP3 MSTORE PUSH1 0x0 JUMPDEST DUP5 DUP2 LT PUSH2 0x3AA4 JUMPI POP POP DUP3 PUSH1 0x0 PUSH1 0x20 DUP1 SWAP5 SWAP6 DUP5 ADD ADD MSTORE PUSH1 0x1F DUP1 NOT SWAP2 ADD AND ADD ADD SWAP1 JUMP JUMPDEST PUSH1 0x20 DUP2 DUP4 ADD DUP2 ADD MLOAD DUP5 DUP4 ADD DUP3 ADD MSTORE ADD PUSH2 0x3A83 JUMP JUMPDEST SWAP4 SWAP3 SWAP2 PUSH2 0x3AD5 SWAP1 PUSH1 0x40 SWAP3 DUP7 MSTORE PUSH1 0x60 PUSH1 0x20 DUP8 ADD MSTORE PUSH1 0x60 DUP7 ADD SWAP1 PUSH2 0x3A78 JUMP JUMPDEST SWAP4 ADD MSTORE JUMP JUMPDEST PUSH32 0x0 SWAP2 PUSH1 0x0 DUP4 DUP2 MSTORE PUSH1 0x1A PUSH1 0x20 MSTORE DUP1 DUP1 DUP1 DUP1 DUP7 PUSH1 0x1 DUP1 PUSH1 0xA0 SHL SUB PUSH1 0x40 DUP4 KECCAK256 SLOAD PUSH1 0x8 SHR AND GAS CALL PUSH2 0x3B25 PUSH2 0x3593 JUMP JUMPDEST POP PUSH2 0x3B31 JUMPI JUMPDEST POP POP POP POP JUMP JUMPDEST PUSH1 0x40 DUP2 DUP6 PUSH32 0xE7392140A76258E2263A339B5BFDA7575CF4A9227C701DF27629FE8DD52735B1 SWAP7 PUSH1 0x1 SWAP5 MSTORE PUSH1 0x1B PUSH1 0x20 MSTORE PUSH1 0x2 DUP4 DUP4 KECCAK256 ADD PUSH2 0x3B71 DUP8 DUP3 SLOAD PUSH2 0x3408 JUMP JUMPDEST SWAP1 SSTORE DUP2 MSTORE PUSH1 0x1B PUSH1 0x20 MSTORE KECCAK256 ADD PUSH2 0x3B87 DUP4 DUP3 SLOAD PUSH2 0x3408 JUMP JUMPDEST SWAP1 SSTORE PUSH2 0x3B9A PUSH1 0x40 MLOAD SWAP3 DUP4 SWAP3 TIMESTAMP SWAP2 DUP5 PUSH2 0x3AB8 JUMP JUMPDEST SUB SWAP1 LOG1 CODESIZE DUP1 DUP1 DUP1 PUSH2 0x3B2B JUMP JUMPDEST SWAP2 SWAP1 PUSH1 0x0 SWAP1 DUP4 DUP3 MSTORE PUSH1 0x1A SWAP4 PUSH1 0x20 DUP6 DUP2 MSTORE PUSH1 0x1 PUSH1 0x40 SWAP1 DUP1 DUP3 DUP8 KECCAK256 ADD SLOAD SWAP6 DUP1 SWAP7 PUSH2 0x1F4 SWAP6 DUP7 DUP9 MUL DUP9 ISZERO SWAP8 DUP10 DUP3 DIV EQ DUP9 OR ISZERO PUSH2 0x3E4 JUMPI PUSH2 0x2710 SWAP1 DIV SWAP7 DUP4 SWAP3 DUP6 JUMPDEST PUSH2 0x3C4B JUMPI JUMPDEST POP POP POP POP POP POP PUSH2 0x330C SWAP6 SWAP7 POP DUP3 DUP6 LT PUSH2 0x3C04 JUMPI JUMPDEST POP POP POP PUSH2 0x3586 JUMP JUMPDEST PUSH19 0x73706F6E736F725F6E6F5F656C696769626C65 PUSH1 0x68 SHL PUSH2 0x3C2A DUP5 SWAP6 SWAP7 PUSH2 0x3C42 SWAP6 PUSH2 0x3586 JUMP JUMPDEST SWAP2 MLOAD SWAP3 PUSH2 0x3C36 DUP5 PUSH2 0x31B2 JUMP JUMPDEST PUSH1 0x13 DUP5 MSTORE DUP4 ADD MSTORE PUSH2 0x3ADA JUMP JUMPDEST SWAP1 CODESIZE DUP1 DUP1 PUSH2 0x3BFC JUMP JUMPDEST PUSH1 0xFF DUP5 AND PUSH1 0xD DUP2 LT DUP1 PUSH2 0x3F1B JUMPI JUMPDEST ISZERO PUSH2 0x3F15 JUMPI PUSH2 0x3C68 DUP6 DUP4 PUSH2 0x3FD2 JUMP JUMPDEST SWAP1 PUSH2 0xFFFF PUSH2 0x3C75 DUP8 PUSH2 0x3F24 JUMP JUMPDEST AND DUP1 DUP14 MUL SWAP1 DUP14 DUP3 DIV EQ DUP6 OR ISZERO PUSH2 0xA1D JUMPI DUP16 DUP12 SWAP1 DUP8 SWAP4 PUSH2 0x2710 DUP8 SWAP5 DIV SWAP6 DUP1 PUSH2 0x3F0C JUMPI JUMPDEST ISZERO PUSH2 0x3D74 JUMPI POP POP POP SWAP1 POP DUP7 MSTORE DUP14 DUP10 MSTORE DUP6 DUP1 DUP1 DUP1 DUP5 PUSH1 0x1 DUP1 PUSH1 0xA0 SHL SUB DUP14 DUP4 KECCAK256 SLOAD PUSH1 0x8 SHR AND GAS CALL PUSH2 0x3CC4 PUSH2 0x3593 JUMP JUMPDEST POP PUSH2 0x3CED JUMPI JUMPDEST POP JUMPDEST DUP5 MSTORE DUP12 DUP8 MSTORE DUP5 DUP7 DUP6 KECCAK256 ADD SLOAD SWAP3 PUSH1 0xFF DUP1 SWAP2 AND SWAP1 DUP2 EQ PUSH2 0xB61 JUMPI DUP6 ADD SWAP3 DUP6 PUSH2 0x3BE3 JUMP JUMPDEST SWAP11 DUP2 PUSH32 0x38A882DD38CF7BAF663586C9181108323F083CC8AC7CF5287586A0D56A71F914 PUSH1 0x60 PUSH2 0x3D52 DUP16 DUP9 SWAP6 DUP13 DUP16 DUP16 SWAP1 DUP15 SWAP1 DUP10 DUP3 MSTORE DUP10 PUSH1 0x1B SWAP3 DUP4 DUP4 MSTORE PUSH1 0x3 DUP6 DUP3 KECCAK256 ADD PUSH2 0x3D39 DUP10 DUP3 SLOAD PUSH2 0x3408 JUMP JUMPDEST SWAP1 SSTORE MSTORE MSTORE DUP14 KECCAK256 ADD PUSH2 0x3D4B DUP4 DUP3 SLOAD PUSH2 0x3408 JUMP JUMPDEST SWAP1 SSTORE PUSH2 0x3408 JUMP JUMPDEST SWAP15 PUSH1 0xFF PUSH2 0x3D5E DUP11 PUSH2 0x37B9 JUMP JUMPDEST DUP14 MLOAD SWAP3 DUP4 MSTORE AND DUP14 DUP3 ADD MSTORE TIMESTAMP DUP13 DUP3 ADD MSTORE LOG3 CODESIZE PUSH2 0x3CCA JUMP JUMPDEST DUP6 SWAP3 SWAP4 SWAP5 SWAP6 PUSH2 0x3D89 JUMPI JUMPDEST POP POP POP POP POP POP PUSH2 0x3CCC JUMP JUMPDEST DUP5 DUP12 MSTORE DUP2 DUP5 MSTORE PUSH1 0xFF DUP14 DUP13 KECCAK256 SLOAD AND ISZERO PUSH2 0x3D7E JUMPI PUSH1 0x1E PUSH32 0x587D8F9CC4F7AE2F12F916B8AC03AC5414969DFAF447B84ACBB1E2B171CB7EB2 SWAP5 MSTORE DUP13 DUP12 KECCAK256 PUSH2 0x3DCE DUP5 DUP3 SLOAD PUSH2 0x3408 JUMP JUMPDEST SWAP1 SSTORE PUSH1 0x5 DUP2 LT ISZERO PUSH2 0x3E2C JUMPI POP DUP12 MLOAD SWAP1 PUSH2 0x3DE6 DUP3 PUSH2 0x31B2 JUMP JUMPDEST DUP2 MSTORE PUSH32 0x4E6F742061637469766520286E656564204C6576656C20312B29000000000000 DUP14 DUP3 ADD MSTORE JUMPDEST PUSH2 0x3E1E DUP13 MLOAD SWAP3 DUP4 SWAP3 TIMESTAMP SWAP2 DUP5 PUSH2 0x3AB8 JUMP JUMPDEST SUB SWAP1 LOG3 DUP3 DUP2 DUP10 DUP16 DUP1 CODESIZE PUSH2 0x3D7E JUMP JUMPDEST SWAP1 POP PUSH1 0x8 DUP2 LT ISZERO PUSH2 0x3E7B JUMPI POP DUP11 MLOAD PUSH2 0x3E43 DUP2 PUSH2 0x3196 JUMP JUMPDEST PUSH1 0x22 DUP2 MSTORE PUSH32 0x4E65656420322B2064697265637420726566657272616C7320666F72204C362D DUP14 DUP3 ADD MSTORE PUSH2 0x987 PUSH1 0xF3 SHL DUP13 DUP3 ADD MSTORE PUSH2 0x3E0E JUMP JUMPDEST PUSH1 0xA GT ISZERO PUSH2 0x3EC7 JUMPI DUP11 MLOAD PUSH2 0x3E8E DUP2 PUSH2 0x3196 JUMP JUMPDEST PUSH1 0x23 DUP2 MSTORE PUSH32 0x4E65656420332B2064697265637420726566657272616C7320666F72204C392D DUP14 DUP3 ADD MSTORE PUSH3 0x4C313 PUSH1 0xEC SHL DUP13 DUP3 ADD MSTORE PUSH2 0x3E0E JUMP JUMPDEST DUP11 MLOAD PUSH2 0x3ED2 DUP2 PUSH2 0x3196 JUMP JUMPDEST PUSH1 0x24 DUP2 MSTORE PUSH32 0x4E65656420352B2064697265637420726566657272616C7320666F72204C3131 DUP14 DUP3 ADD MSTORE PUSH4 0x2D4C3133 PUSH1 0xE0 SHL DUP13 DUP3 ADD MSTORE PUSH2 0x3E0E JUMP JUMPDEST POP DUP6 ISZERO ISZERO PUSH2 0x3C97 JUMP JUMPDEST POP PUSH2 0x3BE8 JUMP JUMPDEST POP DUP2 ISZERO ISZERO PUSH2 0x3C59 JUMP JUMPDEST PUSH1 0xFF AND DUP1 ISZERO PUSH2 0x3FCC JUMPI PUSH1 0x1 DUP2 EQ PUSH2 0x3FC6 JUMPI PUSH1 0x2 DUP2 EQ PUSH2 0x3FC0 JUMPI PUSH1 0x3 DUP2 EQ PUSH2 0x3FBA JUMPI PUSH1 0x4 DUP2 EQ PUSH2 0x3FBA JUMPI PUSH1 0x5 DUP2 EQ PUSH2 0x3FB4 JUMPI PUSH1 0x6 DUP2 EQ PUSH2 0x3FAE JUMPI PUSH1 0x7 DUP2 EQ PUSH2 0x3FA8 JUMPI PUSH1 0x8 DUP2 EQ PUSH2 0x3FA2 JUMPI PUSH1 0x9 DUP2 EQ PUSH2 0x3F9C JUMPI PUSH1 0xA DUP2 EQ PUSH2 0x3F96 JUMPI PUSH1 0xB DUP2 EQ PUSH2 0x3F96 JUMPI PUSH1 0xC EQ PUSH2 0x3F91 JUMPI PUSH1 0x0 SWAP1 JUMP JUMPDEST PUSH1 0xA SWAP1 JUMP JUMPDEST POP PUSH1 0xA SWAP1 JUMP JUMPDEST POP PUSH1 0xF SWAP1 JUMP JUMPDEST POP PUSH1 0x14 SWAP1 JUMP JUMPDEST POP PUSH1 0x19 SWAP1 JUMP JUMPDEST POP PUSH1 0x1E SWAP1 JUMP JUMPDEST POP PUSH1 0x28 SWAP1 JUMP JUMPDEST POP PUSH1 0x32 SWAP1 JUMP JUMPDEST POP PUSH1 0x3C SWAP1 JUMP JUMPDEST POP PUSH1 0x50 SWAP1 JUMP JUMPDEST POP PUSH1 0x64 SWAP1 JUMP JUMPDEST PUSH1 0x0 MSTORE PUSH1 0x1A PUSH1 0x20 MSTORE PUSH1 0x40 PUSH1 0x0 KECCAK256 SWAP1 PUSH1 0xFF DUP3 SLOAD AND ISZERO DUP1 ISZERO PUSH2 0x4041 JUMPI JUMPDEST PUSH2 0x403A JUMPI PUSH1 0xFF AND PUSH1 0x5 DUP2 LT ISZERO PUSH2 0x4004 JUMPI POP POP PUSH1 0x1 SWAP1 JUMP JUMPDEST PUSH1 0x8 DUP2 LT ISZERO PUSH2 0x401A JUMPI POP PUSH1 0x4 PUSH1 0x2 SWAP2 ADD SLOAD LT ISZERO SWAP1 JUMP JUMPDEST PUSH1 0xA GT ISZERO PUSH2 0x402E JUMPI PUSH1 0x4 PUSH1 0x3 SWAP2 ADD SLOAD LT ISZERO SWAP1 JUMP JUMPDEST PUSH1 0x4 PUSH1 0x5 SWAP2 ADD SLOAD LT ISZERO SWAP1 JUMP JUMPDEST POP POP PUSH1 0x0 SWAP1 JUMP JUMPDEST POP PUSH1 0x1 PUSH1 0x3 DUP4 ADD SLOAD LT PUSH2 0x3FED JUMP JUMPDEST SWAP2 SWAP1 SWAP3 PUSH1 0x40 SWAP2 DUP3 MLOAD PUSH2 0x100 DUP2 ADD SWAP1 PUSH8 0xFFFFFFFFFFFFFFFF SWAP2 DUP2 DUP2 LT DUP4 DUP3 GT OR PUSH2 0x3180 JUMPI PUSH1 0x1A SWAP5 PUSH1 0x6 SWAP2 DUP8 MSTORE PUSH1 0x1 DUP4 MSTORE DUP8 PUSH1 0x20 SWAP10 DUP11 SWAP3 DUP4 DUP7 ADD SWAP2 PUSH1 0x1 DUP1 PUSH1 0xA0 SHL SUB AND DUP3 MSTORE DUP10 DUP7 ADD SWAP1 DUP9 DUP3 MSTORE PUSH1 0x60 DUP8 ADD SWAP1 DUP2 MSTORE PUSH1 0x80 DUP8 ADD SWAP2 PUSH1 0x1 DUP4 MSTORE PUSH1 0xA0 DUP9 ADD SWAP4 PUSH1 0x0 SWAP12 DUP13 SWAP8 DUP9 DUP8 MSTORE PUSH1 0xC0 DUP12 ADD SWAP8 DUP10 DUP10 MSTORE PUSH1 0xE0 DUP13 ADD SWAP10 TIMESTAMP DUP12 MSTORE MSTORE MSTORE DUP13 DUP13 KECCAK256 SWAP9 MLOAD ISZERO ISZERO SWAP1 PUSH1 0xFF DUP11 SLOAD SWAP2 PUSH2 0x100 PUSH1 0x1 PUSH1 0xA8 SHL SUB SWAP1 MLOAD PUSH1 0x8 SHL AND SWAP3 AND SWAP1 PUSH11 0xFFFFFFFFFFFFFFFFFFFFFF PUSH1 0xA8 SHL AND OR OR DUP9 SSTORE MLOAD PUSH1 0x1 DUP9 ADD SSTORE MLOAD PUSH1 0x2 DUP8 ADD SSTORE MLOAD PUSH1 0x3 DUP7 ADD SSTORE MLOAD PUSH1 0x4 DUP6 ADD SSTORE MLOAD PUSH1 0x5 DUP5 ADD SSTORE MLOAD SWAP2 ADD SSTORE DUP4 MLOAD SWAP1 PUSH1 0xA0 DUP3 ADD SWAP1 DUP3 DUP3 LT SWAP1 DUP3 GT OR PUSH2 0x41C9 JUMPI DUP5 MSTORE DUP3 DUP2 MSTORE PUSH1 0x4 DUP7 DUP3 ADD DUP5 DUP2 MSTORE DUP6 DUP4 ADD DUP6 DUP2 MSTORE PUSH1 0x60 DUP5 ADD SWAP1 DUP7 DUP3 MSTORE PUSH1 0x80 DUP6 ADD SWAP3 DUP8 DUP5 MSTORE DUP10 DUP9 MSTORE PUSH1 0x1B DUP12 MSTORE DUP9 DUP9 KECCAK256 SWAP6 MLOAD DUP7 SSTORE MLOAD PUSH1 0x1 DUP7 ADD SSTORE MLOAD PUSH1 0x2 DUP6 ADD SSTORE MLOAD PUSH1 0x3 DUP5 ADD SSTORE MLOAD SWAP2 ADD SSTORE DUP1 ISZERO ISZERO DUP1 PUSH2 0x41BF JUMPI JUMPDEST PUSH2 0x418C JUMPI JUMPDEST POP POP POP POP POP JUMP JUMPDEST PUSH2 0x41B5 SWAP5 DUP2 PUSH1 0x1F SWAP3 DUP5 MSTORE PUSH1 0x1A DUP3 MSTORE PUSH1 0x4 DUP6 DUP6 KECCAK256 ADD PUSH2 0x41AA DUP2 SLOAD PUSH2 0x34D6 JUMP JUMPDEST SWAP1 SSTORE DUP4 MSTORE MSTORE KECCAK256 PUSH2 0x34A1 JUMP JUMPDEST CODESIZE DUP1 DUP1 DUP1 DUP1 PUSH2 0x4185 JUMP JUMPDEST POP DUP4 DUP2 EQ ISZERO PUSH2 0x4180 JUMP JUMPDEST PUSH4 0x4E487B71 PUSH1 0xE0 SHL DUP5 MSTORE PUSH1 0x41 PUSH1 0x4 MSTORE PUSH1 0x24 DUP5 REVERT JUMPDEST PUSH1 0x0 SWAP1 DUP2 JUMPDEST PUSH1 0xD DUP4 LT DUP1 PUSH2 0x42AE JUMPI JUMPDEST ISZERO PUSH2 0x42A5 JUMPI POP PUSH2 0x41FB DUP4 PUSH2 0x4315 JUMP JUMPDEST SWAP3 DUP4 PUSH2 0x4222 JUMPI PUSH1 0x0 MSTORE PUSH1 0x1A PUSH1 0x20 MSTORE PUSH2 0x421B PUSH1 0x1 PUSH1 0x40 PUSH1 0x0 KECCAK256 ADD SLOAD SWAP3 PUSH2 0x34D6 JUMP JUMPDEST SWAP2 SWAP3 PUSH2 0x41E2 JUMP JUMPDEST POP SWAP1 POP JUMPDEST DUP2 ISZERO PUSH2 0x427D JUMPI JUMPDEST DUP2 PUSH1 0x0 MSTORE PUSH1 0x1C PUSH1 0x20 MSTORE PUSH1 0x40 PUSH1 0x0 KECCAK256 PUSH1 0x0 DUP1 MSTORE PUSH1 0x20 MSTORE PUSH2 0x4250 DUP2 PUSH1 0x40 PUSH1 0x0 KECCAK256 PUSH2 0x34A1 JUMP JUMPDEST PUSH1 0x0 MSTORE PUSH1 0x1A PUSH1 0x20 MSTORE DUP1 PUSH1 0x2 PUSH1 0x40 PUSH1 0x0 KECCAK256 ADD SSTORE PUSH1 0x0 MSTORE PUSH1 0x1D PUSH1 0x20 MSTORE PUSH1 0x40 PUSH1 0x0 KECCAK256 PUSH2 0x4279 DUP2 SLOAD PUSH2 0x34D6 JUMP JUMPDEST SWAP1 SSTORE JUMP JUMPDEST PUSH32 0x0 SWAP2 POP PUSH2 0x422D JUMP JUMPDEST SWAP3 POP SWAP1 POP PUSH2 0x4226 JUMP JUMPDEST POP DUP4 ISZERO ISZERO PUSH2 0x41EC JUMP JUMPDEST PUSH8 0xFFFFFFFFFFFFFFFF DUP2 GT PUSH2 0x3180 JUMPI PUSH1 0x5 SHL PUSH1 0x20 ADD SWAP1 JUMP JUMPDEST SWAP1 PUSH2 0x42D9 DUP3 PUSH2 0x42B7 JUMP JUMPDEST PUSH2 0x42E6 PUSH1 0x40 MLOAD SWAP2 DUP3 PUSH2 0x3223 JUMP JUMPDEST DUP3 DUP2 MSTORE DUP1 SWAP3 PUSH2 0x42F7 PUSH1 0x1F NOT SWAP2 PUSH2 0x42B7 JUMP JUMPDEST ADD SWAP1 PUSH1 0x20 CALLDATASIZE SWAP2 ADD CALLDATACOPY JUMP JUMPDEST DUP1 MLOAD DUP3 LT ISZERO PUSH2 0x309E JUMPI PUSH1 0x20 SWAP2 PUSH1 0x5 SHL ADD ADD SWAP1 JUMP JUMPDEST PUSH1 0x40 SWAP1 DUP2 MLOAD PUSH2 0xCA0 DUP2 ADD DUP2 DUP2 LT PUSH8 0xFFFFFFFFFFFFFFFF DUP3 GT OR PUSH2 0x3180 JUMPI DUP4 MSTORE PUSH1 0x64 SWAP2 DUP3 DUP3 MSTORE PUSH1 0x20 SWAP1 DUP2 DUP4 ADD PUSH2 0xC80 CALLDATASIZE DUP3 CALLDATACOPY PUSH1 0x0 SWAP5 PUSH1 0x1 SWAP6 DUP7 SWAP4 DUP7 MLOAD ISZERO PUSH2 0x309E JUMPI DUP8 SWAP4 MSTORE PUSH1 0x0 SWAP3 JUMPDEST PUSH2 0x436E JUMPI JUMPDEST POP POP POP POP POP POP POP POP PUSH1 0x0 SWAP1 JUMP JUMPDEST DUP4 DUP2 LT DUP1 PUSH2 0x445A JUMPI JUMPDEST ISZERO PUSH2 0x4455 JUMPI PUSH2 0x4399 PUSH2 0x4392 PUSH2 0x438B DUP4 PUSH2 0x34D6 JUMP JUMPDEST SWAP3 DUP9 PUSH2 0x4301 JUMP JUMPDEST MLOAD SWAP4 PUSH2 0x34D6 JUMP JUMPDEST SWAP3 DUP1 PUSH1 0x0 MSTORE PUSH1 0x1C SWAP1 DUP2 DUP8 MSTORE DUP10 PUSH1 0x0 KECCAK256 PUSH1 0x0 DUP1 MSTORE DUP8 MSTORE PUSH1 0x2 DUP11 PUSH1 0x0 KECCAK256 SLOAD LT PUSH2 0x4448 JUMPI DUP9 SWAP2 SWAP1 PUSH1 0x0 DUP4 JUMPDEST PUSH2 0x43CE JUMPI JUMPDEST POP POP POP PUSH2 0x435C JUMP JUMPDEST DUP2 PUSH1 0x0 MSTORE DUP3 DUP10 MSTORE DUP12 PUSH1 0x0 KECCAK256 PUSH1 0x0 DUP1 MSTORE DUP10 MSTORE DUP12 DUP10 DUP2 PUSH1 0x0 KECCAK256 SLOAD DUP4 LT DUP1 PUSH2 0x443F JUMPI JUMPDEST ISZERO PUSH2 0x4438 JUMPI SWAP9 PUSH2 0x441A DUP4 PUSH2 0x4432 SWAP5 SWAP4 DUP8 PUSH2 0xE9F SWAP14 DUP9 PUSH1 0x0 MSTORE MSTORE DUP14 DUP2 PUSH1 0x0 KECCAK256 SWAP1 PUSH1 0x0 DUP1 MSTORE MSTORE PUSH1 0x0 KECCAK256 PUSH2 0x3086 JUMP JUMPDEST SWAP11 SWAP1 SLOAD PUSH2 0x4426 DUP4 PUSH2 0x34D6 JUMP JUMPDEST SWAP12 PUSH1 0x3 SHL SHR SWAP2 DUP14 PUSH2 0x4301 JUMP JUMPDEST DUP4 PUSH2 0x43C1 JUMP JUMPDEST POP POP PUSH2 0x43C6 JUMP JUMPDEST POP DUP8 DUP11 LT PUSH2 0x43EE JUMP JUMPDEST SWAP9 POP POP POP POP POP POP POP POP POP SWAP1 JUMP JUMPDEST PUSH2 0x4361 JUMP JUMPDEST POP DUP2 DUP4 LT PUSH2 0x4377 JUMP JUMPDEST PUSH1 0x0 SWAP1 DUP2 MSTORE PUSH1 0x1A PUSH1 0x20 SWAP1 DUP1 DUP3 MSTORE PUSH1 0x1 SWAP3 PUSH1 0x40 SWAP2 DUP5 DUP4 DUP4 KECCAK256 ADD SLOAD SWAP4 DUP6 DUP4 SWAP1 JUMPDEST PUSH2 0x448F JUMPI JUMPDEST POP POP POP POP POP POP POP JUMP JUMPDEST DUP6 ISZERO ISZERO DUP1 PUSH2 0x44D7 JUMPI JUMPDEST ISZERO PUSH2 0x44D2 JUMPI DUP6 DUP8 SWAP7 DUP6 MSTORE DUP4 DUP4 MSTORE PUSH1 0x5 DUP7 DUP7 KECCAK256 ADD PUSH2 0x44B5 DUP2 SLOAD PUSH2 0x34D6 JUMP JUMPDEST SWAP1 SSTORE DUP5 MSTORE DUP3 DUP3 MSTORE PUSH2 0x44CB DUP7 DUP7 DUP7 KECCAK256 ADD SLOAD SWAP2 PUSH2 0x34D6 JUMP JUMPDEST SWAP1 SWAP6 PUSH2 0x4481 JUMP JUMPDEST PUSH2 0x4486 JUMP JUMPDEST POP PUSH1 0x64 DUP2 LT PUSH2 0x4498 JUMP JUMPDEST SWAP1 PUSH1 0xD DUP2 LT ISZERO PUSH2 0x309E JUMPI PUSH1 0x5 SHL ADD SWAP1 JUMP JUMPDEST PUSH1 0x0 CALLER DUP2 MSTORE PUSH1 0x19 PUSH1 0x20 MSTORE PUSH1 0x40 DUP2 KECCAK256 SLOAD DUP1 ISZERO PUSH2 0x454E JUMPI DUP1 DUP3 MSTORE PUSH1 0x1A PUSH1 0x20 MSTORE PUSH1 0x40 DUP1 DUP4 KECCAK256 SWAP3 PUSH1 0x1B PUSH1 0x20 MSTORE KECCAK256 SWAP1 PUSH1 0x3 DUP4 ADD SLOAD SWAP4 PUSH1 0x5 DUP5 ADD SLOAD SWAP4 PUSH1 0x1 PUSH1 0x4 DUP3 ADD SLOAD SWAP5 ADD SLOAD SWAP3 PUSH1 0x1 DUP3 ADD SLOAD SWAP3 PUSH1 0x6 PUSH1 0x2 DUP5 ADD SLOAD SWAP4 ADD SLOAD SWAP2 SWAP8 SWAP7 SWAP6 SWAP5 SWAP4 SWAP3 SWAP2 SWAP1 JUMP JUMPDEST POP SWAP1 DUP2 DUP1 SWAP2 DUP2 DUP1 SWAP2 DUP2 DUP1 SWAP2 DUP2 SWAP1 JUMP JUMPDEST PUSH1 0x0 SWAP1 CALLER DUP3 MSTORE PUSH1 0x19 PUSH1 0x20 MSTORE PUSH1 0x40 DUP3 KECCAK256 SLOAD DUP1 ISZERO PUSH2 0x45AA JUMPI DUP3 MSTORE PUSH1 0x1B PUSH1 0x20 MSTORE PUSH1 0x40 DUP3 KECCAK256 DUP1 SLOAD SWAP3 PUSH1 0x1 DUP3 ADD SLOAD SWAP4 PUSH1 0x2 DUP4 ADD SLOAD SWAP4 PUSH1 0x40 PUSH1 0x4 PUSH1 0x3 DUP7 ADD SLOAD SWAP6 ADD SLOAD SWAP4 PUSH1 0x1E PUSH1 0x20 MSTORE KECCAK256 SLOAD SWAP2 SWAP6 SWAP5 SWAP4 SWAP3 SWAP2 SWAP1 JUMP JUMPDEST POP DUP2 DUP1 SWAP2 DUP2 DUP1 SWAP2 DUP2 SWAP1 JUMP JUMPDEST PUSH1 0x0 SWAP1 CALLER DUP3 MSTORE PUSH1 0x20 PUSH1 0x19 DUP2 MSTORE PUSH1 0x40 DUP1 DUP5 KECCAK256 SLOAD DUP1 ISZERO PUSH2 0x4686 JUMPI DUP5 MSTORE PUSH1 0x1A DUP1 DUP4 MSTORE DUP2 DUP6 KECCAK256 SWAP3 PUSH1 0x4 PUSH1 0x5 DUP6 ADD SLOAD SWAP5 ADD SLOAD SWAP4 PUSH1 0x1F DUP3 MSTORE DUP4 DUP8 KECCAK256 SWAP1 DUP5 MLOAD DUP1 DUP4 DUP6 DUP3 SWAP6 SLOAD SWAP4 DUP5 DUP2 MSTORE ADD SWAP1 DUP12 MSTORE DUP6 DUP12 KECCAK256 SWAP3 DUP12 JUMPDEST DUP8 DUP3 DUP3 LT PUSH2 0x4670 JUMPI POP POP POP PUSH2 0x4618 SWAP3 POP SUB DUP4 PUSH2 0x3223 JUMP JUMPDEST DUP2 SWAP6 PUSH2 0x4624 DUP4 MLOAD PUSH2 0x42CF JUMP JUMPDEST SWAP7 DUP10 JUMPDEST DUP5 MLOAD DUP2 LT ISZERO PUSH2 0x4663 JUMPI DUP1 PUSH2 0x463E PUSH2 0x465E SWAP3 DUP8 PUSH2 0x4301 JUMP JUMPDEST MLOAD DUP13 MSTORE DUP8 DUP8 MSTORE DUP9 DUP13 KECCAK256 SLOAD PUSH1 0x8 SHR PUSH1 0x1 PUSH1 0x1 PUSH1 0xA0 SHL SUB AND PUSH2 0xE9F DUP3 DUP13 PUSH2 0x4301 JUMP JUMPDEST PUSH2 0x4627 JUMP JUMPDEST POP SWAP7 SWAP6 POP SWAP7 SWAP4 POP SWAP7 POP POP POP JUMP JUMPDEST DUP6 SLOAD DUP5 MSTORE PUSH1 0x1 SWAP6 DUP7 ADD SWAP6 DUP9 SWAP6 POP SWAP4 ADD SWAP3 ADD PUSH2 0x4601 JUMP JUMPDEST POP DUP1 MLOAD SWAP3 SWAP2 POP PUSH2 0x4695 DUP4 PUSH2 0x31EB JUMP JUMPDEST DUP4 DUP4 MSTORE MLOAD SWAP1 PUSH2 0x46A3 DUP3 PUSH2 0x31EB JUMP JUMPDEST DUP4 DUP3 MSTORE DUP4 CALLDATASIZE DUP2 CALLDATACOPY DUP4 SWAP3 SWAP2 SWAP1 JUMP JUMPDEST MLOAD SWAP1 DUP2 ISZERO ISZERO DUP3 SUB PUSH2 0x1179 JUMPI JUMP JUMPDEST SWAP1 PUSH1 0x4 DUP2 LT ISZERO PUSH2 0x309E JUMPI PUSH1 0x5 SHL ADD SWAP1 JUMP JUMPDEST PUSH1 0x40 DUP1 MLOAD SWAP2 PUSH2 0x46DC DUP4 PUSH2 0x3207 JUMP JUMPDEST PUSH1 0x80 CALLDATASIZE DUP5 CALLDATACOPY DUP3 DUP3 MLOAD SWAP2 PUSH2 0x46EE DUP4 PUSH2 0x3207 JUMP JUMPDEST PUSH1 0x80 CALLDATASIZE DUP5 CALLDATACOPY DUP4 MLOAD DUP4 SWAP2 PUSH2 0x4700 DUP3 PUSH2 0x3207 JUMP JUMPDEST PUSH1 0x80 CALLDATASIZE DUP4 CALLDATACOPY DUP2 SWAP1 PUSH1 0x0 SWAP6 CALLER DUP8 MSTORE PUSH1 0x20 SWAP4 PUSH1 0x19 DUP6 MSTORE DUP9 DUP9 KECCAK256 SLOAD SWAP7 DUP8 ISZERO PUSH2 0x482E JUMPI POP POP PUSH32 0x0 PUSH1 0x1 PUSH1 0x1 PUSH1 0xA0 SHL SUB AND SWAP8 SWAP1 POP DUP7 JUMPDEST PUSH1 0x4 SWAP1 DUP2 DUP2 LT ISZERO PUSH2 0x4822 JUMPI DUP3 MLOAD PUSH4 0x2075D107 PUSH1 0xE2 SHL DUP2 MSTORE SWAP2 DUP3 ADD DUP9 SWAP1 MSTORE PUSH1 0x24 DUP3 ADD DUP2 SWAP1 MSTORE PUSH1 0x60 SWAP2 DUP3 DUP2 PUSH1 0x44 DUP2 DUP15 GAS STATICCALL SWAP3 DUP4 ISZERO PUSH2 0x4818 JUMPI DUP11 SWAP2 DUP12 SWAP2 DUP13 SWAP6 PUSH2 0x47C4 JUMPI JUMPDEST POP POP PUSH2 0x47BF SWAP4 PUSH2 0x47A1 DUP5 DUP10 PUSH2 0x46BD JUMP JUMPDEST SWAP1 ISZERO ISZERO SWAP1 MSTORE PUSH2 0x47B0 DUP4 DUP11 PUSH2 0x46BD JUMP JUMPDEST SWAP1 ISZERO ISZERO SWAP1 MSTORE PUSH2 0xE9F DUP3 DUP14 PUSH2 0x46BD JUMP JUMPDEST PUSH2 0x4750 JUMP JUMPDEST SWAP3 POP SWAP3 SWAP4 POP POP DUP2 DUP2 RETURNDATASIZE DUP4 GT PUSH2 0x4811 JUMPI JUMPDEST PUSH2 0x47DE DUP2 DUP4 PUSH2 0x3223 JUMP JUMPDEST DUP2 ADD SUB SLT PUSH2 0x480D JUMPI SWAP1 DUP2 PUSH2 0x47BF SWAP3 MLOAD PUSH2 0x4803 DUP6 PUSH2 0x47FC DUP11 DUP6 ADD PUSH2 0x46B0 JUMP JUMPDEST SWAP4 ADD PUSH2 0x46B0 JUMP JUMPDEST SWAP1 SWAP2 SWAP1 SWAP4 CODESIZE PUSH2 0x4791 JUMP JUMPDEST DUP9 DUP1 REVERT JUMPDEST POP RETURNDATASIZE PUSH2 0x47D4 JUMP JUMPDEST DUP5 MLOAD RETURNDATASIZE DUP13 DUP3 RETURNDATACOPY RETURNDATASIZE SWAP1 REVERT JUMPDEST POP POP POP SWAP4 POP SWAP4 POP POP SWAP3 POP JUMP JUMPDEST SWAP10 POP SWAP1 SWAP8 POP SWAP6 POP SWAP4 POP POP POP POP JUMP JUMPDEST MLOAD SWAP1 PUSH10 0xFFFFFFFFFFFFFFFFFFFF DUP3 AND DUP3 SUB PUSH2 0x1179 JUMPI JUMP JUMPDEST PUSH1 0x2 SLOAD PUSH1 0x40 MLOAD PUSH4 0x3FABE5A3 PUSH1 0xE2 SHL DUP2 MSTORE SWAP1 PUSH1 0xA0 SWAP1 DUP3 SWAP1 PUSH1 0x4 SWAP1 DUP3 SWAP1 PUSH1 0x1 PUSH1 0x1 PUSH1 0xA0 SHL SUB AND GAS STATICCALL DUP1 PUSH1 0x0 SWAP3 DUP4 SWAP3 PUSH2 0x48FD JUMPI JUMPDEST POP PUSH2 0x4891 JUMPI POP POP PUSH1 0x3 SLOAD SWAP1 JUMP JUMPDEST PUSH2 0x48AA PUSH2 0xE10 SWAP2 PUSH2 0x48A4 PUSH1 0x0 DUP6 SGT PUSH2 0x37CB JUMP JUMPDEST TIMESTAMP PUSH2 0x3586 JUMP JUMPDEST LT ISZERO PUSH2 0x48CA JUMPI PUSH5 0x2540BE400 SWAP1 DUP2 DUP2 MUL SWAP2 DUP2 DUP4 DIV EQ SWAP1 ISZERO OR ISZERO PUSH2 0x895 JUMPI SWAP1 JUMP JUMPDEST PUSH1 0x40 MLOAD PUSH3 0x461BCD PUSH1 0xE5 SHL DUP2 MSTORE PUSH1 0x20 PUSH1 0x4 DUP3 ADD MSTORE PUSH1 0xB PUSH1 0x24 DUP3 ADD MSTORE PUSH11 0x5374616C65207072696365 PUSH1 0xA8 SHL PUSH1 0x44 DUP3 ADD MSTORE PUSH1 0x64 SWAP1 REVERT JUMPDEST SWAP3 SWAP1 SWAP2 POP PUSH1 0xA0 DUP4 RETURNDATASIZE DUP3 GT PUSH2 0x494B JUMPI JUMPDEST DUP2 PUSH2 0x4919 PUSH1 0xA0 SWAP4 DUP4 PUSH2 0x3223 JUMP JUMPDEST DUP2 ADD SUB SLT PUSH2 0x3F8 JUMPI POP PUSH2 0x492B DUP3 PUSH2 0x483C JUMP JUMPDEST POP PUSH1 0x20 DUP3 ADD MLOAD PUSH2 0x4942 PUSH1 0x80 PUSH1 0x60 DUP6 ADD MLOAD SWAP5 ADD PUSH2 0x483C JUMP JUMPDEST POP SWAP2 SWAP1 CODESIZE PUSH2 0x4884 JUMP JUMPDEST RETURNDATASIZE SWAP2 POP PUSH2 0x490C JUMP JUMPDEST PUSH1 0x0 PUSH1 0x44 RETURNDATASIZE LT PUSH2 0x330C JUMPI PUSH1 0x40 MLOAD PUSH1 0x3 NOT SWAP2 RETURNDATASIZE DUP4 ADD PUSH1 0x4 DUP4 RETURNDATACOPY DUP2 MLOAD PUSH8 0xFFFFFFFFFFFFFFFF SWAP2 DUP3 DUP3 GT RETURNDATASIZE PUSH1 0x24 DUP5 ADD GT OR PUSH2 0x49B1 JUMPI DUP2 DUP5 ADD SWAP5 DUP6 MLOAD SWAP4 DUP5 GT PUSH2 0x49B9 JUMPI RETURNDATASIZE DUP6 ADD ADD PUSH1 0x20 DUP5 DUP8 ADD ADD GT PUSH2 0x49B1 JUMPI POP PUSH2 0x330C SWAP3 SWAP2 ADD PUSH1 0x20 ADD SWAP1 PUSH2 0x3223 JUMP JUMPDEST SWAP5 SWAP4 POP POP POP POP JUMP JUMPDEST POP SWAP5 SWAP4 POP POP POP POP JUMP JUMPDEST PUSH2 0x49D1 PUSH1 0x5 SLOAD PUSH1 0x4 SLOAD SWAP1 PUSH2 0x3408 JUMP JUMPDEST TIMESTAMP LT ISZERO SWAP1 JUMP INVALID 0xFB 0xE 0xCE SWAP6 RETURNDATACOPY LOG4 0x5E 0x22 0x1E 0xAB ADDRESS 0x4A 0xC9 RETURNDATASIZE ADD PUSH14 0x67C4FF3F6D5CE3D2FB6DB7D2043B CHAINID 0xFC LOG2 PUSH5 0x6970667358 0x22 SLT KECCAK256 SWAP3 DUP12 PUSH25 0x360E9F4BE34C7758FDD9D7A93E7379F12F8D259956945FD5D8 0x21 0xE2 SELFBALANCE 0xAB PUSH5 0x736F6C6343 STOP ADDMOD EQ STOP CALLER DUP12 0xE0 SMOD SWAP13 MSTORE8 AND MSIZE EQ SGT PREVRANDAO 0xCD 0x1F 0xD0 LOG4 CALLCODE DUP5 NOT 0x49 PUSH32 0x9722A3DAAFE3B4186F6B6457E000000000000000000000000000000000000000 "},"methodIdentifiers":{"ADMIN_FEE_PERCENT()":"d3d50d95","DIRECT_REQUIRED()":"aafb9800","FEE_RECEIVER()":"d3e78e4d","MAX_INCOME_LAYER()":"4bf96a88","MAX_LEVELS()":"6702c7bf","MAX_PLACEMENT_DEPTH()":"a7476dcf","MAX_REFERRAL_LAYERS()":"697d2428","ROYALTY_ADDR()":"9d720652","ROYALTY_FUND_PERCENT()":"bfca1cd0","START_TIME()":"ddaa26ad","autoUpdateEnabled()":"3586cd14","bnbPrice()":"576dde12","claimMyRoyalty(uint256)":"6fa6e58a","claimRoyalty(uint256,uint256)":"806d73be","getAllLevelCosts()":"e6bb42d8","getContractBalance()":"6f9fb98a","getLatestBNBPrice()":"504e4730","getLevelCost(uint256)":"2b6e4da0","getLevelCostWithFee(uint256)":"76ed7f0e","getMyIncomeBreakdown()":"4a429d12","getMyInfo()":"7daa10ce","getMyRoyaltyStatus()":"5d7d6342","getMyTeam()":"9c8c3e80","getPriceStatus()":"ecef6cff","getReferrerAddress(uint256)":"0e1bc0ee","getRegistrationCost()":"2d8ae549","getUpgradeCost(uint256)":"ff329e7c","getUpgradeCostFor(address,uint256)":"f12c860a","getUserAccount(uint256)":"fdc61181","id(address)":"8955defb","initializeRoyalty()":"437f6e23","isAutonomous()":"f28d3d5e","isPriceUpdateDue()":"e649f378","isRegistered(address)":"c3c5a547","lastPriceUpdate()":"6949faeb","levelCosts(uint256)":"7e06a01f","lostIncome(uint256)":"2233a830","manualPriceUpdate()":"4cd2b1ea","matrixDirect(uint256)":"88afbe3e","maxBNBPrice()":"1daa8ae2","minBNBPrice()":"790bd584","owner()":"8da5cb5b","pauseContract()":"439766ce","paused()":"5c975abb","priceFeed()":"741bef1a","priceUpdateInterval()":"5ffde7be","recoverBNB()":"6bfdf8a0","register(uint256,address)":"dbbdf083","registerMe(address)":"d0ac2596","renounceOwnership()":"715018a6","setAutoUpdateEnabled(bool)":"82ee173e","setLevelCost(uint256,uint256)":"dfe10d44","setLevelCost(uint8,uint256)":"21d178fb","setManualPrice(uint256)":"d7a71868","setPriceBounds(uint256,uint256)":"19b9dfb5","setPriceFeed(address)":"724e78da","setUpdateInterval(uint256)":"7124c683","teams(uint256,uint256,uint256)":"5aabf7f1","totalUsers()":"bff1f9e1","transferOwnership(address)":"f2fde38b","unpauseContract()":"b33712c5","updateBNBPrice(uint256)":"17d031a3","upgrade(uint256,uint256)":"451450ec","upgradeMe(uint256)":"fb2ddd70","userIncome(uint256)":"6266a380","userInfo(uint256)":"51d70bc4"}}}}}