{
  "_format": "hh-sol-artifact-1",
  "contractName": "RideBNB",
  "sourceName": "contracts/RideBNB_USDT.sol",
  "abi": [
    {
      "inputs": [
        {
          "internalType": "address",
          "name": "_feeReceiver",
          "type": "address"
        },
        {
          "internalType": "address",
          "name": "_royalty",
          "type": "address"
        },
        {
          "internalType": "address",
          "name": "_rootUserAddress",
          "type": "address"
        },
        {
          "internalType": "uint256",
          "name": "_rootUserId",
          "type": "uint256"
        },
        {
          "internalType": "address",
          "name": "_usdtToken",
          "type": "address"
        }
      ],
      "stateMutability": "nonpayable",
      "type": "constructor"
    },
    {
      "anonymous": false,
      "inputs": [
        {
          "indexed": false,
          "internalType": "uint256",
          "name": "amount",
          "type": "uint256"
        },
        {
          "indexed": false,
          "internalType": "uint256",
          "name": "level",
          "type": "uint256"
        },
        {
          "indexed": false,
          "internalType": "uint256",
          "name": "timestamp",
          "type": "uint256"
        }
      ],
      "name": "AdminFeePaid",
      "type": "event"
    },
    {
      "anonymous": false,
      "inputs": [
        {
          "indexed": true,
          "internalType": "uint256",
          "name": "userId",
          "type": "uint256"
        },
        {
          "indexed": true,
          "internalType": "uint256",
          "name": "fromUser",
          "type": "uint256"
        },
        {
          "indexed": false,
          "internalType": "uint256",
          "name": "amount",
          "type": "uint256"
        },
        {
          "indexed": false,
          "internalType": "string",
          "name": "reason",
          "type": "string"
        },
        {
          "indexed": false,
          "internalType": "uint256",
          "name": "timestamp",
          "type": "uint256"
        }
      ],
      "name": "IncomeLost",
      "type": "event"
    },
    {
      "anonymous": false,
      "inputs": [
        {
          "indexed": true,
          "internalType": "uint8",
          "name": "level",
          "type": "uint8"
        },
        {
          "indexed": false,
          "internalType": "uint256",
          "name": "oldCost",
          "type": "uint256"
        },
        {
          "indexed": false,
          "internalType": "uint256",
          "name": "newCost",
          "type": "uint256"
        },
        {
          "indexed": false,
          "internalType": "uint256",
          "name": "timestamp",
          "type": "uint256"
        }
      ],
      "name": "LevelCostUpdated",
      "type": "event"
    },
    {
      "anonymous": false,
      "inputs": [
        {
          "indexed": true,
          "internalType": "uint256",
          "name": "fromUserId",
          "type": "uint256"
        },
        {
          "indexed": true,
          "internalType": "uint256",
          "name": "toUserId",
          "type": "uint256"
        },
        {
          "indexed": false,
          "internalType": "uint256",
          "name": "amount",
          "type": "uint256"
        },
        {
          "indexed": false,
          "internalType": "uint256",
          "name": "level",
          "type": "uint256"
        },
        {
          "indexed": false,
          "internalType": "uint256",
          "name": "layer",
          "type": "uint256"
        },
        {
          "indexed": false,
          "internalType": "bool",
          "name": "qualified",
          "type": "bool"
        },
        {
          "indexed": false,
          "internalType": "uint256",
          "name": "timestamp",
          "type": "uint256"
        }
      ],
      "name": "MatrixPayment",
      "type": "event"
    },
    {
      "anonymous": false,
      "inputs": [
        {
          "indexed": true,
          "internalType": "address",
          "name": "previousOwner",
          "type": "address"
        },
        {
          "indexed": false,
          "internalType": "uint256",
          "name": "timestamp",
          "type": "uint256"
        }
      ],
      "name": "OwnershipRenounced",
      "type": "event"
    },
    {
      "anonymous": false,
      "inputs": [
        {
          "indexed": true,
          "internalType": "address",
          "name": "previousOwner",
          "type": "address"
        },
        {
          "indexed": true,
          "internalType": "address",
          "name": "newOwner",
          "type": "address"
        }
      ],
      "name": "OwnershipTransferred",
      "type": "event"
    },
    {
      "anonymous": false,
      "inputs": [
        {
          "indexed": true,
          "internalType": "uint256",
          "name": "referrerId",
          "type": "uint256"
        },
        {
          "indexed": true,
          "internalType": "uint256",
          "name": "userId",
          "type": "uint256"
        },
        {
          "indexed": false,
          "internalType": "uint256",
          "name": "amount",
          "type": "uint256"
        },
        {
          "indexed": false,
          "internalType": "uint256",
          "name": "timestamp",
          "type": "uint256"
        }
      ],
      "name": "ReferralPayment",
      "type": "event"
    },
    {
      "anonymous": false,
      "inputs": [
        {
          "indexed": true,
          "internalType": "uint256",
          "name": "rootUserId",
          "type": "uint256"
        },
        {
          "indexed": true,
          "internalType": "address",
          "name": "rootAddress",
          "type": "address"
        },
        {
          "indexed": false,
          "internalType": "uint256",
          "name": "timestamp",
          "type": "uint256"
        }
      ],
      "name": "RootUserCreated",
      "type": "event"
    },
    {
      "anonymous": false,
      "inputs": [
        {
          "indexed": true,
          "internalType": "uint256",
          "name": "userId",
          "type": "uint256"
        },
        {
          "indexed": true,
          "internalType": "uint256",
          "name": "royaltyLevel",
          "type": "uint256"
        },
        {
          "indexed": false,
          "internalType": "uint256",
          "name": "amount",
          "type": "uint256"
        },
        {
          "indexed": false,
          "internalType": "uint256",
          "name": "timestamp",
          "type": "uint256"
        }
      ],
      "name": "RoyaltyClaimed",
      "type": "event"
    },
    {
      "anonymous": false,
      "inputs": [
        {
          "indexed": true,
          "internalType": "uint256",
          "name": "userId",
          "type": "uint256"
        },
        {
          "indexed": false,
          "internalType": "uint256",
          "name": "amount",
          "type": "uint256"
        },
        {
          "indexed": false,
          "internalType": "uint256",
          "name": "timestamp",
          "type": "uint256"
        }
      ],
      "name": "RoyaltyPoolFunded",
      "type": "event"
    },
    {
      "anonymous": false,
      "inputs": [
        {
          "indexed": true,
          "internalType": "uint256",
          "name": "sponsorId",
          "type": "uint256"
        },
        {
          "indexed": true,
          "internalType": "uint256",
          "name": "fromUserId",
          "type": "uint256"
        },
        {
          "indexed": false,
          "internalType": "uint256",
          "name": "amount",
          "type": "uint256"
        },
        {
          "indexed": false,
          "internalType": "uint256",
          "name": "level",
          "type": "uint256"
        },
        {
          "indexed": false,
          "internalType": "uint256",
          "name": "timestamp",
          "type": "uint256"
        }
      ],
      "name": "SponsorCommissionPaid",
      "type": "event"
    },
    {
      "anonymous": false,
      "inputs": [
        {
          "indexed": true,
          "internalType": "uint256",
          "name": "userId",
          "type": "uint256"
        },
        {
          "indexed": true,
          "internalType": "address",
          "name": "account",
          "type": "address"
        },
        {
          "indexed": true,
          "internalType": "uint256",
          "name": "referrer",
          "type": "uint256"
        },
        {
          "indexed": false,
          "internalType": "uint256",
          "name": "timestamp",
          "type": "uint256"
        }
      ],
      "name": "UserRegistered",
      "type": "event"
    },
    {
      "anonymous": false,
      "inputs": [
        {
          "indexed": true,
          "internalType": "uint256",
          "name": "userId",
          "type": "uint256"
        },
        {
          "indexed": false,
          "internalType": "uint256",
          "name": "newLevel",
          "type": "uint256"
        },
        {
          "indexed": false,
          "internalType": "uint256",
          "name": "amount",
          "type": "uint256"
        },
        {
          "indexed": false,
          "internalType": "uint256",
          "name": "timestamp",
          "type": "uint256"
        }
      ],
      "name": "UserUpgraded",
      "type": "event"
    },
    {
      "inputs": [],
      "name": "ADMIN_FEE_PERCENT",
      "outputs": [
        {
          "internalType": "uint8",
          "name": "",
          "type": "uint8"
        }
      ],
      "stateMutability": "view",
      "type": "function"
    },
    {
      "inputs": [],
      "name": "DIRECT_REQUIRED",
      "outputs": [
        {
          "internalType": "uint256",
          "name": "",
          "type": "uint256"
        }
      ],
      "stateMutability": "view",
      "type": "function"
    },
    {
      "inputs": [],
      "name": "FEE_RECEIVER",
      "outputs": [
        {
          "internalType": "address",
          "name": "",
          "type": "address"
        }
      ],
      "stateMutability": "view",
      "type": "function"
    },
    {
      "inputs": [],
      "name": "MAX_INCOME_LAYER",
      "outputs": [
        {
          "internalType": "uint8",
          "name": "",
          "type": "uint8"
        }
      ],
      "stateMutability": "view",
      "type": "function"
    },
    {
      "inputs": [],
      "name": "MAX_LEVELS",
      "outputs": [
        {
          "internalType": "uint8",
          "name": "",
          "type": "uint8"
        }
      ],
      "stateMutability": "view",
      "type": "function"
    },
    {
      "inputs": [],
      "name": "MAX_PLACEMENT_DEPTH",
      "outputs": [
        {
          "internalType": "uint8",
          "name": "",
          "type": "uint8"
        }
      ],
      "stateMutability": "view",
      "type": "function"
    },
    {
      "inputs": [],
      "name": "MAX_REFERRAL_LAYERS",
      "outputs": [
        {
          "internalType": "uint256",
          "name": "",
          "type": "uint256"
        }
      ],
      "stateMutability": "view",
      "type": "function"
    },
    {
      "inputs": [],
      "name": "ROYALTY_ADDR",
      "outputs": [
        {
          "internalType": "contract IRoyalty",
          "name": "",
          "type": "address"
        }
      ],
      "stateMutability": "view",
      "type": "function"
    },
    {
      "inputs": [],
      "name": "ROYALTY_FUND_PERCENT",
      "outputs": [
        {
          "internalType": "uint8",
          "name": "",
          "type": "uint8"
        }
      ],
      "stateMutability": "view",
      "type": "function"
    },
    {
      "inputs": [],
      "name": "START_TIME",
      "outputs": [
        {
          "internalType": "uint256",
          "name": "",
          "type": "uint256"
        }
      ],
      "stateMutability": "view",
      "type": "function"
    },
    {
      "inputs": [],
      "name": "USDT",
      "outputs": [
        {
          "internalType": "contract IERC20",
          "name": "",
          "type": "address"
        }
      ],
      "stateMutability": "view",
      "type": "function"
    },
    {
      "inputs": [
        {
          "internalType": "uint256",
          "name": "_tier",
          "type": "uint256"
        }
      ],
      "name": "claimMyRoyalty",
      "outputs": [],
      "stateMutability": "nonpayable",
      "type": "function"
    },
    {
      "inputs": [
        {
          "internalType": "uint256",
          "name": "_id",
          "type": "uint256"
        },
        {
          "internalType": "uint256",
          "name": "_royaltyLvl",
          "type": "uint256"
        }
      ],
      "name": "claimRoyalty",
      "outputs": [],
      "stateMutability": "nonpayable",
      "type": "function"
    },
    {
      "inputs": [],
      "name": "getAllLevelCosts",
      "outputs": [
        {
          "internalType": "uint256[13]",
          "name": "costs",
          "type": "uint256[13]"
        },
        {
          "internalType": "uint256[13]",
          "name": "fees",
          "type": "uint256[13]"
        },
        {
          "internalType": "uint256[13]",
          "name": "totals",
          "type": "uint256[13]"
        }
      ],
      "stateMutability": "view",
      "type": "function"
    },
    {
      "inputs": [],
      "name": "getContractBalance",
      "outputs": [
        {
          "internalType": "uint256",
          "name": "",
          "type": "uint256"
        }
      ],
      "stateMutability": "view",
      "type": "function"
    },
    {
      "inputs": [
        {
          "internalType": "uint256",
          "name": "_level",
          "type": "uint256"
        }
      ],
      "name": "getLevelCost",
      "outputs": [
        {
          "internalType": "uint256",
          "name": "cost",
          "type": "uint256"
        },
        {
          "internalType": "uint256",
          "name": "adminFee",
          "type": "uint256"
        },
        {
          "internalType": "uint256",
          "name": "total",
          "type": "uint256"
        }
      ],
      "stateMutability": "view",
      "type": "function"
    },
    {
      "inputs": [],
      "name": "getMyIncomeBreakdown",
      "outputs": [
        {
          "internalType": "uint256",
          "name": "totalDeposit",
          "type": "uint256"
        },
        {
          "internalType": "uint256",
          "name": "totalIncome",
          "type": "uint256"
        },
        {
          "internalType": "uint256",
          "name": "referralIncome",
          "type": "uint256"
        },
        {
          "internalType": "uint256",
          "name": "sponsorIncome",
          "type": "uint256"
        },
        {
          "internalType": "uint256",
          "name": "levelIncome",
          "type": "uint256"
        },
        {
          "internalType": "uint256",
          "name": "lostAmount",
          "type": "uint256"
        }
      ],
      "stateMutability": "view",
      "type": "function"
    },
    {
      "inputs": [],
      "name": "getMyInfo",
      "outputs": [
        {
          "internalType": "uint256",
          "name": "userId",
          "type": "uint256"
        },
        {
          "internalType": "uint256",
          "name": "level",
          "type": "uint256"
        },
        {
          "internalType": "uint256",
          "name": "team",
          "type": "uint256"
        },
        {
          "internalType": "uint256",
          "name": "directTeam",
          "type": "uint256"
        },
        {
          "internalType": "uint256",
          "name": "totalIncome",
          "type": "uint256"
        },
        {
          "internalType": "uint256",
          "name": "referrerId",
          "type": "uint256"
        },
        {
          "internalType": "uint256",
          "name": "uplineId",
          "type": "uint256"
        },
        {
          "internalType": "uint256",
          "name": "registrationTime",
          "type": "uint256"
        }
      ],
      "stateMutability": "view",
      "type": "function"
    },
    {
      "inputs": [],
      "name": "getMyRoyaltyStatus",
      "outputs": [
        {
          "internalType": "uint256[4]",
          "name": "claimableAmounts",
          "type": "uint256[4]"
        },
        {
          "internalType": "bool[4]",
          "name": "isEligible",
          "type": "bool[4]"
        },
        {
          "internalType": "bool[4]",
          "name": "hasClaimed",
          "type": "bool[4]"
        }
      ],
      "stateMutability": "view",
      "type": "function"
    },
    {
      "inputs": [],
      "name": "getMyTeam",
      "outputs": [
        {
          "internalType": "uint256",
          "name": "teamSize",
          "type": "uint256"
        },
        {
          "internalType": "uint256",
          "name": "directCount",
          "type": "uint256"
        },
        {
          "internalType": "uint256[]",
          "name": "directReferralIds",
          "type": "uint256[]"
        },
        {
          "internalType": "address[]",
          "name": "directReferralAddresses",
          "type": "address[]"
        }
      ],
      "stateMutability": "view",
      "type": "function"
    },
    {
      "inputs": [],
      "name": "getRegistrationCost",
      "outputs": [
        {
          "internalType": "uint256",
          "name": "cost",
          "type": "uint256"
        },
        {
          "internalType": "uint256",
          "name": "levelCost",
          "type": "uint256"
        },
        {
          "internalType": "uint256",
          "name": "adminFee",
          "type": "uint256"
        }
      ],
      "stateMutability": "view",
      "type": "function"
    },
    {
      "inputs": [
        {
          "internalType": "uint256",
          "name": "_levels",
          "type": "uint256"
        }
      ],
      "name": "getUpgradeCost",
      "outputs": [
        {
          "internalType": "uint256",
          "name": "totalCost",
          "type": "uint256"
        },
        {
          "internalType": "uint256[]",
          "name": "breakdown",
          "type": "uint256[]"
        }
      ],
      "stateMutability": "view",
      "type": "function"
    },
    {
      "inputs": [
        {
          "internalType": "uint256",
          "name": "_userId",
          "type": "uint256"
        }
      ],
      "name": "getUserAccount",
      "outputs": [
        {
          "internalType": "address",
          "name": "",
          "type": "address"
        }
      ],
      "stateMutability": "view",
      "type": "function"
    },
    {
      "inputs": [
        {
          "internalType": "address",
          "name": "",
          "type": "address"
        }
      ],
      "name": "id",
      "outputs": [
        {
          "internalType": "uint256",
          "name": "",
          "type": "uint256"
        }
      ],
      "stateMutability": "view",
      "type": "function"
    },
    {
      "inputs": [],
      "name": "isAutonomous",
      "outputs": [
        {
          "internalType": "bool",
          "name": "",
          "type": "bool"
        }
      ],
      "stateMutability": "view",
      "type": "function"
    },
    {
      "inputs": [
        {
          "internalType": "address",
          "name": "_address",
          "type": "address"
        }
      ],
      "name": "isRegistered",
      "outputs": [
        {
          "internalType": "bool",
          "name": "",
          "type": "bool"
        }
      ],
      "stateMutability": "view",
      "type": "function"
    },
    {
      "inputs": [
        {
          "internalType": "uint256",
          "name": "",
          "type": "uint256"
        }
      ],
      "name": "levelCosts",
      "outputs": [
        {
          "internalType": "uint256",
          "name": "",
          "type": "uint256"
        }
      ],
      "stateMutability": "view",
      "type": "function"
    },
    {
      "inputs": [
        {
          "internalType": "uint256",
          "name": "",
          "type": "uint256"
        }
      ],
      "name": "lostIncome",
      "outputs": [
        {
          "internalType": "uint256",
          "name": "",
          "type": "uint256"
        }
      ],
      "stateMutability": "view",
      "type": "function"
    },
    {
      "inputs": [
        {
          "internalType": "uint256",
          "name": "",
          "type": "uint256"
        }
      ],
      "name": "matrixDirect",
      "outputs": [
        {
          "internalType": "uint256",
          "name": "",
          "type": "uint256"
        }
      ],
      "stateMutability": "view",
      "type": "function"
    },
    {
      "inputs": [],
      "name": "owner",
      "outputs": [
        {
          "internalType": "address",
          "name": "",
          "type": "address"
        }
      ],
      "stateMutability": "view",
      "type": "function"
    },
    {
      "inputs": [
        {
          "internalType": "uint256",
          "name": "_ref",
          "type": "uint256"
        },
        {
          "internalType": "address",
          "name": "_newAcc",
          "type": "address"
        }
      ],
      "name": "register",
      "outputs": [],
      "stateMutability": "nonpayable",
      "type": "function"
    },
    {
      "inputs": [
        {
          "internalType": "address",
          "name": "_referrerAddress",
          "type": "address"
        }
      ],
      "name": "registerMe",
      "outputs": [],
      "stateMutability": "nonpayable",
      "type": "function"
    },
    {
      "inputs": [],
      "name": "renounceOwnership",
      "outputs": [],
      "stateMutability": "nonpayable",
      "type": "function"
    },
    {
      "inputs": [
        {
          "internalType": "uint8",
          "name": "_level",
          "type": "uint8"
        },
        {
          "internalType": "uint256",
          "name": "_newCost",
          "type": "uint256"
        }
      ],
      "name": "setLevelCost",
      "outputs": [],
      "stateMutability": "nonpayable",
      "type": "function"
    },
    {
      "inputs": [
        {
          "internalType": "uint256",
          "name": "",
          "type": "uint256"
        },
        {
          "internalType": "uint256",
          "name": "",
          "type": "uint256"
        },
        {
          "internalType": "uint256",
          "name": "",
          "type": "uint256"
        }
      ],
      "name": "teams",
      "outputs": [
        {
          "internalType": "uint256",
          "name": "",
          "type": "uint256"
        }
      ],
      "stateMutability": "view",
      "type": "function"
    },
    {
      "inputs": [],
      "name": "totalUsers",
      "outputs": [
        {
          "internalType": "uint256",
          "name": "",
          "type": "uint256"
        }
      ],
      "stateMutability": "view",
      "type": "function"
    },
    {
      "inputs": [
        {
          "internalType": "address",
          "name": "newOwner",
          "type": "address"
        }
      ],
      "name": "transferOwnership",
      "outputs": [],
      "stateMutability": "nonpayable",
      "type": "function"
    },
    {
      "inputs": [
        {
          "internalType": "uint256",
          "name": "_id",
          "type": "uint256"
        },
        {
          "internalType": "uint256",
          "name": "_lvls",
          "type": "uint256"
        }
      ],
      "name": "upgrade",
      "outputs": [],
      "stateMutability": "nonpayable",
      "type": "function"
    },
    {
      "inputs": [
        {
          "internalType": "uint256",
          "name": "_levels",
          "type": "uint256"
        }
      ],
      "name": "upgradeMe",
      "outputs": [],
      "stateMutability": "nonpayable",
      "type": "function"
    },
    {
      "inputs": [
        {
          "internalType": "uint256",
          "name": "",
          "type": "uint256"
        }
      ],
      "name": "userIncome",
      "outputs": [
        {
          "internalType": "uint256",
          "name": "totalDeposit",
          "type": "uint256"
        },
        {
          "internalType": "uint256",
          "name": "totalIncome",
          "type": "uint256"
        },
        {
          "internalType": "uint256",
          "name": "referralIncome",
          "type": "uint256"
        },
        {
          "internalType": "uint256",
          "name": "sponsorIncome",
          "type": "uint256"
        },
        {
          "internalType": "uint256",
          "name": "levelIncome",
          "type": "uint256"
        }
      ],
      "stateMutability": "view",
      "type": "function"
    },
    {
      "inputs": [
        {
          "internalType": "uint256",
          "name": "",
          "type": "uint256"
        }
      ],
      "name": "userInfo",
      "outputs": [
        {
          "internalType": "bool",
          "name": "exists",
          "type": "bool"
        },
        {
          "internalType": "address",
          "name": "account",
          "type": "address"
        },
        {
          "internalType": "uint256",
          "name": "referrer",
          "type": "uint256"
        },
        {
          "internalType": "uint256",
          "name": "upline",
          "type": "uint256"
        },
        {
          "internalType": "uint256",
          "name": "level",
          "type": "uint256"
        },
        {
          "internalType": "uint256",
          "name": "directTeam",
          "type": "uint256"
        },
        {
          "internalType": "uint256",
          "name": "team",
          "type": "uint256"
        },
        {
          "internalType": "uint256",
          "name": "registrationTime",
          "type": "uint256"
        }
      ],
      "stateMutability": "view",
      "type": "function"
    }
  ],
  "bytecode": "0x61012034620007d55760006001600160401b03601f620045c938819003918201601f19168501919083831186841017620007c15790808693926040938452843960a092839181010312620007bd57620000588562000804565b916020916200006983880162000804565b6200007682890162000804565b936060890151946200008c6080809b0162000804565b928451986101a08a018a811082821117620007a9578652674563918244f400008a52678ac7230489e80000848b01526801158e460913d00000868b015268022b1c8c1227a0000060608b01526804563918244f4000008c8b01526808ac7230489e800000878b015260c097681158e460913d000000898c015260e0996822b1c8c1227a0000008b8d01526101009b684563918244f40000008d820152688ac7230489e80000006101208201526901158e460913d000000061014082015269022b1c8c1227a00000006101608201526904563918244f400000006101808201528d5b600d81106200078f5750506001600e819055946001600160a01b0394828616156200074b57851690811562000715578516978815620006d15783156200068d5785169182156200065a578f528a52818b52428c528852600d80546001600160a01b031916331790556010819055858c5260118552868c208190558651808c0183811182821017620006465790868f8f969594938d918f8c8f938f9081528c88528688019182528b818901938a855260608a01958b87528a0196600d88528a01978289528a019d8e528901974289528a825260129052209651151590875490600160a81b6101009003905160081b169160ff1690600160a81b60019003191617178655518a86015551600285015551600384015551956004968784015551600583015551906006015587519189830190838210908211176200063357908e8e86938b528085528885018181528b808701928084526060880194818652880195818752815260138c522095518655518886015551600285015551600384015551910155885192601854680100000000000000008110156200062057818101806018558110156200060d578490868e60188152200155600f5580885116803b15620005b1578b809160648951809481936366f0566160e11b998a845289840152600a60248401528160448401525af18015620005d157620005f7575b50808851168951813b15620005db578c91606483928a5194859384928a845289840152600b60248401528160448401525af18015620005d157908c91620005df575b5050808851168951813b15620005db578c91606483928a5194859384928a845289840152600c60248401528160448401525af18015620005d157908c91620005b5575b505087511691885192803b15620005b1578b929183606492895196879586948552840152600d60248401528160448401525af18015620005a7579089916200058b575b50507fccf9e170264f78923037f9d4f09c5eb756fcb20f871f02dcedb45f500d77b9888651918451428152a3519433907f8be0079c531659141344cd1fd0a4f28419497f9722a3daafe3b4186f6b6457e08180a3613daf95866200081a87395185818161075601528181610d0601528181611b4601526129540152518481816103cb0152818161069c0152818161079401528181610b7001528181610dc001528181610f57015281816115030152818161184f015281816125c10152818161273b015281816128910152818161299301528181612b6e01528181612cdd015281816131d601526132860152518381816104fb0152818161054e0152818161065c0152818161102e0152818161125d0152818161189b015281816128550152613c4a015251828181610cb301528181610eef0152818161120401528181611480015281816126d701528181612b0b015261322701525181610a860152f35b6200059690620007da565b620005a35787386200042e565b8780fd5b84513d8b823e3d90fd5b8b80fd5b620005c090620007da565b620005cd578a38620003eb565b8a80fd5b87513d8e823e3d90fd5b8c80fd5b620005ea90620007da565b620005cd578a38620003a8565b62000605909b919b620007da565b993862000366565b634e487b7160e01b8d526032845260248dfd5b634e487b7160e01b8d526041845260248dfd5b634e487b7160e01b8e526041855260248efd5b634e487b7160e01b8e52604160045260248efd5b895162461bcd60e51b815260048101899052600c60248201526b125b9d985b1a59081554d11560a21b6044820152606490fd5b895162461bcd60e51b815260048101899052601460248201527f496e76616c696420726f6f7420757365722049440000000000000000000000006044820152606490fd5b895162461bcd60e51b815260048101899052601460248201527f496e76616c696420726f6f7420616464726573730000000000000000000000006044820152606490fd5b895162461bcd60e51b815260048101899052600f60248201526e496e76616c696420726f79616c747960881b6044820152606490fd5b895162461bcd60e51b815260048101899052601460248201527f496e76616c6964206665652072656365697665720000000000000000000000006044820152606490fd5b81516001600160501b03168155908701906001016200016d565b634e487b7160e01b8c52604160045260248cfd5b8380fd5b634e487b7160e01b85526041600452602485fd5b600080fd5b6001600160401b038111620007ee57604052565b634e487b7160e01b600052604160045260246000fd5b51906001600160a01b0382168203620007d55756fe6080604052600436101561001257600080fd5b60003560e01c806321d178fb14611d8e5780632233a83014611d625780632b6e4da014611d035780632d8ae54914611cb8578063451450ec146117a25780634a429d12146117625780634bf96a881461174657806351d70bc4146116c15780635aabf7f11461166c5780635d7d6342146116085780636266a380146115b05780636702c7bf14611594578063697d2428146115785780636f9fb98a146114d75780636fa6e58a14611404578063715018a6146113a25780637daa10ce146113545780637e06a01f1461132b578063806d73be1461117157806388afbe3e146111455780638955defb1461110b5780638da5cb5b146110e25780639c8c3e801461105d5780639d72065214611018578063a7476dcf14610ffc578063aafb980014610fe0578063bfca1cd014610d35578063bff1f9e114610fc2578063c3c5a54714610f86578063c54e44eb14610f41578063d0ac259614610d3a578063d3d50d9514610d35578063d3e78e4d14610cf0578063dbbdf08314610aa9578063ddaa26ad14610a6e578063e6bb42d814610980578063f28d3d5e14610956578063f2fde38b146108e0578063fb2ddd701461031f578063fdc61181146102e85763ff329e7c146101df57600080fd5b346102e35760203660031901126102e3576004353360005260118060205260406000205461020e8115156124c3565b6000526012602052600360406000200154610235600d61022e85846120e3565b11156123f5565b61023e83613770565b926000926000925b82841061026f57858561026b6040519283928352604060208401526040830190611f94565b0390f35b9091929361027d85836120e3565b60001981019081116102ce576102c6916102ae61029c6102c093612366565b60646102a7826120cd565b04906120e3565b90816102ba898b6137a2565b526120e3565b9461227a565b929190610246565b83634e487b7160e01b60005260045260246000fd5b600080fd5b346102e35760203660031901126102e3576004356000526012602052602060018060a01b0360406000205460081c16604051908152f35b346102e35760203660031901126102e35733600052601160205260406000205461034a8115156124c3565b80600052601260205260018060a01b03906103708260406000205460081c1633146123ba565b806000526012602052610392600d61022e6004356003604060002001546120e3565b6000805b600435811061089457506040516323b872dd60e01b8152336004820152306024820152604481019190915260208160648160007f000000000000000000000000000000000000000000000000000000000000000088165af1801561062b57600090610859575b61040691506121ba565b60005b600435811061041457005b81600052601260205261042f816003604060002001546120e3565b60001981019081116106375761044490612366565b906064610450836120cd565b04836000526012602052600360406000200161046c815461227a565b905583600052601360205260406000206104878482546120e3565b905580610747575b50606461049b836120cd565b048061064d575b6104ac8385612a99565b846000526012602052600360406000200154906000198201918211610637576104df926104d891612435565b9085613142565b82600052601260205260406000206004600382015491015490857f0000000000000000000000000000000000000000000000000000000000000000163b156102e3576040516366f0566160e11b81526004810186905260248101919091526044810191909152600081606481837f00000000000000000000000000000000000000000000000000000000000000008a165af1801561062b576106179385927f430828e9e608608c6f34402a3bbf7ccff1cd71ac750c401a12c72e4578350f969261061c575b50826000526012602052600360406000200154906105da6040519283924291846040919493926060820195825260208201520152565b0390a2826000526012602052610612600360406000200154604051906105ff8261211a565b8582526020820152426040820152612289565b61227a565b610409565b610625906120f0565b876105a4565b6040513d6000823e3d90fd5b634e487b7160e01b600052601160045260246000fd5b60405163a9059cbb60e01b81527f000000000000000000000000000000000000000000000000000000000000000086166001600160a01b031660048201526024810182905260208160448160007f00000000000000000000000000000000000000000000000000000000000000008b165af1801561062b5760009061070c575b6106d79150612481565b837fb74a7140ef81c80d0e213846b7b10b59f9c366b463e36e1f98bf00ef44c670b460408051848152426020820152a26104a2565b506020813d60201161073f575b816107266020938361218b565b810103126102e35761073a6106d7916121ad565b6106cd565b3d9150610719565b60405163a9059cbb60e01b81527f00000000000000000000000000000000000000000000000000000000000000006001600160a01b031660048201526024810182905260208160448160007f00000000000000000000000000000000000000000000000000000000000000008b165af1801561062b5760009061081e575b6107cf9150612442565b8360005260126020526003604060002001548060001981011161063757604080519283526000199190910160208301524290820152600080516020613d5a83398151915290606090a18461048f565b506020813d602011610851575b816108386020938361218b565b810103126102e35761084c6107cf916121ad565b6107c5565b3d915061082b565b506020813d60201161088c575b816108736020938361218b565b810103126102e357610887610406916121ad565b6103fc565b3d9150610866565b908260005260126020526108b0826003604060002001546120e3565b6000198101908111610637576108db916108cf61029c6108d593612366565b906120e3565b9161227a565b610396565b346102e35760203660031901126102e3576108f9611f7e565b600d546001600160a01b0380821692610913338514612500565b16809261092182151561208f565b7f8be0079c531659141344cd1fd0a4f28419497f9722a3daafe3b4186f6b6457e0600080a36001600160a01b03191617600d55005b346102e35760003660031901126102e357600d546040516001600160a01b03909116158152602090f35b346102e35760003660031901126102e35760405161099d81612136565b6101a09081368237604051916109b283612136565b80368437604051906109c382612136565b8036833760005b600d8110610a015750906109f46104e0946109ff936109ec6040518097611fe4565b850190611fe4565b610340830190611fe4565bf35b80610a0e610a6992612366565b610a188287613a15565b526064610a2e610a288388613a15565b516120cd565b04610a398288613a15565b52610a59610a478287613a15565b51610a528389613a15565b51906120e3565b610a638286613a15565b5261227a565b6109ca565b346102e35760003660031901126102e35760206040517f00000000000000000000000000000000000000000000000000000000000000008152f35b346102e35760403660031901126102e3576001600160a01b036024358181166004358183036102e357610ae06001600e541461200c565b6000600e55808260005260209160118352610b006040600020541561204e565b610b0b84151561208f565b8015908115610cd7575b50610cb0575b60005492600083610b6c6064610b30886120cd565b0498610b3c8a896120e3565b6040516323b872dd60e01b8152336004820152306024820152604481019190915293849283919082906064820190565b03927f0000000000000000000000000000000000000000000000000000000000000000165af1801561062b57600090610c7a575b610baa91506121ba565b601054946001860180961161063757610c7396600195610be28580610c19958b6010558760005260118a528b6040600020558b6135cb565b610beb886121fd565b610bf6600f5461227a565b600f5587600052601386526040600020610c118282546120e3565b905587612539565b610c2382866137b6565b610c2c85613997565b847f19871a311455a6a311f1a6dcef0dc6478acccea5a81b0bafe39d188d098efaf384604051428152a460405192610c638461211a565b8352820152426040820152612289565b6001600e55005b508381813d8311610ca9575b610c90818361218b565b810103126102e357610ca4610baa916121ad565b610ba0565b503d610c86565b507f0000000000000000000000000000000000000000000000000000000000000000610b1b565b90506000526012825260ff604060002054161586610b15565b346102e35760003660031901126102e3576040517f00000000000000000000000000000000000000000000000000000000000000006001600160a01b03168152602090f35b611fc8565b346102e3576020806003193601126102e3576001600160a01b0380610d5d611f7e565b1680610f2e57506000905b813360005260118452610d806040600020541561204e565b610d8b33151561208f565b8015908115610f15575b50610eed575b60005492600081610dbc6064610db0886120cd565b0494610b3c86896120e3565b03927f0000000000000000000000000000000000000000000000000000000000000000165af1801561062b57600090610eb7575b610dfa91506121ba565b601054926001840180941161063757610e69600193610eb59686601055336000526011855286604060002055610e328480338a6135cb565b610e3b876121fd565b610e46600f5461227a565b600f5586600052601385526040600020610e618282546120e3565b905586612539565b610e7381856137b6565b610e7c84613997565b604051428152847f19871a311455a6a311f1a6dcef0dc6478acccea5a81b0bafe39d188d098efaf3843393a460405192610c638461211a565b005b508181813d8311610ee6575b610ecd818361218b565b810103126102e357610ee1610dfa916121ad565b610df0565b503d610ec3565b7f00000000000000000000000000000000000000000000000000000000000000009150610d9b565b90506000526012835260ff604060002054161584610d95565b6000526011825260406000205490610d68565b346102e35760003660031901126102e3576040517f00000000000000000000000000000000000000000000000000000000000000006001600160a01b03168152602090f35b346102e35760203660031901126102e3576001600160a01b03610fa7611f7e565b16600052601160205260206040600020541515604051908152f35b346102e35760003660031901126102e3576020600f54604051908152f35b346102e35760003660031901126102e357602060405160028152f35b346102e35760003660031901126102e357602060405160648152f35b346102e35760003660031901126102e3576040517f00000000000000000000000000000000000000000000000000000000000000006001600160a01b03168152602090f35b346102e35760003660031901126102e357611076613ae9565b90929161109c604051948594855260209283860152608060408601526080850190611f94565b838103606085015281808451928381520193019160005b8281106110c257505050500390f35b83516001600160a01b0316855286955093810193928101926001016110b3565b346102e35760003660031901126102e357600d546040516001600160a01b039091168152602090f35b346102e35760203660031901126102e3576001600160a01b0361112c611f7e565b1660005260116020526020604060002054604051908152f35b346102e35760203660031901126102e35760043560005260156020526020604060002054604051908152f35b346102e35761117f36611f26565b9061118e6001600e541461200c565b6000600e5580151580611313575b6111a59061237c565b8060005260206012815260018060a01b036111cb8160406000205460081c1633146123ba565b6000838152601383526040808220600181015490546012865282842054925163c7403e1d60e01b815260048101889052602481018990527f000000000000000000000000000000000000000000000000000000000000000060448201526064810192909252608482015260089190911c83166001600160a01b031660a482015291839183919082908160c481015b03927f0000000000000000000000000000000000000000000000000000000000000000165af190811561062b576000916112c6575b506040907fb64f1f8f03ee84ec0cfb24d1299d6ce9ef6d58ea0787053de092ec3f8b14255c9282519182524290820152a36001600e55005b90508181813d831161130c575b6112dd818361218b565b810103126102e357517fb64f1f8f03ee84ec0cfb24d1299d6ce9ef6d58ea0787053de092ec3f8b14255c61128e565b503d6112d3565b5060008181526012602052604090205460ff1661119c565b346102e35760203660031901126102e357600435600d8110156102e35760209054604051908152f35b346102e35760003660031901126102e357610100611370613a26565b95604095919594929451978852602088015260408701526060860152608085015260a084015260c083015260e0820152f35b346102e35760003660031901126102e357600d546001600160a01b0381166113cb338214612500565b7f656ba3c6830b11142778bbcfaff90d2ecc89186277667c2ce8700e4697ddccc26020604051428152a26001600160a01b031916600d55005b346102e3576020806003193601126102e357600435906114286001600e541461200c565b6000600e553360005260118152604060002054906114478215156124c3565b6000828152601382526040808220600181015490546012855282842054925163c7403e1d60e01b815260048101879052602481018890527f00000000000000000000000000000000000000000000000000000000000000006044820152606481019290925260848201526001600160a01b0360089290921c821660a4820152918391839182908160c48101611259565b346102e35760003660031901126102e3576040516370a0823160e01b81523060048201526020816024817f00000000000000000000000000000000000000000000000000000000000000006001600160a01b03165afa801561062b57600090611546575b602090604051908152f35b506020813d8211611570575b8161155f6020938361218b565b810103126102e3576020905161153b565b3d9150611552565b346102e35760003660031901126102e357602060405160018152f35b346102e35760003660031901126102e3576020604051600d8152f35b346102e35760203660031901126102e357600435600052601360205260a06040600020805490600181015490600281015460046003830154920154926040519485526020850152604084015260608301526080820152f35b346102e35760003660031901126102e357611621613bf5565b91906040519182906000915b6004831061165557610180856109ff8861164a6080840189611f54565b610100830190611f54565b60019082518152602080910192019201919061162d565b346102e35760603660031901126102e35760443560043560005260146020526040600020602435600052602052604060002080548210156102e3576020916116b391611f3c565b90546040519160031b1c8152f35b346102e35760203660031901126102e357600435600052601260205261010060406000208054906001810154906002810154600382015460048301549160066005850154940154946040519660ff81161515885260018060a01b039060081c16602088015260408701526060860152608085015260a084015260c083015260e0820152f35b346102e35760003660031901126102e357602060405160148152f35b346102e35760003660031901126102e35760c061177d613a91565b93604093919351958652602086015260408501526060840152608083015260a0820152f35b346102e3576117b036611f26565b906117bf6001600e541461200c565b6000600e5580151580611ca0575b6117d69061237c565b80600052601260209181835260018060a01b03926117ff8460406000205460081c1633146123ba565b81600052828152600361181e600d61022e8884604060002001546120e3565b60009360005b878110611c5d57506040516323b872dd60e01b815233600482015230602482015260448101959095527f0000000000000000000000000000000000000000000000000000000000000000861694838160648160008a5af1801561062b57600090611c27575b61189691509796976121ba565b6000967f000000000000000000000000000000000000000000000000000000000000000016965b8681106118cb576001600e55005b846000528184526118e38184604060002001546120e3565b6000199190828101908111610637576118fb90612366565b91606480611908856120cd565b048860005285885286604060002001611921815461227a565b90558860005260138852604060002061193b8682546120e3565b905580611b37575b5061194d846120cd565b04908a87838b81611a7f575b505050506119678489612a99565b886000528588528660406000200154918201918211610637576119949261198d91612435565b9088613142565b856000528285526040600020600485820154910154908a3b156102e3576040516366f0566160e11b81526004810189905260248101919091526044810191909152600081606481838e5af1801561062b57611a6b9388927f430828e9e608608c6f34402a3bbf7ccff1cd71ac750c401a12c72e4578350f9692611a70575b506000838152868952604090819020880154815190815260208101929092524290820152606090a285600052828552610612846040600020015460405190611a598261211a565b88825287820152426040820152612289565b6118bd565b611a79906120f0565b8c611a12565b60405163a9059cbb60e01b81526001600160a01b039490941660048501526024840191909152829060449082906000905af1801561062b57600090611b01575b611ac99150612481565b877fb74a7140ef81c80d0e213846b7b10b59f9c366b463e36e1f98bf00ef44c670b460408051858152428b820152a28a87838b611959565b508781813d8311611b30575b611b17818361218b565b810103126102e357611b2b611ac9916121ad565b611abf565b503d611b0d565b60405163a9059cbb60e01b81527f00000000000000000000000000000000000000000000000000000000000000006001600160a01b0316600482015260248101829052888160448160008f5af1801561062b57600090611bf1575b611b9c9150612442565b8860005285885286604060002001549083820191821161063757600080516020613d5a83398151915291611be86040519283924291846040919493926060820195825260208201520152565b0390a18b611943565b508881813d8311611c20575b611c07818361218b565b810103126102e357611c1b611b9c916121ad565b611b92565b503d611bfd565b508381813d8311611c56575b611c3d818361218b565b810103126102e357611c51611896916121ad565b611889565b503d611c33565b9484600052818452611c768684604060002001546120e3565b600019810190811161063757611c9b916108cf61029c611c9593612366565b9561227a565b611824565b5060008181526012602052604090205460ff166117cd565b346102e35760003660031901126102e3576000546064611cd7826120cd565b0461026b611ce582846120e3565b91604051938493846040919493926060820195825260208201520152565b346102e35760203660031901126102e357611d2b600435611d26600d821061232a565b612366565b6064611d36826120cd565b049061026b611d4583836120e3565b604051938493846040919493926060820195825260208201520152565b346102e35760203660031901126102e35760043560005260166020526020604060002054604051908152f35b346102e35760403660031901126102e35760043560ff8116908181036102e35760243590611dc760018060a01b03600d54163314612500565b611dd3600d841061232a565b8115611ee957670de0b6b3a76400008210611eab5769152d02c7e14af68000008211611e6657600d811015611e5057817f01160ded273713b62692b83f3f861bfef99579eaf0440d7a22d838a3d163922e9282549255611e4b6040519283924291846040919493926060820195825260208201520152565b0390a2005b634e487b7160e01b600052603260045260246000fd5b60405162461bcd60e51b815260206004820152601c60248201527f4d6178696d756d20636f7374206973203130302c3030302055534454000000006044820152606490fd5b60405162461bcd60e51b8152602060048201526016602482015275135a5b9a5b5d5b4818dbdcdd081a5cc80c481554d11560521b6044820152606490fd5b60405162461bcd60e51b8152602060048201526015602482015274436f7374206d75737420626520706f73697469766560581b6044820152606490fd5b60409060031901126102e3576004359060243590565b8054821015611e505760005260206000200190600090565b6000915b60048310611f6557505050565b6001908251151581526020809101920192019190611f58565b600435906001600160a01b03821682036102e357565b90815180825260208080930193019160005b828110611fb4575050505090565b835185529381019392810192600101611fa6565b346102e35760003660031901126102e357602060405160058152f35b6000915b600d8310611ff557505050565b600190825181526020809101920192019190611fe8565b1561201357565b60405162461bcd60e51b81526020600482015260136024820152721499595b9d1c985b98de4819195d1958dd1959606a1b6044820152606490fd5b1561205557565b60405162461bcd60e51b8152602060048201526012602482015271105b1c9958591e481c9959da5cdd195c995960721b6044820152606490fd5b1561209657565b60405162461bcd60e51b815260206004820152600f60248201526e496e76616c6964206164647265737360881b6044820152606490fd5b9060058202918083046005149015171561063757565b9190820180921161063757565b67ffffffffffffffff811161210457604052565b634e487b7160e01b600052604160045260246000fd5b6060810190811067ffffffffffffffff82111761210457604052565b6101a0810190811067ffffffffffffffff82111761210457604052565b6020810190811067ffffffffffffffff82111761210457604052565b6080810190811067ffffffffffffffff82111761210457604052565b90601f8019910116810190811067ffffffffffffffff82111761210457604052565b519081151582036102e357565b156121c157565b60405162461bcd60e51b81526020600482015260146024820152731554d115081d1c985b9cd9995c8819985a5b195960621b6044820152606490fd5b601854600160401b811015612104576001810180601855811015611e505760186000527fb13d2d76d1f4b7be834882e410b3e3a8afaf69f83600ae24db354391d2378d2e0155565b8054600160401b8110156121045761226291600182018155611f3c565b819291549060031b91821b91600019901b1916179055565b60001981146106375760010190565b601954600160401b811015612104576001810180601955811015611e5057604060037f944998273e477b495144fb8794c914197f3ccb46be2900f4698fd0ef743c969792601960005202928051847f944998273e477b495144fb8794c914197f3ccb46be2900f4698fd0ef743c9695015560208101517f944998273e477b495144fb8794c914197f3ccb46be2900f4698fd0ef743c96968501550151910155565b1561233157565b60405162461bcd60e51b815260206004820152600d60248201526c125b9d985b1a59081b195d995b609a1b6044820152606490fd5b600d81106123738161232a565b15611e50575490565b1561238357565b60405162461bcd60e51b815260206004820152600f60248201526e125b9d985b1a59081d5cd95c881251608a1b6044820152606490fd5b156123c157565b60405162461bcd60e51b815260206004820152600c60248201526b155b985d5d1a1bdc9a5e995960a21b6044820152606490fd5b156123fc57565b60405162461bcd60e51b8152602060048201526011602482015270115e18d959591cc81b585e081b195d995b607a1b6044820152606490fd5b9190820391821161063757565b1561244957565b60405162461bcd60e51b815260206004820152601060248201526f10591b5a5b881999594819985a5b195960821b6044820152606490fd5b1561248857565b60405162461bcd60e51b8152602060048201526013602482015272149bde585b1d1e48199d5b990819985a5b1959606a1b6044820152606490fd5b156124ca57565b60405162461bcd60e51b815260206004820152600e60248201526d139bdd081c9959da5cdd195c995960921b6044820152606490fd5b1561250757565b60405162461bcd60e51b815260206004820152600a60248201526927b7363c9037bbb732b960b11b6044820152606490fd5b918061293d575b50606461254c826120cd565b048061283e575b60008381526020601281526125716040936001858520015495612435565b918415158061282a575b156126d5578481526012825283812054845163a9059cbb60e01b81526001600160a01b0360089290921c82166004820152602481018590529083908290604490829086907f0000000000000000000000000000000000000000000000000000000000000000165af19081156126cb578291612692575b501561265c579060018483877f7f31b11e95a87830bd41893a2c8bb6991e584f4e5082cedeeffd2b1ca1bb76c597969552601384526002828220016126378682546120e3565b905587815260138452200161264d8382546120e3565b905582519182524290820152a3565b835162461bcd60e51b815260048101839052600f60248201526e149959995c9c985b0819985a5b1959608a1b6044820152606490fd5b90508281813d83116126c4575b6126a9818361218b565b810103126126c0576126ba906121ad565b386125f1565b5080fd5b503d61269f565b85513d84823e3d90fd5b7f00000000000000000000000000000000000000000000000000000000000000008082526012835284822054855163a9059cbb60e01b81526001600160a01b0360089290921c8216600482015260248101869052919650839082908185816044810103927f0000000000000000000000000000000000000000000000000000000000000000165af19081156126cb5782916127f5575b50156127b1579060018483877f7f31b11e95a87830bd41893a2c8bb6991e584f4e5082cedeeffd2b1ca1bb76c597969552601384526002828220016126378682546120e3565b835162461bcd60e51b815260048101839052601760248201527f44656661756c7420726566657272616c206661696c65640000000000000000006044820152606490fd5b90508281813d8311612823575b61280c818361218b565b810103126126c05761281d906121ad565b3861276b565b503d612802565b508481526012825260ff848220541661257b565b60405163a9059cbb60e01b81526001600160a01b037f00000000000000000000000000000000000000000000000000000000000000008116600483015260248201839052602090829060449082906000907f0000000000000000000000000000000000000000000000000000000000000000165af1801561062b57600090612900575b6128cb9150612481565b827fb74a7140ef81c80d0e213846b7b10b59f9c366b463e36e1f98bf00ef44c670b460408051848152426020820152a2612553565b6020823d8211612935575b816129186020938361218b565b81010312612932575061292d6128cb916121ad565b6128c1565b80fd5b3d915061290b565b60405163a9059cbb60e01b81526001600160a01b037f00000000000000000000000000000000000000000000000000000000000000008116600483015260248201839052600091906020908290604490829086907f0000000000000000000000000000000000000000000000000000000000000000165af1908115612a4b5782916129f8575b50916060916129e0600080516020613d5a83398151915294612442565b6040519182526020820152426040820152a138612540565b90506020813d8211612a43575b81612a126020938361218b565b810103126126c057916060916129e0612a39600080516020613d5a833981519152956121ad565b92945050916129c3565b3d9150612a05565b6040513d84823e3d90fd5b15612a5d57565b60405162461bcd60e51b8152602060048201526014602482015273149bdbdd0819985b1b189858dac819985a5b195960621b6044820152606490fd5b9190916000928184526020601281526001906040918083882001549487956101f4918287029287159088850414811715613080578a92855b612c46575b50505050612710900492838610612afa575b50505050612af7929350612435565b90565b9091929394612b099085612435565b7f00000000000000000000000000000000000000000000000000000000000000008089526012855282892054835163a9059cbb60e01b81526001600160a01b0360089290921c8216600482015260248101849052929592908390829060449082908e907f0000000000000000000000000000000000000000000000000000000000000000165af1908115612c3c578a91612be9575b50612bdc949392612af7999a92612bb6601393612a56565b808452828252600385852001612bcd8982546120e3565b905583525220019182546120e3565b9055908392388080612ae8565b90508281813d8311612c35575b612c00818361218b565b81010312612c3157612bdc949392612af7999a92612bb6612c226013946121ad565b935050929a9950929394612b9e565b8980fd5b503d612bf6565b84513d8c823e3d90fd5b60ff8416600d811080613077575b1561307157612c63858361354e565b61ffff612c6f87613094565b1690818c02918c83041485171561305d578e818c9290613050575b15612e2f5784815260128b5281812054915163a9059cbb60e01b81526001600160a01b0360089390931c83166004808301919091526127109094046024820181905293928c9082908185816044810103927f0000000000000000000000000000000000000000000000000000000000000000165af1908115612e25578291612df0575b50612d4e575b505050505b8b526012865284878c2001549260ff809116908114612d3a5785019285612ad1565b634e487b7160e01b8c52601160045260248cfd5b828a9293949e838e848f8a612d8f9752601390818152600384842001612d758882546120e3565b90558b8352522001612d888382546120e3565b90556120e3565b9c019060ff8211612ddd57507f38a882dd38cf7baf663586c9181108323f083cc8ac7cf5287586a0d56a71f9146060869360ff86948e51928352168c820152428d820152a33880808e612d13565b634e487b7160e01b8f526011905260248efd5b90508b81813d8311612e1e575b612e07818361218b565b810103126126c057612e18906121ad565b38612d0d565b503d612dfd565b8d513d84823e3d90fd5b929161271090049283612e46575b50505050612d18565b84815260128b5260ff828220541615612e3d5760168b5220612e698382546120e3565b90556005811015612f675750885189810181811067ffffffffffffffff821117612f5357908e918b52601a81527f4e6f742061637469766520286e656564204c6576656c20312b290000000000008a8201529183918a8c88955b815194855260608093860152805180938601528d845b848110612f2d57505050928092917f587d8f9cc4f7ae2f12f916b8ac03ac5414969dfaf447b84acbb1e2b171cb7eb2946080938483850101524290830152601f80199101168101030190a33880898e612e3d565b93965093509395505081818401015160808287010152018f90928c8895938d8896612ed9565b634e487b7160e01b8f52604160045260248ffd5b6008811015612fbd57508c8951612f7d8161211a565b602281527f4e65656420322b2064697265637420726566657272616c7320666f72204c362d8a82015261098760f31b8b8201525b9183918a8c8895612ec3565b600a111561300a578c8951612fd18161211a565b602381527f4e65656420332b2064697265637420726566657272616c7320666f72204c392d8a8201526204c31360ec1b8b820152612fb1565b8c89516130168161211a565b602481527f4e65656420352b2064697265637420726566657272616c7320666f72204c31318a820152632d4c313360e01b8b820152612fb1565b5061271083041515612c8a565b634e487b7160e01b8f52601160045260248ffd5b50612ad6565b50811515612c54565b634e487b7160e01b8b52601160045260248bfd5b60ff16801561313c57600181146131365760028114613130576003811461312a576004811461312a5760058114613124576006811461311e57600781146131185760088114613112576009811461310c57600a811461310657600b811461310657600c1461310157600090565b600a90565b50600a90565b50600f90565b50601490565b50601990565b50601e90565b50602890565b50603290565b50603c90565b50605090565b50606490565b6000908082526012602091818352600290604095869183838820015491879488905b6014821080613545575b1561353a57848a52878952858a20836003820154118061352c575b1561343257505083895286885284892054945163a9059cbb60e01b81526001600160a01b0360089690961c8616600480830191909152602482018d90529589908290818d816044810103927f0000000000000000000000000000000000000000000000000000000000000000165af1908115613428578a916133f3575b5061334f575b50505050505b1580613346575b613225575b5050505050565b7f000000000000000000000000000000000000000000000000000000000000000080845290825283832054845163a9059cbb60e01b81526001600160a01b0360089290921c82166004820152602481018790529083908290604490829088907f0000000000000000000000000000000000000000000000000000000000000000165af190811561333c5784916132ee575b506132e29492600194926132cb601393612a56565b808452828252600485852001612bcd8982546120e3565b9055388080808061321e565b90508281813d8311613335575b613305818361218b565b81010312613331576132e29492600194926132cb6133246013946121ad565b93505092945092946132b6565b8380fd5b503d6132fb565b85513d86823e3d90fd5b50841515613219565b9091928094955088526013808852858a8a200161336d8c82546120e3565b90558489528752600190818a8a20016133878c82546120e3565b905581958282018092116133e057509160a0917ffb0ece953ea45e221eab304ac93d016d67c4ff3f6d5ce3d2fb6db7d2043b46fc938b51928d84528a8401528b8301526060820152426080820152a3388080808061320c565b634e487b7160e01b8a5260119052602489fd5b90508881813d8311613421575b61340a818361218b565b81010312612c315761341b906121ad565b38613206565b503d613400565b8b513d8c823e3d90fd5b60ff919394959296505416613460575b8852858752613456818a8a2001549461227a565b8994939291613164565b6001850180861161351857817f587d8f9cc4f7ae2f12f916b8ac03ac5414969dfaf447b84acbb1e2b171cb7eb286928e8e7f4e6f74207175616c696669656420666f72206d617472697800000000000000008f8f906018908451968688528d8489015285880152606090818801528060809342858a01528a8c7ffb0ece953ea45e221eab304ac93d016d67c4ff3f6d5ce3d2fb6db7d2043b46fc60a0809ca386519788528701528501528301524290820152a3613442565b634e487b7160e01b8a52601160045260248afd5b508160048201541015613189565b505050505050613212565b5084151561316e565b600052601260205260406000209060ff8254161580156135bd575b6135b65760ff166005811015613580575050600190565b6008811015613596575060046002910154101590565b600a11156135aa5760046003910154101590565b60046005910154101590565b5050600090565b506001600383015410613569565b919092604091825161010081019067ffffffffffffffff918181108382111761210457601294600691875260018352876020998a928386019160018060a01b03168252898601908882526060870190815260808701916001835260a088019360009b8c9788875260c08b019789895260e08c0199428b5252528c8c20985115159060ff8a5491610100600160a81b03905160081b169216906affffffffffffffffffffff60a81b16171788555160018801555160028701555160038601555160048501555160058401555191015583519060a08201908282109082111761374457845282815260048682018481528583018581526060840190868252608085019287845289885260138b5288882095518655516001860155516002850155516003840155519101558015158061373a575b613707575050505050565b6137309481601792845260128252600485852001613725815461227a565b905583525220612245565b388080808061321e565b50838114156136fc565b634e487b7160e01b84526041600452602484fd5b67ffffffffffffffff81116121045760051b60200190565b9061377a82613758565b613787604051918261218b565b8281528092613798601f1991613758565b0190602036910137565b8051821015611e505760209160051b010190565b9091604092835191610ca0830183811067ffffffffffffffff8211176121045785526064835260209182840191610c80368437600095600193865115611e505783905260009693879390925b8386108061398d575b156139805761382d61382661381f8861227a565b978a6137a2565b519961227a565b92896000526014968789528b6000206000805289526002808d60002054106138d2575060005b8b600052888a528c600020600080528a528c80600020548210806138c8575b156138bb57908b610a6361389f8f6138b6958f8f8793600052815281600020906000805252600020611f3c565b9a90546138ab8261227a565b9b60031b1c926137a2565b613853565b50949a5096509250613802565b5060648810613872565b945050975098978094508093506000959195528552866000206000805285526138fe8688600020612245565b85600052601285528660002001556000526015825283600020613921815461227a565b905560015b15613932575b50505050565b6015928160005260148352846000206000805283526139548186600020612245565b6000526012825280600285600020015560005252600020613975815461227a565b90553880808061392c565b9897509350945050613926565b506064891061380b565b60009081526012602090808252600192604091848383200154938583905b6139c3575b50505050505050565b85151580613a0b575b15613a065785879685528383526005868620016139e9815461227a565b905584528282526139ff8686862001549161227a565b90956139b5565b6139ba565b50606481106139cc565b90600d811015611e505760051b0190565b6000338152601160205260408120548015613a8257808252601260205260408083209260136020522090600383015493600584015493600160048201549401549260018201549260066002840154930154919796959493929190565b50908180918180918180918190565b600090338252601160205260408220548015613ade578252601360205260408220805492600182015493600283015493604060046003860154950154936016602052205491959493929190565b508180918180918190565b6000903382526020601181526040808420548015613bba5784526012808352818520926004600585015494015493601782528387209084518083858295549384815201908b52858b20928b5b87828210613ba457505050613b4c9250038361218b565b8195613b588351613770565b96895b8451811015613b975780613b72613b9292876137a2565b518c52878752888c205460081c6001600160a01b0316610a63828c6137a2565b613b5b565b5096955096935096505050565b8554845260019586019588955093019201613b35565b508051929150613bc983612153565b8383525190613bd782612153565b8382528336813783929190565b906004811015611e505760051b0190565b6040805191613c038361216f565b608036843782825191613c158361216f565b608036843783518391613c278261216f565b608036833781906000953387526020936011855288882054968715613d4b5750507f00000000000000000000000000000000000000000000000000000000000000006001600160a01b0316979050865b60049081811015613d3f578251632075d10760e21b81529182018890526024820181905260609182816044818e5afa928315612c3c578a918b918c95613ceb575b5050613ce693613cc88489613be4565b9015159052613cd7838a613be4565b9015159052610a63828d613be4565b613c77565b92509293505081813d8311613d38575b613d05818361218b565b81010312613d34579081613ce69251613d2a85613d238a85016121ad565b93016121ad565b9091909338613cb8565b8880fd5b503d613cfb565b50505093509350509250565b99509097509550935050505056feedd09f264659ce99b52fd2a2d4f09e551eb001fe3fc56ffd5704fc1f402bc211a2646970667358221220d657e48755ffbdb54a4e74e90c945c5b0dd1e477e26e0ef3a67db892f5c83c0764736f6c63430008140033",
  "linkReferences": {},
  "deployedLinkReferences": {}
}