{
  "_format": "hh-sol-artifact-1",
  "contractName": "Royalty_USDT",
  "sourceName": "contracts/Royalty_USDT.sol",
  "abi": [
    {
      "inputs": [
        {
          "internalType": "address",
          "name": "_owner",
          "type": "address"
        },
        {
          "internalType": "uint256",
          "name": "_defaultRefer",
          "type": "uint256"
        },
        {
          "internalType": "address",
          "name": "_usdtToken",
          "type": "address"
        }
      ],
      "stateMutability": "nonpayable",
      "type": "constructor"
    },
    {
      "anonymous": false,
      "inputs": [
        {
          "indexed": true,
          "internalType": "address",
          "name": "previousOwner",
          "type": "address"
        },
        {
          "indexed": true,
          "internalType": "address",
          "name": "newOwner",
          "type": "address"
        }
      ],
      "name": "OwnershipTransferred",
      "type": "event"
    },
    {
      "anonymous": false,
      "inputs": [
        {
          "indexed": true,
          "internalType": "address",
          "name": "rideBNBContract",
          "type": "address"
        },
        {
          "indexed": false,
          "internalType": "uint256",
          "name": "timestamp",
          "type": "uint256"
        }
      ],
      "name": "RideBNBContractSet",
      "type": "event"
    },
    {
      "anonymous": false,
      "inputs": [
        {
          "indexed": true,
          "internalType": "uint256",
          "name": "userId",
          "type": "uint256"
        },
        {
          "indexed": true,
          "internalType": "uint256",
          "name": "tier",
          "type": "uint256"
        },
        {
          "indexed": false,
          "internalType": "uint256",
          "name": "amount",
          "type": "uint256"
        },
        {
          "indexed": false,
          "internalType": "uint256",
          "name": "timestamp",
          "type": "uint256"
        }
      ],
      "name": "RoyaltyClaimed",
      "type": "event"
    },
    {
      "anonymous": false,
      "inputs": [
        {
          "indexed": false,
          "internalType": "string",
          "name": "configType",
          "type": "string"
        },
        {
          "indexed": false,
          "internalType": "uint256",
          "name": "timestamp",
          "type": "uint256"
        }
      ],
      "name": "RoyaltyConfigUpdated",
      "type": "event"
    },
    {
      "anonymous": false,
      "inputs": [
        {
          "indexed": true,
          "internalType": "uint256",
          "name": "tier",
          "type": "uint256"
        },
        {
          "indexed": false,
          "internalType": "uint256",
          "name": "amount",
          "type": "uint256"
        },
        {
          "indexed": false,
          "internalType": "uint256",
          "name": "userCount",
          "type": "uint256"
        },
        {
          "indexed": false,
          "internalType": "uint256",
          "name": "timestamp",
          "type": "uint256"
        }
      ],
      "name": "RoyaltyDistributed",
      "type": "event"
    },
    {
      "anonymous": false,
      "inputs": [
        {
          "indexed": true,
          "internalType": "uint256",
          "name": "tier",
          "type": "uint256"
        },
        {
          "indexed": false,
          "internalType": "uint256",
          "name": "newLevel",
          "type": "uint256"
        },
        {
          "indexed": false,
          "internalType": "uint256",
          "name": "newDirects",
          "type": "uint256"
        },
        {
          "indexed": false,
          "internalType": "uint256",
          "name": "timestamp",
          "type": "uint256"
        }
      ],
      "name": "RoyaltyRequirementsUpdated",
      "type": "event"
    },
    {
      "anonymous": false,
      "inputs": [
        {
          "indexed": true,
          "internalType": "uint256",
          "name": "userId",
          "type": "uint256"
        },
        {
          "indexed": true,
          "internalType": "uint256",
          "name": "tier",
          "type": "uint256"
        },
        {
          "indexed": false,
          "internalType": "uint256",
          "name": "timestamp",
          "type": "uint256"
        }
      ],
      "name": "UserRegistered",
      "type": "event"
    },
    {
      "inputs": [],
      "name": "USDT",
      "outputs": [
        {
          "internalType": "contract IERC20",
          "name": "",
          "type": "address"
        }
      ],
      "stateMutability": "view",
      "type": "function"
    },
    {
      "inputs": [
        {
          "internalType": "uint256",
          "name": "_id",
          "type": "uint256"
        },
        {
          "internalType": "uint256",
          "name": "_tier",
          "type": "uint256"
        },
        {
          "internalType": "uint256",
          "name": "rootUserId",
          "type": "uint256"
        },
        {
          "internalType": "uint256",
          "name": "userTotalIncome",
          "type": "uint256"
        },
        {
          "internalType": "uint256",
          "name": "userTotalDeposit",
          "type": "uint256"
        },
        {
          "internalType": "address",
          "name": "userAccount",
          "type": "address"
        }
      ],
      "name": "claimRoyalty",
      "outputs": [
        {
          "internalType": "uint256",
          "name": "",
          "type": "uint256"
        }
      ],
      "stateMutability": "nonpayable",
      "type": "function"
    },
    {
      "inputs": [
        {
          "internalType": "uint256",
          "name": "_tier",
          "type": "uint256"
        }
      ],
      "name": "distRoyalty",
      "outputs": [],
      "stateMutability": "nonpayable",
      "type": "function"
    },
    {
      "inputs": [],
      "name": "getBalance",
      "outputs": [
        {
          "internalType": "uint256",
          "name": "",
          "type": "uint256"
        }
      ],
      "stateMutability": "view",
      "type": "function"
    },
    {
      "inputs": [],
      "name": "getContractConfig",
      "outputs": [
        {
          "internalType": "uint256",
          "name": "_royaltyMaxPercent",
          "type": "uint256"
        },
        {
          "internalType": "uint256",
          "name": "_royaltyDistTime",
          "type": "uint256"
        },
        {
          "internalType": "uint256",
          "name": "_startTime",
          "type": "uint256"
        },
        {
          "internalType": "uint256",
          "name": "_currentDay",
          "type": "uint256"
        }
      ],
      "stateMutability": "view",
      "type": "function"
    },
    {
      "inputs": [],
      "name": "getCurRoyaltyDay",
      "outputs": [
        {
          "internalType": "uint256",
          "name": "",
          "type": "uint256"
        }
      ],
      "stateMutability": "view",
      "type": "function"
    },
    {
      "inputs": [],
      "name": "getNextDistTime",
      "outputs": [
        {
          "internalType": "uint256",
          "name": "",
          "type": "uint256"
        }
      ],
      "stateMutability": "view",
      "type": "function"
    },
    {
      "inputs": [],
      "name": "getRoyaltyLevels",
      "outputs": [
        {
          "internalType": "uint256[4]",
          "name": "",
          "type": "uint256[4]"
        }
      ],
      "stateMutability": "view",
      "type": "function"
    },
    {
      "inputs": [],
      "name": "getRoyaltyPercents",
      "outputs": [
        {
          "internalType": "uint256[4]",
          "name": "",
          "type": "uint256[4]"
        }
      ],
      "stateMutability": "view",
      "type": "function"
    },
    {
      "inputs": [
        {
          "internalType": "uint256",
          "name": "_tier",
          "type": "uint256"
        }
      ],
      "name": "getTierStats",
      "outputs": [
        {
          "internalType": "uint256",
          "name": "userCount",
          "type": "uint256"
        },
        {
          "internalType": "uint256",
          "name": "distributionRound",
          "type": "uint256"
        },
        {
          "internalType": "uint256",
          "name": "pendingUserCount",
          "type": "uint256"
        }
      ],
      "stateMutability": "view",
      "type": "function"
    },
    {
      "inputs": [
        {
          "internalType": "uint256",
          "name": "_userId",
          "type": "uint256"
        },
        {
          "internalType": "uint256",
          "name": "_tier",
          "type": "uint256"
        }
      ],
      "name": "getUserRoyaltyData",
      "outputs": [
        {
          "internalType": "uint256",
          "name": "claimableAmount",
          "type": "uint256"
        },
        {
          "internalType": "bool",
          "name": "active",
          "type": "bool"
        },
        {
          "internalType": "uint256",
          "name": "lastClaimedDay",
          "type": "uint256"
        }
      ],
      "stateMutability": "view",
      "type": "function"
    },
    {
      "inputs": [
        {
          "internalType": "uint256",
          "name": "_userId",
          "type": "uint256"
        },
        {
          "internalType": "uint256",
          "name": "_tier",
          "type": "uint256"
        }
      ],
      "name": "isEligibleForRoyalty",
      "outputs": [
        {
          "internalType": "bool",
          "name": "",
          "type": "bool"
        }
      ],
      "stateMutability": "view",
      "type": "function"
    },
    {
      "inputs": [],
      "name": "owner",
      "outputs": [
        {
          "internalType": "address",
          "name": "",
          "type": "address"
        }
      ],
      "stateMutability": "view",
      "type": "function"
    },
    {
      "inputs": [
        {
          "internalType": "uint256",
          "name": "_userId",
          "type": "uint256"
        },
        {
          "internalType": "uint256",
          "name": "_level",
          "type": "uint256"
        },
        {
          "internalType": "uint256",
          "name": "_directCount",
          "type": "uint256"
        }
      ],
      "name": "registerUser",
      "outputs": [],
      "stateMutability": "nonpayable",
      "type": "function"
    },
    {
      "inputs": [],
      "name": "rideBNBContract",
      "outputs": [
        {
          "internalType": "address",
          "name": "",
          "type": "address"
        }
      ],
      "stateMutability": "view",
      "type": "function"
    },
    {
      "inputs": [
        {
          "internalType": "uint256",
          "name": "",
          "type": "uint256"
        },
        {
          "internalType": "uint256",
          "name": "",
          "type": "uint256"
        }
      ],
      "name": "royaltyActive",
      "outputs": [
        {
          "internalType": "bool",
          "name": "",
          "type": "bool"
        }
      ],
      "stateMutability": "view",
      "type": "function"
    },
    {
      "inputs": [
        {
          "internalType": "uint256",
          "name": "",
          "type": "uint256"
        }
      ],
      "name": "royaltyData",
      "outputs": [
        {
          "internalType": "uint256",
          "name": "userCount",
          "type": "uint256"
        },
        {
          "internalType": "uint256",
          "name": "index",
          "type": "uint256"
        },
        {
          "internalType": "uint256",
          "name": "distributionRound",
          "type": "uint256"
        },
        {
          "internalType": "uint256",
          "name": "dividendPerShare",
          "type": "uint256"
        }
      ],
      "stateMutability": "view",
      "type": "function"
    },
    {
      "inputs": [
        {
          "internalType": "uint256",
          "name": "",
          "type": "uint256"
        }
      ],
      "name": "royaltyDirects",
      "outputs": [
        {
          "internalType": "uint256",
          "name": "",
          "type": "uint256"
        }
      ],
      "stateMutability": "view",
      "type": "function"
    },
    {
      "inputs": [],
      "name": "royaltyDistTime",
      "outputs": [
        {
          "internalType": "uint256",
          "name": "",
          "type": "uint256"
        }
      ],
      "stateMutability": "view",
      "type": "function"
    },
    {
      "inputs": [
        {
          "internalType": "uint256",
          "name": "",
          "type": "uint256"
        }
      ],
      "name": "royaltyIncome",
      "outputs": [
        {
          "internalType": "uint256",
          "name": "",
          "type": "uint256"
        }
      ],
      "stateMutability": "view",
      "type": "function"
    },
    {
      "inputs": [
        {
          "internalType": "uint256",
          "name": "",
          "type": "uint256"
        }
      ],
      "name": "royaltyLevels",
      "outputs": [
        {
          "internalType": "uint256",
          "name": "",
          "type": "uint256"
        }
      ],
      "stateMutability": "view",
      "type": "function"
    },
    {
      "inputs": [],
      "name": "royaltyMaxPercent",
      "outputs": [
        {
          "internalType": "uint256",
          "name": "",
          "type": "uint256"
        }
      ],
      "stateMutability": "view",
      "type": "function"
    },
    {
      "inputs": [
        {
          "internalType": "uint256",
          "name": "",
          "type": "uint256"
        }
      ],
      "name": "royaltyPercent",
      "outputs": [
        {
          "internalType": "uint256",
          "name": "",
          "type": "uint256"
        }
      ],
      "stateMutability": "view",
      "type": "function"
    },
    {
      "inputs": [
        {
          "internalType": "address",
          "name": "_rideBNBContract",
          "type": "address"
        }
      ],
      "name": "setRideBNBContract",
      "outputs": [],
      "stateMutability": "nonpayable",
      "type": "function"
    },
    {
      "inputs": [
        {
          "internalType": "uint256[4]",
          "name": "_required",
          "type": "uint256[4]"
        }
      ],
      "name": "setRoyaltyDirectRequired",
      "outputs": [],
      "stateMutability": "nonpayable",
      "type": "function"
    },
    {
      "inputs": [
        {
          "internalType": "uint256[4]",
          "name": "_levels",
          "type": "uint256[4]"
        }
      ],
      "name": "setRoyaltyLevels",
      "outputs": [],
      "stateMutability": "nonpayable",
      "type": "function"
    },
    {
      "inputs": [
        {
          "internalType": "uint256[4]",
          "name": "_newPercents",
          "type": "uint256[4]"
        }
      ],
      "name": "setRoyaltyPercents",
      "outputs": [],
      "stateMutability": "nonpayable",
      "type": "function"
    },
    {
      "inputs": [
        {
          "internalType": "uint256",
          "name": "_tier",
          "type": "uint256"
        },
        {
          "internalType": "uint256",
          "name": "_requiredLevel",
          "type": "uint256"
        },
        {
          "internalType": "uint256",
          "name": "_requiredDirects",
          "type": "uint256"
        }
      ],
      "name": "setRoyaltyRequirements",
      "outputs": [],
      "stateMutability": "nonpayable",
      "type": "function"
    },
    {
      "inputs": [],
      "name": "startTime",
      "outputs": [
        {
          "internalType": "uint256",
          "name": "",
          "type": "uint256"
        }
      ],
      "stateMutability": "view",
      "type": "function"
    },
    {
      "inputs": [
        {
          "internalType": "address",
          "name": "_newOwner",
          "type": "address"
        }
      ],
      "name": "transferOwnership",
      "outputs": [],
      "stateMutability": "nonpayable",
      "type": "function"
    }
  ],
  "bytecode": "0x60e0346200025457601f62001f6e38819003918201601f191683019291906001600160401b0384118385101762000259578160609284926040968752833981010312620002545762000051816200028f565b9060209162000066848484015193016200028f565b6001916000838155620000786200026f565b60288152601e87820152601488820152600a606082015284825b600481106200023d57505050620000a86200026f565b90600a8252600b918288820152600c89820152600d606082015285825b600481106200022657509050620000db6200026f565b8281528289820152828a820152826060820152915b6004811062000210575050506001600160a01b039182169290508215620001dc5716938415620001aa575081546001600160a01b03191617905560c0524260a05260805251611cc99081620002a582396080518181816101ed01528181610ab701528181610e17015281816110fe015261190c015260a051818181610191015281816106f001528181610d8201528181611544015281816116a10152611819015260c0518181816107b3015281816107e8015261080c0152f35b60649086519062461bcd60e51b82526004820152600c60248201526b125b9d985b1a59081554d11560a21b6044820152fd5b865162461bcd60e51b815260048101879052600d60248201526c24b73b30b634b21037bbb732b960991b6044820152606490fd5b8860ff84511693019281850155018590620000f0565b8960ff8451169301928160070155018690620000c5565b8860ff845116930192816003015501859062000092565b600080fd5b634e487b7160e01b600052604160045260246000fd5b60405190608082016001600160401b038111838210176200025957604052565b51906001600160a01b0382168203620002545756fe6080604052600436101561001257600080fd5b60003560e01c80629c6b7a1461198157806312065fe0146118e057806314c597ef146118b45780632d41b6771461185e57806330aaece01461180057806335a18ed5146116f6578063545afbea1461168a5780635c520ade1461165e5780635d0fd7ed146116105780636107e3e5146115e457806364289b691461156757806378e979251461152c57806381d7441c1461147d5780638da5cb5b14611454578063976a605614611428578063a7b88100146113ff578063b136b347146112e5578063b2430a0a146112c7578063b718543d14611149578063c40ac2851461112d578063c54e44eb146110e8578063c7403e1d14610c94578063cbff971814610c28578063cde0acc214610784578063cf1d45501461071e578063d739c1a3146106d4578063f0d3b3fa1461069c578063f2fde38b14610625578063f464c473146105285763fe3fd8fc1461016557600080fd5b346104e1576020806003193601126104e157600435600481109161018883611c0c565b620151806101b67f000000000000000000000000000000000000000000000000000000000000000042611c56565b0482600052600f9081835260026040600020015410156104f9576040516370a0823160e01b815230600482015260249190838184817f00000000000000000000000000000000000000000000000000000000000000006001600160a01b03165afa9081156104ed576000916104bb575b5084600052601484526040600020548082116000146104b15761024891611c56565b945b1561049c5760039484860154908181029181830414901517156104875760649004928315610444578460005260148152604060002061028a858254611bff565b9055846000528181526001808060406000200154905b610398575b50508460005281815260406000205492831561036557670de0b6b3a7640000850290670de0b6b3a763ffff198683040161035157506103178487987f47b6546148fa5d96118443cd143cf54cecb624fb20c2e3a0306833ee0fffcbde9860005285855260406000200192048254611bff565b9055856000525260026040600020016103308154611c47565b9055604080519283526020830191909152429082015280606081015b0390a2005b634e487b7160e01b60009081526011600452fd5b916064926040519262461bcd60e51b845260048401528201526e4e6f2061637469766520757365727360881b6044820152fd5b866000526010808452604060002060008052845260406000205482101561043e5782916104389189600052855260406000206000805285526103de816040600020611c7b565b9054908b1b1c60005260118552604060002089600052855260406000208360ff1982541617905585855260406000206104178154611c47565b905588600052858552826040600020016104318154611c47565b9055611c47565b906102a0565b506102a5565b606490601a846040519262461bcd60e51b845260048401528201527f4e6f206e65772066756e647320746f20646973747269627574650000000000006044820152fd5b82634e487b7160e01b60005260116004526000fd5b50634e487b7160e01b60009081526032600452fd5b505060009461024a565b90508381813d83116104e6575b6104d28183611aa0565b810103126104e1575138610226565b600080fd5b503d6104c8565b6040513d6000823e3d90fd5b60405162461bcd60e51b8152600481018390526007602482015266139bdd081e595d60ca1b6044820152606490fd5b346104e15761053636611ac2565b600161054c60018060a01b038254163314611bb6565b815191606461057d6105726105676020968786015190611bff565b604085015190611bff565b606084015190611bff565b036105ee5760005b600481106105dc577f46f817573c78556397089602c285016640599a0418ecd4b80b655a84eddb780f6080856040519060408252600b60408301526a70657263656e746167657360a81b60608301524290820152a1005b81516003820155908301908201610585565b60405162461bcd60e51b815260048101849052600f60248201526e4d75737420746f74616c203130302560881b6044820152606490fd5b346104e15760203660031901126104e15761063e611a40565b600154906001600160a01b0380831691610659338414611b3f565b168092610667821515611b78565b6001600160a01b031916176001557f8be0079c531659141344cd1fd0a4f28419497f9722a3daafe3b4186f6b6457e0600080a3005b346104e1576106aa36611b0f565b906000526011602052604060002090600052602052602060ff604060002054166040519015158152f35b346104e15760003660031901126104e1576020620151806107157f000000000000000000000000000000000000000000000000000000000000000042611c56565b04604051908152f35b346104e15760003660031901126104e157608060405161073d81611a84565b36903760405160036000825b6004821061076e5761076a8461075e81611a84565b60405191829182611a56565b0390f35b6001602081928554815201930191019091610749565b346104e15761079236611b25565b60018060a09493941b0360025416803314908115610c1f575b5015610be2577f0000000000000000000000000000000000000000000000000000000000000000820361095e575b60005b60048110158061087f577f00000000000000000000000000000000000000000000000000000000000000008414907f0000000000000000000000000000000000000000000000000000000000000000850361094d575b6109375784826007015414908161092f575b506108575761085290611c47565b6107dc565b9250508060005260116020818152604060002084600052815260ff6040600020541615610881575b005b601081526040600020600080528152604060002080549268010000000000000000841015610919576108db7f7ea3b4137f99965306207cf91f3a736f5ac70a96c71fe8efac2541e685072a1c946001938482018155611c7b565b81549060031b9087821b91600019901b1916179055846000528252604060002085600052825260406000209060ff19825416179055604051428152a3005b634e487b7160e01b600052604160045260246000fd5b905085610844565b634e487b7160e01b600052603260045260246000fd5b5050600b8101548210156000610832565b60005b6004811061096f57506107d9565b82600052601160205260406000208160005260205260ff604060002054166109a0575b61099b90611c47565b610961565b600f602052600360406000200154836000526013602052604060002082600052602052604060002054808211610a2d575b5050826000526011602052604060002081600052602052604060002060ff198154169055600f6020526040600020908154918215610a1757600019909201909155610992565b634e487b7160e01b600052601160045260246000fd5b610a40670de0b6b3a76400009183611c56565b0480156109d15760025460405163fdc6118160e01b81526004810187905290602090829060249082906001600160a01b03165afa9081156104ed57600091610b9d575b5060405163a9059cbb60e01b81526001600160a01b03909116600482015260248101829052906020828060448101038160007f00000000000000000000000000000000000000000000000000000000000000006001600160a01b03165af19283156104ed5784938793600091610b6e575b50610b01575b50506109d1565b7fb64f1f8f03ee84ec0cfb24d1299d6ce9ef6d58ea0787053de092ec3f8b14255c916040918460005260136020528260002086600052602052826000205583600052601560205281600020610b57828254611bff565b90558151908152426020820152a380838680610afa565b610b90915060203d602011610b96575b610b888183611aa0565b810190611c63565b89610af4565b503d610b7e565b90506020813d602011610bda575b81610bb860209383611aa0565b810103126104e15751906001600160a01b03821682036104e157906020610a83565b3d9150610bab565b60405162461bcd60e51b815260206004820152601560248201527413db9b1e48149a59195093908818dbdb9d1c9858dd605a1b6044820152606490fd5b905015846107ab565b346104e15760203660031901126104e157600435610c4860048210611c0c565b600052600f60205260406000206002815491015490601060205260406000206000805260205261076a604060002054604051938493846040919493926060820195825260208201520152565b346104e15760c03660031901126104e15760a4356084356024803590600435906001600160a01b038086168087036104e1576001600054036110ae5760008055331480156110a1575b1561106e57610cee60048510611c0c565b83600052602095600f8752600360406000200154846000526013885260406000208660005288526040600020549681881015611037576044358614159788610fbf575b610d44670de0b6b3a76400009184611c56565b04978815610f8457610f1e575b508615610ee157610e1392889288928760005260138552604060002089600052855260406000205562015180610da77f000000000000000000000000000000000000000000000000000000000000000042611c56565b048760005260128552604060002089600052855260406000205586600052601584526040600020610dd9848254611bff565b905560405163a9059cbb60e01b81526001600160a01b03909116600482015260248101929092529092839190829060009082906044820190565b03927f0000000000000000000000000000000000000000000000000000000000000000165af19081156104ed57600091610ec4575b5015610e8a57507fb64f1f8f03ee84ec0cfb24d1299d6ce9ef6d58ea0787053de092ec3f8b14255c604080518581524287820152a36001600055604051908152f35b8460146064926040519262461bcd60e51b84526004840152820152731554d115081d1c985b9cd9995c8819985a5b195960621b6044820152fd5b610edb9150863d8811610b9657610b888183611aa0565b86610e48565b60405162461bcd60e51b8152600481018990526016818601527510db185a5b48185b5bdd5b9d081d1bdbc81cdb585b1b60521b6044820152606490fd5b609681029080820460961490151715610f6f57606490048560005260158952604060002054808211600014610f6657610f5691611c56565b80881115610d5157965088610d51565b50506000610f56565b84634e487b7160e01b60005260116004526000fd5b60405162461bcd60e51b8152600481018b9052601481880152734e6f20726f79616c747920617661696c61626c6560601b6044820152606490fd5b6096820282810460961483151715611022576064908860005260158c520460406000205410610d315760405162461bcd60e51b8152600481018b905260138188015272149bde585b1d1e4818d85c081c995858da1959606a1b6044820152606490fd5b86634e487b7160e01b60005260116004526000fd5b60405162461bcd60e51b8152600481018a90526010818701526f4e6f206e6577206469766964656e647360801b6044820152606490fd5b60405162461bcd60e51b815260206004820152600c818401526b155b985d5d1a1bdc9a5e995960a21b6044820152606490fd5b5080600254163314610cdd565b60405162461bcd60e51b815260206004820152601381850152721499595b9d1c985b98de4819195d1958dd1959606a1b6044820152606490fd5b346104e15760003660031901126104e1576040517f00000000000000000000000000000000000000000000000000000000000000006001600160a01b03168152602090f35b346104e15760003660031901126104e157602060405160968152f35b346104e15761115736611ac2565b60019061116e60018060a01b038354163314611b3f565b60005b600481106111ea575060005b600481106111d6577f46f817573c78556397089602c285016640599a0418ecd4b80b655a84eddb780f608060405160408152600e60408201526d191a5c9958dd14995c5d5a5c995960921b6060820152426020820152a1005b82906020835193019281600b01550161117d565b6111f48183611bee565b511515806112b2575b156112775780611216575b61121190611c47565b611171565b6112208183611bee565b516000198201828111610a17576112379084611bee565b5111156112085760405162461bcd60e51b81526020600482015260116024820152704d75737420626520617363656e64696e6760781b6044820152606490fd5b60405162461bcd60e51b8152602060048201526013602482015272125b9d985b1a59081c995c5d5a5c995b595b9d606a1b6044820152606490fd5b5060646112bf8284611bee565b5111156111fd565b346104e15760003660031901126104e1576020604051620151808152f35b346104e1576112f336611b25565b9061130960018060a01b03600154163314611bb6565b6004831061131681611c0c565b6001821015806113f4575b156113ba57606483116113835715610937577f56fe451ac1b74a5ac0fb9b4bd4f7636d9b8e5c508440a01c50f4bc36541d3ce9918184600701558084600b015561034c6040519283924291846040919493926060820195825260208201520152565b60405162461bcd60e51b815260206004820152600f60248201526e4d617820313030206469726563747360881b6044820152606490fd5b60405162461bcd60e51b81526020600482015260126024820152714c6576656c206d75737420626520312d313360701b6044820152606490fd5b50600d821115611321565b346104e15760003660031901126104e1576002546040516001600160a01b039091168152602090f35b346104e15760203660031901126104e15760043560048110156104e15760209060030154604051908152f35b346104e15760003660031901126104e1576001546040516001600160a01b039091168152602090f35b346104e157606061148d36611b0f565b90816000526020600f815260036040600020015482600052601382526040600020846000528252604060002054808211600014611522576114cd91611c56565b925b8260005260118252604060002081600052825260ff604060002054169260005260128252604060002090600052815260406000205491670de0b6b3a7640000604051940484521515908301526040820152f35b50506000926114cf565b346104e15760003660031901126104e15760206040517f00000000000000000000000000000000000000000000000000000000000000008152f35b346104e15761157536611b0f565b9061158260048310611c0c565b8060005260209160118352604060002081600052835260ff6040600020541691826115b4575b50506040519015158152f35b909150600052601382526040600020906000528152604060002054600f82526003604060002001541182806115a8565b346104e15760203660031901126104e15760043560048110156104e157602090600b0154604051908152f35b346104e15760203660031901126104e157600435600052600f602052608060406000208054906001810154906003600282015491015491604051938452602084015260408301526060820152f35b346104e15760203660031901126104e15760043560005260156020526020604060002054604051908152f35b346104e15760003660031901126104e157620151807f0000000000000000000000000000000000000000000000000000000000000000816116cb8242611c56565b0460018101809111610a175780830292830403610a17576020916116ee91611bff565b604051908152f35b346104e15761170436611ac2565b60019061171b60018060a01b038354163314611b3f565b60005b6004811061178f575060005b6004811061177b577f46f817573c78556397089602c285016640599a0418ecd4b80b655a84eddb780f60806040516040815260066040820152656c6576656c7360d01b6060820152426020820152a1005b82906020835193019281600701550161172a565b8261179a8284611bee565b511015806117eb575b156117b6576117b190611c47565b61171e565b60405162461bcd60e51b815260206004820152600d60248201526c125b9d985b1a59081b195d995b609a1b6044820152606490fd5b50600d6117f88284611bee565b5111156117a3565b346104e15760003660031901126104e1576080620151807f0000000000000000000000000000000000000000000000000000000000000000816118438242611c56565b04906040519260968452602084015260408301526060820152f35b346104e15760003660031901126104e157608060405161187d81611a84565b36903760405160076000825b6004821061189e5761076a8461075e81611a84565b6001602081928554815201930191019091611889565b346104e15760203660031901126104e15760043560048110156104e15760209060070154604051908152f35b346104e15760003660031901126104e1576040516370a0823160e01b81523060048201526020816024817f00000000000000000000000000000000000000000000000000000000000000006001600160a01b03165afa80156104ed5760009061194f575b602090604051908152f35b506020813d8211611979575b8161196860209383611aa0565b810103126104e15760209051611944565b3d915061195b565b346104e15760203660031901126104e15761199a611a40565b6001546001600160a01b03906119b39082163314611b3f565b60025491818316611a0d571680916119cc821515611b78565b6bffffffffffffffffffffffff60a01b16176002557f1b07151fffb4407288dae765bd30e395a5a3c46912ad939f4defa1fcafdb2ccf6020604051428152a2005b60405162461bcd60e51b815260206004820152600b60248201526a105b1c9958591e481cd95d60aa1b6044820152606490fd5b600435906001600160a01b03821682036104e157565b6080810192916000915b60048310611a6d57505050565b600190825181526020809101920192019190611a60565b6080810190811067ffffffffffffffff82111761091957604052565b90601f8019910116810190811067ffffffffffffffff82111761091957604052565b60806003198201126104e15780602312156104e15760405190611ae482611a84565b8160849182116104e1576004905b828210611aff5750505090565b8135815260209182019101611af2565b60409060031901126104e1576004359060243590565b60609060031901126104e157600435906024359060443590565b15611b4657565b60405162461bcd60e51b815260206004820152600a60248201526927b7363c9037bbb732b960b11b6044820152606490fd5b15611b7f57565b60405162461bcd60e51b815260206004820152600f60248201526e496e76616c6964206164647265737360881b6044820152606490fd5b15611bbd57565b60405162461bcd60e51b81526020600482015260096024820152682737ba1037bbb732b960b91b6044820152606490fd5b9060048110156109375760051b0190565b91908201809211610a1757565b15611c1357565b60405162461bcd60e51b815260206004820152600c60248201526b24b73b30b634b2103a34b2b960a11b6044820152606490fd5b6000198114610a175760010190565b91908203918211610a1757565b908160209103126104e1575180151581036104e15790565b8054821015610937576000526020600020019060009056fea264697066735822122045847bf6cfec6caa5f12545dd296d5586ee3b5aceea75b4c9a0dfaa8a8316e3564736f6c63430008140033",
  "linkReferences": {},
  "deployedLinkReferences": {}
}