{
  "_format": "hh-sol-artifact-1",
  "contractName": "FiveDollarRideRoyalty_BNB",
  "sourceName": "contracts/FiveDollarRideRoyalty_BNB.sol",
  "abi": [
    {
      "inputs": [
        {
          "internalType": "address",
          "name": "_owner",
          "type": "address"
        },
        {
          "internalType": "address",
          "name": "_defaultRefer",
          "type": "address"
        },
        {
          "internalType": "address",
          "name": "_mainContract",
          "type": "address"
        }
      ],
      "stateMutability": "nonpayable",
      "type": "constructor"
    },
    {
      "inputs": [
        {
          "internalType": "address",
          "name": "owner",
          "type": "address"
        }
      ],
      "name": "OwnableInvalidOwner",
      "type": "error"
    },
    {
      "inputs": [
        {
          "internalType": "address",
          "name": "account",
          "type": "address"
        }
      ],
      "name": "OwnableUnauthorizedAccount",
      "type": "error"
    },
    {
      "inputs": [],
      "name": "ReentrancyGuardReentrantCall",
      "type": "error"
    },
    {
      "anonymous": false,
      "inputs": [
        {
          "indexed": true,
          "internalType": "address",
          "name": "owner",
          "type": "address"
        },
        {
          "indexed": false,
          "internalType": "uint256",
          "name": "amount",
          "type": "uint256"
        },
        {
          "indexed": false,
          "internalType": "uint256",
          "name": "timestamp",
          "type": "uint256"
        }
      ],
      "name": "EmergencyWithdrawal",
      "type": "event"
    },
    {
      "anonymous": false,
      "inputs": [
        {
          "indexed": true,
          "internalType": "address",
          "name": "oldContract",
          "type": "address"
        },
        {
          "indexed": true,
          "internalType": "address",
          "name": "newContract",
          "type": "address"
        },
        {
          "indexed": false,
          "internalType": "uint256",
          "name": "timestamp",
          "type": "uint256"
        }
      ],
      "name": "MainContractUpdated",
      "type": "event"
    },
    {
      "anonymous": false,
      "inputs": [
        {
          "indexed": true,
          "internalType": "address",
          "name": "previousOwner",
          "type": "address"
        },
        {
          "indexed": true,
          "internalType": "address",
          "name": "newOwner",
          "type": "address"
        }
      ],
      "name": "OwnershipTransferred",
      "type": "event"
    },
    {
      "anonymous": false,
      "inputs": [
        {
          "indexed": true,
          "internalType": "uint256",
          "name": "tier",
          "type": "uint256"
        },
        {
          "indexed": false,
          "internalType": "uint256",
          "name": "bnbAmount",
          "type": "uint256"
        },
        {
          "indexed": false,
          "internalType": "uint256",
          "name": "timestamp",
          "type": "uint256"
        }
      ],
      "name": "PoolFunded",
      "type": "event"
    },
    {
      "anonymous": false,
      "inputs": [
        {
          "indexed": true,
          "internalType": "uint256",
          "name": "tier",
          "type": "uint256"
        },
        {
          "indexed": false,
          "internalType": "uint256",
          "name": "newRound",
          "type": "uint256"
        },
        {
          "indexed": false,
          "internalType": "uint256",
          "name": "timestamp",
          "type": "uint256"
        }
      ],
      "name": "RoundAdvanced",
      "type": "event"
    },
    {
      "anonymous": false,
      "inputs": [
        {
          "indexed": true,
          "internalType": "uint256",
          "name": "userId",
          "type": "uint256"
        },
        {
          "indexed": true,
          "internalType": "uint256",
          "name": "tier",
          "type": "uint256"
        },
        {
          "indexed": false,
          "internalType": "uint256",
          "name": "bnbAmount",
          "type": "uint256"
        },
        {
          "indexed": false,
          "internalType": "uint256",
          "name": "round",
          "type": "uint256"
        },
        {
          "indexed": false,
          "internalType": "uint256",
          "name": "timestamp",
          "type": "uint256"
        }
      ],
      "name": "RoyaltyDistributed",
      "type": "event"
    },
    {
      "anonymous": false,
      "inputs": [
        {
          "indexed": true,
          "internalType": "uint256",
          "name": "userId",
          "type": "uint256"
        },
        {
          "indexed": true,
          "internalType": "uint256",
          "name": "tier",
          "type": "uint256"
        },
        {
          "indexed": false,
          "internalType": "uint256",
          "name": "round",
          "type": "uint256"
        },
        {
          "indexed": false,
          "internalType": "uint256",
          "name": "timestamp",
          "type": "uint256"
        }
      ],
      "name": "UserRegistered",
      "type": "event"
    },
    {
      "stateMutability": "payable",
      "type": "fallback"
    },
    {
      "inputs": [],
      "name": "DEFAULT_REFER_ADDRESS",
      "outputs": [
        {
          "internalType": "address",
          "name": "",
          "type": "address"
        }
      ],
      "stateMutability": "view",
      "type": "function"
    },
    {
      "inputs": [],
      "name": "MAIN_CONTRACT",
      "outputs": [
        {
          "internalType": "address",
          "name": "",
          "type": "address"
        }
      ],
      "stateMutability": "view",
      "type": "function"
    },
    {
      "inputs": [],
      "name": "MIN_CLAIM",
      "outputs": [
        {
          "internalType": "uint256",
          "name": "",
          "type": "uint256"
        }
      ],
      "stateMutability": "view",
      "type": "function"
    },
    {
      "inputs": [],
      "name": "ROUND_DURATION",
      "outputs": [
        {
          "internalType": "uint256",
          "name": "",
          "type": "uint256"
        }
      ],
      "stateMutability": "view",
      "type": "function"
    },
    {
      "inputs": [
        {
          "internalType": "uint256",
          "name": "",
          "type": "uint256"
        }
      ],
      "name": "ROYALTY_LEVELS",
      "outputs": [
        {
          "internalType": "uint256",
          "name": "",
          "type": "uint256"
        }
      ],
      "stateMutability": "view",
      "type": "function"
    },
    {
      "inputs": [
        {
          "internalType": "uint256",
          "name": "_tier",
          "type": "uint256"
        }
      ],
      "name": "advanceRound",
      "outputs": [],
      "stateMutability": "nonpayable",
      "type": "function"
    },
    {
      "inputs": [
        {
          "internalType": "uint256",
          "name": "_userId",
          "type": "uint256"
        },
        {
          "internalType": "uint256",
          "name": "_tier",
          "type": "uint256"
        },
        {
          "internalType": "uint256",
          "name": "",
          "type": "uint256"
        },
        {
          "internalType": "uint256",
          "name": "",
          "type": "uint256"
        },
        {
          "internalType": "uint256",
          "name": "_userTotalDeposit",
          "type": "uint256"
        },
        {
          "internalType": "address",
          "name": "_userAccount",
          "type": "address"
        }
      ],
      "name": "claimRoyalty",
      "outputs": [
        {
          "internalType": "uint256",
          "name": "",
          "type": "uint256"
        }
      ],
      "stateMutability": "nonpayable",
      "type": "function"
    },
    {
      "inputs": [
        {
          "internalType": "uint256",
          "name": "",
          "type": "uint256"
        },
        {
          "internalType": "uint256",
          "name": "",
          "type": "uint256"
        },
        {
          "internalType": "uint256",
          "name": "",
          "type": "uint256"
        }
      ],
      "name": "distributionQueue",
      "outputs": [
        {
          "internalType": "uint256",
          "name": "",
          "type": "uint256"
        }
      ],
      "stateMutability": "view",
      "type": "function"
    },
    {
      "inputs": [],
      "name": "emergencyWithdraw",
      "outputs": [],
      "stateMutability": "nonpayable",
      "type": "function"
    },
    {
      "inputs": [
        {
          "internalType": "uint256",
          "name": "_tier",
          "type": "uint256"
        }
      ],
      "name": "getPoolBalance",
      "outputs": [
        {
          "internalType": "uint256",
          "name": "",
          "type": "uint256"
        }
      ],
      "stateMutability": "view",
      "type": "function"
    },
    {
      "inputs": [],
      "name": "getRoyaltyLevels",
      "outputs": [
        {
          "internalType": "uint256[4]",
          "name": "",
          "type": "uint256[4]"
        }
      ],
      "stateMutability": "view",
      "type": "function"
    },
    {
      "inputs": [
        {
          "internalType": "uint256",
          "name": "_tier",
          "type": "uint256"
        }
      ],
      "name": "getTierStats",
      "outputs": [
        {
          "internalType": "uint256",
          "name": "userCount",
          "type": "uint256"
        },
        {
          "internalType": "uint256",
          "name": "distributionRound",
          "type": "uint256"
        },
        {
          "internalType": "uint256",
          "name": "pendingUserCount",
          "type": "uint256"
        }
      ],
      "stateMutability": "view",
      "type": "function"
    },
    {
      "inputs": [],
      "name": "getTotalPoolBalance",
      "outputs": [
        {
          "internalType": "uint256",
          "name": "",
          "type": "uint256"
        }
      ],
      "stateMutability": "view",
      "type": "function"
    },
    {
      "inputs": [
        {
          "internalType": "uint256",
          "name": "_userId",
          "type": "uint256"
        },
        {
          "internalType": "uint256",
          "name": "_tier",
          "type": "uint256"
        }
      ],
      "name": "getUserRoyaltyData",
      "outputs": [
        {
          "internalType": "uint256",
          "name": "claimableAmount",
          "type": "uint256"
        },
        {
          "internalType": "bool",
          "name": "isEligible",
          "type": "bool"
        },
        {
          "internalType": "bool",
          "name": "hasClaimed",
          "type": "bool"
        }
      ],
      "stateMutability": "view",
      "type": "function"
    },
    {
      "inputs": [],
      "name": "owner",
      "outputs": [
        {
          "internalType": "address",
          "name": "",
          "type": "address"
        }
      ],
      "stateMutability": "view",
      "type": "function"
    },
    {
      "inputs": [
        {
          "internalType": "uint256",
          "name": "",
          "type": "uint256"
        }
      ],
      "name": "poolBalance",
      "outputs": [
        {
          "internalType": "uint256",
          "name": "",
          "type": "uint256"
        }
      ],
      "stateMutability": "view",
      "type": "function"
    },
    {
      "inputs": [
        {
          "internalType": "uint256",
          "name": "_userId",
          "type": "uint256"
        },
        {
          "internalType": "uint256",
          "name": "_level",
          "type": "uint256"
        },
        {
          "internalType": "uint256",
          "name": "_directCount",
          "type": "uint256"
        }
      ],
      "name": "registerUser",
      "outputs": [],
      "stateMutability": "nonpayable",
      "type": "function"
    },
    {
      "inputs": [],
      "name": "renounceOwnership",
      "outputs": [],
      "stateMutability": "nonpayable",
      "type": "function"
    },
    {
      "inputs": [
        {
          "internalType": "uint256",
          "name": "",
          "type": "uint256"
        },
        {
          "internalType": "uint256",
          "name": "",
          "type": "uint256"
        }
      ],
      "name": "roundPoolAmount",
      "outputs": [
        {
          "internalType": "uint256",
          "name": "",
          "type": "uint256"
        }
      ],
      "stateMutability": "view",
      "type": "function"
    },
    {
      "inputs": [
        {
          "internalType": "address",
          "name": "_mainContract",
          "type": "address"
        }
      ],
      "name": "setMainContract",
      "outputs": [],
      "stateMutability": "nonpayable",
      "type": "function"
    },
    {
      "inputs": [
        {
          "internalType": "uint256",
          "name": "",
          "type": "uint256"
        }
      ],
      "name": "tierStats",
      "outputs": [
        {
          "internalType": "uint256",
          "name": "totalUsers",
          "type": "uint256"
        },
        {
          "internalType": "uint256",
          "name": "currentRound",
          "type": "uint256"
        },
        {
          "internalType": "uint256",
          "name": "pendingUsers",
          "type": "uint256"
        },
        {
          "internalType": "uint256",
          "name": "totalDistributed",
          "type": "uint256"
        },
        {
          "internalType": "uint256",
          "name": "lastRoundTime",
          "type": "uint256"
        }
      ],
      "stateMutability": "view",
      "type": "function"
    },
    {
      "inputs": [
        {
          "internalType": "address",
          "name": "newOwner",
          "type": "address"
        }
      ],
      "name": "transferOwnership",
      "outputs": [],
      "stateMutability": "nonpayable",
      "type": "function"
    },
    {
      "inputs": [
        {
          "internalType": "uint256",
          "name": "",
          "type": "uint256"
        },
        {
          "internalType": "uint256",
          "name": "",
          "type": "uint256"
        }
      ],
      "name": "userRoyalties",
      "outputs": [
        {
          "internalType": "bool",
          "name": "registered",
          "type": "bool"
        },
        {
          "internalType": "uint256",
          "name": "registrationRound",
          "type": "uint256"
        },
        {
          "internalType": "uint256",
          "name": "lastClaimRound",
          "type": "uint256"
        },
        {
          "internalType": "uint256",
          "name": "totalClaimed",
          "type": "uint256"
        },
        {
          "internalType": "uint256",
          "name": "directReferrals",
          "type": "uint256"
        },
        {
          "internalType": "uint256",
          "name": "totalDeposits",
          "type": "uint256"
        },
        {
          "internalType": "bool",
          "name": "active",
          "type": "bool"
        }
      ],
      "stateMutability": "view",
      "type": "function"
    },
    {
      "stateMutability": "payable",
      "type": "receive"
    }
  ],
  "bytecode": "0x60a0346200021a57601f6200174738819003918201601f19168301916001600160401b0391828411858510176200021f5781606092869260409687528339810103126200021a57620000518362000235565b9060206200006e846200006683880162000235565b960162000235565b60016000818155909490936001600160a01b0391821692908315620002025786546001600160a01b031980821686178955949084167f8be0079c531659141344cd1fd0a4f28419497f9722a3daafe3b4186f6b6457e08880a38751906080820190811182821017620001ee578852600a8152600b85820152600c88820152600d606082015286865b60048110620001d75750505081881615620001935785976080521690600254161760025581945b6200013b575b83516114fc90816200024b82396080518161088f0152f35b6004808610156200018c5785600301805484526009835284808786200155548352429085842001556000198514620001785793820193826200011d565b634e487b7160e01b82526011600452602482fd5b5062000123565b865162461bcd60e51b815260048101859052601560248201527f496e76616c69642064656661756c7420726566657200000000000000000000006044820152606490fd5b8660ff8451169301928160030155018790620000f6565b634e487b7160e01b87526041600452602487fd5b8751631e4fbdf760e01b815260048101879052602490fd5b600080fd5b634e487b7160e01b600052604160045260246000fd5b51906001600160a01b03821682036200021a5756fe60c080604052600436101561012a575b5036156100545760405162461bcd60e51b81526020600482015260166024820152752ab9b2903932b1b2b4bb32941490333ab731ba34b7b760511b6044820152606490fd5b34156100f7573460021c60005b6004811061006b57005b806100f29160030154806000527fbf59838198f4ea92f663f5c1fc697f151a1b746b7dff86d564f250a55cbb485160406020600a8152816000206100b0888254610f5d565b905583600052600981526001826000200154600b825282600020906000528152816000206100df888254610f5d565b90558151908782524290820152a2610eca565b610061565b60405162461bcd60e51b815260206004820152600b60248201526a139bc8109390881cd95b9d60aa1b6044820152606490fd5b60003560e01c9081631cd2a05d14610dc957508063233fc9a214610dad5780632d41b67714610d2d5780633ded33bc14610c7657806363b2a8ff14610c4d5780636641ea0814610c2f5780636a6d964e14610c03578063715018a614610ba65780637c42e10714610b735780637efefc6414610af557806381d7441c1461095e57806383482d75146109325780638da5cb5b1461090957806395335398146108be578063aec8155314610879578063c7403e1d146107fc578063c781bd7a1461076b578063cbff9718146106fb578063cde0acc214610459578063db2e21bc1461036a578063e9a9454014610312578063ed1375d5146102c75763f2fde38b14610234573861000f565b346102c25760203660031901126102c25761024d610de9565b610255610e5d565b6001600160a01b039081169081156102a957600154826bffffffffffffffffffffffff60a01b821617600155167f8be0079c531659141344cd1fd0a4f28419497f9722a3daafe3b4186f6b6457e0600080a3005b604051631e4fbdf760e01b815260006004820152602490fd5b600080fd5b346102c25760203660031901126102c257600435600a81101580610307575b6102ef90610ef5565b600052600a6020526020604060002054604051908152f35b50600d8111156102e6565b346102c25760203660031901126102c257600435600052600960205260a06040600020805490600181015490600281015460046003830154920154926040519485526020850152604084015260608301526080820152f35b346102c25760003660031901126102c257610383610e5d565b61038b611427565b4780156104275760018060a01b0360008080808585600154165af16103ae610f6a565b50156103f05760407f56da9a5ae0bcf6e7c3fdd78a10550e7d0458de1c39bfb7f6e96a3e92dd344a689160015416928151908152426020820152a26001600055005b60405162461bcd60e51b815260206004820152600f60248201526e15da5d1a191c985dc819985a5b1959608a1b6044820152606490fd5b60405162461bcd60e51b815260206004820152600a6024820152694e6f2062616c616e636560b01b6044820152606490fd5b346102c25761046736610e15565b61047f60018060a09594951b03600254163314610e89565b60005b6004811061068b575060005b6004811061049857005b8060030154908185101580610666575b6104bc575b6104b79150610eca565b61048e565b6104c58261144a565b81600052600960205260406000209160018301546040518060e081011067ffffffffffffffff60e083011117610650576006886105a09360e0840160405260018452602084019081526040840160008152606085016000815260808601918b835260a08701936000855260c08801958a1486528960005260076020528d60406000209060005260205261056c604060002098511515899060ff801983541691151516179055565b51600188015551600287015551600386015551600485015551600584015551151591019060ff801983541691151516179055565b806000526008602052604060002060018401546000526020526040600020928354906801000000000000000082101561065057604060017fe769b7ad5673f85dcebef1cff9b46f6800bfff514ae50c91844633aa2f0dcf639261060c856104b799848d98018155610e2f565b81549060031b9087821b91600019901b191617905561062b8154610eca565b81556002810161063b8154610eca565b905501548151908152426020820152a36104ad565b634e487b7160e01b600052604160045260246000fd5b5081600052602060078152604060002090856000525260ff60406000205416156104a8565b806106a89160030154858110806106d7575b6106ad575b50610eca565b610482565b6000526020600781526040600020908560005252600660406000200160ff198154169055856106a2565b5080600052602060078152604060002090866000525260ff6040600020541661069d565b346102c25760203660031901126102c257600435600a81101580610760575b61072390610ef5565b60005260096020526040600020805461075c60026001840154930154604051938493846040919493926060820195825260208201520152565b0390f35b50600d81111561071a565b346102c25760203660031901126102c257600435610787610e5d565b600a811015806107f1575b61079b90610ef5565b8060005260096020527f238c5eab9873afabc63927a7a91aec132f9f1af26e6805e226922e215ed412b06040806000206000600260018301926107de8454610eca565b80945501558151908152426020820152a2005b50600d811115610792565b346102c25760c03660031901126102c2576024356001600160a01b0360a43581811681036102c25760209261083961086193600254163314610e89565b600a8110158061086e575b61084d90610ef5565b610855611427565b60843590600435610fb5565b6001600055604051908152f35b50600d811115610844565b346102c25760003660031901126102c2576040517f00000000000000000000000000000000000000000000000000000000000000006001600160a01b03168152602090f35b346102c2576108cc36610e15565b916000526008602052604060002090600052602052604060002080548210156102c2576020916108fb91610e2f565b90546040519160031b1c8152f35b346102c25760003660031901126102c2576001546040516001600160a01b039091168152602090f35b346102c25760203660031901126102c25760043560048110156102c25760209060030154604051908152f35b346102c25761096c36610dff565b600a81101580610aea575b61098090610ef5565b6000908060005260209260078452604060002090600052835260406000209260ff845416600285015494836000526009835260019384604060002001546000198101908111610ab5578710948380610ae3575b6109f3575b50505060609450604051938452151590830152156040820152f35b81600052600985528060406000200154610a0d8982610f50565b938915610acb575b505060005b838110610a2757506109d8565b610a31818a610f5d565b828101809111610ab557836000526008875260406000208160005287526040600020549084600052600b8852604060002090600052875260406000205481151580610aac575b610a8c575b5050610a8790610eca565b610a1a565b98610a9e610aa492610a87949b610f30565b90610f5d565b97908a610a7c565b50801515610a77565b634e487b7160e01b600052601160045260246000fd5b82945091610adb92015490610f50565b918880610a15565b50856109d3565b50600d811115610977565b346102c257610b0336610dff565b90600052600760205260406000209060005260205260e0604060002060ff815416906001810154906002810154600382015460048301549160ff6006600586015495015416946040519615158752602087015260408601526060850152608084015260a0830152151560c0820152f35b346102c257610b8136610dff565b90600052600b6020526040600020906000526020526020604060002054604051908152f35b346102c25760003660031901126102c257610bbf610e5d565b600180546001600160a01b031981169091556000906001600160a01b03167f8be0079c531659141344cd1fd0a4f28419497f9722a3daafe3b4186f6b6457e08280a3005b346102c25760203660031901126102c257600435600052600a6020526020604060002054604051908152f35b346102c25760003660031901126102c2576020604051620151808152f35b346102c25760003660031901126102c2576002546040516001600160a01b039091168152602090f35b346102c25760203660031901126102c257610c8f610de9565b610c97610e5d565b6001600160a01b03908116908115610cf657600254908116610cc3576001600160a01b03191617600255005b60405162461bcd60e51b815260206004820152600b60248201526a105b1c9958591e481cd95d60aa1b6044820152606490fd5b60405162461bcd60e51b815260206004820152600f60248201526e496e76616c6964206164647265737360881b6044820152606490fd5b346102c25760003660031901126102c2576080604051610d4c81610ed9565b36903760405160036000825b60048210610d975783610d6a81610ed9565b60405190600090825b60048310610d8057608084f35b600190825181526020809101920192019190610d73565b6001602081928554815201930191019091610d58565b346102c25760003660031901126102c257602047604051908152f35b346102c25760003660031901126102c2578066038d7ea4c6800060209252f35b600435906001600160a01b03821682036102c257565b60409060031901126102c2576004359060243590565b60609060031901126102c257600435906024359060443590565b8054821015610e475760005260206000200190600090565b634e487b7160e01b600052603260045260246000fd5b6001546001600160a01b03163303610e7157565b60405163118cdaa760e01b8152336004820152602490fd5b15610e9057565b60405162461bcd60e51b815260206004820152601260248201527113db9b1e481b585a5b8818dbdb9d1c9858dd60721b6044820152606490fd5b6000198114610ab55760010190565b6080810190811067ffffffffffffffff82111761065057604052565b15610efc57565b60405162461bcd60e51b815260206004820152600c60248201526b24b73b30b634b2103a34b2b960a11b6044820152606490fd5b8115610f3a570490565b634e487b7160e01b600052601260045260246000fd5b91908203918211610ab557565b91908201809211610ab557565b3d15610fb05767ffffffffffffffff903d8281116106505760405192601f8201601f19908116603f01168401908111848210176106505760405282523d6000602084013e565b606090565b929192600094828652608060a052602060a0515260076020526040918287208188526020528287209560ff875416156113f05760ff6006880154161561139857600587019081548111611390575b505460968102908082046096149015171561137c5760649004600387019081548082116000146113735761103691610f50565b955b8615611368576110478661144a565b858952600960a05151526002858a20980197885492600182019384541115611330579060019594939291888c52600760a0515152878c20858d5260a05151526110bc8c8a8a82209152600960a05151528d8a812091600281015491508115600014611327578a915001549889915b0154610f50565b9a8c9a8d5b8d81108061131d575b15611180576110d9818b610f5d565b6001810180911161116b578f808e92838f9352600860a051515282822081835260a051515282822054938252600b60a051515282822090825260a0515152205481151580611162575b611137575b505061113290610eca565b6110c1565b9061114191610f30565b8061114d575b80611127565b61115b90611132929e610f5d565b9c90611147565b50801515611122565b50634e487b7160e01b8f52601160045260248ffd5b50919395999a9b50919396509a949a808b11611315575b5066038d7ea4c680008a1061130857896111b8575b50505050505050505090565b888552600a60a05151528987862054106112cb57888552600a60a05151528685206111e48b8254610f50565b905585546000198101919082116112b7579360038695948695948d9487965561120e858254610f5d565b90550161121c838254610f5d565b90556001600160a01b03165af1611231610f6a565b501561127f5754905184815260208101919091524260408201527f780fbd8ddebb574676643265b4c3bcc06217c87f4191c834587cd54002a4d26890606090a33880808080808080806111ac565b815162461bcd60e51b815260a051516004820152600f60248201526e151c985b9cd9995c8819985a5b1959608a1b6044820152606490fd5b634e487b7160e01b86526011600452602486fd5b865162461bcd60e51b815260a0515160048201526014602482015273496e73756666696369656e742062616c616e636560601b6044820152606490fd5b5050505094505050505090565b995038611197565b50600a81106110ca565b509889916110b5565b865162461bcd60e51b815260a051516004820152600f60248201526e105b1c9958591e4818db185a5b5959608a1b6044820152606490fd5b509195505050505050565b50508795611038565b634e487b7160e01b88526011600452602488fd5b815538611003565b835162461bcd60e51b815260a051516004820152602960248201527f54696572206e6f7420616374697665202d20757067726164656420746f20686960448201526833b432b9103a34b2b960b91b6064820152608490fd5b835162461bcd60e51b815260a051516004820152600e60248201526d139bdd081c9959da5cdd195c995960921b6044820152606490fd5b600260005414611438576002600055565b604051633ee5aeb560e01b8152600490fd5b806000526009602052604060002060048101908154620151808101809111610ab55742101561147857505050565b7f238c5eab9873afabc63927a7a91aec132f9f1af26e6805e226922e215ed412b0916000600283600160409501936114b08554610eca565b80955542905501558151908152426020820152a256fea2646970667358221220a2864712d357e73023abb1e7bbcb614b109a69cbd69a2a86d55ff2fa7168697364736f6c63430008140033",
  "linkReferences": {},
  "deployedLinkReferences": {}
}