{
  "_format": "hh-sol-artifact-1",
  "contractName": "FiveDollarRide",
  "sourceName": "contracts/FiveDollarRide.sol",
  "abi": [
    {
      "inputs": [
        {
          "internalType": "address",
          "name": "_feeReceiver",
          "type": "address"
        },
        {
          "internalType": "address",
          "name": "_royalty",
          "type": "address"
        },
        {
          "internalType": "address",
          "name": "_rootUserAddress",
          "type": "address"
        },
        {
          "internalType": "uint256",
          "name": "_rootUserId",
          "type": "uint256"
        },
        {
          "internalType": "address",
          "name": "_usdtToken",
          "type": "address"
        }
      ],
      "stateMutability": "nonpayable",
      "type": "constructor"
    },
    {
      "anonymous": false,
      "inputs": [
        {
          "indexed": false,
          "internalType": "uint256",
          "name": "amount",
          "type": "uint256"
        },
        {
          "indexed": false,
          "internalType": "uint256",
          "name": "level",
          "type": "uint256"
        },
        {
          "indexed": false,
          "internalType": "uint256",
          "name": "timestamp",
          "type": "uint256"
        }
      ],
      "name": "AdminFeePaid",
      "type": "event"
    },
    {
      "anonymous": false,
      "inputs": [
        {
          "indexed": true,
          "internalType": "address",
          "name": "by",
          "type": "address"
        },
        {
          "indexed": false,
          "internalType": "uint256",
          "name": "timestamp",
          "type": "uint256"
        }
      ],
      "name": "ContractPaused",
      "type": "event"
    },
    {
      "anonymous": false,
      "inputs": [
        {
          "indexed": true,
          "internalType": "address",
          "name": "by",
          "type": "address"
        },
        {
          "indexed": false,
          "internalType": "uint256",
          "name": "timestamp",
          "type": "uint256"
        }
      ],
      "name": "ContractUnpaused",
      "type": "event"
    },
    {
      "anonymous": false,
      "inputs": [
        {
          "indexed": true,
          "internalType": "uint256",
          "name": "userId",
          "type": "uint256"
        },
        {
          "indexed": true,
          "internalType": "uint256",
          "name": "fromUser",
          "type": "uint256"
        },
        {
          "indexed": false,
          "internalType": "uint256",
          "name": "amount",
          "type": "uint256"
        },
        {
          "indexed": false,
          "internalType": "string",
          "name": "reason",
          "type": "string"
        },
        {
          "indexed": false,
          "internalType": "uint256",
          "name": "timestamp",
          "type": "uint256"
        }
      ],
      "name": "IncomeLost",
      "type": "event"
    },
    {
      "anonymous": false,
      "inputs": [
        {
          "indexed": true,
          "internalType": "uint8",
          "name": "level",
          "type": "uint8"
        },
        {
          "indexed": false,
          "internalType": "uint256",
          "name": "oldCost",
          "type": "uint256"
        },
        {
          "indexed": false,
          "internalType": "uint256",
          "name": "newCost",
          "type": "uint256"
        },
        {
          "indexed": false,
          "internalType": "uint256",
          "name": "timestamp",
          "type": "uint256"
        }
      ],
      "name": "LevelCostUpdated",
      "type": "event"
    },
    {
      "anonymous": false,
      "inputs": [
        {
          "indexed": true,
          "internalType": "uint256",
          "name": "fromUserId",
          "type": "uint256"
        },
        {
          "indexed": true,
          "internalType": "uint256",
          "name": "toUserId",
          "type": "uint256"
        },
        {
          "indexed": false,
          "internalType": "uint256",
          "name": "amount",
          "type": "uint256"
        },
        {
          "indexed": false,
          "internalType": "uint256",
          "name": "level",
          "type": "uint256"
        },
        {
          "indexed": false,
          "internalType": "uint256",
          "name": "layer",
          "type": "uint256"
        },
        {
          "indexed": false,
          "internalType": "bool",
          "name": "qualified",
          "type": "bool"
        },
        {
          "indexed": false,
          "internalType": "uint256",
          "name": "timestamp",
          "type": "uint256"
        }
      ],
      "name": "MatrixPayment",
      "type": "event"
    },
    {
      "anonymous": false,
      "inputs": [
        {
          "indexed": true,
          "internalType": "address",
          "name": "previousOwner",
          "type": "address"
        },
        {
          "indexed": false,
          "internalType": "uint256",
          "name": "timestamp",
          "type": "uint256"
        }
      ],
      "name": "OwnershipRenounced",
      "type": "event"
    },
    {
      "anonymous": false,
      "inputs": [
        {
          "indexed": true,
          "internalType": "address",
          "name": "previousOwner",
          "type": "address"
        },
        {
          "indexed": true,
          "internalType": "address",
          "name": "newOwner",
          "type": "address"
        }
      ],
      "name": "OwnershipTransferred",
      "type": "event"
    },
    {
      "anonymous": false,
      "inputs": [
        {
          "indexed": true,
          "internalType": "uint256",
          "name": "referrerId",
          "type": "uint256"
        },
        {
          "indexed": true,
          "internalType": "uint256",
          "name": "userId",
          "type": "uint256"
        },
        {
          "indexed": false,
          "internalType": "uint256",
          "name": "amount",
          "type": "uint256"
        },
        {
          "indexed": false,
          "internalType": "uint256",
          "name": "timestamp",
          "type": "uint256"
        }
      ],
      "name": "ReferralPayment",
      "type": "event"
    },
    {
      "anonymous": false,
      "inputs": [
        {
          "indexed": false,
          "internalType": "uint256",
          "name": "amount",
          "type": "uint256"
        },
        {
          "indexed": false,
          "internalType": "string",
          "name": "source",
          "type": "string"
        },
        {
          "indexed": false,
          "internalType": "uint256",
          "name": "timestamp",
          "type": "uint256"
        }
      ],
      "name": "RootFallbackIncome",
      "type": "event"
    },
    {
      "anonymous": false,
      "inputs": [
        {
          "indexed": true,
          "internalType": "uint256",
          "name": "rootUserId",
          "type": "uint256"
        },
        {
          "indexed": true,
          "internalType": "address",
          "name": "rootAddress",
          "type": "address"
        },
        {
          "indexed": false,
          "internalType": "uint256",
          "name": "timestamp",
          "type": "uint256"
        }
      ],
      "name": "RootUserCreated",
      "type": "event"
    },
    {
      "anonymous": false,
      "inputs": [
        {
          "indexed": true,
          "internalType": "uint256",
          "name": "userId",
          "type": "uint256"
        },
        {
          "indexed": true,
          "internalType": "uint256",
          "name": "royaltyLevel",
          "type": "uint256"
        },
        {
          "indexed": false,
          "internalType": "uint256",
          "name": "amount",
          "type": "uint256"
        },
        {
          "indexed": false,
          "internalType": "uint256",
          "name": "timestamp",
          "type": "uint256"
        }
      ],
      "name": "RoyaltyClaimed",
      "type": "event"
    },
    {
      "anonymous": false,
      "inputs": [
        {
          "indexed": true,
          "internalType": "uint256",
          "name": "userId",
          "type": "uint256"
        },
        {
          "indexed": false,
          "internalType": "uint256",
          "name": "amount",
          "type": "uint256"
        },
        {
          "indexed": false,
          "internalType": "uint256",
          "name": "timestamp",
          "type": "uint256"
        }
      ],
      "name": "RoyaltyPoolFunded",
      "type": "event"
    },
    {
      "anonymous": false,
      "inputs": [
        {
          "indexed": true,
          "internalType": "uint256",
          "name": "sponsorId",
          "type": "uint256"
        },
        {
          "indexed": true,
          "internalType": "uint256",
          "name": "fromUserId",
          "type": "uint256"
        },
        {
          "indexed": false,
          "internalType": "uint256",
          "name": "amount",
          "type": "uint256"
        },
        {
          "indexed": false,
          "internalType": "uint256",
          "name": "level",
          "type": "uint256"
        },
        {
          "indexed": false,
          "internalType": "uint256",
          "name": "timestamp",
          "type": "uint256"
        }
      ],
      "name": "SponsorCommissionPaid",
      "type": "event"
    },
    {
      "anonymous": false,
      "inputs": [
        {
          "indexed": true,
          "internalType": "uint256",
          "name": "userId",
          "type": "uint256"
        },
        {
          "indexed": true,
          "internalType": "address",
          "name": "account",
          "type": "address"
        },
        {
          "indexed": true,
          "internalType": "uint256",
          "name": "referrer",
          "type": "uint256"
        },
        {
          "indexed": false,
          "internalType": "uint256",
          "name": "timestamp",
          "type": "uint256"
        }
      ],
      "name": "UserRegistered",
      "type": "event"
    },
    {
      "anonymous": false,
      "inputs": [
        {
          "indexed": true,
          "internalType": "uint256",
          "name": "userId",
          "type": "uint256"
        },
        {
          "indexed": false,
          "internalType": "uint256",
          "name": "newLevel",
          "type": "uint256"
        },
        {
          "indexed": false,
          "internalType": "uint256",
          "name": "amount",
          "type": "uint256"
        },
        {
          "indexed": false,
          "internalType": "uint256",
          "name": "timestamp",
          "type": "uint256"
        }
      ],
      "name": "UserUpgraded",
      "type": "event"
    },
    {
      "inputs": [],
      "name": "ADMIN_FEE_PERCENT",
      "outputs": [
        {
          "internalType": "uint8",
          "name": "",
          "type": "uint8"
        }
      ],
      "stateMutability": "view",
      "type": "function"
    },
    {
      "inputs": [],
      "name": "DIRECT_REQUIRED",
      "outputs": [
        {
          "internalType": "uint256",
          "name": "",
          "type": "uint256"
        }
      ],
      "stateMutability": "view",
      "type": "function"
    },
    {
      "inputs": [],
      "name": "FEE_RECEIVER",
      "outputs": [
        {
          "internalType": "address",
          "name": "",
          "type": "address"
        }
      ],
      "stateMutability": "view",
      "type": "function"
    },
    {
      "inputs": [],
      "name": "MAX_INCOME_LAYER",
      "outputs": [
        {
          "internalType": "uint8",
          "name": "",
          "type": "uint8"
        }
      ],
      "stateMutability": "view",
      "type": "function"
    },
    {
      "inputs": [],
      "name": "MAX_LEVELS",
      "outputs": [
        {
          "internalType": "uint8",
          "name": "",
          "type": "uint8"
        }
      ],
      "stateMutability": "view",
      "type": "function"
    },
    {
      "inputs": [],
      "name": "MAX_PLACEMENT_DEPTH",
      "outputs": [
        {
          "internalType": "uint8",
          "name": "",
          "type": "uint8"
        }
      ],
      "stateMutability": "view",
      "type": "function"
    },
    {
      "inputs": [],
      "name": "MAX_REFERRAL_LAYERS",
      "outputs": [
        {
          "internalType": "uint256",
          "name": "",
          "type": "uint256"
        }
      ],
      "stateMutability": "view",
      "type": "function"
    },
    {
      "inputs": [],
      "name": "ROYALTY_ADDR",
      "outputs": [
        {
          "internalType": "contract IRoyalty",
          "name": "",
          "type": "address"
        }
      ],
      "stateMutability": "view",
      "type": "function"
    },
    {
      "inputs": [],
      "name": "ROYALTY_FUND_PERCENT",
      "outputs": [
        {
          "internalType": "uint8",
          "name": "",
          "type": "uint8"
        }
      ],
      "stateMutability": "view",
      "type": "function"
    },
    {
      "inputs": [],
      "name": "START_TIME",
      "outputs": [
        {
          "internalType": "uint256",
          "name": "",
          "type": "uint256"
        }
      ],
      "stateMutability": "view",
      "type": "function"
    },
    {
      "inputs": [],
      "name": "USDT",
      "outputs": [
        {
          "internalType": "contract IERC20",
          "name": "",
          "type": "address"
        }
      ],
      "stateMutability": "view",
      "type": "function"
    },
    {
      "inputs": [
        {
          "internalType": "uint256",
          "name": "_tier",
          "type": "uint256"
        }
      ],
      "name": "claimMyRoyalty",
      "outputs": [],
      "stateMutability": "nonpayable",
      "type": "function"
    },
    {
      "inputs": [
        {
          "internalType": "uint256",
          "name": "_id",
          "type": "uint256"
        },
        {
          "internalType": "uint256",
          "name": "_royaltyLvl",
          "type": "uint256"
        }
      ],
      "name": "claimRoyalty",
      "outputs": [],
      "stateMutability": "nonpayable",
      "type": "function"
    },
    {
      "inputs": [],
      "name": "getAllLevelCosts",
      "outputs": [
        {
          "internalType": "uint256[13]",
          "name": "costs",
          "type": "uint256[13]"
        },
        {
          "internalType": "uint256[13]",
          "name": "fees",
          "type": "uint256[13]"
        },
        {
          "internalType": "uint256[13]",
          "name": "totals",
          "type": "uint256[13]"
        }
      ],
      "stateMutability": "view",
      "type": "function"
    },
    {
      "inputs": [],
      "name": "getContractBalance",
      "outputs": [
        {
          "internalType": "uint256",
          "name": "",
          "type": "uint256"
        }
      ],
      "stateMutability": "view",
      "type": "function"
    },
    {
      "inputs": [
        {
          "internalType": "uint256",
          "name": "_level",
          "type": "uint256"
        }
      ],
      "name": "getLevelCost",
      "outputs": [
        {
          "internalType": "uint256",
          "name": "cost",
          "type": "uint256"
        },
        {
          "internalType": "uint256",
          "name": "adminFee",
          "type": "uint256"
        },
        {
          "internalType": "uint256",
          "name": "total",
          "type": "uint256"
        }
      ],
      "stateMutability": "view",
      "type": "function"
    },
    {
      "inputs": [],
      "name": "getMyIncomeBreakdown",
      "outputs": [
        {
          "internalType": "uint256",
          "name": "totalDeposit",
          "type": "uint256"
        },
        {
          "internalType": "uint256",
          "name": "totalIncome",
          "type": "uint256"
        },
        {
          "internalType": "uint256",
          "name": "referralIncome",
          "type": "uint256"
        },
        {
          "internalType": "uint256",
          "name": "sponsorIncome",
          "type": "uint256"
        },
        {
          "internalType": "uint256",
          "name": "levelIncome",
          "type": "uint256"
        },
        {
          "internalType": "uint256",
          "name": "lostAmount",
          "type": "uint256"
        }
      ],
      "stateMutability": "view",
      "type": "function"
    },
    {
      "inputs": [],
      "name": "getMyInfo",
      "outputs": [
        {
          "internalType": "uint256",
          "name": "userId",
          "type": "uint256"
        },
        {
          "internalType": "uint256",
          "name": "level",
          "type": "uint256"
        },
        {
          "internalType": "uint256",
          "name": "team",
          "type": "uint256"
        },
        {
          "internalType": "uint256",
          "name": "directTeam",
          "type": "uint256"
        },
        {
          "internalType": "uint256",
          "name": "totalIncome",
          "type": "uint256"
        },
        {
          "internalType": "uint256",
          "name": "referrerId",
          "type": "uint256"
        },
        {
          "internalType": "uint256",
          "name": "uplineId",
          "type": "uint256"
        },
        {
          "internalType": "uint256",
          "name": "registrationTime",
          "type": "uint256"
        }
      ],
      "stateMutability": "view",
      "type": "function"
    },
    {
      "inputs": [],
      "name": "getMyRoyaltyStatus",
      "outputs": [
        {
          "internalType": "uint256[4]",
          "name": "claimableAmounts",
          "type": "uint256[4]"
        },
        {
          "internalType": "bool[4]",
          "name": "isEligible",
          "type": "bool[4]"
        },
        {
          "internalType": "bool[4]",
          "name": "hasClaimed",
          "type": "bool[4]"
        }
      ],
      "stateMutability": "view",
      "type": "function"
    },
    {
      "inputs": [],
      "name": "getMyTeam",
      "outputs": [
        {
          "internalType": "uint256",
          "name": "teamSize",
          "type": "uint256"
        },
        {
          "internalType": "uint256",
          "name": "directCount",
          "type": "uint256"
        },
        {
          "internalType": "uint256[]",
          "name": "directReferralIds",
          "type": "uint256[]"
        },
        {
          "internalType": "address[]",
          "name": "directReferralAddresses",
          "type": "address[]"
        }
      ],
      "stateMutability": "view",
      "type": "function"
    },
    {
      "inputs": [],
      "name": "getRegistrationCost",
      "outputs": [
        {
          "internalType": "uint256",
          "name": "cost",
          "type": "uint256"
        },
        {
          "internalType": "uint256",
          "name": "levelCost",
          "type": "uint256"
        },
        {
          "internalType": "uint256",
          "name": "adminFee",
          "type": "uint256"
        }
      ],
      "stateMutability": "view",
      "type": "function"
    },
    {
      "inputs": [
        {
          "internalType": "uint256",
          "name": "_levels",
          "type": "uint256"
        }
      ],
      "name": "getUpgradeCost",
      "outputs": [
        {
          "internalType": "uint256",
          "name": "totalCost",
          "type": "uint256"
        },
        {
          "internalType": "uint256[]",
          "name": "breakdown",
          "type": "uint256[]"
        }
      ],
      "stateMutability": "view",
      "type": "function"
    },
    {
      "inputs": [
        {
          "internalType": "address",
          "name": "_userAddress",
          "type": "address"
        },
        {
          "internalType": "uint256",
          "name": "_levels",
          "type": "uint256"
        }
      ],
      "name": "getUpgradeCostFor",
      "outputs": [
        {
          "internalType": "uint256",
          "name": "totalCost",
          "type": "uint256"
        },
        {
          "internalType": "uint256[]",
          "name": "breakdown",
          "type": "uint256[]"
        }
      ],
      "stateMutability": "view",
      "type": "function"
    },
    {
      "inputs": [
        {
          "internalType": "uint256",
          "name": "_userId",
          "type": "uint256"
        }
      ],
      "name": "getUserAccount",
      "outputs": [
        {
          "internalType": "address",
          "name": "",
          "type": "address"
        }
      ],
      "stateMutability": "view",
      "type": "function"
    },
    {
      "inputs": [
        {
          "internalType": "address",
          "name": "",
          "type": "address"
        }
      ],
      "name": "id",
      "outputs": [
        {
          "internalType": "uint256",
          "name": "",
          "type": "uint256"
        }
      ],
      "stateMutability": "view",
      "type": "function"
    },
    {
      "inputs": [],
      "name": "isAutonomous",
      "outputs": [
        {
          "internalType": "bool",
          "name": "",
          "type": "bool"
        }
      ],
      "stateMutability": "view",
      "type": "function"
    },
    {
      "inputs": [
        {
          "internalType": "address",
          "name": "_address",
          "type": "address"
        }
      ],
      "name": "isRegistered",
      "outputs": [
        {
          "internalType": "bool",
          "name": "",
          "type": "bool"
        }
      ],
      "stateMutability": "view",
      "type": "function"
    },
    {
      "inputs": [
        {
          "internalType": "uint256",
          "name": "",
          "type": "uint256"
        }
      ],
      "name": "levelCosts",
      "outputs": [
        {
          "internalType": "uint256",
          "name": "",
          "type": "uint256"
        }
      ],
      "stateMutability": "view",
      "type": "function"
    },
    {
      "inputs": [
        {
          "internalType": "uint256",
          "name": "",
          "type": "uint256"
        }
      ],
      "name": "lostIncome",
      "outputs": [
        {
          "internalType": "uint256",
          "name": "",
          "type": "uint256"
        }
      ],
      "stateMutability": "view",
      "type": "function"
    },
    {
      "inputs": [
        {
          "internalType": "uint256",
          "name": "",
          "type": "uint256"
        }
      ],
      "name": "matrixDirect",
      "outputs": [
        {
          "internalType": "uint256",
          "name": "",
          "type": "uint256"
        }
      ],
      "stateMutability": "view",
      "type": "function"
    },
    {
      "inputs": [],
      "name": "owner",
      "outputs": [
        {
          "internalType": "address",
          "name": "",
          "type": "address"
        }
      ],
      "stateMutability": "view",
      "type": "function"
    },
    {
      "inputs": [],
      "name": "pauseContract",
      "outputs": [],
      "stateMutability": "nonpayable",
      "type": "function"
    },
    {
      "inputs": [],
      "name": "paused",
      "outputs": [
        {
          "internalType": "bool",
          "name": "",
          "type": "bool"
        }
      ],
      "stateMutability": "view",
      "type": "function"
    },
    {
      "inputs": [
        {
          "internalType": "uint256",
          "name": "_ref",
          "type": "uint256"
        },
        {
          "internalType": "address",
          "name": "_newAcc",
          "type": "address"
        }
      ],
      "name": "register",
      "outputs": [],
      "stateMutability": "nonpayable",
      "type": "function"
    },
    {
      "inputs": [
        {
          "internalType": "address",
          "name": "_referrerAddress",
          "type": "address"
        }
      ],
      "name": "registerMe",
      "outputs": [],
      "stateMutability": "nonpayable",
      "type": "function"
    },
    {
      "inputs": [],
      "name": "renounceOwnership",
      "outputs": [],
      "stateMutability": "nonpayable",
      "type": "function"
    },
    {
      "inputs": [
        {
          "internalType": "uint8",
          "name": "_level",
          "type": "uint8"
        },
        {
          "internalType": "uint256",
          "name": "_newCost",
          "type": "uint256"
        }
      ],
      "name": "setLevelCost",
      "outputs": [],
      "stateMutability": "nonpayable",
      "type": "function"
    },
    {
      "inputs": [
        {
          "internalType": "uint256",
          "name": "",
          "type": "uint256"
        },
        {
          "internalType": "uint256",
          "name": "",
          "type": "uint256"
        },
        {
          "internalType": "uint256",
          "name": "",
          "type": "uint256"
        }
      ],
      "name": "teams",
      "outputs": [
        {
          "internalType": "uint256",
          "name": "",
          "type": "uint256"
        }
      ],
      "stateMutability": "view",
      "type": "function"
    },
    {
      "inputs": [],
      "name": "totalUsers",
      "outputs": [
        {
          "internalType": "uint256",
          "name": "",
          "type": "uint256"
        }
      ],
      "stateMutability": "view",
      "type": "function"
    },
    {
      "inputs": [
        {
          "internalType": "address",
          "name": "newOwner",
          "type": "address"
        }
      ],
      "name": "transferOwnership",
      "outputs": [],
      "stateMutability": "nonpayable",
      "type": "function"
    },
    {
      "inputs": [],
      "name": "unpauseContract",
      "outputs": [],
      "stateMutability": "nonpayable",
      "type": "function"
    },
    {
      "inputs": [
        {
          "internalType": "uint256",
          "name": "_id",
          "type": "uint256"
        },
        {
          "internalType": "uint256",
          "name": "_lvls",
          "type": "uint256"
        }
      ],
      "name": "upgrade",
      "outputs": [],
      "stateMutability": "nonpayable",
      "type": "function"
    },
    {
      "inputs": [
        {
          "internalType": "uint256",
          "name": "_levels",
          "type": "uint256"
        }
      ],
      "name": "upgradeMe",
      "outputs": [],
      "stateMutability": "nonpayable",
      "type": "function"
    },
    {
      "inputs": [
        {
          "internalType": "uint256",
          "name": "",
          "type": "uint256"
        }
      ],
      "name": "userIncome",
      "outputs": [
        {
          "internalType": "uint256",
          "name": "totalDeposit",
          "type": "uint256"
        },
        {
          "internalType": "uint256",
          "name": "totalIncome",
          "type": "uint256"
        },
        {
          "internalType": "uint256",
          "name": "referralIncome",
          "type": "uint256"
        },
        {
          "internalType": "uint256",
          "name": "sponsorIncome",
          "type": "uint256"
        },
        {
          "internalType": "uint256",
          "name": "levelIncome",
          "type": "uint256"
        }
      ],
      "stateMutability": "view",
      "type": "function"
    },
    {
      "inputs": [
        {
          "internalType": "uint256",
          "name": "",
          "type": "uint256"
        }
      ],
      "name": "userInfo",
      "outputs": [
        {
          "internalType": "bool",
          "name": "exists",
          "type": "bool"
        },
        {
          "internalType": "address",
          "name": "account",
          "type": "address"
        },
        {
          "internalType": "uint256",
          "name": "referrer",
          "type": "uint256"
        },
        {
          "internalType": "uint256",
          "name": "upline",
          "type": "uint256"
        },
        {
          "internalType": "uint256",
          "name": "level",
          "type": "uint256"
        },
        {
          "internalType": "uint256",
          "name": "directTeam",
          "type": "uint256"
        },
        {
          "internalType": "uint256",
          "name": "team",
          "type": "uint256"
        },
        {
          "internalType": "uint256",
          "name": "registrationTime",
          "type": "uint256"
        }
      ],
      "stateMutability": "view",
      "type": "function"
    }
  ],
  "bytecode": "0x61012034620007d55760006001600160401b03601f62004a6b38819003918201601f19168501919083831186841017620007c15790808693926040938452843960a092839181010312620007bd57620000588562000804565b916020916200006983880162000804565b6200007682890162000804565b936060890151946200008c6080809b0162000804565b928451986101a08a018a811082821117620007a9578652674563918244f400008a52678ac7230489e80000848b01526801158e460913d00000868b015268022b1c8c1227a0000060608b01526804563918244f4000008c8b01526808ac7230489e800000878b015260c097681158e460913d000000898c015260e0996822b1c8c1227a0000008b8d01526101009b684563918244f40000008d820152688ac7230489e80000006101208201526901158e460913d000000061014082015269022b1c8c1227a00000006101608201526904563918244f400000006101808201528d5b600d81106200078f5750506001600e819055946001600160a01b0394828616156200074b57851690811562000715578516978815620006d15783156200068d5785169182156200065a578f528a52818b52428c528852600d80546001600160a01b031916331790556010819055858c5260118552868c208190558651808c0183811182821017620006465790868f8f969594938d918f8c8f938f9081528c88528688019182528b818901938a855260608a01958b87528a0196600d88528a01978289528a019d8e528901974289528a825260129052209651151590875490600160a81b6101009003905160081b169160ff1690600160a81b60019003191617178655518a86015551600285015551600384015551956004968784015551600583015551906006015587519189830190838210908211176200063357908e8e86938b528085528885018181528b808701928084526060880194818652880195818752815260138c522095518655518886015551600285015551600384015551910155885192601854680100000000000000008110156200062057818101806018558110156200060d578490868e60188152200155600f5580885116803b15620005b1578b809160648951809481936366f0566160e11b998a845289840152600a60248401528160448401525af18015620005d157620005f7575b50808851168951813b15620005db578c91606483928a5194859384928a845289840152600b60248401528160448401525af18015620005d157908c91620005df575b5050808851168951813b15620005db578c91606483928a5194859384928a845289840152600c60248401528160448401525af18015620005d157908c91620005b5575b505087511691885192803b15620005b1578b929183606492895196879586948552840152600d60248401528160448401525af18015620005a7579089916200058b575b50507fccf9e170264f78923037f9d4f09c5eb756fcb20f871f02dcedb45f500d77b9888651918451428152a3519433907f8be0079c531659141344cd1fd0a4f28419497f9722a3daafe3b4186f6b6457e08180a361425195866200081a8739518581816107ac01528181610e6301528181611d6c0152612da101525184818161041c015281816106f2015281816107ea01528181610ccd01528181610f43015281816110d80152818161172401528181611a7501528181612a0e01528181612b8801528181612cde01528181612de001528181612fa70152818161337e015281816135eb015261369b015251838181610551015281816105a4015281816106b20152818161124f0152818161147e01528181611ac101528181612ca201526140c6015251828181610e100152818161107001528181611425015281816116a101528181612b240152818161331d015261363c01525181610bd10152f35b6200059690620007da565b620005a35787386200042e565b8780fd5b84513d8b823e3d90fd5b8b80fd5b620005c090620007da565b620005cd578a38620003eb565b8a80fd5b87513d8e823e3d90fd5b8c80fd5b620005ea90620007da565b620005cd578a38620003a8565b62000605909b919b620007da565b993862000366565b634e487b7160e01b8d526032845260248dfd5b634e487b7160e01b8d526041845260248dfd5b634e487b7160e01b8e526041855260248efd5b634e487b7160e01b8e52604160045260248efd5b895162461bcd60e51b815260048101899052600c60248201526b125b9d985b1a59081554d11560a21b6044820152606490fd5b895162461bcd60e51b815260048101899052601460248201527f496e76616c696420726f6f7420757365722049440000000000000000000000006044820152606490fd5b895162461bcd60e51b815260048101899052601460248201527f496e76616c696420726f6f7420616464726573730000000000000000000000006044820152606490fd5b895162461bcd60e51b815260048101899052600f60248201526e496e76616c696420726f79616c747960881b6044820152606490fd5b895162461bcd60e51b815260048101899052601460248201527f496e76616c6964206665652072656365697665720000000000000000000000006044820152606490fd5b81516001600160501b03168155908701906001016200016d565b634e487b7160e01b8c52604160045260248cfd5b8380fd5b634e487b7160e01b85526041600452602485fd5b600080fd5b6001600160401b038111620007ee57604052565b634e487b7160e01b600052604160045260246000fd5b51906001600160a01b0382168203620007d55756fe6080604052600436101561001257600080fd5b60003560e01c806321d178fb146120575780632233a8301461202b5780632b6e4da014611fcc5780632d8ae54914611f81578063439766ce14611ed8578063451450ec146119b65780634a429d12146119765780634bf96a88146117b557806351d70bc4146118f15780635aabf7f11461189c5780635c975abb146118765780635d7d6342146118125780636266a380146117ba5780636702c7bf146117b5578063697d2428146117995780636f9fb98a146116f85780636fa6e58a14611625578063715018a6146115c35780637daa10ce146115755780637e06a01f1461154c578063806d73be1461139257806388afbe3e146113665780638955defb1461132c5780638da5cb5b146113035780639c8c3e801461127e5780639d72065214611239578063a7476dcf1461121d578063aafb980014611201578063b33712c514611161578063bfca1cd014610e92578063bff1f9e114611143578063c3c5a54714611107578063c54e44eb146110c2578063d0ac259614610e97578063d3d50d9514610e92578063d3e78e4d14610e4d578063dbbdf08314610bf4578063ddaa26ad14610bb9578063e6bb42d814610acb578063f12c860a146109d6578063f28d3d5e146109ac578063f2fde38b14610936578063fb2ddd701461034b578063fdc61181146103145763ff329e7c1461020b57600080fd5b3461030f57602036600319011261030f576004353360005260118060205260406000205461023a8115156128fe565b6000526012602052600360406000200154610261600d61025a858461251e565b1115612830565b61026a83613bec565b926000926000925b82841061029b5785856102976040519283928352604060208401526040830190612391565b0390f35b909192936102a9858361251e565b60001981019081116102fa576102f2916102da6102c86102ec936127a1565b60646102d382612508565b049061251e565b90816102e6898b613c1e565b5261251e565b946126b5565b929190610272565b83634e487b7160e01b60005260045260246000fd5b600080fd5b3461030f57602036600319011261030f576004356000526012602052602060018060a01b0360406000205460081c16604051908152f35b3461030f57602036600319011261030f5761036a6001600e5414612409565b6000600e5561038160ff600d5460a01c161561244b565b33600052601160205260406000205461039b8115156128fe565b80600052601260205260018060a01b03906103c18260406000205460081c1633146127f5565b8060005260126020526103e3600d61025a60043560036040600020015461251e565b6000805b60043581106108ea57506040516323b872dd60e01b8152336004820152306024820152604481019190915260208160648160007f000000000000000000000000000000000000000000000000000000000000000088165af18015610681576000906108af575b61045791506125f5565b60005b600435811061046a576001600e55005b8160005260126020526104858160036040600020015461251e565b600019810190811161068d5761049a906127a1565b9060646104a683612508565b0483600052601260205260036040600020016104c281546126b5565b905583600052601360205260406000206104dd84825461251e565b90558061079d575b5060646104f183612508565b04806106a3575b6105028385612ee6565b84600052601260205260036040600020015490600019820191821161068d576105359261052e91612870565b9085613558565b82600052601260205260406000206004600382015491015490857f0000000000000000000000000000000000000000000000000000000000000000163b1561030f576040516366f0566160e11b81526004810186905260248101919091526044810191909152600081606481837f00000000000000000000000000000000000000000000000000000000000000008a165af180156106815761066d9385927f430828e9e608608c6f34402a3bbf7ccff1cd71ac750c401a12c72e4578350f9692610672575b50826000526012602052600360406000200154906106306040519283924291846040919493926060820195825260208201520152565b0390a28260005260126020526106686003604060002001546040519061065582612555565b85825260208201524260408201526126c4565b6126b5565b61045a565b61067b9061252b565b876105fa565b6040513d6000823e3d90fd5b634e487b7160e01b600052601160045260246000fd5b60405163a9059cbb60e01b81527f000000000000000000000000000000000000000000000000000000000000000086166001600160a01b031660048201526024810182905260208160448160007f00000000000000000000000000000000000000000000000000000000000000008b165af1801561068157600090610762575b61072d91506128bc565b837fb74a7140ef81c80d0e213846b7b10b59f9c366b463e36e1f98bf00ef44c670b460408051848152426020820152a26104f8565b506020813d602011610795575b8161077c602093836125c6565b8101031261030f5761079061072d916125e8565b610723565b3d915061076f565b60405163a9059cbb60e01b81527f00000000000000000000000000000000000000000000000000000000000000006001600160a01b031660048201526024810182905260208160448160007f00000000000000000000000000000000000000000000000000000000000000008b165af1801561068157600090610874575b610825915061287d565b8360005260126020526003604060002001548060001981011161068d576040805192835260001991909101602083015242908201526000805160206141fc83398151915290606090a1846104e5565b506020813d6020116108a7575b8161088e602093836125c6565b8101031261030f576108a2610825916125e8565b61081b565b3d9150610881565b506020813d6020116108e2575b816108c9602093836125c6565b8101031261030f576108dd610457916125e8565b61044d565b3d91506108bc565b908260005260126020526109068260036040600020015461251e565b600019810190811161068d57610931916109256102c861092b936127a1565b9061251e565b916126b5565b6103e7565b3461030f57602036600319011261030f5761094f61237b565b600d546001600160a01b038082169261096933851461293b565b1680926109778215156124ca565b7f8be0079c531659141344cd1fd0a4f28419497f9722a3daafe3b4186f6b6457e0600080a36001600160a01b03191617600d55005b3461030f57600036600319011261030f57600d546040516001600160a01b03909116158152602090f35b3461030f57604036600319011261030f576109ef61237b565b602480359160018060a01b031660005260119182602052604060002054610a178115156128fe565b600052601260205260036040600020015490610a38600d61025a838561251e565b610a4181613bec565b936000936000935b838510610a6e5786866102976040519283928352604060208401526040830190612391565b9091929394610a7d868361251e565b6000198101908111610ab757610aae91610a9c6102c8610aa8936127a1565b90816102e68a8c613c1e565b956126b5565b93929190610a49565b8385634e487b7160e01b6000526004526000fd5b3461030f57600036600319011261030f57604051610ae881612571565b6101a0908136823760405191610afd83612571565b8036843760405190610b0e82612571565b8036833760005b600d8110610b4c575090610b3f6104e094610b4a93610b3760405180976123e1565b8501906123e1565b6103408301906123e1565bf35b80610b59610bb4926127a1565b610b638287613e91565b526064610b79610b738388613e91565b51612508565b04610b848288613e91565b52610ba4610b928287613e91565b51610b9d8389613e91565b519061251e565b610bae8286613e91565b526126b5565b610b15565b3461030f57600036600319011261030f5760206040517f00000000000000000000000000000000000000000000000000000000000000008152f35b3461030f57604036600319011261030f576001600160a01b0360243581811660043581830361030f57610c2b6001600e5414612409565b6000600e55610c4260ff600d5460a01c161561244b565b808260005260209160118352610c5d60406000205415612489565b610c688415156124ca565b8015908115610e34575b50610e0d575b60005492600083610cc96064610c8d88612508565b0498610c998a8961251e565b6040516323b872dd60e01b8152336004820152306024820152604481019190915293849283919082906064820190565b03927f0000000000000000000000000000000000000000000000000000000000000000165af1801561068157600090610dd7575b610d0791506125f5565b601054946001860180961161068d57610dd096600195610d3f8580610d76958b6010558760005260118a528b6040600020558b613a47565b610d4888612638565b610d53600f546126b5565b600f5587600052601386526040600020610d6e82825461251e565b905587612986565b610d808286613c32565b610d8985613e13565b847f19871a311455a6a311f1a6dcef0dc6478acccea5a81b0bafe39d188d098efaf384604051428152a460405192610dc084612555565b83528201524260408201526126c4565b6001600e55005b508381813d8311610e06575b610ded81836125c6565b8101031261030f57610e01610d07916125e8565b610cfd565b503d610de3565b507f0000000000000000000000000000000000000000000000000000000000000000610c78565b90506000526012825260ff604060002054161586610c72565b3461030f57600036600319011261030f576040517f00000000000000000000000000000000000000000000000000000000000000006001600160a01b03168152602090f35b6123c5565b3461030f5760208060031936011261030f57610eb161237b565b610ebf6001600e5414612409565b6000600e55610ed660ff600d5460a01c161561244b565b6001600160a01b03908116806110af57506000905b813360005260118452610f0360406000205415612489565b610f0e3315156124ca565b8015908115611096575b5061106e575b60005492600081610f3f6064610f3388612508565b0494610c99868961251e565b03927f0000000000000000000000000000000000000000000000000000000000000000165af1801561068157600090611038575b610f7d91506125f5565b601054926001840180941161068d57610fec600193610dd09686601055336000526011855286604060002055610fb58480338a613a47565b610fbe87612638565b610fc9600f546126b5565b600f5586600052601385526040600020610fe482825461251e565b905586612986565b610ff68185613c32565b610fff84613e13565b604051428152847f19871a311455a6a311f1a6dcef0dc6478acccea5a81b0bafe39d188d098efaf3843393a460405192610dc084612555565b508181813d8311611067575b61104e81836125c6565b8101031261030f57611062610f7d916125e8565b610f73565b503d611044565b7f00000000000000000000000000000000000000000000000000000000000000009150610f1e565b90506000526012835260ff604060002054161584610f18565b6000526011825260406000205490610eeb565b3461030f57600036600319011261030f576040517f00000000000000000000000000000000000000000000000000000000000000006001600160a01b03168152602090f35b3461030f57602036600319011261030f576001600160a01b0361112861237b565b16600052601160205260206040600020541515604051908152f35b3461030f57600036600319011261030f576020600f54604051908152f35b3461030f57600036600319011261030f57600d54611189336001600160a01b0383161461293b565b60ff8160a01c16156111cf5760ff60a01b1916600d5560405142815233907f107553d8191d85b405879cf752997865edd48d94e20bda4dd27223c94b31a7cc90602090a2005b60405162461bcd60e51b815260206004820152600a602482015269139bdd081c185d5cd95960b21b6044820152606490fd5b3461030f57600036600319011261030f57602060405160028152f35b3461030f57600036600319011261030f57602060405160648152f35b3461030f57600036600319011261030f576040517f00000000000000000000000000000000000000000000000000000000000000006001600160a01b03168152602090f35b3461030f57600036600319011261030f57611297613f65565b9092916112bd604051948594855260209283860152608060408601526080850190612391565b838103606085015281808451928381520193019160005b8281106112e357505050500390f35b83516001600160a01b0316855286955093810193928101926001016112d4565b3461030f57600036600319011261030f57600d546040516001600160a01b039091168152602090f35b3461030f57602036600319011261030f576001600160a01b0361134d61237b565b1660005260116020526020604060002054604051908152f35b3461030f57602036600319011261030f5760043560005260156020526020604060002054604051908152f35b3461030f576113a0366122f1565b906113af6001600e5414612409565b6000600e5580151580611534575b6113c6906127b7565b8060005260206012815260018060a01b036113ec8160406000205460081c1633146127f5565b6000838152601383526040808220600181015490546012865282842054925163c7403e1d60e01b815260048101889052602481018990527f000000000000000000000000000000000000000000000000000000000000000060448201526064810192909252608482015260089190911c83166001600160a01b031660a482015291839183919082908160c481015b03927f0000000000000000000000000000000000000000000000000000000000000000165af1908115610681576000916114e7575b506040907fb64f1f8f03ee84ec0cfb24d1299d6ce9ef6d58ea0787053de092ec3f8b14255c9282519182524290820152a36001600e55005b90508181813d831161152d575b6114fe81836125c6565b8101031261030f57517fb64f1f8f03ee84ec0cfb24d1299d6ce9ef6d58ea0787053de092ec3f8b14255c6114af565b503d6114f4565b5060008181526012602052604090205460ff166113bd565b3461030f57602036600319011261030f57600435600d81101561030f5760209054604051908152f35b3461030f57600036600319011261030f57610100611591613ea2565b95604095919594929451978852602088015260408701526060860152608085015260a084015260c083015260e0820152f35b3461030f57600036600319011261030f57600d546001600160a01b0381166115ec33821461293b565b7f656ba3c6830b11142778bbcfaff90d2ecc89186277667c2ce8700e4697ddccc26020604051428152a26001600160a01b031916600d55005b3461030f5760208060031936011261030f57600435906116496001600e5414612409565b6000600e553360005260118152604060002054906116688215156128fe565b6000828152601382526040808220600181015490546012855282842054925163c7403e1d60e01b815260048101879052602481018890527f00000000000000000000000000000000000000000000000000000000000000006044820152606481019290925260848201526001600160a01b0360089290921c821660a4820152918391839182908160c4810161147a565b3461030f57600036600319011261030f576040516370a0823160e01b81523060048201526020816024817f00000000000000000000000000000000000000000000000000000000000000006001600160a01b03165afa801561068157600090611767575b602090604051908152f35b506020813d8211611791575b81611780602093836125c6565b8101031261030f576020905161175c565b3d9150611773565b3461030f57600036600319011261030f57602060405160018152f35b612307565b3461030f57602036600319011261030f57600435600052601360205260a06040600020805490600181015490600281015460046003830154920154926040519485526020850152604084015260608301526080820152f35b3461030f57600036600319011261030f5761182b614071565b91906040519182906000915b6004831061185f5761018085610b4a886118546080840189612351565b610100830190612351565b600190825181526020809101920192019190611837565b3461030f57600036600319011261030f57602060ff600d5460a01c166040519015158152f35b3461030f57606036600319011261030f57604435600435600052601460205260406000206024356000526020526040600020805482101561030f576020916118e391612323565b90546040519160031b1c8152f35b3461030f57602036600319011261030f57600435600052601260205261010060406000208054906001810154906002810154600382015460048301549160066005850154940154946040519660ff81161515885260018060a01b039060081c16602088015260408701526060860152608085015260a084015260c083015260e0820152f35b3461030f57600036600319011261030f5760c0611991613f0d565b93604093919351958652602086015260408501526060840152608083015260a0820152f35b3461030f576119c4366122f1565b906119d36001600e5414612409565b6000600e556119ea60ff600d5460a01c161561244b565b80151580611ec0575b6119fc906127b7565b80600052601260209181835260018060a01b0392611a258460406000205460081c1633146127f5565b816000528281526003611a44600d61025a88846040600020015461251e565b60009360005b878110611e8357506040516323b872dd60e01b815233600482015230602482015260448101959095527f0000000000000000000000000000000000000000000000000000000000000000861694838160648160008a5af1801561068157600090611e4d575b611abc91509796976125f5565b6000967f000000000000000000000000000000000000000000000000000000000000000016965b868110611af1576001600e55005b84600052818452611b0981846040600020015461251e565b600019919082810190811161068d57611b21906127a1565b91606480611b2e85612508565b048860005285885286604060002001611b4781546126b5565b905588600052601388526040600020611b6186825461251e565b905580611d5d575b50611b7384612508565b04908a87838b81611ca5575b50505050611b8d8489612ee6565b88600052858852866040600020015491820191821161068d57611bba92611bb391612870565b9088613558565b856000528285526040600020600485820154910154908a3b1561030f576040516366f0566160e11b81526004810189905260248101919091526044810191909152600081606481838e5af1801561068157611c919388927f430828e9e608608c6f34402a3bbf7ccff1cd71ac750c401a12c72e4578350f9692611c96575b506000838152868952604090819020880154815190815260208101929092524290820152606090a285600052828552610668846040600020015460405190611c7f82612555565b888252878201524260408201526126c4565b611ae3565b611c9f9061252b565b8c611c38565b60405163a9059cbb60e01b81526001600160a01b039490941660048501526024840191909152829060449082906000905af1801561068157600090611d27575b611cef91506128bc565b877fb74a7140ef81c80d0e213846b7b10b59f9c366b463e36e1f98bf00ef44c670b460408051858152428b820152a28a87838b611b7f565b508781813d8311611d56575b611d3d81836125c6565b8101031261030f57611d51611cef916125e8565b611ce5565b503d611d33565b60405163a9059cbb60e01b81527f00000000000000000000000000000000000000000000000000000000000000006001600160a01b0316600482015260248101829052888160448160008f5af1801561068157600090611e17575b611dc2915061287d565b8860005285885286604060002001549083820191821161068d576000805160206141fc83398151915291611e0e6040519283924291846040919493926060820195825260208201520152565b0390a18b611b69565b508881813d8311611e46575b611e2d81836125c6565b8101031261030f57611e41611dc2916125e8565b611db8565b503d611e23565b508381813d8311611e7c575b611e6381836125c6565b8101031261030f57611e77611abc916125e8565b611aaf565b503d611e59565b9484600052818452611e9c86846040600020015461251e565b600019810190811161068d57611ebb916109256102c8610aa8936127a1565b611a4a565b5060008181526012602052604090205460ff166119f3565b3461030f57600036600319011261030f57600d54611f00336001600160a01b0383161461293b565b60ff8160a01c16611f4b5760ff60a01b1916600160a01b17600d5560405142815233907f80170b5fcdd2bf1e0660ef4b8851f86685f64d41b1a19de1471947ece8725aac90602090a2005b60405162461bcd60e51b815260206004820152600e60248201526d105b1c9958591e481c185d5cd95960921b6044820152606490fd5b3461030f57600036600319011261030f576000546064611fa082612508565b04610297611fae828461251e565b91604051938493846040919493926060820195825260208201520152565b3461030f57602036600319011261030f57611ff4600435611fef600d8210612765565b6127a1565b6064611fff82612508565b049061029761200e838361251e565b604051938493846040919493926060820195825260208201520152565b3461030f57602036600319011261030f5760043560005260166020526020604060002054604051908152f35b3461030f57604036600319011261030f5760043560ff811680820361030f576024918235600d61209160018060a01b03825416331461293b565b61209c818510612765565b81156122b557670de0b6b3a764000082106122785769152d02c7e14af6800000821161223457836121ca575b600c841061212f575b82101561211a5781549181905560408051928352602083019190915242908201527f01160ded273713b62692b83f3f861bfef99579eaf0440d7a22d838a3d163922e90606090a2005b83634e487b7160e01b60005260326004526000fd5b61213883612974565b818110156121b557548210801561219c575b6120d15760405162461bcd60e51b8152602060048201526021818701527f436f7374206d757374206265206c657373207468616e206e657874206c6576656044820152601b60fa1b6064820152608490fd5b506121a683612974565b818110156121b557541561214a565b85634e487b7160e01b60005260326004526000fd5b600019840160ff811161221f57818110156121b5575482116120c85760405162461bcd60e51b81526020600482015260128187015271436f7374206d75737420696e63726561736560701b6044820152606490fd5b85634e487b7160e01b60005260116004526000fd5b60405162461bcd60e51b815260206004820152601c818701527f4d6178696d756d20636f7374206973203130302c3030302055534454000000006044820152606490fd5b60405162461bcd60e51b81526020600482015260168187015275135a5b9a5b5d5b4818dbdcdd081a5cc80c481554d11560521b6044820152606490fd5b60405162461bcd60e51b81526020600482015260158187015274436f7374206d75737420626520706f73697469766560581b6044820152606490fd5b604090600319011261030f576004359060243590565b3461030f57600036600319011261030f576020604051600d8152f35b805482101561233b5760005260206000200190600090565b634e487b7160e01b600052603260045260246000fd5b6000915b6004831061236257505050565b6001908251151581526020809101920192019190612355565b600435906001600160a01b038216820361030f57565b90815180825260208080930193019160005b8281106123b1575050505090565b8351855293810193928101926001016123a3565b3461030f57600036600319011261030f57602060405160058152f35b6000915b600d83106123f257505050565b6001908251815260208091019201920191906123e5565b1561241057565b60405162461bcd60e51b81526020600482015260136024820152721499595b9d1c985b98de4819195d1958dd1959606a1b6044820152606490fd5b1561245257565b60405162461bcd60e51b815260206004820152600f60248201526e10dbdb9d1c9858dd081c185d5cd959608a1b6044820152606490fd5b1561249057565b60405162461bcd60e51b8152602060048201526012602482015271105b1c9958591e481c9959da5cdd195c995960721b6044820152606490fd5b156124d157565b60405162461bcd60e51b815260206004820152600f60248201526e496e76616c6964206164647265737360881b6044820152606490fd5b9060058202918083046005149015171561068d57565b9190820180921161068d57565b67ffffffffffffffff811161253f57604052565b634e487b7160e01b600052604160045260246000fd5b6060810190811067ffffffffffffffff82111761253f57604052565b6101a0810190811067ffffffffffffffff82111761253f57604052565b6020810190811067ffffffffffffffff82111761253f57604052565b6080810190811067ffffffffffffffff82111761253f57604052565b90601f8019910116810190811067ffffffffffffffff82111761253f57604052565b5190811515820361030f57565b156125fc57565b60405162461bcd60e51b81526020600482015260146024820152731554d115081d1c985b9cd9995c8819985a5b195960621b6044820152606490fd5b601854600160401b81101561253f57600181018060185581101561233b5760186000527fb13d2d76d1f4b7be834882e410b3e3a8afaf69f83600ae24db354391d2378d2e0155565b8054600160401b81101561253f5761269d91600182018155612323565b819291549060031b91821b91600019901b1916179055565b600019811461068d5760010190565b601954600160401b81101561253f57600181018060195581101561233b57604060037f944998273e477b495144fb8794c914197f3ccb46be2900f4698fd0ef743c969792601960005202928051847f944998273e477b495144fb8794c914197f3ccb46be2900f4698fd0ef743c9695015560208101517f944998273e477b495144fb8794c914197f3ccb46be2900f4698fd0ef743c96968501550151910155565b1561276c57565b60405162461bcd60e51b815260206004820152600d60248201526c125b9d985b1a59081b195d995b609a1b6044820152606490fd5b600d81106127ae81612765565b1561233b575490565b156127be57565b60405162461bcd60e51b815260206004820152600f60248201526e125b9d985b1a59081d5cd95c881251608a1b6044820152606490fd5b156127fc57565b60405162461bcd60e51b815260206004820152600c60248201526b155b985d5d1a1bdc9a5e995960a21b6044820152606490fd5b1561283757565b60405162461bcd60e51b8152602060048201526011602482015270115e18d959591cc81b585e081b195d995b607a1b6044820152606490fd5b9190820391821161068d57565b1561288457565b60405162461bcd60e51b815260206004820152601060248201526f10591b5a5b881999594819985a5b195960821b6044820152606490fd5b156128c357565b60405162461bcd60e51b8152602060048201526013602482015272149bde585b1d1e48199d5b990819985a5b1959606a1b6044820152606490fd5b1561290557565b60405162461bcd60e51b815260206004820152600e60248201526d139bdd081c9959da5cdd195c995960921b6044820152606490fd5b1561294257565b60405162461bcd60e51b815260206004820152600a60248201526927b7363c9037bbb732b960b11b6044820152606490fd5b60ff60019116019060ff821161068d57565b9180612d8a575b50606461299982612508565b0480612c8b575b60008381526020601281526129be6040936001858520015495612870565b9184151580612c77575b15612b22578481526012825283812054845163a9059cbb60e01b81526001600160a01b0360089290921c82166004820152602481018590529083908290604490829086907f0000000000000000000000000000000000000000000000000000000000000000165af1908115612b18578291612adf575b5015612aa9579060018483877f7f31b11e95a87830bd41893a2c8bb6991e584f4e5082cedeeffd2b1ca1bb76c59796955260138452600282822001612a8486825461251e565b9055878152601384522001612a9a83825461251e565b905582519182524290820152a3565b835162461bcd60e51b815260048101839052600f60248201526e149959995c9c985b0819985a5b1959608a1b6044820152606490fd5b90508281813d8311612b11575b612af681836125c6565b81010312612b0d57612b07906125e8565b38612a3e565b5080fd5b503d612aec565b85513d84823e3d90fd5b7f00000000000000000000000000000000000000000000000000000000000000008082526012835284822054855163a9059cbb60e01b81526001600160a01b0360089290921c8216600482015260248101869052919650839082908185816044810103927f0000000000000000000000000000000000000000000000000000000000000000165af1908115612b18578291612c42575b5015612bfe579060018483877f7f31b11e95a87830bd41893a2c8bb6991e584f4e5082cedeeffd2b1ca1bb76c59796955260138452600282822001612a8486825461251e565b835162461bcd60e51b815260048101839052601760248201527f44656661756c7420726566657272616c206661696c65640000000000000000006044820152606490fd5b90508281813d8311612c70575b612c5981836125c6565b81010312612b0d57612c6a906125e8565b38612bb8565b503d612c4f565b508481526012825260ff84822054166129c8565b60405163a9059cbb60e01b81526001600160a01b037f00000000000000000000000000000000000000000000000000000000000000008116600483015260248201839052602090829060449082906000907f0000000000000000000000000000000000000000000000000000000000000000165af1801561068157600090612d4d575b612d1891506128bc565b827fb74a7140ef81c80d0e213846b7b10b59f9c366b463e36e1f98bf00ef44c670b460408051848152426020820152a26129a0565b6020823d8211612d82575b81612d65602093836125c6565b81010312612d7f5750612d7a612d18916125e8565b612d0e565b80fd5b3d9150612d58565b60405163a9059cbb60e01b81526001600160a01b037f00000000000000000000000000000000000000000000000000000000000000008116600483015260248201839052600091906020908290604490829086907f0000000000000000000000000000000000000000000000000000000000000000165af1908115612e98578291612e45575b5091606091612e2d6000805160206141fc8339815191529461287d565b6040519182526020820152426040820152a13861298d565b90506020813d8211612e90575b81612e5f602093836125c6565b81010312612b0d5791606091612e2d612e866000805160206141fc833981519152956125e8565b9294505091612e10565b3d9150612e52565b6040513d84823e3d90fd5b15612eaa57565b60405162461bcd60e51b8152602060048201526014602482015273149bdbdd0819985b1b189858dac819985a5b195960621b6044820152606490fd5b908160005260129182602052600160406000200154916000906101f49181158284810204841481171561068d576000955b60ff8716600d8110806134a1575b156132eb57612f3488836139ca565b9061ffff612f418a6134aa565b1691828702928784041485171561068d57806132de575b156130d55750600082815260208a8152604080832054905163a9059cbb60e01b81526001600160a01b0360089290921c82166004820152612710909404602485018190529392839160449183917f0000000000000000000000000000000000000000000000000000000000000000165af18015610681578891600091613099575b50613008575b50505b600052866020526001604060002001549560ff80911690811461068d5760010195612f17565b90937f38a882dd38cf7baf663586c9181108323f083cc8ac7cf5287586a0d56a71f914606061307387869485600052601380602052600360406000200161305084825461251e565b905586600052602052600160406000200161306c83825461251e565b905561251e565b9660ff61307f8d612974565b604051928352166020820152426040820152a33886612fdf565b9150506020813d6020116130cd575b816130b5602093836125c6565b8101031261030f576130c788916125e8565b38612fd9565b3d91506130a8565b90612710900490816130e9575b5050612fe2565b826000528960205260ff60406000205416156130e2576016602052604060002061311483825461251e565b905560058110156131f257506040516040810181811067ffffffffffffffff82111761253f57604052601a81527f4e6f742061637469766520286e656564204c6576656c20312b290000000000006020820152879183915b6040519182526060908160208401528051809284015260005b8281106131d7575050907f587d8f9cc4f7ae2f12f916b8ac03ac5414969dfaf447b84acbb1e2b171cb7eb291816080916000838284010152426040830152601f80199101168101030190a338806130e2565b6020818301810151608086840101528c965087955001613185565b6008811015613247575060405161320881612555565b602281527f4e65656420322b2064697265637420726566657272616c7320666f72204c362d602082015261098760f31b60408201525b8791839161316c565b600a11156132965760405161325b81612555565b602381527f4e65656420332b2064697265637420726566657272616c7320666f72204c392d60208201526204c31360ec1b604082015261323e565b6040516132a281612555565b602481527f4e65656420352b2064697265637420726566657272616c7320666f72204c31316020820152632d4c313360e01b604082015261323e565b5061271082041515612f58565b505050935091506127109082020480831061330f575b5061330c9250612870565b90565b909161331b9082612870565b7f000000000000000000000000000000000000000000000000000000000000000060008181526020868152604080832054905163a9059cbb60e01b81526001600160a01b0360089290921c821660048201526024810186905292839160449183917f0000000000000000000000000000000000000000000000000000000000000000165af190811561068157600091613446575b509161330c9560a0926133d06000805160206141dc83398151915295612ea3565b80600052601360205260036040600020016133ec84825461251e565b90556000526013602052600160406000200161340983825461251e565b90556040519182526060602083015260608201527139b837b739b7b92fb1b7b6b6b4b9b9b4b7b760711b6080820152426040820152a19038613301565b919290506020823d602011613499575b81613463602093836125c6565b8101031261030f5761330c956000805160206141dc833981519152936133d061348d60a0956125e8565b939550509250956133af565b3d9150613456565b50811515612f25565b60ff168015613552576001811461354c576002811461354657600381146135405760048114613540576005811461353a5760068114613534576007811461352e5760088114613528576009811461352257600a811461351c57600b811461351c57600c1461351757600090565b600a90565b50600a90565b50600f90565b50601490565b50601990565b50601e90565b50602890565b50603290565b50603c90565b50605090565b50606490565b60008181526012602092818452600290604095869183838720015491869487905b600d8210806139c1575b156139b657848952878a5285892083600382015411806139a8575b156138af57505083885286895284882054945163a9059cbb60e01b81526001600160a01b0360089690961c8616600480830191909152602482018d9052958a908290818c816044810103927f0000000000000000000000000000000000000000000000000000000000000000165af19081156138a557899161386c575b506137c8575b50505050505b15806137bf575b61363a575b5050505050565b7f000000000000000000000000000000000000000000000000000000000000000080835290835283822054845163a9059cbb60e01b81526001600160a01b0360089290921c82166004820152602481018790529084908290604490829087907f0000000000000000000000000000000000000000000000000000000000000000165af19081156137b5578391613754575b509260018560a096946060946136f06000805160206141dc8339815191529a98612ea3565b8082526013855260048383200161370889825461251e565b9055815260138452200161371d85825461251e565b90558251938452830152600d60608301526c6d61747269785f696e636f6d6560981b60808301524290820152a13880808080613633565b90508381813d83116137ae575b61376b81836125c6565b810103126137aa579260018560a096946060946136f061379a6000805160206141dc8339815191529b996125e8565b95989a50509450945095506136cb565b8280fd5b503d613761565b85513d85823e3d90fd5b5084151561362e565b9091928094955087526013808952858a8920016137e68c825461251e565b90558488528852600190818a8920016138008c825461251e565b9055819582820180921161385957509160a0917ffb0ece953ea45e221eab304ac93d016d67c4ff3f6d5ce3d2fb6db7d2043b46fc938b51928d84528b8401528b8301526060820152426080820152a33880808080613621565b634e487b7160e01b895260119052602488fd5b90508981813d831161389e575b61388381836125c6565b8101031261389a57613894906125e8565b3861361b565b8880fd5b503d613879565b8b513d8b823e3d90fd5b60ff9193949592965054166138dd575b87528588526138d3818a89200154946126b5565b8994939291613579565b6001850180861161399457817f587d8f9cc4f7ae2f12f916b8ac03ac5414969dfaf447b84acbb1e2b171cb7eb286928e8e7f4e6f74207175616c696669656420666f72206d617472697800000000000000008f8f6018908451968688528d8489015285880152606090818801528060809342858a01528a8c7ffb0ece953ea45e221eab304ac93d016d67c4ff3f6d5ce3d2fb6db7d2043b46fc60a0809ca386519788528701528501528301524290820152a36138bf565b634e487b7160e01b89526011600452602489fd5b50816004820154101561359e565b505050505050613627565b50841515613583565b600052601260205260406000209060ff825416158015613a39575b613a325760ff1660058110156139fc575050600190565b6008811015613a12575060046002910154101590565b600a1115613a265760046003910154101590565b60046005910154101590565b5050600090565b5060016003830154106139e5565b919092604091825161010081019067ffffffffffffffff918181108382111761253f57601294600691875260018352876020998a928386019160018060a01b03168252898601908882526060870190815260808701916001835260a088019360009b8c9788875260c08b019789895260e08c0199428b5252528c8c20985115159060ff8a5491610100600160a81b03905160081b169216906affffffffffffffffffffff60a81b16171788555160018801555160028701555160038601555160048501555160058401555191015583519060a082019082821090821117613bc057845282815260048682018481528583018581526060840190868252608085019287845289885260138b52888820955186555160018601555160028501555160038401555191015580151580613bb6575b613b83575050505050565b613bac9481601792845260128252600485852001613ba181546126b5565b905583525220612680565b3880808080613633565b5083811415613b78565b634e487b7160e01b84526041600452602484fd5b67ffffffffffffffff811161253f5760051b60200190565b90613bf682613bd4565b613c0360405191826125c6565b8281528092613c14601f1991613bd4565b0190602036910137565b805182101561233b5760209160051b010190565b9091604092835191610ca0830183811067ffffffffffffffff82111761253f5785526064835260209182840191610c8036843760009560019386511561233b5783905260009693879390925b83861080613e09575b15613dfc57613ca9613ca2613c9b886126b5565b978a613c1e565b51996126b5565b92896000526014968789528b6000206000805289526002808d6000205410613d4e575060005b8b600052888a528c600020600080528a528c8060002054821080613d44575b15613d3757908b610bae613d1b8f613d32958f8f8793600052815281600020906000805252600020612323565b9a9054613d27826126b5565b9b60031b1c92613c1e565b613ccf565b50949a5096509250613c7e565b5060648810613cee565b94505097509897809450809350600095919552855286600020600080528552613d7a8688600020612680565b85600052601285528660002001556000526015825283600020613d9d81546126b5565b905560015b15613dae575b50505050565b601592816000526014835284600020600080528352613dd08186600020612680565b6000526012825280600285600020015560005252600020613df181546126b5565b905538808080613da8565b9897509350945050613da2565b5060648910613c87565b60009081526012602090808252600192604091848383200154938583905b613e3f575b50505050505050565b85151580613e87575b15613e82578587968552838352600586862001613e6581546126b5565b90558452828252613e7b868686200154916126b5565b9095613e31565b613e36565b5060648110613e48565b90600d81101561233b5760051b0190565b6000338152601160205260408120548015613efe57808252601260205260408083209260136020522090600383015493600584015493600160048201549401549260018201549260066002840154930154919796959493929190565b50908180918180918180918190565b600090338252601160205260408220548015613f5a578252601360205260408220805492600182015493600283015493604060046003860154950154936016602052205491959493929190565b508180918180918190565b60009033825260206011815260408084205480156140365784526012808352818520926004600585015494015493601782528387209084518083858295549384815201908b52858b20928b5b8782821061402057505050613fc8925003836125c6565b8195613fd48351613bec565b96895b84518110156140135780613fee61400e9287613c1e565b518c52878752888c205460081c6001600160a01b0316610bae828c613c1e565b613fd7565b5096955096935096505050565b8554845260019586019588955093019201613fb1565b5080519291506140458361258e565b83835251906140538261258e565b8382528336813783929190565b90600481101561233b5760051b0190565b604080519161407f836125aa565b608036843782825191614091836125aa565b6080368437835183916140a3826125aa565b6080368337819060009533875260209360118552888820549687156141cd5750507f00000000000000000000000000000000000000000000000000000000000000006001600160a01b0316979050865b600490818110156141c1578251632075d10760e21b81529182018890526024820181905260609182816044818e5afa9283156141b7578a918b918c95614167575b5050614162936141448489614060565b9015159052614153838a614060565b9015159052610bae828d614060565b6140f3565b92509293505081813d83116141b0575b61418181836125c6565b8101031261389a57908161416292516141a68561419f8a85016125e8565b93016125e8565b9091909338614134565b503d614177565b84513d8c823e3d90fd5b50505093509350509250565b99509097509550935050505056fee7392140a76258e2263a339b5bfda7575cf4a9227c701df27629fe8dd52735b1edd09f264659ce99b52fd2a2d4f09e551eb001fe3fc56ffd5704fc1f402bc211a26469706673582212201f50410327326c90944b749b4d3ee65fac0b3261053df23e712c4a4f70e042f664736f6c63430008140033",
  "linkReferences": {},
  "deployedLinkReferences": {}
}