{
  "_format": "hh-sol-artifact-1",
  "contractName": "ChainlinkPriceUpdater",
  "sourceName": "contracts/ChainlinkPriceUpdater.sol",
  "abi": [
    {
      "inputs": [
        {
          "internalType": "address",
          "name": "_priceFeed",
          "type": "address"
        },
        {
          "internalType": "address",
          "name": "_mainContract",
          "type": "address"
        }
      ],
      "stateMutability": "nonpayable",
      "type": "constructor"
    },
    {
      "anonymous": false,
      "inputs": [
        {
          "indexed": false,
          "internalType": "uint256",
          "name": "oldThreshold",
          "type": "uint256"
        },
        {
          "indexed": false,
          "internalType": "uint256",
          "name": "newThreshold",
          "type": "uint256"
        }
      ],
      "name": "DeviationThresholdChanged",
      "type": "event"
    },
    {
      "anonymous": false,
      "inputs": [
        {
          "indexed": false,
          "internalType": "uint256",
          "name": "oldInterval",
          "type": "uint256"
        },
        {
          "indexed": false,
          "internalType": "uint256",
          "name": "newInterval",
          "type": "uint256"
        }
      ],
      "name": "MinIntervalChanged",
      "type": "event"
    },
    {
      "anonymous": false,
      "inputs": [
        {
          "indexed": true,
          "internalType": "address",
          "name": "oldOwner",
          "type": "address"
        },
        {
          "indexed": true,
          "internalType": "address",
          "name": "newOwner",
          "type": "address"
        }
      ],
      "name": "OwnerChanged",
      "type": "event"
    },
    {
      "anonymous": false,
      "inputs": [
        {
          "indexed": false,
          "internalType": "uint256",
          "name": "oldPrice",
          "type": "uint256"
        },
        {
          "indexed": false,
          "internalType": "uint256",
          "name": "newPrice",
          "type": "uint256"
        },
        {
          "indexed": false,
          "internalType": "uint256",
          "name": "timestamp",
          "type": "uint256"
        }
      ],
      "name": "PriceUpdated",
      "type": "event"
    },
    {
      "inputs": [],
      "name": "forceUpdate",
      "outputs": [],
      "stateMutability": "nonpayable",
      "type": "function"
    },
    {
      "inputs": [],
      "name": "getLatestPrice",
      "outputs": [
        {
          "internalType": "uint256",
          "name": "",
          "type": "uint256"
        }
      ],
      "stateMutability": "view",
      "type": "function"
    },
    {
      "inputs": [],
      "name": "getPriceInfo",
      "outputs": [
        {
          "internalType": "uint256",
          "name": "chainlinkPrice",
          "type": "uint256"
        },
        {
          "internalType": "uint256",
          "name": "storedPrice",
          "type": "uint256"
        },
        {
          "internalType": "uint256",
          "name": "deviation",
          "type": "uint256"
        },
        {
          "internalType": "bool",
          "name": "canUpdate",
          "type": "bool"
        }
      ],
      "stateMutability": "view",
      "type": "function"
    },
    {
      "inputs": [],
      "name": "lastStoredPrice",
      "outputs": [
        {
          "internalType": "uint256",
          "name": "",
          "type": "uint256"
        }
      ],
      "stateMutability": "view",
      "type": "function"
    },
    {
      "inputs": [],
      "name": "lastUpdateTime",
      "outputs": [
        {
          "internalType": "uint256",
          "name": "",
          "type": "uint256"
        }
      ],
      "stateMutability": "view",
      "type": "function"
    },
    {
      "inputs": [],
      "name": "mainContract",
      "outputs": [
        {
          "internalType": "contract IFiveDollarRide",
          "name": "",
          "type": "address"
        }
      ],
      "stateMutability": "view",
      "type": "function"
    },
    {
      "inputs": [],
      "name": "minUpdateInterval",
      "outputs": [
        {
          "internalType": "uint256",
          "name": "",
          "type": "uint256"
        }
      ],
      "stateMutability": "view",
      "type": "function"
    },
    {
      "inputs": [],
      "name": "owner",
      "outputs": [
        {
          "internalType": "address",
          "name": "",
          "type": "address"
        }
      ],
      "stateMutability": "view",
      "type": "function"
    },
    {
      "inputs": [],
      "name": "priceDeviationPercent",
      "outputs": [
        {
          "internalType": "uint256",
          "name": "",
          "type": "uint256"
        }
      ],
      "stateMutability": "view",
      "type": "function"
    },
    {
      "inputs": [],
      "name": "priceFeed",
      "outputs": [
        {
          "internalType": "contract AggregatorV3Interface",
          "name": "",
          "type": "address"
        }
      ],
      "stateMutability": "view",
      "type": "function"
    },
    {
      "inputs": [
        {
          "internalType": "uint256",
          "name": "_interval",
          "type": "uint256"
        }
      ],
      "name": "setMinUpdateInterval",
      "outputs": [],
      "stateMutability": "nonpayable",
      "type": "function"
    },
    {
      "inputs": [
        {
          "internalType": "uint256",
          "name": "_percent",
          "type": "uint256"
        }
      ],
      "name": "setPriceDeviationPercent",
      "outputs": [],
      "stateMutability": "nonpayable",
      "type": "function"
    },
    {
      "inputs": [],
      "name": "shouldUpdate",
      "outputs": [
        {
          "internalType": "bool",
          "name": "needed",
          "type": "bool"
        },
        {
          "internalType": "uint256",
          "name": "currentPrice",
          "type": "uint256"
        }
      ],
      "stateMutability": "view",
      "type": "function"
    },
    {
      "inputs": [
        {
          "internalType": "address",
          "name": "newOwner",
          "type": "address"
        }
      ],
      "name": "transferOwnership",
      "outputs": [],
      "stateMutability": "nonpayable",
      "type": "function"
    },
    {
      "inputs": [],
      "name": "updatePrice",
      "outputs": [],
      "stateMutability": "nonpayable",
      "type": "function"
    }
  ],
  "bytecode": "0x608060409080825234620002b557818162000d298038038091620000248285620002ba565b833981010312620002b5576200003a81620002f4565b906200004a6020809201620002f4565b610e106004908155600580556001600160a01b0393841693909184156200027d57169182156200023b5760018060a01b0319600093858286541617855581600154161760015533906002541617600255845193633fabe5a360e21b855260a0858481845afa948515620001a3578495620001e0575b5083851315620001ad579080839287519384809263313ce56760e01b82525afa908115620001a35784916200015f575b5060ff91501660120360ff81116200014c5760ff16604d81116200014c57600a0a92838102938185041490151715620001395750506006554260035551610a0a90816200031f8239f35b634e487b7160e01b825260119052602490fd5b634e487b7160e01b835260118252602483fd5b905081813d83116200019b575b620001788183620002ba565b8101031262000197575160ff81168103620001975760ff9038620000ef565b8280fd5b503d6200016c565b86513d86823e3d90fd5b855162461bcd60e51b8152808401839052600d60248201526c496e76616c696420707269636560981b6044820152606490fd5b90945060a0813d821162000232575b81620001fe60a09383620002ba565b810103126200022e57620002128162000309565b5062000225608083830151920162000309565b509338620000bf565b8380fd5b3d9150620001ef565b845162461bcd60e51b815291820152601560248201527f496e76616c6964206d61696e20636f6e74726163740000000000000000000000604482015260649150fd5b855162461bcd60e51b81528084018590526012602482015271125b9d985b1a59081c1c9a58d9481999595960721b6044820152606490fd5b600080fd5b601f909101601f19168101906001600160401b03821190821017620002de57604052565b634e487b7160e01b600052604160045260246000fd5b51906001600160a01b0382168203620002b557565b51906001600160501b0382168203620002b55756fe608060408181526004918236101561001657600080fd5b600092833560e01c9182630964ff26146106e157508163307e3db1146106c2578163330227bf146106275781633acaa0d7146105305781634e14a5831461044f57816355f9308414610397578163673a7e281461028b578163741bef1a146102635781638da5cb5b1461023a5781638e15f47314610216578163a8c954d8146101ea578163c8f33c91146101cb578163d270e7ab146101a2578163f2fde38b146100eb575063fb4c7e0b146100ca57600080fd5b346100e757816003193601126100e7576020906005549051908152f35b5080fd5b9190503461019e57602036600319011261019e576001600160a01b038235818116939084900361019a576002549182169261012784331461099c565b84156101655750506001600160a01b03191682176002557fb532073b38c83145e3e5135377a08bf9aab55bc0fd7c1179cd4fb995d2a5159c8380a380f35b906020606492519162461bcd60e51b8352820152600f60248201526e496e76616c6964206164647265737360881b6044820152fd5b8480fd5b8280fd5b5050346100e757816003193601126100e75760015490516001600160a01b039091168152602090f35b5050346100e757816003193601126100e7576020906003549051908152f35b8284346102135780600319360112610213575061020561092c565b825191151582526020820152f35b80fd5b5050346100e757816003193601126100e757602090610233610764565b9051908152f35b5050346100e757816003193601126100e75760025490516001600160a01b039091168152602090f35b5050346100e757816003193601126100e757905490516001600160a01b039091168152602090f35b90503461019e578260031936011261019e576102a561092c565b901561035c57600654600154909285916001600160a01b031690813b1561019e57836024849283895195869485936317d031a360e01b85528401525af180156103525761033a575b505060068190554260038190559251918252602082015260408101919091527f15819dd2fd9f6418b142e798d08a18d0bf06ea368f4480b7b0d3f75bd966bc489080606081015b0390a180f35b610343906106fc565b61034e5783386102ed565b8380fd5b85513d84823e3d90fd5b506020606492519162461bcd60e51b83528201526015602482015274155c19185d19481b9bdd081b9959591959081e595d605a1b6044820152fd5b90503461019e57602036600319011261019e578035906103c260018060a01b0360025416331461099c565b600182101580610444575b1561040c5750907f988395a292065bed3ac432a1c362f44bc7cf1d88bf5cc5c1bfba0e2ca627b12491600554908060055582519182526020820152a180f35b606490602084519162461bcd60e51b83528201526012602482015271496e76616c69642070657263656e7461676560701b6044820152fd5b5060328211156103cd565b8383346100e75760203660031901126100e75782359261047a60018060a01b0360025416331461099c565b61012c84106104f95762093a8084116104c357837f8aa7fbbc28f7fc5a70329710351253983cf8ff5dafe3127047ab479bb988aee593948254925582519182526020820152a180f35b6020606492519162461bcd60e51b83528201526011602482015270496e74657276616c20746f6f206c6f6e6760781b6044820152fd5b6020606492519162461bcd60e51b83528201526012602482015271125b9d195c9d985b081d1bdbc81cda1bdc9d60721b6044820152fd5b839150346100e757816003193601126100e7576002546001600160a01b03919061055d908316331461099c565b610565610764565b90600654926001541690813b1561019a57826024869283895195869485936317d031a360e01b85528401525af1801561061d576105e8575b506006819055426003819055935191825260208201526040810192909252907f15819dd2fd9f6418b142e798d08a18d0bf06ea368f4480b7b0d3f75bd966bc48908060608101610334565b7f15819dd2fd9f6418b142e798d08a18d0bf06ea368f4480b7b0d3f75bd966bc4893610616610334926106fc565b935061059d565b85513d86823e3d90fd5b828434610213578060031936011261021357610641610764565b91600654918284116000146106b25761065a83856108e9565b905b60648202918083046064149015171561069f5750608094508261067e9161090c565b9061068761092c565b50928151948552602085015283015215156060820152f35b634e487b7160e01b815260118652602490fd5b6106bc84846108e9565b9061065c565b5050346100e757816003193601126100e7576020906006549051908152f35b84913461019e578260031936011261019e5760209250548152f35b67ffffffffffffffff811161071057604052565b634e487b7160e01b600052604160045260246000fd5b90601f8019910116810190811067ffffffffffffffff82111761071057604052565b519069ffffffffffffffffffff8216820361075f57565b600080fd5b60008054604051633fabe5a360e21b815291906004906001600160a01b031660a0848381845afa93841561085c57839461089b575b508284131561086757602082916040519283809263313ce56760e01b82525afa801561085c578390610820575b60ff91501660120360ff811161080d5760ff16604d811161080d57600a0a928381029381850414901517156107fa57505090565b634e487b7160e01b825260119052602490fd5b634e487b7160e01b835260118252602483fd5b506020813d8211610854575b8161083960209383610726565b8101031261019e575160ff8116810361019e5760ff906107c6565b3d915061082c565b6040513d85823e3d90fd5b60405162461bcd60e51b8152602081840152600d60248201526c496e76616c696420707269636560981b6044820152606490fd5b90935060a0813d82116108e1575b816108b660a09383610726565b8101031261019e576108c781610748565b506108d9608060208301519201610748565b509238610799565b3d91506108a9565b919082039182116108f657565b634e487b7160e01b600052601160045260246000fd5b8115610916570490565b634e487b7160e01b600052601260045260246000fd5b610934610764565b9060035460045481018091116108f657421061099657600654808311156109865761095f81846108e9565b905b6064820291808304606414901517156108f65761097d9161090c565b60055411159190565b61099083826108e9565b90610961565b60009190565b156109a357565b60405162461bcd60e51b81526020600482015260096024820152682737ba1037bbb732b960b91b6044820152606490fdfea26469706673582212203094da7e1b658099f577a6fa717dbd3e42aae66979602cc37ef57df03b8ac61e64736f6c63430008140033",
  "linkReferences": {},
  "deployedLinkReferences": {}
}