{
  "_format": "hh-sol-artifact-1",
  "contractName": "FiveDollarRideRoyalty",
  "sourceName": "contracts/FiveDollarRideRoyalty.sol",
  "abi": [
    {
      "inputs": [
        {
          "internalType": "address",
          "name": "_owner",
          "type": "address"
        },
        {
          "internalType": "uint256",
          "name": "_defaultRefer",
          "type": "uint256"
        },
        {
          "internalType": "address",
          "name": "_usdtToken",
          "type": "address"
        }
      ],
      "stateMutability": "nonpayable",
      "type": "constructor"
    },
    {
      "anonymous": false,
      "inputs": [
        {
          "indexed": true,
          "internalType": "address",
          "name": "fiveDollarRideContract",
          "type": "address"
        },
        {
          "indexed": false,
          "internalType": "uint256",
          "name": "timestamp",
          "type": "uint256"
        }
      ],
      "name": "FiveDollarRideContractSet",
      "type": "event"
    },
    {
      "anonymous": false,
      "inputs": [
        {
          "indexed": true,
          "internalType": "address",
          "name": "previousOwner",
          "type": "address"
        },
        {
          "indexed": true,
          "internalType": "address",
          "name": "newOwner",
          "type": "address"
        }
      ],
      "name": "OwnershipTransferred",
      "type": "event"
    },
    {
      "anonymous": false,
      "inputs": [
        {
          "indexed": true,
          "internalType": "uint256",
          "name": "userId",
          "type": "uint256"
        },
        {
          "indexed": true,
          "internalType": "uint256",
          "name": "tier",
          "type": "uint256"
        },
        {
          "indexed": false,
          "internalType": "uint256",
          "name": "amount",
          "type": "uint256"
        },
        {
          "indexed": false,
          "internalType": "uint256",
          "name": "timestamp",
          "type": "uint256"
        }
      ],
      "name": "RoyaltyClaimed",
      "type": "event"
    },
    {
      "anonymous": false,
      "inputs": [
        {
          "indexed": false,
          "internalType": "string",
          "name": "configType",
          "type": "string"
        },
        {
          "indexed": false,
          "internalType": "uint256",
          "name": "timestamp",
          "type": "uint256"
        }
      ],
      "name": "RoyaltyConfigUpdated",
      "type": "event"
    },
    {
      "anonymous": false,
      "inputs": [
        {
          "indexed": true,
          "internalType": "uint256",
          "name": "tier",
          "type": "uint256"
        },
        {
          "indexed": false,
          "internalType": "uint256",
          "name": "amount",
          "type": "uint256"
        },
        {
          "indexed": false,
          "internalType": "uint256",
          "name": "userCount",
          "type": "uint256"
        },
        {
          "indexed": false,
          "internalType": "uint256",
          "name": "timestamp",
          "type": "uint256"
        }
      ],
      "name": "RoyaltyDistributed",
      "type": "event"
    },
    {
      "anonymous": false,
      "inputs": [
        {
          "indexed": true,
          "internalType": "uint256",
          "name": "tier",
          "type": "uint256"
        },
        {
          "indexed": false,
          "internalType": "uint256",
          "name": "newLevel",
          "type": "uint256"
        },
        {
          "indexed": false,
          "internalType": "uint256",
          "name": "newDirects",
          "type": "uint256"
        },
        {
          "indexed": false,
          "internalType": "uint256",
          "name": "timestamp",
          "type": "uint256"
        }
      ],
      "name": "RoyaltyRequirementsUpdated",
      "type": "event"
    },
    {
      "anonymous": false,
      "inputs": [
        {
          "indexed": true,
          "internalType": "uint256",
          "name": "userId",
          "type": "uint256"
        },
        {
          "indexed": true,
          "internalType": "uint256",
          "name": "tier",
          "type": "uint256"
        },
        {
          "indexed": false,
          "internalType": "uint256",
          "name": "timestamp",
          "type": "uint256"
        }
      ],
      "name": "UserRegistered",
      "type": "event"
    },
    {
      "inputs": [],
      "name": "USDT",
      "outputs": [
        {
          "internalType": "contract IERC20",
          "name": "",
          "type": "address"
        }
      ],
      "stateMutability": "view",
      "type": "function"
    },
    {
      "inputs": [
        {
          "internalType": "uint256",
          "name": "_id",
          "type": "uint256"
        },
        {
          "internalType": "uint256",
          "name": "_tier",
          "type": "uint256"
        },
        {
          "internalType": "uint256",
          "name": "rootUserId",
          "type": "uint256"
        },
        {
          "internalType": "uint256",
          "name": "userTotalIncome",
          "type": "uint256"
        },
        {
          "internalType": "uint256",
          "name": "userTotalDeposit",
          "type": "uint256"
        },
        {
          "internalType": "address",
          "name": "userAccount",
          "type": "address"
        }
      ],
      "name": "claimRoyalty",
      "outputs": [
        {
          "internalType": "uint256",
          "name": "",
          "type": "uint256"
        }
      ],
      "stateMutability": "nonpayable",
      "type": "function"
    },
    {
      "inputs": [
        {
          "internalType": "uint256",
          "name": "_tier",
          "type": "uint256"
        }
      ],
      "name": "distRoyalty",
      "outputs": [],
      "stateMutability": "nonpayable",
      "type": "function"
    },
    {
      "inputs": [],
      "name": "fiveDollarRideContract",
      "outputs": [
        {
          "internalType": "address",
          "name": "",
          "type": "address"
        }
      ],
      "stateMutability": "view",
      "type": "function"
    },
    {
      "inputs": [],
      "name": "getBalance",
      "outputs": [
        {
          "internalType": "uint256",
          "name": "",
          "type": "uint256"
        }
      ],
      "stateMutability": "view",
      "type": "function"
    },
    {
      "inputs": [],
      "name": "getContractConfig",
      "outputs": [
        {
          "internalType": "uint256",
          "name": "_royaltyMaxPercent",
          "type": "uint256"
        },
        {
          "internalType": "uint256",
          "name": "_royaltyDistTime",
          "type": "uint256"
        },
        {
          "internalType": "uint256",
          "name": "_startTime",
          "type": "uint256"
        },
        {
          "internalType": "uint256",
          "name": "_currentDay",
          "type": "uint256"
        }
      ],
      "stateMutability": "view",
      "type": "function"
    },
    {
      "inputs": [],
      "name": "getCurRoyaltyDay",
      "outputs": [
        {
          "internalType": "uint256",
          "name": "",
          "type": "uint256"
        }
      ],
      "stateMutability": "view",
      "type": "function"
    },
    {
      "inputs": [],
      "name": "getNextDistTime",
      "outputs": [
        {
          "internalType": "uint256",
          "name": "",
          "type": "uint256"
        }
      ],
      "stateMutability": "view",
      "type": "function"
    },
    {
      "inputs": [],
      "name": "getRoyaltyLevels",
      "outputs": [
        {
          "internalType": "uint256[4]",
          "name": "",
          "type": "uint256[4]"
        }
      ],
      "stateMutability": "view",
      "type": "function"
    },
    {
      "inputs": [],
      "name": "getRoyaltyPercents",
      "outputs": [
        {
          "internalType": "uint256[4]",
          "name": "",
          "type": "uint256[4]"
        }
      ],
      "stateMutability": "view",
      "type": "function"
    },
    {
      "inputs": [
        {
          "internalType": "uint256",
          "name": "_tier",
          "type": "uint256"
        }
      ],
      "name": "getTierStats",
      "outputs": [
        {
          "internalType": "uint256",
          "name": "userCount",
          "type": "uint256"
        },
        {
          "internalType": "uint256",
          "name": "distributionRound",
          "type": "uint256"
        },
        {
          "internalType": "uint256",
          "name": "pendingUserCount",
          "type": "uint256"
        }
      ],
      "stateMutability": "view",
      "type": "function"
    },
    {
      "inputs": [
        {
          "internalType": "uint256",
          "name": "_userId",
          "type": "uint256"
        },
        {
          "internalType": "uint256",
          "name": "_tier",
          "type": "uint256"
        }
      ],
      "name": "getUserRoyaltyData",
      "outputs": [
        {
          "internalType": "uint256",
          "name": "claimableAmount",
          "type": "uint256"
        },
        {
          "internalType": "bool",
          "name": "active",
          "type": "bool"
        },
        {
          "internalType": "uint256",
          "name": "lastClaimedDay",
          "type": "uint256"
        }
      ],
      "stateMutability": "view",
      "type": "function"
    },
    {
      "inputs": [
        {
          "internalType": "uint256",
          "name": "_userId",
          "type": "uint256"
        },
        {
          "internalType": "uint256",
          "name": "_tier",
          "type": "uint256"
        }
      ],
      "name": "isEligibleForRoyalty",
      "outputs": [
        {
          "internalType": "bool",
          "name": "",
          "type": "bool"
        }
      ],
      "stateMutability": "view",
      "type": "function"
    },
    {
      "inputs": [],
      "name": "owner",
      "outputs": [
        {
          "internalType": "address",
          "name": "",
          "type": "address"
        }
      ],
      "stateMutability": "view",
      "type": "function"
    },
    {
      "inputs": [
        {
          "internalType": "uint256",
          "name": "_userId",
          "type": "uint256"
        },
        {
          "internalType": "uint256",
          "name": "_level",
          "type": "uint256"
        },
        {
          "internalType": "uint256",
          "name": "_directCount",
          "type": "uint256"
        }
      ],
      "name": "registerUser",
      "outputs": [],
      "stateMutability": "nonpayable",
      "type": "function"
    },
    {
      "inputs": [
        {
          "internalType": "uint256",
          "name": "",
          "type": "uint256"
        },
        {
          "internalType": "uint256",
          "name": "",
          "type": "uint256"
        }
      ],
      "name": "royaltyActive",
      "outputs": [
        {
          "internalType": "bool",
          "name": "",
          "type": "bool"
        }
      ],
      "stateMutability": "view",
      "type": "function"
    },
    {
      "inputs": [
        {
          "internalType": "uint256",
          "name": "",
          "type": "uint256"
        }
      ],
      "name": "royaltyData",
      "outputs": [
        {
          "internalType": "uint256",
          "name": "userCount",
          "type": "uint256"
        },
        {
          "internalType": "uint256",
          "name": "index",
          "type": "uint256"
        },
        {
          "internalType": "uint256",
          "name": "distributionRound",
          "type": "uint256"
        },
        {
          "internalType": "uint256",
          "name": "dividendPerShare",
          "type": "uint256"
        }
      ],
      "stateMutability": "view",
      "type": "function"
    },
    {
      "inputs": [
        {
          "internalType": "uint256",
          "name": "",
          "type": "uint256"
        }
      ],
      "name": "royaltyDirects",
      "outputs": [
        {
          "internalType": "uint256",
          "name": "",
          "type": "uint256"
        }
      ],
      "stateMutability": "view",
      "type": "function"
    },
    {
      "inputs": [],
      "name": "royaltyDistTime",
      "outputs": [
        {
          "internalType": "uint256",
          "name": "",
          "type": "uint256"
        }
      ],
      "stateMutability": "view",
      "type": "function"
    },
    {
      "inputs": [
        {
          "internalType": "uint256",
          "name": "",
          "type": "uint256"
        }
      ],
      "name": "royaltyIncome",
      "outputs": [
        {
          "internalType": "uint256",
          "name": "",
          "type": "uint256"
        }
      ],
      "stateMutability": "view",
      "type": "function"
    },
    {
      "inputs": [
        {
          "internalType": "uint256",
          "name": "",
          "type": "uint256"
        }
      ],
      "name": "royaltyLevels",
      "outputs": [
        {
          "internalType": "uint256",
          "name": "",
          "type": "uint256"
        }
      ],
      "stateMutability": "view",
      "type": "function"
    },
    {
      "inputs": [],
      "name": "royaltyMaxPercent",
      "outputs": [
        {
          "internalType": "uint256",
          "name": "",
          "type": "uint256"
        }
      ],
      "stateMutability": "view",
      "type": "function"
    },
    {
      "inputs": [
        {
          "internalType": "uint256",
          "name": "",
          "type": "uint256"
        }
      ],
      "name": "royaltyPercent",
      "outputs": [
        {
          "internalType": "uint256",
          "name": "",
          "type": "uint256"
        }
      ],
      "stateMutability": "view",
      "type": "function"
    },
    {
      "inputs": [
        {
          "internalType": "address",
          "name": "_fiveDollarRideContract",
          "type": "address"
        }
      ],
      "name": "setFiveDollarRideContract",
      "outputs": [],
      "stateMutability": "nonpayable",
      "type": "function"
    },
    {
      "inputs": [
        {
          "internalType": "uint256[4]",
          "name": "_required",
          "type": "uint256[4]"
        }
      ],
      "name": "setRoyaltyDirectRequired",
      "outputs": [],
      "stateMutability": "nonpayable",
      "type": "function"
    },
    {
      "inputs": [
        {
          "internalType": "uint256[4]",
          "name": "_levels",
          "type": "uint256[4]"
        }
      ],
      "name": "setRoyaltyLevels",
      "outputs": [],
      "stateMutability": "nonpayable",
      "type": "function"
    },
    {
      "inputs": [
        {
          "internalType": "uint256[4]",
          "name": "_newPercents",
          "type": "uint256[4]"
        }
      ],
      "name": "setRoyaltyPercents",
      "outputs": [],
      "stateMutability": "nonpayable",
      "type": "function"
    },
    {
      "inputs": [
        {
          "internalType": "uint256",
          "name": "_tier",
          "type": "uint256"
        },
        {
          "internalType": "uint256",
          "name": "_requiredLevel",
          "type": "uint256"
        },
        {
          "internalType": "uint256",
          "name": "_requiredDirects",
          "type": "uint256"
        }
      ],
      "name": "setRoyaltyRequirements",
      "outputs": [],
      "stateMutability": "nonpayable",
      "type": "function"
    },
    {
      "inputs": [],
      "name": "startTime",
      "outputs": [
        {
          "internalType": "uint256",
          "name": "",
          "type": "uint256"
        }
      ],
      "stateMutability": "view",
      "type": "function"
    },
    {
      "inputs": [
        {
          "internalType": "address",
          "name": "_newOwner",
          "type": "address"
        }
      ],
      "name": "transferOwnership",
      "outputs": [],
      "stateMutability": "nonpayable",
      "type": "function"
    }
  ],
  "bytecode": "0x60e0346200025457601f62001fb338819003918201601f191683019291906001600160401b0384118385101762000259578160609284926040968752833981010312620002545762000051816200028f565b9060209162000066848484015193016200028f565b6001916000838155620000786200026f565b60288152601e87820152601488820152600a606082015284825b600481106200023d57505050620000a86200026f565b90600a8252600b918288820152600c89820152600d606082015285825b600481106200022657509050620000db6200026f565b8281528289820152828a820152826060820152915b6004811062000210575050506001600160a01b039182169290508215620001dc5716938415620001aa575081546001600160a01b03191617905560c0524260a05260805251611d0e9081620002a582396080518181816101f101528181610aeb01528181610e570152818161112d01526119ce015260a051818181610195015281816106f401528181610dc2015281816116090152818161176601526118de015260c0518181816107ca0152818161080f01526108330152f35b60649086519062461bcd60e51b82526004820152600c60248201526b125b9d985b1a59081554d11560a21b6044820152fd5b865162461bcd60e51b815260048101879052600d60248201526c24b73b30b634b21037bbb732b960991b6044820152606490fd5b8860ff84511693019281850155018590620000f0565b8960ff8451169301928160070155018690620000c5565b8860ff845116930192816003015501859062000092565b600080fd5b634e487b7160e01b600052604160045260246000fd5b60405190608082016001600160401b038111838210176200025957604052565b51906001600160a01b0382168203620002545756fe608080604052600436101561001357600080fd5b60003560e01c90816312065fe0146119a55750806314c597ef146119795780632d41b6771461192357806330aaece0146118c557806335a18ed5146117bb578063545afbea1461174f5780635c520ade146117235780635d0fd7ed146116d55780636107e3e5146116a957806364289b691461162c57806378e97925146115f157806381d7441c146115425780638da5cb5b14611519578063976a6056146114ed578063b136b347146113d3578063b2430a0a146113b5578063b718543d14611237578063b7bb35c614611178578063c40ac2851461115c578063c54e44eb14611117578063c5719864146110ee578063c7403e1d14610cd0578063cbff971814610c64578063cde0acc214610788578063cf1d455014610722578063d739c1a3146106d8578063f0d3b3fa146106a0578063f2fde38b14610629578063f464c4731461052c5763fe3fd8fc1461016957600080fd5b346104e5576020806003193601126104e557600435600481109161018c83611c0f565b620151806101ba7f000000000000000000000000000000000000000000000000000000000000000042611c59565b0482600052600f9081835260026040600020015410156104fd576040516370a0823160e01b815230600482015260249190838184817f00000000000000000000000000000000000000000000000000000000000000006001600160a01b03165afa9081156104f1576000916104bf575b5084600052601484526040600020548082116000146104b55761024c91611c59565b945b156104a057600394848601549081810291818304149015171561048b5760649004928315610448578460005260148152604060002061028e858254611c02565b9055846000528181526001808060406000200154905b61039c575b50508460005281815260406000205492831561036957670de0b6b3a7640000850290670de0b6b3a763ffff1986830401610355575061031b8487987f47b6546148fa5d96118443cd143cf54cecb624fb20c2e3a0306833ee0fffcbde9860005285855260406000200192048254611c02565b9055856000525260026040600020016103348154611c4a565b9055604080519283526020830191909152429082015280606081015b0390a2005b634e487b7160e01b60009081526011600452fd5b916064926040519262461bcd60e51b845260048401528201526e4e6f2061637469766520757365727360881b6044820152fd5b866000526010808452604060002060008052845260406000205482101561044257829161043c9189600052855260406000206000805285526103e2816040600020611cc0565b9054908b1b1c60005260118552604060002089600052855260406000208360ff19825416179055858552604060002061041b8154611c4a565b905588600052858552826040600020016104358154611c4a565b9055611c4a565b906102a4565b506102a9565b606490601a846040519262461bcd60e51b845260048401528201527f4e6f206e65772066756e647320746f20646973747269627574650000000000006044820152fd5b82634e487b7160e01b60005260116004526000fd5b50634e487b7160e01b60009081526032600452fd5b505060009461024e565b90508381813d83116104ea575b6104d68183611a8d565b810103126104e557513861022a565b600080fd5b503d6104cc565b6040513d6000823e3d90fd5b60405162461bcd60e51b8152600481018390526007602482015266139bdd081e595d60ca1b6044820152606490fd5b346104e55761053a36611aaf565b600161055060018060a01b038254163314611bb9565b815191606461058161057661056b6020968786015190611c02565b604085015190611c02565b606084015190611c02565b036105f25760005b600481106105e0577f46f817573c78556397089602c285016640599a0418ecd4b80b655a84eddb780f6080856040519060408252600b60408301526a70657263656e746167657360a81b60608301524290820152a1005b81516003820155908301908201610589565b60405162461bcd60e51b815260048101849052600f60248201526e4d75737420746f74616c203130302560881b6044820152606490fd5b346104e55760203660031901126104e557610642611b2c565b600154906001600160a01b038083169161065d338414611b42565b16809261066b821515611b7b565b6001600160a01b031916176001557f8be0079c531659141344cd1fd0a4f28419497f9722a3daafe3b4186f6b6457e0600080a3005b346104e5576106ae36611afc565b906000526011602052604060002090600052602052602060ff604060002054166040519015158152f35b346104e55760003660031901126104e5576020620151806107197f000000000000000000000000000000000000000000000000000000000000000042611c59565b04604051908152f35b346104e55760003660031901126104e557608060405161074181611a71565b36903760405160036000825b600482106107725761076e8461076281611a71565b60405191829182611a43565b0390f35b600160208192855481520193019101909161074d565b346104e55761079636611b12565b90916001916107a88360005414611c66565b6000805560018060a01b0360025416803314908115610c5b575b5015610c16577f00000000000000000000000000000000000000000000000000000000000000008203610992575b82936000935b610802575b6000859055005b6004841015938461098c577f00000000000000000000000000000000000000000000000000000000000000008414947f0000000000000000000000000000000000000000000000000000000000000000850361097a575b61096457859482826007015414908161095c575b506108815761087b90611c4a565b936107f6565b935050508060005260116020818152604060002084600052815260ff604060002054166107fb5760108152604060002060008052815260406000209182549268010000000000000000841015610946578361090191887f7ea3b4137f99965306207cf91f3a736f5ac70a96c71fe8efac2541e685072a1c96018155611cc0565b81549060031b9086821b91600019901b1916179055836000528152604060002084600052815260406000208560ff19825416179055604051428152a3818080806107fb565b634e487b7160e01b600052604160045260246000fd5b90508761086d565b634e487b7160e01b600052603260045260246000fd5b50600b81015483101594506000610859565b506107fb565b60005b600481106109a357506107f0565b82600052601160205260406000208160005260205260ff604060002054166109d4575b6109cf90611c4a565b610995565b600f602052600360406000200154836000526013602052604060002082600052602052604060002054808211610a61575b5050826000526011602052604060002081600052602052604060002060ff198154169055600f6020526040600020908154918215610a4b576000199092019091556109c6565b634e487b7160e01b600052601160045260246000fd5b610a74670de0b6b3a76400009183611c59565b048015610a055760025460405163fdc6118160e01b81526004810187905290602090829060249082906001600160a01b03165afa9081156104f157600091610bd1575b5060405163a9059cbb60e01b81526001600160a01b03909116600482015260248101829052906020828060448101038160007f00000000000000000000000000000000000000000000000000000000000000006001600160a01b03165af19283156104f15784938793600091610ba2575b50610b35575b5050610a05565b7fb64f1f8f03ee84ec0cfb24d1299d6ce9ef6d58ea0787053de092ec3f8b14255c916040918460005260136020528260002086600052602052826000205583600052601560205281600020610b8b828254611c02565b90558151908152426020820152a380838780610b2e565b610bc4915060203d602011610bca575b610bbc8183611a8d565b810190611ca8565b8a610b28565b503d610bb2565b90506020813d602011610c0e575b81610bec60209383611a8d565b810103126104e55751906001600160a01b03821682036104e557906020610ab7565b3d9150610bdf565b60405162461bcd60e51b815260206004820152601c60248201527f4f6e6c792046697665446f6c6c61725269646520636f6e7472616374000000006044820152606490fd5b905015856107c2565b346104e55760203660031901126104e557600435610c8460048210611c0f565b600052600f60205260406000206002815491015490601060205260406000206000805260205261076e604060002054604051938493846040919493926060820195825260208201520152565b346104e55760c03660031901126104e55760a4356084356024803590600435906001600160a01b038086168087036104e557610d10600160005414611c66565b60008055331480156110e1575b156110ae57610d2e60048510611c0f565b83600052602095600f8752600360406000200154846000526013885260406000208660005288526040600020549681881015611077576044358614159788610fff575b610d84670de0b6b3a76400009184611c59565b04978815610fc457610f5e575b508615610f2157610e5392889288928760005260138552604060002089600052855260406000205562015180610de77f000000000000000000000000000000000000000000000000000000000000000042611c59565b048760005260128552604060002089600052855260406000205586600052601584526040600020610e19848254611c02565b905560405163a9059cbb60e01b81526001600160a01b03909116600482015260248101929092529092839190829060009082906044820190565b03927f0000000000000000000000000000000000000000000000000000000000000000165af19081156104f157600091610f04575b5015610eca57507fb64f1f8f03ee84ec0cfb24d1299d6ce9ef6d58ea0787053de092ec3f8b14255c604080518581524287820152a36001600055604051908152f35b8460146064926040519262461bcd60e51b84526004840152820152731554d115081d1c985b9cd9995c8819985a5b195960621b6044820152fd5b610f1b9150863d8811610bca57610bbc8183611a8d565b86610e88565b60405162461bcd60e51b8152600481018990526016818601527510db185a5b48185b5bdd5b9d081d1bdbc81cdb585b1b60521b6044820152606490fd5b609681029080820460961490151715610faf57606490048560005260158952604060002054808211600014610fa657610f9691611c59565b80881115610d9157965088610d91565b50506000610f96565b84634e487b7160e01b60005260116004526000fd5b60405162461bcd60e51b8152600481018b9052601481880152734e6f20726f79616c747920617661696c61626c6560601b6044820152606490fd5b6096820282810460961483151715611062576064908860005260158c520460406000205410610d715760405162461bcd60e51b8152600481018b905260138188015272149bde585b1d1e4818d85c081c995858da1959606a1b6044820152606490fd5b86634e487b7160e01b60005260116004526000fd5b60405162461bcd60e51b8152600481018a90526010818701526f4e6f206e6577206469766964656e647360801b6044820152606490fd5b60405162461bcd60e51b815260206004820152600c818401526b155b985d5d1a1bdc9a5e995960a21b6044820152606490fd5b5080600254163314610d1d565b346104e55760003660031901126104e5576002546040516001600160a01b039091168152602090f35b346104e55760003660031901126104e5576040517f00000000000000000000000000000000000000000000000000000000000000006001600160a01b03168152602090f35b346104e55760003660031901126104e557602060405160968152f35b346104e55760203660031901126104e557611191611b2c565b6001546001600160a01b03906111aa9082163314611b42565b60025491818316611204571680916111c3821515611b7b565b6bffffffffffffffffffffffff60a01b16176002557fbc2fe8cdf650faaf618ee65b7e838a60884b2c8645ffaf1c7c11b5bece1de0be6020604051428152a2005b60405162461bcd60e51b815260206004820152600b60248201526a105b1c9958591e481cd95d60aa1b6044820152606490fd5b346104e55761124536611aaf565b60019061125c60018060a01b038354163314611b42565b60005b600481106112d8575060005b600481106112c4577f46f817573c78556397089602c285016640599a0418ecd4b80b655a84eddb780f608060405160408152600e60408201526d191a5c9958dd14995c5d5a5c995960921b6060820152426020820152a1005b82906020835193019281600b01550161126b565b6112e28183611bf1565b511515806113a0575b156113655780611304575b6112ff90611c4a565b61125f565b61130e8183611bf1565b516000198201828111610a4b576113259084611bf1565b5111156112f65760405162461bcd60e51b81526020600482015260116024820152704d75737420626520617363656e64696e6760781b6044820152606490fd5b60405162461bcd60e51b8152602060048201526013602482015272125b9d985b1a59081c995c5d5a5c995b595b9d606a1b6044820152606490fd5b5060646113ad8284611bf1565b5111156112eb565b346104e55760003660031901126104e5576020604051620151808152f35b346104e5576113e136611b12565b906113f760018060a01b03600154163314611bb9565b6004831061140481611c0f565b6001821015806114e2575b156114a857606483116114715715610964577f56fe451ac1b74a5ac0fb9b4bd4f7636d9b8e5c508440a01c50f4bc36541d3ce9918184600701558084600b01556103506040519283924291846040919493926060820195825260208201520152565b60405162461bcd60e51b815260206004820152600f60248201526e4d617820313030206469726563747360881b6044820152606490fd5b60405162461bcd60e51b81526020600482015260126024820152714c6576656c206d75737420626520312d313360701b6044820152606490fd5b50600d82111561140f565b346104e55760203660031901126104e55760043560048110156104e55760209060030154604051908152f35b346104e55760003660031901126104e5576001546040516001600160a01b039091168152602090f35b346104e557606061155236611afc565b90816000526020600f8152600360406000200154826000526013825260406000208460005282526040600020548082116000146115e75761159291611c59565b925b8260005260118252604060002081600052825260ff604060002054169260005260128252604060002090600052815260406000205491670de0b6b3a7640000604051940484521515908301526040820152f35b5050600092611594565b346104e55760003660031901126104e55760206040517f00000000000000000000000000000000000000000000000000000000000000008152f35b346104e55761163a36611afc565b9061164760048310611c0f565b8060005260209160118352604060002081600052835260ff604060002054169182611679575b50506040519015158152f35b909150600052601382526040600020906000528152604060002054600f825260036040600020015411828061166d565b346104e55760203660031901126104e55760043560048110156104e557602090600b0154604051908152f35b346104e55760203660031901126104e557600435600052600f602052608060406000208054906001810154906003600282015491015491604051938452602084015260408301526060820152f35b346104e55760203660031901126104e55760043560005260156020526020604060002054604051908152f35b346104e55760003660031901126104e557620151807f0000000000000000000000000000000000000000000000000000000000000000816117908242611c59565b0460018101809111610a4b5780830292830403610a4b576020916117b391611c02565b604051908152f35b346104e5576117c936611aaf565b6001906117e060018060a01b038354163314611b42565b60005b60048110611854575060005b60048110611840577f46f817573c78556397089602c285016640599a0418ecd4b80b655a84eddb780f60806040516040815260066040820152656c6576656c7360d01b6060820152426020820152a1005b8290602083519301928160070155016117ef565b8261185f8284611bf1565b511015806118b0575b1561187b5761187690611c4a565b6117e3565b60405162461bcd60e51b815260206004820152600d60248201526c125b9d985b1a59081b195d995b609a1b6044820152606490fd5b50600d6118bd8284611bf1565b511115611868565b346104e55760003660031901126104e5576080620151807f0000000000000000000000000000000000000000000000000000000000000000816119088242611c59565b04906040519260968452602084015260408301526060820152f35b346104e55760003660031901126104e557608060405161194281611a71565b36903760405160076000825b600482106119635761076e8461076281611a71565b600160208192855481520193019101909161194e565b346104e55760203660031901126104e55760043560048110156104e55760209060070154604051908152f35b346104e55760003660031901126104e5576370a0823160e01b81523060048201526020816024817f00000000000000000000000000000000000000000000000000000000000000006001600160a01b03165afa80156104f157600090611a11575b602090604051908152f35b506020813d8211611a3b575b81611a2a60209383611a8d565b810103126104e55760209051611a06565b3d9150611a1d565b6080810192916000915b60048310611a5a57505050565b600190825181526020809101920192019190611a4d565b6080810190811067ffffffffffffffff82111761094657604052565b90601f8019910116810190811067ffffffffffffffff82111761094657604052565b60806003198201126104e55780602312156104e55760405190611ad182611a71565b8160849182116104e5576004905b828210611aec5750505090565b8135815260209182019101611adf565b60409060031901126104e5576004359060243590565b60609060031901126104e557600435906024359060443590565b600435906001600160a01b03821682036104e557565b15611b4957565b60405162461bcd60e51b815260206004820152600a60248201526927b7363c9037bbb732b960b11b6044820152606490fd5b15611b8257565b60405162461bcd60e51b815260206004820152600f60248201526e496e76616c6964206164647265737360881b6044820152606490fd5b15611bc057565b60405162461bcd60e51b81526020600482015260096024820152682737ba1037bbb732b960b91b6044820152606490fd5b9060048110156109645760051b0190565b91908201809211610a4b57565b15611c1657565b60405162461bcd60e51b815260206004820152600c60248201526b24b73b30b634b2103a34b2b960a11b6044820152606490fd5b6000198114610a4b5760010190565b91908203918211610a4b57565b15611c6d57565b60405162461bcd60e51b81526020600482015260136024820152721499595b9d1c985b98de4819195d1958dd1959606a1b6044820152606490fd5b908160209103126104e5575180151581036104e55790565b8054821015610964576000526020600020019060009056fea26469706673582212204b56e211aa3680059f84cd87d161a0c4b30ddd7338075d57a6529ad3d7f288ba64736f6c63430008140033",
  "linkReferences": {},
  "deployedLinkReferences": {}
}