{
  "_format": "hh-sol-artifact-1",
  "contractName": "FiveDollarRide",
  "sourceName": "contracts/FiveDollarRide_USDT.sol",
  "abi": [
    {
      "inputs": [
        {
          "internalType": "address",
          "name": "_feeReceiver",
          "type": "address"
        },
        {
          "internalType": "address",
          "name": "_royalty",
          "type": "address"
        },
        {
          "internalType": "address",
          "name": "_rootUserAddress",
          "type": "address"
        },
        {
          "internalType": "uint256",
          "name": "_rootUserId",
          "type": "uint256"
        },
        {
          "internalType": "address",
          "name": "_usdtToken",
          "type": "address"
        }
      ],
      "stateMutability": "nonpayable",
      "type": "constructor"
    },
    {
      "anonymous": false,
      "inputs": [
        {
          "indexed": false,
          "internalType": "uint256",
          "name": "amount",
          "type": "uint256"
        },
        {
          "indexed": false,
          "internalType": "uint256",
          "name": "level",
          "type": "uint256"
        },
        {
          "indexed": false,
          "internalType": "uint256",
          "name": "timestamp",
          "type": "uint256"
        }
      ],
      "name": "AdminFeePaid",
      "type": "event"
    },
    {
      "anonymous": false,
      "inputs": [
        {
          "indexed": true,
          "internalType": "address",
          "name": "by",
          "type": "address"
        },
        {
          "indexed": false,
          "internalType": "uint256",
          "name": "timestamp",
          "type": "uint256"
        }
      ],
      "name": "ContractPaused",
      "type": "event"
    },
    {
      "anonymous": false,
      "inputs": [
        {
          "indexed": true,
          "internalType": "address",
          "name": "by",
          "type": "address"
        },
        {
          "indexed": false,
          "internalType": "uint256",
          "name": "timestamp",
          "type": "uint256"
        }
      ],
      "name": "ContractUnpaused",
      "type": "event"
    },
    {
      "anonymous": false,
      "inputs": [
        {
          "indexed": true,
          "internalType": "uint256",
          "name": "userId",
          "type": "uint256"
        },
        {
          "indexed": true,
          "internalType": "uint256",
          "name": "fromUser",
          "type": "uint256"
        },
        {
          "indexed": false,
          "internalType": "uint256",
          "name": "amount",
          "type": "uint256"
        },
        {
          "indexed": false,
          "internalType": "string",
          "name": "reason",
          "type": "string"
        },
        {
          "indexed": false,
          "internalType": "uint256",
          "name": "timestamp",
          "type": "uint256"
        }
      ],
      "name": "IncomeLost",
      "type": "event"
    },
    {
      "anonymous": false,
      "inputs": [
        {
          "indexed": true,
          "internalType": "uint8",
          "name": "level",
          "type": "uint8"
        },
        {
          "indexed": false,
          "internalType": "uint256",
          "name": "oldCost",
          "type": "uint256"
        },
        {
          "indexed": false,
          "internalType": "uint256",
          "name": "newCost",
          "type": "uint256"
        },
        {
          "indexed": false,
          "internalType": "uint256",
          "name": "timestamp",
          "type": "uint256"
        }
      ],
      "name": "LevelCostUpdated",
      "type": "event"
    },
    {
      "anonymous": false,
      "inputs": [
        {
          "indexed": true,
          "internalType": "uint256",
          "name": "fromUserId",
          "type": "uint256"
        },
        {
          "indexed": true,
          "internalType": "uint256",
          "name": "toUserId",
          "type": "uint256"
        },
        {
          "indexed": false,
          "internalType": "uint256",
          "name": "amount",
          "type": "uint256"
        },
        {
          "indexed": false,
          "internalType": "uint256",
          "name": "level",
          "type": "uint256"
        },
        {
          "indexed": false,
          "internalType": "uint256",
          "name": "layer",
          "type": "uint256"
        },
        {
          "indexed": false,
          "internalType": "bool",
          "name": "qualified",
          "type": "bool"
        },
        {
          "indexed": false,
          "internalType": "uint256",
          "name": "timestamp",
          "type": "uint256"
        }
      ],
      "name": "MatrixPayment",
      "type": "event"
    },
    {
      "anonymous": false,
      "inputs": [
        {
          "indexed": true,
          "internalType": "address",
          "name": "previousOwner",
          "type": "address"
        },
        {
          "indexed": false,
          "internalType": "uint256",
          "name": "timestamp",
          "type": "uint256"
        }
      ],
      "name": "OwnershipRenounced",
      "type": "event"
    },
    {
      "anonymous": false,
      "inputs": [
        {
          "indexed": true,
          "internalType": "address",
          "name": "previousOwner",
          "type": "address"
        },
        {
          "indexed": true,
          "internalType": "address",
          "name": "newOwner",
          "type": "address"
        }
      ],
      "name": "OwnershipTransferred",
      "type": "event"
    },
    {
      "anonymous": false,
      "inputs": [
        {
          "indexed": true,
          "internalType": "uint256",
          "name": "referrerId",
          "type": "uint256"
        },
        {
          "indexed": true,
          "internalType": "uint256",
          "name": "userId",
          "type": "uint256"
        },
        {
          "indexed": false,
          "internalType": "uint256",
          "name": "amount",
          "type": "uint256"
        },
        {
          "indexed": false,
          "internalType": "uint256",
          "name": "timestamp",
          "type": "uint256"
        }
      ],
      "name": "ReferralPayment",
      "type": "event"
    },
    {
      "anonymous": false,
      "inputs": [
        {
          "indexed": false,
          "internalType": "uint256",
          "name": "amount",
          "type": "uint256"
        },
        {
          "indexed": false,
          "internalType": "string",
          "name": "source",
          "type": "string"
        },
        {
          "indexed": false,
          "internalType": "uint256",
          "name": "timestamp",
          "type": "uint256"
        }
      ],
      "name": "RootFallbackIncome",
      "type": "event"
    },
    {
      "anonymous": false,
      "inputs": [
        {
          "indexed": true,
          "internalType": "uint256",
          "name": "rootUserId",
          "type": "uint256"
        },
        {
          "indexed": true,
          "internalType": "address",
          "name": "rootAddress",
          "type": "address"
        },
        {
          "indexed": false,
          "internalType": "uint256",
          "name": "timestamp",
          "type": "uint256"
        }
      ],
      "name": "RootUserCreated",
      "type": "event"
    },
    {
      "anonymous": false,
      "inputs": [
        {
          "indexed": true,
          "internalType": "uint256",
          "name": "userId",
          "type": "uint256"
        },
        {
          "indexed": true,
          "internalType": "uint256",
          "name": "royaltyLevel",
          "type": "uint256"
        },
        {
          "indexed": false,
          "internalType": "uint256",
          "name": "amount",
          "type": "uint256"
        },
        {
          "indexed": false,
          "internalType": "uint256",
          "name": "timestamp",
          "type": "uint256"
        }
      ],
      "name": "RoyaltyClaimed",
      "type": "event"
    },
    {
      "anonymous": false,
      "inputs": [
        {
          "indexed": true,
          "internalType": "uint256",
          "name": "userId",
          "type": "uint256"
        },
        {
          "indexed": false,
          "internalType": "uint256",
          "name": "amount",
          "type": "uint256"
        },
        {
          "indexed": false,
          "internalType": "uint256",
          "name": "timestamp",
          "type": "uint256"
        }
      ],
      "name": "RoyaltyPoolFunded",
      "type": "event"
    },
    {
      "anonymous": false,
      "inputs": [
        {
          "indexed": true,
          "internalType": "uint256",
          "name": "sponsorId",
          "type": "uint256"
        },
        {
          "indexed": true,
          "internalType": "uint256",
          "name": "fromUserId",
          "type": "uint256"
        },
        {
          "indexed": false,
          "internalType": "uint256",
          "name": "amount",
          "type": "uint256"
        },
        {
          "indexed": false,
          "internalType": "uint256",
          "name": "level",
          "type": "uint256"
        },
        {
          "indexed": false,
          "internalType": "uint256",
          "name": "timestamp",
          "type": "uint256"
        }
      ],
      "name": "SponsorCommissionPaid",
      "type": "event"
    },
    {
      "anonymous": false,
      "inputs": [
        {
          "indexed": true,
          "internalType": "uint256",
          "name": "userId",
          "type": "uint256"
        },
        {
          "indexed": true,
          "internalType": "address",
          "name": "account",
          "type": "address"
        },
        {
          "indexed": true,
          "internalType": "uint256",
          "name": "referrer",
          "type": "uint256"
        },
        {
          "indexed": false,
          "internalType": "uint256",
          "name": "timestamp",
          "type": "uint256"
        }
      ],
      "name": "UserRegistered",
      "type": "event"
    },
    {
      "anonymous": false,
      "inputs": [
        {
          "indexed": true,
          "internalType": "uint256",
          "name": "userId",
          "type": "uint256"
        },
        {
          "indexed": false,
          "internalType": "uint256",
          "name": "newLevel",
          "type": "uint256"
        },
        {
          "indexed": false,
          "internalType": "uint256",
          "name": "amount",
          "type": "uint256"
        },
        {
          "indexed": false,
          "internalType": "uint256",
          "name": "timestamp",
          "type": "uint256"
        }
      ],
      "name": "UserUpgraded",
      "type": "event"
    },
    {
      "inputs": [],
      "name": "ADMIN_FEE_PERCENT",
      "outputs": [
        {
          "internalType": "uint8",
          "name": "",
          "type": "uint8"
        }
      ],
      "stateMutability": "view",
      "type": "function"
    },
    {
      "inputs": [],
      "name": "DIRECT_REQUIRED",
      "outputs": [
        {
          "internalType": "uint256",
          "name": "",
          "type": "uint256"
        }
      ],
      "stateMutability": "view",
      "type": "function"
    },
    {
      "inputs": [],
      "name": "FEE_RECEIVER",
      "outputs": [
        {
          "internalType": "address",
          "name": "",
          "type": "address"
        }
      ],
      "stateMutability": "view",
      "type": "function"
    },
    {
      "inputs": [],
      "name": "MAX_INCOME_LAYER",
      "outputs": [
        {
          "internalType": "uint8",
          "name": "",
          "type": "uint8"
        }
      ],
      "stateMutability": "view",
      "type": "function"
    },
    {
      "inputs": [],
      "name": "MAX_LEVELS",
      "outputs": [
        {
          "internalType": "uint8",
          "name": "",
          "type": "uint8"
        }
      ],
      "stateMutability": "view",
      "type": "function"
    },
    {
      "inputs": [],
      "name": "MAX_PLACEMENT_DEPTH",
      "outputs": [
        {
          "internalType": "uint8",
          "name": "",
          "type": "uint8"
        }
      ],
      "stateMutability": "view",
      "type": "function"
    },
    {
      "inputs": [],
      "name": "MAX_REFERRAL_LAYERS",
      "outputs": [
        {
          "internalType": "uint256",
          "name": "",
          "type": "uint256"
        }
      ],
      "stateMutability": "view",
      "type": "function"
    },
    {
      "inputs": [],
      "name": "ROYALTY_ADDR",
      "outputs": [
        {
          "internalType": "contract IRoyalty",
          "name": "",
          "type": "address"
        }
      ],
      "stateMutability": "view",
      "type": "function"
    },
    {
      "inputs": [],
      "name": "ROYALTY_FUND_PERCENT",
      "outputs": [
        {
          "internalType": "uint8",
          "name": "",
          "type": "uint8"
        }
      ],
      "stateMutability": "view",
      "type": "function"
    },
    {
      "inputs": [],
      "name": "START_TIME",
      "outputs": [
        {
          "internalType": "uint256",
          "name": "",
          "type": "uint256"
        }
      ],
      "stateMutability": "view",
      "type": "function"
    },
    {
      "inputs": [],
      "name": "USDT",
      "outputs": [
        {
          "internalType": "contract IERC20",
          "name": "",
          "type": "address"
        }
      ],
      "stateMutability": "view",
      "type": "function"
    },
    {
      "inputs": [
        {
          "internalType": "uint256",
          "name": "_tier",
          "type": "uint256"
        }
      ],
      "name": "claimMyRoyalty",
      "outputs": [],
      "stateMutability": "nonpayable",
      "type": "function"
    },
    {
      "inputs": [
        {
          "internalType": "uint256",
          "name": "_id",
          "type": "uint256"
        },
        {
          "internalType": "uint256",
          "name": "_royaltyLvl",
          "type": "uint256"
        }
      ],
      "name": "claimRoyalty",
      "outputs": [],
      "stateMutability": "nonpayable",
      "type": "function"
    },
    {
      "inputs": [],
      "name": "getAllLevelCosts",
      "outputs": [
        {
          "internalType": "uint256[13]",
          "name": "costs",
          "type": "uint256[13]"
        },
        {
          "internalType": "uint256[13]",
          "name": "fees",
          "type": "uint256[13]"
        },
        {
          "internalType": "uint256[13]",
          "name": "totals",
          "type": "uint256[13]"
        }
      ],
      "stateMutability": "view",
      "type": "function"
    },
    {
      "inputs": [],
      "name": "getContractBalance",
      "outputs": [
        {
          "internalType": "uint256",
          "name": "",
          "type": "uint256"
        }
      ],
      "stateMutability": "view",
      "type": "function"
    },
    {
      "inputs": [
        {
          "internalType": "uint256",
          "name": "_level",
          "type": "uint256"
        }
      ],
      "name": "getLevelCost",
      "outputs": [
        {
          "internalType": "uint256",
          "name": "cost",
          "type": "uint256"
        },
        {
          "internalType": "uint256",
          "name": "adminFee",
          "type": "uint256"
        },
        {
          "internalType": "uint256",
          "name": "total",
          "type": "uint256"
        }
      ],
      "stateMutability": "view",
      "type": "function"
    },
    {
      "inputs": [],
      "name": "getMyIncomeBreakdown",
      "outputs": [
        {
          "internalType": "uint256",
          "name": "totalDeposit",
          "type": "uint256"
        },
        {
          "internalType": "uint256",
          "name": "totalIncome",
          "type": "uint256"
        },
        {
          "internalType": "uint256",
          "name": "referralIncome",
          "type": "uint256"
        },
        {
          "internalType": "uint256",
          "name": "sponsorIncome",
          "type": "uint256"
        },
        {
          "internalType": "uint256",
          "name": "levelIncome",
          "type": "uint256"
        },
        {
          "internalType": "uint256",
          "name": "lostAmount",
          "type": "uint256"
        }
      ],
      "stateMutability": "view",
      "type": "function"
    },
    {
      "inputs": [],
      "name": "getMyInfo",
      "outputs": [
        {
          "internalType": "uint256",
          "name": "userId",
          "type": "uint256"
        },
        {
          "internalType": "uint256",
          "name": "level",
          "type": "uint256"
        },
        {
          "internalType": "uint256",
          "name": "team",
          "type": "uint256"
        },
        {
          "internalType": "uint256",
          "name": "directTeam",
          "type": "uint256"
        },
        {
          "internalType": "uint256",
          "name": "totalIncome",
          "type": "uint256"
        },
        {
          "internalType": "uint256",
          "name": "referrerId",
          "type": "uint256"
        },
        {
          "internalType": "uint256",
          "name": "uplineId",
          "type": "uint256"
        },
        {
          "internalType": "uint256",
          "name": "registrationTime",
          "type": "uint256"
        }
      ],
      "stateMutability": "view",
      "type": "function"
    },
    {
      "inputs": [],
      "name": "getMyRoyaltyStatus",
      "outputs": [
        {
          "internalType": "uint256[4]",
          "name": "claimableAmounts",
          "type": "uint256[4]"
        },
        {
          "internalType": "bool[4]",
          "name": "isEligible",
          "type": "bool[4]"
        },
        {
          "internalType": "bool[4]",
          "name": "hasClaimed",
          "type": "bool[4]"
        }
      ],
      "stateMutability": "view",
      "type": "function"
    },
    {
      "inputs": [],
      "name": "getMyTeam",
      "outputs": [
        {
          "internalType": "uint256",
          "name": "teamSize",
          "type": "uint256"
        },
        {
          "internalType": "uint256",
          "name": "directCount",
          "type": "uint256"
        },
        {
          "internalType": "uint256[]",
          "name": "directReferralIds",
          "type": "uint256[]"
        },
        {
          "internalType": "address[]",
          "name": "directReferralAddresses",
          "type": "address[]"
        }
      ],
      "stateMutability": "view",
      "type": "function"
    },
    {
      "inputs": [],
      "name": "getRegistrationCost",
      "outputs": [
        {
          "internalType": "uint256",
          "name": "cost",
          "type": "uint256"
        },
        {
          "internalType": "uint256",
          "name": "levelCost",
          "type": "uint256"
        },
        {
          "internalType": "uint256",
          "name": "adminFee",
          "type": "uint256"
        }
      ],
      "stateMutability": "view",
      "type": "function"
    },
    {
      "inputs": [
        {
          "internalType": "uint256",
          "name": "_levels",
          "type": "uint256"
        }
      ],
      "name": "getUpgradeCost",
      "outputs": [
        {
          "internalType": "uint256",
          "name": "totalCost",
          "type": "uint256"
        },
        {
          "internalType": "uint256[]",
          "name": "breakdown",
          "type": "uint256[]"
        }
      ],
      "stateMutability": "view",
      "type": "function"
    },
    {
      "inputs": [
        {
          "internalType": "address",
          "name": "_userAddress",
          "type": "address"
        },
        {
          "internalType": "uint256",
          "name": "_levels",
          "type": "uint256"
        }
      ],
      "name": "getUpgradeCostFor",
      "outputs": [
        {
          "internalType": "uint256",
          "name": "totalCost",
          "type": "uint256"
        },
        {
          "internalType": "uint256[]",
          "name": "breakdown",
          "type": "uint256[]"
        }
      ],
      "stateMutability": "view",
      "type": "function"
    },
    {
      "inputs": [
        {
          "internalType": "uint256",
          "name": "_userId",
          "type": "uint256"
        }
      ],
      "name": "getUserAccount",
      "outputs": [
        {
          "internalType": "address",
          "name": "",
          "type": "address"
        }
      ],
      "stateMutability": "view",
      "type": "function"
    },
    {
      "inputs": [
        {
          "internalType": "address",
          "name": "",
          "type": "address"
        }
      ],
      "name": "id",
      "outputs": [
        {
          "internalType": "uint256",
          "name": "",
          "type": "uint256"
        }
      ],
      "stateMutability": "view",
      "type": "function"
    },
    {
      "inputs": [],
      "name": "isAutonomous",
      "outputs": [
        {
          "internalType": "bool",
          "name": "",
          "type": "bool"
        }
      ],
      "stateMutability": "view",
      "type": "function"
    },
    {
      "inputs": [
        {
          "internalType": "address",
          "name": "_address",
          "type": "address"
        }
      ],
      "name": "isRegistered",
      "outputs": [
        {
          "internalType": "bool",
          "name": "",
          "type": "bool"
        }
      ],
      "stateMutability": "view",
      "type": "function"
    },
    {
      "inputs": [
        {
          "internalType": "uint256",
          "name": "",
          "type": "uint256"
        }
      ],
      "name": "levelCosts",
      "outputs": [
        {
          "internalType": "uint256",
          "name": "",
          "type": "uint256"
        }
      ],
      "stateMutability": "view",
      "type": "function"
    },
    {
      "inputs": [
        {
          "internalType": "uint256",
          "name": "",
          "type": "uint256"
        }
      ],
      "name": "lostIncome",
      "outputs": [
        {
          "internalType": "uint256",
          "name": "",
          "type": "uint256"
        }
      ],
      "stateMutability": "view",
      "type": "function"
    },
    {
      "inputs": [
        {
          "internalType": "uint256",
          "name": "",
          "type": "uint256"
        }
      ],
      "name": "matrixDirect",
      "outputs": [
        {
          "internalType": "uint256",
          "name": "",
          "type": "uint256"
        }
      ],
      "stateMutability": "view",
      "type": "function"
    },
    {
      "inputs": [],
      "name": "owner",
      "outputs": [
        {
          "internalType": "address",
          "name": "",
          "type": "address"
        }
      ],
      "stateMutability": "view",
      "type": "function"
    },
    {
      "inputs": [],
      "name": "pauseContract",
      "outputs": [],
      "stateMutability": "nonpayable",
      "type": "function"
    },
    {
      "inputs": [],
      "name": "paused",
      "outputs": [
        {
          "internalType": "bool",
          "name": "",
          "type": "bool"
        }
      ],
      "stateMutability": "view",
      "type": "function"
    },
    {
      "inputs": [
        {
          "internalType": "uint256",
          "name": "_ref",
          "type": "uint256"
        },
        {
          "internalType": "address",
          "name": "_newAcc",
          "type": "address"
        }
      ],
      "name": "register",
      "outputs": [],
      "stateMutability": "nonpayable",
      "type": "function"
    },
    {
      "inputs": [
        {
          "internalType": "address",
          "name": "_referrerAddress",
          "type": "address"
        }
      ],
      "name": "registerMe",
      "outputs": [],
      "stateMutability": "nonpayable",
      "type": "function"
    },
    {
      "inputs": [],
      "name": "renounceOwnership",
      "outputs": [],
      "stateMutability": "nonpayable",
      "type": "function"
    },
    {
      "inputs": [
        {
          "internalType": "uint8",
          "name": "_level",
          "type": "uint8"
        },
        {
          "internalType": "uint256",
          "name": "_newCost",
          "type": "uint256"
        }
      ],
      "name": "setLevelCost",
      "outputs": [],
      "stateMutability": "nonpayable",
      "type": "function"
    },
    {
      "inputs": [
        {
          "internalType": "uint256",
          "name": "",
          "type": "uint256"
        },
        {
          "internalType": "uint256",
          "name": "",
          "type": "uint256"
        },
        {
          "internalType": "uint256",
          "name": "",
          "type": "uint256"
        }
      ],
      "name": "teams",
      "outputs": [
        {
          "internalType": "uint256",
          "name": "",
          "type": "uint256"
        }
      ],
      "stateMutability": "view",
      "type": "function"
    },
    {
      "inputs": [],
      "name": "totalUsers",
      "outputs": [
        {
          "internalType": "uint256",
          "name": "",
          "type": "uint256"
        }
      ],
      "stateMutability": "view",
      "type": "function"
    },
    {
      "inputs": [
        {
          "internalType": "address",
          "name": "newOwner",
          "type": "address"
        }
      ],
      "name": "transferOwnership",
      "outputs": [],
      "stateMutability": "nonpayable",
      "type": "function"
    },
    {
      "inputs": [],
      "name": "unpauseContract",
      "outputs": [],
      "stateMutability": "nonpayable",
      "type": "function"
    },
    {
      "inputs": [
        {
          "internalType": "uint256",
          "name": "_id",
          "type": "uint256"
        },
        {
          "internalType": "uint256",
          "name": "_lvls",
          "type": "uint256"
        }
      ],
      "name": "upgrade",
      "outputs": [],
      "stateMutability": "nonpayable",
      "type": "function"
    },
    {
      "inputs": [
        {
          "internalType": "uint256",
          "name": "_levels",
          "type": "uint256"
        }
      ],
      "name": "upgradeMe",
      "outputs": [],
      "stateMutability": "nonpayable",
      "type": "function"
    },
    {
      "inputs": [
        {
          "internalType": "uint256",
          "name": "",
          "type": "uint256"
        }
      ],
      "name": "userIncome",
      "outputs": [
        {
          "internalType": "uint256",
          "name": "totalDeposit",
          "type": "uint256"
        },
        {
          "internalType": "uint256",
          "name": "totalIncome",
          "type": "uint256"
        },
        {
          "internalType": "uint256",
          "name": "referralIncome",
          "type": "uint256"
        },
        {
          "internalType": "uint256",
          "name": "sponsorIncome",
          "type": "uint256"
        },
        {
          "internalType": "uint256",
          "name": "levelIncome",
          "type": "uint256"
        }
      ],
      "stateMutability": "view",
      "type": "function"
    },
    {
      "inputs": [
        {
          "internalType": "uint256",
          "name": "",
          "type": "uint256"
        }
      ],
      "name": "userInfo",
      "outputs": [
        {
          "internalType": "bool",
          "name": "exists",
          "type": "bool"
        },
        {
          "internalType": "address",
          "name": "account",
          "type": "address"
        },
        {
          "internalType": "uint256",
          "name": "referrer",
          "type": "uint256"
        },
        {
          "internalType": "uint256",
          "name": "upline",
          "type": "uint256"
        },
        {
          "internalType": "uint256",
          "name": "level",
          "type": "uint256"
        },
        {
          "internalType": "uint256",
          "name": "directTeam",
          "type": "uint256"
        },
        {
          "internalType": "uint256",
          "name": "team",
          "type": "uint256"
        },
        {
          "internalType": "uint256",
          "name": "registrationTime",
          "type": "uint256"
        }
      ],
      "stateMutability": "view",
      "type": "function"
    }
  ],
  "bytecode": "0x61012034620008225760006001600160401b03601f6200502b38819003918201601f191685019190838311868410176200080e5790808693926040938452843960a0928391810103126200080a57620000588562000851565b916020916200006983880162000851565b6200007682890162000851565b936060890151946200008c6080809b0162000851565b928451986101a08a018a811082821117620007f6578652674563918244f400008a52678ac7230489e80000848b01526801158e460913d00000868b015268022b1c8c1227a0000060608b01526804563918244f4000008c8b01526808ac7230489e800000878b015260c097681158e460913d000000898c015260e0996822b1c8c1227a0000008b8d01526101009b684563918244f40000008d820152688ac7230489e80000006101208201526901158e460913d000000061014082015269022b1c8c1227a00000006101608201526904563918244f400000006101808201528d5b600d8110620007dc5750506001600e819055946001600160a01b03948286161562000798578516908115620007625785169788156200071e578315620006da578516918215620006a7578f528a52818b52428c528852600d80546001600160a01b031916331790556010819055858c5260118552868c208190558651808c0183811182821017620006935790868f8f969594938d918f8c8f938f9081528c88528688019182528b818901938a855260608a01958b87528a0196600d88528a01978289528a019d8e528901974289528a825260129052209651151590875490600160a81b6101009003905160081b169160ff1690600160a81b60019003191617178655518a86015551600285015551600384015551956004968784015551600583015551906006015587519189830190838210908211176200068057908e8e86938b528085528885018181528b808701928084526060880194818652880195818752815260138c522095518655518886015551600285015551600384015551910155885192601854680100000000000000008110156200066d57818101806018558110156200065a578490868e60188152200155600f5580885116803b15620005fe578b809160648951809481936366f0566160e11b998a845289840152600a60248401528160448401525af180156200061e5762000644575b50808851168951813b1562000628578c91606483928a5194859384928a845289840152600b60248401528160448401525af180156200061e57908c916200062c575b5050808851168951813b1562000628578c91606483928a5194859384928a845289840152600c60248401528160448401525af180156200061e57908c9162000602575b505087511691885192803b15620005fe578b929183606492895196879586948552840152600d60248401528160448401525af18015620005f457908991620005d8575b50507fccf9e170264f78923037f9d4f09c5eb756fcb20f871f02dcedb45f500d77b9888651918451428152a3519433907f8be0079c531659141344cd1fd0a4f28419497f9722a3daafe3b4186f6b6457e08180a36147c4958662000867873951858181610c3b015281816112f5015281816126fc0152613761015251848181610423015281816105c4015281816107d801528181610b7201528181610c750152818161115f015281816113d50152818161156a01528181611bb601528181611f11015281816120b4015281816122b70152818161263301528181612736015281816133ce015281816135480152818161369e015281816137a0015281816139670152613d3e0152518381816106280152818161068b01528181610b30015281816116e101528181611910015281816121180152818161217b015281816125f10152818161366201526146150152518281816107750152818161082701528181610865015281816112a201528181611502015281816118b701528181611b33015281816122540152818161230601528181612344015281816134e40152613cdd015251816110630152f35b620005e39062000827565b620005f05787386200042e565b8780fd5b84513d8b823e3d90fd5b8b80fd5b6200060d9062000827565b6200061a578a38620003eb565b8a80fd5b87513d8e823e3d90fd5b8c80fd5b620006379062000827565b6200061a578a38620003a8565b62000652909b919b62000827565b993862000366565b634e487b7160e01b8d526032845260248dfd5b634e487b7160e01b8d526041845260248dfd5b634e487b7160e01b8e526041855260248efd5b634e487b7160e01b8e52604160045260248efd5b895162461bcd60e51b815260048101899052600c60248201526b125b9d985b1a59081554d11560a21b6044820152606490fd5b895162461bcd60e51b815260048101899052601460248201527f496e76616c696420726f6f7420757365722049440000000000000000000000006044820152606490fd5b895162461bcd60e51b815260048101899052601460248201527f496e76616c696420726f6f7420616464726573730000000000000000000000006044820152606490fd5b895162461bcd60e51b815260048101899052600f60248201526e496e76616c696420726f79616c747960881b6044820152606490fd5b895162461bcd60e51b815260048101899052601460248201527f496e76616c6964206665652072656365697665720000000000000000000000006044820152606490fd5b81516001600160501b03168155908701906001016200016d565b634e487b7160e01b8c52604160045260248cfd5b8380fd5b634e487b7160e01b85526041600452602485fd5b600080fd5b6001600160401b0381116200083b57604052565b634e487b7160e01b600052604160045260246000fd5b51906001600160a01b0382168203620008225756fe6080604052600436101561001257600080fd5b60003560e01c806321d178fb14612a175780632233a830146129eb5780632b6e4da01461298c5780632d8ae54914612941578063439766ce14612898578063451450ec14611e485780634a429d1214611e085780634bf96a8814611c4757806351d70bc414611d835780635aabf7f114611d2e5780635c975abb14611d085780635d7d634214611ca45780636266a38014611c4c5780636702c7bf14611c47578063697d242814611c2b5780636f9fb98a14611b8a5780636fa6e58a14611ab7578063715018a614611a555780637daa10ce14611a075780637e06a01f146119de578063806d73be1461182457806388afbe3e146117f85780638955defb146117be5780638da5cb5b146117955780639c8c3e80146117105780639d720652146116cb578063a7476dcf146116af578063aafb980014611693578063b33712c5146115f3578063bfca1cd014611324578063bff1f9e1146115d5578063c3c5a54714611599578063c54e44eb14611554578063d0ac259614611329578063d3d50d9514611324578063d3e78e4d146112df578063dbbdf08314611086578063ddaa26ad1461104b578063e6bb42d814610f5d578063f12c860a14610e68578063f28d3d5e14610e3e578063f2fde38b14610dc8578063fb2ddd701461034b578063fdc61181146103145763ff329e7c1461020b57600080fd5b3461030f57602036600319011261030f576004353360005260118060205260406000205461023a8115156132be565b6000526012602052600360406000200154610261600d61025a8584612ede565b11156131f0565b61026a8361413b565b926000926000925b82841061029b5785856102976040519283928352604060208401526040830190612d51565b0390f35b909192936102a98583612ede565b60001981019081116102fa576102f2916102da6102c86102ec93613161565b60646102d382612ec8565b0490612ede565b90816102e6898b61416d565b52612ede565b94613075565b929190610272565b83634e487b7160e01b60005260045260246000fd5b600080fd5b3461030f57602036600319011261030f576004356000526012602052602060018060a01b0360406000205460081c16604051908152f35b3461030f57602036600319011261030f5761036a6001600e5414612dc9565b6000600e5561038160ff600d5460a01c1615612e0b565b33600052601160205260406000205461039b8115156132be565b8060005260126020526103c060406000205460018060a01b039060081c1633146131b5565b8060005260126020526103e2600d61025a600435600360406000200154612ede565b6000805b6004358110610d7c57506040516323b872dd60e01b8152336004820152306024820152604481019190915260208160648160006001600160a01b037f0000000000000000000000000000000000000000000000000000000000000000165af1801561076757600090610d41575b61045d9150612fb5565b60005b6004358110610470576001600e55005b81600052601260205261048b81600360406000200154612ede565b806000198101116109c7576104a39060001901613161565b9060646104af83612ec8565b0483600052601260205260036040600020016104cb8154613075565b905583600052601360205260406000206104e6848254612ede565b905580610c24575b5060646104fa83612ec8565b0480610b21575b61050b83856138a6565b84600052601260205260036040600020015491826000198101116109c75761053291613230565b908460005260126020526002604060002001549060009160005b600d811080610b18575b15610b10578160005260126020526040600020600019840160038201541180610b01575b15610a175750600082815260126020908152604080832054905163a9059cbb60e01b81526001600160a01b0360089290921c821660048201526024810189905292839160449183917f0000000000000000000000000000000000000000000000000000000000000000165af1908115610767576000916109dd575b50610932575b5050505b1580610929575b610773575b5060008381526012602052604090206003810154600490910154907f00000000000000000000000000000000000000000000000000000000000000006001600160a01b03163b1561030f576040516366f0566160e11b81526004810186905260248101919091526044810191909152600081606481836001600160a01b037f0000000000000000000000000000000000000000000000000000000000000000165af18015610767576107539385927f430828e9e608608c6f34402a3bbf7ccff1cd71ac750c401a12c72e4578350f9692610758575b50826000526012602052600360406000200154906107166040519283924291846040919493926060820195825260208201520152565b0390a282600052601260205261074e6003604060002001546040519061073b82612f15565b8582526020820152426040820152613084565b613075565b610460565b61076190612eeb565b866106e0565b6040513d6000823e3d90fd5b7f0000000000000000000000000000000000000000000000000000000000000000600090815260126020908152604080832054905163a9059cbb60e01b81526001600160a01b0360089290921c821660048201526024810185905292839160449183917f0000000000000000000000000000000000000000000000000000000000000000165af1908115610767576000916108d7575b5060008051602061472f8339815191529161082560a092613863565b7f000000000000000000000000000000000000000000000000000000000000000060005260136020526004604060002001610861828254612ede565b90557f00000000000000000000000000000000000000000000000000000000000000006000526013602052600160406000200161089f828254612ede565b9055604051908152600d60608060208401528201526c6d61747269785f696e636f6d6560981b6080820152426040820152a18361060b565b90506020813d602011610921575b816108f260209383612f86565b8101031261030f5760008051602061472f8339815191529161082561091860a093612fa8565b92505091610809565b3d91506108e5565b50801515610606565b908092935060005260136020526004604060002001610952858254612ede565b90558160005260136020526001604060002001610970858254612ede565b90556001926001820182116109c757604080518681526000199290920160208301526001928301908201526060810191909152426080820152869060008051602061476f8339815191529060a090a38580806105fb565b634e487b7160e01b600052601160045260246000fd5b90506020813d602011610a0f575b816109f860209383612f86565b8101031261030f57610a0990612fa8565b896105f5565b3d91506109eb565b5495969590919060ff16610a48575b6000526012602052610a4060026040600020015491613075565b95949561054c565b6001820182116109c757808860008051602061476f83398151915260405180610a9942600189016000198b018d859094939260809260a0830196835260208301526040820152600060608201520152565b0390a387817f587d8f9cc4f7ae2f12f916b8ac03ac5414969dfaf447b84acbb1e2b171cb7eb260a0604051898152601860608060208401528201527709cdee840e2eac2d8d2ccd2cac840ccdee440dac2e8e4d2f60431b6080820152426040820152a3610a26565b5060026004820154101561057a565b5050506105ff565b50811515610556565b60405163a9059cbb60e01b81527f00000000000000000000000000000000000000000000000000000000000000006001600160a01b03166004820152602481018290526020818060448101038160007f00000000000000000000000000000000000000000000000000000000000000006001600160a01b03165af1801561076757600090610be9575b610bb4915061327c565b837fb74a7140ef81c80d0e213846b7b10b59f9c366b463e36e1f98bf00ef44c670b460408051848152426020820152a2610501565b506020813d602011610c1c575b81610c0360209383612f86565b8101031261030f57610c17610bb491612fa8565b610baa565b3d9150610bf6565b60405163a9059cbb60e01b81526001600160a01b037f0000000000000000000000000000000000000000000000000000000000000000166004820152602481018290526020818060448101038160007f00000000000000000000000000000000000000000000000000000000000000006001600160a01b03165af1801561076757600090610d06575b610cb7915061323d565b836000526012602052600360406000200154806000198101116109c75760408051928352600019919091016020830152429082015260008051602061474f83398151915290606090a1836104ee565b506020813d602011610d39575b81610d2060209383612f86565b8101031261030f57610d34610cb791612fa8565b610cad565b3d9150610d13565b506020813d602011610d74575b81610d5b60209383612f86565b8101031261030f57610d6f61045d91612fa8565b610453565b3d9150610d4e565b90826000526012602052610d9882600360406000200154612ede565b60001981019081116109c757610dc391610db76102c8610dbd93613161565b90612ede565b91613075565b6103e6565b3461030f57602036600319011261030f57610de1612d3b565b600d546001600160a01b0380821692610dfb3385146132fb565b168092610e09821515612e8a565b7f8be0079c531659141344cd1fd0a4f28419497f9722a3daafe3b4186f6b6457e0600080a36001600160a01b03191617600d55005b3461030f57600036600319011261030f57600d546040516001600160a01b03909116158152602090f35b3461030f57604036600319011261030f57610e81612d3b565b602480359160018060a01b031660005260119182602052604060002054610ea98115156132be565b600052601260205260036040600020015490610eca600d61025a8385612ede565b610ed38161413b565b936000936000935b838510610f005786866102976040519283928352604060208401526040830190612d51565b9091929394610f0f8683612ede565b6000198101908111610f4957610f4091610f2e6102c8610f3a93613161565b90816102e68a8c61416d565b95613075565b93929190610edb565b8385634e487b7160e01b6000526004526000fd5b3461030f57600036600319011261030f57604051610f7a81612f31565b6101a0908136823760405191610f8f83612f31565b8036843760405190610fa082612f31565b8036833760005b600d8110610fde575090610fd16104e094610fdc93610fc96040518097612da1565b850190612da1565b610340830190612da1565bf35b80610feb61104692613161565b610ff582876143e0565b52606461100b61100583886143e0565b51612ec8565b0461101682886143e0565b5261103661102482876143e0565b5161102f83896143e0565b5190612ede565b61104082866143e0565b52613075565b610fa7565b3461030f57600036600319011261030f5760206040517f00000000000000000000000000000000000000000000000000000000000000008152f35b3461030f57604036600319011261030f576001600160a01b0360243581811660043581830361030f576110bd6001600e5414612dc9565b6000600e556110d460ff600d5460a01c1615612e0b565b8082600052602091601183526110ef60406000205415612e49565b6110fa841515612e8a565b80159081156112c6575b5061129f575b6000549260008361115b606461111f88612ec8565b049861112b8a89612ede565b6040516323b872dd60e01b8152336004820152306024820152604481019190915293849283919082906064820190565b03927f0000000000000000000000000000000000000000000000000000000000000000165af1801561076757600090611269575b6111999150612fb5565b60105494600186018096116109c757611262966001956111d18580611208958b6010558760005260118a528b6040600020558b613f95565b6111da88612ff8565b6111e5600f54613075565b600f5587600052601386526040600020611200828254612ede565b905587613346565b6112128286614181565b61121b85614362565b847f19871a311455a6a311f1a6dcef0dc6478acccea5a81b0bafe39d188d098efaf384604051428152a46040519261125284612f15565b8352820152426040820152613084565b6001600e55005b508381813d8311611298575b61127f8183612f86565b8101031261030f5761129361119991612fa8565b61118f565b503d611275565b507f000000000000000000000000000000000000000000000000000000000000000061110a565b90506000526012825260ff604060002054161586611104565b3461030f57600036600319011261030f576040517f00000000000000000000000000000000000000000000000000000000000000006001600160a01b03168152602090f35b612d85565b3461030f5760208060031936011261030f57611343612d3b565b6113516001600e5414612dc9565b6000600e5561136860ff600d5460a01c1615612e0b565b6001600160a01b039081168061154157506000905b81336000526011845261139560406000205415612e49565b6113a0331515612e8a565b8015908115611528575b50611500575b600054926000816113d160646113c588612ec8565b049461112b8689612ede565b03927f0000000000000000000000000000000000000000000000000000000000000000165af18015610767576000906114ca575b61140f9150612fb5565b60105492600184018094116109c75761147e60019361126296866010553360005260118552866040600020556114478480338a613f95565b61145087612ff8565b61145b600f54613075565b600f5586600052601385526040600020611476828254612ede565b905586613346565b6114888185614181565b61149184614362565b604051428152847f19871a311455a6a311f1a6dcef0dc6478acccea5a81b0bafe39d188d098efaf3843393a46040519261125284612f15565b508181813d83116114f9575b6114e08183612f86565b8101031261030f576114f461140f91612fa8565b611405565b503d6114d6565b7f000000000000000000000000000000000000000000000000000000000000000091506113b0565b90506000526012835260ff6040600020541615846113aa565b600052601182526040600020549061137d565b3461030f57600036600319011261030f576040517f00000000000000000000000000000000000000000000000000000000000000006001600160a01b03168152602090f35b3461030f57602036600319011261030f576001600160a01b036115ba612d3b565b16600052601160205260206040600020541515604051908152f35b3461030f57600036600319011261030f576020600f54604051908152f35b3461030f57600036600319011261030f57600d5461161b336001600160a01b038316146132fb565b60ff8160a01c16156116615760ff60a01b1916600d5560405142815233907f107553d8191d85b405879cf752997865edd48d94e20bda4dd27223c94b31a7cc90602090a2005b60405162461bcd60e51b815260206004820152600a602482015269139bdd081c185d5cd95960b21b6044820152606490fd5b3461030f57600036600319011261030f57602060405160028152f35b3461030f57600036600319011261030f57602060405160648152f35b3461030f57600036600319011261030f576040517f00000000000000000000000000000000000000000000000000000000000000006001600160a01b03168152602090f35b3461030f57600036600319011261030f576117296144b4565b90929161174f604051948594855260209283860152608060408601526080850190612d51565b838103606085015281808451928381520193019160005b82811061177557505050500390f35b83516001600160a01b031685528695509381019392810192600101611766565b3461030f57600036600319011261030f57600d546040516001600160a01b039091168152602090f35b3461030f57602036600319011261030f576001600160a01b036117df612d3b565b1660005260116020526020604060002054604051908152f35b3461030f57602036600319011261030f5760043560005260156020526020604060002054604051908152f35b3461030f5761183236612cb1565b906118416001600e5414612dc9565b6000600e55801515806119c6575b61185890613177565b8060005260206012815260018060a01b0361187e8160406000205460081c1633146131b5565b6000838152601383526040808220600181015490546012865282842054925163c7403e1d60e01b815260048101889052602481018990527f000000000000000000000000000000000000000000000000000000000000000060448201526064810192909252608482015260089190911c83166001600160a01b031660a482015291839183919082908160c481015b03927f0000000000000000000000000000000000000000000000000000000000000000165af190811561076757600091611979575b506040907fb64f1f8f03ee84ec0cfb24d1299d6ce9ef6d58ea0787053de092ec3f8b14255c9282519182524290820152a36001600e55005b90508181813d83116119bf575b6119908183612f86565b8101031261030f57517fb64f1f8f03ee84ec0cfb24d1299d6ce9ef6d58ea0787053de092ec3f8b14255c611941565b503d611986565b5060008181526012602052604090205460ff1661184f565b3461030f57602036600319011261030f57600435600d81101561030f5760209054604051908152f35b3461030f57600036600319011261030f57610100611a236143f1565b95604095919594929451978852602088015260408701526060860152608085015260a084015260c083015260e0820152f35b3461030f57600036600319011261030f57600d546001600160a01b038116611a7e3382146132fb565b7f656ba3c6830b11142778bbcfaff90d2ecc89186277667c2ce8700e4697ddccc26020604051428152a26001600160a01b031916600d55005b3461030f5760208060031936011261030f5760043590611adb6001600e5414612dc9565b6000600e55336000526011815260406000205490611afa8215156132be565b6000828152601382526040808220600181015490546012855282842054925163c7403e1d60e01b815260048101879052602481018890527f00000000000000000000000000000000000000000000000000000000000000006044820152606481019290925260848201526001600160a01b0360089290921c821660a4820152918391839182908160c4810161190c565b3461030f57600036600319011261030f576040516370a0823160e01b81523060048201526020816024817f00000000000000000000000000000000000000000000000000000000000000006001600160a01b03165afa801561076757600090611bf9575b602090604051908152f35b506020813d8211611c23575b81611c1260209383612f86565b8101031261030f5760209051611bee565b3d9150611c05565b3461030f57600036600319011261030f57602060405160018152f35b612cc7565b3461030f57602036600319011261030f57600435600052601360205260a06040600020805490600181015490600281015460046003830154920154926040519485526020850152604084015260608301526080820152f35b3461030f57600036600319011261030f57611cbd6145c0565b91906040519182906000915b60048310611cf15761018085610fdc88611ce66080840189612d11565b610100830190612d11565b600190825181526020809101920192019190611cc9565b3461030f57600036600319011261030f57602060ff600d5460a01c166040519015158152f35b3461030f57606036600319011261030f57604435600435600052601460205260406000206024356000526020526040600020805482101561030f57602091611d7591612ce3565b90546040519160031b1c8152f35b3461030f57602036600319011261030f57600435600052601260205261010060406000208054906001810154906002810154600382015460048301549160066005850154940154946040519660ff81161515885260018060a01b039060081c16602088015260408701526060860152608085015260a084015260c083015260e0820152f35b3461030f57600036600319011261030f5760c0611e2361445c565b93604093919351958652602086015260408501526060840152608083015260a0820152f35b3461030f57611e5636612cb1565b611e646001600e5414612dc9565b6000600e55611e7b60ff600d5460a01c1615612e0b565b81151580612880575b611e8d90613177565b816000526012602052611eb260406000205460018060a01b039060081c1633146131b5565b816000526012602052611ed2600d61025a83600360406000200154612ede565b6000805b82811061283d57506040516323b872dd60e01b8152336004820152306024820152604481019190915260208160648160006001600160a01b037f0000000000000000000000000000000000000000000000000000000000000000165af1801561076757600090612802575b611f4b9150612fb5565b60005b818110611f5c576001600e55005b826000526012602052611f7781600360406000200154612ede565b806000198101116109c757611f8f9060001901613161565b906064611f9b83612ec8565b048460005260126020526003604060002001611fb78154613075565b90558460005260136020526040600020611fd2848254612ede565b9055806126e5575b506064611fe683612ec8565b04806125e2575b611ff783866138a6565b85600052601260205260036040600020015491826000198101116109c75761201e91613230565b90856000526012602052600260406000200154906000916000905b600d8210806125d9575b156125d15780600052601260205260406000206000198401600382015411806125c2575b156124e05750600081815260126020908152604080832054905163a9059cbb60e01b81526001600160a01b0360089290921c821660048201526024810189905293949392839160449183917f0000000000000000000000000000000000000000000000000000000000000000165af1908115610767576000916124a6575b50612411575b5050505b1580612408575b612252575b5060008481526012602052604090206003810154600490910154907f00000000000000000000000000000000000000000000000000000000000000006001600160a01b03163b1561030f576040516366f0566160e11b81526004810187905260248101919091526044810191909152600081606481836001600160a01b037f0000000000000000000000000000000000000000000000000000000000000000165af180156107675761223e9386927f430828e9e608608c6f34402a3bbf7ccff1cd71ac750c401a12c72e4578350f9692612243575b50826000526012602052600360406000200154906122066040519283924291846040919493926060820195825260208201520152565b0390a283600052601260205261074e6003604060002001546040519061222b82612f15565b8682526020820152426040820152613084565b611f4e565b61224c90612eeb565b876121d0565b7f0000000000000000000000000000000000000000000000000000000000000000600090815260126020908152604080832054905163a9059cbb60e01b81526001600160a01b0360089290921c821660048201526024810185905292839160449183917f0000000000000000000000000000000000000000000000000000000000000000165af1908115610767576000916123b6575b5060008051602061472f8339815191529161230460a092613863565b7f000000000000000000000000000000000000000000000000000000000000000060005260136020526004604060002001612340828254612ede565b90557f00000000000000000000000000000000000000000000000000000000000000006000526013602052600160406000200161237e828254612ede565b9055604051908152600d60608060208401528201526c6d61747269785f696e636f6d6560981b6080820152426040820152a1846120fb565b90506020813d602011612400575b816123d160209383612f86565b8101031261030f5760008051602061472f833981519152916123046123f760a093612fa8565b925050916122e8565b3d91506123c4565b508015156120f6565b908092935060005260136020526004604060002001612431858254612ede565b9055816000526013602052600160406000200161244f858254612ede565b90556001926001820182116109c757604080518681526000199290920160208301526001928301908201526060810191909152426080820152879060008051602061476f8339815191529060a090a38680806120eb565b90506020813d6020116124d8575b816124c160209383612f86565b8101031261030f576124d290612fa8565b8a6120e5565b3d91506124b4565b5460ff16612509575b600052601260205261250360026040600020015491613075565b90612039565b6001820182116109c757808960008051602061476f8339815191526040518061255a42600189016000198b018d859094939260809260a0830196835260208301526040820152600060608201520152565b0390a388817f587d8f9cc4f7ae2f12f916b8ac03ac5414969dfaf447b84acbb1e2b171cb7eb260a0604051898152601860608060208401528201527709cdee840e2eac2d8d2ccd2cac840ccdee440dac2e8e4d2f60431b6080820152426040820152a36124e9565b50600260048201541015612067565b5050506120ef565b50801515612043565b60405163a9059cbb60e01b81527f00000000000000000000000000000000000000000000000000000000000000006001600160a01b03166004820152602481018290526020818060448101038160007f00000000000000000000000000000000000000000000000000000000000000006001600160a01b03165af18015610767576000906126aa575b612675915061327c565b847fb74a7140ef81c80d0e213846b7b10b59f9c366b463e36e1f98bf00ef44c670b460408051848152426020820152a2611fed565b506020813d6020116126dd575b816126c460209383612f86565b8101031261030f576126d861267591612fa8565b61266b565b3d91506126b7565b60405163a9059cbb60e01b81526001600160a01b037f0000000000000000000000000000000000000000000000000000000000000000166004820152602481018290526020818060448101038160007f00000000000000000000000000000000000000000000000000000000000000006001600160a01b03165af18015610767576000906127c7575b612778915061323d565b846000526012602052600360406000200154806000198101116109c75760408051928352600019919091016020830152429082015260008051602061474f83398151915290606090a184611fda565b506020813d6020116127fa575b816127e160209383612f86565b8101031261030f576127f561277891612fa8565b61276e565b3d91506127d4565b506020813d602011612835575b8161281c60209383612f86565b8101031261030f57612830611f4b91612fa8565b611f41565b3d915061280f565b9083600052601260205261285982600360406000200154612ede565b806000198101116109c75761287b91610db76102c8610dbd9360001901613161565b611ed6565b5060008281526012602052604090205460ff16611e84565b3461030f57600036600319011261030f57600d546128c0336001600160a01b038316146132fb565b60ff8160a01c1661290b5760ff60a01b1916600160a01b17600d5560405142815233907f80170b5fcdd2bf1e0660ef4b8851f86685f64d41b1a19de1471947ece8725aac90602090a2005b60405162461bcd60e51b815260206004820152600e60248201526d105b1c9958591e481c185d5cd95960921b6044820152606490fd5b3461030f57600036600319011261030f57600054606461296082612ec8565b0461029761296e8284612ede565b91604051938493846040919493926060820195825260208201520152565b3461030f57602036600319011261030f576129b46004356129af600d8210613125565b613161565b60646129bf82612ec8565b04906102976129ce8383612ede565b604051938493846040919493926060820195825260208201520152565b3461030f57602036600319011261030f5760043560005260166020526020604060002054604051908152f35b3461030f57604036600319011261030f5760043560ff811680820361030f576024918235600d612a5160018060a01b0382541633146132fb565b612a5c818510613125565b8115612c7557670de0b6b3a76400008210612c385769152d02c7e14af68000008211612bf45783612b8a575b600c8410612aef575b821015612ada5781549181905560408051928352602083019190915242908201527f01160ded273713b62692b83f3f861bfef99579eaf0440d7a22d838a3d163922e90606090a2005b83634e487b7160e01b60005260326004526000fd5b612af883613334565b81811015612b75575482108015612b5c575b612a915760405162461bcd60e51b8152602060048201526021818701527f436f7374206d757374206265206c657373207468616e206e657874206c6576656044820152601b60fa1b6064820152608490fd5b50612b6683613334565b81811015612b75575415612b0a565b85634e487b7160e01b60005260326004526000fd5b600019840160ff8111612bdf5781811015612b7557548211612a885760405162461bcd60e51b81526020600482015260128187015271436f7374206d75737420696e63726561736560701b6044820152606490fd5b85634e487b7160e01b60005260116004526000fd5b60405162461bcd60e51b815260206004820152601c818701527f4d6178696d756d20636f7374206973203130302c3030302055534454000000006044820152606490fd5b60405162461bcd60e51b81526020600482015260168187015275135a5b9a5b5d5b4818dbdcdd081a5cc80c481554d11560521b6044820152606490fd5b60405162461bcd60e51b81526020600482015260158187015274436f7374206d75737420626520706f73697469766560581b6044820152606490fd5b604090600319011261030f576004359060243590565b3461030f57600036600319011261030f576020604051600d8152f35b8054821015612cfb5760005260206000200190600090565b634e487b7160e01b600052603260045260246000fd5b6000915b60048310612d2257505050565b6001908251151581526020809101920192019190612d15565b600435906001600160a01b038216820361030f57565b90815180825260208080930193019160005b828110612d71575050505090565b835185529381019392810192600101612d63565b3461030f57600036600319011261030f57602060405160058152f35b6000915b600d8310612db257505050565b600190825181526020809101920192019190612da5565b15612dd057565b60405162461bcd60e51b81526020600482015260136024820152721499595b9d1c985b98de4819195d1958dd1959606a1b6044820152606490fd5b15612e1257565b60405162461bcd60e51b815260206004820152600f60248201526e10dbdb9d1c9858dd081c185d5cd959608a1b6044820152606490fd5b15612e5057565b60405162461bcd60e51b8152602060048201526012602482015271105b1c9958591e481c9959da5cdd195c995960721b6044820152606490fd5b15612e9157565b60405162461bcd60e51b815260206004820152600f60248201526e496e76616c6964206164647265737360881b6044820152606490fd5b906005820291808304600514901517156109c757565b919082018092116109c757565b67ffffffffffffffff8111612eff57604052565b634e487b7160e01b600052604160045260246000fd5b6060810190811067ffffffffffffffff821117612eff57604052565b6101a0810190811067ffffffffffffffff821117612eff57604052565b6020810190811067ffffffffffffffff821117612eff57604052565b6080810190811067ffffffffffffffff821117612eff57604052565b90601f8019910116810190811067ffffffffffffffff821117612eff57604052565b5190811515820361030f57565b15612fbc57565b60405162461bcd60e51b81526020600482015260146024820152731554d115081d1c985b9cd9995c8819985a5b195960621b6044820152606490fd5b601854600160401b811015612eff576001810180601855811015612cfb5760186000527fb13d2d76d1f4b7be834882e410b3e3a8afaf69f83600ae24db354391d2378d2e0155565b8054600160401b811015612eff5761305d91600182018155612ce3565b819291549060031b91821b91600019901b1916179055565b60001981146109c75760010190565b601954600160401b811015612eff576001810180601955811015612cfb57604060037f944998273e477b495144fb8794c914197f3ccb46be2900f4698fd0ef743c969792601960005202928051847f944998273e477b495144fb8794c914197f3ccb46be2900f4698fd0ef743c9695015560208101517f944998273e477b495144fb8794c914197f3ccb46be2900f4698fd0ef743c96968501550151910155565b1561312c57565b60405162461bcd60e51b815260206004820152600d60248201526c125b9d985b1a59081b195d995b609a1b6044820152606490fd5b600d811061316e81613125565b15612cfb575490565b1561317e57565b60405162461bcd60e51b815260206004820152600f60248201526e125b9d985b1a59081d5cd95c881251608a1b6044820152606490fd5b156131bc57565b60405162461bcd60e51b815260206004820152600c60248201526b155b985d5d1a1bdc9a5e995960a21b6044820152606490fd5b156131f757565b60405162461bcd60e51b8152602060048201526011602482015270115e18d959591cc81b585e081b195d995b607a1b6044820152606490fd5b919082039182116109c757565b1561324457565b60405162461bcd60e51b815260206004820152601060248201526f10591b5a5b881999594819985a5b195960821b6044820152606490fd5b1561328357565b60405162461bcd60e51b8152602060048201526013602482015272149bde585b1d1e48199d5b990819985a5b1959606a1b6044820152606490fd5b156132c557565b60405162461bcd60e51b815260206004820152600e60248201526d139bdd081c9959da5cdd195c995960921b6044820152606490fd5b1561330257565b60405162461bcd60e51b815260206004820152600a60248201526927b7363c9037bbb732b960b11b6044820152606490fd5b60ff60019116019060ff82116109c757565b918061374a575b50606461335982612ec8565b048061364b575b600083815260206012815261337e6040936001858520015495613230565b9184151580613637575b156134e2578481526012825283812054845163a9059cbb60e01b81526001600160a01b0360089290921c82166004820152602481018590529083908290604490829086907f0000000000000000000000000000000000000000000000000000000000000000165af19081156134d857829161349f575b5015613469579060018483877f7f31b11e95a87830bd41893a2c8bb6991e584f4e5082cedeeffd2b1ca1bb76c59796955260138452600282822001613444868254612ede565b905587815260138452200161345a838254612ede565b905582519182524290820152a3565b835162461bcd60e51b815260048101839052600f60248201526e149959995c9c985b0819985a5b1959608a1b6044820152606490fd5b90508281813d83116134d1575b6134b68183612f86565b810103126134cd576134c790612fa8565b386133fe565b5080fd5b503d6134ac565b85513d84823e3d90fd5b7f00000000000000000000000000000000000000000000000000000000000000008082526012835284822054855163a9059cbb60e01b81526001600160a01b0360089290921c8216600482015260248101869052919650839082908185816044810103927f0000000000000000000000000000000000000000000000000000000000000000165af19081156134d8578291613602575b50156135be579060018483877f7f31b11e95a87830bd41893a2c8bb6991e584f4e5082cedeeffd2b1ca1bb76c59796955260138452600282822001613444868254612ede565b835162461bcd60e51b815260048101839052601760248201527f44656661756c7420726566657272616c206661696c65640000000000000000006044820152606490fd5b90508281813d8311613630575b6136198183612f86565b810103126134cd5761362a90612fa8565b38613578565b503d61360f565b508481526012825260ff8482205416613388565b60405163a9059cbb60e01b81526001600160a01b037f00000000000000000000000000000000000000000000000000000000000000008116600483015260248201839052602090829060449082906000907f0000000000000000000000000000000000000000000000000000000000000000165af180156107675760009061370d575b6136d8915061327c565b827fb74a7140ef81c80d0e213846b7b10b59f9c366b463e36e1f98bf00ef44c670b460408051848152426020820152a2613360565b6020823d8211613742575b8161372560209383612f86565b8101031261373f575061373a6136d891612fa8565b6136ce565b80fd5b3d9150613718565b60405163a9059cbb60e01b81526001600160a01b037f00000000000000000000000000000000000000000000000000000000000000008116600483015260248201839052600091906020908290604490829086907f0000000000000000000000000000000000000000000000000000000000000000165af1908115613858578291613805575b50916060916137ed60008051602061474f8339815191529461323d565b6040519182526020820152426040820152a13861334d565b90506020813d8211613850575b8161381f60209383612f86565b810103126134cd57916060916137ed61384660008051602061474f83398151915295612fa8565b92945050916137d0565b3d9150613812565b6040513d84823e3d90fd5b1561386a57565b60405162461bcd60e51b8152602060048201526014602482015273149bdbdd0819985b1b189858dac819985a5b195960621b6044820152606490fd5b908160005260129182602052600160406000200154916000906101f4918115828481020484148117156109c7576000955b60ff8716600d811080613e61575b15613cab576138f48883613f18565b9061ffff6139018a613e6a565b169182870292878404148517156109c75780613c9e575b15613a955750600082815260208a8152604080832054905163a9059cbb60e01b81526001600160a01b0360089290921c82166004820152612710909404602485018190529392839160449183917f0000000000000000000000000000000000000000000000000000000000000000165af18015610767578891600091613a59575b506139c8575b50505b600052866020526001604060002001549560ff8091169081146109c757600101956138d7565b90937f38a882dd38cf7baf663586c9181108323f083cc8ac7cf5287586a0d56a71f9146060613a33878694856000526013806020526003604060002001613a10848254612ede565b9055866000526020526001604060002001613a2c838254612ede565b9055612ede565b9660ff613a3f8d613334565b604051928352166020820152426040820152a3388661399f565b9150506020813d602011613a8d575b81613a7560209383612f86565b8101031261030f57613a878891612fa8565b38613999565b3d9150613a68565b9061271090049081613aa9575b50506139a2565b826000528960205260ff6040600020541615613aa25760166020526040600020613ad4838254612ede565b90556005811015613bb257506040516040810181811067ffffffffffffffff821117612eff57604052601a81527f4e6f742061637469766520286e656564204c6576656c20312b290000000000006020820152879183915b6040519182526060908160208401528051809284015260005b828110613b97575050907f587d8f9cc4f7ae2f12f916b8ac03ac5414969dfaf447b84acbb1e2b171cb7eb291816080916000838284010152426040830152601f80199101168101030190a33880613aa2565b6020818301810151608086840101528c965087955001613b45565b6008811015613c075750604051613bc881612f15565b602281527f4e65656420322b2064697265637420726566657272616c7320666f72204c362d602082015261098760f31b60408201525b87918391613b2c565b600a1115613c5657604051613c1b81612f15565b602381527f4e65656420332b2064697265637420726566657272616c7320666f72204c392d60208201526204c31360ec1b6040820152613bfe565b604051613c6281612f15565b602481527f4e65656420352b2064697265637420726566657272616c7320666f72204c31316020820152632d4c313360e01b6040820152613bfe565b5061271082041515613918565b5050509350915061271090820204808310613ccf575b50613ccc9250613230565b90565b9091613cdb9082613230565b7f000000000000000000000000000000000000000000000000000000000000000060008181526020868152604080832054905163a9059cbb60e01b81526001600160a01b0360089290921c821660048201526024810186905292839160449183917f0000000000000000000000000000000000000000000000000000000000000000165af190811561076757600091613e06575b5091613ccc9560a092613d9060008051602061472f83398151915295613863565b8060005260136020526003604060002001613dac848254612ede565b905560005260136020526001604060002001613dc9838254612ede565b90556040519182526060602083015260608201527139b837b739b7b92fb1b7b6b6b4b9b9b4b7b760711b6080820152426040820152a19038613cc1565b919290506020823d602011613e59575b81613e2360209383612f86565b8101031261030f57613ccc9560008051602061472f83398151915293613d90613e4d60a095612fa8565b93955050925095613d6f565b3d9150613e16565b508115156138e5565b60ff168015613f125760018114613f0c5760028114613f065760038114613f005760048114613f005760058114613efa5760068114613ef45760078114613eee5760088114613ee85760098114613ee257600a8114613edc57600b8114613edc57600c14613ed757600090565b600a90565b50600a90565b50600f90565b50601490565b50601990565b50601e90565b50602890565b50603290565b50603c90565b50605090565b50606490565b600052601260205260406000209060ff825416158015613f87575b613f805760ff166005811015613f4a575050600190565b6008811015613f60575060046002910154101590565b600a1115613f745760046003910154101590565b60046005910154101590565b5050600090565b506001600383015410613f33565b919092604091825161010081019067ffffffffffffffff9181811083821117612eff57601294600691875260018352876020998a928386019160018060a01b03168252898601908882526060870190815260808701916001835260a088019360009b8c9788875260c08b019789895260e08c0199428b5252528c8c20985115159060ff8a5491610100600160a81b03905160081b169216906affffffffffffffffffffff60a81b16171788555160018801555160028701555160038601555160048501555160058401555191015583519060a08201908282109082111761410f57845282815260048682018481528583018581526060840190868252608085019287845289885260138b52888820955186555160018601555160028501555160038401555191015580151580614105575b6140d2575b5050505050565b6140fb94816017928452601282526004858520016140f08154613075565b905583525220613040565b38808080806140cb565b50838114156140c6565b634e487b7160e01b84526041600452602484fd5b67ffffffffffffffff8111612eff5760051b60200190565b9061414582614123565b6141526040519182612f86565b8281528092614163601f1991614123565b0190602036910137565b8051821015612cfb5760209160051b010190565b9091604092835191610ca0830183811067ffffffffffffffff821117612eff5785526064835260209182840191610c80368437600095600193865115612cfb5783905260009693879390925b83861080614358575b1561434b576141f86141f16141ea88613075565b978a61416d565b5199613075565b92896000526014968789528b6000206000805289526002808d600020541061429d575060005b8b600052888a528c600020600080528a528c8060002054821080614293575b1561428657908b61104061426a8f614281958f8f8793600052815281600020906000805252600020612ce3565b9a905461427682613075565b9b60031b1c9261416d565b61421e565b50949a50965092506141cd565b506064881061423d565b945050975098978094508093506000959195528552866000206000805285526142c98688600020613040565b856000526012855286600020015560005260158252836000206142ec8154613075565b905560015b156142fd575b50505050565b60159281600052601483528460002060008052835261431f8186600020613040565b60005260128252806002856000200155600052526000206143408154613075565b9055388080806142f7565b98975093509450506142f1565b50606489106141d6565b60009081526012602090808252600192604091848383200154938583905b61438e575b50505050505050565b851515806143d6575b156143d15785879685528383526005868620016143b48154613075565b905584528282526143ca86868620015491613075565b9095614380565b614385565b5060648110614397565b90600d811015612cfb5760051b0190565b600033815260116020526040812054801561444d57808252601260205260408083209260136020522090600383015493600584015493600160048201549401549260018201549260066002840154930154919796959493929190565b50908180918180918180918190565b6000903382526011602052604082205480156144a9578252601360205260408220805492600182015493600283015493604060046003860154950154936016602052205491959493929190565b508180918180918190565b60009033825260206011815260408084205480156145855784526012808352818520926004600585015494015493601782528387209084518083858295549384815201908b52858b20928b5b8782821061456f5750505061451792500383612f86565b8195614523835161413b565b96895b8451811015614562578061453d61455d928761416d565b518c52878752888c205460081c6001600160a01b0316611040828c61416d565b614526565b5096955096935096505050565b8554845260019586019588955093019201614500565b50805192915061459483612f4e565b83835251906145a282612f4e565b8382528336813783929190565b906004811015612cfb5760051b0190565b60408051916145ce83612f6a565b6080368437828251916145e083612f6a565b6080368437835183916145f282612f6a565b6080368337819060009533875260209360118552888820549687156147205750507f00000000000000000000000000000000000000000000000000000000000000006001600160a01b0316979050865b60049081811015614714578251632075d10760e21b81529182018890526024820181905260609182816044818e5afa92831561470a578a918b918c956146b6575b50506146b19361469384896145af565b90151590526146a2838a6145af565b9015159052611040828d6145af565b614642565b92509293505081813d8311614703575b6146d08183612f86565b810103126146ff5790816146b192516146f5856146ee8a8501612fa8565b9301612fa8565b9091909338614683565b8880fd5b503d6146c6565b84513d8c823e3d90fd5b50505093509350509250565b99509097509550935050505056fee7392140a76258e2263a339b5bfda7575cf4a9227c701df27629fe8dd52735b1edd09f264659ce99b52fd2a2d4f09e551eb001fe3fc56ffd5704fc1f402bc211fb0ece953ea45e221eab304ac93d016d67c4ff3f6d5ce3d2fb6db7d2043b46fca26469706673582212208d086c1c0ff7d2688e171acf1edcbb16e8acd4811c2a2a04023e3bad812e988464736f6c63430008140033",
  "linkReferences": {},
  "deployedLinkReferences": {}
}